{"abi":[{"type":"constructor","inputs":[],"stateMutability":"nonpayable"},{"type":"function","name":"ADMIN_ROLE","inputs":[],"outputs":[{"name":"","type":"bytes32","internalType":"bytes32"}],"stateMutability":"view"},{"type":"function","name":"DEFAULT_ADMIN_ROLE","inputs":[],"outputs":[{"name":"","type":"bytes32","internalType":"bytes32"}],"stateMutability":"view"},{"type":"function","name":"EXECUTOR_ROLE","inputs":[],"outputs":[{"name":"","type":"bytes32","internalType":"bytes32"}],"stateMutability":"view"},{"type":"function","name":"addInitialLiquidity","inputs":[{"name":"token_","type":"address","internalType":"address"},{"name":"amountToken_","type":"uint256","internalType":"uint256"},{"name":"amountAsset_","type":"uint256","internalType":"uint256"}],"outputs":[{"name":"","type":"uint256","internalType":"uint256"},{"name":"","type":"uint256","internalType":"uint256"}],"stateMutability":"nonpayable"},{"type":"function","name":"approval","inputs":[{"name":"pair","type":"address","internalType":"address"},{"name":"asset","type":"address","internalType":"address"},{"name":"spender","type":"address","internalType":"address"},{"name":"amount","type":"uint256","internalType":"uint256"}],"outputs":[],"stateMutability":"nonpayable"},{"type":"function","name":"assetToken","inputs":[],"outputs":[{"name":"","type":"address","internalType":"address"}],"stateMutability":"view"},{"type":"function","name":"buy","inputs":[{"name":"amountIn","type":"uint256","internalType":"uint256"},{"name":"tokenAddress","type":"address","internalType":"address"},{"name":"to","type":"address","internalType":"address"}],"outputs":[{"name":"","type":"uint256","internalType":"uint256"},{"name":"","type":"uint256","internalType":"uint256"}],"stateMutability":"nonpayable"},{"type":"function","name":"factory","inputs":[],"outputs":[{"name":"","type":"address","internalType":"contract FFactory"}],"stateMutability":"view"},{"type":"function","name":"getAmountsOut","inputs":[{"name":"token","type":"address","internalType":"address"},{"name":"assetToken_","type":"address","internalType":"address"},{"name":"amountIn","type":"uint256","internalType":"uint256"}],"outputs":[{"name":"_amountOut","type":"uint256","internalType":"uint256"}],"stateMutability":"view"},{"type":"function","name":"getRoleAdmin","inputs":[{"name":"role","type":"bytes32","internalType":"bytes32"}],"outputs":[{"name":"","type":"bytes32","internalType":"bytes32"}],"stateMutability":"view"},{"type":"function","name":"graduate","inputs":[{"name":"tokenAddress","type":"address","internalType":"address"}],"outputs":[],"stateMutability":"nonpayable"},{"type":"function","name":"grantRole","inputs":[{"name":"role","type":"bytes32","internalType":"bytes32"},{"name":"account","type":"address","internalType":"address"}],"outputs":[],"stateMutability":"nonpayable"},{"type":"function","name":"hasRole","inputs":[{"name":"role","type":"bytes32","internalType":"bytes32"},{"name":"account","type":"address","internalType":"address"}],"outputs":[{"name":"","type":"bool","internalType":"bool"}],"stateMutability":"view"},{"type":"function","name":"initialize","inputs":[{"name":"factory_","type":"address","internalType":"address"},{"name":"assetToken_","type":"address","internalType":"address"}],"outputs":[],"stateMutability":"nonpayable"},{"type":"function","name":"renounceRole","inputs":[{"name":"role","type":"bytes32","internalType":"bytes32"},{"name":"callerConfirmation","type":"address","internalType":"address"}],"outputs":[],"stateMutability":"nonpayable"},{"type":"function","name":"revokeRole","inputs":[{"name":"role","type":"bytes32","internalType":"bytes32"},{"name":"account","type":"address","internalType":"address"}],"outputs":[],"stateMutability":"nonpayable"},{"type":"function","name":"sell","inputs":[{"name":"amountIn","type":"uint256","internalType":"uint256"},{"name":"tokenAddress","type":"address","internalType":"address"},{"name":"to","type":"address","internalType":"address"}],"outputs":[{"name":"","type":"uint256","internalType":"uint256"},{"name":"","type":"uint256","internalType":"uint256"}],"stateMutability":"nonpayable"},{"type":"function","name":"setTaxManager","inputs":[{"name":"newManager","type":"address","internalType":"address"}],"outputs":[],"stateMutability":"nonpayable"},{"type":"function","name":"supportsInterface","inputs":[{"name":"interfaceId","type":"bytes4","internalType":"bytes4"}],"outputs":[{"name":"","type":"bool","internalType":"bool"}],"stateMutability":"view"},{"type":"function","name":"taxManager","inputs":[],"outputs":[{"name":"","type":"address","internalType":"address"}],"stateMutability":"view"},{"type":"event","name":"Initialized","inputs":[{"name":"version","type":"uint64","indexed":false,"internalType":"uint64"}],"anonymous":false},{"type":"event","name":"RoleAdminChanged","inputs":[{"name":"role","type":"bytes32","indexed":true,"internalType":"bytes32"},{"name":"previousAdminRole","type":"bytes32","indexed":true,"internalType":"bytes32"},{"name":"newAdminRole","type":"bytes32","indexed":true,"internalType":"bytes32"}],"anonymous":false},{"type":"event","name":"RoleGranted","inputs":[{"name":"role","type":"bytes32","indexed":true,"internalType":"bytes32"},{"name":"account","type":"address","indexed":true,"internalType":"address"},{"name":"sender","type":"address","indexed":true,"internalType":"address"}],"anonymous":false},{"type":"event","name":"RoleRevoked","inputs":[{"name":"role","type":"bytes32","indexed":true,"internalType":"bytes32"},{"name":"account","type":"address","indexed":true,"internalType":"address"},{"name":"sender","type":"address","indexed":true,"internalType":"address"}],"anonymous":false},{"type":"error","name":"AccessControlBadConfirmation","inputs":[]},{"type":"error","name":"AccessControlUnauthorizedAccount","inputs":[{"name":"account","type":"address","internalType":"address"},{"name":"neededRole","type":"bytes32","internalType":"bytes32"}]},{"type":"error","name":"AddressEmptyCode","inputs":[{"name":"target","type":"address","internalType":"address"}]},{"type":"error","name":"AddressInsufficientBalance","inputs":[{"name":"account","type":"address","internalType":"address"}]},{"type":"error","name":"FailedInnerCall","inputs":[]},{"type":"error","name":"InvalidInitialization","inputs":[]},{"type":"error","name":"NotInitializing","inputs":[]},{"type":"error","name":"ReentrancyGuardReentrantCall","inputs":[]},{"type":"error","name":"SafeERC20FailedOperation","inputs":[{"name":"token","type":"address","internalType":"address"}]}],"bytecode":{"object":"0x608060405234801561000f575f80fd5b5061001861001d565b6100cf565b7ff0c57e16840df040f15088dc2f81fe391c3923bec73e23a9662efc9c229c6a00805468010000000000000000900460ff161561006d5760405163f92ee8a960e01b815260040160405180910390fd5b80546001600160401b03908116146100cc5780546001600160401b0319166001600160401b0390811782556040519081527fc7f505b2f371ae2175ee4913f4499e1f2633a7b5936321eed1cdaeb6115181d29060200160405180910390a15b50565b611b6d806100dc5f395ff3fe608060405234801561000f575f80fd5b5060043610610127575f3560e01c80636f08e177116100a9578063ba37fd381161006e578063ba37fd38146102a3578063c45a0155146102b6578063d547741f146102c8578063e753858a146102db578063ff6d8d05146102ee575f80fd5b80636f08e1771461022757806375b238fc1461024f57806391d1485414610276578063a217fddf14610289578063ab3c475a14610290575f80fd5b80632f2ff15d116100ef5780632f2ff15d146101c857806336568abe146101db57806345608d00146101ee578063485cc955146102015780634d23773014610214575f80fd5b806301ffc9a71461012b57806307bd026514610153578063095e3913146101755780631083f7611461018a578063248a9ca3146101b5575b5f80fd5b61013e610139366004611795565b610301565b60405190151581526020015b60405180910390f35b6101675f80516020611af883398151915281565b60405190815260200161014a565b6101886101833660046117d0565b610337565b005b60015461019d906001600160a01b031681565b6040516001600160a01b03909116815260200161014a565b6101676101c33660046117eb565b610384565b6101886101d6366004611802565b6103a4565b6101886101e9366004611802565b6103c6565b6101676101fc366004611830565b6103fe565b61018861020f36600461186e565b6105f0565b60025461019d906001600160a01b031681565b61023a61023536600461189a565b61078c565b6040805192835260208301919091520161014a565b6101677fa49807205ce4d355092ef5a8a18f56e8913cf4a201fbe287825b095693c2177581565b61013e610284366004611802565b610b9c565b6101675f81565b61018861029e3660046118d9565b610bd2565b61023a6102b1366004611927565b610cad565b5f5461019d906001600160a01b031681565b6101886102d6366004611802565b610dfe565b61023a6102e936600461189a565b610e1a565b6101886102fc3660046117d0565b61122b565b5f6001600160e01b03198216637965db0b60e01b148061033157506301ffc9a760e01b6001600160e01b03198316145b92915050565b7fa49807205ce4d355092ef5a8a18f56e8913cf4a201fbe287825b095693c21775610361816113c3565b50600280546001600160a01b0319166001600160a01b0392909216919091179055565b5f9081525f80516020611ad8833981519152602052604090206001015490565b6103ad82610384565b6103b6816113c3565b6103c083836113d0565b50505050565b6001600160a01b03811633146103ef5760405163334bd91960e11b815260040160405180910390fd5b6103f98282611471565b505050565b5f6001600160a01b03841661042e5760405162461bcd60e51b815260040161042590611959565b60405180910390fd5b5f805460015460405163e6a4390560e01b81526001600160a01b038881166004830152918216602482015291169063e6a4390590604401602060405180830381865afa158015610480573d5f803e3d5ffd5b505050506040513d601f19601f820116820180604052508101906104a49190611990565b90505f8190505f80826001600160a01b0316630902f1ac6040518163ffffffff1660e01b81526004016040805180830381865afa1580156104e7573d5f803e3d5ffd5b505050506040513d601f19601f8201168201806040525081019061050b91906119ab565b915091505f836001600160a01b0316637464fc3d6040518163ffffffff1660e01b8152600401602060405180830381865afa15801561054c573d5f803e3d5ffd5b505050506040513d601f19601f8201168201806040525081019061057091906119cd565b6001549091505f906001600160a01b03908116908a16036105b8575f61059689856119f8565b90505f6105a38285611a0b565b90506105af8187611a2a565b925050506105e1565b5f6105c389866119f8565b90505f6105d08285611a0b565b90506105dc8186611a2a565b925050505b955050505050505b9392505050565b7ff0c57e16840df040f15088dc2f81fe391c3923bec73e23a9662efc9c229c6a008054600160401b810460ff16159067ffffffffffffffff165f811580156106355750825b90505f8267ffffffffffffffff1660011480156106515750303b155b90508115801561065f575080155b1561067d5760405163f92ee8a960e01b815260040160405180910390fd5b845467ffffffffffffffff1916600117855583156106a757845460ff60401b1916600160401b1785555b6106af6114ea565b6106b76114fc565b6106c15f336113d0565b506001600160a01b0387166106e85760405162461bcd60e51b815260040161042590611959565b6001600160a01b03861661070e5760405162461bcd60e51b815260040161042590611959565b5f80546001600160a01b03808a166001600160a01b0319928316179092556001805492891692909116919091179055831561078357845460ff60401b19168555604051600181527fc7f505b2f371ae2175ee4913f4499e1f2633a7b5936321eed1cdaeb6115181d29060200160405180910390a15b50505050505050565b5f80610796611504565b5f80516020611af88339815191526107ad816113c3565b6001600160a01b0385166107d35760405162461bcd60e51b815260040161042590611959565b6001600160a01b0384166107f95760405162461bcd60e51b815260040161042590611959565b5f805460015460405163e6a4390560e01b81526001600160a01b038981166004830152918216602482015291169063e6a4390590604401602060405180830381865afa15801561084b573d5f803e3d5ffd5b505050506040513d601f19601f8201168201806040525081019061086f9190611990565b905080865f61087f82828c6103fe565b90506108966001600160a01b03831689868d61153b565b5f805f9054906101000a90046001600160a01b03166001600160a01b031663cc1776d36040518163ffffffff1660e01b8152600401602060405180830381865afa1580156108e6573d5f803e3d5ffd5b505050506040513d601f19601f8201168201806040525081019061090a91906119cd565b90505f60646109198484611a3d565b6109239190611a0b565b90505f6109308285611a2a565b90505f805f9054906101000a90046001600160a01b03166001600160a01b031663e2ad37b06040518163ffffffff1660e01b8152600401602060405180830381865afa158015610982573d5f803e3d5ffd5b505050506040513d601f19601f820116820180604052508101906109a69190611990565b604051635c921eb960e01b81526001600160a01b038e811660048301526024820185905291925090881690635c921eb9906044015f604051808303815f87803b1580156109f1575f80fd5b505af1158015610a03573d5f803e3d5ffd5b5050604051635c921eb960e01b81526001600160a01b038481166004830152602482018790528a169250635c921eb991506044015f604051808303815f87803b158015610a4e575f80fd5b505af1158015610a60573d5f803e3d5ffd5b50505050866001600160a01b0316635673b02d8f5f80896040518563ffffffff1660e01b8152600401610aac949392919093845260208401929092526040830152606082015260800190565b6020604051808303815f875af1158015610ac8573d5f803e3d5ffd5b505050506040513d601f19601f82011682018060405250810190610aec9190611a68565b506002546001600160a01b0390811690821603610b70576002546040805163951d833d60e01b815281516001600160a01b039093169263951d833d9260048084019391929182900301815f875af1158015610b49573d5f803e3d5ffd5b505050506040513d601f19601f82011682018060405250810190610b6d9190611a81565b50505b508c995092975050505050505050610b9460015f80516020611b1883398151915255565b935093915050565b5f9182525f80516020611ad8833981519152602090815260408084206001600160a01b0393909316845291905290205460ff1690565b5f80516020611af8833981519152610be9816113c3565b610bf1611504565b6001600160a01b038316610c175760405162461bcd60e51b815260040161042590611959565b604051632e2952f960e11b81526001600160a01b038481166004830152858116602483015260448201849052861690635c52a5f2906064016020604051808303815f875af1158015610c6b573d5f803e3d5ffd5b505050506040513d601f19601f82011682018060405250810190610c8f9190611a68565b50610ca660015f80516020611b1883398151915255565b5050505050565b5f805f80516020611af8833981519152610cc6816113c3565b6001600160a01b038616610cec5760405162461bcd60e51b815260040161042590611959565b5f805460015460405163e6a4390560e01b81526001600160a01b038a81166004830152918216602482015291169063e6a4390590604401602060405180830381865afa158015610d3e573d5f803e3d5ffd5b505050506040513d601f19601f82011682018060405250810190610d629190611990565b90508087610d7b6001600160a01b03821633848b61153b565b604051630d9778e560e11b815260048101899052602481018890526001600160a01b03831690631b2ef1ca906044016020604051808303815f875af1158015610dc6573d5f803e3d5ffd5b505050506040513d601f19601f82011682018060405250810190610dea9190611a68565b508787955095505050505b50935093915050565b610e0782610384565b610e10816113c3565b6103c08383611471565b5f805f80516020611af8833981519152610e33816113c3565b610e3b611504565b6001600160a01b038516610e615760405162461bcd60e51b815260040161042590611959565b6001600160a01b038416610e875760405162461bcd60e51b815260040161042590611959565b5f8611610ed65760405162461bcd60e51b815260206004820152601f60248201527f616d6f756e74496e206d7573742062652067726561746572207468616e2030006044820152606401610425565b5f805460015460405163e6a4390560e01b81526001600160a01b038981166004830152918216602482015291169063e6a4390590604401602060405180830381865afa158015610f28573d5f803e3d5ffd5b505050506040513d601f19601f82011682018060405250810190610f4c9190611990565b90505f805f9054906101000a90046001600160a01b03166001600160a01b0316634f7041a56040518163ffffffff1660e01b8152600401602060405180830381865afa158015610f9e573d5f803e3d5ffd5b505050506040513d601f19601f82011682018060405250810190610fc291906119cd565b90505f6064610fd18a84611a3d565b610fdb9190611a0b565b90505f805f9054906101000a90046001600160a01b03166001600160a01b031663e2ad37b06040518163ffffffff1660e01b8152600401602060405180830381865afa15801561102d573d5f803e3d5ffd5b505050506040513d601f19601f820116820180604052508101906110519190611990565b90505f61105e838c611a2a565b600154909150611079906001600160a01b03168a878461153b565b600154611091906001600160a01b03168a848661153b565b6001545f906110ab908c906001600160a01b0316846103fe565b6040516302ccb1b360e41b81526001600160a01b038c811660048301526024820183905291925090871690632ccb1b30906044015f604051808303815f87803b1580156110f6575f80fd5b505af1158015611108573d5f803e3d5ffd5b5050604051635673b02d60e01b81525f60048201819052602482018590526044820186905260648201526001600160a01b0389169250635673b02d91506084016020604051808303815f875af1158015611164573d5f803e3d5ffd5b505050506040513d601f19601f820116820180604052508101906111889190611a68565b506002546001600160a01b039081169084160361120c576002546040805163951d833d60e01b815281516001600160a01b039093169263951d833d9260048084019391929182900301815f875af11580156111e5573d5f803e3d5ffd5b505050506040513d601f19601f820116820180604052508101906112099190611a81565b50505b909750955050505050610df560015f80516020611b1883398151915255565b5f80516020611af8833981519152611242816113c3565b61124a611504565b6001600160a01b0382166112705760405162461bcd60e51b815260040161042590611959565b5f805460015460405163e6a4390560e01b81526001600160a01b038681166004830152918216602482015291169063e6a4390590604401602060405180830381865afa1580156112c2573d5f803e3d5ffd5b505050506040513d601f19601f820116820180604052508101906112e69190611990565b90505f816001600160a01b031663c66f24556040518163ffffffff1660e01b8152600401602060405180830381865afa158015611325573d5f803e3d5ffd5b505050506040513d601f19601f8201168201806040525081019061134991906119cd565b604051635c921eb960e01b8152336004820152602481018290529091506001600160a01b03831690635c921eb9906044015f604051808303815f87803b158015611391575f80fd5b505af11580156113a3573d5f803e3d5ffd5b5050505050506113bf60015f80516020611b1883398151915255565b5050565b6113cd81336115a8565b50565b5f5f80516020611ad88339815191526113e98484610b9c565b611468575f848152602082815260408083206001600160a01b03871684529091529020805460ff1916600117905561141e3390565b6001600160a01b0316836001600160a01b0316857f2f8788117e7eff1d82e926ec794901d17c78024a50270940304540a733656f0d60405160405180910390a46001915050610331565b5f915050610331565b5f5f80516020611ad883398151915261148a8484610b9c565b15611468575f848152602082815260408083206001600160a01b0387168085529252808320805460ff1916905551339287917ff6391f5c32d9c69d2a47ea670b442974b53935d1edc7fd64eb21e047a839171b9190a46001915050610331565b6114f26115e1565b6114fa61162a565b565b6114fa6115e1565b5f80516020611b1883398151915280546001190161153557604051633ee5aeb560e01b815260040160405180910390fd5b60029055565b604080516001600160a01b0385811660248301528416604482015260648082018490528251808303909101815260849091019091526020810180516001600160e01b03166323b872dd60e01b1790526103c0908590611632565b60015f80516020611b1883398151915255565b6115b28282610b9c565b6113bf5760405163e2517d3f60e01b81526001600160a01b038216600482015260248101839052604401610425565b7ff0c57e16840df040f15088dc2f81fe391c3923bec73e23a9662efc9c229c6a0054600160401b900460ff166114fa57604051631afcd79f60e31b815260040160405180910390fd5b6115956115e1565b5f6116466001600160a01b03841683611693565b905080515f1415801561166a5750808060200190518101906116689190611a68565b155b156103f957604051635274afe760e01b81526001600160a01b0384166004820152602401610425565b60606105e983835f845f80856001600160a01b031684866040516116b79190611aab565b5f6040518083038185875af1925050503d805f81146116f1576040519150601f19603f3d011682016040523d82523d5f602084013e6116f6565b606091505b5091509150611706868383611710565b9695505050505050565b606082611725576117208261176c565b6105e9565b815115801561173c57506001600160a01b0384163b155b1561176557604051639996b31560e01b81526001600160a01b0385166004820152602401610425565b50806105e9565b80511561177c5780518082602001fd5b604051630a12f52160e11b815260040160405180910390fd5b5f602082840312156117a5575f80fd5b81356001600160e01b0319811681146105e9575f80fd5b6001600160a01b03811681146113cd575f80fd5b5f602082840312156117e0575f80fd5b81356105e9816117bc565b5f602082840312156117fb575f80fd5b5035919050565b5f8060408385031215611813575f80fd5b823591506020830135611825816117bc565b809150509250929050565b5f805f60608486031215611842575f80fd5b833561184d816117bc565b9250602084013561185d816117bc565b929592945050506040919091013590565b5f806040838503121561187f575f80fd5b823561188a816117bc565b91506020830135611825816117bc565b5f805f606084860312156118ac575f80fd5b8335925060208401356118be816117bc565b915060408401356118ce816117bc565b809150509250925092565b5f805f80608085870312156118ec575f80fd5b84356118f7816117bc565b93506020850135611907816117bc565b92506040850135611917816117bc565b9396929550929360600135925050565b5f805f60608486031215611939575f80fd5b8335611944816117bc565b95602085013595506040909401359392505050565b6020808252601f908201527f5a65726f2061646472657373657320617265206e6f7420616c6c6f7765642e00604082015260600190565b5f602082840312156119a0575f80fd5b81516105e9816117bc565b5f80604083850312156119bc575f80fd5b505080516020909101519092909150565b5f602082840312156119dd575f80fd5b5051919050565b634e487b7160e01b5f52601160045260245ffd5b80820180821115610331576103316119e4565b5f82611a2557634e487b7160e01b5f52601260045260245ffd5b500490565b81810381811115610331576103316119e4565b8082028115828204841417610331576103316119e4565b80518015158114611a63575f80fd5b919050565b5f60208284031215611a78575f80fd5b6105e982611a54565b5f8060408385031215611a92575f80fd5b611a9b83611a54565b9150602083015190509250929050565b5f82515f5b81811015611aca5760208186018101518583015201611ab0565b505f92019182525091905056fe02dd7bc7dec4dceedda775e58dd541e08a116c6c53815c0bd028192f7b626800d8aa0f3194971a2a116679f7c2090f6939c8d4e01a2a8d7e41d55e5351469e639b779b17422d0df92223018b32b4d1fa46e071723d6817e2486d003becc55f00a2646970667358221220fef527c84fc7e9109ffeb8f914967955ce278266722b7ffe881e55d62ecf487e64736f6c63430008160033","linkReferences":{}},"methodIdentifiers":{"ADMIN_ROLE()":"75b238fc","DEFAULT_ADMIN_ROLE()":"a217fddf","EXECUTOR_ROLE()":"07bd0265","addInitialLiquidity(address,uint256,uint256)":"ba37fd38","approval(address,address,address,uint256)":"ab3c475a","assetToken()":"1083f761","buy(uint256,address,address)":"e753858a","factory()":"c45a0155","getAmountsOut(address,address,uint256)":"45608d00","getRoleAdmin(bytes32)":"248a9ca3","graduate(address)":"ff6d8d05","grantRole(bytes32,address)":"2f2ff15d","hasRole(bytes32,address)":"91d14854","initialize(address,address)":"485cc955","renounceRole(bytes32,address)":"36568abe","revokeRole(bytes32,address)":"d547741f","sell(uint256,address,address)":"6f08e177","setTaxManager(address)":"095e3913","supportsInterface(bytes4)":"01ffc9a7","taxManager()":"4d237730"},"id":2}