{"abi":[{"type":"constructor","inputs":[],"stateMutability":"nonpayable"},{"type":"function","name":"ADMIN_ROLE","inputs":[],"outputs":[{"name":"","type":"bytes32","internalType":"bytes32"}],"stateMutability":"view"},{"type":"function","name":"DEFAULT_ADMIN_ROLE","inputs":[],"outputs":[{"name":"","type":"bytes32","internalType":"bytes32"}],"stateMutability":"view"},{"type":"function","name":"EXECUTOR_ROLE","inputs":[],"outputs":[{"name":"","type":"bytes32","internalType":"bytes32"}],"stateMutability":"view"},{"type":"function","name":"addInitialLiquidity","inputs":[{"name":"token_","type":"address","internalType":"address"},{"name":"amountToken_","type":"uint256","internalType":"uint256"},{"name":"amountAsset_","type":"uint256","internalType":"uint256"}],"outputs":[{"name":"","type":"uint256","internalType":"uint256"},{"name":"","type":"uint256","internalType":"uint256"}],"stateMutability":"nonpayable"},{"type":"function","name":"approval","inputs":[{"name":"pair","type":"address","internalType":"address"},{"name":"asset","type":"address","internalType":"address"},{"name":"spender","type":"address","internalType":"address"},{"name":"amount","type":"uint256","internalType":"uint256"}],"outputs":[],"stateMutability":"nonpayable"},{"type":"function","name":"assetToken","inputs":[],"outputs":[{"name":"","type":"address","internalType":"address"}],"stateMutability":"view"},{"type":"function","name":"buy","inputs":[{"name":"amountIn","type":"uint256","internalType":"uint256"},{"name":"tokenAddress","type":"address","internalType":"address"},{"name":"to","type":"address","internalType":"address"}],"outputs":[{"name":"","type":"uint256","internalType":"uint256"},{"name":"","type":"uint256","internalType":"uint256"}],"stateMutability":"nonpayable"},{"type":"function","name":"factory","inputs":[],"outputs":[{"name":"","type":"address","internalType":"contract FFactory"}],"stateMutability":"view"},{"type":"function","name":"getAmountsOut","inputs":[{"name":"token","type":"address","internalType":"address"},{"name":"assetToken_","type":"address","internalType":"address"},{"name":"amountIn","type":"uint256","internalType":"uint256"}],"outputs":[{"name":"_amountOut","type":"uint256","internalType":"uint256"}],"stateMutability":"view"},{"type":"function","name":"getRoleAdmin","inputs":[{"name":"role","type":"bytes32","internalType":"bytes32"}],"outputs":[{"name":"","type":"bytes32","internalType":"bytes32"}],"stateMutability":"view"},{"type":"function","name":"graduate","inputs":[{"name":"tokenAddress","type":"address","internalType":"address"}],"outputs":[],"stateMutability":"nonpayable"},{"type":"function","name":"grantRole","inputs":[{"name":"role","type":"bytes32","internalType":"bytes32"},{"name":"account","type":"address","internalType":"address"}],"outputs":[],"stateMutability":"nonpayable"},{"type":"function","name":"hasRole","inputs":[{"name":"role","type":"bytes32","internalType":"bytes32"},{"name":"account","type":"address","internalType":"address"}],"outputs":[{"name":"","type":"bool","internalType":"bool"}],"stateMutability":"view"},{"type":"function","name":"initialize","inputs":[{"name":"factory_","type":"address","internalType":"address"},{"name":"assetToken_","type":"address","internalType":"address"}],"outputs":[],"stateMutability":"nonpayable"},{"type":"function","name":"renounceRole","inputs":[{"name":"role","type":"bytes32","internalType":"bytes32"},{"name":"callerConfirmation","type":"address","internalType":"address"}],"outputs":[],"stateMutability":"nonpayable"},{"type":"function","name":"revokeRole","inputs":[{"name":"role","type":"bytes32","internalType":"bytes32"},{"name":"account","type":"address","internalType":"address"}],"outputs":[],"stateMutability":"nonpayable"},{"type":"function","name":"sell","inputs":[{"name":"amountIn","type":"uint256","internalType":"uint256"},{"name":"tokenAddress","type":"address","internalType":"address"},{"name":"to","type":"address","internalType":"address"}],"outputs":[{"name":"","type":"uint256","internalType":"uint256"},{"name":"","type":"uint256","internalType":"uint256"}],"stateMutability":"nonpayable"},{"type":"function","name":"setTaxManager","inputs":[{"name":"newManager","type":"address","internalType":"address"}],"outputs":[],"stateMutability":"nonpayable"},{"type":"function","name":"supportsInterface","inputs":[{"name":"interfaceId","type":"bytes4","internalType":"bytes4"}],"outputs":[{"name":"","type":"bool","internalType":"bool"}],"stateMutability":"view"},{"type":"function","name":"taxManager","inputs":[],"outputs":[{"name":"","type":"address","internalType":"address"}],"stateMutability":"view"},{"type":"event","name":"Initialized","inputs":[{"name":"version","type":"uint64","indexed":false,"internalType":"uint64"}],"anonymous":false},{"type":"event","name":"RoleAdminChanged","inputs":[{"name":"role","type":"bytes32","indexed":true,"internalType":"bytes32"},{"name":"previousAdminRole","type":"bytes32","indexed":true,"internalType":"bytes32"},{"name":"newAdminRole","type":"bytes32","indexed":true,"internalType":"bytes32"}],"anonymous":false},{"type":"event","name":"RoleGranted","inputs":[{"name":"role","type":"bytes32","indexed":true,"internalType":"bytes32"},{"name":"account","type":"address","indexed":true,"internalType":"address"},{"name":"sender","type":"address","indexed":true,"internalType":"address"}],"anonymous":false},{"type":"event","name":"RoleRevoked","inputs":[{"name":"role","type":"bytes32","indexed":true,"internalType":"bytes32"},{"name":"account","type":"address","indexed":true,"internalType":"address"},{"name":"sender","type":"address","indexed":true,"internalType":"address"}],"anonymous":false},{"type":"error","name":"AccessControlBadConfirmation","inputs":[]},{"type":"error","name":"AccessControlUnauthorizedAccount","inputs":[{"name":"account","type":"address","internalType":"address"},{"name":"neededRole","type":"bytes32","internalType":"bytes32"}]},{"type":"error","name":"AddressEmptyCode","inputs":[{"name":"target","type":"address","internalType":"address"}]},{"type":"error","name":"AddressInsufficientBalance","inputs":[{"name":"account","type":"address","internalType":"address"}]},{"type":"error","name":"FailedInnerCall","inputs":[]},{"type":"error","name":"InvalidInitialization","inputs":[]},{"type":"error","name":"NotInitializing","inputs":[]},{"type":"error","name":"ReentrancyGuardReentrantCall","inputs":[]},{"type":"error","name":"SafeERC20FailedOperation","inputs":[{"name":"token","type":"address","internalType":"address"}]}],"bytecode":{"object":"0x608080604052346100b8577ff0c57e16840df040f15088dc2f81fe391c3923bec73e23a9662efc9c229c6a009081549060ff8260401c166100a957506001600160401b036002600160401b031982821601610064575b604051611a0890816100bd8239f35b6001600160401b031990911681179091556040519081527fc7f505b2f371ae2175ee4913f4499e1f2633a7b5936321eed1cdaeb6115181d290602090a15f8080610055565b63f92ee8a960e01b8152600490fd5b5f80fdfe60806040818152600480361015610014575f80fd5b5f925f3560e01c90816301ffc9a7146112075750806307bd0265146111cd578063095e39131461112e5780631083f76114611106578063248a9ca3146110cf5780632f2ff15d1461108857806336568abe1461104157806345608d0014611009578063485cc95514610e775780634d23773014610e4f5780636f08e177146109c157806375b238fc1461098657806391d1485414610937578063a217fddf1461091c578063ab3c475a14610823578063ba37fd38146106c5578063c45a015514610699578063d547741f1461064a578063e753858a146102ac5763ff6d8d05146100fc575f80fd5b8291346102a857602091826003193601126102a357610119611259565b610121611578565b6101296117c5565b6001600160a01b039061018490859061014581851615156112ba565b8754600154875163e6a4390560e01b81526001600160a01b03938416888201908152918716909316602082015291938492918616918391829160400190565b03915afa90811561026c578691610276575b501692825163c66f245560e01b815281818481885afa91821561026c578692610237575b5050833b15610233578251635c921eb960e01b815233928101928352602083019190915292849184919082908490829060400103925af190811561022a5750610213575b5060015f805160206119b38339815191525580f35b61021c90611306565b61022757805f6101fe565b80fd5b513d84823e3d90fd5b8480fd5b8196508092503d8311610265575b61024f818361132e565b81010312610261578493515f806101ba565b5f80fd5b503d610245565b84513d88823e3d90fd5b6102969150853d871161029c575b61028e818361132e565b810190611350565b5f610196565b503d610284565b505050fd5b5050fd5b509134610227576102bc36611285565b919290946102c8611578565b6102d06117c5565b6001600160a01b036102e587821615156112ba565b6102f281851615156112ba565b8415610607578254600154875163e6a4390560e01b81526001600160a01b03808b16868301908152928516908116602084810191909152919891979385169290919088908a9081906040010381865afa9889156105fd5787996105de575b508951634f7041a560e01b815288818881875afa90811561059f578795949392918a918a916105a9575b506103878360649261153b565b04938c5196878092630e2ad37b60e41b82525afa94851561059f57918693918b9c9d938b8b98610570575b505082916103c2879485936113ae565b9d6103ce928f926117f4565b858460015416926103de936117f4565b8982600154166103ed926113bb565b971690813b1561056c5789516302ccb1b360e41b81526001600160a01b0390911685820190815260208101899052869082908190604001038183865af18015610562579187918793610549575b5060848b5180948193635673b02d60e01b8352818a8401528c60248401528d60448401528160648401525af1801561053f579089939291610504575b506002548216911681146104a4575b5050505060015f805160206119b3833981519152558351928352820152f35b839282518095819363951d833d60e01b83525af19081156104f957506104cd575b808581610485565b6104ec90853d87116104f2575b6104e4818361132e565b81019061155b565b506104c5565b503d6104da565b8651903d90823e3d90fd5b909192508581813d8311610538575b61051d818361132e565b81010312610233579061053189939261154e565b505f610476565b503d610513565b89513d87823e3d90fd5b61055591939250611306565b610233578585915f61043a565b8a513d88823e3d90fd5b8580fd5b879485939950610592819593836103c294903d1061029c5761028e818361132e565b999350505091928b6103b2565b8b513d8a823e3d90fd5b96505085813d83116105d7575b6105c0818361132e565b81010312610261579351869490899061038761037a565b503d6105b6565b6105f6919950883d8a1161029c5761028e818361132e565b975f610350565b8a513d89823e3d90fd5b855162461bcd60e51b8152602081840152601f60248201527f616d6f756e74496e206d7573742062652067726561746572207468616e2030006044820152606490fd5b509034610695578060031936011261069557610691913561068c600161066e61126f565b938387525f80516020611993833981519152602052862001546115f1565b611746565b5080f35b8280fd5b5050346106c157816003193601126106c157905490516001600160a01b039091168152602090f35b5080fd5b508234610227576060366003190112610227576106e0611259565b60243592604435926106f0611578565b6001600160a01b0383811692906107088415156112ba565b8254600154895163e6a4390560e01b81526001600160a01b03978816858201908152918416909716602080830191909152969591879187918516908290819060400103915afa9485156108195791869391899386976107eb575b50604492916107758589899433906117f4565b8b519788958694630d9778e560e11b86528501528a6024850152165af180156107df576107a9575b50508351928352820152f35b8282813d83116107d8575b6107be818361132e565b8101031261022757506107d09061154e565b50848061079d565b503d6107b4565b508551903d90823e3d90fd5b86919750916107758561080d60449695893d8b1161029c5761028e818361132e565b99935050509192610762565b89513d86823e3d90fd5b5090346106955760803660031901126106955761083e611259565b61084661126f565b6001600160a01b0393604435929091858416808503610261576108bd966020956108828a93610873611578565b61087b6117c5565b15156112ba565b8751632e2952f960e11b81526001600160a01b0391821696810196875293166020860152606435604086015291968794859391849160600190565b0393165af190811561022a57506108e3575060015f805160206119b38339815191525580f35b6020813d602011610914575b816108fc6020938361132e565b810103126106c15761090d9061154e565b505f6101fe565b3d91506108ef565b5050346106c157816003193601126106c15751908152602090f35b50346106955781600319360112610695578160209361095461126f565b923581525f805160206119938339815191528552209060018060a01b03165f52825260ff815f20541690519015158152f35b5050346106c157816003193601126106c157602090517fa49807205ce4d355092ef5a8a18f56e8913cf4a201fbe287825b095693c217758152f35b508234610261576109d136611285565b929091936109dd6117c5565b6109e5611578565b6001600160a01b03838116946109fc8615156112ba565b610a0982821615156112ba565b815f5416826001541689805163e6a4390560e01b8152602098898280610a4b87858d840190602090939293604083019460018060a01b03809216845216910152565b0381885afa918215610e45578b958b928a87935f96610e24575b508596610a798c610aab98169a15156112ba565b5163e6a4390560e01b81526001600160a01b039283169181019182529190931660208401529384928391829160400190565b03915afa8015610d065786915f91610e07575b508c51630240bc6b60e21b81529291168c838981845afa928d8415610dfe5789928c915f935f97610dc2575b5051637464fc3d60e01b815293849182905afa8015610db8578d9488935f92610d80575b508590610b4097155f14610d6f5791610b2e610b3492610b3a959461136f565b90611390565b906113ae565b9a6117f4565b825f541689519263cc1776d360e01b845287848781855afa938415610d655786948a915f91610d2f575b50606491610b779161153b565b049188610b84848c6113ae565b918d5196878092630e2ad37b60e41b82525afa948515610d06575f95610d10575b50833b15610261578b51635c921eb960e01b8082526001600160a01b039093168882019081526020810192909252905f9082908190604001038183885af18015610d0657610cf3575b50823b15610cef578a519081526001600160a01b038416868201908152602081019290925290869082908190604001038183865af18015610562579187918793610cd6575b5060848b5180948193635673b02d60e01b83528d8a8401528160248401528160448401528c60648401525af1801561053f579089939291610c9b57506002548216911681146104a4575050505060015f805160206119b3833981519152558351928352820152f35b909192508581813d8311610ccf575b610cb4818361132e565b810103126102335790610cc889939261154e565b5089610476565b503d610caa565b610ce291939250611306565b610233578585918b610c33565b8680fd5b610cfe919750611306565b5f958b610bee565b8c513d5f823e3d90fd5b610d28919550893d8b1161029c5761028e818361132e565b938c610ba5565b955050508784813d8311610d5e575b610d48818361132e565b8101031261026157925185939089906064610b6a565b503d610d3e565b8b513d5f823e3d90fd5b91610b2e610b3492610b3a9561136f565b95509250508a84813d8311610db1575b610d9a818361132e565b810103126102615792518c93879290919085610b0e565b503d610d90565b8e513d5f823e3d90fd5b9650925092505083813d8311610df7575b610ddd818361132e565b81010312610261578251928a01519288918b908f5f610aea565b503d610dd3565b513d5f823e3d90fd5b610e1e91508a3d8c1161029c5761028e818361132e565b8d610abe565b610aab9650610e3f90863d881161029c5761028e818361132e565b95610a65565b83513d5f823e3d90fd5b8234610261575f3660031901126102615760025490516001600160a01b039091168152602090f35b5034610261578160031936011261026157610e90611259565b90610e9961126f565b917ff0c57e16840df040f15088dc2f81fe391c3923bec73e23a9662efc9c229c6a009283549160ff83871c16159267ffffffffffffffff811694851580611002575b60018097149081610ff8575b159081610fef575b50610fe1575067ffffffffffffffff1981168517865583610fc2575b50610f146118ee565b610f1c6118ee565b835f805160206119b383398151915255610f346118ee565b610f3d3361161f565b506001600160a01b0390811691610f558315156112ba565b1690610f628215156112ba565b6bffffffffffffffffffffffff60a01b90815f5416175f55835416178255610f8657005b7fc7f505b2f371ae2175ee4913f4499e1f2633a7b5936321eed1cdaeb6115181d29260209268ff000000000000000019815416905551908152a1005b68ffffffffffffffffff19166801000000000000000117855586610f0b565b875163f92ee8a960e01b8152fd5b90501589610eef565b303b159150610ee7565b5084610edb565b82346102615760603660031901126102615760209061103a611029611259565b61103161126f565b604435916113bb565b9051908152f35b50903461026157806003193601126102615761105b61126f565b90336001600160a01b0383160361107957506110779135611746565b005b5163334bd91960e11b81529050fd5b50903461026157806003193601126102615761107791356110ca60016110ac61126f565b93835f525f805160206119938339815191526020525f2001546115f1565b6116bc565b50903461026157602036600319011261026157602091355f525f8051602061199383398151915282526001815f2001549051908152f35b8234610261575f3660031901126102615760015490516001600160a01b039091168152602090f35b503461026157602036600319011261026157611148611259565b917fa49807205ce4d355092ef5a8a18f56e8913cf4a201fbe287825b095693c2177590815f525f80516020611993833981519152602052805f20335f5260205260ff815f205416156111b157600280546001600160a01b0319166001600160a01b038616179055005b60449350519163e2517d3f60e01b835233908301526024820152fd5b8234610261575f36600319011261026157602090517fd8aa0f3194971a2a116679f7c2090f6939c8d4e01a2a8d7e41d55e5351469e638152f35b823461026157602036600319011261026157359063ffffffff60e01b821680920361026157602091637965db0b60e01b8114908115611248575b5015158152f35b6301ffc9a760e01b14905083611241565b600435906001600160a01b038216820361026157565b602435906001600160a01b038216820361026157565b606090600319011261026157600435906001600160a01b03906024358281168103610261579160443590811681036102615790565b156112c157565b60405162461bcd60e51b815260206004820152601f60248201527f5a65726f2061646472657373657320617265206e6f7420616c6c6f7765642e006044820152606490fd5b67ffffffffffffffff811161131a57604052565b634e487b7160e01b5f52604160045260245ffd5b90601f8019910116810190811067ffffffffffffffff82111761131a57604052565b9081602091031261026157516001600160a01b03811681036102615790565b9190820180921161137c57565b634e487b7160e01b5f52601160045260245ffd5b811561139a570490565b634e487b7160e01b5f52601260045260245ffd5b9190820391821161137c57565b6001600160a01b039290916113d384841615156112ba565b5f546001546040805163e6a4390560e01b81526001600160a01b039687166004820152918716958616602483015260209690959290919087908290604490829086165afa908115611531579082915f91611514575b501692855196630240bc6b60e21b88528688600481885afa94851561150a575f985f966114d5575b509080600492895193848092637464fc3d60e01b82525afa978815610dfe57505f976114a5575b505016036114945791610b2e610b3492611491959461136f565b90565b91610b2e610b34926114919561136f565b9080929750813d83116114ce575b6114bd818361132e565b810103126102615751945f80611477565b503d6114b3565b985094508688813d8111611503575b6114ee818361132e565b81010312610261578751978101519481611450565b503d6114e4565b87513d5f823e3d90fd5b61152b9150883d8a1161029c5761028e818361132e565b5f611428565b86513d5f823e3d90fd5b8181029291811591840414171561137c57565b5190811515820361026157565b91908260409103126102615760206115728361154e565b92015190565b335f9081527f52fce5e8a5d0d9e8d1ea29f4525e512e9c27bf92cae50374d497f918ab48f38260205260409020547fd8aa0f3194971a2a116679f7c2090f6939c8d4e01a2a8d7e41d55e5351469e639060ff16156115d35750565b6044906040519063e2517d3f60e01b82523360048301526024820152fd5b805f525f8051602061199383398151915260205260405f20335f5260205260ff60405f205416156115d35750565b6001600160a01b03165f8181527fb7db2dd08fcb62d0c9e08c51941cae53c267786a0b75803fb7960902fc8ef97d60205260409020545f805160206119938339815191529060ff166116b6575f805260205260405f20815f5260205260405f20600160ff1982541617905533905f7f2f8788117e7eff1d82e926ec794901d17c78024a50270940304540a733656f0d8180a4600190565b50505f90565b90815f525f805160206119938339815191528060205260405f209160018060a01b031691825f5260205260ff60405f205416155f1461173f57825f5260205260405f20815f5260205260405f20600160ff1982541617905533917f2f8788117e7eff1d82e926ec794901d17c78024a50270940304540a733656f0d5f80a4600190565b5050505f90565b90815f525f805160206119938339815191528060205260405f209160018060a01b031691825f5260205260ff60405f2054165f1461173f57825f5260205260405f20815f5260205260405f2060ff19815416905533917ff6391f5c32d9c69d2a47ea670b442974b53935d1edc7fd64eb21e047a839171b5f80a4600190565b5f805160206119b383398151915260028154146117e25760029055565b604051633ee5aeb560e01b8152600490fd5b6040516323b872dd60e01b602082019081526001600160a01b03938416602483015293909216604483015260648083019490945292815291601f19915f9182919061184060848761132e565b60018060a01b031694519082865af1903d156118e1573d9167ffffffffffffffff831161131a5761189092611880602060405194601f840116018461132e565b82523d5f602084013e5b8361192f565b80519081151591826118be575b50506118a65750565b60249060405190635274afe760e01b82526004820152fd5b81925090602091810103126102615760206118d9910161154e565b155f8061189d565b506118909060609061188a565b60ff7ff0c57e16840df040f15088dc2f81fe391c3923bec73e23a9662efc9c229c6a005460401c161561191d57565b604051631afcd79f60e31b8152600490fd5b90611956575080511561194457805190602001fd5b604051630a12f52160e11b8152600490fd5b81511580611989575b611967575090565b604051639996b31560e01b81526001600160a01b039091166004820152602490fd5b50803b1561195f56fe02dd7bc7dec4dceedda775e58dd541e08a116c6c53815c0bd028192f7b6268009b779b17422d0df92223018b32b4d1fa46e071723d6817e2486d003becc55f00a264697066735822122083dc4deccb722b282bfd9c6d75755a73317a228d4bd9ed7d29d935e8eed0e6c564736f6c63430008160033","linkReferences":{}},"methodIdentifiers":{"ADMIN_ROLE()":"75b238fc","DEFAULT_ADMIN_ROLE()":"a217fddf","EXECUTOR_ROLE()":"07bd0265","addInitialLiquidity(address,uint256,uint256)":"ba37fd38","approval(address,address,address,uint256)":"ab3c475a","assetToken()":"1083f761","buy(uint256,address,address)":"e753858a","factory()":"c45a0155","getAmountsOut(address,address,uint256)":"45608d00","getRoleAdmin(bytes32)":"248a9ca3","graduate(address)":"ff6d8d05","grantRole(bytes32,address)":"2f2ff15d","hasRole(bytes32,address)":"91d14854","initialize(address,address)":"485cc955","renounceRole(bytes32,address)":"36568abe","revokeRole(bytes32,address)":"d547741f","sell(uint256,address,address)":"6f08e177","setTaxManager(address)":"095e3913","supportsInterface(bytes4)":"01ffc9a7","taxManager()":"4d237730"},"id":2}