{"abi":[{"type":"constructor","inputs":[],"stateMutability":"nonpayable"},{"type":"function","name":"ADMIN_ROLE","inputs":[],"outputs":[{"name":"","type":"bytes32","internalType":"bytes32"}],"stateMutability":"view"},{"type":"function","name":"DEFAULT_ADMIN_ROLE","inputs":[],"outputs":[{"name":"","type":"bytes32","internalType":"bytes32"}],"stateMutability":"view"},{"type":"function","name":"OPERATION_ROLE","inputs":[],"outputs":[{"name":"","type":"bytes32","internalType":"bytes32"}],"stateMutability":"view"},{"type":"function","name":"cancelGenesis","inputs":[{"name":"id","type":"uint256","internalType":"uint256"}],"outputs":[],"stateMutability":"nonpayable"},{"type":"function","name":"createGenesis","inputs":[{"name":"gParams","type":"tuple","internalType":"struct GenesisCreationParams","components":[{"name":"startTime","type":"uint256","internalType":"uint256"},{"name":"endTime","type":"uint256","internalType":"uint256"},{"name":"genesisName","type":"string","internalType":"string"},{"name":"genesisTicker","type":"string","internalType":"string"},{"name":"genesisCores","type":"uint8[]","internalType":"uint8[]"}]}],"outputs":[{"name":"","type":"address","internalType":"address"}],"stateMutability":"nonpayable"},{"type":"function","name":"genesisContracts","inputs":[{"name":"","type":"uint256","internalType":"uint256"}],"outputs":[{"name":"","type":"address","internalType":"address"}],"stateMutability":"view"},{"type":"function","name":"genesisID","inputs":[],"outputs":[{"name":"","type":"uint256","internalType":"uint256"}],"stateMutability":"view"},{"type":"function","name":"getRoleAdmin","inputs":[{"name":"role","type":"bytes32","internalType":"bytes32"}],"outputs":[{"name":"","type":"bytes32","internalType":"bytes32"}],"stateMutability":"view"},{"type":"function","name":"grantRole","inputs":[{"name":"role","type":"bytes32","internalType":"bytes32"},{"name":"account","type":"address","internalType":"address"}],"outputs":[],"stateMutability":"nonpayable"},{"type":"function","name":"hasRole","inputs":[{"name":"role","type":"bytes32","internalType":"bytes32"},{"name":"account","type":"address","internalType":"address"}],"outputs":[{"name":"","type":"bool","internalType":"bool"}],"stateMutability":"view"},{"type":"function","name":"initialize","inputs":[{"name":"p","type":"tuple","internalType":"struct FGenesis.Params","components":[{"name":"virtualToken","type":"address","internalType":"address"},{"name":"reserve","type":"uint256","internalType":"uint256"},{"name":"maxContribution","type":"uint256","internalType":"uint256"},{"name":"feeAddr","type":"address","internalType":"address"},{"name":"feeAmt","type":"uint256","internalType":"uint256"},{"name":"duration","type":"uint256","internalType":"uint256"},{"name":"tbaSalt","type":"bytes32","internalType":"bytes32"},{"name":"tbaImpl","type":"address","internalType":"address"},{"name":"votePeriod","type":"uint32","internalType":"uint32"},{"name":"threshold","type":"uint256","internalType":"uint256"},{"name":"agentFactory","type":"address","internalType":"address"},{"name":"agentTokenTotalSupply","type":"uint256","internalType":"uint256"},{"name":"agentTokenLpSupply","type":"uint256","internalType":"uint256"}]}],"outputs":[],"stateMutability":"nonpayable"},{"type":"function","name":"onGenesisFailed","inputs":[{"name":"id","type":"uint256","internalType":"uint256"},{"name":"participantIndexes","type":"uint256[]","internalType":"uint256[]"}],"outputs":[],"stateMutability":"nonpayable"},{"type":"function","name":"onGenesisSuccess","inputs":[{"name":"id","type":"uint256","internalType":"uint256"},{"name":"p","type":"tuple","internalType":"struct SuccessParams","components":[{"name":"refundAddresses","type":"address[]","internalType":"address[]"},{"name":"refundAmounts","type":"uint256[]","internalType":"uint256[]"},{"name":"distributeAddresses","type":"address[]","internalType":"address[]"},{"name":"distributeAmounts","type":"uint256[]","internalType":"uint256[]"},{"name":"creator","type":"address","internalType":"address"}]}],"outputs":[{"name":"","type":"address","internalType":"address"}],"stateMutability":"nonpayable"},{"type":"function","name":"params","inputs":[],"outputs":[{"name":"virtualToken","type":"address","internalType":"address"},{"name":"reserve","type":"uint256","internalType":"uint256"},{"name":"maxContribution","type":"uint256","internalType":"uint256"},{"name":"feeAddr","type":"address","internalType":"address"},{"name":"feeAmt","type":"uint256","internalType":"uint256"},{"name":"duration","type":"uint256","internalType":"uint256"},{"name":"tbaSalt","type":"bytes32","internalType":"bytes32"},{"name":"tbaImpl","type":"address","internalType":"address"},{"name":"votePeriod","type":"uint32","internalType":"uint32"},{"name":"threshold","type":"uint256","internalType":"uint256"},{"name":"agentFactory","type":"address","internalType":"address"},{"name":"agentTokenTotalSupply","type":"uint256","internalType":"uint256"},{"name":"agentTokenLpSupply","type":"uint256","internalType":"uint256"}],"stateMutability":"view"},{"type":"function","name":"renounceRole","inputs":[{"name":"role","type":"bytes32","internalType":"bytes32"},{"name":"callerConfirmation","type":"address","internalType":"address"}],"outputs":[],"stateMutability":"nonpayable"},{"type":"function","name":"resetTime","inputs":[{"name":"id","type":"uint256","internalType":"uint256"},{"name":"newStartTime","type":"uint256","internalType":"uint256"},{"name":"newEndTime","type":"uint256","internalType":"uint256"}],"outputs":[],"stateMutability":"nonpayable"},{"type":"function","name":"revokeRole","inputs":[{"name":"role","type":"bytes32","internalType":"bytes32"},{"name":"account","type":"address","internalType":"address"}],"outputs":[],"stateMutability":"nonpayable"},{"type":"function","name":"setParams","inputs":[{"name":"p","type":"tuple","internalType":"struct FGenesis.Params","components":[{"name":"virtualToken","type":"address","internalType":"address"},{"name":"reserve","type":"uint256","internalType":"uint256"},{"name":"maxContribution","type":"uint256","internalType":"uint256"},{"name":"feeAddr","type":"address","internalType":"address"},{"name":"feeAmt","type":"uint256","internalType":"uint256"},{"name":"duration","type":"uint256","internalType":"uint256"},{"name":"tbaSalt","type":"bytes32","internalType":"bytes32"},{"name":"tbaImpl","type":"address","internalType":"address"},{"name":"votePeriod","type":"uint32","internalType":"uint32"},{"name":"threshold","type":"uint256","internalType":"uint256"},{"name":"agentFactory","type":"address","internalType":"address"},{"name":"agentTokenTotalSupply","type":"uint256","internalType":"uint256"},{"name":"agentTokenLpSupply","type":"uint256","internalType":"uint256"}]}],"outputs":[],"stateMutability":"nonpayable"},{"type":"function","name":"supportsInterface","inputs":[{"name":"interfaceId","type":"bytes4","internalType":"bytes4"}],"outputs":[{"name":"","type":"bool","internalType":"bool"}],"stateMutability":"view"},{"type":"function","name":"withdrawLeftAssetsAfterFinalized","inputs":[{"name":"id","type":"uint256","internalType":"uint256"},{"name":"to","type":"address","internalType":"address"},{"name":"token","type":"address","internalType":"address"},{"name":"amount","type":"uint256","internalType":"uint256"}],"outputs":[],"stateMutability":"nonpayable"},{"type":"event","name":"GenesisCreated","inputs":[{"name":"id","type":"uint256","indexed":true,"internalType":"uint256"},{"name":"addr","type":"address","indexed":true,"internalType":"address"}],"anonymous":false},{"type":"event","name":"Initialized","inputs":[{"name":"version","type":"uint64","indexed":false,"internalType":"uint64"}],"anonymous":false},{"type":"event","name":"RoleAdminChanged","inputs":[{"name":"role","type":"bytes32","indexed":true,"internalType":"bytes32"},{"name":"previousAdminRole","type":"bytes32","indexed":true,"internalType":"bytes32"},{"name":"newAdminRole","type":"bytes32","indexed":true,"internalType":"bytes32"}],"anonymous":false},{"type":"event","name":"RoleGranted","inputs":[{"name":"role","type":"bytes32","indexed":true,"internalType":"bytes32"},{"name":"account","type":"address","indexed":true,"internalType":"address"},{"name":"sender","type":"address","indexed":true,"internalType":"address"}],"anonymous":false},{"type":"event","name":"RoleRevoked","inputs":[{"name":"role","type":"bytes32","indexed":true,"internalType":"bytes32"},{"name":"account","type":"address","indexed":true,"internalType":"address"},{"name":"sender","type":"address","indexed":true,"internalType":"address"}],"anonymous":false},{"type":"error","name":"AccessControlBadConfirmation","inputs":[]},{"type":"error","name":"AccessControlUnauthorizedAccount","inputs":[{"name":"account","type":"address","internalType":"address"},{"name":"neededRole","type":"bytes32","internalType":"bytes32"}]},{"type":"error","name":"InvalidInitialization","inputs":[]},{"type":"error","name":"NotInitializing","inputs":[]}],"bytecode":{"object":"0x608080604052346100b8577ff0c57e16840df040f15088dc2f81fe391c3923bec73e23a9662efc9c229c6a009081549060ff8260401c166100a957506001600160401b036002600160401b031982821601610064575b604051615d1990816100bd8239f35b6001600160401b031990911681179091556040519081527fc7f505b2f371ae2175ee4913f4499e1f2633a7b5936321eed1cdaeb6115181d290602090a15f8080610055565b63f92ee8a960e01b8152600490fd5b5f80fdfe60e0806040526004361015610012575f80fd5b5f6080525f3560e01c90816301ffc9a71461107257508063248a9ca3146110395780632e52c7c6146110075780632f2ff15d14610fbe57806333863fa014610fa157806336568abe14610f585780633b4d1a0414610e8c5780634f9a46b614610d1d5780635860a0c31461060957806375b238fc146105cd5780638545d8df1461059157806391d1485414610538578063966401891461049d578063a217fddf1461047f578063cff0ab96146103d8578063d547741f14610384578063dcd0d5f114610314578063de0180c614610291578063e26599c0146101335763e26bd3cf146100fc575f80fd5b3461012d576101a036600319011261012d57610116611351565b61012761012236611164565b611702565b60805180f35b60805180fd5b3461012d576101a036600319011261012d5761014e36611164565b7ff0c57e16840df040f15088dc2f81fe391c3923bec73e23a9662efc9c229c6a009081549060ff8260401c1615916001600160401b03811680159081610289575b600114908161027f575b159081610276575b506102645767ffffffffffffffff198116600117845582610245575b5060ff835460401c1615610233576101e8906101d8336113da565b506101e233611477565b50611702565b6101f25760805180f35b68ff00000000000000001981541690557fc7f505b2f371ae2175ee4913f4499e1f2633a7b5936321eed1cdaeb6115181d2602060405160018152a180610127565b604051631afcd79f60e31b8152600490fd5b68ffffffffffffffffff191668010000000000000001178355836101bd565b60405163f92ee8a960e01b8152600490fd5b905015856101a1565b303b159150610199565b84915061018f565b3461012d57602036600319011261012d576102aa6112d8565b6001600160a01b036102bd600435611639565b16803b1561012d57604051906386604cd560e01b82528160048160805193608051905af18015610307576102f15760805180f35b6102fa906110db565b60805161012d5780610127565b6040513d608051823e3d90fd5b3461012d57606036600319011261012d5761032d6112d8565b6001600160a01b03610340600435611639565b16803b1561012d57604051906343e48f9560e11b8252602435600483015260443560248301528160448160805193608051905af18015610307576102f15760805180f35b3461012d57604036600319011261012d576103d16004356103a36110c5565b9080608051525f80516020615cc48339815191526020526103cc600160406080512001546113ac565b6115ba565b5060805180f35b3461012d5760805136600319011261012d576101a060018060a01b0380608051541690600154906002549080600354169063ffffffff60045491600554906006546007549260085495836009541697600a5499600b549b60206040519e8f908152015260408d015260608c015260808b015260a08a015260c0890152811660e088015260a01c16610100860152610120850152610140840152610160830152610180820152f35b3461012d5760805136600319011261012d5760206040516080518152f35b3461012d57608036600319011261012d576104b66110c5565b6044356001600160a01b038082168203610534576104d2611351565b6104dd600435611639565b1691823b1561012d57604051633f90cc0b60e11b8152608080516001600160a01b0393841660048401529390921660248201526064803560448301529151909384929183915af18015610307576102f15760805180f35b5f80fd5b3461012d57604036600319011261012d576105516110c5565b600435608051525f80516020615cc48339815191526020526040608051209060018060a01b03165f52602052602060ff60405f2054166040519015158152f35b3461012d5760805136600319011261012d5760206040517f20296b01d0b6bd176f0c1e29644934c0047abf080dae43609a1bbc09e39bafdb8152f35b3461012d5760805136600319011261012d5760206040517fa49807205ce4d355092ef5a8a18f56e8913cf4a201fbe287825b095693c217758152f35b3461012d5760031960203682011261012d57600435906001600160401b03821161012d5760a090823603011261012d576040519060a082018281106001600160401b03821117610be357604052806004013582526024810135602083015260448101356001600160401b03811161012d5761068a906004369184010161110f565b604083015260648101356001600160401b03811161012d576106b2906004369184010161110f565b60608301526084810135906001600160401b03821161012d57013660238201121561012d576004810135906001600160401b038211610bf7578160051b906040519261070160208401856110ee565b8352602460208401928201019036821161012d57602401915b818310610d0357505050608082810191909152805154600354600480546040516323b872dd60e01b815233928101929092526001600160a01b03928316602483015260448201529251602092849260649284929091165af19081156103075760805191610cc8575b5015610c795780516005548101809111610c61576020820152600d545f198114610c615760018101600d55600654906007549060085460018060a01b036009541660018060a01b036080515416906001549260025494600a5496600b549860408b015151151580610c53575b80610c45575b15610c0f5760405161440a81018181106001600160401b03821117610bf757819061440a6118ba83390390608051f09a8b15610307578051906020810151604082015160c052608060608301519201519260405160a05260a05161022060a05101106001600160401b0361022060a051011117610be357600163ffffffff9761022060a051016040520160a0515230602060a0510152604060a0510152606060a051015260c051608060a051015260a08051015260c060a051015260e060a051015260018060a01b03811661010060a051015260a01c1661012060a051015261014060a051015261016060a051015261018060a05101526101a060a05101526101c060a05101526101e060a051015261020060a051015260018060a01b0381163b1561012d5760405163f783489160e01b81526020600482015260a05151602482015260018060a01b03602060a0510151166044820152604060a05101516064820152606060a0510151608482015261099a610983608060a051015161022060a485015261024484019061168a565b60a0805101518382036023190160c485015261168a565b60c060a0510151906023198382030160e4840152602080835192838152019201906080515b818110610bca57505060a0805160e00151610104850152805161010001516001600160a01b039081166101248601528151610120015163ffffffff16610144860152815161014001516101648601528151610160015181166101848601528151610180015181166101a486015281516101a001516101c486015281516101c001516101e486015281516101e001516102048601529051610200015161022485015260805192849250829003908290849087165af1801561030757610bb4575b50600954604051633094afb360e01b8152906001600160a01b0316602082600481845afa9182156103075760805192610b80575b50803b1561012d57604051632f2ff15d60e01b815260048101929092526001600160a01b0383166024830152608051908290604490829084905af1801561030757610b6a575b600d80546080805191909152600c60209081529051604080822080546001600160a01b0319166001600160a01b03881690811790915593549051929386929091907f6bd573779c9447dac9391f364ec883f2f5ba4eb506afd94d231b214c2975b63b9080a36001600160a01b03168152f35b610b73906110db565b60805161012d5781610af8565b9091506020813d602011610bac575b81610b9c602093836110ee565b8101031261012d57519083610ab2565b3d9150610b8f565b610bbd906110db565b60805161012d5781610a7e565b825160ff168452602093840193909201916001016109bf565b634e487b7160e01b5f52604160045260245ffd5b634e487b7160e01b6080515260416004526024608051fd5b60405162461bcd60e51b815260206004820152600e60248201526d496e76616c696420706172616d7360901b6044820152606490fd5b5060808b01515115156107f4565b5060608b01515115156107ee565b634e487b7160e01b6080515260116004526024608051fd5b60405162461bcd60e51b815260206004820152602160248201527f7472616e736665722063726561746547656e6573697320666565206661696c656044820152601960fa1b6064820152608490fd5b90506020813d602011610cfb575b81610ce3602093836110ee565b8101031261012d5751801515810361012d5782610782565b3d9150610cd6565b823560ff8116810361012d5781526020928301920161071a565b3461012d5760031960403682011261012d57602435906001600160401b03821161012d578160040160a082843603011261012d57608491610d5c6112d8565b6001600160a01b039384610d71600435611639565b1692610d7d818061125d565b929093610d8d602483018461125d565b979093610dad610da0604486018361125d565b919092606487019061125d565b9390950135958b871680970361012d57604051634c35cebd60e01b815260a060048201529a8b998a99610de59160a48c019190611292565b90868a83030160248b0152610df992611239565b9084888303016044890152610e0d92611292565b91858303016064860152610e2092611239565b90608483015203816080515a94602095f19081156103075760805191610e4e575b5060209160405191168152f35b90506020813d602011610e84575b81610e69602093836110ee565b8101031261012d575190808216820361012d57906020610e41565b3d9150610e5c565b34610534576040366003190112610534576024356001600160401b038082116105345736602383011215610534578160040135908111610534573660248260051b8401011161053457610edd6112d8565b6001600160a01b03610ef0600435611639565b1691823b1561053457610f26925f928360405180968195829463b14f058b60e01b84526020600485015260248085019201611239565b03925af18015610f4d57610f3a5760805180f35b610f43906110db565b5f60805280610127565b6040513d5f823e3d90fd5b3461053457604036600319011261053457610f716110c5565b336001600160a01b03821603610f8f57610f8d906004356115ba565b005b60405163334bd91960e11b8152600490fd5b34610534575f366003190112610534576020600d54604051908152f35b3461053457604036600319011261053457610f8d600435610fdd6110c5565b90805f525f80516020615cc4833981519152602052611002600160405f2001546113ac565b611537565b34610534576020366003190112610534576004355f52600c602052602060018060a01b0360405f205416604051908152f35b34610534576020366003190112610534576004355f525f80516020615cc48339815191526020526020600160405f200154604051908152f35b34610534576020366003190112610534576004359063ffffffff60e01b821680920361053457602091637965db0b60e01b81149081156110b4575b5015158152f35b6301ffc9a760e01b149050836110ad565b602435906001600160a01b038216820361053457565b6001600160401b038111610be357604052565b90601f801991011681019081106001600160401b03821117610be357604052565b81601f82011215610534578035906001600160401b038211610be35760405192611143601f8401601f1916602001856110ee565b8284526020838301011161053457815f926020809301838601378301015290565b906101a080926003190112610534576040519182018281106001600160401b03821117610be357604052816001600160a01b036004358181168103610534578252602435602083015260443560408301526064358181168103610534576060830152608435608083015260a43560a083015260c43560c083015260e43581811681036105345760e08301526101043563ffffffff811681036105345761010083015261012435610120830152610144359081168103610534576101408201526101643561016082015261018061018435910152565b81835290916001600160fb1b0383116105345760209260051b809284830137010190565b903590601e198136030182121561053457018035906001600160401b03821161053457602001918160051b3603831361053457565b9190808252602080920192915f5b8281106112ae575050505090565b9091929384359060018060a01b0382168092036105345790815282019382019291906001016112a0565b335f9081527f4a2e4cd4e822d4fa122a3b43d34fc2f9bde04478a5461c1d65ad05a22dabc4de60205260409020547f20296b01d0b6bd176f0c1e29644934c0047abf080dae43609a1bbc09e39bafdb9060ff16156113335750565b6044906040519063e2517d3f60e01b82523360048301526024820152fd5b335f9081527fb16e88c42fd4e48df2dd6a2eabd6bc9aec654ec170056b470819f8892cc6431c60205260409020547fa49807205ce4d355092ef5a8a18f56e8913cf4a201fbe287825b095693c217759060ff16156113335750565b805f525f80516020615cc483398151915260205260405f20335f5260205260ff60405f205416156113335750565b6001600160a01b03165f8181527fb7db2dd08fcb62d0c9e08c51941cae53c267786a0b75803fb7960902fc8ef97d60205260409020545f80516020615cc48339815191529060ff16611471575f805260205260405f20815f5260205260405f20600160ff1982541617905533905f7f2f8788117e7eff1d82e926ec794901d17c78024a50270940304540a733656f0d8180a4600190565b50505f90565b6001600160a01b03165f8181527fb16e88c42fd4e48df2dd6a2eabd6bc9aec654ec170056b470819f8892cc6431c60205260409020547fa49807205ce4d355092ef5a8a18f56e8913cf4a201fbe287825b095693c2177591905f80516020615cc48339815191529060ff1661153057825f5260205260405f20815f5260205260405f20600160ff1982541617905533917f2f8788117e7eff1d82e926ec794901d17c78024a50270940304540a733656f0d5f80a4600190565b5050505f90565b90815f525f80516020615cc48339815191528060205260405f209160018060a01b031691825f5260205260ff60405f205416155f1461153057825f5260205260405f20815f5260205260405f20600160ff1982541617905533917f2f8788117e7eff1d82e926ec794901d17c78024a50270940304540a733656f0d5f80a4600190565b90815f525f80516020615cc48339815191528060205260405f209160018060a01b031691825f5260205260ff60405f2054165f1461153057825f5260205260405f20815f5260205260405f2060ff19815416905533917ff6391f5c32d9c69d2a47ea670b442974b53935d1edc7fd64eb21e047a839171b5f80a4600190565b5f908152600c60205260409020546001600160a01b031680156116595790565b60405162461bcd60e51b8152602060048201526009602482015268139bdd08199bdd5b9960ba1b6044820152606490fd5b91908251928382525f5b8481106116b4575050825f602080949584010152601f8019910116010190565b602081830181015184830182015201611694565b156116cf57565b60405162461bcd60e51b815260206004820152600b60248201526a125b9d985b1a5908185b5d60aa1b6044820152606490fd5b80516001600160a01b03919082161515806118aa575b8061189b575b8061188b575b15611857576101809160208201805115158061184a575b8061183d575b80611830575b611750906116c8565b61016083019161177183518015159081611823575b81611815575b506116c8565b80845116916bffffffffffffffffffffffff60a01b92835f5416175f5551600155604084015160025580606085015116826003541617600355608084015160045560a084015160055560c08401516006558060e0850151166007549063ffffffff60a01b61010087015160a01b16916001600160401b0360c01b1617176007556101208401516008556101408401511690600954161760095551600a550151600b55565b90508686015111155f61176b565b8688015115159150611765565b5060a08301511515611747565b5060808301511515611741565b506040830151151561173b565b60405162461bcd60e51b815260206004820152600c60248201526b24b73b30b634b21030b2323960a11b6044820152606490fd5b5081610140820151161515611724565b508160e082015116151561171e565b5081606082015116151561171856fe6080806040523461001a5760015f556143eb908161001f8239f35b5f80fdfe6080806040526004361015610012575f80fd5b5f3560e01c90816301ffc9a71461382e5750806304a0fb17146137f45780630c1cc6cf146137d7578063129874aa146133fe578063159a2f32146133c65780631b549871146133a9578063248a9ca3146133705780632f2ff15d146133275780633197cbb61461330a57806335c1d349146132c857806336568abe146132815780633a8670ea146132645780634269036a146132475780634351af781461322a5780634b09b72a1461320d5780634bc04109146131e55780634c35cebd1461235f578063544736e61461233f578063582073aa1461231757806369b01c32146122fc5780636ac7c1a0146121ba57806378e979251461219d5780637cefadd714611d555780637f21981614611f1c57806385e11dfc14611eff57806386604cd514611e5c57806387c91f2a14611d8d5780639071aba114611d5557806391d1485414611d005780639500340814611c3157806395ee122114611c0c5780639c04b83614611be4578063a1949bcb14611b99578063a217fddf14611b7f578063a4fd6f5614611b5f578063a6c5809714611b39578063ad60572914611b1c578063af29dea214611af4578063b14f058b146118fa578063c45a0155146118d2578063c7959e451461189f578063d547741f14611854578063e99e855a14611837578063f416334014611812578063f783489114610c6e578063fd8735a5146103825763fdd8ecc914610221575f80fd5b3461037e5760208060031936011261037e576004356001600160401b03811161037e5761025290369060040161390c565b61025e81939293613ced565b9261026c60405194856139ab565b81845261027882613ced565b601f1901835f5b82811061035c575050505f91600391600354935b8281106102e85760408051878152885181890181905289890192820190895f5b8281106102c05784840385f35b855180516001600160a01b0316855282015184830152948101946040909301926001016102b3565b80610301866102fa6001948787613ca4565b3510613d51565b61031561030f828686613ca4565b356138c3565b838060a01b03915490871b1c16805f5282885260405f20546040519161033a83613990565b82528882015261034a828a613d04565b526103558189613d04565b5001610293565b60405161036881613990565b5f81525f8382015282828901015201849061027f565b5f80fd5b3461037e575f36600319011261037e575f6102606040516103a281613974565b82815282602082015282604082015282606082015260606080820152606060a0820152606060c08201528260e08201528261010082015282610120820152826101408201528261016082015282610180820152826101a0820152826101c0820152826101e0820152826102008201528261022082015282610240820152015260055461047a60018060a01b0360065416916007549260085493600c5494600d54600e5460018060a01b03600f541660018060a01b036010541691601154936012549560135497601454996015549b6040519d8e613974565b8d5260208d015260408c015260608b01526104936139cc565b60808b01526104a0613a7c565b60a08b01526040519a8b6020600b549d8e8152019c600b5f525f80516020614376833981519152905f915b81601f840110610acb579d9e8f9060ff9f946105f691819560c09563ffffffff9a99985491818110610ab7575b818110610a9f575b818110610a87575b818110610a6f575b818110610a59575b818110610a41575b818110610a29575b818110610a11575b8181106109f9575b8181106109e1575b8181106109c9575b8181106109b1575b818110610999575b818110610981575b818110610969575b818110610951575b818110610939575b818110610921575b818110610909575b8181106108f1575b8181106108d9575b8181106108c1575b8181106108a9575b818110610891575b81811061087b575b818110610863575b81811061084b575b818110610833575b81811061081b575b818110610803575b8181106107eb575b106107dd575b5003846139ab565b015260e08d015260018060a01b0381166101008d015260a01c166101208b01526101408a01526101608901526101808801526101a08701526101c08601526101e085015261020084015260018060a01b038116610220840152818160a01c16151561024084015260a81c161515610260820152604051602081528151602082015260018060a01b03602083015116604082015260408201516060820152606082015160808201526106d16106bb608084015161028060a08501526102a0840190613b05565b60a0840151838203601f190160c0850152613b05565b60c083015190601f198382030160e0840152602080835192838152019201905f5b8181106107c4575050506102608360e08495015161010085015260018060a01b036101008201511661012085015263ffffffff6101208201511661014085015261014081015161016085015260018060a01b036101608201511661018085015260018060a01b03610180820151166101a08501526101a08101516101c08501526101c08101516101e08501526101e081015161020085015261020081015161022085015260018060a01b0361022082015116610240850152610240810151151582850152015115156102808301520390f35b825160ff168452602093840193909201916001016106f2565b60f81c81526020015f6105ee565b9260ff6001916020918560f01c1681520193016105e8565b9260ff6001916020918560e81c1681520193016105e0565b9260ff6001916020918560e01c1681520193016105d8565b9260ff6001916020918560d81c1681520193016105d0565b9260ff6001916020918560d01c1681520193016105c8565b9260ff6001916020918560c81c1681520193016105c0565b82881c60ff1684526020909301926001016105b8565b9260ff6001916020918560b81c1681520193016105b0565b9260ff6001916020918560b01c1681520193016105a8565b9260ff6001916020918560a81c1681520193016105a0565b9260ff6001916020918560a01c168152019301610598565b9260ff6001916020918560981c168152019301610590565b9260ff6001916020918560901c168152019301610588565b9260ff6001916020918560881c168152019301610580565b9260ff6001916020918560801c168152019301610578565b9260ff6001916020918560781c168152019301610570565b9260ff6001916020918560701c168152019301610568565b9260ff6001916020918560681c168152019301610560565b9260ff6001916020918560601c168152019301610558565b9260ff6001916020918560581c168152019301610550565b9260ff6001916020918560501c168152019301610548565b9260ff6001916020918560481c168152019301610540565b9260ff6001916020918560401c168152019301610538565b9260ff6001916020918560381c168152019301610530565b9260ff6001916020918560301c168152019301610528565b9260ff6001916020918560281c168152019301610520565b602083811c60ff16855290930192600101610518565b9260ff6001916020918560181c168152019301610510565b9260ff6001916020918560101c168152019301610508565b9260ff6001916020918560081c168152019301610500565b60ff831684526020909301926001016104f8565b9e8f5460ff811682528060081c60ff1660208301528060101c60ff1660408301528060181c60ff1660608301528060201c60ff1660808301528060281c60ff1660a08301528060301c60ff1660c08301528060381c60ff1660e08301528060401c60ff166101008301528060481c60ff166101208301528060501c60ff166101408301528060581c60ff166101608301528060601c60ff166101808301528060681c60ff166101a08301528060701c60ff166101c08301528060781c60ff166101e08301528060801c60ff166102008301528060881c60ff166102208301528060901c60ff166102408301528060981c60ff166102608301528060a01c60ff166102808301528060a81c60ff166102a08301528060b01c60ff166102c08301528060b81c60ff166102e08301528060c01c60ff166103008301528060c81c60ff166103208301528060d01c60ff166103408301528060d81c60ff166103608301528060e01c60ff166103808301528060e81c60ff166103a08301528060f01c60ff166103c083015260f81c6103e0820152610400019e60010191602001916104cb565b3461037e5760031960203682011261037e576001600160401b036004351161037e57610220906004353603011261037e577ff0c57e16840df040f15088dc2f81fe391c3923bec73e23a9662efc9c229c6a0080546001600160401b03811680159081611802575b60011490816117f8575b1590816117ef575b506117dd5760016001600160401b0319821617825560ff8160401c16156117be575b60ff825460401c16156117ac576004356004013515611772576001600160a01b03610d38600435602401613cb4565b161561172d57610d546064600435013560446004350135614186565b610d68608460043501600435600401613d93565b9050156116f157610d8360a460043501600435600401613d93565b9050156116b357610d9e60c460043501600435600401613dc5565b905015611676576001600160a01b03610dbc60043561010401613cb4565b1615611626576001600160a01b03610dd960043561016401613cb4565b16156115e1576001600160a01b03610df660043561018401613cb4565b161561159c576101a4600435013515611549576101c46004350135156114f4576101e46004350135156114975761020460043501351561143d5761020460043501356101e46004350135106113c65760048035908101356005556001600160a01b0390610e6590602401613cb4565b166001600160601b0360a01b60065416176006556044600435013560075560646004350135600855610ea1608460043501600435600401613d93565b906001600160401b038211611237578190610ebd60095461393c565b601f811161138b575b505f90601f8311600114611319575f9261130e575b50508160011b915f199060031b1c1916176009555b610f0460a460043501600435600401613d93565b906001600160401b038211611237578190610f20600a5461393c565b601f81116112c8575b505f90601f8311600114611256575f9261124b575b50508160011b915f199060031b1c191617600a555b610f6760c460043501600435600401613dc5565b906001600160401b03821161123757600160401b821161123757600b5482600b558083106111b4575b5090600b5f525f5b8160051c81106111725750601f198116808203611112575b50505060043560e4810135600c556001600160a01b0390610fd49061010401613cb4565b1690600d5461012460043501359263ffffffff8416840361037e5760ff9363ffffffff60a01b9060a01b16916001600160401b0360c01b161717600d556101446004350135600e5560018060a01b0361103261016460043501613cb4565b166001600160601b0360a01b600f541617600f5560018060a01b0361105c61018460043501613cb4565b166001600160601b0360a01b60105416176010556101a460043501356011556101c460043501356012556101e4600435013560135561020460043501356014556110b26110ad602460043501613cb4565b613ee6565b506110c96110c4602460043501613cb4565b613f83565b5060401c16156110d557005b68ff00000000000000001981541690557fc7f505b2f371ae2175ee4913f4499e1f2633a7b5936321eed1cdaeb6115181d2602060405160018152a1005b915f925f5b818403811061113e5750505060051c5f805160206143768339815191520155828080610fb0565b90919360206111686001928461115389613e10565b919060ff809160031b9316831b921b19161790565b9501929101611117565b5f805b6020811061119757505f80516020614376833981519152820155600101610f98565b939060206111ab6001928761115386613e10565b92019401611175565b601f6111f291818516806111f8575b500160051c5f8051602061437683398151915201601f840160051c5f8051602061437683398151915201613dfa565b84610f90565b7f0175b7a638427703f0dbe7bb9bbf987a2551717b34e79f33b5b1008d1fa01db883870160051c01908154905f199060200360031b1c169055876111c3565b634e487b7160e01b5f52604160045260245ffd5b013590508480610f3e565b600a5f90815293505f80516020614336833981519152915b601f19841685106112b0576001945083601f19811610611297575b505050811b01600a55610f53565b01355f19600384901b60f8161c19169055848080611289565b8181013583556020948501946001909301920161126e565b6112fe90600a5f525f80516020614336833981519152601f850160051c81019160208610611304575b601f0160051c0190613dfa565b85610f29565b90915081906112f1565b013590508480610edb565b60095f90815293505f80516020614356833981519152915b601f1984168510611373576001945083601f1981161061135a575b505050811b01600955610ef0565b01355f19600384901b60f8161c1916905584808061134c565b81810135835560209485019460019093019201611331565b6113c09060095f525f80516020614356833981519152601f850160051c8101916020861061130457601f0160051c0190613dfa565b85610ec6565b60405162461bcd60e51b815260206004820152604360248201527f4167656e7420746f6b656e20746f74616c20737570706c79206d75737420626560448201527f2067726561746572207468616e206167656e7420746f6b656e206c7020737570606482015262706c7960e81b608482015260a490fd5b60405162461bcd60e51b815260206004820152602c60248201527f4167656e7420746f6b656e206c7020737570706c79206d75737420626520677260448201526b06561746572207468616e20360a41b6064820152608490fd5b60405162461bcd60e51b815260206004820152602f60248201527f4167656e7420746f6b656e20746f74616c20737570706c79206d75737420626560448201526e02067726561746572207468616e203608c1b6064820152608490fd5b60405162461bcd60e51b815260206004820152602760248201527f4d617820636f6e747269627574696f6e206d75737420626520677265617465726044820152660207468616e20360cc1b6064820152608490fd5b60405162461bcd60e51b815260206004820152602560248201527f5265736572766520616d6f756e74206d75737420626520677265617465722074604482015264068616e20360dc1b6064820152608490fd5b60405162461bcd60e51b815260206004820152601d60248201527f496e76616c6964207669727475616c20746f6b656e20616464726573730000006044820152606490fd5b60405162461bcd60e51b815260206004820152601d60248201527f496e76616c6964206167656e7420666163746f727920616464726573730000006044820152606490fd5b60405162461bcd60e51b815260206004820152602260248201527f496e76616c69642054424120696d706c656d656e746174696f6e206164647265604482015261737360f01b6064820152608490fd5b60405162461bcd60e51b8152602060048201526015602482015274496e76616c69642067656e6573697320636f72657360581b6044820152606490fd5b60405162461bcd60e51b815260206004820152601660248201527524b73b30b634b21033b2b732b9b4b9903a34b1b5b2b960511b6044820152606490fd5b60405162461bcd60e51b8152602060048201526014602482015273496e76616c69642067656e65736973206e616d6560601b6044820152606490fd5b60405162461bcd60e51b815260206004820152601760248201527f496e76616c696420666163746f727920616464726573730000000000000000006044820152606490fd5b60405162461bcd60e51b8152602060048201526012602482015271125b9d985b1a590819d95b995cda5cc8125160721b6044820152606490fd5b604051631afcd79f60e31b8152600490fd5b68ffffffffffffffffff19811668010000000000000001178255610d09565b60405163f92ee8a960e01b8152600490fd5b90501583610ce7565b303b159150610cdf565b604083901c60ff16159150610cd5565b3461037e575f36600319011261037e57602060ff60155460a01c166040519015158152f35b3461037e575f36600319011261037e576020601354604051908152f35b3461037e57604036600319011261037e5761189d6004356118736138ad565b90805f525f80516020614396833981519152602052611898600160405f200154613eb8565b6140c6565b005b3461037e575f36600319011261037e576118ce6118ba613a7c565b604051918291602083526020830190613b05565b0390f35b3461037e575f36600319011261037e576006546040516001600160a01b039091168152602090f35b3461037e5760208060031936011261037e576004356001600160401b03811161037e5761192b90369060040161390c565b91611934613e3f565b61193c613e1e565b6015549261195861194b613bd6565b60ff8660a81c1615613b43565b611970611963613ba4565b60ff8660a01c1615613b43565b6040516001600160a01b03946119bd9190869061198c83613990565b601c83527f4167656e7420746f6b656e20616c7265616479206c61756e636865640000000060208401521615613b43565b6119d46008544210156119ce613c73565b90613b43565b5f5b818110611a2e57600454600354146119ef575b60015f55005b6015805460ff60a01b1916600160a01b1790556005547f27e87ae1639d912017e23d0f562036b9a6f7febb9c4f2c69edbd9a58b903fb7f5f80a26119e9565b84611a3a828487613ca4565b35611a49600391825411613d51565b611a5761030f848689613ca4565b9054911b1c1690815f5260019182855260405f205480611a7e575b505060019150016119d6565b600454935f198514611ae0578060019501600455825f5286525f6040812055611aac81838a60105416614145565b7ff3f402280ef0a7905e124aa621b65eaeb2725c343e8b36d398ed78c29daf285c8660055492604051908152a38680611a72565b634e487b7160e01b5f52601160045260245ffd5b3461037e575f36600319011261037e576015546040516001600160a01b039091168152602090f35b3461037e575f36600319011261037e576020600354604051908152f35b3461037e575f36600319011261037e57602063ffffffff600d5460a01c16604051908152f35b3461037e575f36600319011261037e576020600854421015604051908152f35b3461037e575f36600319011261037e5760206040515f8152f35b3461037e57602036600319011261037e57600435600b5481101561037e57602090600b5f5260ff8160051c5f80516020614376833981519152015460f86040519360031b161c168152f35b3461037e575f36600319011261037e57600d546040516001600160a01b039091168152602090f35b3461037e575f36600319011261037e57602060ff60155460a81c166040519015158152f35b3461037e57602036600319011261037e57611c4a613897565b611c52613e1e565b6001600160a01b038181165f81815260026020526040902054909290918215611cc657611c92918391855f5260026020525f604081205560155416614145565b7f5e38aeed1c1b58c3e2f08b92abfb82cb1d6cb83af72f3dd46a419e4ce856bf37602060055492604051908152a360015f55005b60405162461bcd60e51b81526020600482015260126024820152714e6f20746f6b656e7320746f20636c61696d60701b6044820152606490fd5b3461037e57604036600319011261037e57611d196138ad565b6004355f525f8051602061439683398151915260205260405f209060018060a01b03165f52602052602060ff60405f2054166040519015158152f35b3461037e57602036600319011261037e576001600160a01b03611d76613897565b165f526002602052602060405f2054604051908152f35b3461037e577f29d6ce89701d2d2e06675ce74585fa05425950a176b2de69b63ef83af8490eb96080611dbe36613881565b611dc6613e3f565b611dce613e1e565b611e01601554611dec611ddf613bd6565b60ff8360a81c1615613b43565b60ff611df6613ba4565b9160a01c1615613b43565b60075491611e18611e10613d18565b844210613b43565b600854611e2e611e26613b73565b824210613b43565b611e388383614186565b8160075582600855604051938452602084015260408301526060820152a160015f55005b3461037e575f36600319011261037e57611e74613e3f565b611e7c613e1e565b601554611e8a611ddf613bd6565b611ea2611e95613ba4565b60ff8360a01c1615613b43565b611eb260075442106119ce613d18565b611ec260085442106119ce613b73565b60ff60a81b1916600160a81b176015556005547fb68635d18159b99d3170ed410d81fc4347634708773fa694e12e534b96f1cefc5f80a260015f55005b3461037e575f36600319011261037e576020600554604051908152f35b3461037e57606036600319011261037e57611f35613897565b611f3d6138ad565b335f9081527fb7db2dd08fcb62d0c9e08c51941cae53c267786a0b75803fb7960902fc8ef97d602090815260409091205491926044359260ff161561217f57611f84613e1e565b611fa6600854421015611f9e611f98613c73565b82613b43565b6119ce613c73565b60155460ff8160a01c16908115612170575b811561215d575b5015612118576001600160a01b03918483169081156120dc576040516370a0823160e01b81523060048201528181602481865afa9081156120d1575f916120a4575b50851161206157509061203784827f46136dc7988f307b7670342abc113edcd66636183537de2ca7776cedd89ba4e59594614145565b600554604080516001600160a01b039790971687526020870195909552911693909290a360015f55005b6064906040519062461bcd60e51b825280600483015260248201527f496e73756666696369656e742062616c616e636520746f2077697468647261776044820152fd5b90508181813d83116120ca575b6120bb81836139ab565b8101031261037e575187612001565b503d6120b1565b6040513d5f823e3d90fd5b6064906040519062461bcd60e51b825260048201526015602482015274496e76616c696420746f6b656e206164647265737360581b6044820152fd5b60405162461bcd60e51b815260048101839052601960248201527f47656e65736973206e6f742066696e616c697a656420796574000000000000006044820152606490fd5b6001600160a01b03161515905085611fbf565b905060ff8160a81c1690611fb8565b60405163e2517d3f60e01b81523360048201525f6024820152604490fd5b3461037e575f36600319011261037e576020600754604051908152f35b3461037e576121c836613881565b600390600354808410156122b7578084916121e38484613c66565b116122a6575b50506121f481613ced565b9061220260405192836139ab565b80825261220e81613ced565b6020948386019491601f19013686375f5b83811061227357868587604051928392602084019060208552518091526040840192915f5b82811061225357505050500390f35b83516001600160a01b031685528695509381019392810192600101612244565b8061228861228360019385613c66565b6138c3565b838060a01b03915490861b1c1661229f8288613d04565b520161221f565b6122b09250613ce0565b82846121e9565b60405162461bcd60e51b815260206004820152601960248201527f537461727420696e646578206f7574206f6620626f756e6473000000000000006044820152606490fd5b3461037e575f36600319011261037e576118ce6118ba6139cc565b3461037e575f36600319011261037e576010546040516001600160a01b039091168152602090f35b3461037e575f36600319011261037e576020600754421015604051908152f35b3461037e5760a036600319011261037e576001600160401b0360043581811161037e5761239090369060040161390c565b60249291923582811161037e576123ab90369060040161390c565b92909160443582811161037e576123c690369060040161390c565b93909260643590811161037e576123e190369060040161390c565b9690956084356001600160a01b038116810361037e576123ff613e3f565b612407613e1e565b601554612415611ddf613bd6565b612420611e95613ba4565b6124316008544210156119ce613c73565b6004546131a05782860361315b57898803613116575f805b84811061307757506001600160a01b0382166130715760115461246b91613c66565b905b6010546040516370a0823160e01b81523060048201526001600160a01b0390911692602082602481875afa80156120d1575f9061303d575b6124b192501015613c0f565b6001600160a01b0316156126f5575b50505f805b8981106126d557506015546040516370a0823160e01b815230600482015290602090829060249082906001600160a01b03165afa9081156120d1575f916126a3575b501061265f575f5b8481106125a05750505050505f5b828110612565576020600554604051907f6d06bb775ac05411c90dc9e1c4bd9a325534cd1f73e434866aea631283294ab25f80a260155460015f556001600160a01b03168152f35b806125736001928787613ca4565b35828060a01b0361258d612588848888613ca4565b613cb4565b165f52600260205260405f20550161251d565b806125ae6001928487613ca4565b35828060a01b036125c3612588848a89613ca4565b165f52826020526125d960405f20918254613ce0565b9055612608828060a01b03601054166125f6612588848a89613ca4565b61260184878a613ca4565b3591614145565b600554612619612588838988613ca4565b907ff3f402280ef0a7905e124aa621b65eaeb2725c343e8b36d398ed78c29daf285c602061264885888b613ca4565b3593604051948552868060a01b031693a30161250f565b606460405162461bcd60e51b815260206004820152602060248201527f496e73756666696369656e74204167656e7420546f6b656e2062616c616e63656044820152fd5b90506020813d6020116126cd575b816126be602093836139ab565b8101031261037e57518a612507565b3d91506126b1565b906126ee6001916126e7848d8d613ca4565b3590613c66565b91016124c5565b600f5460115460405163095ea7b360e01b81526001600160a01b039092166004830152602482015290602090829060449082905f905af180156120d15761300e575b5060018060a01b03600f541660405191825f6009546127558161393c565b9060018116908115612fea5750600114612f9e575b5061279391816b206279205669727475616c7360a01b600c9352036013198101865201846139ab565b600c5490600d54600e54601154916127c560405197631fd16d3f60e11b895261012060048a0152610124890190613b05565b878103600319016024890152600a545f96916127e08261393c565b8082529160018116908115612f7d5750600114612f38575b5050878603600319016044890152600b80548088525f9182528997602001969594939291905f805160206143768339815191525b81601f840110612d8657938997935f979389979360209d9b975491818110612d74575b818110612d5e575b818110612d48575b818110612d32575b818110612d1e575b818110612d08575b818110612cf2575b818110612cdc575b818110612cc6575b818110612cb0575b818110612c9a575b818110612c84575b818110612c6e575b818110612c58575b818110612c42575b818110612c2c575b818110612c16575b818110612c00575b818110612bea575b818110612bd4575b818110612bbe575b818110612ba8575b818110612b92575b818110612b7c575b818110612b66575b818110612b50575b818110612b3a575b818110612b24575b818110612b0e575b818110612af8575b818110612ae2575b10612acf575b5060648701526001600160a01b03808216608488015260a09190911c63ffffffff1660a487015260c486019190915260e48501919091521661010483015203925af19081156120d1575f91612a9d575b50600f546013546014546040516311e18acb60e11b8152600481019490945260248401919091526044830152306064830152602090829060849082905f906001600160a01b03165af19081156120d1575f91612a5b575b506001600160a01b03168015612a16576001600160601b0360a01b601554161760155588806124c0565b60405162461bcd60e51b815260206004820152601b60248201527f4167656e7420746f6b656e206372656174696f6e206661696c656400000000006044820152606490fd5b90506020813d602011612a95575b81612a76602093836139ab565b8101031261037e57516001600160a01b038116810361037e57896129ec565b3d9150612a69565b90506020813d602011612ac7575b81612ab8602093836139ab565b8101031261037e575189612995565b3d9150612aab565b60f81c8652948b019463ffffffff612945565b978e60019160ff8560f01c16815201980161293f565b978e60019160ff8560e81c168152019801612937565b978e60019160ff8560e01c16815201980161292f565b978e60019160ff8560d81c168152019801612927565b978e60019160ff8560d01c16815201980161291f565b978e60019160ff8560c81c168152019801612917565b978e60019160ff8560c01c16815201980161290f565b978e60019160ff8560b81c168152019801612907565b978e60019160ff8560b01c1681520198016128ff565b978e60019160ff8560a81c1681520198016128f7565b978e60019160ff8560a01c1681520198016128ef565b978e60019160ff8560981c1681520198016128e7565b978e60019160ff8560901c1681520198016128df565b978e60019160ff8560881c1681520198016128d7565b978e60019160ff8560801c1681520198016128cf565b978e60019160ff8560781c1681520198016128c7565b978e60019160ff8560701c1681520198016128bf565b978e60019160ff8560681c1681520198016128b7565b978e60019160ff8560601c1681520198016128af565b978e60019160ff8560581c1681520198016128a7565b978e60019160ff8560501c16815201980161289f565b978e60019160ff8560481c168152019801612897565b978e60019160ff8560401c16815201980161288f565b978e60019160ff8560381c168152019801612887565b978e60019160ff8560301c16815201980161287f565b978e60019160ff8560281c168152019801612877565b828f1c60ff168952978e019760010161286f565b978e60019160ff8560181c168152019801612867565b978e60019160ff8560101c16815201980161285f565b978e60019160ff8560081c168152019801612857565b60ff83168952978e019760010161284f565b98509091929394959660016104006020928b5460ff8116825260ff8160081c168583015260ff8160101c16604083015260ff8160181c16606083015260ff81861c16608083015260ff8160281c1660a083015260ff8160301c1660c083015260ff8160381c1660e083015260ff8160401c1661010083015260ff8160481c1661012083015260ff8160501c1661014083015260ff8160581c1661016083015260ff8160601c1661018083015260ff8160681c166101a083015260ff8160701c166101c083015260ff8160781c166101e083015260ff8160801c1661020083015260ff8160881c1661022083015260ff8160901c1661024083015260ff8160981c1661026083015260ff8160a01c1661028083015260ff8160a81c166102a083015260ff8160b01c166102c083015260ff8160b81c166102e083015260ff8160c01c1661030083015260ff8160c81c1661032083015260ff8160d01c1661034083015260ff8160d81c1661036083015260ff8160e01c1661038083015260ff8160e81c166103a083015260ff8160f01c166103c083015260f81c6103e08201520199019201908a9897969594939261282c565b919650905f905f805160206143368339815191525b838310612f635750602092500101945f806127f8565b600181602092949394548385870101520191019190612f4d565b9050602093985060ff929192191683830152151560051b0101945f806127f8565b91505060095f52835f805160206143568339815191525f905b838210612fd0575090918201602001905061279361276a565b6020919250806001915483858a0101520191018591612fb7565b60ff191660208581019190915282151590920284019091019150612793905061276a565b61302f9060203d602011613036575b61302781836139ab565b810190613cc8565b5089612737565b503d61301d565b506020823d602011613069575b81613057602093836139ab565b8101031261037e576124b191516124a5565b3d915061304a565b9061246d565b906001600160a01b0361308e612588848b8a613ca4565b165f5260206001815260405f20546130a784888b613ca4565b35116130c657506130bf6001916126e784888b613ca4565b9101612449565b6084906040519062461bcd60e51b825260048201526024808201527f496e73756666696369656e74205669727475616c20546f6b656e20636f6d6d696044820152631d1d195960e21b6064820152fd5b60405162461bcd60e51b815260206004820152601e60248201527f4d69736d61746368656420646973747269627574696f6e2061727261797300006044820152606490fd5b60405162461bcd60e51b815260206004820152601860248201527f4d69736d61746368656420726566756e642061727261797300000000000000006044820152606490fd5b60405162461bcd60e51b815260206004820152601e60248201527f4f6e47656e657369734661696c656420616c72656164792063616c6c656400006044820152606490fd5b3461037e575f36600319011261037e57600f546040516001600160a01b039091168152602090f35b3461037e575f36600319011261037e576020601154604051908152f35b3461037e575f36600319011261037e576020600e54604051908152f35b3461037e575f36600319011261037e576020601454604051908152f35b3461037e575f36600319011261037e576020600454604051908152f35b3461037e57604036600319011261037e5761329a6138ad565b336001600160a01b038216036132b65761189d906004356140c6565b60405163334bd91960e11b8152600490fd5b3461037e57602036600319011261037e5760043560035481101561037e576132f16020916138c3565b905460405160039290921b1c6001600160a01b03168152f35b3461037e575f36600319011261037e576020600854604051908152f35b3461037e57604036600319011261037e5761189d6004356133466138ad565b90805f525f8051602061439683398151915260205261336b600160405f200154613eb8565b614043565b3461037e57602036600319011261037e576004355f525f805160206143968339815191526020526020600160405f200154604051908152f35b3461037e575f36600319011261037e576020600c54604051908152f35b3461037e57602036600319011261037e576001600160a01b036133e7613897565b165f526001602052602060405f2054604051908152f35b3461037e5761340c36613881565b613414613e1e565b6007544210159061345b60405161342a81613990565b601781526020937f47656e65736973206e6f7420737461727465642079657400000000000000000085830152613b43565b61346b60085442106119ce613b73565b61349160155461347c611e95613ba4565b60ff613486613bd6565b9160a81c1615613b43565b82156137865780156137415760125481116136ea576010546040516370a0823160e01b81523360048201526024916001600160a01b03919082169085818581855afa9081156120d157869186915f916136b6575b50604493916134f5911015613c0f565b604051636eb1769f60e11b8152336004820152308682015292839182905afa80156120d15784915f91613685575b501061363657335f526001845260405f2054156135ed575b335f526001845260405f20613551848254613c66565b905560105416604051916323b872dd60e01b8584015233818401523060448401528360648401526064835260a08301908382106001600160401b038311176135da57506040526135a19190614223565b600554916040519384528301527f20fe128b25ee6824800a2ffce0bbace6ba602f124f276eeaaacd7a3967ab223f60403393a360015f55005b634e487b7160e01b5f9081526041600452fd5b600354600160401b8110156136235780600161360c92016003556138c3565b81549060031b908333831b921b191617905561353b565b82634e487b7160e01b5f5260416004525ffd5b608484836040519162461bcd60e51b83526004830152808201527f496e73756666696369656e74205669727475616c20546f6b656e20616c6c6f77604482015263616e636560e01b6064820152fd5b809250868092503d83116136af575b61369e81836139ab565b8101031261037e5783905187613523565b503d613694565b928092508391503d83116136e3575b6136cf81836139ab565b8101031261037e57518590859060446134e5565b503d6136c5565b60405162461bcd60e51b815260048101839052602960248201527f45786365656473206d6178696d756d207669727475616c732070657220636f6e6044820152683a3934b13aba34b7b760b91b6064820152608490fd5b60405162461bcd60e51b815260048101839052601f60248201527f5669727475616c73206d7573742062652067726561746572207468616e2030006044820152606490fd5b60405162461bcd60e51b815260048101839052602360248201527f506f696e7420616d6f756e74206d75737420626520677265617465722074686160448201526206e20360ec1b6064820152608490fd5b3461037e575f36600319011261037e576020601254604051908152f35b3461037e575f36600319011261037e5760206040517fdfbefbf47cfe66b701d8cfdbce1de81c821590819cb07e71cb01b6602fb0ee278152f35b3461037e57602036600319011261037e576004359063ffffffff60e01b821680920361037e57602091637965db0b60e01b8114908115613870575b5015158152f35b6301ffc9a760e01b14905083613869565b604090600319011261037e576004359060243590565b600435906001600160a01b038216820361037e57565b602435906001600160a01b038216820361037e57565b6003548110156138f85760035f527fc2575a0e9e593c00f959f8c92f12db2869c3395a3b0502d05e2516446f71f85b01905f90565b634e487b7160e01b5f52603260045260245ffd5b9181601f8401121561037e578235916001600160401b03831161037e576020808501948460051b01011161037e57565b90600182811c9216801561396a575b602083101461395657565b634e487b7160e01b5f52602260045260245ffd5b91607f169161394b565b61028081019081106001600160401b0382111761123757604052565b604081019081106001600160401b0382111761123757604052565b90601f801991011681019081106001600160401b0382111761123757604052565b604051905f82600954916139df8361393c565b80835292602090600190818116908115613a585750600114613a0c575b5050613a0a925003836139ab565b565b91509260095f525f80516020614356833981519152935f925b828410613a405750613a0a9450505081016020015f806139fc565b85548885018301529485019487945092810192613a25565b91505060209250613a0a94915060ff191682840152151560051b8201015f806139fc565b604051905f82600a5491613a8f8361393c565b80835292602090600190818116908115613a585750600114613ab9575050613a0a925003836139ab565b915092600a5f525f80516020614336833981519152935f925b828410613aed5750613a0a9450505081016020015f806139fc565b85548885018301529485019487945092810192613ad2565b91908251928382525f5b848110613b2f575050825f602080949584010152601f8019910116010190565b602081830181015184830182015201613b0f565b15613b4b5750565b60405162461bcd60e51b815260206004820152908190613b6f906024830190613b05565b0390fd5b60405190613b8082613990565b601582527411d95b995cda5cc8185b1c9958591e48195b991959605a1b6020830152565b60405190613bb182613990565b601682527511d95b995cda5cc8185b1c9958591e4819985a5b195960521b6020830152565b60405190613be382613990565b601982527f47656e6573697320616c72656164792063616e63656c6c6564000000000000006020830152565b15613c1657565b60405162461bcd60e51b815260206004820152602260248201527f496e73756666696369656e74205669727475616c20546f6b656e2062616c616e604482015261636560f01b6064820152608490fd5b91908201809211611ae057565b60405190613c8082613990565b601582527411d95b995cda5cc81b9bdd08195b991959081e595d605a1b6020830152565b91908110156138f85760051b0190565b356001600160a01b038116810361037e5790565b9081602091031261037e5751801515810361037e5790565b91908203918211611ae057565b6001600160401b0381116112375760051b60200190565b80518210156138f85760209160051b010190565b60405190613d2582613990565b601782527f47656e6573697320616c726561647920737461727465640000000000000000006020830152565b15613d5857565b60405162461bcd60e51b8152602060048201526013602482015272496e646578206f7574206f6620626f756e647360681b6044820152606490fd5b903590601e198136030182121561037e57018035906001600160401b03821161037e5760200191813603831361037e57565b903590601e198136030182121561037e57018035906001600160401b03821161037e57602001918160051b3603831361037e57565b818110613e05575050565b5f8155600101613dfa565b3560ff8116810361037e5790565b60025f5414613e2d5760025f55565b604051633ee5aeb560e01b8152600490fd5b335f9081527fae397ad4942fd55c39428db5ea3ac85cc8592b20d92437b6ec53a8b6ff39d42d60205260409020547fdfbefbf47cfe66b701d8cfdbce1de81c821590819cb07e71cb01b6602fb0ee279060ff1615613e9a5750565b6044906040519063e2517d3f60e01b82523360048301526024820152fd5b805f525f8051602061439683398151915260205260405f20335f5260205260ff60405f20541615613e9a5750565b6001600160a01b03165f8181527fb7db2dd08fcb62d0c9e08c51941cae53c267786a0b75803fb7960902fc8ef97d60205260409020545f805160206143968339815191529060ff16613f7d575f805260205260405f20815f5260205260405f20600160ff1982541617905533905f7f2f8788117e7eff1d82e926ec794901d17c78024a50270940304540a733656f0d8180a4600190565b50505f90565b6001600160a01b03165f8181527fae397ad4942fd55c39428db5ea3ac85cc8592b20d92437b6ec53a8b6ff39d42d60205260409020547fdfbefbf47cfe66b701d8cfdbce1de81c821590819cb07e71cb01b6602fb0ee2791905f805160206143968339815191529060ff1661403c57825f5260205260405f20815f5260205260405f20600160ff1982541617905533917f2f8788117e7eff1d82e926ec794901d17c78024a50270940304540a733656f0d5f80a4600190565b5050505f90565b90815f525f805160206143968339815191528060205260405f209160018060a01b031691825f5260205260ff60405f205416155f1461403c57825f5260205260405f20815f5260205260405f20600160ff1982541617905533917f2f8788117e7eff1d82e926ec794901d17c78024a50270940304540a733656f0d5f80a4600190565b90815f525f805160206143968339815191528060205260405f209160018060a01b031691825f5260205260ff60405f2054165f1461403c57825f5260205260405f20815f5260205260405f2060ff19815416905533917ff6391f5c32d9c69d2a47ea670b442974b53935d1edc7fd64eb21e047a839171b5f80a4600190565b60405163a9059cbb60e01b60208201526001600160a01b03929092166024830152604480830193909352918152613a0a916141816064836139ab565b614223565b6141c760405161419581613990565b602081527f53746172742074696d65206d75737420626520696e20746865206675747572656020820152428311613b43565b6040519060608201928284106001600160401b0385111761123757613a0a93604052602183527f456e642074696d65206d7573742062652061667465722073746172742074696d6020840152606560f81b604084015211613b43565b81516001600160a01b03909116915f91829160200182855af13d156142c6573d6001600160401b0381116112375761427d916040519161426d6020601f19601f84011601846139ab565b82523d5f602084013e5b836142d2565b80519081151591826142ab575b50506142935750565b60249060405190635274afe760e01b82526004820152fd5b6142be9250602080918301019101613cc8565b155f8061428a565b61427d90606090614277565b906142f957508051156142e757805190602001fd5b604051630a12f52160e11b8152600490fd5b8151158061432c575b61430a575090565b604051639996b31560e01b81526001600160a01b039091166004820152602490fd5b50803b1561430256fec65a7bb8d6351c1cf70c95a316cc6a92839c986682d98bc35f958f4883f9d2a86e1540171b6c0c960b71a7020d9f60077f6af931a8bbf590da0223dacf75c7af0175b7a638427703f0dbe7bb9bbf987a2551717b34e79f33b5b1008d1fa01db902dd7bc7dec4dceedda775e58dd541e08a116c6c53815c0bd028192f7b626800a2646970667358221220c1a5d05f9866cf0b0976089cdf20b7e31ac9c494bbcd1ffccf17d5adbb0e835864736f6c6343000816003302dd7bc7dec4dceedda775e58dd541e08a116c6c53815c0bd028192f7b626800a26469706673582212205d925ea6f1a242ccbf7f2b261b2f7cb8a644fb9eb0f907143c1ea4a61fb3029264736f6c63430008160033","linkReferences":{}},"methodIdentifiers":{"ADMIN_ROLE()":"75b238fc","DEFAULT_ADMIN_ROLE()":"a217fddf","OPERATION_ROLE()":"8545d8df","cancelGenesis(uint256)":"de0180c6","createGenesis((uint256,uint256,string,string,uint8[]))":"5860a0c3","genesisContracts(uint256)":"2e52c7c6","genesisID()":"33863fa0","getRoleAdmin(bytes32)":"248a9ca3","grantRole(bytes32,address)":"2f2ff15d","hasRole(bytes32,address)":"91d14854","initialize((address,uint256,uint256,address,uint256,uint256,bytes32,address,uint32,uint256,address,uint256,uint256))":"e26599c0","onGenesisFailed(uint256,uint256[])":"3b4d1a04","onGenesisSuccess(uint256,(address[],uint256[],address[],uint256[],address))":"4f9a46b6","params()":"cff0ab96","renounceRole(bytes32,address)":"36568abe","resetTime(uint256,uint256,uint256)":"dcd0d5f1","revokeRole(bytes32,address)":"d547741f","setParams((address,uint256,uint256,address,uint256,uint256,bytes32,address,uint32,uint256,address,uint256,uint256))":"e26bd3cf","supportsInterface(bytes4)":"01ffc9a7","withdrawLeftAssetsAfterFinalized(uint256,address,address,uint256)":"96640189"},"id":6}