{"abi":[{"type":"function","name":"DEFAULT_ADMIN_ROLE","inputs":[],"outputs":[{"name":"","type":"bytes32","internalType":"bytes32"}],"stateMutability":"view"},{"type":"function","name":"DENOMINATOR","inputs":[],"outputs":[{"name":"","type":"uint256","internalType":"uint256"}],"stateMutability":"view"},{"type":"function","name":"GOV_ROLE","inputs":[],"outputs":[{"name":"","type":"bytes32","internalType":"bytes32"}],"stateMutability":"view"},{"type":"function","name":"LOOP_LIMIT","inputs":[],"outputs":[{"name":"","type":"uint8","internalType":"uint8"}],"stateMutability":"view"},{"type":"function","name":"TOKEN_SAVER_ROLE","inputs":[],"outputs":[{"name":"","type":"bytes32","internalType":"bytes32"}],"stateMutability":"view"},{"type":"function","name":"agentNft","inputs":[],"outputs":[{"name":"","type":"address","internalType":"address"}],"stateMutability":"view"},{"type":"function","name":"agentRewardCount","inputs":[{"name":"virtualId","type":"uint256","internalType":"uint256"}],"outputs":[{"name":"","type":"uint256","internalType":"uint256"}],"stateMutability":"view"},{"type":"function","name":"claimAllStakerRewards","inputs":[{"name":"virtualIds","type":"uint256[]","internalType":"uint256[]"}],"outputs":[],"stateMutability":"nonpayable"},{"type":"function","name":"claimAllValidatorRewards","inputs":[{"name":"virtualIds","type":"uint256[]","internalType":"uint256[]"}],"outputs":[],"stateMutability":"nonpayable"},{"type":"function","name":"claimStakerRewards","inputs":[{"name":"virtualId","type":"uint256","internalType":"uint256"}],"outputs":[],"stateMutability":"nonpayable"},{"type":"function","name":"claimValidatorRewards","inputs":[{"name":"virtualId","type":"uint256","internalType":"uint256"}],"outputs":[],"stateMutability":"nonpayable"},{"type":"function","name":"distributeRewards","inputs":[{"name":"amount","type":"uint256","internalType":"uint256"},{"name":"virtualIds","type":"uint256[]","internalType":"uint256[]"},{"name":"shouldShareWithProtocol","type":"bool","internalType":"bool"}],"outputs":[],"stateMutability":"nonpayable"},{"type":"function","name":"getAgentReward","inputs":[{"name":"virtualId","type":"uint256","internalType":"uint256"},{"name":"pos","type":"uint256","internalType":"uint256"}],"outputs":[{"name":"","type":"tuple","internalType":"struct IAgentRewardV3.AgentReward","components":[{"name":"id","type":"uint256","internalType":"uint256"},{"name":"rewardIndex","type":"uint256","internalType":"uint256"},{"name":"stakerAmount","type":"uint256","internalType":"uint256"},{"name":"validatorAmount","type":"uint256","internalType":"uint256"},{"name":"totalProposals","type":"uint256","internalType":"uint256"},{"name":"totalStaked","type":"uint256","internalType":"uint256"}]}],"stateMutability":"view"},{"type":"function","name":"getAgentRewardCount","inputs":[{"name":"virtualId","type":"uint256","internalType":"uint256"}],"outputs":[{"name":"","type":"uint256","internalType":"uint256"}],"stateMutability":"view"},{"type":"function","name":"getClaimableStakerRewards","inputs":[{"name":"account","type":"address","internalType":"address"},{"name":"virtualId","type":"uint256","internalType":"uint256"}],"outputs":[{"name":"totalClaimable","type":"uint256","internalType":"uint256"},{"name":"numRewards","type":"uint256","internalType":"uint256"}],"stateMutability":"view"},{"type":"function","name":"getClaimableValidatorRewards","inputs":[{"name":"account","type":"address","internalType":"address"},{"name":"virtualId","type":"uint256","internalType":"uint256"}],"outputs":[{"name":"totalClaimable","type":"uint256","internalType":"uint256"},{"name":"numRewards","type":"uint256","internalType":"uint256"}],"stateMutability":"view"},{"type":"function","name":"getLPValue","inputs":[{"name":"virtualId","type":"uint256","internalType":"uint256"}],"outputs":[{"name":"","type":"uint256","internalType":"uint256"}],"stateMutability":"view"},{"type":"function","name":"getPastRewardSettings","inputs":[{"name":"timepoint","type":"uint32","internalType":"uint32"}],"outputs":[{"name":"","type":"tuple","internalType":"struct RewardSettingsCheckpointsV2.RewardSettings","components":[{"name":"protocolShares","type":"uint16","internalType":"uint16"},{"name":"stakerShares","type":"uint16","internalType":"uint16"}]}],"stateMutability":"view"},{"type":"function","name":"getReward","inputs":[{"name":"pos","type":"uint256","internalType":"uint256"}],"outputs":[{"name":"","type":"tuple","internalType":"struct IAgentRewardV3.Reward","components":[{"name":"blockNumber","type":"uint256","internalType":"uint256"},{"name":"amount","type":"uint256","internalType":"uint256"},{"name":"lpValues","type":"uint256[]","internalType":"uint256[]"},{"name":"virtualIds","type":"uint256[]","internalType":"uint256[]"}]}],"stateMutability":"view"},{"type":"function","name":"getRewardSettings","inputs":[],"outputs":[{"name":"","type":"tuple","internalType":"struct RewardSettingsCheckpointsV2.RewardSettings","components":[{"name":"protocolShares","type":"uint16","internalType":"uint16"},{"name":"stakerShares","type":"uint16","internalType":"uint16"}]}],"stateMutability":"view"},{"type":"function","name":"getRoleAdmin","inputs":[{"name":"role","type":"bytes32","internalType":"bytes32"}],"outputs":[{"name":"","type":"bytes32","internalType":"bytes32"}],"stateMutability":"view"},{"type":"function","name":"getTotalClaimableStakerRewards","inputs":[{"name":"account","type":"address","internalType":"address"},{"name":"virtualIds","type":"uint256[]","internalType":"uint256[]"}],"outputs":[{"name":"totalClaimable","type":"uint256","internalType":"uint256"}],"stateMutability":"view"},{"type":"function","name":"getTotalClaimableValidatorRewards","inputs":[{"name":"account","type":"address","internalType":"address"},{"name":"virtualIds","type":"uint256[]","internalType":"uint256[]"}],"outputs":[{"name":"totalClaimable","type":"uint256","internalType":"uint256"}],"stateMutability":"view"},{"type":"function","name":"grantRole","inputs":[{"name":"role","type":"bytes32","internalType":"bytes32"},{"name":"account","type":"address","internalType":"address"}],"outputs":[],"stateMutability":"nonpayable"},{"type":"function","name":"hasRole","inputs":[{"name":"role","type":"bytes32","internalType":"bytes32"},{"name":"account","type":"address","internalType":"address"}],"outputs":[{"name":"","type":"bool","internalType":"bool"}],"stateMutability":"view"},{"type":"function","name":"initialize","inputs":[{"name":"rewardToken_","type":"address","internalType":"address"},{"name":"agentNft_","type":"address","internalType":"address"},{"name":"settings_","type":"tuple","internalType":"struct RewardSettingsCheckpointsV2.RewardSettings","components":[{"name":"protocolShares","type":"uint16","internalType":"uint16"},{"name":"stakerShares","type":"uint16","internalType":"uint16"}]}],"outputs":[],"stateMutability":"nonpayable"},{"type":"function","name":"protocolRewards","inputs":[],"outputs":[{"name":"","type":"uint256","internalType":"uint256"}],"stateMutability":"view"},{"type":"function","name":"renounceRole","inputs":[{"name":"role","type":"bytes32","internalType":"bytes32"},{"name":"callerConfirmation","type":"address","internalType":"address"}],"outputs":[],"stateMutability":"nonpayable"},{"type":"function","name":"revokeRole","inputs":[{"name":"role","type":"bytes32","internalType":"bytes32"},{"name":"account","type":"address","internalType":"address"}],"outputs":[],"stateMutability":"nonpayable"},{"type":"function","name":"rewardCount","inputs":[],"outputs":[{"name":"","type":"uint256","internalType":"uint256"}],"stateMutability":"view"},{"type":"function","name":"rewardToken","inputs":[],"outputs":[{"name":"","type":"address","internalType":"address"}],"stateMutability":"view"},{"type":"function","name":"saveToken","inputs":[{"name":"_token","type":"address","internalType":"address"},{"name":"_receiver","type":"address","internalType":"address"},{"name":"_amount","type":"uint256","internalType":"uint256"}],"outputs":[],"stateMutability":"nonpayable"},{"type":"function","name":"setRewardSettings","inputs":[{"name":"protocolShares_","type":"uint16","internalType":"uint16"},{"name":"stakerShares_","type":"uint16","internalType":"uint16"}],"outputs":[],"stateMutability":"nonpayable"},{"type":"function","name":"supportsInterface","inputs":[{"name":"interfaceId","type":"bytes4","internalType":"bytes4"}],"outputs":[{"name":"","type":"bool","internalType":"bool"}],"stateMutability":"view"},{"type":"function","name":"updateRefContracts","inputs":[{"name":"rewardToken_","type":"address","internalType":"address"},{"name":"agentNft_","type":"address","internalType":"address"}],"outputs":[],"stateMutability":"nonpayable"},{"type":"event","name":"Initialized","inputs":[{"name":"version","type":"uint64","indexed":false,"internalType":"uint64"}],"anonymous":false},{"type":"event","name":"NewAgentReward","inputs":[{"name":"virtualId","type":"uint256","indexed":true,"internalType":"uint256"},{"name":"id","type":"uint256","indexed":false,"internalType":"uint256"}],"anonymous":false},{"type":"event","name":"NewReward","inputs":[{"name":"pos","type":"uint256","indexed":false,"internalType":"uint256"},{"name":"virtualIds","type":"uint256[]","indexed":false,"internalType":"uint256[]"}],"anonymous":false},{"type":"event","name":"RefContractsUpdated","inputs":[{"name":"rewardToken","type":"address","indexed":false,"internalType":"address"},{"name":"agentNft","type":"address","indexed":false,"internalType":"address"}],"anonymous":false},{"type":"event","name":"RewardSettingsUpdated","inputs":[{"name":"protocolShares","type":"uint16","indexed":false,"internalType":"uint16"},{"name":"stakerShares","type":"uint16","indexed":false,"internalType":"uint16"}],"anonymous":false},{"type":"event","name":"RoleAdminChanged","inputs":[{"name":"role","type":"bytes32","indexed":true,"internalType":"bytes32"},{"name":"previousAdminRole","type":"bytes32","indexed":true,"internalType":"bytes32"},{"name":"newAdminRole","type":"bytes32","indexed":true,"internalType":"bytes32"}],"anonymous":false},{"type":"event","name":"RoleGranted","inputs":[{"name":"role","type":"bytes32","indexed":true,"internalType":"bytes32"},{"name":"account","type":"address","indexed":true,"internalType":"address"},{"name":"sender","type":"address","indexed":true,"internalType":"address"}],"anonymous":false},{"type":"event","name":"RoleRevoked","inputs":[{"name":"role","type":"bytes32","indexed":true,"internalType":"bytes32"},{"name":"account","type":"address","indexed":true,"internalType":"address"},{"name":"sender","type":"address","indexed":true,"internalType":"address"}],"anonymous":false},{"type":"event","name":"StakerRewardClaimed","inputs":[{"name":"virtualId","type":"uint256","indexed":true,"internalType":"uint256"},{"name":"staker","type":"address","indexed":true,"internalType":"address"},{"name":"numRewards","type":"uint256","indexed":false,"internalType":"uint256"},{"name":"amount","type":"uint256","indexed":false,"internalType":"uint256"}],"anonymous":false},{"type":"event","name":"TokenSaved","inputs":[{"name":"by","type":"address","indexed":true,"internalType":"address"},{"name":"receiver","type":"address","indexed":true,"internalType":"address"},{"name":"token","type":"address","indexed":true,"internalType":"address"},{"name":"amount","type":"uint256","indexed":false,"internalType":"uint256"}],"anonymous":false},{"type":"event","name":"ValidatorRewardClaimed","inputs":[{"name":"virtualId","type":"uint256","indexed":true,"internalType":"uint256"},{"name":"validator","type":"address","indexed":true,"internalType":"address"},{"name":"amount","type":"uint256","indexed":false,"internalType":"uint256"}],"anonymous":false},{"type":"error","name":"AccessControlBadConfirmation","inputs":[]},{"type":"error","name":"AccessControlUnauthorizedAccount","inputs":[{"name":"account","type":"address","internalType":"address"},{"name":"neededRole","type":"bytes32","internalType":"bytes32"}]},{"type":"error","name":"AddressEmptyCode","inputs":[{"name":"target","type":"address","internalType":"address"}]},{"type":"error","name":"AddressInsufficientBalance","inputs":[{"name":"account","type":"address","internalType":"address"}]},{"type":"error","name":"CheckpointUnorderedInsertion","inputs":[]},{"type":"error","name":"ERC5805FutureLookup","inputs":[{"name":"timepoint","type":"uint256","internalType":"uint256"},{"name":"clock","type":"uint32","internalType":"uint32"}]},{"type":"error","name":"FailedInnerCall","inputs":[]},{"type":"error","name":"InvalidInitialization","inputs":[]},{"type":"error","name":"NotGovError","inputs":[]},{"type":"error","name":"NotInitializing","inputs":[]},{"type":"error","name":"NotOwnerError","inputs":[]},{"type":"error","name":"SafeCastOverflowedUintDowncast","inputs":[{"name":"bits","type":"uint8","internalType":"uint8"},{"name":"value","type":"uint256","internalType":"uint256"}]},{"type":"error","name":"SafeERC20FailedOperation","inputs":[{"name":"token","type":"address","internalType":"address"}]}],"bytecode":{"object":"0x608060405234801561000f575f80fd5b50612ed08061001d5f395ff3fe608060405234801561000f575f80fd5b5060043610610208575f3560e01c8063918f86741161011f578063c14ac73a116100a9578063d8bd0da411610079578063d8bd0da414610513578063dfd91cdc14610526578063ed7987b4146102db578063f1d60b2414610539578063f7c618c11461054c575f80fd5b8063c14ac73a146104c0578063cf0ca194146104da578063d2de18a0146104ed578063d547741f14610500575f80fd5b80639afdb2c2116100ef5780639afdb2c2146104545780639cbef4a914610467578063a217fddf14610492578063ae95636314610499578063b536818a146104ac575f80fd5b8063918f8674146103c757806391d14854146103d057806393d045cd146103e35780639845f1fb14610441575f80fd5b806343397b77116101a0578063790854251161017057806379085425146103475780637bc31f701461034f57806389e53e6b146103775780639038ef06146103a157806391591025146103b4575f80fd5b806343397b77146102db57806372f67916146102fa578063756d3a091461030d57806376175b0614610320575f80fd5b8063295cccba116101db578063295cccba1461029757806329df6479146102ac5780632f2ff15d146102b557806336568abe146102c8575f80fd5b806301ffc9a71461020c5780631b9731fb146102345780631c4b774b14610255578063248a9ca314610275575b5f80fd5b61021f61021a3660046126da565b61055f565b60405190151581526020015b60405180910390f35b610247610242366004612701565b610595565b60405190815260200161022b565b610268610263366004612701565b610679565b60405161022b9190612752565b610247610283366004612701565b5f9081526020819052604090206001015490565b6102aa6102a5366004612701565b610792565b005b61024760075481565b6102aa6102c33660046127bb565b610894565b6102aa6102d63660046127bb565b6108be565b6102476102e9366004612701565b5f9081526005602052604090205490565b610247610308366004612909565b6108f6565b6102aa61031b366004612956565b61094a565b6102477fd9d917c4034cff8a8c5fa1e40f9fbaf906b827c33ae3ab1fcabbb616cb8ef24d81565b600454610247565b61036261035d366004612982565b6109ed565b6040805192835260208301919091520161022b565b61037f610d2b565b60408051825161ffff908116825260209384015116928101929092520161022b565b6103626103af366004612982565b610d4d565b6102aa6103c23660046129ac565b610ff5565b61024761271081565b61021f6103de3660046127bb565b6110ec565b6103f66103f13660046129e6565b611114565b60405161022b91905f60c082019050825182526020830151602083015260408301516040830152606083015160608301526080830151608083015260a083015160a083015292915050565b6102aa61044f366004612a13565b6111c0565b6102aa610462366004612a6a565b611511565b60035461047a906001600160a01b031681565b6040516001600160a01b03909116815260200161022b565b6102475f81565b61037f6104a7366004612aa8565b611612565b6102475f80516020612e7b83398151915281565b6104c8606481565b60405160ff909116815260200161022b565b6102aa6104e8366004612ae1565b611678565b6102aa6104fb366004612701565b611715565b6102aa61050e3660046127bb565b6117fc565b6102aa6105213660046129ac565b611820565b610247610534366004612909565b6118f0565b6102aa610547366004612b12565b61193d565b60025461047a906001600160a01b031681565b5f6001600160e01b03198216637965db0b60e01b148061058f57506301ffc9a760e01b6001600160e01b03198316145b92915050565b60035460405163fcf9e6db60e01b8152600481018390525f9182916001600160a01b039091169063fcf9e6db906024016040805180830381865afa1580156105df573d5f803e3d5ffd5b505050506040513d601f19601f820116820180604052508101906106039190612b86565b516002546040516370a0823160e01b81526001600160a01b0380841660048301529293509116906370a0823190602401602060405180830381865afa15801561064e573d5f803e3d5ffd5b505050506040513d601f19601f820116820180604052508101906106729190612bc5565b9392505050565b6106a260405180608001604052805f81526020015f815260200160608152602001606081525090565b600482815481106106b5576106b5612bdc565b905f5260205f2090600402016040518060800160405290815f8201548152602001600182015481526020016002820180548060200260200160405190810160405280929190818152602001828054801561072c57602002820191905f5260205f20905b815481526020019060010190808311610718575b505050505081526020016003820180548060200260200160405190810160405280929190818152602001828054801561078257602002820191905f5260205f20905b81548152602001906001019080831161076e575b5050505050815250509050919050565b60085460ff16156107be5760405162461bcd60e51b81526004016107b590612bf0565b60405180910390fd5b6008805460ff191660011790555f6107d33390565b90505f806107e18385610d4d565b6001600160a01b0385165f908152600a602090815260408083208984529091528120805493955091935090918491839161081c908490612c2c565b90915550506001810182905560025461083f906001600160a01b03168585611a8f565b836001600160a01b0316857f6c69b517f2ad63051caec865e7d73f276d42c4c29887061091d78119e525b4b48560405161087b91815260200190565b60405180910390a350506008805460ff19169055505050565b5f828152602081905260409020600101546108ae81611aee565b6108b88383611afb565b50505050565b6001600160a01b03811633146108e75760405163334bd91960e11b815260040160405180910390fd5b6108f18282611b8a565b505050565b5f805b8251811015610943575f83828151811061091557610915612bdc565b602002602001015190505f61092a8683610d4d565b5090506109378185612c2c565b935050506001016108f9565b5092915050565b6109615f80516020612e7b833981519152336110ec565b61097e57604051631f43c9cf60e31b815260040160405180910390fd5b600280546001600160a01b038481166001600160a01b03199283168117909355600380549185169190921681179091556040805192835260208301919091527f17eb3201ecbba4a28a83bf810a0b98f1867e7c56f760aa909bc63a64fdeba9d791015b60405180910390a15050565b6001600160a01b0382165f9081526009602090815260408083208484528252808320815180830190925280548252600101549181018290528291610a4990610a36906064612c2c565b5f86815260056020526040902054611bf3565b60035460405163fcf9e6db60e01b8152600481018790529193505f916001600160a01b039091169063fcf9e6db906024016040805180830381865afa158015610a94573d5f803e3d5ffd5b505050506040513d601f19601f82011682018060405250810190610ab89190612b86565b60200151600354604051635652386760e11b8152600481018890529192505f916001600160a01b039091169063aca470ce906024015f60405180830381865afa158015610b07573d5f803e3d5ffd5b505050506040513d5f823e601f3d908101601f19168201604052610b2e9190810190612c3f565b5160208401519091505b84811015610d20575f610b4b8883611114565b90505f610b5b8260200151610679565b8051604051622f640360e91b81526001600160a01b038d8116600483015260248201929092529192505f9190871690635ec8060090604401602060405180830381865afa158015610bae573d5f803e3d5ffd5b505050506040513d601f19601f82011682018060405250810190610bd29190612d55565b825160405163209e1f0d60e01b81526001600160a01b03808416600483015260248201929092529192505f919087169063209e1f0d90604401602060405180830381865afa158015610c26573d5f803e3d5ffd5b505050506040513d601f19601f82011682018060405250810190610c4a9190612bc5565b835160405163d7b7d40560e01b81526001600160a01b038f8116600483015260248201929092529192505f919089169063d7b7d40590604401602060405180830381865afa158015610c9e573d5f803e3d5ffd5b505050506040513d601f19601f82011682018060405250810190610cc29190612bc5565b90505f8560a00151828760400151610cda9190612d70565b610ce49190612d9b565b6080870151909150610cf68483612d70565b610d009190612d9b565b9050610d0c818d612c2c565b9b505060019095019450610b389350505050565b505050509250929050565b604080518082019091525f8082526020820152610d486006611c08565b905090565b6001600160a01b0382165f908152600a602090815260408083208484528252808320815180830190925280548252600101549181018290528291610d9690610a36906064612c2c565b60035460405163fcf9e6db60e01b8152600481018790529193505f916001600160a01b039091169063fcf9e6db906024016040805180830381865afa158015610de1573d5f803e3d5ffd5b505050506040513d601f19601f82011682018060405250810190610e059190612b86565b60200151600354604051635652386760e11b8152600481018890529192505f916001600160a01b039091169063aca470ce906024015f60405180830381865afa158015610e54573d5f803e3d5ffd5b505050506040513d5f823e601f3d908101601f19168201604052610e7b9190810190612c3f565b5160208401519091505b84811015610d20575f610e988883611114565b90505f610ea88260200151610679565b805160405163209e1f0d60e01b81526001600160a01b038d8116600483015260248201929092529192505f919086169063209e1f0d90604401602060405180830381865afa158015610efc573d5f803e3d5ffd5b505050506040513d601f19601f82011682018060405250810190610f209190612bc5565b8251604051630748d63560e31b81526001600160a01b038e8116600483015260248201929092529192505f9190881690633a46b1a890604401602060405180830381865afa158015610f74573d5f803e3d5ffd5b505050506040513d601f19601f82011682018060405250810190610f989190612bc5565b90505f8460a00151828660600151610fb09190612d70565b610fba9190612d9b565b6080860151909150610fcc8483612d70565b610fd69190612d9b565b9050610fe2818c612c2c565b9a505060019094019350610e8592505050565b60085460ff16156110185760405162461bcd60e51b81526004016107b590612bf0565b6008805460ff191660011790555f61102d3390565b90505f805b83518110156110c5575f84828151811061104e5761104e612bdc565b602002602001015190505f806110648684610d4d565b90925090506110738286612c2c565b6001600160a01b0387165f908152600a602090815260408083208784529091528120805492975091849183916110aa908490612c2c565b90915550506001908101919091559290920191506110329050565b506002546110dd906001600160a01b03168383611a8f565b50506008805460ff1916905550565b5f918252602082815260408084206001600160a01b0393909316845291905290205460ff1690565b6111476040518060c001604052805f81526020015f81526020015f81526020015f81526020015f81526020015f81525090565b5f83815260056020526040902080548390811061116657611166612bdc565b905f5260205f2090600602016040518060c00160405290815f820154815260200160018201548152602001600282015481526020016003820154815260200160048201548152602001600582015481525050905092915050565b6111d75f80516020612e7b833981519152336110ec565b6111f457604051631f43c9cf60e31b815260040160405180910390fd5b5f83116112345760405162461bcd60e51b815260206004820152600e60248201526d125b9d985b1a5908185b5bdd5b9d60921b60448201526064016107b5565b61124c336002546001600160a01b0316903086611c94565b5f611255610d2b565b90505f82611263575f61126c565b61126c85611ccd565b90505f6112798287612dba565b6004548651919250905f8167ffffffffffffffff81111561129c5761129c6127e9565b6040519080825280602002602001820160405280156112c5578160200160208202803683370190505b5090505f805b83811015611342576112f58a82815181106112e8576112e8612bdc565b6020026020010151610595565b83828151811061130757611307612bdc565b60200260200101818152505082818151811061132557611325612bdc565b6020026020010151826113389190612c2c565b91506001016112cb565b505f81116113865760405162461bcd60e51b8152602060048201526011602482015270496e76616c6964204c502076616c75657360781b60448201526064016107b5565b604080516080810182524381526020808201888152928201858152606083018d9052600480546001810182555f829052845191027f8a35acfbc15ff81a39ae7d344fd709f28e8600b4aa8c65c6b64bfe7fe36bd19b810191825594517f8a35acfbc15ff81a39ae7d344fd709f28e8600b4aa8c65c6b64bfe7fe36bd19c8601559051805193949193611441937f8a35acfbc15ff81a39ae7d344fd709f28e8600b4aa8c65c6b64bfe7fe36bd19d909301929190910190612686565b506060820151805161145d916003840191602090910190612686565b5050507f1424534c4be6c4f9d8d2177daa3c4cfc32c0fe81d008781f922fa4d6b8be615f848a604051611491929190612dcd565b60405180910390a15f5b83811015611504575f8a82815181106114b6576114b6612bdc565b602002602001015190506114fb8187858a8887815181106114d9576114d9612bdc565b60200260200101516114eb9190612d70565b6114f59190612d9b565b8c611d1c565b5060010161149b565b5050505050505050505050565b61153b7fd9d917c4034cff8a8c5fa1e40f9fbaf906b827c33ae3ab1fcabbb616cb8ef24d336110ec565b61159c5760405162461bcd60e51b815260206004820152602c60248201527f546f6b656e53617665722e6f6e6c79546f6b656e53617665723a207065726d6960448201526b1cdcda5bdb8819195b9a595960a21b60648201526084016107b5565b6115b06001600160a01b0384168383611a8f565b826001600160a01b0316826001600160a01b03166115cb3390565b6001600160a01b03167f30d87cec6b4c56cede1018725d1e6d9304e2f7ee6d25b004b7e2183f793f26bc8460405161160591815260200190565b60405180910390a4505050565b604080518082019091525f80825260208201525f61162f43611f72565b90508063ffffffff168363ffffffff161061166d57604051631f2fd49d60e01b815263ffffffff8085166004830152821660248201526044016107b5565b610672600684611fa6565b61168f5f80516020612e7b833981519152336110ec565b6116ac57604051631f43c9cf60e31b815260040160405180910390fd5b6116da6116b843611f72565b6040805180820190915261ffff808616825284166020820152600691906120b4565b6040805161ffff8085168252831660208201527fac6be3927d791586090aea397f7c4e22aeec9d0fc408dd0ab3e43b3f2accf5a791016109e1565b60085460ff16156117385760405162461bcd60e51b81526004016107b590612bf0565b6008805460ff191660011790555f61174d3390565b90505f8061175b83856109ed565b6001600160a01b0385165f90815260096020908152604080832089845290915281208054939550919350909184918391611796908490612c2c565b9091555050600181018290556002546117b9906001600160a01b03168585611a8f565b60408051838152602081018590526001600160a01b0386169187917fbabba3a0541a52d8f0c10ec16b80b1c224e840a2dec9449abc37b2c718c2a7de910161087b565b5f8281526020819052604090206001015461181681611aee565b6108b88383611b8a565b60085460ff16156118435760405162461bcd60e51b81526004016107b590612bf0565b6008805460ff191660011790555f6118583390565b90505f805b83518110156110c5575f84828151811061187957611879612bdc565b602002602001015190505f8061188f86846109ed565b909250905061189e8286612c2c565b6001600160a01b0387165f9081526009602090815260408083208784529091528120805492975091849183916118d5908490612c2c565b909155505060019081019190915592909201915061185d9050565b5f805b8251811015610943575f83828151811061190f5761190f612bdc565b602002602001015190505f61192486836109ed565b5090506119318185612c2c565b935050506001016118f3565b7ff0c57e16840df040f15088dc2f81fe391c3923bec73e23a9662efc9c229c6a008054600160401b810460ff16159067ffffffffffffffff165f811580156119825750825b90505f8267ffffffffffffffff16600114801561199e5750303b155b9050811580156119ac575080155b156119ca5760405163f92ee8a960e01b815260040160405180910390fd5b845467ffffffffffffffff1916600117855583156119f457845460ff60401b1916600160401b1785555b600280546001600160a01b03808b166001600160a01b03199283161790925560038054928a1692909116919091179055611a3060065f886120b4565b611a3a5f33611afb565b50600180558315611a8557845460ff60401b19168555604051600181527fc7f505b2f371ae2175ee4913f4499e1f2633a7b5936321eed1cdaeb6115181d29060200160405180910390a15b5050505050505050565b6040516001600160a01b038381166024830152604482018390526108f191859182169063a9059cbb906064015b604051602081830303815290604052915060e01b6020820180516001600160e01b0383818316178352505050506120bf565b611af88133612120565b50565b5f611b0683836110ec565b611b83575f838152602081815260408083206001600160a01b03861684529091529020805460ff19166001179055611b3b3390565b6001600160a01b0316826001600160a01b0316847f2f8788117e7eff1d82e926ec794901d17c78024a50270940304540a733656f0d60405160405180910390a450600161058f565b505f61058f565b5f611b9583836110ec565b15611b83575f838152602081815260408083206001600160a01b0386168085529252808320805460ff1916905551339286917ff6391f5c32d9c69d2a47ea670b442974b53935d1edc7fd64eb21e047a839171b9190a450600161058f565b5f818310611c015781610672565b5090919050565b604080518082019091525f808252602082015281548015611c7a5782611c2f600183612dba565b81548110611c3f57611c3f612bdc565b5f91825260209182902060408051808201909152600292909202016001015461ffff8082168352620100009091041691810191909152610672565b604080518082019091525f80825260208201529392505050565b6040516001600160a01b0384811660248301528381166044830152606482018390526108b89186918216906323b872dd90608401611abc565b5f80611cd96006611c08565b90505f612710825f015161ffff1685611cf29190612d70565b611cfc9190612d9b565b90508060075f828254611d0f9190612c2c565b9091555090949350505050565b600180545f9182611d2c83612e1b565b9091555060035460405163020e5c6160e51b8152600481018890529192506001600160a01b0316905f9082906341cb8c2090602401602060405180830381865afa158015611d7c573d5f803e3d5ffd5b505050506040513d601f19601f82011682018060405250810190611da09190612bc5565b90505f612710856020015161ffff1687611dba9190612d70565b611dc49190612d9b565b604051635652386760e11b8152600481018a90529091505f906001600160a01b0385169063aca470ce906024015f60405180830381865afa158015611e0b573d5f803e3d5ffd5b505050506040513d5f823e601f3d908101601f19168201604052611e329190810190612c3f565b5f01516001600160a01b031663da35c6646040518163ffffffff1660e01b8152600401602060405180830381865afa158015611e70573d5f803e3d5ffd5b505050506040513d601f19601f82011682018060405250810190611e949190612bc5565b905060055f8a81526020019081526020015f206040518060c001604052808781526020018a8152602001848152602001848a611ed09190612dba565b8152602080820185905260409182018790528354600180820186555f9586529482902084516006909202019081558382015194810194909455828201516002850155606083015160038501556080830151600485015560a09092015160059093019290925590518681528a917f7359be50093766679cdd45e9615fcd90d19df2faf3709de5c567187a82d9a7cf910160405180910390a2505050505050505050565b5f63ffffffff821115611fa2576040516306dfcc6560e41b815260206004820152602481018390526044016107b5565b5090565b604080518082019091525f808252602082015282545f816005811115612029575f611fd08461215d565b611fda9085612dba565b9050865f018181548110611ff057611ff0612bdc565b5f91825260209091206002909102015463ffffffff908116908716101561201957809150612027565b612024816001612c2c565b92505b505b5f61203687878585612241565b90508015612095578661204a600183612dba565b8154811061205a5761205a612bdc565b5f91825260209182902060408051808201909152600292909202016001015461ffff80821683526201000090910416918101919091526120a9565b604080518082019091525f80825260208201525b979650505050505050565b6108f18383836122b1565b5f6120d36001600160a01b038416836124ae565b905080515f141580156120f75750808060200190518101906120f59190612e33565b155b156108f157604051635274afe760e01b81526001600160a01b03841660048201526024016107b5565b61212a82826110ec565b6121595760405163e2517d3f60e01b81526001600160a01b0382166004820152602481018390526044016107b5565b5050565b5f815f0361216c57505f919050565b5f6001612178846124bb565b901c6001901b9050600181848161219157612191612d87565b048201901c905060018184816121a9576121a9612d87565b048201901c905060018184816121c1576121c1612d87565b048201901c905060018184816121d9576121d9612d87565b048201901c905060018184816121f1576121f1612d87565b048201901c9050600181848161220957612209612d87565b048201901c9050600181848161222157612221612d87565b048201901c90506106728182858161223b5761223b612d87565b04611bf3565b5f5b818310156122a9575f612256848461254e565b90508463ffffffff1686828154811061227157612271612bdc565b5f91825260209091206002909102015463ffffffff161115612295578092506122a3565b6122a0816001612c2c565b93505b50612243565b509392505050565b82548015612436575f846122c6600184612dba565b815481106122d6576122d6612bdc565b5f9182526020918290206040805180820182526002909302909101805463ffffffff9081168452825180840190935260019091015461ffff80821684526201000090910416828501529282015280519092508582169116111561234c57604051632520601d60e01b815260040160405180910390fd5b805163ffffffff8086169116036123bd57828561236a600185612dba565b8154811061237a5761237a612bdc565b5f918252602091829020835160016002909302909101919091018054939092015161ffff908116620100000263ffffffff19909416911617919091179055612430565b6040805180820190915263ffffffff80861682526020808301868152885460018181018b555f8b81528490209551600290920290950180549190941663ffffffff1991821617845590518051939094018054949092015161ffff9081166201000002949091169216919091179190911790555b506108b8565b6040805180820190915263ffffffff80851682526020808301858152875460018181018a555f8a81528490209551600290920290950180549190941663ffffffff1991821617845590518051939094018054949092015161ffff90811662010000029490911692169190911791909117905550505050565b606061067283835f612568565b5f80608083901c156124cf57608092831c92015b604083901c156124e157604092831c92015b602083901c156124f357602092831c92015b601083901c1561250557601092831c92015b600883901c1561251757600892831c92015b600483901c1561252957600492831c92015b600283901c1561253b57600292831c92015b600183901c1561058f5760010192915050565b5f61255c6002848418612d9b565b61067290848416612c2c565b60608147101561258d5760405163cd78605960e01b81523060048201526024016107b5565b5f80856001600160a01b031684866040516125a89190612e4e565b5f6040518083038185875af1925050503d805f81146125e2576040519150601f19603f3d011682016040523d82523d5f602084013e6125e7565b606091505b50915091506125f7868383612601565b9695505050505050565b606082612616576126118261265d565b610672565b815115801561262d57506001600160a01b0384163b155b1561265657604051639996b31560e01b81526001600160a01b03851660048201526024016107b5565b5080610672565b80511561266d5780518082602001fd5b604051630a12f52160e11b815260040160405180910390fd5b828054828255905f5260205f209081019282156126bf579160200282015b828111156126bf5782518255916020019190600101906126a4565b50611fa29291505b80821115611fa2575f81556001016126c7565b5f602082840312156126ea575f80fd5b81356001600160e01b031981168114610672575f80fd5b5f60208284031215612711575f80fd5b5035919050565b5f815180845260208085019450602084015f5b838110156127475781518752958201959082019060010161272b565b509495945050505050565b6020815281516020820152602082015160408201525f60408301516080606084015261278160a0840182612718565b90506060840151601f1984830301608085015261279e8282612718565b95945050505050565b6001600160a01b0381168114611af8575f80fd5b5f80604083850312156127cc575f80fd5b8235915060208301356127de816127a7565b809150509250929050565b634e487b7160e01b5f52604160045260245ffd5b6040805190810167ffffffffffffffff81118282101715612820576128206127e9565b60405290565b60405160a0810167ffffffffffffffff81118282101715612820576128206127e9565b604051601f8201601f1916810167ffffffffffffffff81118282101715612872576128726127e9565b604052919050565b5f67ffffffffffffffff821115612893576128936127e9565b5060051b60200190565b5f82601f8301126128ac575f80fd5b813560206128c16128bc8361287a565b612849565b8083825260208201915060208460051b8701019350868411156128e2575f80fd5b602086015b848110156128fe57803583529183019183016128e7565b509695505050505050565b5f806040838503121561291a575f80fd5b8235612925816127a7565b9150602083013567ffffffffffffffff811115612940575f80fd5b61294c8582860161289d565b9150509250929050565b5f8060408385031215612967575f80fd5b8235612972816127a7565b915060208301356127de816127a7565b5f8060408385031215612993575f80fd5b823561299e816127a7565b946020939093013593505050565b5f602082840312156129bc575f80fd5b813567ffffffffffffffff8111156129d2575f80fd5b6129de8482850161289d565b949350505050565b5f80604083850312156129f7575f80fd5b50508035926020909101359150565b8015158114611af8575f80fd5b5f805f60608486031215612a25575f80fd5b83359250602084013567ffffffffffffffff811115612a42575f80fd5b612a4e8682870161289d565b9250506040840135612a5f81612a06565b809150509250925092565b5f805f60608486031215612a7c575f80fd5b8335612a87816127a7565b92506020840135612a97816127a7565b929592945050506040919091013590565b5f60208284031215612ab8575f80fd5b813563ffffffff81168114610672575f80fd5b803561ffff81168114612adc575f80fd5b919050565b5f8060408385031215612af2575f80fd5b612afb83612acb565b9150612b0960208401612acb565b90509250929050565b5f805f8385036080811215612b25575f80fd5b8435612b30816127a7565b93506020850135612b40816127a7565b92506040603f1982011215612b53575f80fd5b50612b5c6127fd565b612b6860408601612acb565b8152612b7660608601612acb565b6020820152809150509250925092565b5f60408284031215612b96575f80fd5b612b9e6127fd565b8251612ba9816127a7565b81526020830151612bb9816127a7565b60208201529392505050565b5f60208284031215612bd5575f80fd5b5051919050565b634e487b7160e01b5f52603260045260245ffd5b6020808252600e908201526d31b0b73737ba103932b2b73a32b960911b604082015260600190565b634e487b7160e01b5f52601160045260245ffd5b8082018082111561058f5761058f612c18565b5f6020808385031215612c50575f80fd5b825167ffffffffffffffff80821115612c67575f80fd5b9084019060a08287031215612c7a575f80fd5b612c82612826565b8251612c8d816127a7565b815282840151612c9c816127a7565b818501526040830151612cae816127a7565b60408201526060830151612cc1816127a7565b6060820152608083015182811115612cd7575f80fd5b80840193505086601f840112612ceb575f80fd5b82519150612cfb6128bc8361287a565b82815260059290921b83018401918481019088841115612d19575f80fd5b938501935b83851015612d4557845160ff81168114612d36575f80fd5b82529385019390850190612d1e565b6080830152509695505050505050565b5f60208284031215612d65575f80fd5b8151610672816127a7565b808202811582820484141761058f5761058f612c18565b634e487b7160e01b5f52601260045260245ffd5b5f82612db557634e487b7160e01b5f52601260045260245ffd5b500490565b8181038181111561058f5761058f612c18565b5f604082018483526020604060208501528185518084526060860191506020870193505f5b81811015612e0e57845183529383019391830191600101612df2565b5090979650505050505050565b5f60018201612e2c57612e2c612c18565b5060010190565b5f60208284031215612e43575f80fd5b815161067281612a06565b5f82515f5b81811015612e6d5760208186018101518583015201612e53565b505f92019182525091905056fe0603f2636f0ca34ae3ea5a23bb826e2bd2ffd59fb1c01edc1ba10fba2899d1baa2646970667358221220210d711d3918ad6ca596fd0a0f2502e5461691b5fffba8fa3c6c1424820e4d4464736f6c63430008160033","linkReferences":{}},"methodIdentifiers":{"DEFAULT_ADMIN_ROLE()":"a217fddf","DENOMINATOR()":"918f8674","GOV_ROLE()":"b536818a","LOOP_LIMIT()":"c14ac73a","TOKEN_SAVER_ROLE()":"76175b06","agentNft()":"9cbef4a9","agentRewardCount(uint256)":"43397b77","claimAllStakerRewards(uint256[])":"d8bd0da4","claimAllValidatorRewards(uint256[])":"91591025","claimStakerRewards(uint256)":"d2de18a0","claimValidatorRewards(uint256)":"295cccba","distributeRewards(uint256,uint256[],bool)":"9845f1fb","getAgentReward(uint256,uint256)":"93d045cd","getAgentRewardCount(uint256)":"ed7987b4","getClaimableStakerRewards(address,uint256)":"7bc31f70","getClaimableValidatorRewards(address,uint256)":"9038ef06","getLPValue(uint256)":"1b9731fb","getPastRewardSettings(uint32)":"ae956363","getReward(uint256)":"1c4b774b","getRewardSettings()":"89e53e6b","getRoleAdmin(bytes32)":"248a9ca3","getTotalClaimableStakerRewards(address,uint256[])":"dfd91cdc","getTotalClaimableValidatorRewards(address,uint256[])":"72f67916","grantRole(bytes32,address)":"2f2ff15d","hasRole(bytes32,address)":"91d14854","initialize(address,address,(uint16,uint16))":"f1d60b24","protocolRewards()":"29df6479","renounceRole(bytes32,address)":"36568abe","revokeRole(bytes32,address)":"d547741f","rewardCount()":"79085425","rewardToken()":"f7c618c1","saveToken(address,address,uint256)":"9afdb2c2","setRewardSettings(uint16,uint16)":"cf0ca194","supportsInterface(bytes4)":"01ffc9a7","updateRefContracts(address,address)":"756d3a09"},"id":2}