{"abi":[{"type":"constructor","inputs":[{"name":"_initialSupply","type":"uint256","internalType":"uint256"},{"name":"initialOwner","type":"address","internalType":"address"}],"stateMutability":"nonpayable"},{"type":"function","name":"allowance","inputs":[{"name":"owner","type":"address","internalType":"address"},{"name":"spender","type":"address","internalType":"address"}],"outputs":[{"name":"","type":"uint256","internalType":"uint256"}],"stateMutability":"view"},{"type":"function","name":"approve","inputs":[{"name":"spender","type":"address","internalType":"address"},{"name":"value","type":"uint256","internalType":"uint256"}],"outputs":[{"name":"","type":"bool","internalType":"bool"}],"stateMutability":"nonpayable"},{"type":"function","name":"balanceOf","inputs":[{"name":"account","type":"address","internalType":"address"}],"outputs":[{"name":"","type":"uint256","internalType":"uint256"}],"stateMutability":"view"},{"type":"function","name":"cap","inputs":[],"outputs":[{"name":"","type":"uint256","internalType":"uint256"}],"stateMutability":"view"},{"type":"function","name":"decimals","inputs":[],"outputs":[{"name":"","type":"uint8","internalType":"uint8"}],"stateMutability":"view"},{"type":"function","name":"mint","inputs":[{"name":"_to","type":"address","internalType":"address"},{"name":"_amount","type":"uint256","internalType":"uint256"}],"outputs":[],"stateMutability":"nonpayable"},{"type":"function","name":"name","inputs":[],"outputs":[{"name":"","type":"string","internalType":"string"}],"stateMutability":"view"},{"type":"function","name":"owner","inputs":[],"outputs":[{"name":"","type":"address","internalType":"address"}],"stateMutability":"view"},{"type":"function","name":"renounceOwnership","inputs":[],"outputs":[],"stateMutability":"nonpayable"},{"type":"function","name":"symbol","inputs":[],"outputs":[{"name":"","type":"string","internalType":"string"}],"stateMutability":"view"},{"type":"function","name":"totalSupply","inputs":[],"outputs":[{"name":"","type":"uint256","internalType":"uint256"}],"stateMutability":"view"},{"type":"function","name":"transfer","inputs":[{"name":"to","type":"address","internalType":"address"},{"name":"value","type":"uint256","internalType":"uint256"}],"outputs":[{"name":"","type":"bool","internalType":"bool"}],"stateMutability":"nonpayable"},{"type":"function","name":"transferFrom","inputs":[{"name":"from","type":"address","internalType":"address"},{"name":"to","type":"address","internalType":"address"},{"name":"value","type":"uint256","internalType":"uint256"}],"outputs":[{"name":"","type":"bool","internalType":"bool"}],"stateMutability":"nonpayable"},{"type":"function","name":"transferOwnership","inputs":[{"name":"newOwner","type":"address","internalType":"address"}],"outputs":[],"stateMutability":"nonpayable"},{"type":"event","name":"Approval","inputs":[{"name":"owner","type":"address","indexed":true,"internalType":"address"},{"name":"spender","type":"address","indexed":true,"internalType":"address"},{"name":"value","type":"uint256","indexed":false,"internalType":"uint256"}],"anonymous":false},{"type":"event","name":"OwnershipTransferred","inputs":[{"name":"previousOwner","type":"address","indexed":true,"internalType":"address"},{"name":"newOwner","type":"address","indexed":true,"internalType":"address"}],"anonymous":false},{"type":"event","name":"Transfer","inputs":[{"name":"from","type":"address","indexed":true,"internalType":"address"},{"name":"to","type":"address","indexed":true,"internalType":"address"},{"name":"value","type":"uint256","indexed":false,"internalType":"uint256"}],"anonymous":false},{"type":"error","name":"ERC20ExceededCap","inputs":[{"name":"increasedSupply","type":"uint256","internalType":"uint256"},{"name":"cap","type":"uint256","internalType":"uint256"}]},{"type":"error","name":"ERC20InsufficientAllowance","inputs":[{"name":"spender","type":"address","internalType":"address"},{"name":"allowance","type":"uint256","internalType":"uint256"},{"name":"needed","type":"uint256","internalType":"uint256"}]},{"type":"error","name":"ERC20InsufficientBalance","inputs":[{"name":"sender","type":"address","internalType":"address"},{"name":"balance","type":"uint256","internalType":"uint256"},{"name":"needed","type":"uint256","internalType":"uint256"}]},{"type":"error","name":"ERC20InvalidApprover","inputs":[{"name":"approver","type":"address","internalType":"address"}]},{"type":"error","name":"ERC20InvalidCap","inputs":[{"name":"cap","type":"uint256","internalType":"uint256"}]},{"type":"error","name":"ERC20InvalidReceiver","inputs":[{"name":"receiver","type":"address","internalType":"address"}]},{"type":"error","name":"ERC20InvalidSender","inputs":[{"name":"sender","type":"address","internalType":"address"}]},{"type":"error","name":"ERC20InvalidSpender","inputs":[{"name":"spender","type":"address","internalType":"address"}]},{"type":"error","name":"OwnableInvalidOwner","inputs":[{"name":"owner","type":"address","internalType":"address"}]},{"type":"error","name":"OwnableUnauthorizedAccount","inputs":[{"name":"account","type":"address","internalType":"address"}]}],"bytecode":{"object":"0x60a060405234801562000010575f80fd5b5060405162000e7538038062000e7583398101604081905262000033916200034a565b806b033b2e3c9fd0803ce80000006040518060400160405280601081526020016f159a5c9d1d585b08141c9bdd1bd8dbdb60821b815250604051806040016040528060078152602001661592549515505360ca1b81525081600390816200009b91906200041c565b506004620000aa82826200041c565b505050805f03620000d55760405163392e1e2760e01b81525f60048201526024015b60405180910390fd5b6080526001600160a01b0381166200010357604051631e4fbdf760e01b81525f6004820152602401620000cc565b6200010e8162000123565b506200011b338362000174565b50506200050e565b600580546001600160a01b038381166001600160a01b0319831681179093556040519116919082907f8be0079c531659141344cd1fd0a4f28419497f9722a3daafe3b4186f6b6457e0905f90a35050565b6001600160a01b0382166200019f5760405163ec442f0560e01b81525f6004820152602401620000cc565b620001ac5f8383620001b0565b5050565b620001bd8383836200021b565b6001600160a01b03831662000216575f620001d760805190565b90505f620001e460025490565b905081811115620002135760405163279e7e1560e21b81526004810182905260248101839052604401620000cc565b50505b505050565b6001600160a01b03831662000249578060025f8282546200023d9190620004e8565b90915550620002bb9050565b6001600160a01b0383165f90815260208190526040902054818110156200029d5760405163391434e360e21b81526001600160a01b03851660048201526024810182905260448101839052606401620000cc565b6001600160a01b0384165f9081526020819052604090209082900390555b6001600160a01b038216620002d957600280548290039055620002f7565b6001600160a01b0382165f9081526020819052604090208054820190555b816001600160a01b0316836001600160a01b03167fddf252ad1be2c89b69c2b068fc378daa952ba7f163c4a11628f55a4df523b3ef836040516200033d91815260200190565b60405180910390a3505050565b5f80604083850312156200035c575f80fd5b825160208401519092506001600160a01b03811681146200037b575f80fd5b809150509250929050565b634e487b7160e01b5f52604160045260245ffd5b600181811c90821680620003af57607f821691505b602082108103620003ce57634e487b7160e01b5f52602260045260245ffd5b50919050565b601f8211156200021657805f5260205f20601f840160051c81016020851015620003fb5750805b601f840160051c820191505b8181101562000213575f815560010162000407565b81516001600160401b0381111562000438576200043862000386565b62000450816200044984546200039a565b84620003d4565b602080601f83116001811462000486575f84156200046e5750858301515b5f19600386901b1c1916600185901b178555620004e0565b5f85815260208120601f198616915b82811015620004b65788860151825594840194600190910190840162000495565b5085821015620004d457878501515f19600388901b60f8161c191681555b505060018460011b0185555b505050505050565b808201808211156200050857634e487b7160e01b5f52601160045260245ffd5b92915050565b6080516109476200052e5f395f8181610160015261062901526109475ff3fe608060405234801561000f575f80fd5b50600436106100e5575f3560e01c806370a082311161008857806395d89b411161006357806395d89b41146101e4578063a9059cbb146101ec578063dd62ed3e146101ff578063f2fde38b14610237575f80fd5b806370a0823114610199578063715018a6146101c15780638da5cb5b146101c9575f80fd5b806323b872dd116100c357806323b872dd1461013c578063313ce5671461014f578063355274ea1461015e57806340c10f1914610184575f80fd5b806306fdde03146100e9578063095ea7b31461010757806318160ddd1461012a575b5f80fd5b6100f161024a565b6040516100fe91906107a1565b60405180910390f35b61011a610115366004610808565b6102da565b60405190151581526020016100fe565b6002545b6040519081526020016100fe565b61011a61014a366004610830565b6102f3565b604051601281526020016100fe565b7f000000000000000000000000000000000000000000000000000000000000000061012e565b610197610192366004610808565b610316565b005b61012e6101a7366004610869565b6001600160a01b03165f9081526020819052604090205490565b61019761032c565b6005546040516001600160a01b0390911681526020016100fe565b6100f161033f565b61011a6101fa366004610808565b61034e565b61012e61020d366004610889565b6001600160a01b039182165f90815260016020908152604080832093909416825291909152205490565b610197610245366004610869565b61035b565b606060038054610259906108ba565b80601f0160208091040260200160405190810160405280929190818152602001828054610285906108ba565b80156102d05780601f106102a7576101008083540402835291602001916102d0565b820191905f5260205f20905b8154815290600101906020018083116102b357829003601f168201915b5050505050905090565b5f336102e781858561039d565b60019150505b92915050565b5f336103008582856103af565b61030b85858561042a565b506001949350505050565b61031e610487565b61032882826104b4565b5050565b610334610487565b61033d5f6104e8565b565b606060048054610259906108ba565b5f336102e781858561042a565b610363610487565b6001600160a01b03811661039157604051631e4fbdf760e01b81525f60048201526024015b60405180910390fd5b61039a816104e8565b50565b6103aa8383836001610539565b505050565b6001600160a01b038381165f908152600160209081526040808320938616835292905220545f198114610424578181101561041657604051637dc7a0d960e11b81526001600160a01b03841660048201526024810182905260448101839052606401610388565b61042484848484035f610539565b50505050565b6001600160a01b03831661045357604051634b637e8f60e11b81525f6004820152602401610388565b6001600160a01b03821661047c5760405163ec442f0560e01b81525f6004820152602401610388565b6103aa83838361060b565b6005546001600160a01b0316331461033d5760405163118cdaa760e01b8152336004820152602401610388565b6001600160a01b0382166104dd5760405163ec442f0560e01b81525f6004820152602401610388565b6103285f838361060b565b600580546001600160a01b038381166001600160a01b0319831681179093556040519116919082907f8be0079c531659141344cd1fd0a4f28419497f9722a3daafe3b4186f6b6457e0905f90a35050565b6001600160a01b0384166105625760405163e602df0560e01b81525f6004820152602401610388565b6001600160a01b03831661058b57604051634a1406b160e11b81525f6004820152602401610388565b6001600160a01b038085165f908152600160209081526040808320938716835292905220829055801561042457826001600160a01b0316846001600160a01b03167f8c5be1e5ebec7d5bd14f71427d1e84f3dd0314c0f7b2291e5b200ac8c7c3b925846040516105fd91815260200190565b60405180910390a350505050565b61061683838361067b565b6001600160a01b0383166103aa576002547f000000000000000000000000000000000000000000000000000000000000000090818111156106745760405163279e7e1560e21b81526004810182905260248101839052604401610388565b5050505050565b6001600160a01b0383166106a5578060025f82825461069a91906108f2565b909155506107159050565b6001600160a01b0383165f90815260208190526040902054818110156106f75760405163391434e360e21b81526001600160a01b03851660048201526024810182905260448101839052606401610388565b6001600160a01b0384165f9081526020819052604090209082900390555b6001600160a01b0382166107315760028054829003905561074f565b6001600160a01b0382165f9081526020819052604090208054820190555b816001600160a01b0316836001600160a01b03167fddf252ad1be2c89b69c2b068fc378daa952ba7f163c4a11628f55a4df523b3ef8360405161079491815260200190565b60405180910390a3505050565b5f602080835283518060208501525f5b818110156107cd578581018301518582016040015282016107b1565b505f604082860101526040601f19601f8301168501019250505092915050565b80356001600160a01b0381168114610803575f80fd5b919050565b5f8060408385031215610819575f80fd5b610822836107ed565b946020939093013593505050565b5f805f60608486031215610842575f80fd5b61084b846107ed565b9250610859602085016107ed565b9150604084013590509250925092565b5f60208284031215610879575f80fd5b610882826107ed565b9392505050565b5f806040838503121561089a575f80fd5b6108a3836107ed565b91506108b1602084016107ed565b90509250929050565b600181811c908216806108ce57607f821691505b6020821081036108ec57634e487b7160e01b5f52602260045260245ffd5b50919050565b808201808211156102ed57634e487b7160e01b5f52601160045260245ffdfea26469706673582212206b0848ada448d529fe46a44cfda792fc7014a74179fe63902bae500972b0e4fb64736f6c63430008160033","linkReferences":{}},"methodIdentifiers":{"allowance(address,address)":"dd62ed3e","approve(address,uint256)":"095ea7b3","balanceOf(address)":"70a08231","cap()":"355274ea","decimals()":"313ce567","mint(address,uint256)":"40c10f19","name()":"06fdde03","owner()":"8da5cb5b","renounceOwnership()":"715018a6","symbol()":"95d89b41","totalSupply()":"18160ddd","transfer(address,uint256)":"a9059cbb","transferFrom(address,address,uint256)":"23b872dd","transferOwnership(address)":"f2fde38b"},"id":51}