{"abi":[{"type":"constructor","inputs":[{"name":"name_","type":"string","internalType":"string"},{"name":"symbol_","type":"string","internalType":"string"},{"name":"supply","type":"uint256","internalType":"uint256"},{"name":"_maxTx","type":"uint256","internalType":"uint256"}],"stateMutability":"nonpayable"},{"type":"function","name":"allowance","inputs":[{"name":"owner","type":"address","internalType":"address"},{"name":"spender","type":"address","internalType":"address"}],"outputs":[{"name":"","type":"uint256","internalType":"uint256"}],"stateMutability":"view"},{"type":"function","name":"approve","inputs":[{"name":"spender","type":"address","internalType":"address"},{"name":"amount","type":"uint256","internalType":"uint256"}],"outputs":[{"name":"","type":"bool","internalType":"bool"}],"stateMutability":"nonpayable"},{"type":"function","name":"balanceOf","inputs":[{"name":"account","type":"address","internalType":"address"}],"outputs":[{"name":"","type":"uint256","internalType":"uint256"}],"stateMutability":"view"},{"type":"function","name":"burnFrom","inputs":[{"name":"user","type":"address","internalType":"address"},{"name":"amount","type":"uint256","internalType":"uint256"}],"outputs":[],"stateMutability":"nonpayable"},{"type":"function","name":"decimals","inputs":[],"outputs":[{"name":"","type":"uint8","internalType":"uint8"}],"stateMutability":"pure"},{"type":"function","name":"excludeFromMaxTx","inputs":[{"name":"user","type":"address","internalType":"address"}],"outputs":[],"stateMutability":"nonpayable"},{"type":"function","name":"maxTx","inputs":[],"outputs":[{"name":"","type":"uint256","internalType":"uint256"}],"stateMutability":"view"},{"type":"function","name":"name","inputs":[],"outputs":[{"name":"","type":"string","internalType":"string"}],"stateMutability":"view"},{"type":"function","name":"owner","inputs":[],"outputs":[{"name":"","type":"address","internalType":"address"}],"stateMutability":"view"},{"type":"function","name":"renounceOwnership","inputs":[],"outputs":[],"stateMutability":"nonpayable"},{"type":"function","name":"symbol","inputs":[],"outputs":[{"name":"","type":"string","internalType":"string"}],"stateMutability":"view"},{"type":"function","name":"totalSupply","inputs":[],"outputs":[{"name":"","type":"uint256","internalType":"uint256"}],"stateMutability":"view"},{"type":"function","name":"transfer","inputs":[{"name":"recipient","type":"address","internalType":"address"},{"name":"amount","type":"uint256","internalType":"uint256"}],"outputs":[{"name":"","type":"bool","internalType":"bool"}],"stateMutability":"nonpayable"},{"type":"function","name":"transferFrom","inputs":[{"name":"sender","type":"address","internalType":"address"},{"name":"recipient","type":"address","internalType":"address"},{"name":"amount","type":"uint256","internalType":"uint256"}],"outputs":[{"name":"","type":"bool","internalType":"bool"}],"stateMutability":"nonpayable"},{"type":"function","name":"transferOwnership","inputs":[{"name":"newOwner","type":"address","internalType":"address"}],"outputs":[],"stateMutability":"nonpayable"},{"type":"function","name":"updateMaxTx","inputs":[{"name":"_maxTx","type":"uint256","internalType":"uint256"}],"outputs":[],"stateMutability":"nonpayable"},{"type":"event","name":"Approval","inputs":[{"name":"owner","type":"address","indexed":true,"internalType":"address"},{"name":"spender","type":"address","indexed":true,"internalType":"address"},{"name":"value","type":"uint256","indexed":false,"internalType":"uint256"}],"anonymous":false},{"type":"event","name":"MaxTxUpdated","inputs":[{"name":"_maxTx","type":"uint256","indexed":false,"internalType":"uint256"}],"anonymous":false},{"type":"event","name":"OwnershipTransferred","inputs":[{"name":"previousOwner","type":"address","indexed":true,"internalType":"address"},{"name":"newOwner","type":"address","indexed":true,"internalType":"address"}],"anonymous":false},{"type":"event","name":"Transfer","inputs":[{"name":"from","type":"address","indexed":true,"internalType":"address"},{"name":"to","type":"address","indexed":true,"internalType":"address"},{"name":"value","type":"uint256","indexed":false,"internalType":"uint256"}],"anonymous":false},{"type":"error","name":"OwnableInvalidOwner","inputs":[{"name":"owner","type":"address","internalType":"address"}]},{"type":"error","name":"OwnableUnauthorizedAccount","inputs":[{"name":"account","type":"address","internalType":"address"}]}],"bytecode":{"object":"0x604060808152346200043a5762000ffa803803806200001e816200043e565b9283398101906080818303126200043a5780516001600160401b0391908281116200043a57836200005191830162000464565b9060209384820151908482116200043a576200006f91830162000464565b60608683015192015193331562000423575f8054336001600160a01b0319821681178355916001600160a01b03909116907f8be0079c531659141344cd1fd0a4f28419497f9722a3daafe3b4186f6b6457e09080a38351918183116200033e57600254926001958685811c9516801562000418575b898610146200031f578190601f95868111620003c4575b5089908683116001146200035e575f9262000352575b50505f19600383901b1c191690861b176002555b80519182116200033e576003928354918683811c9316801562000333575b898410146200031f578282859411620002ca575b508891831160011462000267575f926200025b575b50505f1982841b1c191690841b1790555b670de0b6b3a7640000908181029181830414901517156200024757808255335f5260068452845f205560088352835f2060ff19908282825416179055305f5281855f20918254161790558160045554918282029082820484148315171562000247577fff3dd5e80294197918c284bbfc3dadd97d0b40ce92106110946329088f80068a815f9460647fddf252ad1be2c89b69c2b068fc378daa952ba7f163c4a11628f55a4df523b3ef95046005558751908152a184519384523393a351610b259081620004d58239f35b634e487b7160e01b5f52601160045260245ffd5b015190505f806200016c565b90869350601f19831691855f52895f20925f5b8b828210620002b357505084116200029b575b505050811b0190556200017d565b01515f1983861b60f8161c191690555f80806200028d565b8385015186558a979095019493840193016200027a565b90919250845f52885f208380860160051c8201928b871062000315575b9186958a929594930160051c01915b8281106200030657505062000157565b5f8155869550899101620002f6565b92508192620002e7565b634e487b7160e01b5f52602260045260245ffd5b92607f169262000143565b634e487b7160e01b5f52604160045260245ffd5b015190505f8062000111565b90889350601f1983169160025f528b5f20925f5b8d828210620003ad575050841162000394575b505050811b0160025562000125565b01515f1960f88460031b161c191690555f808062000385565b8385015186558c9790950194938401930162000372565b90915060025f52895f208680850160051c8201928c86106200040e575b918a91869594930160051c01915b828110620003ff575050620000fb565b5f81558594508a9101620003ef565b92508192620003e1565b94607f1694620000e4565b8651631e4fbdf760e01b81525f6004820152602490fd5b5f80fd5b6040519190601f01601f191682016001600160401b038111838210176200033e57604052565b919080601f840112156200043a5782516001600160401b0381116200033e576020906200049a601f8201601f191683016200043e565b928184528282870101116200043a575f5b818110620004c05750825f9394955001015290565b8581018301518482018401528201620004ab56fe608060409080825260049081361015610016575f80fd5b5f3560e01c90816306fdde031461066657508063095ea7b31461063d57806318160ddd1461061f57806323b872dd146105bb578063313ce567146105a057806370a0823114610569578063715018a6146105125780637437681e146104f557806379cc67901461043e5780638da5cb5b1461041757806395d89b41146102f4578063a9059cbb146102c4578063c2d0ffca14610249578063db4cf1e0146101a8578063dd62ed3e1461015f5763f2fde38b146100d0575f80fd5b3461015b57602036600319011261015b576100e96107a3565b906100f2610ac4565b6001600160a01b039182169283156101455750505f54826bffffffffffffffffffffffff60a01b8216175f55167f8be0079c531659141344cd1fd0a4f28419497f9722a3daafe3b4186f6b6457e05f80a3005b905f6024925191631e4fbdf760e01b8352820152fd5b5f80fd5b823461015b578060031936011261015b5760209061017b6107a3565b6101836107b9565b9060018060a01b038091165f5260078452825f2091165f528252805f20549051908152f35b503461015b57602036600319011261015b576101c26107a3565b6101ca610ac4565b6001600160a01b03169081156101f257505f908152600860205220805460ff19166001179055005b608490602084519162461bcd60e51b8352820152602b60248201527f45524332303a204578636c756465204d61782054782066726f6d20746865207a60448201526a65726f206164647265737360a81b6064820152fd5b50903461015b57602036600319011261015b57813591610267610ac4565b828155600154908184029184830414841517156102b1577fff3dd5e80294197918c284bbfc3dadd97d0b40ce92106110946329088f80068a602085856064860460055551908152a1005b601190634e487b7160e01b5f525260245ffd5b823461015b578060031936011261015b576020906102ed6102e36107a3565b60243590336108ee565b5160018152f35b50903461015b575f36600319011261015b578051905f60035460018160011c906001831692831561040d575b60209384841081146103fa578388529081156103de5750600114610388575b505050829003601f01601f191682019267ffffffffffffffff841183851017610375575082918261037192528261075c565b0390f35b604190634e487b7160e01b5f525260245ffd5b60035f908152929350837fc2575a0e9e593c00f959f8c92f12db2869c3395a3b0502d05e2516446f71f85b5b8385106103ca57505050508301015f808061033f565b8054888601830152930192849082016103b4565b60ff1916878501525050151560051b84010190505f808061033f565b602289634e487b7160e01b5f525260245ffd5b91607f1691610320565b823461015b575f36600319011261015b575f5490516001600160a01b039091168152602090f35b503461015b578160031936011261015b576104576107a3565b60243590610463610ac4565b6001600160a01b03169182156104c0575060207fddf252ad1be2c89b69c2b068fc378daa952ba7f163c4a11628f55a4df523b3ef915f94848652600683526104ae82828820546107cf565b858752600684528187205551908152a3005b606490602085519162461bcd60e51b8352820152600f60248201526e496e76616c6964206164647265737360881b6044820152fd5b50903461015b575f36600319011261015b57602091549051908152f35b3461015b575f36600319011261015b5761052a610ac4565b5f80546001600160a01b0319811682556001600160a01b03167f8be0079c531659141344cd1fd0a4f28419497f9722a3daafe3b4186f6b6457e08280a3005b823461015b57602036600319011261015b576020906001600160a01b0361058e6107a3565b165f5260068252805f20549051908152f35b823461015b575f36600319011261015b576020905160128152f35b823461015b57606036600319011261015b576020906102ed6105db6107a3565b6106176105e66107b9565b6105f46044358092856108ee565b6001600160a01b0383165f908152600787528581203382528752859020546107cf565b9033906107f0565b823461015b575f36600319011261015b576020906001549051908152f35b823461015b578060031936011261015b576020906102ed61065c6107a3565b60243590336107f0565b9050823461015b575f36600319011261015b575f60025460018160011c9060018316928315610752575b60209384841081146103fa5783885290811561073657506001146106e057505050829003601f01601f191682019267ffffffffffffffff841183851017610375575082918261037192528261075c565b60025f908152929350837f405787fa12a823e0f2b7631cc41b3ba8828b3321ca811111fa75cd3aa3bb5ace5b838510610722575050505083010184808061033f565b80548886018301529301928490820161070c565b60ff1916878501525050151560051b840101905084808061033f565b91607f1691610690565b602080825282518183018190529093925f5b82811061078f57505060409293505f838284010152601f8019910116010190565b81810186015184820160400152850161076e565b600435906001600160a01b038216820361015b57565b602435906001600160a01b038216820361015b57565b919082039182116107dc57565b634e487b7160e01b5f52601160045260245ffd5b6001600160a01b0390811691821561089d571691821561084d5760207f8c5be1e5ebec7d5bd14f71427d1e84f3dd0314c0f7b2291e5b200ac8c7c3b92591835f526007825260405f20855f5282528060405f2055604051908152a3565b60405162461bcd60e51b815260206004820152602260248201527f45524332303a20617070726f766520746f20746865207a65726f206164647265604482015261737360f01b6064820152608490fd5b60405162461bcd60e51b8152602060048201526024808201527f45524332303a20617070726f76652066726f6d20746865207a65726f206164646044820152637265737360e01b6064820152608490fd5b6001600160a01b03908116918215610a715716918215610a205780156109c957815f5260206008815260409160ff835f2054161561098c575b835f526006825261093b81845f20546107cf565b845f5260068352835f2055845f52825f2054928184018094116107dc577fddf252ad1be2c89b69c2b068fc378daa952ba7f163c4a11628f55a4df523b3ef93865f5260068452815f205551908152a3565b6005548111156109275750606491519062461bcd60e51b82526004820152600d60248201526c08af0c6cacac8e6409ac2f0a8f609b1b6044820152fd5b60405162461bcd60e51b815260206004820152602960248201527f5472616e7366657220616d6f756e74206d7573742062652067726561746572206044820152687468616e207a65726f60b81b6064820152608490fd5b60405162461bcd60e51b815260206004820152602360248201527f45524332303a207472616e7366657220746f20746865207a65726f206164647260448201526265737360e81b6064820152608490fd5b60405162461bcd60e51b815260206004820152602560248201527f45524332303a207472616e736665722066726f6d20746865207a65726f206164604482015264647265737360d81b6064820152608490fd5b5f546001600160a01b03163303610ad757565b60405163118cdaa760e01b8152336004820152602490fdfea2646970667358221220c9bf215d897f3ac38e7d7b4c93fdee0c3e2d57d7ad6ffb9be98e5ef76a55462564736f6c63430008160033","linkReferences":{}},"methodIdentifiers":{"allowance(address,address)":"dd62ed3e","approve(address,uint256)":"095ea7b3","balanceOf(address)":"70a08231","burnFrom(address,uint256)":"79cc6790","decimals()":"313ce567","excludeFromMaxTx(address)":"db4cf1e0","maxTx()":"7437681e","name()":"06fdde03","owner()":"8da5cb5b","renounceOwnership()":"715018a6","symbol()":"95d89b41","totalSupply()":"18160ddd","transfer(address,uint256)":"a9059cbb","transferFrom(address,address,uint256)":"23b872dd","transferOwnership(address)":"f2fde38b","updateMaxTx(uint256)":"c2d0ffca"},"id":18}