{"abi":[{"type":"constructor","inputs":[{"name":"name_","type":"string","internalType":"string"},{"name":"symbol_","type":"string","internalType":"string"},{"name":"supply","type":"uint256","internalType":"uint256"},{"name":"_maxTx","type":"uint256","internalType":"uint256"}],"stateMutability":"nonpayable"},{"type":"function","name":"allowance","inputs":[{"name":"owner","type":"address","internalType":"address"},{"name":"spender","type":"address","internalType":"address"}],"outputs":[{"name":"","type":"uint256","internalType":"uint256"}],"stateMutability":"view"},{"type":"function","name":"approve","inputs":[{"name":"spender","type":"address","internalType":"address"},{"name":"amount","type":"uint256","internalType":"uint256"}],"outputs":[{"name":"","type":"bool","internalType":"bool"}],"stateMutability":"nonpayable"},{"type":"function","name":"balanceOf","inputs":[{"name":"account","type":"address","internalType":"address"}],"outputs":[{"name":"","type":"uint256","internalType":"uint256"}],"stateMutability":"view"},{"type":"function","name":"burnFrom","inputs":[{"name":"user","type":"address","internalType":"address"},{"name":"amount","type":"uint256","internalType":"uint256"}],"outputs":[],"stateMutability":"nonpayable"},{"type":"function","name":"decimals","inputs":[],"outputs":[{"name":"","type":"uint8","internalType":"uint8"}],"stateMutability":"pure"},{"type":"function","name":"excludeFromMaxTx","inputs":[{"name":"user","type":"address","internalType":"address"}],"outputs":[],"stateMutability":"nonpayable"},{"type":"function","name":"maxTx","inputs":[],"outputs":[{"name":"","type":"uint256","internalType":"uint256"}],"stateMutability":"view"},{"type":"function","name":"name","inputs":[],"outputs":[{"name":"","type":"string","internalType":"string"}],"stateMutability":"view"},{"type":"function","name":"owner","inputs":[],"outputs":[{"name":"","type":"address","internalType":"address"}],"stateMutability":"view"},{"type":"function","name":"renounceOwnership","inputs":[],"outputs":[],"stateMutability":"nonpayable"},{"type":"function","name":"symbol","inputs":[],"outputs":[{"name":"","type":"string","internalType":"string"}],"stateMutability":"view"},{"type":"function","name":"totalSupply","inputs":[],"outputs":[{"name":"","type":"uint256","internalType":"uint256"}],"stateMutability":"view"},{"type":"function","name":"transfer","inputs":[{"name":"recipient","type":"address","internalType":"address"},{"name":"amount","type":"uint256","internalType":"uint256"}],"outputs":[{"name":"","type":"bool","internalType":"bool"}],"stateMutability":"nonpayable"},{"type":"function","name":"transferFrom","inputs":[{"name":"sender","type":"address","internalType":"address"},{"name":"recipient","type":"address","internalType":"address"},{"name":"amount","type":"uint256","internalType":"uint256"}],"outputs":[{"name":"","type":"bool","internalType":"bool"}],"stateMutability":"nonpayable"},{"type":"function","name":"transferOwnership","inputs":[{"name":"newOwner","type":"address","internalType":"address"}],"outputs":[],"stateMutability":"nonpayable"},{"type":"function","name":"updateMaxTx","inputs":[{"name":"_maxTx","type":"uint256","internalType":"uint256"}],"outputs":[],"stateMutability":"nonpayable"},{"type":"event","name":"Approval","inputs":[{"name":"owner","type":"address","indexed":true,"internalType":"address"},{"name":"spender","type":"address","indexed":true,"internalType":"address"},{"name":"value","type":"uint256","indexed":false,"internalType":"uint256"}],"anonymous":false},{"type":"event","name":"MaxTxUpdated","inputs":[{"name":"_maxTx","type":"uint256","indexed":false,"internalType":"uint256"}],"anonymous":false},{"type":"event","name":"OwnershipTransferred","inputs":[{"name":"previousOwner","type":"address","indexed":true,"internalType":"address"},{"name":"newOwner","type":"address","indexed":true,"internalType":"address"}],"anonymous":false},{"type":"event","name":"Transfer","inputs":[{"name":"from","type":"address","indexed":true,"internalType":"address"},{"name":"to","type":"address","indexed":true,"internalType":"address"},{"name":"value","type":"uint256","indexed":false,"internalType":"uint256"}],"anonymous":false},{"type":"error","name":"OwnableInvalidOwner","inputs":[{"name":"owner","type":"address","internalType":"address"}]},{"type":"error","name":"OwnableUnauthorizedAccount","inputs":[{"name":"account","type":"address","internalType":"address"}]}],"bytecode":{"object":"0x608060405234801562000010575f80fd5b506040516200113f3803806200113f833981016040819052620000339162000294565b33806200005957604051631e4fbdf760e01b81525f600482015260240160405180910390fd5b620000648162000128565b50600262000073858262000393565b50600362000082848262000393565b50620000916012600a6200056e565b6200009d908362000585565b6001818155335f9081526006602090815260408083209490945560089052828120805460ff1990811684179091553082529290208054909216179055620000e48162000177565b60015460405190815233905f907fddf252ad1be2c89b69c2b068fc378daa952ba7f163c4a11628f55a4df523b3ef9060200160405180910390a350505050620005bf565b5f80546001600160a01b038381166001600160a01b0319831681178455604051919092169283917f8be0079c531659141344cd1fd0a4f28419497f9722a3daafe3b4186f6b6457e09190a35050565b60048190556001546064906200018e908362000585565b6200019a91906200059f565b6005556040518181527fff3dd5e80294197918c284bbfc3dadd97d0b40ce92106110946329088f80068a9060200160405180910390a150565b634e487b7160e01b5f52604160045260245ffd5b5f82601f830112620001f7575f80fd5b81516001600160401b0380821115620002145762000214620001d3565b604051601f8301601f19908116603f011681019082821181831017156200023f576200023f620001d3565b81604052838152602092508660208588010111156200025c575f80fd5b5f91505b838210156200027f578582018301518183018401529082019062000260565b5f602085830101528094505050505092915050565b5f805f8060808587031215620002a8575f80fd5b84516001600160401b0380821115620002bf575f80fd5b620002cd88838901620001e7565b95506020870151915080821115620002e3575f80fd5b50620002f287828801620001e7565b604087015160609097015195989097509350505050565b600181811c908216806200031e57607f821691505b6020821081036200033d57634e487b7160e01b5f52602260045260245ffd5b50919050565b601f8211156200038e57805f5260205f20601f840160051c810160208510156200036a5750805b601f840160051c820191505b818110156200038b575f815560010162000376565b50505b505050565b81516001600160401b03811115620003af57620003af620001d3565b620003c781620003c0845462000309565b8462000343565b602080601f831160018114620003fd575f8415620003e55750858301515b5f19600386901b1c1916600185901b17855562000457565b5f85815260208120601f198616915b828110156200042d578886015182559484019460019091019084016200040c565b50858210156200044b57878501515f19600388901b60f8161c191681555b505060018460011b0185555b505050505050565b634e487b7160e01b5f52601160045260245ffd5b600181815b80851115620004b357815f19048211156200049757620004976200045f565b80851615620004a557918102915b93841c939080029062000478565b509250929050565b5f82620004cb5750600162000568565b81620004d957505f62000568565b8160018114620004f25760028114620004fd576200051d565b600191505062000568565b60ff8411156200051157620005116200045f565b50506001821b62000568565b5060208310610133831016604e8410600b841016171562000542575081810a62000568565b6200054e838362000473565b805f19048211156200056457620005646200045f565b0290505b92915050565b5f6200057e60ff841683620004bb565b9392505050565b80820281158282048414176200056857620005686200045f565b5f82620005ba57634e487b7160e01b5f52601260045260245ffd5b500490565b610b7280620005cd5f395ff3fe608060405234801561000f575f80fd5b50600436106100fb575f3560e01c806379cc679011610093578063c2d0ffca11610063578063c2d0ffca146101f7578063db4cf1e01461020a578063dd62ed3e1461021d578063f2fde38b14610255575f80fd5b806379cc6790146101af5780638da5cb5b146101c257806395d89b41146101dc578063a9059cbb146101e4575f80fd5b8063313ce567116100ce578063313ce5671461016557806370a0823114610174578063715018a61461019c5780637437681e146101a6575f80fd5b806306fdde03146100ff578063095ea7b31461011d57806318160ddd1461014057806323b872dd14610152575b5f80fd5b610107610268565b6040516101149190610964565b60405180910390f35b61013061012b3660046109cb565b6102f8565b6040519015158152602001610114565b6001545b604051908152602001610114565b6101306101603660046109f3565b61030e565b60405160128152602001610114565b610144610182366004610a2c565b6001600160a01b03165f9081526006602052604090205490565b6101a461035e565b005b61014460045481565b6101a46101bd3660046109cb565b610371565b5f546040516001600160a01b039091168152602001610114565b610107610442565b6101306101f23660046109cb565b610451565b6101a4610205366004610a4c565b61045d565b6101a4610218366004610a2c565b610471565b61014461022b366004610a63565b6001600160a01b039182165f90815260076020908152604080832093909416825291909152205490565b6101a4610263366004610a2c565b610506565b60606002805461027790610a94565b80601f01602080910402602001604051908101604052809291908181526020018280546102a390610a94565b80156102ee5780601f106102c5576101008083540402835291602001916102ee565b820191905f5260205f20905b8154815290600101906020018083116102d157829003601f168201915b5050505050905090565b5f610304338484610540565b5060015b92915050565b5f61031a848484610664565b6001600160a01b0384165f9081526007602090815260408083203380855292529091205461035491869161034f908690610ae0565b610540565b5060019392505050565b610366610891565b61036f5f6108bd565b565b610379610891565b6001600160a01b0382166103c65760405162461bcd60e51b815260206004820152600f60248201526e496e76616c6964206164647265737360881b60448201526064015b60405180910390fd5b6001600160a01b0382165f908152600660205260409020546103e9908290610ae0565b6001600160a01b0383165f818152600660205260408082209390935591517fddf252ad1be2c89b69c2b068fc378daa952ba7f163c4a11628f55a4df523b3ef906104369085815260200190565b60405180910390a35050565b60606003805461027790610a94565b5f610304338484610664565b610465610891565b61046e8161090c565b50565b610479610891565b6001600160a01b0381166104e35760405162461bcd60e51b815260206004820152602b60248201527f45524332303a204578636c756465204d61782054782066726f6d20746865207a60448201526a65726f206164647265737360a81b60648201526084016103bd565b6001600160a01b03165f908152600860205260409020805460ff19166001179055565b61050e610891565b6001600160a01b03811661053757604051631e4fbdf760e01b81525f60048201526024016103bd565b61046e816108bd565b6001600160a01b0383166105a25760405162461bcd60e51b8152602060048201526024808201527f45524332303a20617070726f76652066726f6d20746865207a65726f206164646044820152637265737360e01b60648201526084016103bd565b6001600160a01b0382166106035760405162461bcd60e51b815260206004820152602260248201527f45524332303a20617070726f766520746f20746865207a65726f206164647265604482015261737360f01b60648201526084016103bd565b6001600160a01b038381165f8181526007602090815260408083209487168084529482529182902085905590518481527f8c5be1e5ebec7d5bd14f71427d1e84f3dd0314c0f7b2291e5b200ac8c7c3b92591015b60405180910390a3505050565b6001600160a01b0383166106c85760405162461bcd60e51b815260206004820152602560248201527f45524332303a207472616e736665722066726f6d20746865207a65726f206164604482015264647265737360d81b60648201526084016103bd565b6001600160a01b03821661072a5760405162461bcd60e51b815260206004820152602360248201527f45524332303a207472616e7366657220746f20746865207a65726f206164647260448201526265737360e81b60648201526084016103bd565b5f811161078b5760405162461bcd60e51b815260206004820152602960248201527f5472616e7366657220616d6f756e74206d7573742062652067726561746572206044820152687468616e207a65726f60b81b60648201526084016103bd565b6001600160a01b0383165f9081526008602052604090205460ff166107ec576005548111156107ec5760405162461bcd60e51b815260206004820152600d60248201526c08af0c6cacac8e6409ac2f0a8f609b1b60448201526064016103bd565b6001600160a01b0383165f9081526006602052604090205461080f908290610ae0565b6001600160a01b038085165f90815260066020526040808220939093559084168152205461083e908290610af3565b6001600160a01b038084165f8181526006602052604090819020939093559151908516907fddf252ad1be2c89b69c2b068fc378daa952ba7f163c4a11628f55a4df523b3ef906106579085815260200190565b5f546001600160a01b0316331461036f5760405163118cdaa760e01b81523360048201526024016103bd565b5f80546001600160a01b038381166001600160a01b0319831681178455604051919092169283917f8be0079c531659141344cd1fd0a4f28419497f9722a3daafe3b4186f6b6457e09190a35050565b60048190556001546064906109219083610b06565b61092b9190610b1d565b6005556040518181527fff3dd5e80294197918c284bbfc3dadd97d0b40ce92106110946329088f80068a9060200160405180910390a150565b5f602080835283518060208501525f5b8181101561099057858101830151858201604001528201610974565b505f604082860101526040601f19601f8301168501019250505092915050565b80356001600160a01b03811681146109c6575f80fd5b919050565b5f80604083850312156109dc575f80fd5b6109e5836109b0565b946020939093013593505050565b5f805f60608486031215610a05575f80fd5b610a0e846109b0565b9250610a1c602085016109b0565b9150604084013590509250925092565b5f60208284031215610a3c575f80fd5b610a45826109b0565b9392505050565b5f60208284031215610a5c575f80fd5b5035919050565b5f8060408385031215610a74575f80fd5b610a7d836109b0565b9150610a8b602084016109b0565b90509250929050565b600181811c90821680610aa857607f821691505b602082108103610ac657634e487b7160e01b5f52602260045260245ffd5b50919050565b634e487b7160e01b5f52601160045260245ffd5b8181038181111561030857610308610acc565b8082018082111561030857610308610acc565b808202811582820484141761030857610308610acc565b5f82610b3757634e487b7160e01b5f52601260045260245ffd5b50049056fea26469706673582212205c3e1a6ab3f9bd0727a180012f7c74ee0f0583a6b62a2bb004a33344dda50ec364736f6c63430008160033","linkReferences":{}},"methodIdentifiers":{"allowance(address,address)":"dd62ed3e","approve(address,uint256)":"095ea7b3","balanceOf(address)":"70a08231","burnFrom(address,uint256)":"79cc6790","decimals()":"313ce567","excludeFromMaxTx(address)":"db4cf1e0","maxTx()":"7437681e","name()":"06fdde03","owner()":"8da5cb5b","renounceOwnership()":"715018a6","symbol()":"95d89b41","totalSupply()":"18160ddd","transfer(address,uint256)":"a9059cbb","transferFrom(address,address,uint256)":"23b872dd","transferOwnership(address)":"f2fde38b","updateMaxTx(uint256)":"c2d0ffca"},"id":18}