{"abi":[{"type":"constructor","inputs":[],"stateMutability":"nonpayable"},{"type":"function","name":"ADMIN_ROLE","inputs":[],"outputs":[{"name":"","type":"bytes32","internalType":"bytes32"}],"stateMutability":"view"},{"type":"function","name":"DEFAULT_ADMIN_ROLE","inputs":[],"outputs":[{"name":"","type":"bytes32","internalType":"bytes32"}],"stateMutability":"view"},{"type":"function","name":"MINTER_ROLE","inputs":[],"outputs":[{"name":"","type":"bytes32","internalType":"bytes32"}],"stateMutability":"view"},{"type":"function","name":"VALIDATOR_ADMIN_ROLE","inputs":[],"outputs":[{"name":"","type":"bytes32","internalType":"bytes32"}],"stateMutability":"view"},{"type":"function","name":"addCoreType","inputs":[{"name":"label","type":"string","internalType":"string"}],"outputs":[],"stateMutability":"nonpayable"},{"type":"function","name":"addValidator","inputs":[{"name":"virtualId","type":"uint256","internalType":"uint256"},{"name":"validator","type":"address","internalType":"address"}],"outputs":[],"stateMutability":"nonpayable"},{"type":"function","name":"approve","inputs":[{"name":"to","type":"address","internalType":"address"},{"name":"tokenId","type":"uint256","internalType":"uint256"}],"outputs":[],"stateMutability":"nonpayable"},{"type":"function","name":"balanceOf","inputs":[{"name":"owner","type":"address","internalType":"address"}],"outputs":[{"name":"","type":"uint256","internalType":"uint256"}],"stateMutability":"view"},{"type":"function","name":"coreTypes","inputs":[{"name":"","type":"uint8","internalType":"uint8"}],"outputs":[{"name":"","type":"string","internalType":"string"}],"stateMutability":"view"},{"type":"function","name":"getAllServices","inputs":[{"name":"virtualId","type":"uint256","internalType":"uint256"}],"outputs":[{"name":"","type":"uint256[]","internalType":"uint256[]"}],"stateMutability":"view"},{"type":"function","name":"getApproved","inputs":[{"name":"tokenId","type":"uint256","internalType":"uint256"}],"outputs":[{"name":"","type":"address","internalType":"address"}],"stateMutability":"view"},{"type":"function","name":"getContributionNft","inputs":[],"outputs":[{"name":"","type":"address","internalType":"address"}],"stateMutability":"view"},{"type":"function","name":"getEloCalculator","inputs":[],"outputs":[{"name":"","type":"address","internalType":"address"}],"stateMutability":"view"},{"type":"function","name":"getPastValidatorScore","inputs":[{"name":"virtualId","type":"uint256","internalType":"uint256"},{"name":"validator","type":"address","internalType":"address"},{"name":"timepoint","type":"uint256","internalType":"uint256"}],"outputs":[{"name":"","type":"uint256","internalType":"uint256"}],"stateMutability":"view"},{"type":"function","name":"getRoleAdmin","inputs":[{"name":"role","type":"bytes32","internalType":"bytes32"}],"outputs":[{"name":"","type":"bytes32","internalType":"bytes32"}],"stateMutability":"view"},{"type":"function","name":"getServiceNft","inputs":[],"outputs":[{"name":"","type":"address","internalType":"address"}],"stateMutability":"view"},{"type":"function","name":"getVotes","inputs":[{"name":"virtualId","type":"uint256","internalType":"uint256"},{"name":"validator","type":"address","internalType":"address"}],"outputs":[{"name":"","type":"uint256","internalType":"uint256"}],"stateMutability":"view"},{"type":"function","name":"grantRole","inputs":[{"name":"role","type":"bytes32","internalType":"bytes32"},{"name":"account","type":"address","internalType":"address"}],"outputs":[],"stateMutability":"nonpayable"},{"type":"function","name":"hasRole","inputs":[{"name":"role","type":"bytes32","internalType":"bytes32"},{"name":"account","type":"address","internalType":"address"}],"outputs":[{"name":"","type":"bool","internalType":"bool"}],"stateMutability":"view"},{"type":"function","name":"initialize","inputs":[{"name":"defaultAdmin","type":"address","internalType":"address"}],"outputs":[],"stateMutability":"nonpayable"},{"type":"function","name":"isApprovedForAll","inputs":[{"name":"owner","type":"address","internalType":"address"},{"name":"operator","type":"address","internalType":"address"}],"outputs":[{"name":"","type":"bool","internalType":"bool"}],"stateMutability":"view"},{"type":"function","name":"isBlacklisted","inputs":[{"name":"virtualId","type":"uint256","internalType":"uint256"}],"outputs":[{"name":"","type":"bool","internalType":"bool"}],"stateMutability":"view"},{"type":"function","name":"isValidator","inputs":[{"name":"virtualId","type":"uint256","internalType":"uint256"},{"name":"account","type":"address","internalType":"address"}],"outputs":[{"name":"","type":"bool","internalType":"bool"}],"stateMutability":"view"},{"type":"function","name":"migrateScoreFunctions","inputs":[],"outputs":[],"stateMutability":"nonpayable"},{"type":"function","name":"migrateVirtual","inputs":[{"name":"virtualId","type":"uint256","internalType":"uint256"},{"name":"dao","type":"address","internalType":"address"},{"name":"token","type":"address","internalType":"address"},{"name":"pool","type":"address","internalType":"address"},{"name":"veToken","type":"address","internalType":"address"}],"outputs":[],"stateMutability":"nonpayable"},{"type":"function","name":"mint","inputs":[{"name":"virtualId","type":"uint256","internalType":"uint256"},{"name":"to","type":"address","internalType":"address"},{"name":"newTokenURI","type":"string","internalType":"string"},{"name":"theDAO","type":"address","internalType":"address payable"},{"name":"founder","type":"address","internalType":"address"},{"name":"coreTypes","type":"uint8[]","internalType":"uint8[]"},{"name":"pool","type":"address","internalType":"address"},{"name":"token","type":"address","internalType":"address"}],"outputs":[{"name":"","type":"uint256","internalType":"uint256"}],"stateMutability":"nonpayable"},{"type":"function","name":"name","inputs":[],"outputs":[{"name":"","type":"string","internalType":"string"}],"stateMutability":"view"},{"type":"function","name":"nextVirtualId","inputs":[],"outputs":[{"name":"","type":"uint256","internalType":"uint256"}],"stateMutability":"view"},{"type":"function","name":"ownerOf","inputs":[{"name":"tokenId","type":"uint256","internalType":"uint256"}],"outputs":[{"name":"","type":"address","internalType":"address"}],"stateMutability":"view"},{"type":"function","name":"renounceRole","inputs":[{"name":"role","type":"bytes32","internalType":"bytes32"},{"name":"callerConfirmation","type":"address","internalType":"address"}],"outputs":[],"stateMutability":"nonpayable"},{"type":"function","name":"revokeRole","inputs":[{"name":"role","type":"bytes32","internalType":"bytes32"},{"name":"account","type":"address","internalType":"address"}],"outputs":[],"stateMutability":"nonpayable"},{"type":"function","name":"safeTransferFrom","inputs":[{"name":"from","type":"address","internalType":"address"},{"name":"to","type":"address","internalType":"address"},{"name":"tokenId","type":"uint256","internalType":"uint256"}],"outputs":[],"stateMutability":"nonpayable"},{"type":"function","name":"safeTransferFrom","inputs":[{"name":"from","type":"address","internalType":"address"},{"name":"to","type":"address","internalType":"address"},{"name":"tokenId","type":"uint256","internalType":"uint256"},{"name":"data","type":"bytes","internalType":"bytes"}],"outputs":[],"stateMutability":"nonpayable"},{"type":"function","name":"setApprovalForAll","inputs":[{"name":"operator","type":"address","internalType":"address"},{"name":"approved","type":"bool","internalType":"bool"}],"outputs":[],"stateMutability":"nonpayable"},{"type":"function","name":"setBlacklist","inputs":[{"name":"virtualId","type":"uint256","internalType":"uint256"},{"name":"value","type":"bool","internalType":"bool"}],"outputs":[],"stateMutability":"nonpayable"},{"type":"function","name":"setContributionService","inputs":[{"name":"contributionNft_","type":"address","internalType":"address"},{"name":"serviceNft_","type":"address","internalType":"address"}],"outputs":[],"stateMutability":"nonpayable"},{"type":"function","name":"setCoreTypes","inputs":[{"name":"virtualId","type":"uint256","internalType":"uint256"},{"name":"coreTypes","type":"uint8[]","internalType":"uint8[]"}],"outputs":[],"stateMutability":"nonpayable"},{"type":"function","name":"setDAO","inputs":[{"name":"virtualId","type":"uint256","internalType":"uint256"},{"name":"newDAO","type":"address","internalType":"address"}],"outputs":[],"stateMutability":"nonpayable"},{"type":"function","name":"setEloCalculator","inputs":[{"name":"eloCalculator","type":"address","internalType":"address"}],"outputs":[],"stateMutability":"nonpayable"},{"type":"function","name":"setTBA","inputs":[{"name":"virtualId","type":"uint256","internalType":"uint256"},{"name":"tba","type":"address","internalType":"address"}],"outputs":[],"stateMutability":"nonpayable"},{"type":"function","name":"setTokenURI","inputs":[{"name":"virtualId","type":"uint256","internalType":"uint256"},{"name":"newTokenURI","type":"string","internalType":"string"}],"outputs":[],"stateMutability":"nonpayable"},{"type":"function","name":"stakingTokenToVirtualId","inputs":[{"name":"stakingToken","type":"address","internalType":"address"}],"outputs":[{"name":"","type":"uint256","internalType":"uint256"}],"stateMutability":"view"},{"type":"function","name":"supportsInterface","inputs":[{"name":"interfaceId","type":"bytes4","internalType":"bytes4"}],"outputs":[{"name":"","type":"bool","internalType":"bool"}],"stateMutability":"view"},{"type":"function","name":"symbol","inputs":[],"outputs":[{"name":"","type":"string","internalType":"string"}],"stateMutability":"view"},{"type":"function","name":"tokenURI","inputs":[{"name":"tokenId","type":"uint256","internalType":"uint256"}],"outputs":[{"name":"","type":"string","internalType":"string"}],"stateMutability":"view"},{"type":"function","name":"totalProposals","inputs":[{"name":"virtualId","type":"uint256","internalType":"uint256"}],"outputs":[{"name":"","type":"uint256","internalType":"uint256"}],"stateMutability":"view"},{"type":"function","name":"totalStaked","inputs":[{"name":"virtualId","type":"uint256","internalType":"uint256"}],"outputs":[{"name":"","type":"uint256","internalType":"uint256"}],"stateMutability":"view"},{"type":"function","name":"totalSupply","inputs":[],"outputs":[{"name":"","type":"uint256","internalType":"uint256"}],"stateMutability":"view"},{"type":"function","name":"totalUptimeScore","inputs":[{"name":"virtualId","type":"uint256","internalType":"uint256"}],"outputs":[{"name":"","type":"uint256","internalType":"uint256"}],"stateMutability":"view"},{"type":"function","name":"transferFrom","inputs":[{"name":"from","type":"address","internalType":"address"},{"name":"to","type":"address","internalType":"address"},{"name":"tokenId","type":"uint256","internalType":"uint256"}],"outputs":[],"stateMutability":"nonpayable"},{"type":"function","name":"validatorAt","inputs":[{"name":"virtualId","type":"uint256","internalType":"uint256"},{"name":"index","type":"uint256","internalType":"uint256"}],"outputs":[{"name":"","type":"address","internalType":"address"}],"stateMutability":"view"},{"type":"function","name":"validatorCount","inputs":[{"name":"virtualId","type":"uint256","internalType":"uint256"}],"outputs":[{"name":"","type":"uint256","internalType":"uint256"}],"stateMutability":"view"},{"type":"function","name":"validatorScore","inputs":[{"name":"virtualId","type":"uint256","internalType":"uint256"},{"name":"validator","type":"address","internalType":"address"}],"outputs":[{"name":"","type":"uint256","internalType":"uint256"}],"stateMutability":"view"},{"type":"function","name":"virtualInfo","inputs":[{"name":"virtualId","type":"uint256","internalType":"uint256"}],"outputs":[{"name":"","type":"tuple","internalType":"struct IAgentNft.VirtualInfo","components":[{"name":"dao","type":"address","internalType":"address"},{"name":"token","type":"address","internalType":"address"},{"name":"founder","type":"address","internalType":"address"},{"name":"tba","type":"address","internalType":"address"},{"name":"coreTypes","type":"uint8[]","internalType":"uint8[]"}]}],"stateMutability":"view"},{"type":"function","name":"virtualInfos","inputs":[{"name":"","type":"uint256","internalType":"uint256"}],"outputs":[{"name":"dao","type":"address","internalType":"address"},{"name":"token","type":"address","internalType":"address"},{"name":"founder","type":"address","internalType":"address"},{"name":"tba","type":"address","internalType":"address"}],"stateMutability":"view"},{"type":"function","name":"virtualLP","inputs":[{"name":"virtualId","type":"uint256","internalType":"uint256"}],"outputs":[{"name":"","type":"tuple","internalType":"struct IAgentNft.VirtualLP","components":[{"name":"pool","type":"address","internalType":"address"},{"name":"veToken","type":"address","internalType":"address"}]}],"stateMutability":"view"},{"type":"function","name":"virtualLPs","inputs":[{"name":"","type":"uint256","internalType":"uint256"}],"outputs":[{"name":"pool","type":"address","internalType":"address"},{"name":"veToken","type":"address","internalType":"address"}],"stateMutability":"view"},{"type":"event","name":"AgentBlacklisted","inputs":[{"name":"virtualId","type":"uint256","indexed":true,"internalType":"uint256"},{"name":"value","type":"bool","indexed":false,"internalType":"bool"}],"anonymous":false},{"type":"event","name":"Approval","inputs":[{"name":"owner","type":"address","indexed":true,"internalType":"address"},{"name":"approved","type":"address","indexed":true,"internalType":"address"},{"name":"tokenId","type":"uint256","indexed":true,"internalType":"uint256"}],"anonymous":false},{"type":"event","name":"ApprovalForAll","inputs":[{"name":"owner","type":"address","indexed":true,"internalType":"address"},{"name":"operator","type":"address","indexed":true,"internalType":"address"},{"name":"approved","type":"bool","indexed":false,"internalType":"bool"}],"anonymous":false},{"type":"event","name":"BatchMetadataUpdate","inputs":[{"name":"_fromTokenId","type":"uint256","indexed":false,"internalType":"uint256"},{"name":"_toTokenId","type":"uint256","indexed":false,"internalType":"uint256"}],"anonymous":false},{"type":"event","name":"CoresUpdated","inputs":[{"name":"virtualId","type":"uint256","indexed":false,"internalType":"uint256"},{"name":"coreTypes","type":"uint8[]","indexed":false,"internalType":"uint8[]"}],"anonymous":false},{"type":"event","name":"Initialized","inputs":[{"name":"version","type":"uint64","indexed":false,"internalType":"uint64"}],"anonymous":false},{"type":"event","name":"MetadataUpdate","inputs":[{"name":"_tokenId","type":"uint256","indexed":false,"internalType":"uint256"}],"anonymous":false},{"type":"event","name":"NewCoreType","inputs":[{"name":"coreType","type":"uint8","indexed":false,"internalType":"uint8"},{"name":"label","type":"string","indexed":false,"internalType":"string"}],"anonymous":false},{"type":"event","name":"NewValidator","inputs":[{"name":"virtualId","type":"uint256","indexed":false,"internalType":"uint256"},{"name":"account","type":"address","indexed":false,"internalType":"address"}],"anonymous":false},{"type":"event","name":"RoleAdminChanged","inputs":[{"name":"role","type":"bytes32","indexed":true,"internalType":"bytes32"},{"name":"previousAdminRole","type":"bytes32","indexed":true,"internalType":"bytes32"},{"name":"newAdminRole","type":"bytes32","indexed":true,"internalType":"bytes32"}],"anonymous":false},{"type":"event","name":"RoleGranted","inputs":[{"name":"role","type":"bytes32","indexed":true,"internalType":"bytes32"},{"name":"account","type":"address","indexed":true,"internalType":"address"},{"name":"sender","type":"address","indexed":true,"internalType":"address"}],"anonymous":false},{"type":"event","name":"RoleRevoked","inputs":[{"name":"role","type":"bytes32","indexed":true,"internalType":"bytes32"},{"name":"account","type":"address","indexed":true,"internalType":"address"},{"name":"sender","type":"address","indexed":true,"internalType":"address"}],"anonymous":false},{"type":"event","name":"Transfer","inputs":[{"name":"from","type":"address","indexed":true,"internalType":"address"},{"name":"to","type":"address","indexed":true,"internalType":"address"},{"name":"tokenId","type":"uint256","indexed":true,"internalType":"uint256"}],"anonymous":false},{"type":"error","name":"AccessControlBadConfirmation","inputs":[]},{"type":"error","name":"AccessControlUnauthorizedAccount","inputs":[{"name":"account","type":"address","internalType":"address"},{"name":"neededRole","type":"bytes32","internalType":"bytes32"}]},{"type":"error","name":"ERC721IncorrectOwner","inputs":[{"name":"sender","type":"address","internalType":"address"},{"name":"tokenId","type":"uint256","internalType":"uint256"},{"name":"owner","type":"address","internalType":"address"}]},{"type":"error","name":"ERC721InsufficientApproval","inputs":[{"name":"operator","type":"address","internalType":"address"},{"name":"tokenId","type":"uint256","internalType":"uint256"}]},{"type":"error","name":"ERC721InvalidApprover","inputs":[{"name":"approver","type":"address","internalType":"address"}]},{"type":"error","name":"ERC721InvalidOperator","inputs":[{"name":"operator","type":"address","internalType":"address"}]},{"type":"error","name":"ERC721InvalidOwner","inputs":[{"name":"owner","type":"address","internalType":"address"}]},{"type":"error","name":"ERC721InvalidReceiver","inputs":[{"name":"receiver","type":"address","internalType":"address"}]},{"type":"error","name":"ERC721InvalidSender","inputs":[{"name":"sender","type":"address","internalType":"address"}]},{"type":"error","name":"ERC721NonexistentToken","inputs":[{"name":"tokenId","type":"uint256","internalType":"uint256"}]},{"type":"error","name":"InvalidInitialization","inputs":[]},{"type":"error","name":"NotInitializing","inputs":[]}],"bytecode":{"object":"0x608060405234801562000010575f80fd5b506200001b62000021565b620000d5565b7ff0c57e16840df040f15088dc2f81fe391c3923bec73e23a9662efc9c229c6a00805468010000000000000000900460ff1615620000725760405163f92ee8a960e01b815260040160405180910390fd5b80546001600160401b0390811614620000d25780546001600160401b0319166001600160401b0390811782556040519081527fc7f505b2f371ae2175ee4913f4499e1f2633a7b5936321eed1cdaeb6115181d29060200160405180910390a15b50565b61388880620000e35f395ff3fe608060405234801561000f575f80fd5b5060043610610372575f3560e01c8063691de489116101d4578063c052bfb611610109578063d547741f116100a9578063f0c21c4611610079578063f0c21c46146108a3578063f9661085146108b6578063fcf9e6db146108c9578063fdf864f114610948575f80fd5b8063d547741f1461084a578063d809a06f1461085d578063e3a9769c14610870578063e985e9c514610890575f80fd5b8063c859b998116100e4578063c859b998146107f5578063c87b56dd14610808578063cc35cc411461081b578063d539139314610823575f80fd5b8063c052bfb6146107be578063c12032d3146107cf578063c4d66de8146107e2575f80fd5b80639a7e8c8e11610174578063a22cb4651161014f578063a22cb46514610767578063aca470ce1461077a578063b88d4fde1461079a578063b9f7fe53146107ad575f80fd5b80639a7e8c8e1461073c578063a0ed2a5d1461074d578063a217fddf14610760575f80fd5b806374aa04c5116101af57806374aa04c5146106fa57806375b238fc1461070d57806391d148541461072157806395d89b4114610734575f80fd5b8063691de4891461065c5780636d6464b4146106d457806370a08231146106e7575f80fd5b806336568abe116102aa5780634752f9ef1161024a5780635faef81a116102255780635faef81a1461061b5780636352211e146106235780636472c79f146106365780636819736014610649575f80fd5b80634752f9ef146105d35780634b561753146105f55780634f1b9fac14610608575f80fd5b806341cb8c201161028557806341cb8c201461057257806342842e0e14610585578063434964471461059857806344ae85ea146105ab575f80fd5b806336568abe14610525578063386924de146105385780633f11354a1461055f575f80fd5b80631b534f041161031557806323f2a73f116102f057806323f2a73f14610474578063248a9ca3146104ac5780632f2ff15d146104bf578063336e3997146104d2575f80fd5b80631b534f041461042f5780631ca95e131461044e57806323b872dd14610461575f80fd5b8063095ea7b311610350578063095ea7b3146103de57806309c88b3a146103f3578063162094c41461040657806318160ddd14610419575f80fd5b806301ffc9a71461037657806306fdde031461039e578063081812fc146103b3575b5f80fd5b610389610384366004612e56565b61095b565b60405190151581526020015b60405180910390f35b6103a661096b565b6040516103959190612ebe565b6103c66103c1366004612ed0565b610a0c565b6040516001600160a01b039091168152602001610395565b6103f16103ec366004612efb565b610a20565b005b6103f1610401366004612f25565b610a2f565b6103f1610414366004613012565b610a68565b610421610ac0565b604051908152602001610395565b61042161043d366004612ed0565b5f9081526004602052604090205490565b6103f161045c366004613055565b610ad5565b6103f161046f366004613070565b610b0f565b6103896104823660046130ae565b5f9182526002602090815260408084206001600160a01b0393909316845291905290205460ff1690565b6104216104ba366004612ed0565b610b98565b6103f16104cd3660046130ae565b610bb8565b6105056104e0366004612ed0565b600c6020525f9081526040902080546001909101546001600160a01b03918216911682565b604080516001600160a01b03938416815292909116602083015201610395565b6103f16105333660046130ae565b610bd4565b6104217ffa3e63d5771fd4999b619dee634be9dbb03c309738cc2adaadd49c4f5595adb081565b61042161056d366004613169565b610c07565b610421610580366004612ed0565b610e41565b6103f1610593366004613070565b610eb7565b6103f16105a6366004613232565b610ed1565b6104216105b9366004613055565b6001600160a01b03165f9081526007602052604090205490565b6103896105e1366004612ed0565b5f908152600b602052604090205460ff1690565b6103f16106033660046130ae565b610ee4565b6103a6610616366004613263565b610f26565b600654610421565b6103c6610631366004612ed0565b610fbd565b61042161064436600461327c565b610fc7565b6104216106573660046130ae565b611028565b6106a161066a366004612ed0565b60086020525f908152604090208054600182015460028301546003909301546001600160a01b039283169391831692918216911684565b604080516001600160a01b0395861681529385166020850152918416918301919091529091166060820152608001610395565b6104216106e2366004612ed0565b6110a9565b6104216106f5366004613055565b6111cf565b6103f16107083660046132a0565b611227565b6104215f8051602061383383398151915281565b61038961072f3660046130ae565b6112b0565b6103a66112e6565b6009546001600160a01b03166103c6565b61042161075b366004612ed0565b611324565b6104215f81565b6103f1610775366004613313565b611366565b61078d610788366004612ed0565b611371565b6040516103959190613383565b6103f16107a83660046133d5565b611460565b600a546001600160a01b03166103c6565b600d546001600160a01b03166103c6565b6104216107dd3660046130ae565b611477565b6103f16107f0366004613055565b6114c0565b6103f16108033660046130ae565b611683565b6103a6610816366004612ed0565b61172d565b6103f1611738565b6104217f9f2df0fed2c77648de5860a4cc508cd0818c85b8b8a1ab4ceeef8d981c8956a681565b6103f16108583660046130ae565b611763565b6103c661086b36600461344f565b61177f565b61088361087e366004612ed0565b6117b9565b604051610395919061346f565b61038961089e366004612f25565b6119e6565b6103f16108b13660046130ae565b611a32565b6103f16108c43660046134b2565b611a9d565b6109216108d7366004612ed0565b604080518082019091525f8082526020820152505f908152600c6020908152604091829020825180840190935280546001600160a01b039081168452600190910154169082015290565b6040805182516001600160a01b039081168252602093840151169281019290925201610395565b6103f16109563660046134eb565b611b42565b5f61096582611bb0565b92915050565b5f805160206137f3833981519152805460609190819061098a9061350c565b80601f01602080910402602001604051908101604052809291908181526020018280546109b69061350c565b8015610a015780601f106109d857610100808354040283529160200191610a01565b820191905f5260205f20905b8154815290600101906020018083116109e457829003601f168201915b505050505091505090565b5f610a1682611bd4565b5061096582611c0b565b610a2b828233611c44565b5050565b5f610a3981611c51565b50600980546001600160a01b039384166001600160a01b031991821617909155600a8054929093169116179055565b5f8281526008602052604090205482906001600160a01b0316336001600160a01b031614610ab15760405162461bcd60e51b8152600401610aa890613544565b60405180910390fd5b610abb8383611c5b565b505050565b5f6001600654610ad0919061358f565b905090565b5f80516020613833833981519152610aec81611c51565b50600d80546001600160a01b0319166001600160a01b0392909216919091179055565b6001600160a01b038216610b3857604051633250574960e11b81525f6004820152602401610aa8565b5f610b44838333611ccd565b9050836001600160a01b0316816001600160a01b031614610b92576040516364283d7b60e01b81526001600160a01b0380861660048301526024820184905282166044820152606401610aa8565b50505050565b5f9081525f80516020613813833981519152602052604090206001015490565b610bc182610b98565b610bca81611c51565b610b928383611dcf565b6001600160a01b0381163314610bfd5760405163334bd91960e11b815260040160405180910390fd5b610abb8282611e70565b5f7f9f2df0fed2c77648de5860a4cc508cd0818c85b8b8a1ab4ceeef8d981c8956a6610c3281611c51565b6006548a14610c775760405162461bcd60e51b8152602060048201526011602482015270125b9d985b1a59081d9a5c9d1d585b1259607a1b6044820152606401610aa8565b60068054905f610c86836135a2565b9190505550610c95898b611ee9565b610c9f8a89611c5b565b5f8a815260086020908152604090912080546001600160a01b0319166001600160a01b038a1617815586519091610cdd916004840191890190612d84565b5086816002015f6101000a8154816001600160a01b0302191690836001600160a01b031602179055505f886001600160a01b031663fc0c546a6040518163ffffffff1660e01b8152600401602060405180830381865afa158015610d43573d5f803e3d5ffd5b505050506040513d601f19601f82011682018060405250810190610d6791906135ba565b905084826001015f6101000a8154816001600160a01b0302191690836001600160a01b031602179055505f600c5f8e81526020019081526020015f20905086815f015f6101000a8154816001600160a01b0302191690836001600160a01b0316021790555081816001015f6101000a8154816001600160a01b0302191690836001600160a01b031602179055508c60075f846001600160a01b03166001600160a01b031681526020019081526020015f2081905550610e268d8a611f4a565b610e308d8a611fe1565b509a9b9a5050505050505050505050565b5f818152600c602090815260408083206001015481516318160ddd60e01b815291516001600160a01b03909116926318160ddd92600480820193918290030181865afa158015610e93573d5f803e3d5ffd5b505050506040513d601f19601f8201168201806040525081019061096591906135d5565b610abb83838360405180602001604052805f815250611460565b5f610edb81611c51565b610a2b82612032565b5f8281526002602090815260408083206001600160a01b038516845290915290205460ff1615610f12575050565b610f1c8282611f4a565b610a2b8282611fe1565b5f6020819052908152604090208054610f3e9061350c565b80601f0160208091040260200160405190810160405280929190818152602001828054610f6a9061350c565b8015610fb55780601f10610f8c57610100808354040283529160200191610fb5565b820191905f5260205f20905b815481529060010190602001808311610f9857829003601f168201915b505050505081565b5f61096582611bd4565b5f610ff3848484600560109054906101000a90048015612e2502176001600160401b031663ffffffff16565b6001600160a01b0384165f90815260036020908152604080832088845290915290205461102091906135ec565b949350505050565b5f828152600c60205260408082206001015490516309ab24eb60e41b81526001600160a01b03848116600483015290911690639ab24eb090602401602060405180830381865afa15801561107e573d5f803e3d5ffd5b505050506040513d601f19601f820116820180604052508101906110a291906135d5565b9392505050565b5f818152600860209081526040808320815160a08101835281546001600160a01b0390811682526001830154811682860152600283015481168285015260038301541660608201526004820180548451818702810187019095528085528695929460808601939092919083018282801561115d57602002820191905f5260205f20905f905b825461010083900a900460ff1681526020600192830181810494850194909303909202910180841161112e5790505b50505050508152505090505f815f01519050806001600160a01b031663da35c6646040518163ffffffff1660e01b8152600401602060405180830381865afa1580156111ab573d5f803e3d5ffd5b505050506040513d601f19601f8201168201806040525081019061102091906135d5565b5f5f805160206137f38339815191526001600160a01b038316611207576040516322718ad960e21b81525f6004820152602401610aa8565b6001600160a01b039092165f908152600390920160205250604090205490565b5f8051602061383383398151915261123e81611c51565b505f85815260086020908152604080832080546001600160a01b03199081166001600160a01b03998a16178255600191820180548216988a1698909817909755600c83528184208054881696891696909617865594909401805490951692909516918217909355825260079092522055565b5f9182525f80516020613813833981519152602090815260408084206001600160a01b0393909316845291905290205460ff1690565b7f80bb2b638cc20bc4d0a60d66940f3ab4a00c1d7b313497ca82fb0b4ab007930180546060915f805160206137f38339815191529161098a9061350c565b5f80805b5f8481526004602052604090205481101561135f5761134b846107dd868461177f565b61135590836135ec565b9150600101611328565b5092915050565b610a2b3383836120b0565b6040805160a0810182525f8082526020820181905291810182905260608082019290925260808101919091525f82815260086020908152604091829020825160a08101845281546001600160a01b039081168252600183015481168285015260028301548116828601526003830154166060820152600482018054855181860281018601909652808652919492936080860193929083018282801561145057602002820191905f5260205f20905f905b825461010083900a900460ff168152602060019283018181049485019490930390920291018084116114215790505b5050505050815250509050919050565b61146b848484610b0f565b610b928484848461215f565b6005545f9061149390849084908015612e25021763ffffffff16565b6001600160a01b0383165f9081526003602090815260408083208784529091529020546110a291906135ec565b7ff0c57e16840df040f15088dc2f81fe391c3923bec73e23a9662efc9c229c6a008054600160401b810460ff1615906001600160401b03165f811580156115045750825b90505f826001600160401b0316600114801561151f5750303b155b90508115801561152d575080155b1561154b5760405163f92ee8a960e01b815260040160405180910390fd5b845467ffffffffffffffff19166001178555831561157557845460ff60401b1916600160401b1785555b6115b9604051806040016040528060058152602001641059d95b9d60da1b815250604051806040016040528060058152602001641051d1539560da1b815250612285565b6115c1612297565b6115c96122a1565b6115da61247e6110a96125b46126f2565b6115e2612297565b6115ec5f87611dcf565b506116177ffa3e63d5771fd4999b619dee634be9dbb03c309738cc2adaadd49c4f5595adb087611dcf565b5061162f5f8051602061383383398151915287611dcf565b506001600655831561167b57845460ff60401b19168555604051600181527fc7f505b2f371ae2175ee4913f4499e1f2633a7b5936321eed1cdaeb6115181d29060200160405180910390a15b505050505050565b7f9f2df0fed2c77648de5860a4cc508cd0818c85b8b8a1ab4ceeef8d981c8956a66116ad81611c51565b5f83815260086020526040902060038101546001600160a01b0316156117075760405162461bcd60e51b815260206004820152600f60248201526e15109048185b1c9958591e481cd95d608a1b6044820152606401610aa8565b60030180546001600160a01b0319166001600160a01b0393909316929092179091555050565b60606109658261274f565b5f8051602061383383398151915261174f81611c51565b61176061247e6110a96125b46126fa565b50565b61176c82610b98565b61177581611c51565b610b928383611e70565b5f82815260046020526040812080548390811061179e5761179e6135ff565b5f918252602090912001546001600160a01b03169392505050565b5f818152600860209081526040808320815160a08101835281546001600160a01b039081168252600183015481168286015260028301548116828501526003830154166060828101919091526004830180548551818802810188019096528086529196959294608086019390929083018282801561187157602002820191905f5260205f20905f905b825461010083900a900460ff168152602060019283018181049485019490930390920291018084116118425790505b505050919092525050600a5460608301516040516370a0823160e01b81526001600160a01b03918216600482015293945016915f915082906370a0823190602401602060405180830381865afa1580156118cd573d5f803e3d5ffd5b505050506040513d601f19601f820116820180604052508101906118f191906135d5565b90505f816001600160401b0381111561190c5761190c612f5c565b604051908082528060200260200182016040528015611935578160200160208202803683370190505b5090505f5b828110156119dc576060850151604051632f745c5960e01b81526001600160a01b0391821660048201526024810183905290851690632f745c5990604401602060405180830381865afa158015611993573d5f803e3d5ffd5b505050506040513d601f19601f820116820180604052508101906119b791906135d5565b8282815181106119c9576119c96135ff565b602090810291909101015260010161193a565b5095945050505050565b6001600160a01b039182165f9081527f80bb2b638cc20bc4d0a60d66940f3ab4a00c1d7b313497ca82fb0b4ab00793056020908152604080832093909416825291909152205460ff1690565b5f828152600860205260409020546001600160a01b0316336001600160a01b031614611a705760405162461bcd60e51b8152600401610aa890613544565b5f9182526008602052604090912080546001600160a01b0319166001600160a01b03909216919091179055565b5f8281526008602052604090205482906001600160a01b0316336001600160a01b031614611add5760405162461bcd60e51b8152600401610aa890613544565b5f83815260086020908152604090912083519091611b02916004840191860190612d84565b507fd6963befda3af041f398ffc13a89396d94a573f3a91593efc5420fffb11d672a8484604051611b34929190613613565b60405180910390a150505050565b5f80516020613833833981519152611b5981611c51565b5f838152600b6020908152604091829020805460ff1916851515908117909155915191825284917f74c656406c6054e1c2903f7594155283f5216e109f0ecb46a7eb59a9a597d619910160405180910390a2505050565b5f6001600160e01b03198216637965db0b60e01b1480610965575061096582612875565b5f80611bdf83612899565b90506001600160a01b03811661096557604051637e27328960e01b815260048101849052602401610aa8565b5f9081527f80bb2b638cc20bc4d0a60d66940f3ab4a00c1d7b313497ca82fb0b4ab007930460205260409020546001600160a01b031690565b610abb83838360016128d2565b61176081336129e5565b5f8281527f0542a41881ee128a365a727b282c86fa859579490b9bb45aab8503648c8e790060208190526040909120611c94838261366f565b506040518381527ff8e1a15aba9398e019f0b49df1a4fde98ee17ae345cb5f6b5e2c27f5033e8ce79060200160405180910390a1505050565b5f5f805160206137f383398151915281611ce685612899565b90506001600160a01b03841615611d0257611d02818587612a1e565b6001600160a01b03811615611d3e57611d1d5f865f806128d2565b6001600160a01b0381165f908152600383016020526040902080545f190190555b6001600160a01b03861615611d6e576001600160a01b0386165f9081526003830160205260409020805460010190555b5f85815260028301602052604080822080546001600160a01b0319166001600160a01b038a811691821790925591518893918516917fddf252ad1be2c89b69c2b068fc378daa952ba7f163c4a11628f55a4df523b3ef91a495945050505050565b5f5f80516020613813833981519152611de884846112b0565b611e67575f848152602082815260408083206001600160a01b03871684529091529020805460ff19166001179055611e1d3390565b6001600160a01b0316836001600160a01b0316857f2f8788117e7eff1d82e926ec794901d17c78024a50270940304540a733656f0d60405160405180910390a46001915050610965565b5f915050610965565b5f5f80516020613813833981519152611e8984846112b0565b15611e67575f848152602082815260408083206001600160a01b0387168085529252808320805460ff1916905551339287917ff6391f5c32d9c69d2a47ea670b442974b53935d1edc7fd64eb21e047a839171b9190a46001915050610965565b6001600160a01b038216611f1257604051633250574960e11b81525f6004820152602401610aa8565b5f611f1e83835f611ccd565b90506001600160a01b03811615610abb576040516339e3563760e11b81525f6004820152602401610aa8565b5f8281526002602090815260408083206001600160a01b038516808552908352818420805460ff19166001908117909155868552600484528285208054918201815585529383902090930180546001600160a01b031916841790558051858152918201929092527fcbde0481b37e4b90d96b4492b49bcd7b48b260233519b878611a16a184b071aa91015b60405180910390a15050565b61200a82600560089054906101000a90048015612e2502176001600160401b031663ffffffff16565b6001600160a01b039091165f9081526003602090815260408083209483529390529190912055565b600180545f9160ff90911690826120488361372a565b82546101009290920a60ff81810219909316918316021790915581165f90815260208190526040902090915061207e838261366f565b507f9682c2f74922442a5e9927a764f668d2339f1ca83db196fbb3d5e97184dc2be88183604051611fd5929190613748565b5f805160206137f38339815191526001600160a01b0383166120f057604051630b61174360e31b81526001600160a01b0384166004820152602401610aa8565b6001600160a01b038481165f818152600584016020908152604080832094881680845294825291829020805460ff191687151590811790915591519182527f17307eab39ab6107e8899845ad3d59bd9653f200f220920489ca2b5937696c31910160405180910390a350505050565b6001600160a01b0383163b15610b9257604051630a85bd0160e11b81526001600160a01b0384169063150b7a02906121a1903390889087908790600401613763565b6020604051808303815f875af19250505080156121db575060408051601f3d908101601f191682019092526121d891810190613795565b60015b612242573d808015612208576040519150601f19603f3d011682016040523d82523d5f602084013e61220d565b606091505b5080515f0361223a57604051633250574960e11b81526001600160a01b0385166004820152602401610aa8565b805181602001fd5b6001600160e01b03198116630a85bd0160e11b1461227e57604051633250574960e11b81526001600160a01b0385166004820152602401610aa8565b5050505050565b61228d612a82565b610a2b8282612acb565b61229f612a82565b565b6122a9612a82565b60408051808201909152600e81526d436f676e697469766520436f726560901b6020820152600180545f91829160ff1690826122e48361372a565b91906101000a81548160ff021916908360ff16021790555060ff1660ff1681526020019081526020015f20908161231b919061366f565b50604080518082019091526014815273566f69636520616e6420536f756e6420436f726560601b6020820152600180545f91829160ff16908261235d8361372a565b91906101000a81548160ff021916908360ff16021790555060ff1660ff1681526020019081526020015f209081612394919061366f565b5060408051808201909152600b81526a56697375616c20436f726560a81b6020820152600180545f91829160ff1690826123cd8361372a565b91906101000a81548160ff021916908360ff16021790555060ff1660ff1681526020019081526020015f209081612404919061366f565b50604080518082019091526015815274446f6d61696e2045787065727469736520436f726560581b6020820152600180545f91829160ff1690826124478361372a565b91906101000a81548160ff021916908360ff16021790555060ff1660ff1681526020019081526020015f209081611760919061366f565b5f828152600860209081526040808320815160a08101835281546001600160a01b0390811682526001830154811682860152600283015481168285015260038301541660608201526004820180548451818702810187019095528085528695929460808601939092919083018282801561253257602002820191905f5260205f20905f905b825461010083900a900460ff168152602060019283018181049485019490930390920291018084116125035790505b505050919092525050815160405163099d7a2b60e11b81526001600160a01b03878116600483015293945090928316915063133af45690602401602060405180830381865afa158015612587573d5f803e3d5ffd5b505050506040513d601f19601f820116820180604052508101906125ab91906135d5565b95945050505050565b5f838152600860209081526040808320815160a08101835281546001600160a01b0390811682526001830154811682860152600283015481168285015260038301541660608201526004820180548451818702810187019095528085528695929460808601939092919083018282801561266857602002820191905f5260205f20905f905b825461010083900a900460ff168152602060019283018181049485019490930390920291018084116126395790505b505050919092525050815160405163209e1f0d60e01b81526001600160a01b0388811660048301526024820188905293945090928316915063209e1f0d90604401602060405180830381865afa1580156126c4573d5f803e3d5ffd5b505050506040513d601f19601f820116820180604052508101906126e891906135d5565b9695505050505050565b6126fa612a82565b600580546001600160401b039485166fffffffffffffffffffffffffffffffff1990911617600160401b938516939093029290921767ffffffffffffffff60801b1916600160801b9190931602919091179055565b60607f0542a41881ee128a365a727b282c86fa859579490b9bb45aab8503648c8e790061277b83611bd4565b505f83815260208290526040812080546127949061350c565b80601f01602080910402602001604051908101604052809291908181526020018280546127c09061350c565b801561280b5780601f106127e25761010080835404028352916020019161280b565b820191905f5260205f20905b8154815290600101906020018083116127ee57829003601f168201915b505050505090505f61282760408051602081019091525f815290565b905080515f0361283957509392505050565b81511561286c5780826040516020016128539291906137b0565b6040516020818303038152906040529350505050919050565b6125ab85612afb565b5f6001600160e01b03198216632483248360e11b1480610965575061096582612b6b565b5f9081527f80bb2b638cc20bc4d0a60d66940f3ab4a00c1d7b313497ca82fb0b4ab007930260205260409020546001600160a01b031690565b5f805160206137f383398151915281806128f457506001600160a01b03831615155b156129b5575f61290385611bd4565b90506001600160a01b0384161580159061292f5750836001600160a01b0316816001600160a01b031614155b8015612942575061294081856119e6565b155b1561296b5760405163a9fbf51f60e01b81526001600160a01b0385166004820152602401610aa8565b82156129b35784866001600160a01b0316826001600160a01b03167f8c5be1e5ebec7d5bd14f71427d1e84f3dd0314c0f7b2291e5b200ac8c7c3b92560405160405180910390a45b505b5f93845260040160205250506040902080546001600160a01b0319166001600160a01b0392909216919091179055565b6129ef82826112b0565b610a2b5760405163e2517d3f60e01b81526001600160a01b038216600482015260248101839052604401610aa8565b612a29838383612bba565b610abb576001600160a01b038316612a5757604051637e27328960e01b815260048101829052602401610aa8565b60405163177e802f60e01b81526001600160a01b038316600482015260248101829052604401610aa8565b7ff0c57e16840df040f15088dc2f81fe391c3923bec73e23a9662efc9c229c6a0054600160401b900460ff1661229f57604051631afcd79f60e31b815260040160405180910390fd5b612ad3612a82565b5f805160206137f383398151915280612aec848261366f565b5060018101610b92838261366f565b6060612b0682611bd4565b505f612b1c60408051602081019091525f815290565b90505f815111612b3a5760405180602001604052805f8152506110a2565b80612b4484612c1e565b604051602001612b559291906137b0565b6040516020818303038152906040529392505050565b5f6001600160e01b031982166380ac58cd60e01b1480612b9b57506001600160e01b03198216635b5e139f60e01b145b8061096557506301ffc9a760e01b6001600160e01b0319831614610965565b5f6001600160a01b038316158015906110205750826001600160a01b0316846001600160a01b03161480612bf35750612bf384846119e6565b806110205750826001600160a01b0316612c0c83611c0b565b6001600160a01b031614949350505050565b60605f612c2a83612cad565b60010190505f816001600160401b03811115612c4857612c48612f5c565b6040519080825280601f01601f191660200182016040528015612c72576020820181803683370190505b5090508181016020015b5f19016f181899199a1a9b1b9c1cb0b131b232b360811b600a86061a8153600a8504945084612c7c57509392505050565b5f8072184f03e93ff9f4daa797ed6e38ed64bf6a1f0160401b8310612ceb5772184f03e93ff9f4daa797ed6e38ed64bf6a1f0160401b830492506040015b6d04ee2d6d415b85acef81000000008310612d17576d04ee2d6d415b85acef8100000000830492506020015b662386f26fc100008310612d3557662386f26fc10000830492506010015b6305f5e1008310612d4d576305f5e100830492506008015b6127108310612d6157612710830492506004015b60648310612d73576064830492506002015b600a83106109655760010192915050565b828054828255905f5260205f2090601f01602090048101928215612e15579160200282015f5b83821115612de757835183826101000a81548160ff021916908360ff16021790555092602001926001016020815f01049283019260010302612daa565b8015612e135782816101000a81549060ff02191690556001016020815f01049283019260010302612de7565b505b50612e21929150612e2d565b5090565b61229f6137de565b5b80821115612e21575f8155600101612e2e565b6001600160e01b031981168114611760575f80fd5b5f60208284031215612e66575f80fd5b81356110a281612e41565b5f5b83811015612e8b578181015183820152602001612e73565b50505f910152565b5f8151808452612eaa816020860160208601612e71565b601f01601f19169290920160200192915050565b602081525f6110a26020830184612e93565b5f60208284031215612ee0575f80fd5b5035919050565b6001600160a01b0381168114611760575f80fd5b5f8060408385031215612f0c575f80fd5b8235612f1781612ee7565b946020939093013593505050565b5f8060408385031215612f36575f80fd5b8235612f4181612ee7565b91506020830135612f5181612ee7565b809150509250929050565b634e487b7160e01b5f52604160045260245ffd5b604051601f8201601f191681016001600160401b0381118282101715612f9857612f98612f5c565b604052919050565b5f6001600160401b03831115612fb857612fb8612f5c565b612fcb601f8401601f1916602001612f70565b9050828152838383011115612fde575f80fd5b828260208301375f602084830101529392505050565b5f82601f830112613003575f80fd5b6110a283833560208501612fa0565b5f8060408385031215613023575f80fd5b8235915060208301356001600160401b0381111561303f575f80fd5b61304b85828601612ff4565b9150509250929050565b5f60208284031215613065575f80fd5b81356110a281612ee7565b5f805f60608486031215613082575f80fd5b833561308d81612ee7565b9250602084013561309d81612ee7565b929592945050506040919091013590565b5f80604083850312156130bf575f80fd5b823591506020830135612f5181612ee7565b803560ff811681146130e1575f80fd5b919050565b5f82601f8301126130f5575f80fd5b813560206001600160401b0382111561311057613110612f5c565b8160051b61311f828201612f70565b9283528481018201928281019087851115613138575f80fd5b83870192505b8483101561315e5761314f836130d1565b8252918301919083019061313e565b979650505050505050565b5f805f805f805f80610100898b031215613181575f80fd5b88359750602089013561319381612ee7565b965060408901356001600160401b03808211156131ae575f80fd5b6131ba8c838d01612ff4565b975060608b013591506131cc82612ee7565b90955060808a0135906131de82612ee7565b90945060a08a013590808211156131f3575f80fd5b506132008b828c016130e6565b93505060c089013561321181612ee7565b915060e089013561322181612ee7565b809150509295985092959890939650565b5f60208284031215613242575f80fd5b81356001600160401b03811115613257575f80fd5b61102084828501612ff4565b5f60208284031215613273575f80fd5b6110a2826130d1565b5f805f6060848603121561328e575f80fd5b83359250602084013561309d81612ee7565b5f805f805f60a086880312156132b4575f80fd5b8535945060208601356132c681612ee7565b935060408601356132d681612ee7565b925060608601356132e681612ee7565b915060808601356132f681612ee7565b809150509295509295909350565b803580151581146130e1575f80fd5b5f8060408385031215613324575f80fd5b823561332f81612ee7565b915061333d60208401613304565b90509250929050565b5f815180845260208085019450602084015f5b8381101561337857815160ff1687529582019590820190600101613359565b509495945050505050565b602081525f60018060a01b0380845116602084015280602085015116604084015280604085015116606084015280606085015116608084015250608083015160a08084015261102060c0840182613346565b5f805f80608085870312156133e8575f80fd5b84356133f381612ee7565b9350602085013561340381612ee7565b92506040850135915060608501356001600160401b03811115613424575f80fd5b8501601f81018713613434575f80fd5b61344387823560208401612fa0565b91505092959194509250565b5f8060408385031215613460575f80fd5b50508035926020909101359150565b602080825282518282018190525f9190848201906040850190845b818110156134a65783518352928401929184019160010161348a565b50909695505050505050565b5f80604083850312156134c3575f80fd5b8235915060208301356001600160401b038111156134df575f80fd5b61304b858286016130e6565b5f80604083850312156134fc575f80fd5b8235915061333d60208401613304565b600181811c9082168061352057607f821691505b60208210810361353e57634e487b7160e01b5f52602260045260245ffd5b50919050565b60208082526019908201527f43616c6c6572206973206e6f74205649525455414c2044414f00000000000000604082015260600190565b634e487b7160e01b5f52601160045260245ffd5b818103818111156109655761096561357b565b5f600182016135b3576135b361357b565b5060010190565b5f602082840312156135ca575f80fd5b81516110a281612ee7565b5f602082840312156135e5575f80fd5b5051919050565b808201808211156109655761096561357b565b634e487b7160e01b5f52603260045260245ffd5b828152604060208201525f6110206040830184613346565b601f821115610abb57805f5260205f20601f840160051c810160208510156136505750805b601f840160051c820191505b8181101561227e575f815560010161365c565b81516001600160401b0381111561368857613688612f5c565b61369c81613696845461350c565b8461362b565b602080601f8311600181146136cf575f84156136b85750858301515b5f19600386901b1c1916600185901b17855561167b565b5f85815260208120601f198616915b828110156136fd578886015182559484019460019091019084016136de565b508582101561371a57878501515f19600388901b60f8161c191681555b5050505050600190811b01905550565b5f60ff821660ff810361373f5761373f61357b565b60010192915050565b60ff83168152604060208201525f6110206040830184612e93565b6001600160a01b03858116825284166020820152604081018390526080606082018190525f906126e890830184612e93565b5f602082840312156137a5575f80fd5b81516110a281612e41565b5f83516137c1818460208801612e71565b8351908301906137d5818360208801612e71565b01949350505050565b634e487b7160e01b5f52605160045260245ffdfe80bb2b638cc20bc4d0a60d66940f3ab4a00c1d7b313497ca82fb0b4ab007930002dd7bc7dec4dceedda775e58dd541e08a116c6c53815c0bd028192f7b626800a49807205ce4d355092ef5a8a18f56e8913cf4a201fbe287825b095693c21775a26469706673582212209e659a6c75b84291f7283ec480fa083f4edd2a486bf03da7a3281bc1faca8aa064736f6c63430008160033","linkReferences":{}},"methodIdentifiers":{"ADMIN_ROLE()":"75b238fc","DEFAULT_ADMIN_ROLE()":"a217fddf","MINTER_ROLE()":"d5391393","VALIDATOR_ADMIN_ROLE()":"386924de","addCoreType(string)":"43496447","addValidator(uint256,address)":"4b561753","approve(address,uint256)":"095ea7b3","balanceOf(address)":"70a08231","coreTypes(uint8)":"4f1b9fac","getAllServices(uint256)":"e3a9769c","getApproved(uint256)":"081812fc","getContributionNft()":"9a7e8c8e","getEloCalculator()":"c052bfb6","getPastValidatorScore(uint256,address,uint256)":"6472c79f","getRoleAdmin(bytes32)":"248a9ca3","getServiceNft()":"b9f7fe53","getVotes(uint256,address)":"68197360","grantRole(bytes32,address)":"2f2ff15d","hasRole(bytes32,address)":"91d14854","initialize(address)":"c4d66de8","isApprovedForAll(address,address)":"e985e9c5","isBlacklisted(uint256)":"4752f9ef","isValidator(uint256,address)":"23f2a73f","migrateScoreFunctions()":"cc35cc41","migrateVirtual(uint256,address,address,address,address)":"74aa04c5","mint(uint256,address,string,address,address,uint8[],address,address)":"3f11354a","name()":"06fdde03","nextVirtualId()":"5faef81a","ownerOf(uint256)":"6352211e","renounceRole(bytes32,address)":"36568abe","revokeRole(bytes32,address)":"d547741f","safeTransferFrom(address,address,uint256)":"42842e0e","safeTransferFrom(address,address,uint256,bytes)":"b88d4fde","setApprovalForAll(address,bool)":"a22cb465","setBlacklist(uint256,bool)":"fdf864f1","setContributionService(address,address)":"09c88b3a","setCoreTypes(uint256,uint8[])":"f9661085","setDAO(uint256,address)":"f0c21c46","setEloCalculator(address)":"1ca95e13","setTBA(uint256,address)":"c859b998","setTokenURI(uint256,string)":"162094c4","stakingTokenToVirtualId(address)":"44ae85ea","supportsInterface(bytes4)":"01ffc9a7","symbol()":"95d89b41","tokenURI(uint256)":"c87b56dd","totalProposals(uint256)":"6d6464b4","totalStaked(uint256)":"41cb8c20","totalSupply()":"18160ddd","totalUptimeScore(uint256)":"a0ed2a5d","transferFrom(address,address,uint256)":"23b872dd","validatorAt(uint256,uint256)":"d809a06f","validatorCount(uint256)":"1b534f04","validatorScore(uint256,address)":"c12032d3","virtualInfo(uint256)":"aca470ce","virtualInfos(uint256)":"691de489","virtualLP(uint256)":"fcf9e6db","virtualLPs(uint256)":"336e3997"},"id":55}