{"abi":[{"type":"constructor","inputs":[],"stateMutability":"nonpayable"},{"type":"function","name":"DEFAULT_ADMIN_ROLE","inputs":[],"outputs":[{"name":"","type":"bytes32","internalType":"bytes32"}],"stateMutability":"view"},{"type":"function","name":"WITHDRAW_ROLE","inputs":[],"outputs":[{"name":"","type":"bytes32","internalType":"bytes32"}],"stateMutability":"view"},{"type":"function","name":"allDAOs","inputs":[{"name":"","type":"uint256","internalType":"uint256"}],"outputs":[{"name":"","type":"address","internalType":"address"}],"stateMutability":"view"},{"type":"function","name":"allTokens","inputs":[{"name":"","type":"uint256","internalType":"uint256"}],"outputs":[{"name":"","type":"address","internalType":"address"}],"stateMutability":"view"},{"type":"function","name":"allTradingTokens","inputs":[{"name":"","type":"uint256","internalType":"uint256"}],"outputs":[{"name":"","type":"address","internalType":"address"}],"stateMutability":"view"},{"type":"function","name":"applicationThreshold","inputs":[],"outputs":[{"name":"","type":"uint256","internalType":"uint256"}],"stateMutability":"view"},{"type":"function","name":"assetToken","inputs":[],"outputs":[{"name":"","type":"address","internalType":"address"}],"stateMutability":"view"},{"type":"function","name":"daoImplementation","inputs":[],"outputs":[{"name":"","type":"address","internalType":"address"}],"stateMutability":"view"},{"type":"function","name":"defaultDelegatee","inputs":[],"outputs":[{"name":"","type":"address","internalType":"address"}],"stateMutability":"view"},{"type":"function","name":"executeApplication","inputs":[{"name":"id","type":"uint256","internalType":"uint256"},{"name":"canStake","type":"bool","internalType":"bool"}],"outputs":[{"name":"","type":"uint256","internalType":"uint256"},{"name":"","type":"address","internalType":"address"},{"name":"","type":"address","internalType":"address"},{"name":"","type":"address","internalType":"address"},{"name":"","type":"address","internalType":"address"},{"name":"","type":"address","internalType":"address"}],"stateMutability":"nonpayable"},{"type":"function","name":"getApplication","inputs":[{"name":"proposalId","type":"uint256","internalType":"uint256"}],"outputs":[{"name":"","type":"tuple","internalType":"struct AgentFactoryV2.Application","components":[{"name":"name","type":"string","internalType":"string"},{"name":"symbol","type":"string","internalType":"string"},{"name":"tokenURI","type":"string","internalType":"string"},{"name":"status","type":"uint8","internalType":"enum AgentFactoryV2.ApplicationStatus"},{"name":"withdrawableAmount","type":"uint256","internalType":"uint256"},{"name":"proposer","type":"address","internalType":"address"},{"name":"cores","type":"uint8[]","internalType":"uint8[]"},{"name":"proposalEndBlock","type":"uint256","internalType":"uint256"},{"name":"virtualId","type":"uint256","internalType":"uint256"},{"name":"tbaSalt","type":"bytes32","internalType":"bytes32"},{"name":"tbaImplementation","type":"address","internalType":"address"},{"name":"daoVotingPeriod","type":"uint32","internalType":"uint32"},{"name":"daoThreshold","type":"uint256","internalType":"uint256"}]}],"stateMutability":"view"},{"type":"function","name":"getRoleAdmin","inputs":[{"name":"role","type":"bytes32","internalType":"bytes32"}],"outputs":[{"name":"","type":"bytes32","internalType":"bytes32"}],"stateMutability":"view"},{"type":"function","name":"gov","inputs":[],"outputs":[{"name":"","type":"address","internalType":"address"}],"stateMutability":"view"},{"type":"function","name":"grantRole","inputs":[{"name":"role","type":"bytes32","internalType":"bytes32"},{"name":"account","type":"address","internalType":"address"}],"outputs":[],"stateMutability":"nonpayable"},{"type":"function","name":"hasRole","inputs":[{"name":"role","type":"bytes32","internalType":"bytes32"},{"name":"account","type":"address","internalType":"address"}],"outputs":[{"name":"","type":"bool","internalType":"bool"}],"stateMutability":"view"},{"type":"function","name":"initialize","inputs":[{"name":"tokenImplementation_","type":"address","internalType":"address"},{"name":"veTokenImplementation_","type":"address","internalType":"address"},{"name":"daoImplementation_","type":"address","internalType":"address"},{"name":"tbaRegistry_","type":"address","internalType":"address"},{"name":"assetToken_","type":"address","internalType":"address"},{"name":"nft_","type":"address","internalType":"address"},{"name":"applicationThreshold_","type":"uint256","internalType":"uint256"},{"name":"vault_","type":"address","internalType":"address"}],"outputs":[],"stateMutability":"nonpayable"},{"type":"function","name":"maturityDuration","inputs":[],"outputs":[{"name":"","type":"uint256","internalType":"uint256"}],"stateMutability":"view"},{"type":"function","name":"nft","inputs":[],"outputs":[{"name":"","type":"address","internalType":"address"}],"stateMutability":"view"},{"type":"function","name":"pause","inputs":[],"outputs":[],"stateMutability":"nonpayable"},{"type":"function","name":"paused","inputs":[],"outputs":[{"name":"","type":"bool","internalType":"bool"}],"stateMutability":"view"},{"type":"function","name":"proposeAgent","inputs":[{"name":"name","type":"string","internalType":"string"},{"name":"symbol","type":"string","internalType":"string"},{"name":"tokenURI","type":"string","internalType":"string"},{"name":"cores","type":"uint8[]","internalType":"uint8[]"},{"name":"tbaSalt","type":"bytes32","internalType":"bytes32"},{"name":"tbaImplementation","type":"address","internalType":"address"},{"name":"daoVotingPeriod","type":"uint32","internalType":"uint32"},{"name":"daoThreshold","type":"uint256","internalType":"uint256"}],"outputs":[{"name":"","type":"uint256","internalType":"uint256"}],"stateMutability":"nonpayable"},{"type":"function","name":"renounceRole","inputs":[{"name":"role","type":"bytes32","internalType":"bytes32"},{"name":"callerConfirmation","type":"address","internalType":"address"}],"outputs":[],"stateMutability":"nonpayable"},{"type":"function","name":"revokeRole","inputs":[{"name":"role","type":"bytes32","internalType":"bytes32"},{"name":"account","type":"address","internalType":"address"}],"outputs":[],"stateMutability":"nonpayable"},{"type":"function","name":"setApplicationThreshold","inputs":[{"name":"newThreshold","type":"uint256","internalType":"uint256"}],"outputs":[],"stateMutability":"nonpayable"},{"type":"function","name":"setAssetToken","inputs":[{"name":"newToken","type":"address","internalType":"address"}],"outputs":[],"stateMutability":"nonpayable"},{"type":"function","name":"setImplementations","inputs":[{"name":"token","type":"address","internalType":"address"},{"name":"veToken","type":"address","internalType":"address"},{"name":"dao","type":"address","internalType":"address"}],"outputs":[],"stateMutability":"nonpayable"},{"type":"function","name":"setMaturityDuration","inputs":[{"name":"newDuration","type":"uint256","internalType":"uint256"}],"outputs":[],"stateMutability":"nonpayable"},{"type":"function","name":"setTokenAdmin","inputs":[{"name":"newTokenAdmin","type":"address","internalType":"address"}],"outputs":[],"stateMutability":"nonpayable"},{"type":"function","name":"setTokenSupplyParams","inputs":[{"name":"maxSupply","type":"uint256","internalType":"uint256"},{"name":"lpSupply","type":"uint256","internalType":"uint256"},{"name":"vaultSupply","type":"uint256","internalType":"uint256"},{"name":"maxTokensPerWallet","type":"uint256","internalType":"uint256"},{"name":"maxTokensPerTxn","type":"uint256","internalType":"uint256"},{"name":"botProtectionDurationInSeconds","type":"uint256","internalType":"uint256"},{"name":"vault","type":"address","internalType":"address"}],"outputs":[],"stateMutability":"nonpayable"},{"type":"function","name":"setTokenTaxParams","inputs":[{"name":"projectBuyTaxBasisPoints","type":"uint256","internalType":"uint256"},{"name":"projectSellTaxBasisPoints","type":"uint256","internalType":"uint256"},{"name":"taxSwapThresholdBasisPoints","type":"uint256","internalType":"uint256"},{"name":"projectTaxRecipient","type":"address","internalType":"address"}],"outputs":[],"stateMutability":"nonpayable"},{"type":"function","name":"setUniswapRouter","inputs":[{"name":"router","type":"address","internalType":"address"}],"outputs":[],"stateMutability":"nonpayable"},{"type":"function","name":"setVault","inputs":[{"name":"newVault","type":"address","internalType":"address"}],"outputs":[],"stateMutability":"nonpayable"},{"type":"function","name":"supportsInterface","inputs":[{"name":"interfaceId","type":"bytes4","internalType":"bytes4"}],"outputs":[{"name":"","type":"bool","internalType":"bool"}],"stateMutability":"view"},{"type":"function","name":"tbaRegistry","inputs":[],"outputs":[{"name":"","type":"address","internalType":"address"}],"stateMutability":"view"},{"type":"function","name":"tokenImplementation","inputs":[],"outputs":[{"name":"","type":"address","internalType":"address"}],"stateMutability":"view"},{"type":"function","name":"totalAgents","inputs":[],"outputs":[{"name":"","type":"uint256","internalType":"uint256"}],"stateMutability":"view"},{"type":"function","name":"unpause","inputs":[],"outputs":[],"stateMutability":"nonpayable"},{"type":"function","name":"veTokenImplementation","inputs":[],"outputs":[{"name":"","type":"address","internalType":"address"}],"stateMutability":"view"},{"type":"function","name":"withdraw","inputs":[{"name":"id","type":"uint256","internalType":"uint256"}],"outputs":[],"stateMutability":"nonpayable"},{"type":"event","name":"ApplicationThresholdUpdated","inputs":[{"name":"newThreshold","type":"uint256","indexed":false,"internalType":"uint256"}],"anonymous":false},{"type":"event","name":"GovUpdated","inputs":[{"name":"newGov","type":"address","indexed":false,"internalType":"address"}],"anonymous":false},{"type":"event","name":"ImplContractsUpdated","inputs":[{"name":"token","type":"address","indexed":false,"internalType":"address"},{"name":"dao","type":"address","indexed":false,"internalType":"address"}],"anonymous":false},{"type":"event","name":"Initialized","inputs":[{"name":"version","type":"uint64","indexed":false,"internalType":"uint64"}],"anonymous":false},{"type":"event","name":"NewApplication","inputs":[{"name":"id","type":"uint256","indexed":false,"internalType":"uint256"}],"anonymous":false},{"type":"event","name":"NewPersona","inputs":[{"name":"virtualId","type":"uint256","indexed":false,"internalType":"uint256"},{"name":"token","type":"address","indexed":false,"internalType":"address"},{"name":"dao","type":"address","indexed":false,"internalType":"address"},{"name":"tba","type":"address","indexed":false,"internalType":"address"},{"name":"veToken","type":"address","indexed":false,"internalType":"address"},{"name":"lp","type":"address","indexed":false,"internalType":"address"}],"anonymous":false},{"type":"event","name":"Paused","inputs":[{"name":"account","type":"address","indexed":false,"internalType":"address"}],"anonymous":false},{"type":"event","name":"RoleAdminChanged","inputs":[{"name":"role","type":"bytes32","indexed":true,"internalType":"bytes32"},{"name":"previousAdminRole","type":"bytes32","indexed":true,"internalType":"bytes32"},{"name":"newAdminRole","type":"bytes32","indexed":true,"internalType":"bytes32"}],"anonymous":false},{"type":"event","name":"RoleGranted","inputs":[{"name":"role","type":"bytes32","indexed":true,"internalType":"bytes32"},{"name":"account","type":"address","indexed":true,"internalType":"address"},{"name":"sender","type":"address","indexed":true,"internalType":"address"}],"anonymous":false},{"type":"event","name":"RoleRevoked","inputs":[{"name":"role","type":"bytes32","indexed":true,"internalType":"bytes32"},{"name":"account","type":"address","indexed":true,"internalType":"address"},{"name":"sender","type":"address","indexed":true,"internalType":"address"}],"anonymous":false},{"type":"event","name":"Unpaused","inputs":[{"name":"account","type":"address","indexed":false,"internalType":"address"}],"anonymous":false},{"type":"error","name":"AccessControlBadConfirmation","inputs":[]},{"type":"error","name":"AccessControlUnauthorizedAccount","inputs":[{"name":"account","type":"address","internalType":"address"},{"name":"neededRole","type":"bytes32","internalType":"bytes32"}]},{"type":"error","name":"AddressEmptyCode","inputs":[{"name":"target","type":"address","internalType":"address"}]},{"type":"error","name":"AddressInsufficientBalance","inputs":[{"name":"account","type":"address","internalType":"address"}]},{"type":"error","name":"ERC1167FailedCreateClone","inputs":[]},{"type":"error","name":"EnforcedPause","inputs":[]},{"type":"error","name":"ExpectedPause","inputs":[]},{"type":"error","name":"FailedInnerCall","inputs":[]},{"type":"error","name":"InvalidInitialization","inputs":[]},{"type":"error","name":"NotInitializing","inputs":[]},{"type":"error","name":"SafeERC20FailedOperation","inputs":[{"name":"token","type":"address","internalType":"address"}]}],"bytecode":{"object":"0x60808060405234620000bd577ff0c57e16840df040f15088dc2f81fe391c3923bec73e23a9662efc9c229c6a009081549060ff8260401c16620000ae57506001600160401b036002600160401b03198282160162000068575b604051613b899081620000c28239f35b6001600160401b031990911681179091556040519081527fc7f505b2f371ae2175ee4913f4499e1f2633a7b5936321eed1cdaeb6115181d290602090a15f808062000058565b63f92ee8a960e01b8152600490fd5b5f80fdfe6080806040526004361015610012575f80fd5b5f905f3560e01c90816301ffc9a7146132d357508063063513b7146132b65780630c4cb55c1461328e5780631083f7611461326657806312d43a511461323e5780631f2f4bfd14612a20578063248a9ca3146129f457806326bde5aa146129b15780632a7d4a1f146128085780632e1a7d4d1461268e5780632f2ff15d146126525780632f3a3d5d1461262a57806336568abe146125e15780633f4ba83a1461256c578063468d198d1461254457806347ccca021461251c5780635c975abb146124ee5780635ca3cedf14612358578063634282af146122fe5780636817031b146122bb5780638456cb59146122565780638e659c081461206257806391d148541461201a5780639300d23814611fb05780639cbe0bac14611f885780639d69932614611f605780639e4ec30a1461172f578063a217fddf14611715578063aa3d000a14610430578063b4136bd8146103d5578063bd1cf25814610387578063bea9849e14610347578063c505371214610329578063d547741f146102e8578063d739ac29146102c5578063ddf44275146102a7578063e02023a11461026c578063e887b1cc1461020d5763f7457594146101cb575f80fd5b3461020a57602036600319011261020a576101e4613364565b6101ec61373e565b60018060a01b03166001600160601b0360a01b601254161760125580f35b80fd5b503461020a57602036600319011261020a57600435600e5481101561026857600e5f527fbb7b4a454dc3493923482f07822329ed19e8244eff582cc204f8554c3620c3fd01546040516001600160a01b039091168152602090f35b5080fd5b503461020a578060031936011261020a5760206040517f5d8e12c39142ff96d79d04d15d1ba1269e4fe57bb9d26f43523628b34ba108ec8152f35b503461020a578060031936011261020a576020600654604051908152f35b503461020a57602036600319011261020a576102df61373e565b600435600a5580f35b503461020a57604036600319011261020a5761032560043561030861337a565b90808452836020526103206001604086200154613794565b6138f4565b5080f35b503461020a578060031936011261020a576020600754604051908152f35b503461020a57602036600319011261020a57610361613364565b61036961373e565b60018060a01b03166001600160601b0360a01b600f541617600f5580f35b503461020a57602036600319011261020a577fcfa33021ab0175831433b2f3bd8eeb24a22f5ae53ca0e660a246811754f9e34a60206004356103c761373e565b80600655604051908152a180f35b503461020a57602036600319011261020a576004356008548110156102685760085f527ff3f7a9fe364faab93b216da50a3214154f22a0a2b415b23a84c8169e8b636ee301546040516001600160a01b039091168152602090f35b5034610e8f576040366003190112610e8f576024356004358115158203610e8f57600d5461046460ff8260a01c16156135ce565b60ff60a01b1916600160a01b17600d555f818152600b6020526040902060039081015460ff16908110156117015761049c9015613646565b6012546001600160a01b0316156116c6575f52600b60205260405f209060018060a01b036005830154163314801561168f575b6104d89061360b565b6004820154905f6004840155600160ff196003850154161760038401556040519261050e8461050781846134ed565b038561341c565b6040516105298161052281600186016134ed565b038261341c565b60025461053e906001600160a01b0316613a6a565b94604051918260608101106001600160401b036060850111176113f7576105b1916105c36105d1926060860160405260018060a01b0360125416865260018060a01b03600f5416602087015260018060a01b03600954166040870152604051948593604060208601526060850190613326565b838103601f1901604085015290613326565b03601f19810183528261341c565b6001600160a01b0386163b15610e8f57604051634258efa960e11b8152915f600484015b6003821061166f575050506106159060c0606484015260c4830190613326565b8181036003190160848301526014545f9161062f826134b5565b808252916001811690811561165057506001146115f6575b50506003198282030160a4830152815f9160155490610665826134b5565b80825291600181169081156115d65750600114611576575b505f92829003905081836001600160a01b038a165af1801561156b57611558575b50600e54600160401b8110156113f7576001810180600e558110156113e357600e5f527fbb7b4a454dc3493923482f07822329ed19e8244eff582cc204f8554c3620c3fd0180546001600160a01b0319166001600160a01b03861690811790915560405163d6efd7c360e01b8152908690829060049082905afa9081156114825786916114a1575b5080511561148d5760209081015160095460405163a9059cbb60e01b81526001600160a01b038881166004830152602482019790975291861695919291839160449183918b91165af1801561148257611463575b506001600160a01b0384163b1561142357604051631672aef960e21b815230600482015285908181602481836001600160a01b038b165af18015610eed5761144f575b50506040519166029ba30b5b2b2160cd1b60208401526107f2836107e460278201856136be565b03601f19810185528461341c565b60405190607360f81b60208301526108228261081460218201600187016136be565b03601f19810184528361341c565b60058301546010546001600160a01b039182169190610842908216613a6a565b1694600a5442019182421161143b576004548a95946001600160a01b0390911693929190883b15610e50578694610899946108ab604051988997889763b2193b4d60e01b895260e060048a015260e4890190613326565b87810360031901602489015290613326565b9360448601528b6064860152608485015260a4840152151560c4830152038183885af18015610eed57611427575b5050600754600160401b8110156113f75760018101806007558110156113e35760075f527fa66cc928b5edb82af9bd49922954155ab7b0942694bea4ce44661d9a8736c6880180546001600160a01b0319168317905560405161095e60048261094560208201866136be565b632044414f60e01b815203601b1981018452018261341c565b600a820154600b83015460035460a09290921c63ffffffff169288926001600160a01b039061098e908216613a6a565b169360018060a01b036004541691853b156114235784926109cc926040519586948594631c63df3560e21b865260a0600487015260a4860190613326565b928b6024860152604485015260648401526084830152038183875af18015610eed5761140b575b5050600854600160401b8110156113f75760018101806008558110156113e35760085f527ff3f7a9fe364faab93b216da50a3214154f22a0a2b415b23a84c8169e8b636ee30180546001600160a01b0319168217905560048054604051632fd77c0d60e11b815296916001600160a01b0390911690602090889081845afa968715610e545788976113af575b50600d546005850154604051631f889aa560e11b8152600481018a90526001600160a01b0392831660248201526101006044820152929116908290610acb6101048301600289016134ed565b9286606484015260848301526003198284030160a48301528a60206006890154948581520193600689018252602082209082915b81601f8401106112105795859392849260209854918181106111fe575b8181106111e8575b8181106111d2575b8181106111bc575b8181106111a8575b818110611192575b81811061117c575b818110611166575b818110611150575b81811061113a575b818110611124575b81811061110e575b8181106110f8575b8181106110e2575b8181106110cc575b8181106110b6575b8181106110a0575b81811061108a575b818110611074575b81811061105e575b818110611048575b818110611032575b81811061101c575b818110611006575b818110610ff0575b818110610fda575b818110610fc4575b818110610fae575b818110610f98575b818110610f82575b818110610f6c575b10610f5f575b5060c482018d90526001600160a01b03891660e483015203925af18015610e5457610f34575b5060088301869055600554600a840154600985015460048054604051638a54c52f60e01b81526001600160a01b039485169281019290925260248201929092524660448201529082166064820152608481018990529491602091869160a49183918d91165af1938415610e54578894610ef8575b5060045488906001600160a01b0316803b156102685760405163190b373360e31b8152600481018a90526001600160a01b03871660248201529082908290604490829084905af18015610eed57610ed5575b505060405163095ea7b360e01b8152600481018690525f1960248201526020816044818c8b5af18015610e9b57610ea6575b506040516370a0823160e01b8152306004820152906020826024818a5afa918215610e9b578992610e63575b50600501546001600160a01b0316853b15610e5f576040519163a7d545db60e01b835260048301528060248301526044820152878160648183895af18015610e5457610e3c575b50604080518781526001600160a01b03838116602083015291810184905290841660608201526080810185905260a0810186905260c097507ff9d151d23a5253296eb20ab40959cf48828ea2732d337416716e302ed83ca658908890a1600d805460ff60a01b19169055604080519687526001600160a01b039182166020880152860191909152166060840152608083015260a0820152f35b610e4688916133ee565b610e505786610da3565b8680fd5b6040513d8a823e3d90fd5b8880fd5b9091506020813d602011610e93575b81610e7f6020938361341c565b81010312610e8f5751905f610d5c565b5f80fd5b3d9150610e72565b6040513d8b823e3d90fd5b610ec79060203d602011610ece575b610ebf818361341c565b8101906136a6565b505f610d30565b503d610eb5565b610ede906133ee565b610ee957875f610cfe565b8780fd5b6040513d84823e3d90fd5b9093506020813d602011610f2c575b81610f146020938361341c565b81010312610ee957610f2590613692565b925f610cac565b3d9150610f07565b602090813d8311610f58575b610f4a818361341c565b81010312610e8f575f610c38565b503d610f40565b60f81c815286015f610c12565b928960019160ff8560f01c168152019301610c0c565b928960019160ff8560e81c168152019301610c04565b928960019160ff8560e01c168152019301610bfc565b928960019160ff8560d81c168152019301610bf4565b928960019160ff8560d01c168152019301610bec565b928960019160ff8560c81c168152019301610be4565b928960019160ff8560c01c168152019301610bdc565b928960019160ff8560b81c168152019301610bd4565b928960019160ff8560b01c168152019301610bcc565b928960019160ff8560a81c168152019301610bc4565b928960019160ff8560a01c168152019301610bbc565b928960019160ff8560981c168152019301610bb4565b928960019160ff8560901c168152019301610bac565b928960019160ff8560881c168152019301610ba4565b928960019160ff8560801c168152019301610b9c565b928960019160ff8560781c168152019301610b94565b928960019160ff8560701c168152019301610b8c565b928960019160ff8560681c168152019301610b84565b928960019160ff8560601c168152019301610b7c565b928960019160ff8560581c168152019301610b74565b928960019160ff8560501c168152019301610b6c565b928960019160ff8560481c168152019301610b64565b928960019160ff8560401c168152019301610b5c565b928960019160ff8560381c168152019301610b54565b928960019160ff8560301c168152019301610b4c565b928960019160ff8560281c168152019301610b44565b828a1c60ff16845292890192600101610b3c565b928960019160ff8560181c168152019301610b34565b928960019160ff8560101c168152019301610b2c565b928960019160ff8560081c168152019301610b24565b60ff8316845292890192600101610b1c565b9450915091936001610400602092865460ff8116825260ff8160081c168583015260ff8160101c16604083015260ff8160181c16606083015260ff8160808282891c1681860152828260281c1660a0860152828260301c1660c0860152828260381c1660e0860152828260401c16610100860152828260481c16610120860152828260501c16610140860152828260581c16610160860152828260601c16610180860152828260681c166101a0860152828260701c166101c0860152828260781c166101e08601521c1661020083015260ff8160881c1661022083015260ff8160901c1661024083015260ff8160981c1661026083015260ff8160a01c1661028083015260ff8160a81c166102a083015260ff8160b01c166102c083015260ff8160b81c166102e083015260ff8160c01c1661030083015260ff8160c81c1661032083015260ff8160d01c1661034083015260ff8160d81c1661036083015260ff8160e01c1661038083015260ff8160e81c166103a083015260ff8160f01c166103c083015260f81c6103e082015201940192018c9186949593610aff565b9096506020813d6020116113db575b816113cb6020938361341c565b81010312610e8f5751955f610a7f565b3d91506113be565b634e487b7160e01b5f52603260045260245ffd5b634e487b7160e01b5f52604160045260245ffd5b611414906133ee565b61141f57855f6109f3565b8580fd5b8480fd5b611430906133ee565b61142357845f6108d9565b634e487b7160e01b8a52601160045260248afd5b611458906133ee565b61142357845f6107bd565b61147b9060203d602011610ece57610ebf818361341c565b505f61077a565b6040513d88823e3d90fd5b634e487b7160e01b86526032600452602486fd5b90503d8087833e6114b2818361341c565b6020828281010312610e50578151906001600160401b038211610ee957808301601f838501011215610ee95781830151916114ec8361349e565b936114fa604051958661341c565b8385526020850192810160208560051b8484010101116115545780820160200192915b60208560051b828401010184106115395750505050505f610726565b602080809461154787613692565b815201940193925061151d565b8980fd5b6115639195506133ee565b5f935f61069e565b6040513d5f823e3d90fd5b925060155f527f55f448fdea98c4d29eb340757ef0a66cd03dbb9538908a6a81d96026b71ec475905f915b8183106115b8575050602082915f9401019261067d565b602091949350806001915483858701015201910190928492936115a1565b5f9550602092915092849360ff191683830152151560051b01019261067d565b60145f9081529192507fce6d7b5282bd9a3661ae061feed1dbda4e52ab073b1f9285be6e155d9c38d4ec5b83831061163657506020925001015f80610647565b600181602092949394548385870101520191019190611621565b90506020935060ff929192191683830152151560051b01015f80610647565b82516001600160a01b0316815260209283019260019290920191016105f5565b50335f9081527f20be27040b8e00df40bca0df34743417f3574a156386188f7d7f14369e5ee82b602052604090205460ff166104cf565b60405162461bcd60e51b8152602060048201526013602482015272151bdad95b8818591b5a5b881b9bdd081cd95d606a1b6044820152606490fd5b634e487b7160e01b5f52602160045260245ffd5b34610e8f575f366003190112610e8f5760206040515f8152f35b34610e8f57610100366003190112610e8f576004356001600160401b038111610e8f57611760903690600401613458565b6024356001600160401b038111610e8f5761177f903690600401613458565b6044356001600160401b038111610e8f5761179e903690600401613458565b6064356001600160401b038111610e8f5736602382011215610e8f5780600401356117c88161349e565b916117d6604051938461341c565b8183526024602084019260051b82010190368211610e8f57602401915b818310611f46575050506118056133bc565b60c4359163ffffffff83168303610e8f5761181e613966565b6009546040516370a0823160e01b81523360048201526001600160a01b0390911690602081602481855afa90811561156b575f91611f14575b50600654809110611ecf57604051636eb1769f60e11b8152336004820152306024820152602081604481865afa801561156b5782915f91611e9a575b5010611e4a57825115611e0c576118d891604051916323b872dd60e01b60208401523360248401523060448401526064830152606482526118d382613401565b613990565b600154945f198614611df85763ffffffff946001870160015560065491604051986119028a6133d2565b8952602089015260408801525f606088015260808701523360a087015260c08601524360e08601525f61010086015260843561012086015260018060a01b03166101408501521661016083015260e435610180830152805f52600b60205260405f2082519283516001600160401b0381116113f75761198b8161198585546134b5565b85613594565b6020601f8211600114611d935781906119bc939495965f92611cb2575b50508160011b915f199060031b1c19161790565b82555b60208101519283516001600160401b0381116113f7576119ef816119e660018701546134b5565b60018701613594565b6020601f8211600114611d28578190611a1f939495965f92611cb25750508160011b915f199060031b1c19161790565b60018401555b60408201519283516001600160401b0381116113f757611a5581611a4c60028501546134b5565b60028501613594565b6020601f8211600114611cbd578190611a85939495965f92611cb25750508160011b915f199060031b1c19161790565b60028201555b606083015160038110156117015760ff80196003840154169116176003820155608083015160048201556005810160018060a01b0360a0850151166001600160601b0360a01b82541617905560c0830151928351936001600160401b0385116113f757600160401b85116113f7576020906006840154866006860155808710611c65575b500193600683015f5260205f20905f5b8160051c8110611c265750601f198116808203611bcf575b60208686600b6101808860e0810151600785015561010081015160088501556101208101516009850155600a840160018060a01b036101408301511681549063ffffffff60a01b61016085015160a01b16916001600160401b0360c01b161717905501519101557f0ff47c4a3dc48719ecfd1876116e80d7d76ec7cb67248ae49449f9104747af2982604051838152a1604051908152f35b955f965f5b8184038110611bf65750505060051c0193909355602092610180600b86611b37565b9091976020611c1c6001928460ff8d5116919060ff809160031b9316831b921b19161790565b9901929101611bd4565b5f805b60208110611c3e575083820155600101611b1f565b885190989160019160209160ff60038d901b81811b199092169216901b1792019801611c29565b611c9290600686015f52835f20601f808a0160051c820192818b1680611c98575b500160051c019061357e565b86611b0f565b5f198501908154905f19908a0360031b1c1690558b611c86565b0151905086806119a8565b600283015f5260205f20905f5b601f1984168110611d10575060019394959683601f19811610611cf8575b505050811b016002820155611a8b565b01515f1960f88460031b161c19169055858080611ce8565b9091602060018192858b015181550193019101611cca565b600185015f5260205f20905f5b601f1984168110611d7b575060019394959683601f19811610611d63575b505050811b016001840155611a25565b01515f1960f88460031b161c19169055858080611d53565b9091602060018192858b015181550193019101611d35565b835f5260205f20905f5b601f1984168110611de0575060019394959683601f19811610611dc8575b505050811b0182556119bf565b01515f1960f88460031b161c19169055858080611dbb565b9091602060018192858b015181550193019101611d9d565b634e487b7160e01b5f52601160045260245ffd5b60405162461bcd60e51b815260206004820152601660248201527510dbdc995cc81b5d5cdd081899481c1c9bdd9a59195960521b6044820152606490fd5b60405162461bcd60e51b815260206004820152602260248201527f496e73756666696369656e7420617373657420746f6b656e20616c6c6f77616e604482015261636560f01b6064820152608490fd5b9150506020813d602011611ec7575b81611eb66020938361341c565b81010312610e8f578190518a611893565b3d9150611ea9565b60405162461bcd60e51b815260206004820152601860248201527f496e73756666696369656e7420617373657420746f6b656e00000000000000006044820152606490fd5b90506020813d602011611f3e575b81611f2f6020938361341c565b81010312610e8f575188611857565b3d9150611f22565b823560ff81168103610e8f578152602092830192016117f3565b34610e8f575f366003190112610e8f576003546040516001600160a01b039091168152602090f35b34610e8f575f366003190112610e8f576010546040516001600160a01b039091168152602090f35b34610e8f576060366003190112610e8f57611fc9613364565b611fd161337a565b611fd96133a6565b90611fe261373e565b60018060a01b038092816001600160601b0360a01b951685600254161760025516836003541617600355169060105416176010555f80f35b34610e8f576040366003190112610e8f5761203361337a565b6004355f525f60205260405f209060018060a01b03165f52602052602060ff60405f2054166040519015158152f35b34610e8f57610100366003190112610e8f5761207c613364565b61208461337a565b9061208d6133a6565b90612096613390565b6001600160a01b036084358181169592939290869003610e8f576120b86133bc565b9060e43594838616809603610e8f577ff0c57e16840df040f15088dc2f81fe391c3923bec73e23a9662efc9c229c6a009788549260ff8460401c1615986001600160401b0385168015908161224e575b6001149081612244575b15908161223b575b506122295767ffffffffffffffff1985166001178b558694859283918c61220a575b50612145613a29565b61214d613a29565b5f80516020613b3483398151915260ff198154169055816001600160601b0360a01b9a168a60025416176002551688601054161760105516866003541617600355856009541617600955168360055416176005551681600454161760045560c435600655600180556121be336137d3565b50600d541617600d556121cd57005b68ff00000000000000001981541690557fc7f505b2f371ae2175ee4913f4499e1f2633a7b5936321eed1cdaeb6115181d2602060405160018152a1005b68ffffffffffffffffff191668010000000000000001178d558d61213c565b60405163f92ee8a960e01b8152600490fd5b9050158c61211a565b303b159150612112565b8b9150612108565b34610e8f575f366003190112610e8f5761226e61373e565b612276613966565b5f80516020613b34833981519152600160ff198254161790557f62e78cea01bee320cd4e420270b5ea74000d11b0c9f74754ebdbfc544b05a2586020604051338152a1005b34610e8f576020366003190112610e8f576122d4613364565b6122dc61373e565b600d80546001600160a01b0319166001600160a01b0392909216919091179055005b34610e8f576020366003190112610e8f57600435600754811015610e8f5760075f527fa66cc928b5edb82af9bd49922954155ab7b0942694bea4ce44661d9a8736c68801546040516001600160a01b039091168152602090f35b34610e8f576080366003190112610e8f57612371613390565b61237961373e565b6040519060209060043560208401526024356040840152604435606084015260018060a01b03166080830152608082526123b282613401565b8151906001600160401b0382116113f7576123ce6015546134b5565b601f8111612495575b50602090601f831160011461241757508190612407935f9261240c5750508160011b915f199060031b1c19161790565b601555005b0151905083806119a8565b90601f1983169360155f527f55f448fdea98c4d29eb340757ef0a66cd03dbb9538908a6a81d96026b71ec475925f905b86821061247d5750508360019510612465575b505050811b01601555005b01515f1960f88460031b161c1916905582808061245a565b80600185968294968601518155019501930190612447565b6124de9060155f527f55f448fdea98c4d29eb340757ef0a66cd03dbb9538908a6a81d96026b71ec475601f850160051c810191602086106124e4575b601f0160051c019061357e565b836123d7565b90915081906124d1565b34610e8f575f366003190112610e8f57602060ff5f80516020613b3483398151915254166040519015158152f35b34610e8f575f366003190112610e8f576004546040516001600160a01b039091168152602090f35b34610e8f575f366003190112610e8f576005546040516001600160a01b039091168152602090f35b34610e8f575f366003190112610e8f5761258461373e565b5f80516020613b34833981519152805460ff8116156125cf5760ff191690557f5db9ee0a495bf2e6ff9c91a7834c1ba4fdd244a5e8aa4e537bd38aeae4b073aa6020604051338152a1005b604051638dfc202b60e01b8152600490fd5b34610e8f576040366003190112610e8f576125fa61337a565b336001600160a01b0382160361261857612616906004356138f4565b005b60405163334bd91960e11b8152600490fd5b34610e8f575f366003190112610e8f576002546040516001600160a01b039091168152602090f35b34610e8f576040366003190112610e8f5761261660043561267161337a565b90805f525f602052612689600160405f200154613794565b613878565b34610e8f57602080600319360112610e8f57600d546126b360ff8260a01c16156135ce565b60ff60a01b19908116600160a01b17600d556004355f908152600b83526040902060058101546001600160a01b03908116919033831480156127ca575b6126f99061360b565b6003820180549260ff84166003811015611701576127179015613646565b60078101544311156127855760040180545f90915560ff19909316600217905560095460405163a9059cbb60e01b968101969096526001600160a01b0390931660248601526044850191909152919261277a929091166118d38260648101610814565b600d5416600d555f80f35b60405162461bcd60e51b815260048101889052601e60248201527f4170706c69636174696f6e206973206e6f74206d6174757265642079657400006044820152606490fd5b507f5d8e12c39142ff96d79d04d15d1ba1269e4fe57bb9d26f43523628b34ba108ec5f9081528086526040808220338352875290205460ff166126f0565b34610e8f5760e0366003190112610e8f5760c4356001600160a01b03811690819003610e8f5761283661373e565b60405190602090600435602084015260243560408401526044356060840152606435608084015260843560a084015260a43560c084015260e083015260e082526101008201906001600160401b0391838110838211176113f75760405282519182116113f7576128a76014546134b5565b601f8111612963575b50602090601f83116001146128e5575081906128e0935f9261240c5750508160011b915f199060031b1c19161790565b601455005b90601f1983169360145f527fce6d7b5282bd9a3661ae061feed1dbda4e52ab073b1f9285be6e155d9c38d4ec925f905b86821061294b5750508360019510612933575b505050811b01601455005b01515f1960f88460031b161c19169055828080612928565b80600185968294968601518155019501930190612915565b6129ab9060145f527fce6d7b5282bd9a3661ae061feed1dbda4e52ab073b1f9285be6e155d9c38d4ec601f850160051c810191602086106124e457601f0160051c019061357e565b836128b0565b34610e8f576020366003190112610e8f576129ca613364565b6129d261373e565b600980546001600160a01b0319166001600160a01b0392909216919091179055005b34610e8f576020366003190112610e8f576004355f525f6020526020600160405f200154604051908152f35b34610e8f576020366003190112610e8f575f610180604051612a41816133d2565b6060815260606020820152606060408201528260608201528260808201528260a0820152606060c08201528260e08201528261010082015282610120820152826101408201528261016082015201526004355f52600b60205260405f20604051612aaa816133d2565b604051612abb8161052281866134ed565b8152604051612ad18161052281600187016134ed565b6020820152604051612aea8161052281600287016134ed565b604082015260ff60038301541660038110156117015760608201526004820154608082015260058201546001600160a01b031660a08201526040516006830180548083525f918252602080832090840195939291905b81601f84011061309c5795612c5d928492600b97985491818110613088575b818110613071575b81811061305a575b818110613043575b81811061302d575b818110613016575b818110612fff575b818110612fe8575b818110612fd1575b818110612fba575b818110612fa3575b818110612f8c575b818110612f75575b818110612f5e575b818110612f47575b818110612f30575b818110612f19575b818110612f02575b818110612eeb575b818110612ed4575b818110612ebd575b818110612ea6575b818110612e8f575b818110612e78575b818110612e61575b818110612e4a575b818110612e33575b818110612e1c575b818110612e05575b818110612dee575b818110612dd7575b10612dc9575b50038261341c565b60c0840152600781015460e08401526008810154610100840152600981015461012084015263ffffffff600a82015460018060a01b03811661014086015260a01c16610160840152015461018082015260405160208152612cfe612ce8612cd284516101a060208601526101c0850190613326565b6020850151848203601f19016040860152613326565b6040840151838203601f19016060850152613326565b60608301516003811015611701576080830152608083015160a083015260018060a01b0360a08401511660c083015260c083015190601f198382030160e0840152602080835192838152019201905f5b818110612db0575050506101808360e08495015161010085015261010081015161012085015261012081015161014085015260018060a01b036101408201511661016085015263ffffffff610160820151168285015201516101a08301520390f35b825160ff16845260209384019390920191600101612d4e565b60f81c815260200187612c55565b92602060019160ff8560f01c168152019301612c4f565b92602060019160ff8560e81c168152019301612c47565b92602060019160ff8560e01c168152019301612c3f565b92602060019160ff8560d81c168152019301612c37565b92602060019160ff8560d01c168152019301612c2f565b92602060019160ff8560c81c168152019301612c27565b92602060019160ff8560c01c168152019301612c1f565b92602060019160ff8560b81c168152019301612c17565b92602060019160ff8560b01c168152019301612c0f565b92602060019160ff8560a81c168152019301612c07565b92602060019160ff8560a01c168152019301612bff565b92602060019160ff8560981c168152019301612bf7565b92602060019160ff8560901c168152019301612bef565b92602060019160ff8560881c168152019301612be7565b92602060019160ff8560801c168152019301612bdf565b92602060019160ff8560781c168152019301612bd7565b92602060019160ff8560701c168152019301612bcf565b92602060019160ff8560681c168152019301612bc7565b92602060019160ff8560601c168152019301612bbf565b92602060019160ff8560581c168152019301612bb7565b92602060019160ff8560501c168152019301612baf565b92602060019160ff8560481c168152019301612ba7565b92602060019160ff8560401c168152019301612b9f565b92602060019160ff8560381c168152019301612b97565b92602060019160ff8560301c168152019301612b8f565b92602060019160ff8560281c168152019301612b87565b92602060019160ff85831c168152019301612b7f565b92602060019160ff8560181c168152019301612b77565b92602060019160ff8560101c168152019301612b6f565b92602060019160ff8560081c168152019301612b67565b92602060019160ff85168152019301612b5f565b956001610400602092895460ff8116825260ff8160081c168583015260ff8160101c16604083015260ff8160181c16606083015260ff81861c16608083015260ff8160281c1660a083015260ff8160301c1660c083015260ff8160381c1660e083015260ff8160401c1661010083015260ff8160481c1661012083015260ff8160501c1661014083015260ff8160581c1661016083015260ff8160601c1661018083015260ff8160681c166101a083015260ff8160701c166101c083015260ff8160781c166101e083015260ff8160801c1661020083015260ff8160881c1661022083015260ff8160901c1661024083015260ff8160981c1661026083015260ff8160a01c1661028083015260ff8160a81c166102a083015260ff8160b01c166102c083015260ff8160b81c166102e083015260ff8160c01c1661030083015260ff8160c81c1661032083015260ff8160d01c1661034083015260ff8160d81c1661036083015260ff8160e01c1661038083015260ff8160e81c166103a083015260ff8160f01c166103c083015260f81c6103e0820152019701920191612b40565b34610e8f575f366003190112610e8f57600c546040516001600160a01b039091168152602090f35b34610e8f575f366003190112610e8f576009546040516001600160a01b039091168152602090f35b34610e8f575f366003190112610e8f576013546040516001600160a01b039091168152602090f35b34610e8f575f366003190112610e8f576020600a54604051908152f35b34610e8f576020366003190112610e8f576004359063ffffffff60e01b8216809203610e8f57602091637965db0b60e01b8114908115613315575b5015158152f35b6301ffc9a760e01b1490508361330e565b91908251928382525f5b848110613350575050825f602080949584010152601f8019910116010190565b602081830181015184830182015201613330565b600435906001600160a01b0382168203610e8f57565b602435906001600160a01b0382168203610e8f57565b606435906001600160a01b0382168203610e8f57565b604435906001600160a01b0382168203610e8f57565b60a435906001600160a01b0382168203610e8f57565b6101a081019081106001600160401b038211176113f757604052565b6001600160401b0381116113f757604052565b60a081019081106001600160401b038211176113f757604052565b90601f801991011681019081106001600160401b038211176113f757604052565b6001600160401b0381116113f757601f01601f191660200190565b81601f82011215610e8f5780359061346f8261343d565b9261347d604051948561341c565b82845260208383010111610e8f57815f926020809301838601378301015290565b6001600160401b0381116113f75760051b60200190565b90600182811c921680156134e3575b60208310146134cf57565b634e487b7160e01b5f52602260045260245ffd5b91607f16916134c4565b80545f93926134fb826134b5565b918282526020936001916001811690815f1461355f5750600114613521575b5050505050565b90939495505f92919252835f2092845f945b83861061354b57505050500101905f8080808061351a565b805485870183015294019385908201613533565b60ff19168685015250505090151560051b010191505f8080808061351a565b818110613589575050565b5f815560010161357e565b9190601f81116135a357505050565b6135cc925f5260205f20906020601f840160051c830193106124e457601f0160051c019061357e565b565b156135d557565b60405162461bcd60e51b815260206004820152600e60248201526d31b0b73737ba103932b2b73a32b960911b6044820152606490fd5b1561361257565b60405162461bcd60e51b815260206004820152600c60248201526b2737ba10383937b837b9b2b960a11b6044820152606490fd5b1561364d57565b60405162461bcd60e51b815260206004820152601960248201527f4170706c69636174696f6e206973206e6f7420616374697665000000000000006044820152606490fd5b51906001600160a01b0382168203610e8f57565b90816020910312610e8f57518015158103610e8f5790565b5f929181546136cc816134b5565b9260019180831690811561372357506001146136e9575b50505050565b9091929394505f5260209060205f20905f915b858310613712575050505001905f8080806136e3565b8054858401529183019181016136fc565b60ff191684525050508115159091020191505f8080806136e3565b335f9081527fad3228b676f7d3cd4284a5443f17f1962b36e491b30a40b2405849e597ba5fb5602052604090205460ff161561377657565b60405163e2517d3f60e01b81523360048201525f6024820152604490fd5b805f525f60205260405f20335f5260205260ff60405f205416156137b55750565b6044906040519063e2517d3f60e01b82523360048301526024820152fd5b6001600160a01b03165f8181527fad3228b676f7d3cd4284a5443f17f1962b36e491b30a40b2405849e597ba5fb5602052604090205460ff16613873575f8181527fad3228b676f7d3cd4284a5443f17f1962b36e491b30a40b2405849e597ba5fb560205260408120805460ff191660011790553391907f2f8788117e7eff1d82e926ec794901d17c78024a50270940304540a733656f0d8180a4600190565b505f90565b90815f525f60205260405f209060018060a01b031690815f5260205260ff60405f205416155f146138ee57815f525f60205260405f20815f5260205260405f20600160ff1982541617905533917f2f8788117e7eff1d82e926ec794901d17c78024a50270940304540a733656f0d5f80a4600190565b50505f90565b90815f525f60205260405f209060018060a01b031690815f5260205260ff60405f2054165f146138ee57815f525f60205260405f20815f5260205260405f2060ff19815416905533917ff6391f5c32d9c69d2a47ea670b442974b53935d1edc7fd64eb21e047a839171b5f80a4600190565b60ff5f80516020613b34833981519152541661397e57565b60405163d93c066560e01b8152600490fd5b5f806139d89260018060a01b03169360208151910182865af13d15613a21573d906139ba8261343d565b916139c8604051938461341c565b82523d5f602084013e5b83613ad0565b8051908115159182613a06575b50506139ee5750565b60249060405190635274afe760e01b82526004820152fd5b613a1992506020809183010191016136a6565b155f806139e5565b6060906139d2565b60ff7ff0c57e16840df040f15088dc2f81fe391c3923bec73e23a9662efc9c229c6a005460401c1615613a5857565b604051631afcd79f60e31b8152600490fd5b6e5af43d82803e903d91602b57fd5bf390763d602d80600a3d3981f3363d3d373d3d3d363d7300000062ffffff8260881c16175f5260781b17602052603760095ff0906001600160a01b03821615613abe57565b6040516330be1a3d60e21b8152600490fd5b90613af75750805115613ae557805190602001fd5b604051630a12f52160e11b8152600490fd5b81511580613b2a575b613b08575090565b604051639996b31560e01b81526001600160a01b039091166004820152602490fd5b50803b15613b0056fecd5ed15c6e187e77e9aee88184c21f4f2182ab5827cb3b7e07fbedcd63f03300a2646970667358221220930ff4f044acb19b1b8febb2798a37eda0f2abbc049fa961a9865f271b6ab80a64736f6c63430008160033","linkReferences":{}},"methodIdentifiers":{"DEFAULT_ADMIN_ROLE()":"a217fddf","WITHDRAW_ROLE()":"e02023a1","allDAOs(uint256)":"b4136bd8","allTokens(uint256)":"634282af","allTradingTokens(uint256)":"e887b1cc","applicationThreshold()":"ddf44275","assetToken()":"1083f761","daoImplementation()":"9d699326","defaultDelegatee()":"0c4cb55c","executeApplication(uint256,bool)":"aa3d000a","getApplication(uint256)":"1f2f4bfd","getRoleAdmin(bytes32)":"248a9ca3","gov()":"12d43a51","grantRole(bytes32,address)":"2f2ff15d","hasRole(bytes32,address)":"91d14854","initialize(address,address,address,address,address,address,uint256,address)":"8e659c08","maturityDuration()":"063513b7","nft()":"47ccca02","pause()":"8456cb59","paused()":"5c975abb","proposeAgent(string,string,string,uint8[],bytes32,address,uint32,uint256)":"9e4ec30a","renounceRole(bytes32,address)":"36568abe","revokeRole(bytes32,address)":"d547741f","setApplicationThreshold(uint256)":"bd1cf258","setAssetToken(address)":"26bde5aa","setImplementations(address,address,address)":"9300d238","setMaturityDuration(uint256)":"d739ac29","setTokenAdmin(address)":"f7457594","setTokenSupplyParams(uint256,uint256,uint256,uint256,uint256,uint256,address)":"2a7d4a1f","setTokenTaxParams(uint256,uint256,uint256,address)":"5ca3cedf","setUniswapRouter(address)":"bea9849e","setVault(address)":"6817031b","supportsInterface(bytes4)":"01ffc9a7","tbaRegistry()":"468d198d","tokenImplementation()":"2f3a3d5d","totalAgents()":"c5053712","unpause()":"3f4ba83a","veTokenImplementation()":"9cbe0bac","withdraw(uint256)":"2e1a7d4d"},"id":18}