{"abi":[{"type":"constructor","inputs":[],"stateMutability":"nonpayable"},{"type":"receive","stateMutability":"payable"},{"type":"function","name":"BALLOT_TYPEHASH","inputs":[],"outputs":[{"name":"","type":"bytes32","internalType":"bytes32"}],"stateMutability":"view"},{"type":"function","name":"CLOCK_MODE","inputs":[],"outputs":[{"name":"","type":"string","internalType":"string"}],"stateMutability":"view"},{"type":"function","name":"COUNTING_MODE","inputs":[],"outputs":[{"name":"","type":"string","internalType":"string"}],"stateMutability":"pure"},{"type":"function","name":"EXTENDED_BALLOT_TYPEHASH","inputs":[],"outputs":[{"name":"","type":"bytes32","internalType":"bytes32"}],"stateMutability":"view"},{"type":"function","name":"cancel","inputs":[{"name":"proposalId","type":"uint256","internalType":"uint256"}],"outputs":[],"stateMutability":"nonpayable"},{"type":"function","name":"cancel","inputs":[{"name":"targets","type":"address[]","internalType":"address[]"},{"name":"values","type":"uint256[]","internalType":"uint256[]"},{"name":"calldatas","type":"bytes[]","internalType":"bytes[]"},{"name":"descriptionHash","type":"bytes32","internalType":"bytes32"}],"outputs":[{"name":"","type":"uint256","internalType":"uint256"}],"stateMutability":"nonpayable"},{"type":"function","name":"castVote","inputs":[{"name":"proposalId","type":"uint256","internalType":"uint256"},{"name":"support","type":"uint8","internalType":"uint8"}],"outputs":[{"name":"","type":"uint256","internalType":"uint256"}],"stateMutability":"nonpayable"},{"type":"function","name":"castVoteBySig","inputs":[{"name":"proposalId","type":"uint256","internalType":"uint256"},{"name":"support","type":"uint8","internalType":"uint8"},{"name":"voter","type":"address","internalType":"address"},{"name":"signature","type":"bytes","internalType":"bytes"}],"outputs":[{"name":"","type":"uint256","internalType":"uint256"}],"stateMutability":"nonpayable"},{"type":"function","name":"castVoteWithReason","inputs":[{"name":"proposalId","type":"uint256","internalType":"uint256"},{"name":"support","type":"uint8","internalType":"uint8"},{"name":"reason","type":"string","internalType":"string"}],"outputs":[{"name":"","type":"uint256","internalType":"uint256"}],"stateMutability":"nonpayable"},{"type":"function","name":"castVoteWithReasonAndParams","inputs":[{"name":"proposalId","type":"uint256","internalType":"uint256"},{"name":"support","type":"uint8","internalType":"uint8"},{"name":"reason","type":"string","internalType":"string"},{"name":"params","type":"bytes","internalType":"bytes"}],"outputs":[{"name":"","type":"uint256","internalType":"uint256"}],"stateMutability":"nonpayable"},{"type":"function","name":"castVoteWithReasonAndParamsBySig","inputs":[{"name":"proposalId","type":"uint256","internalType":"uint256"},{"name":"support","type":"uint8","internalType":"uint8"},{"name":"voter","type":"address","internalType":"address"},{"name":"reason","type":"string","internalType":"string"},{"name":"params","type":"bytes","internalType":"bytes"},{"name":"signature","type":"bytes","internalType":"bytes"}],"outputs":[{"name":"","type":"uint256","internalType":"uint256"}],"stateMutability":"nonpayable"},{"type":"function","name":"clock","inputs":[],"outputs":[{"name":"","type":"uint48","internalType":"uint48"}],"stateMutability":"view"},{"type":"function","name":"eip712Domain","inputs":[],"outputs":[{"name":"fields","type":"bytes1","internalType":"bytes1"},{"name":"name","type":"string","internalType":"string"},{"name":"version","type":"string","internalType":"string"},{"name":"chainId","type":"uint256","internalType":"uint256"},{"name":"verifyingContract","type":"address","internalType":"address"},{"name":"salt","type":"bytes32","internalType":"bytes32"},{"name":"extensions","type":"uint256[]","internalType":"uint256[]"}],"stateMutability":"view"},{"type":"function","name":"execute","inputs":[{"name":"targets","type":"address[]","internalType":"address[]"},{"name":"values","type":"uint256[]","internalType":"uint256[]"},{"name":"calldatas","type":"bytes[]","internalType":"bytes[]"},{"name":"descriptionHash","type":"bytes32","internalType":"bytes32"}],"outputs":[{"name":"","type":"uint256","internalType":"uint256"}],"stateMutability":"payable"},{"type":"function","name":"execute","inputs":[{"name":"proposalId","type":"uint256","internalType":"uint256"}],"outputs":[],"stateMutability":"payable"},{"type":"function","name":"getMaturity","inputs":[{"name":"proposalId","type":"uint256","internalType":"uint256"}],"outputs":[{"name":"","type":"uint256","internalType":"uint256"}],"stateMutability":"view"},{"type":"function","name":"getPastScore","inputs":[{"name":"account","type":"address","internalType":"address"},{"name":"timepoint","type":"uint256","internalType":"uint256"}],"outputs":[{"name":"","type":"uint256","internalType":"uint256"}],"stateMutability":"view"},{"type":"function","name":"getVotes","inputs":[{"name":"account","type":"address","internalType":"address"},{"name":"timepoint","type":"uint256","internalType":"uint256"}],"outputs":[{"name":"","type":"uint256","internalType":"uint256"}],"stateMutability":"view"},{"type":"function","name":"getVotesWithParams","inputs":[{"name":"account","type":"address","internalType":"address"},{"name":"timepoint","type":"uint256","internalType":"uint256"},{"name":"params","type":"bytes","internalType":"bytes"}],"outputs":[{"name":"","type":"uint256","internalType":"uint256"}],"stateMutability":"view"},{"type":"function","name":"hasVoted","inputs":[{"name":"proposalId","type":"uint256","internalType":"uint256"},{"name":"account","type":"address","internalType":"address"}],"outputs":[{"name":"","type":"bool","internalType":"bool"}],"stateMutability":"view"},{"type":"function","name":"hashProposal","inputs":[{"name":"targets","type":"address[]","internalType":"address[]"},{"name":"values","type":"uint256[]","internalType":"uint256[]"},{"name":"calldatas","type":"bytes[]","internalType":"bytes[]"},{"name":"descriptionHash","type":"bytes32","internalType":"bytes32"}],"outputs":[{"name":"","type":"uint256","internalType":"uint256"}],"stateMutability":"pure"},{"type":"function","name":"initialize","inputs":[{"name":"name","type":"string","internalType":"string"},{"name":"token","type":"address","internalType":"contract IVotes"},{"name":"agentNft","type":"address","internalType":"address"},{"name":"threshold","type":"uint256","internalType":"uint256"},{"name":"votingPeriod_","type":"uint32","internalType":"uint32"}],"outputs":[],"stateMutability":"nonpayable"},{"type":"function","name":"name","inputs":[],"outputs":[{"name":"","type":"string","internalType":"string"}],"stateMutability":"view"},{"type":"function","name":"nonces","inputs":[{"name":"owner","type":"address","internalType":"address"}],"outputs":[{"name":"","type":"uint256","internalType":"uint256"}],"stateMutability":"view"},{"type":"function","name":"onERC1155BatchReceived","inputs":[{"name":"","type":"address","internalType":"address"},{"name":"","type":"address","internalType":"address"},{"name":"","type":"uint256[]","internalType":"uint256[]"},{"name":"","type":"uint256[]","internalType":"uint256[]"},{"name":"","type":"bytes","internalType":"bytes"}],"outputs":[{"name":"","type":"bytes4","internalType":"bytes4"}],"stateMutability":"nonpayable"},{"type":"function","name":"onERC1155Received","inputs":[{"name":"","type":"address","internalType":"address"},{"name":"","type":"address","internalType":"address"},{"name":"","type":"uint256","internalType":"uint256"},{"name":"","type":"uint256","internalType":"uint256"},{"name":"","type":"bytes","internalType":"bytes"}],"outputs":[{"name":"","type":"bytes4","internalType":"bytes4"}],"stateMutability":"nonpayable"},{"type":"function","name":"onERC721Received","inputs":[{"name":"","type":"address","internalType":"address"},{"name":"","type":"address","internalType":"address"},{"name":"","type":"uint256","internalType":"uint256"},{"name":"","type":"bytes","internalType":"bytes"}],"outputs":[{"name":"","type":"bytes4","internalType":"bytes4"}],"stateMutability":"nonpayable"},{"type":"function","name":"proposalCount","inputs":[],"outputs":[{"name":"","type":"uint256","internalType":"uint256"}],"stateMutability":"view"},{"type":"function","name":"proposalDeadline","inputs":[{"name":"proposalId","type":"uint256","internalType":"uint256"}],"outputs":[{"name":"","type":"uint256","internalType":"uint256"}],"stateMutability":"view"},{"type":"function","name":"proposalDetails","inputs":[{"name":"proposalId","type":"uint256","internalType":"uint256"}],"outputs":[{"name":"","type":"address[]","internalType":"address[]"},{"name":"","type":"uint256[]","internalType":"uint256[]"},{"name":"","type":"bytes[]","internalType":"bytes[]"},{"name":"","type":"bytes32","internalType":"bytes32"}],"stateMutability":"view"},{"type":"function","name":"proposalDetailsAt","inputs":[{"name":"index","type":"uint256","internalType":"uint256"}],"outputs":[{"name":"","type":"uint256","internalType":"uint256"},{"name":"","type":"address[]","internalType":"address[]"},{"name":"","type":"uint256[]","internalType":"uint256[]"},{"name":"","type":"bytes[]","internalType":"bytes[]"},{"name":"","type":"bytes32","internalType":"bytes32"}],"stateMutability":"view"},{"type":"function","name":"proposalEta","inputs":[{"name":"proposalId","type":"uint256","internalType":"uint256"}],"outputs":[{"name":"","type":"uint256","internalType":"uint256"}],"stateMutability":"view"},{"type":"function","name":"proposalNeedsQueuing","inputs":[{"name":"","type":"uint256","internalType":"uint256"}],"outputs":[{"name":"","type":"bool","internalType":"bool"}],"stateMutability":"view"},{"type":"function","name":"proposalProposer","inputs":[{"name":"proposalId","type":"uint256","internalType":"uint256"}],"outputs":[{"name":"","type":"address","internalType":"address"}],"stateMutability":"view"},{"type":"function","name":"proposalSnapshot","inputs":[{"name":"proposalId","type":"uint256","internalType":"uint256"}],"outputs":[{"name":"","type":"uint256","internalType":"uint256"}],"stateMutability":"view"},{"type":"function","name":"proposalThreshold","inputs":[],"outputs":[{"name":"","type":"uint256","internalType":"uint256"}],"stateMutability":"view"},{"type":"function","name":"proposalVotes","inputs":[{"name":"proposalId","type":"uint256","internalType":"uint256"}],"outputs":[{"name":"againstVotes","type":"uint256","internalType":"uint256"},{"name":"forVotes","type":"uint256","internalType":"uint256"},{"name":"abstainVotes","type":"uint256","internalType":"uint256"}],"stateMutability":"view"},{"type":"function","name":"propose","inputs":[{"name":"targets","type":"address[]","internalType":"address[]"},{"name":"values","type":"uint256[]","internalType":"uint256[]"},{"name":"calldatas","type":"bytes[]","internalType":"bytes[]"},{"name":"description","type":"string","internalType":"string"}],"outputs":[{"name":"","type":"uint256","internalType":"uint256"}],"stateMutability":"nonpayable"},{"type":"function","name":"queue","inputs":[{"name":"targets","type":"address[]","internalType":"address[]"},{"name":"values","type":"uint256[]","internalType":"uint256[]"},{"name":"calldatas","type":"bytes[]","internalType":"bytes[]"},{"name":"descriptionHash","type":"bytes32","internalType":"bytes32"}],"outputs":[{"name":"","type":"uint256","internalType":"uint256"}],"stateMutability":"nonpayable"},{"type":"function","name":"queue","inputs":[{"name":"proposalId","type":"uint256","internalType":"uint256"}],"outputs":[],"stateMutability":"nonpayable"},{"type":"function","name":"quorum","inputs":[{"name":"blockNumber","type":"uint256","internalType":"uint256"}],"outputs":[{"name":"","type":"uint256","internalType":"uint256"}],"stateMutability":"view"},{"type":"function","name":"quorumDenominator","inputs":[],"outputs":[{"name":"","type":"uint256","internalType":"uint256"}],"stateMutability":"pure"},{"type":"function","name":"quorumNumerator","inputs":[{"name":"timepoint","type":"uint256","internalType":"uint256"}],"outputs":[{"name":"","type":"uint256","internalType":"uint256"}],"stateMutability":"view"},{"type":"function","name":"quorumNumerator","inputs":[],"outputs":[{"name":"","type":"uint256","internalType":"uint256"}],"stateMutability":"view"},{"type":"function","name":"relay","inputs":[{"name":"target","type":"address","internalType":"address"},{"name":"value","type":"uint256","internalType":"uint256"},{"name":"data","type":"bytes","internalType":"bytes"}],"outputs":[],"stateMutability":"payable"},{"type":"function","name":"scoreOf","inputs":[{"name":"account","type":"address","internalType":"address"}],"outputs":[{"name":"","type":"uint256","internalType":"uint256"}],"stateMutability":"view"},{"type":"function","name":"setProposalThreshold","inputs":[{"name":"newProposalThreshold","type":"uint256","internalType":"uint256"}],"outputs":[],"stateMutability":"nonpayable"},{"type":"function","name":"setVotingDelay","inputs":[{"name":"newVotingDelay","type":"uint48","internalType":"uint48"}],"outputs":[],"stateMutability":"nonpayable"},{"type":"function","name":"setVotingPeriod","inputs":[{"name":"newVotingPeriod","type":"uint32","internalType":"uint32"}],"outputs":[],"stateMutability":"nonpayable"},{"type":"function","name":"state","inputs":[{"name":"proposalId","type":"uint256","internalType":"uint256"}],"outputs":[{"name":"","type":"uint8","internalType":"enum IGovernor.ProposalState"}],"stateMutability":"view"},{"type":"function","name":"supportsInterface","inputs":[{"name":"interfaceId","type":"bytes4","internalType":"bytes4"}],"outputs":[{"name":"","type":"bool","internalType":"bool"}],"stateMutability":"view"},{"type":"function","name":"token","inputs":[],"outputs":[{"name":"","type":"address","internalType":"contract IERC5805"}],"stateMutability":"view"},{"type":"function","name":"totalScore","inputs":[],"outputs":[{"name":"","type":"uint256","internalType":"uint256"}],"stateMutability":"view"},{"type":"function","name":"updateQuorumNumerator","inputs":[{"name":"newQuorumNumerator","type":"uint256","internalType":"uint256"}],"outputs":[],"stateMutability":"nonpayable"},{"type":"function","name":"version","inputs":[],"outputs":[{"name":"","type":"string","internalType":"string"}],"stateMutability":"view"},{"type":"function","name":"votingDelay","inputs":[],"outputs":[{"name":"","type":"uint256","internalType":"uint256"}],"stateMutability":"view"},{"type":"function","name":"votingPeriod","inputs":[],"outputs":[{"name":"","type":"uint256","internalType":"uint256"}],"stateMutability":"view"},{"type":"event","name":"EIP712DomainChanged","inputs":[],"anonymous":false},{"type":"event","name":"Initialized","inputs":[{"name":"version","type":"uint64","indexed":false,"internalType":"uint64"}],"anonymous":false},{"type":"event","name":"ProposalCanceled","inputs":[{"name":"proposalId","type":"uint256","indexed":false,"internalType":"uint256"}],"anonymous":false},{"type":"event","name":"ProposalCreated","inputs":[{"name":"proposalId","type":"uint256","indexed":false,"internalType":"uint256"},{"name":"proposer","type":"address","indexed":false,"internalType":"address"},{"name":"targets","type":"address[]","indexed":false,"internalType":"address[]"},{"name":"values","type":"uint256[]","indexed":false,"internalType":"uint256[]"},{"name":"signatures","type":"string[]","indexed":false,"internalType":"string[]"},{"name":"calldatas","type":"bytes[]","indexed":false,"internalType":"bytes[]"},{"name":"voteStart","type":"uint256","indexed":false,"internalType":"uint256"},{"name":"voteEnd","type":"uint256","indexed":false,"internalType":"uint256"},{"name":"description","type":"string","indexed":false,"internalType":"string"}],"anonymous":false},{"type":"event","name":"ProposalExecuted","inputs":[{"name":"proposalId","type":"uint256","indexed":false,"internalType":"uint256"}],"anonymous":false},{"type":"event","name":"ProposalQueued","inputs":[{"name":"proposalId","type":"uint256","indexed":false,"internalType":"uint256"},{"name":"etaSeconds","type":"uint256","indexed":false,"internalType":"uint256"}],"anonymous":false},{"type":"event","name":"ProposalThresholdSet","inputs":[{"name":"oldProposalThreshold","type":"uint256","indexed":false,"internalType":"uint256"},{"name":"newProposalThreshold","type":"uint256","indexed":false,"internalType":"uint256"}],"anonymous":false},{"type":"event","name":"QuorumNumeratorUpdated","inputs":[{"name":"oldQuorumNumerator","type":"uint256","indexed":false,"internalType":"uint256"},{"name":"newQuorumNumerator","type":"uint256","indexed":false,"internalType":"uint256"}],"anonymous":false},{"type":"event","name":"ValidatorEloRating","inputs":[{"name":"proposalId","type":"uint256","indexed":false,"internalType":"uint256"},{"name":"voter","type":"address","indexed":false,"internalType":"address"},{"name":"score","type":"uint256","indexed":false,"internalType":"uint256"},{"name":"votes","type":"uint8[]","indexed":false,"internalType":"uint8[]"}],"anonymous":false},{"type":"event","name":"VoteCast","inputs":[{"name":"voter","type":"address","indexed":true,"internalType":"address"},{"name":"proposalId","type":"uint256","indexed":false,"internalType":"uint256"},{"name":"support","type":"uint8","indexed":false,"internalType":"uint8"},{"name":"weight","type":"uint256","indexed":false,"internalType":"uint256"},{"name":"reason","type":"string","indexed":false,"internalType":"string"}],"anonymous":false},{"type":"event","name":"VoteCastWithParams","inputs":[{"name":"voter","type":"address","indexed":true,"internalType":"address"},{"name":"proposalId","type":"uint256","indexed":false,"internalType":"uint256"},{"name":"support","type":"uint8","indexed":false,"internalType":"uint8"},{"name":"weight","type":"uint256","indexed":false,"internalType":"uint256"},{"name":"reason","type":"string","indexed":false,"internalType":"string"},{"name":"params","type":"bytes","indexed":false,"internalType":"bytes"}],"anonymous":false},{"type":"event","name":"VotingDelaySet","inputs":[{"name":"oldVotingDelay","type":"uint256","indexed":false,"internalType":"uint256"},{"name":"newVotingDelay","type":"uint256","indexed":false,"internalType":"uint256"}],"anonymous":false},{"type":"event","name":"VotingPeriodSet","inputs":[{"name":"oldVotingPeriod","type":"uint256","indexed":false,"internalType":"uint256"},{"name":"newVotingPeriod","type":"uint256","indexed":false,"internalType":"uint256"}],"anonymous":false},{"type":"error","name":"CheckpointUnorderedInsertion","inputs":[]},{"type":"error","name":"ERC5805FutureLookup","inputs":[{"name":"timepoint","type":"uint256","internalType":"uint256"},{"name":"clock","type":"uint48","internalType":"uint48"}]},{"type":"error","name":"FailedInnerCall","inputs":[]},{"type":"error","name":"GovernorAlreadyCastVote","inputs":[{"name":"voter","type":"address","internalType":"address"}]},{"type":"error","name":"GovernorAlreadyQueuedProposal","inputs":[{"name":"proposalId","type":"uint256","internalType":"uint256"}]},{"type":"error","name":"GovernorDisabledDeposit","inputs":[]},{"type":"error","name":"GovernorInsufficientProposerVotes","inputs":[{"name":"proposer","type":"address","internalType":"address"},{"name":"votes","type":"uint256","internalType":"uint256"},{"name":"threshold","type":"uint256","internalType":"uint256"}]},{"type":"error","name":"GovernorInvalidProposalLength","inputs":[{"name":"targets","type":"uint256","internalType":"uint256"},{"name":"calldatas","type":"uint256","internalType":"uint256"},{"name":"values","type":"uint256","internalType":"uint256"}]},{"type":"error","name":"GovernorInvalidQuorumFraction","inputs":[{"name":"quorumNumerator","type":"uint256","internalType":"uint256"},{"name":"quorumDenominator","type":"uint256","internalType":"uint256"}]},{"type":"error","name":"GovernorInvalidSignature","inputs":[{"name":"voter","type":"address","internalType":"address"}]},{"type":"error","name":"GovernorInvalidVoteType","inputs":[]},{"type":"error","name":"GovernorInvalidVotingPeriod","inputs":[{"name":"votingPeriod","type":"uint256","internalType":"uint256"}]},{"type":"error","name":"GovernorNonexistentProposal","inputs":[{"name":"proposalId","type":"uint256","internalType":"uint256"}]},{"type":"error","name":"GovernorNotQueuedProposal","inputs":[{"name":"proposalId","type":"uint256","internalType":"uint256"}]},{"type":"error","name":"GovernorOnlyExecutor","inputs":[{"name":"account","type":"address","internalType":"address"}]},{"type":"error","name":"GovernorOnlyProposer","inputs":[{"name":"account","type":"address","internalType":"address"}]},{"type":"error","name":"GovernorQueueNotImplemented","inputs":[]},{"type":"error","name":"GovernorRestrictedProposer","inputs":[{"name":"proposer","type":"address","internalType":"address"}]},{"type":"error","name":"GovernorUnexpectedProposalState","inputs":[{"name":"proposalId","type":"uint256","internalType":"uint256"},{"name":"current","type":"uint8","internalType":"enum IGovernor.ProposalState"},{"name":"expectedStates","type":"bytes32","internalType":"bytes32"}]},{"type":"error","name":"InvalidAccountNonce","inputs":[{"name":"account","type":"address","internalType":"address"},{"name":"currentNonce","type":"uint256","internalType":"uint256"}]},{"type":"error","name":"InvalidInitialization","inputs":[]},{"type":"error","name":"NotInitializing","inputs":[]},{"type":"error","name":"QueueEmpty","inputs":[]},{"type":"error","name":"QueueFull","inputs":[]},{"type":"error","name":"SafeCastOverflowedUintDowncast","inputs":[{"name":"bits","type":"uint8","internalType":"uint8"},{"name":"value","type":"uint256","internalType":"uint256"}]}],"bytecode":{"object":"0x608060405234801562000010575f80fd5b506200001b62000021565b620000d5565b7ff0c57e16840df040f15088dc2f81fe391c3923bec73e23a9662efc9c229c6a00805468010000000000000000900460ff1615620000725760405163f92ee8a960e01b815260040160405180910390fd5b80546001600160401b0390811614620000d25780546001600160401b0319166001600160401b0390811782556040519081527fc7f505b2f371ae2175ee4913f4499e1f2633a7b5936321eed1cdaeb6115181d29060200160405180910390a15b50565b61585c80620000e35f395ff3fe608060405260043610610369575f3560e01c80637b3c71d3116101c8578063c006719f116100fd578063deaaa7cc1161009d578063f23a6e611161006d578063f23a6e6114610b18578063f8ce560a14610b43578063fc0c546a14610b62578063fe0d94c114610b76575f80fd5b8063deaaa7cc14610a88578063e540d01d14610abb578063eb9019d414610ada578063ece40cc114610af9575f80fd5b8063c59057e4116100d8578063c59057e4146109f1578063da35c66414610a10578063dd4e2ba514610a24578063ddf0b00914610a69575f80fd5b8063c006719f146109ab578063c01f9e37146109bf578063c28bc2fa146109de575f80fd5b806397c3d33411610168578063a9a9529411610143578063a9a952941461090b578063ab58fb8e1461092a578063b58131b01461096c578063bc197c8114610980575f80fd5b806397c3d334146108c45780639a802a6d146108d8578063a7713a70146108f7575f80fd5b80637f1e7d41116101a35780637f1e7d411461083457806384b0196e146108535780638ff262e31461087a57806391ddadf414610899575f80fd5b80637b3c71d3146107a35780637d5e81e2146107c25780637ecebe00146107e1575f80fd5b80633932abb11161029e57806354fd4d501161023e5780635f398a14116102195780635f398a141461072757806360c4247f14610746578063718f7cd4146107655780637905188714610784575f80fd5b806354fd4d50146106c057806356781388146106e95780635b8d0e0d14610708575f80fd5b80634385963211610279578063438596321461061b578063452115d61461063a5780634bf5d7e914610659578063544ffc9c1461066d575f80fd5b80633932abb1146105bc5780633e4f49e6146105d057806340e58ee5146105fc575f80fd5b8063160cbed7116103095780632656227d116102e45780632656227d146105275780632d63f6931461053a5780632e82db94146105595780632fe3e26114610589575f80fd5b8063160cbed7146104ba57806316e9eaec146104d9578063209e1f0d14610508575f80fd5b806306fdde031161034457806306fdde0314610400578063133af45614610421578063143489d014610440578063150b7a0214610477575f80fd5b806301ffc9a71461037657806302a251a3146103aa57806306f3f9e6146103e1575f80fd5b3661037257005b005b5f80fd5b348015610381575f80fd5b50610395610390366004614516565b610b89565b60405190151581526020015b60405180910390f35b3480156103b5575f80fd5b505f8051602061578783398151915254600160301b900463ffffffff165b6040519081526020016103a1565b3480156103ec575f80fd5b506103706103fb36600461453d565b610bdf565b34801561040b575f80fd5b50610414610bf3565b6040516103a191906145a1565b34801561042c575f80fd5b506103d361043b3660046145c7565b610c94565b34801561044b575f80fd5b5061045f61045a36600461453d565b610cc3565b6040516001600160a01b0390911681526020016103a1565b348015610482575f80fd5b506104a161049136600461469e565b630a85bd0160e11b949350505050565b6040516001600160e01b031990911681526020016103a1565b3480156104c5575f80fd5b506103d36104d4366004614862565b610ce9565b3480156104e4575f80fd5b506104f86104f336600461453d565b610d40565b6040516103a194939291906149b5565b348015610513575f80fd5b506103d36105223660046149ff565b610f4e565b6103d3610535366004614862565b610fcd565b348015610545575f80fd5b506103d361055436600461453d565b611108565b348015610564575f80fd5b5061057861057336600461453d565b611134565b6040516103a1959493929190614a29565b348015610594575f80fd5b506103d37f3e83946653575f9a39005e1545185629e92736b7528ab20ca3816f315424a81181565b3480156105c7575f80fd5b506103d3611190565b3480156105db575f80fd5b506105ef6105ea36600461453d565b6111ae565b6040516103a19190614aae565b348015610607575f80fd5b5061037061061636600461453d565b611278565b348015610626575f80fd5b50610395610635366004614abc565b61143d565b348015610645575f80fd5b506103d3610654366004614862565b611469565b348015610664575f80fd5b506104146114d9565b348015610678575f80fd5b506106a561068736600461453d565b5f908152602081905260409020805460018201546002909201549092565b604080519384526020840192909252908201526060016103a1565b3480156106cb575f80fd5b506040805180820190915260018152603160f81b6020820152610414565b3480156106f4575f80fd5b506103d3610703366004614af8565b611580565b348015610713575f80fd5b506103d3610722366004614b5f565b6115a7565b348015610732575f80fd5b506103d3610741366004614c13565b6116e6565b348015610751575f80fd5b506103d361076036600461453d565b611739565b348015610770575f80fd5b5061037061077f366004614ca5565b6117e6565b34801561078f575f80fd5b5061037061079e366004614d2f565b611940565b3480156107ae575f80fd5b506103d36107bd366004614d4a565b611951565b3480156107cd575f80fd5b506103d36107dc366004614da1565b611997565b3480156107ec575f80fd5b506103d36107fb3660046145c7565b6001600160a01b03165f9081527f5ab42ced628888259c08ac98db1eb0cf702fc1501344311d8b100cd1bfe4bb00602052604090205490565b34801561083f575f80fd5b506103d361084e36600461453d565b611b39565b34801561085e575f80fd5b50610867611b72565b6040516103a19796959493929190614e3a565b348015610885575f80fd5b506103d3610894366004614ea9565b611c1b565b3480156108a4575f80fd5b506108ad611ccd565b60405165ffffffffffff90911681526020016103a1565b3480156108cf575f80fd5b506127106103d3565b3480156108e3575f80fd5b506103d36108f2366004614ef8565b611d3b565b348015610902575f80fd5b506103d3611d47565b348015610916575f80fd5b5061039561092536600461453d565b505f90565b348015610935575f80fd5b506103d361094436600461453d565b5f9081525f80516020615767833981519152602052604090206001015465ffffffffffff1690565b348015610977575f80fd5b506103d3611d81565b34801561098b575f80fd5b506104a161099a366004614f4c565b63bc197c8160e01b95945050505050565b3480156109b6575f80fd5b506003546103d3565b3480156109ca575f80fd5b506103d36109d936600461453d565b611d8a565b6103706109ec366004614fd8565b611de8565b3480156109fc575f80fd5b506103d3610a0b366004614862565b611e64565b348015610a1b575f80fd5b506103d3611e9d565b348015610a2f575f80fd5b506040805180820190915260208082527f737570706f72743d627261766f2671756f72756d3d666f722c6162737461696e90820152610414565b348015610a74575f80fd5b50610370610a8336600461453d565b611ea6565b348015610a93575f80fd5b506103d37ff2aad550cf55f045cb27e9c559f9889fdfb6e6cdaa032301d6ea397784ae51d781565b348015610ac6575f80fd5b50610370610ad5366004615017565b612065565b348015610ae5575f80fd5b506103d3610af43660046149ff565b612076565b348015610b04575f80fd5b50610370610b1336600461453d565b612095565b348015610b23575f80fd5b506104a1610b32366004615030565b63f23a6e6160e01b95945050505050565b348015610b4e575f80fd5b506103d3610b5d36600461453d565b6120a6565b348015610b6d575f80fd5b5061045f6120b0565b610370610b8436600461453d565b6120de565b5f6001600160e01b031982166332a2ad4360e11b1480610bb957506001600160e01b03198216630271189760e51b145b80610bd457506301ffc9a760e01b6001600160e01b03198316145b92915050565b905090565b610be761229d565b610bf0816122e4565b50565b5f805160206158078339815191528054606091908190610c1290615093565b80601f0160208091040260200160405190810160405280929190818152602001828054610c3e90615093565b8015610c895780601f10610c6057610100808354040283529160200191610c89565b820191905f5260205f20905b815481529060010190602001808311610c6c57829003601f168201915b505050505091505090565b6001600160a01b0381165f908152600160205260408120610cb49061239b565b6001600160d01b031692915050565b5f9081525f8051602061576783398151915260205260409020546001600160a01b031690565b5f5f8051602061580783398151915281610d0587878787611e64565b9050610d1a81610d1560046123df565b612401565b505f604051634844252360e11b815260040160405180910390fd5b509695505050505050565b606080805f805f805160206157a78339815191525f87815260018201602090815260408083208151815460a094810282018501909352608081018381529596509394909284928491840182828015610dbf57602002820191905f5260205f20905b81546001600160a01b03168152600190910190602001808311610da1575b5050505050815260200160018201805480602002602001604051908101604052809291908181526020018280548015610e1557602002820191905f5260205f20905b815481526020019060010190808311610e01575b5050505050815260200160028201805480602002602001604051908101604052809291908181526020015f905b82821015610eea578382905f5260205f20018054610e5f90615093565b80601f0160208091040260200160405190810160405280929190818152602001828054610e8b90615093565b8015610ed65780601f10610ead57610100808354040283529160200191610ed6565b820191905f5260205f20905b815481529060010190602001808311610eb957829003601f168201915b505050505081526020019060010190610e42565b505050508152602001600382015481525050905080606001515f801b03610f2c57604051636ad0607560e01b8152600481018890526024015b60405180910390fd5b8051602082015160408301516060909301519199909850919650945092505050565b5f80610f58611ccd565b90508065ffffffffffff168310610f9357604051637669fc0f60e11b81526004810184905265ffffffffffff82166024820152604401610f23565b610fbc610f9f8461243e565b6001600160a01b0386165f90815260016020526040902090612474565b6001600160d01b0316949350505050565b5f5f8051602061580783398151915281610fe987878787611e64565b905061100981610ff960056123df565b61100360046123df565b17612401565b505f8181526001830160205260409020805460ff60f01b1916600160f01b179055306110323090565b6001600160a01b0316146110bd575f5b87518110156110bb57306001600160a01b0316888281518110611067576110676150cb565b60200260200101516001600160a01b0316036110b3576110b3868281518110611092576110926150cb565b6020026020010151805190602001208460020161251690919063ffffffff16565b600101611042565b505b6110ca8188888888612586565b6040518181527f712ae1383f79ac853f8d882153778e0260ef8f03b504e2866e0593e04d2b291f906020015b60405180910390a19695505050505050565b5f9081525f805160206157678339815191526020526040902054600160a01b900465ffffffffffff1690565b5f6060808083805f805160206157a783398151915290505f815f018881548110611160576111606150cb565b905f5260205f20015490505f805f8061117885610d40565b979f929e50909c509a50949850939650505050505050565b5f610bda5f805160206157878339815191525465ffffffffffff1690565b5f806111b98361265b565b905060018160078111156111cf576111cf614a7a565b03610bd4575f838152602081905260409020600101546111ed6120b0565b6001600160a01b0316638e539e8c61120486611108565b6040518263ffffffff1660e01b815260040161122291815260200190565b602060405180830381865afa15801561123d573d5f803e3d5ffd5b505050506040513d601f19601f8201168201806040525081019061126191906150df565b8103611271575060049392505050565b5092915050565b5f8181527f7fd223d3380145bd26132714391e777c488a0df7ac2dd4b66419d8549fb3a601602090815260409182902080548351818402810184019094528084525f805160206157a78339815191529391926114379291849183018282801561130857602002820191905f5260205f20905b81546001600160a01b031681526001909101906020018083116112ea575b50505050508260010180548060200260200160405190810160405280929190818152602001828054801561135957602002820191905f5260205f20905b815481526020019060010190808311611345575b505050505083600201805480602002602001604051908101604052809291908181526020015f905b82821015611429578382905f5260205f2001805461139e90615093565b80601f01602080910402602001604051908101604052809291908181526020018280546113ca90615093565b80156114155780601f106113ec57610100808354040283529160200191611415565b820191905f5260205f20905b8154815290600101906020018083116113f857829003601f168201915b505050505081526020019060010190611381565b505050508460030154611469565b50505050565b5f828152602081815260408083206001600160a01b038516845260030190915290205460ff1692915050565b5f8061147786868686611e64565b905061148681610d155f6123df565b5061149081610cc3565b6001600160a01b0316336001600160a01b0316146114c35760405163233d98e360e01b8152336004820152602401610f23565b6114cf868686866127bb565b9695505050505050565b60606114e36120b0565b6001600160a01b0316634bf5d7e96040518163ffffffff1660e01b81526004015f60405180830381865afa92505050801561153f57506040513d5f823e601f3d908101601f1916820160405261153c91908101906150f6565b60015b61157b575060408051808201909152601d81527f6d6f64653d626c6f636b6e756d6265722666726f6d3d64656661756c74000000602082015290565b919050565b5f8033905061159f84828560405180602001604052805f81525061287a565b949350505050565b5f8061166b876116657f3e83946653575f9a39005e1545185629e92736b7528ab20ca3816f315424a8118c8c8c6115dd8e6128a4565b8d8d6040516115ed92919061515e565b60405180910390208c8051906020012060405160200161164a9796959493929190968752602087019590955260ff9390931660408601526001600160a01b03919091166060850152608084015260a083015260c082015260e00190565b604051602081830303815290604052805190602001206128e5565b85612911565b905080611696576040516394ab6c0760e01b81526001600160a01b0388166004820152602401610f23565b6116d989888a89898080601f0160208091040260200160405190810160405280939291908181526020018383808284375f920191909152508b9250612966915050565b9998505050505050505050565b5f8033905061172e87828888888080601f0160208091040260200160405190810160405280939291908181526020018383808284375f920191909152508a9250612966915050565b979650505050505050565b7fe770710421fd2cad75ad828c61aa98f2d77d423a440b67872d0f65554148e00080545f9190828261176c600184615181565b8154811061177c5761177c6150cb565b5f918252602090912001805490915065ffffffffffff811690600160301b90046001600160d01b03168682116117bf576001600160d01b03169695505050505050565b6117d26117cb8861243e565b8690612474565b6001600160d01b0316979650505050505050565b7ff0c57e16840df040f15088dc2f81fe391c3923bec73e23a9662efc9c229c6a008054600160401b810460ff1615906001600160401b03165f8115801561182a5750825b90505f826001600160401b031660011480156118455750303b155b905081158015611853575080155b156118715760405163f92ee8a960e01b815260040160405180910390fd5b845467ffffffffffffffff19166001178555831561189b57845460ff60401b1916600160401b1785555b6118a48a612a2e565b6118af5f8789612a66565b6118b7612a7e565b6118c089612a88565b6118cb6113ec612a99565b6118d3612a7e565b600480546001600160a01b0319166001600160a01b038a16179055831561193457845460ff60401b19168555604051600181527fc7f505b2f371ae2175ee4913f4499e1f2633a7b5936321eed1cdaeb6115181d29060200160405180910390a15b50505050505050505050565b61194861229d565b610bf081612aaa565b5f803390506114cf86828787878080601f0160208091040260200160405190810160405280939291908181526020018383808284375f9201919091525061287a92505050565b5f336119a38184612b2c565b6119cb5760405163d9b3955760e01b81526001600160a01b0382166004820152602401610f23565b5f6119f18260016119da611ccd565b6119e49190615194565b65ffffffffffff16612076565b90505f6119fc611d81565b90505f60045f9054906101000a90046001600160a01b03166001600160a01b0316639a7e8c8e6040518163ffffffff1660e01b8152600401602060405180830381865afa158015611a4f573d5f803e3d5ffd5b505050506040513d601f19601f82011682018060405250810190611a7391906151b3565b90508183108015611af55750806001600160a01b0316636e9960c36040518163ffffffff1660e01b8152600401602060405180830381865afa158015611abb573d5f803e3d5ffd5b505050506040513d601f19601f82011682018060405250810190611adf91906151b3565b6001600160a01b0316846001600160a01b031614155b15611b2c57604051636121770b60e11b81526001600160a01b03851660048201526024810184905260448101839052606401610f23565b6116d98989898988612c14565b5f81815260208181526040808320600101546002909252822054611b6b9061271090611b669084906151e2565b612c22565b9392505050565b5f60608082808083815f805160206157c78339815191528054909150158015611b9d57506001810154155b611be15760405162461bcd60e51b81526020600482015260156024820152741152540dcc4c8e88155b9a5b9a5d1a585b1a5e9959605a1b6044820152606401610f23565b611be9612c37565b611bf1612c75565b604080515f80825260208201909252600f60f81b9c939b5091995046985030975095509350915050565b5f80611c88846116657ff2aad550cf55f045cb27e9c559f9889fdfb6e6cdaa032301d6ea397784ae51d7898989611c518b6128a4565b60408051602081019690965285019390935260ff90911660608401526001600160a01b0316608083015260a082015260c00161164a565b905080611cb3576040516394ab6c0760e01b81526001600160a01b0385166004820152602401610f23565b6114cf86858760405180602001604052805f81525061287a565b5f611cd66120b0565b6001600160a01b03166391ddadf46040518163ffffffff1660e01b8152600401602060405180830381865afa925050508015611d2f575060408051601f3d908101601f19168201909252611d2c91810190615201565b60015b61157b57610bda612cb3565b5f61159f848484612cbd565b5f7fe770710421fd2cad75ad828c61aa98f2d77d423a440b67872d0f65554148e000611d728161239b565b6001600160d01b031691505090565b5f610bda612d37565b5f8181525f8051602061576783398151915260205260408120545f8051602061580783398151915290611dd990600160d01b810463ffffffff1690600160a01b900465ffffffffffff1661521c565b65ffffffffffff169392505050565b611df061229d565b5f80856001600160a01b0316858585604051611e0d92919061515e565b5f6040518083038185875af1925050503d805f8114611e47576040519150601f19603f3d011682016040523d82523d5f602084013e611e4c565b606091505b5091509150611e5b8282612d4f565b50505050505050565b5f84848484604051602001611e7c94939291906149b5565b60408051601f19818403018152919052805160209091012095945050505050565b5f610bda612d6b565b5f8181527f7fd223d3380145bd26132714391e777c488a0df7ac2dd4b66419d8549fb3a601602090815260409182902080548351818402810184019094528084525f805160206157a783398151915293919261143792918491830182828015611f3657602002820191905f5260205f20905b81546001600160a01b03168152600190910190602001808311611f18575b505050505082600101805480602002602001604051908101604052809291908181526020018280548015611f8757602002820191905f5260205f20905b815481526020019060010190808311611f73575b505050505083600201805480602002602001604051908101604052809291908181526020015f905b82821015612057578382905f5260205f20018054611fcc90615093565b80601f0160208091040260200160405190810160405280929190818152602001828054611ff890615093565b80156120435780601f1061201a57610100808354040283529160200191612043565b820191905f5260205f20905b81548152906001019060200180831161202657829003601f168201915b505050505081526020019060010190611faf565b505050508460030154610ce9565b61206d61229d565b610bf081612d80565b5f611b6b838361209060408051602081019091525f815290565b612cbd565b61209d61229d565b610bf081612e2d565b5f610bd482612e7a565b7f3ba4977254e415696610a40ebf2258dbfa0ec6a2ff64e84bfe715ff16977cc00546001600160a01b031690565b5f8181527f7fd223d3380145bd26132714391e777c488a0df7ac2dd4b66419d8549fb3a601602090815260409182902080548351818402810184019094528084525f805160206157a78339815191529391926114379291849183018282801561216e57602002820191905f5260205f20905b81546001600160a01b03168152600190910190602001808311612150575b5050505050826001018054806020026020016040519081016040528092919081815260200182805480156121bf57602002820191905f5260205f20905b8154815260200190600101908083116121ab575b505050505083600201805480602002602001604051908101604052809291908181526020015f905b8282101561228f578382905f5260205f2001805461220490615093565b80601f016020809104026020016040519081016040528092919081815260200182805461223090615093565b801561227b5780601f106122525761010080835404028352916020019161227b565b820191905f5260205f20905b81548152906001019060200180831161225e57829003601f168201915b5050505050815260200190600101906121e7565b505050508460030154610fcd565b5f80516020615807833981519152303314610bf0576040516347096e4760e01b8152336004820152602401610f23565b806122da83600201612f0f565b036122cd575b5050565b7fe770710421fd2cad75ad828c61aa98f2d77d423a440b67872d0f65554148e000612710808311156123335760405163243e544560e01b81526004810184905260248101829052604401610f23565b5f61233c611d47565b905061235a612349611ccd565b61235286612f8b565b859190612fbe565b505060408051828152602081018690527f0553476bf02ef2726e8ce5ced78d63e26e602e4a2257b1f559418e24b4633997910160405180910390a150505050565b80545f9080156123d7576123c1836123b4600184615181565b5f91825260209091200190565b54600160301b90046001600160d01b0316611b6b565b5f9392505050565b5f8160078111156123f2576123f2614a7a565b600160ff919091161b92915050565b5f8061240c846111ae565b90505f83612419836123df565b1603611b6b578381846040516331b75e4d60e01b8152600401610f239392919061523b565b5f65ffffffffffff821115612470576040516306dfcc6560e41b81526030600482015260248101839052604401610f23565b5090565b81545f90818160058111156124d0575f61248d84612fd8565b6124979085615181565b5f8881526020902090915081015465ffffffffffff90811690871610156124c0578091506124ce565b6124cb81600161525d565b92505b505b5f6124dd878785856130bc565b9050801561250a576124f4876123b4600184615181565b54600160301b90046001600160d01b031661172e565b5f979650505050505050565b81546001600160801b03600160801b82048116918116600183019091160361255157604051638acb5f2760e01b815260040160405180910390fd5b6001600160801b038082165f90815260018086016020526040909120939093558354919092018216600160801b029116179055565b5f5b8451811015612653575f808683815181106125a5576125a56150cb565b60200260200101516001600160a01b03168684815181106125c8576125c86150cb565b60200260200101518685815181106125e2576125e26150cb565b60200260200101516040516125f79190615270565b5f6040518083038185875af1925050503d805f8114612631576040519150601f19603f3d011682016040523d82523d5f602084013e612636565b606091505b50915091506126458282612d4f565b505050806001019050612588565b505050505050565b5f8181525f805160206157678339815191526020526040812080545f80516020615807833981519152919060ff600160f01b8204811691600160f81b90041681156126ac5750600795945050505050565b80156126be5750600295945050505050565b5f6126c887611108565b9050805f036126ed57604051636ad0607560e01b815260048101889052602401610f23565b5f6126f6611ccd565b65ffffffffffff16905080821061271457505f979650505050505050565b5f61271e89611d8a565b90508181106127365750600198975050505050505050565b61273f8961311b565b158061275e57505f898152602081905260409020805460019091015411155b156127725750600398975050505050505050565b5f8981525f80516020615767833981519152602052604090206001015465ffffffffffff165f036127ac5750600498975050505050505050565b50600598975050505050505050565b5f5f80516020615807833981519152816127d787878787611e64565b9050612825816127e760076123df565b6127f160066123df565b6127fb60026123df565b600161280860078261528b565b612813906002615384565b61281d9190615181565b181818612401565b505f8181526001830160205260409081902080546001600160f81b0316600160f81b179055517f789cf55be980739dad1d0699b93b58e806b51c9d96619bfa8fe0a28abaa7b30c906110f69083815260200190565b5f61289b8585858561289660408051602081019091525f815290565b612966565b95945050505050565b6001600160a01b03165f9081527f5ab42ced628888259c08ac98db1eb0cf702fc1501344311d8b100cd1bfe4bb006020526040902080546001810190915590565b5f610bd46128f1613151565b8360405161190160f01b8152600281019290925260228201526042902090565b5f805f61291e858561315a565b5090925090505f81600381111561293757612937614a7a565b1480156129555750856001600160a01b0316826001600160a01b0316145b806114cf57506114cf8686866131a3565b5f80612972878761143d565b90505f6129828888888888613279565b9050811580156129975750612997888861143d565b15612a1a5760035f81546129aa90615392565b909155506129f46129ba4361243e565b6129cb6129c68a610c94565b612f8b565b6129d69060016153aa565b6001600160a01b038a165f9081526001602052604090209190612fbe565b50505f8451118015612a0957508560ff166001145b15612a1a57612a1a87898387613353565b8560ff1660010361172e5761172e8861355c565b612a366135f8565b612a5d81612a586040805180820190915260018152603160f81b602082015290565b613641565b610bf0816136a0565b612a6e6135f8565b612a798383836136c1565b505050565b612a866135f8565b565b612a906135f8565b610bf0816136e4565b612aa16135f8565b610bf08161372d565b5f80516020615787833981519152546040805165ffffffffffff9283168152918316602083015280515f805160206157e7833981519152927fc565b045403dc03c2eea82b81a0465edad9e2e7fc4d97e11421c209da93d7a9392908290030190a1600101805465ffffffffffff191665ffffffffffff92909216919091179055565b80515f906034811015612b43576001915050610bd4565b82810160131901516001600160a01b031981166b046e0e4dee0dee6cae47a60f60a31b14612b7657600192505050610bd4565b5f80612b83602885615181565b90505b83811015612bf3575f80612bb9888481518110612ba557612ba56150cb565b01602001516001600160f81b031916613735565b9150915081612bd15760019650505050505050610bd4565b8060ff166004856001600160a01b0316901b1793505050806001019050612b86565b50856001600160a01b0316816001600160a01b031614935050505092915050565b5f6114cf86868686866137c5565b5f818310612c305781611b6b565b5090919050565b7fa16a46d94261c7517cc8ff89f61c0ce93598e3c849801011dee649a6a557d10280546060915f805160206157c783398151915291610c1290615093565b7fa16a46d94261c7517cc8ff89f61c0ce93598e3c849801011dee649a6a557d10380546060915f805160206157c783398151915291610c1290615093565b5f610bda4361243e565b5f612cc66120b0565b604051630748d63560e31b81526001600160a01b038681166004830152602482018690529190911690633a46b1a890604401602060405180830381865afa158015612d13573d5f803e3d5ffd5b505050506040513d601f19601f8201168201806040525081019061159f91906150df565b5f805f805160206157e78339815191525b5492915050565b606082612d6457612d5f8261388f565b610bd4565b5080610bd4565b5f805f805160206157a7833981519152612d48565b5f805160206157e783398151915263ffffffff82165f03612db65760405163f1cfbf0560e01b81525f6004820152602401610f23565b60018101546040805163ffffffff600160301b9093048316815291841660208301527f7e3f7f0708a84de9203036abaa450dccc85ad5ff52f78c170f3edb55cf5e8828910160405180910390a1600101805463ffffffff909216600160301b0269ffffffff00000000000019909216919091179055565b5f805160206157e78339815191528054604080519182526020820184905280517fccb45da8d5717e6c4544694297c4ba5cf151d455c9bb0ed4fc7a38411bc054619281900390910190a155565b5f612710612e8783611739565b612e8f6120b0565b6001600160a01b0316638e539e8c856040518263ffffffff1660e01b8152600401612ebc91815260200190565b602060405180830381865afa158015612ed7573d5f803e3d5ffd5b505050506040513d601f19601f82011682018060405250810190612efb91906150df565b612f0591906153ca565b610bd491906151e2565b80545f906001600160801b0380821691600160801b9004168103612f46576040516375e52f4f60e01b815260040160405180910390fd5b6001600160801b038181165f908152600185810160205260408220805492905585546fffffffffffffffffffffffffffffffff19169301909116919091179092555090565b5f6001600160d01b03821115612470576040516306dfcc6560e41b815260d0600482015260248101839052604401610f23565b5f80612fcb8585856138b8565b915091505b935093915050565b5f815f03612fe757505f919050565b5f6001612ff384613a2e565b901c6001901b9050600181848161300c5761300c6151ce565b048201901c90506001818481613024576130246151ce565b048201901c9050600181848161303c5761303c6151ce565b048201901c90506001818481613054576130546151ce565b048201901c9050600181848161306c5761306c6151ce565b048201901c90506001818481613084576130846151ce565b048201901c9050600181848161309c5761309c6151ce565b048201901c9050611b6b818285816130b6576130b66151ce565b04612c22565b5f5b81831015613113575f6130d18484613ac1565b5f8781526020902090915065ffffffffffff86169082015465ffffffffffff1611156130ff5780925061310d565b61310a81600161525d565b93505b506130be565b509392505050565b5f8181526020819052604081206002810154600182015461313c919061525d565b613148610b5d85611108565b11159392505050565b5f610bda613adb565b5f805f8351604103613191576020840151604085015160608601515f1a61318388828585613b4e565b95509550955050505061319c565b505081515f91506002905b9250925092565b5f805f856001600160a01b031685856040516024016131c39291906153e1565b60408051601f198184030181529181526020820180516001600160e01b0316630b135d3f60e11b179052516131f89190615270565b5f60405180830381855afa9150503d805f8114613230576040519150601f19603f3d011682016040523d82523d5f602084013e613235565b606091505b509150915081801561324957506020815110155b80156114cf57508051630b135d3f60e11b9061326e90830160209081019084016150df565b149695505050505050565b5f61328886610d1560016123df565b505f61329d8661329789611108565b85612cbd565b90506132ac8787878487613c16565b82515f0361330057856001600160a01b03167fb8e138887d0aa13bab447e82de9d5c1777041ecd21ca36ba824ff1e6c07ddda4888784886040516132f394939291906153f9565b60405180910390a26114cf565b856001600160a01b03167fe2babfbac5889a709b63bb7f598b324e08bc5a4fb9ec647fb3cbc9ec07eb87128887848888604051613341959493929190615420565b60405180910390a29695505050505050565b5f60045f9054906101000a90046001600160a01b03166001600160a01b0316639a7e8c8e6040518163ffffffff1660e01b8152600401602060405180830381865afa1580156133a4573d5f803e3d5ffd5b505050506040513d601f19601f820116820180604052508101906133c891906151b3565b6040516331a9108f60e11b8152600481018690529091505f906001600160a01b03831690636352211e90602401602060405180830381865afa158015613410573d5f803e3d5ffd5b505050506040513d601f19601f8201168201806040525081019061343491906151b3565b90506001600160a01b03811661344b575050611437565b604051638209c69960e01b8152600481018690525f906001600160a01b03841690638209c69990602401602060405180830381865afa158015613490573d5f803e3d5ffd5b505050506040513d601f19601f820116820180604052508101906134b49190615459565b9050806134c357505050611437565b5f848060200190518101906134d89190615478565b90505f6134e58883613d21565b90506134f187826153ca565b5f898152600260205260408120805490919061350e90849061525d565b90915550506040517ff1cd7e1d668275f9d580c0adbf414afb0b7163a48f0bed7353f9cbab029b797590613549908a908c9085908790615533565b60405180910390a1505050505050505050565b5f818152602081905260409020600101546135756120b0565b6001600160a01b0316638e539e8c61358c84611108565b6040518263ffffffff1660e01b81526004016135aa91815260200190565b602060405180830381865afa1580156135c5573d5f803e3d5ffd5b505050506040513d601f19601f820116820180604052508101906135e991906150df565b81036122e0576122e0826120de565b7ff0c57e16840df040f15088dc2f81fe391c3923bec73e23a9662efc9c229c6a0054600160401b900460ff16612a8657604051631afcd79f60e31b815260040160405180910390fd5b6136496135f8565b5f805160206157c78339815191527fa16a46d94261c7517cc8ff89f61c0ce93598e3c849801011dee649a6a557d10261368284826155a3565b506003810161369183826155a3565b505f8082556001909101555050565b6136a86135f8565b5f8051602061580783398151915280612a7983826155a3565b6136c96135f8565b6136d283612aaa565b6136db82612d80565b612a7981612e2d565b6136ec6135f8565b7f3ba4977254e415696610a40ebf2258dbfa0ec6a2ff64e84bfe715ff16977cc0080546001600160a01b0319166001600160a01b0392909216919091179055565b610be76135f8565b5f8060f883901c602f8111801561374f5750603a8160ff16105b1561376457600194602f199091019350915050565b8060ff16604010801561377a575060478160ff16105b1561378f576001946036199091019350915050565b8060ff1660601080156137a5575060678160ff16105b156137ba576001946056199091019350915050565b505f93849350915050565b5f5f805160206157a7833981519152816137e288888888886140b1565b8254600181810185555f8581526020808220909301849055604080516080810182528d81528085018d90528082018c90528a518b86012060608201528583529287018452902081518051949550919390926138419284929101906143c7565b50602082810151805161385a9260018501920190614426565b506040820151805161387691600284019160209091019061445f565b5060609190910151600390910155979650505050505050565b80511561389f5780518082602001fd5b604051630a12f52160e11b815260040160405180910390fd5b82545f90819080156139d4575f6138d4876123b4600185615181565b60408051808201909152905465ffffffffffff808216808452600160301b9092046001600160d01b03166020840152919250908716101561392857604051632520601d60e01b815260040160405180910390fd5b805165ffffffffffff808816911603613974578461394b886123b4600186615181565b80546001600160d01b0392909216600160301b0265ffffffffffff9092169190911790556139c4565b6040805180820190915265ffffffffffff80881682526001600160d01b0380881660208085019182528b54600181018d555f8d81529190912094519151909216600160301b029216919091179101555b602001519250839150612fd09050565b50506040805180820190915265ffffffffffff80851682526001600160d01b0380851660208085019182528854600181018a555f8a815291822095519251909316600160301b029190931617920191909155905081612fd0565b5f80608083901c15613a4257608092831c92015b604083901c15613a5457604092831c92015b602083901c15613a6657602092831c92015b601083901c15613a7857601092831c92015b600883901c15613a8a57600892831c92015b600483901c15613a9c57600492831c92015b600283901c15613aae57600292831c92015b600183901c15610bd45760010192915050565b5f613acf60028484186151e2565b611b6b9084841661525d565b5f7f8b73c3c69bb8fe3d512ecc4cf759cc79239f7b179b0ffacaa9a75d522b39400f613b056142ed565b613b0d614355565b60408051602081019490945283019190915260608201524660808201523060a082015260c00160405160208183030381529060405280519060200120905090565b5f80807f7fffffffffffffffffffffffffffffff5d576e7357a4501ddfe92f46681b20a0841115613b8757505f91506003905082613c0c565b604080515f808252602082018084528a905260ff891692820192909252606081018790526080810186905260019060a0016020604051602081039080840390855afa158015613bd8573d5f803e3d5ffd5b5050604051601f1901519150506001600160a01b038116613c0357505f925060019150829050613c0c565b92505f91508190505b9450945094915050565b5f85815260208190526040902060021960ff851601613c355750613d1a565b6001600160a01b0385165f90815260038201602052604090205460ff1615613c7b576040516371c6af4960e01b81526001600160a01b0386166004820152602401610f23565b6001600160a01b0385165f9081526003820160205260409020805460ff1916600117905560ff8416613cc45782815f015f828254613cb9919061525d565b909155506126539050565b5f1960ff851601613ce25782816001015f828254613cb9919061525d565b60011960ff851601613d015782816002015f828254613cb9919061525d565b6040516303599be160e11b815260040160405180910390fd5b5050505050565b6004805460408051634d3f464760e11b815290515f9384936001600160a01b031692639a7e8c8e92818301926020928290030181865afa158015613d67573d5f803e3d5ffd5b505050506040513d601f19601f82011682018060405250810190613d8b91906151b3565b90505f60045f9054906101000a90046001600160a01b03166001600160a01b031663b9f7fe536040518163ffffffff1660e01b8152600401602060405180830381865afa158015613dde573d5f803e3d5ffd5b505050506040513d601f19601f82011682018060405250810190613e0291906151b3565b60405163ccc16f6960e01b8152600481018790529091505f906001600160a01b0384169063ccc16f6990602401602060405180830381865afa158015613e4a573d5f803e3d5ffd5b505050506040513d601f19601f82011682018060405250810190613e6e91906150df565b6040516312903cd960e11b8152600481018890529091505f906001600160a01b0385169063252079b290602401602060405180830381865afa158015613eb6573d5f803e3d5ffd5b505050506040513d601f19601f82011682018060405250810190613eda919061565e565b6040516387e2d55360e01b81526004810184905260ff821660248201529091505f906001600160a01b038516906387e2d55390604401602060405180830381865afa158015613f2b573d5f803e3d5ffd5b505050506040513d601f19601f82011682018060405250810190613f4f91906150df565b9050606481156140a557604051637f1e7d4160e01b8152600481018390526001600160a01b03861690637f1e7d4190602401602060405180830381865afa158015613f9c573d5f803e3d5ffd5b505050506040513d601f19601f82011682018060405250810190613fc091906150df565b905060045f9054906101000a90046001600160a01b03166001600160a01b031663c052bfb66040518163ffffffff1660e01b8152600401602060405180830381865afa158015614012573d5f803e3d5ffd5b505050506040513d601f19601f8201168201806040525081019061403691906151b3565b6001600160a01b031663e6023b80828a6040518363ffffffff1660e01b8152600401614063929190615679565b602060405180830381865afa15801561407e573d5f803e3d5ffd5b505050506040513d601f19601f820116820180604052508101906140a291906150df565b90505b98975050505050505050565b5f805f8051602061580783398151915290506140d68787878780519060200120611e64565b9150855187511415806140eb57508451875114155b806140f557508651155b1561412a57865185518751604051630447b05d60e41b8152600481019390935260248301919091526044820152606401610f23565b5f828152600182016020526040902054600160a01b900465ffffffffffff16156141755781614158836111ae565b6040516331b75e4d60e01b8152610f239291905f9060040161523b565b5f61417e611190565b614186611ccd565b65ffffffffffff16614198919061525d565b90505f6141be5f805160206157878339815191525463ffffffff600160301b9091041690565b5f858152600185016020526040902080546001600160a01b0319166001600160a01b0388161781559091506141f28361243e565b815465ffffffffffff91909116600160a01b0265ffffffffffff60a01b1990911617815561421f82614397565b815463ffffffff91909116600160d01b0263ffffffff60d01b1990911617815589517f7d84a6263ae0d98d3329bd7b46bb4e8d6f98cd35a7adb45c274c8b7fd5ebd5e090869088908d908d906001600160401b03811115614282576142826145e2565b6040519080825280602002602001820160405280156142b557816020015b60608152602001906001900390816142a05790505b508d896142c28a8261525d565b8f6040516142d899989796959493929190615691565b60405180910390a15050505095945050505050565b5f5f805160206157c783398151915281614305612c37565b80519091501561431d57805160209091012092915050565b8154801561432c579392505050565b7fc5d2460186f7233c927e7db2dcc703c0e500b653ca82273b7bfad8045d85a470935050505090565b5f5f805160206157c78339815191528161436d612c75565b80519091501561438557805160209091012092915050565b6001820154801561432c579392505050565b5f63ffffffff821115612470576040516306dfcc6560e41b81526020600482015260248101839052604401610f23565b828054828255905f5260205f2090810192821561441a579160200282015b8281111561441a57825182546001600160a01b0319166001600160a01b039091161782556020909201916001909101906143e5565b506124709291506144af565b828054828255905f5260205f2090810192821561441a579160200282015b8281111561441a578251825591602001919060010190614444565b828054828255905f5260205f209081019282156144a3579160200282015b828111156144a3578251829061449390826155a3565b509160200191906001019061447d565b506124709291506144c3565b5b80821115612470575f81556001016144b0565b80821115612470575f6144d682826144df565b506001016144c3565b5080546144eb90615093565b5f825580601f106144fa575050565b601f0160209004905f5260205f2090810190610bf091906144af565b5f60208284031215614526575f80fd5b81356001600160e01b031981168114611b6b575f80fd5b5f6020828403121561454d575f80fd5b5035919050565b5f5b8381101561456e578181015183820152602001614556565b50505f910152565b5f815180845261458d816020860160208601614554565b601f01601f19169290920160200192915050565b602081525f611b6b6020830184614576565b6001600160a01b0381168114610bf0575f80fd5b5f602082840312156145d7575f80fd5b8135611b6b816145b3565b634e487b7160e01b5f52604160045260245ffd5b604051601f8201601f191681016001600160401b038111828210171561461e5761461e6145e2565b604052919050565b5f6001600160401b0382111561463e5761463e6145e2565b50601f01601f191660200190565b5f82601f83011261465b575f80fd5b813561466e61466982614626565b6145f6565b818152846020838601011115614682575f80fd5b816020850160208301375f918101602001919091529392505050565b5f805f80608085870312156146b1575f80fd5b84356146bc816145b3565b935060208501356146cc816145b3565b92506040850135915060608501356001600160401b038111156146ed575f80fd5b6146f98782880161464c565b91505092959194509250565b5f6001600160401b0382111561471d5761471d6145e2565b5060051b60200190565b5f82601f830112614736575f80fd5b8135602061474661466983614705565b8083825260208201915060208460051b870101935086841115614767575f80fd5b602086015b84811015610d3557803561477f816145b3565b835291830191830161476c565b5f82601f83011261479b575f80fd5b813560206147ab61466983614705565b8083825260208201915060208460051b8701019350868411156147cc575f80fd5b602086015b84811015610d3557803583529183019183016147d1565b5f82601f8301126147f7575f80fd5b8135602061480761466983614705565b82815260059290921b84018101918181019086841115614825575f80fd5b8286015b84811015610d355780356001600160401b03811115614846575f80fd5b6148548986838b010161464c565b845250918301918301614829565b5f805f8060808587031215614875575f80fd5b84356001600160401b038082111561488b575f80fd5b61489788838901614727565b955060208701359150808211156148ac575f80fd5b6148b88883890161478c565b945060408701359150808211156148cd575f80fd5b506148da878288016147e8565b949793965093946060013593505050565b5f815180845260208085019450602084015f5b838110156149235781516001600160a01b0316875295820195908201906001016148fe565b509495945050505050565b5f815180845260208085019450602084015f5b8381101561492357815187529582019590820190600101614941565b5f8282518085526020808601955060208260051b840101602086015f5b848110156149a857601f19868403018952614996838351614576565b9884019892509083019060010161497a565b5090979650505050505050565b608081525f6149c760808301876148eb565b82810360208401526149d9818761492e565b905082810360408401526149ed818661495d565b91505082606083015295945050505050565b5f8060408385031215614a10575f80fd5b8235614a1b816145b3565b946020939093013593505050565b85815260a060208201525f614a4160a08301876148eb565b8281036040840152614a53818761492e565b90508281036060840152614a67818661495d565b9150508260808301529695505050505050565b634e487b7160e01b5f52602160045260245ffd5b60088110614aaa57634e487b7160e01b5f52602160045260245ffd5b9052565b60208101610bd48284614a8e565b5f8060408385031215614acd575f80fd5b823591506020830135614adf816145b3565b809150509250929050565b60ff81168114610bf0575f80fd5b5f8060408385031215614b09575f80fd5b823591506020830135614adf81614aea565b5f8083601f840112614b2b575f80fd5b5081356001600160401b03811115614b41575f80fd5b602083019150836020828501011115614b58575f80fd5b9250929050565b5f805f805f805f60c0888a031215614b75575f80fd5b873596506020880135614b8781614aea565b95506040880135614b97816145b3565b945060608801356001600160401b0380821115614bb2575f80fd5b614bbe8b838c01614b1b565b909650945060808a0135915080821115614bd6575f80fd5b614be28b838c0161464c565b935060a08a0135915080821115614bf7575f80fd5b50614c048a828b0161464c565b91505092959891949750929550565b5f805f805f60808688031215614c27575f80fd5b853594506020860135614c3981614aea565b935060408601356001600160401b0380821115614c54575f80fd5b614c6089838a01614b1b565b90955093506060880135915080821115614c78575f80fd5b50614c858882890161464c565b9150509295509295909350565b803563ffffffff8116811461157b575f80fd5b5f805f805f60a08688031215614cb9575f80fd5b85356001600160401b03811115614cce575f80fd5b614cda8882890161464c565b9550506020860135614ceb816145b3565b93506040860135614cfb816145b3565b925060608601359150614d1060808701614c92565b90509295509295909350565b65ffffffffffff81168114610bf0575f80fd5b5f60208284031215614d3f575f80fd5b8135611b6b81614d1c565b5f805f8060608587031215614d5d575f80fd5b843593506020850135614d6f81614aea565b925060408501356001600160401b03811115614d89575f80fd5b614d9587828801614b1b565b95989497509550505050565b5f805f8060808587031215614db4575f80fd5b84356001600160401b0380821115614dca575f80fd5b614dd688838901614727565b95506020870135915080821115614deb575f80fd5b614df78883890161478c565b94506040870135915080821115614e0c575f80fd5b614e18888389016147e8565b93506060870135915080821115614e2d575f80fd5b506146f98782880161464c565b60ff60f81b8816815260e060208201525f614e5860e0830189614576565b8281036040840152614e6a8189614576565b606084018890526001600160a01b038716608085015260a0840186905283810360c08501529050614e9b818561492e565b9a9950505050505050505050565b5f805f8060808587031215614ebc575f80fd5b843593506020850135614ece81614aea565b92506040850135614ede816145b3565b915060608501356001600160401b038111156146ed575f80fd5b5f805f60608486031215614f0a575f80fd5b8335614f15816145b3565b92506020840135915060408401356001600160401b03811115614f36575f80fd5b614f428682870161464c565b9150509250925092565b5f805f805f60a08688031215614f60575f80fd5b8535614f6b816145b3565b94506020860135614f7b816145b3565b935060408601356001600160401b0380821115614f96575f80fd5b614fa289838a0161478c565b94506060880135915080821115614fb7575f80fd5b614fc389838a0161478c565b93506080880135915080821115614c78575f80fd5b5f805f8060608587031215614feb575f80fd5b8435614ff6816145b3565b93506020850135925060408501356001600160401b03811115614d89575f80fd5b5f60208284031215615027575f80fd5b611b6b82614c92565b5f805f805f60a08688031215615044575f80fd5b853561504f816145b3565b9450602086013561505f816145b3565b9350604086013592506060860135915060808601356001600160401b03811115615087575f80fd5b614c858882890161464c565b600181811c908216806150a757607f821691505b6020821081036150c557634e487b7160e01b5f52602260045260245ffd5b50919050565b634e487b7160e01b5f52603260045260245ffd5b5f602082840312156150ef575f80fd5b5051919050565b5f60208284031215615106575f80fd5b81516001600160401b0381111561511b575f80fd5b8201601f8101841361512b575f80fd5b805161513961466982614626565b81815285602083850101111561514d575f80fd5b61289b826020830160208601614554565b818382375f9101908152919050565b634e487b7160e01b5f52601160045260245ffd5b81810381811115610bd457610bd461516d565b65ffffffffffff8281168282160390808211156112715761127161516d565b5f602082840312156151c3575f80fd5b8151611b6b816145b3565b634e487b7160e01b5f52601260045260245ffd5b5f826151fc57634e487b7160e01b5f52601260045260245ffd5b500490565b5f60208284031215615211575f80fd5b8151611b6b81614d1c565b65ffffffffffff8181168382160190808211156112715761127161516d565b8381526060810161524f6020830185614a8e565b826040830152949350505050565b80820180821115610bd457610bd461516d565b5f8251615281818460208701614554565b9190910192915050565b60ff8181168382160190811115610bd457610bd461516d565b600181815b808511156152de57815f19048211156152c4576152c461516d565b808516156152d157918102915b93841c93908002906152a9565b509250929050565b5f826152f457506001610bd4565b8161530057505f610bd4565b816001811461531657600281146153205761533c565b6001915050610bd4565b60ff8411156153315761533161516d565b50506001821b610bd4565b5060208310610133831016604e8410600b841016171561535f575081810a610bd4565b61536983836152a4565b805f190482111561537c5761537c61516d565b029392505050565b5f611b6b60ff8416836152e6565b5f600182016153a3576153a361516d565b5060010190565b6001600160d01b038181168382160190808211156112715761127161516d565b8082028115828204841417610bd457610bd461516d565b828152604060208201525f61159f6040830184614576565b84815260ff84166020820152826040820152608060608201525f6114cf6080830184614576565b85815260ff8516602082015283604082015260a060608201525f61544760a0830185614576565b82810360808401526140a58185614576565b5f60208284031215615469575f80fd5b81518015158114611b6b575f80fd5b5f6020808385031215615489575f80fd5b82516001600160401b0381111561549e575f80fd5b8301601f810185136154ae575f80fd5b80516154bc61466982614705565b81815260059190911b820183019083810190878311156154da575f80fd5b928401925b8284101561172e5783516154f281614aea565b825292840192908401906154df565b5f815180845260208085019450602084015f5b8381101561492357815160ff1687529582019590820190600101615514565b84815260018060a01b0384166020820152826040820152608060608201525f6114cf6080830184615501565b601f821115612a7957805f5260205f20601f840160051c810160208510156155845750805b601f840160051c820191505b81811015613d1a575f8155600101615590565b81516001600160401b038111156155bc576155bc6145e2565b6155d0816155ca8454615093565b8461555f565b602080601f831160018114615603575f84156155ec5750858301515b5f19600386901b1c1916600185901b178555612653565b5f85815260208120601f198616915b8281101561563157888601518255948401946001909101908401615612565b508582101561564e57878501515f19600388901b60f8161c191681555b5050505050600190811b01905550565b5f6020828403121561566e575f80fd5b8151611b6b81614aea565b828152604060208201525f61159f6040830184615501565b5f6101208b8352602060018060a01b038c16818501528160408501526156b98285018c6148eb565b915083820360608501526156cd828b61492e565b915083820360808501528189518084528284019150828160051b850101838c015f5b8381101561571d57601f1987840301855261570b838351614576565b948601949250908501906001016156ef565b505086810360a0880152615731818c61495d565b9450505050508560c08401528460e08401528281036101008401526157568185614576565b9c9b50505050505050505050505056fe7c712897014dbe49c045ef1299aa2d5f9e67e48eea4403efa21f1e0f3ac0cb0100d7616c8fe29c6c2fbe1d0c5bc8f2faa4c35b43746e70b24b4d532752affd017fd223d3380145bd26132714391e777c488a0df7ac2dd4b66419d8549fb3a600a16a46d94261c7517cc8ff89f61c0ce93598e3c849801011dee649a6a557d10000d7616c8fe29c6c2fbe1d0c5bc8f2faa4c35b43746e70b24b4d532752affd007c712897014dbe49c045ef1299aa2d5f9e67e48eea4403efa21f1e0f3ac0cb00a26469706673582212200fe5c96a629e6afe33f162d1ebb8721a67203ce442916f1aa8e3a4842a64dfe164736f6c63430008160033","linkReferences":{}},"methodIdentifiers":{"BALLOT_TYPEHASH()":"deaaa7cc","CLOCK_MODE()":"4bf5d7e9","COUNTING_MODE()":"dd4e2ba5","EXTENDED_BALLOT_TYPEHASH()":"2fe3e261","cancel(address[],uint256[],bytes[],bytes32)":"452115d6","cancel(uint256)":"40e58ee5","castVote(uint256,uint8)":"56781388","castVoteBySig(uint256,uint8,address,bytes)":"8ff262e3","castVoteWithReason(uint256,uint8,string)":"7b3c71d3","castVoteWithReasonAndParams(uint256,uint8,string,bytes)":"5f398a14","castVoteWithReasonAndParamsBySig(uint256,uint8,address,string,bytes,bytes)":"5b8d0e0d","clock()":"91ddadf4","eip712Domain()":"84b0196e","execute(address[],uint256[],bytes[],bytes32)":"2656227d","execute(uint256)":"fe0d94c1","getMaturity(uint256)":"7f1e7d41","getPastScore(address,uint256)":"209e1f0d","getVotes(address,uint256)":"eb9019d4","getVotesWithParams(address,uint256,bytes)":"9a802a6d","hasVoted(uint256,address)":"43859632","hashProposal(address[],uint256[],bytes[],bytes32)":"c59057e4","initialize(string,address,address,uint256,uint32)":"718f7cd4","name()":"06fdde03","nonces(address)":"7ecebe00","onERC1155BatchReceived(address,address,uint256[],uint256[],bytes)":"bc197c81","onERC1155Received(address,address,uint256,uint256,bytes)":"f23a6e61","onERC721Received(address,address,uint256,bytes)":"150b7a02","proposalCount()":"da35c664","proposalDeadline(uint256)":"c01f9e37","proposalDetails(uint256)":"16e9eaec","proposalDetailsAt(uint256)":"2e82db94","proposalEta(uint256)":"ab58fb8e","proposalNeedsQueuing(uint256)":"a9a95294","proposalProposer(uint256)":"143489d0","proposalSnapshot(uint256)":"2d63f693","proposalThreshold()":"b58131b0","proposalVotes(uint256)":"544ffc9c","propose(address[],uint256[],bytes[],string)":"7d5e81e2","queue(address[],uint256[],bytes[],bytes32)":"160cbed7","queue(uint256)":"ddf0b009","quorum(uint256)":"f8ce560a","quorumDenominator()":"97c3d334","quorumNumerator()":"a7713a70","quorumNumerator(uint256)":"60c4247f","relay(address,uint256,bytes)":"c28bc2fa","scoreOf(address)":"133af456","setProposalThreshold(uint256)":"ece40cc1","setVotingDelay(uint48)":"79051887","setVotingPeriod(uint32)":"e540d01d","state(uint256)":"3e4f49e6","supportsInterface(bytes4)":"01ffc9a7","token()":"fc0c546a","totalScore()":"c006719f","updateQuorumNumerator(uint256)":"06f3f9e6","version()":"54fd4d50","votingDelay()":"3932abb1","votingPeriod()":"02a251a3"},"id":52}