{"abi":[{"type":"function","name":"syncDeposit","inputs":[{"name":"childToken","type":"address","internalType":"address"},{"name":"amount","type":"uint256","internalType":"uint256"}],"outputs":[],"stateMutability":"nonpayable"},{"type":"function","name":"withdraw","inputs":[{"name":"childToken","type":"address","internalType":"address"},{"name":"amount","type":"uint256","internalType":"uint256"}],"outputs":[],"stateMutability":"nonpayable"}],"bytecode":{"object":"0x608060405234801561000f575f80fd5b506101638061001d5f395ff3fe608060405234801561000f575f80fd5b5060043610610034575f3560e01c80635fb8f61f14610038578063f3fef3a31461004d575b5f80fd5b61004b6100463660046100f8565b610060565b005b61004b61005b3660046100f8565b6100c3565b6040516340c10f1960e01b81523360048201526024810182905282906001600160a01b038216906340c10f19906044015b5f604051808303815f87803b1580156100a8575f80fd5b505af11580156100ba573d5f803e3d5ffd5b50505050505050565b604051632770a7eb60e21b81523360048201526024810182905282906001600160a01b03821690639dc29fac90604401610091565b5f8060408385031215610109575f80fd5b82356001600160a01b038116811461011f575f80fd5b94602093909301359350505056fea2646970667358221220b547ab4d49e8fdd0338f3e5db2dbd72f0cec795ef687c4176fbe72150879c1f864736f6c63430008160033","linkReferences":{}},"methodIdentifiers":{"syncDeposit(address,uint256)":"5fb8f61f","withdraw(address,uint256)":"f3fef3a3"},"id":13}