{"abi":[{"type":"function","name":"DEFAULT_ADMIN_ROLE","inputs":[],"outputs":[{"name":"","type":"bytes32","internalType":"bytes32"}],"stateMutability":"view"},{"type":"function","name":"DENOMINATOR","inputs":[],"outputs":[{"name":"","type":"uint256","internalType":"uint256"}],"stateMutability":"view"},{"type":"function","name":"GOV_ROLE","inputs":[],"outputs":[{"name":"","type":"bytes32","internalType":"bytes32"}],"stateMutability":"view"},{"type":"function","name":"TOKEN_SAVER_ROLE","inputs":[],"outputs":[{"name":"","type":"bytes32","internalType":"bytes32"}],"stateMutability":"view"},{"type":"function","name":"agentNft","inputs":[],"outputs":[{"name":"","type":"address","internalType":"address"}],"stateMutability":"view"},{"type":"function","name":"claimAllRewards","inputs":[{"name":"virtualIds","type":"uint256[]","internalType":"uint256[]"},{"name":"contributionNftIds","type":"uint256[]","internalType":"uint256[]"}],"outputs":[],"stateMutability":"nonpayable"},{"type":"function","name":"contributionNft","inputs":[],"outputs":[{"name":"","type":"address","internalType":"address"}],"stateMutability":"view"},{"type":"function","name":"distributeRewards","inputs":[{"name":"amount","type":"uint256","internalType":"uint256"}],"outputs":[{"name":"","type":"uint32","internalType":"uint32"}],"stateMutability":"nonpayable"},{"type":"function","name":"distributeRewardsForAgents","inputs":[{"name":"mainRewardIndex","type":"uint32","internalType":"uint32"},{"name":"virtualIds","type":"uint256[]","internalType":"uint256[]"}],"outputs":[],"stateMutability":"nonpayable"},{"type":"function","name":"getChildrenRewards","inputs":[{"name":"nftId","type":"uint256","internalType":"uint256"}],"outputs":[{"name":"","type":"uint256","internalType":"uint256"}],"stateMutability":"view"},{"type":"function","name":"getMainReward","inputs":[{"name":"pos","type":"uint32","internalType":"uint32"}],"outputs":[{"name":"","type":"tuple","internalType":"struct IAgentReward.MainReward","components":[{"name":"blockNumber","type":"uint32","internalType":"uint32"},{"name":"amount","type":"uint256","internalType":"uint256"},{"name":"agentCount","type":"uint256","internalType":"uint256"},{"name":"totalStaked","type":"uint256","internalType":"uint256"}]}],"stateMutability":"view"},{"type":"function","name":"getPastRewardSettings","inputs":[{"name":"timepoint","type":"uint32","internalType":"uint32"}],"outputs":[{"name":"","type":"tuple","internalType":"struct RewardSettingsCheckpoints.RewardSettings","components":[{"name":"protocolShares","type":"uint16","internalType":"uint16"},{"name":"contributorShares","type":"uint16","internalType":"uint16"},{"name":"stakerShares","type":"uint16","internalType":"uint16"},{"name":"parentShares","type":"uint16","internalType":"uint16"},{"name":"stakeThreshold","type":"uint256","internalType":"uint256"}]}],"stateMutability":"view"},{"type":"function","name":"getReward","inputs":[{"name":"virtualId","type":"uint256","internalType":"uint256"},{"name":"pos","type":"uint32","internalType":"uint32"}],"outputs":[{"name":"","type":"tuple","internalType":"struct IAgentReward.Reward","components":[{"name":"id","type":"uint48","internalType":"uint48"},{"name":"mainIndex","type":"uint32","internalType":"uint32"},{"name":"totalStaked","type":"uint256","internalType":"uint256"},{"name":"validatorAmount","type":"uint256","internalType":"uint256"},{"name":"contributorAmount","type":"uint256","internalType":"uint256"},{"name":"coreAmount","type":"uint256","internalType":"uint256"}]}],"stateMutability":"view"},{"type":"function","name":"getRewardSettings","inputs":[],"outputs":[{"name":"","type":"tuple","internalType":"struct RewardSettingsCheckpoints.RewardSettings","components":[{"name":"protocolShares","type":"uint16","internalType":"uint16"},{"name":"contributorShares","type":"uint16","internalType":"uint16"},{"name":"stakerShares","type":"uint16","internalType":"uint16"},{"name":"parentShares","type":"uint16","internalType":"uint16"},{"name":"stakeThreshold","type":"uint256","internalType":"uint256"}]}],"stateMutability":"view"},{"type":"function","name":"getRoleAdmin","inputs":[{"name":"role","type":"bytes32","internalType":"bytes32"}],"outputs":[{"name":"","type":"bytes32","internalType":"bytes32"}],"stateMutability":"view"},{"type":"function","name":"getServiceReward","inputs":[{"name":"nftId","type":"uint256","internalType":"uint256"}],"outputs":[{"name":"","type":"tuple","internalType":"struct IAgentReward.ServiceReward","components":[{"name":"impact","type":"uint256","internalType":"uint256"},{"name":"amount","type":"uint256","internalType":"uint256"},{"name":"parentAmount","type":"uint256","internalType":"uint256"},{"name":"totalClaimed","type":"uint256","internalType":"uint256"},{"name":"totalClaimedParent","type":"uint256","internalType":"uint256"}]}],"stateMutability":"view"},{"type":"function","name":"getTotalClaimableRewards","inputs":[{"name":"account","type":"address","internalType":"address"},{"name":"virtualIds","type":"uint256[]","internalType":"uint256[]"},{"name":"contributionNftIds","type":"uint256[]","internalType":"uint256[]"}],"outputs":[{"name":"","type":"uint256","internalType":"uint256"}],"stateMutability":"view"},{"type":"function","name":"getVirtualTokenAddress","inputs":[{"name":"nft","type":"address","internalType":"contract IAgentNft"},{"name":"virtualId","type":"uint256","internalType":"uint256"}],"outputs":[{"name":"","type":"address","internalType":"address"}],"stateMutability":"view"},{"type":"function","name":"grantRole","inputs":[{"name":"role","type":"bytes32","internalType":"bytes32"},{"name":"account","type":"address","internalType":"address"}],"outputs":[],"stateMutability":"nonpayable"},{"type":"function","name":"hasRole","inputs":[{"name":"role","type":"bytes32","internalType":"bytes32"},{"name":"account","type":"address","internalType":"address"}],"outputs":[{"name":"","type":"bool","internalType":"bool"}],"stateMutability":"view"},{"type":"function","name":"initialize","inputs":[{"name":"rewardToken_","type":"address","internalType":"address"},{"name":"agentNft_","type":"address","internalType":"address"},{"name":"contributionNft_","type":"address","internalType":"address"},{"name":"serviceNft_","type":"address","internalType":"address"},{"name":"settings_","type":"tuple","internalType":"struct RewardSettingsCheckpoints.RewardSettings","components":[{"name":"protocolShares","type":"uint16","internalType":"uint16"},{"name":"contributorShares","type":"uint16","internalType":"uint16"},{"name":"stakerShares","type":"uint16","internalType":"uint16"},{"name":"parentShares","type":"uint16","internalType":"uint16"},{"name":"stakeThreshold","type":"uint256","internalType":"uint256"}]}],"outputs":[],"stateMutability":"nonpayable"},{"type":"function","name":"protocolRewards","inputs":[],"outputs":[{"name":"","type":"uint256","internalType":"uint256"}],"stateMutability":"view"},{"type":"function","name":"renounceRole","inputs":[{"name":"role","type":"bytes32","internalType":"bytes32"},{"name":"callerConfirmation","type":"address","internalType":"address"}],"outputs":[],"stateMutability":"nonpayable"},{"type":"function","name":"revokeRole","inputs":[{"name":"role","type":"bytes32","internalType":"bytes32"},{"name":"account","type":"address","internalType":"address"}],"outputs":[],"stateMutability":"nonpayable"},{"type":"function","name":"rewardCount","inputs":[{"name":"virtualId","type":"uint256","internalType":"uint256"}],"outputs":[{"name":"","type":"uint256","internalType":"uint256"}],"stateMutability":"view"},{"type":"function","name":"rewardToken","inputs":[],"outputs":[{"name":"","type":"address","internalType":"address"}],"stateMutability":"view"},{"type":"function","name":"saveToken","inputs":[{"name":"_token","type":"address","internalType":"address"},{"name":"_receiver","type":"address","internalType":"address"},{"name":"_amount","type":"uint256","internalType":"uint256"}],"outputs":[],"stateMutability":"nonpayable"},{"type":"function","name":"serviceNft","inputs":[],"outputs":[{"name":"","type":"address","internalType":"address"}],"stateMutability":"view"},{"type":"function","name":"setPrevTokens","inputs":[{"name":"virtualIds","type":"uint256[]","internalType":"uint256[]"},{"name":"tokens","type":"address[]","internalType":"address[]"}],"outputs":[],"stateMutability":"nonpayable"},{"type":"function","name":"setRewardSettings","inputs":[{"name":"protocolShares_","type":"uint16","internalType":"uint16"},{"name":"contributorShares_","type":"uint16","internalType":"uint16"},{"name":"stakerShares_","type":"uint16","internalType":"uint16"},{"name":"parentShares_","type":"uint16","internalType":"uint16"},{"name":"stakeThreshold_","type":"uint256","internalType":"uint256"}],"outputs":[],"stateMutability":"nonpayable"},{"type":"function","name":"supportsInterface","inputs":[{"name":"interfaceId","type":"bytes4","internalType":"bytes4"}],"outputs":[{"name":"","type":"bool","internalType":"bool"}],"stateMutability":"view"},{"type":"function","name":"updateRefContracts","inputs":[{"name":"rewardToken_","type":"address","internalType":"address"},{"name":"agentNft_","type":"address","internalType":"address"},{"name":"contributionNft_","type":"address","internalType":"address"},{"name":"serviceNft_","type":"address","internalType":"address"}],"outputs":[],"stateMutability":"nonpayable"},{"type":"function","name":"validatorPoolRewards","inputs":[],"outputs":[{"name":"","type":"uint256","internalType":"uint256"}],"stateMutability":"view"},{"type":"function","name":"withdrawProtocolRewards","inputs":[{"name":"recipient","type":"address","internalType":"address"}],"outputs":[],"stateMutability":"nonpayable"},{"type":"function","name":"withdrawValidatorPoolRewards","inputs":[{"name":"recipient","type":"address","internalType":"address"}],"outputs":[],"stateMutability":"nonpayable"},{"type":"event","name":"DatasetRewardsClaimed","inputs":[{"name":"nftId","type":"uint256","indexed":false,"internalType":"uint256"},{"name":"account","type":"address","indexed":false,"internalType":"address"},{"name":"total","type":"uint256","indexed":false,"internalType":"uint256"}],"anonymous":false},{"type":"event","name":"Initialized","inputs":[{"name":"version","type":"uint64","indexed":false,"internalType":"uint64"}],"anonymous":false},{"type":"event","name":"NewAgentReward","inputs":[{"name":"mainIndex","type":"uint32","indexed":false,"internalType":"uint32"},{"name":"virtualId","type":"uint256","indexed":false,"internalType":"uint256"},{"name":"validatorAmount","type":"uint256","indexed":false,"internalType":"uint256"},{"name":"contributorAmount","type":"uint256","indexed":false,"internalType":"uint256"},{"name":"coreAmount","type":"uint256","indexed":false,"internalType":"uint256"}],"anonymous":false},{"type":"event","name":"NewMainReward","inputs":[{"name":"pos","type":"uint32","indexed":true,"internalType":"uint32"},{"name":"amount","type":"uint256","indexed":false,"internalType":"uint256"},{"name":"agentCount","type":"uint256","indexed":false,"internalType":"uint256"},{"name":"totalStaked","type":"uint256","indexed":false,"internalType":"uint256"}],"anonymous":false},{"type":"event","name":"ParentSharesUpdated","inputs":[{"name":"shares","type":"uint256","indexed":false,"internalType":"uint256"}],"anonymous":false},{"type":"event","name":"RefContractsUpdated","inputs":[{"name":"rewardToken","type":"address","indexed":false,"internalType":"address"},{"name":"agentNft","type":"address","indexed":false,"internalType":"address"},{"name":"contributionNft","type":"address","indexed":false,"internalType":"address"},{"name":"serviceNft","type":"address","indexed":false,"internalType":"address"}],"anonymous":false},{"type":"event","name":"RewardSettingsUpdated","inputs":[{"name":"protocolShares","type":"uint16","indexed":false,"internalType":"uint16"},{"name":"contributorShares","type":"uint16","indexed":false,"internalType":"uint16"},{"name":"stakerShares","type":"uint16","indexed":false,"internalType":"uint16"},{"name":"parentShares","type":"uint16","indexed":false,"internalType":"uint16"},{"name":"stakeThreshold","type":"uint256","indexed":false,"internalType":"uint256"}],"anonymous":false},{"type":"event","name":"RoleAdminChanged","inputs":[{"name":"role","type":"bytes32","indexed":true,"internalType":"bytes32"},{"name":"previousAdminRole","type":"bytes32","indexed":true,"internalType":"bytes32"},{"name":"newAdminRole","type":"bytes32","indexed":true,"internalType":"bytes32"}],"anonymous":false},{"type":"event","name":"RoleGranted","inputs":[{"name":"role","type":"bytes32","indexed":true,"internalType":"bytes32"},{"name":"account","type":"address","indexed":true,"internalType":"address"},{"name":"sender","type":"address","indexed":true,"internalType":"address"}],"anonymous":false},{"type":"event","name":"RoleRevoked","inputs":[{"name":"role","type":"bytes32","indexed":true,"internalType":"bytes32"},{"name":"account","type":"address","indexed":true,"internalType":"address"},{"name":"sender","type":"address","indexed":true,"internalType":"address"}],"anonymous":false},{"type":"event","name":"ServiceRewardsClaimed","inputs":[{"name":"nftId","type":"uint256","indexed":false,"internalType":"uint256"},{"name":"account","type":"address","indexed":false,"internalType":"address"},{"name":"total","type":"uint256","indexed":false,"internalType":"uint256"},{"name":"childrenAmount","type":"uint256","indexed":false,"internalType":"uint256"}],"anonymous":false},{"type":"event","name":"StakeThresholdUpdated","inputs":[{"name":"threshold","type":"uint256","indexed":false,"internalType":"uint256"}],"anonymous":false},{"type":"event","name":"StakerRewardClaimed","inputs":[{"name":"virtualId","type":"uint256","indexed":false,"internalType":"uint256"},{"name":"amount","type":"uint256","indexed":false,"internalType":"uint256"},{"name":"staker","type":"address","indexed":false,"internalType":"address"}],"anonymous":false},{"type":"event","name":"TokenSaved","inputs":[{"name":"by","type":"address","indexed":true,"internalType":"address"},{"name":"receiver","type":"address","indexed":true,"internalType":"address"},{"name":"token","type":"address","indexed":true,"internalType":"address"},{"name":"amount","type":"uint256","indexed":false,"internalType":"uint256"}],"anonymous":false},{"type":"event","name":"ValidatorRewardClaimed","inputs":[{"name":"virtualId","type":"uint256","indexed":false,"internalType":"uint256"},{"name":"amount","type":"uint256","indexed":false,"internalType":"uint256"},{"name":"validator","type":"address","indexed":false,"internalType":"address"}],"anonymous":false},{"type":"error","name":"AccessControlBadConfirmation","inputs":[]},{"type":"error","name":"AccessControlUnauthorizedAccount","inputs":[{"name":"account","type":"address","internalType":"address"},{"name":"neededRole","type":"bytes32","internalType":"bytes32"}]},{"type":"error","name":"AddressEmptyCode","inputs":[{"name":"target","type":"address","internalType":"address"}]},{"type":"error","name":"AddressInsufficientBalance","inputs":[{"name":"account","type":"address","internalType":"address"}]},{"type":"error","name":"CheckpointUnorderedInsertion","inputs":[]},{"type":"error","name":"ERC5805FutureLookup","inputs":[{"name":"timepoint","type":"uint256","internalType":"uint256"},{"name":"clock","type":"uint32","internalType":"uint32"}]},{"type":"error","name":"FailedInnerCall","inputs":[]},{"type":"error","name":"InvalidInitialization","inputs":[]},{"type":"error","name":"NotGovError","inputs":[]},{"type":"error","name":"NotInitializing","inputs":[]},{"type":"error","name":"NotOwnerError","inputs":[]},{"type":"error","name":"SafeCastOverflowedUintDowncast","inputs":[{"name":"bits","type":"uint8","internalType":"uint8"},{"name":"value","type":"uint256","internalType":"uint256"}]},{"type":"error","name":"SafeERC20FailedOperation","inputs":[{"name":"token","type":"address","internalType":"address"}]}],"bytecode":{"object":"0x608060405234801561000f575f80fd5b50613e3f8061001d5f395ff3fe608060405234801561000f575f80fd5b5060043610610208575f3560e01c8063918f86741161011f578063b43fb074116100a9578063dc247ba511610079578063dc247ba5146105b1578063e36f1d04146105ba578063e56efef5146105d9578063eca1358b146105ec578063f7c618c1146105ff575f80fd5b8063b43fb07414610564578063b536818a14610577578063d547741f1461058b578063db0a67331461059e575f80fd5b80639cbef4a9116100ef5780639cbef4a914610511578063a217fddf14610524578063a834ab711461052b578063ae9563631461053e578063ae9c46ae14610551575f80fd5b8063918f8674146104cf57806391d14854146104d85780639282495b146104eb5780639afdb2c2146104fe575f80fd5b80632f2ff15d116101a05780634ba021dc116101705780634ba021dc146103ac57806357ee9982146103bf57806359974e381461042b57806376175b061461045357806389e53e6b1461047a575f80fd5b80632f2ff15d1461032757806336568abe1461033a5780633a23ab061461034d57806348d329ca14610399575f80fd5b80630e449aeb116101db5780630e449aeb146102c65780631f1aea42146102e7578063248a9ca3146102fc57806329df64791461031e575f80fd5b806301ffc9a71461020c57806304b0ed5314610234578063056903711461025f57806307c1aa1a146102b3575b5f80fd5b61021f61021a36600461353d565b610619565b60405190151581526020015b60405180910390f35b610247610242366004613578565b61064f565b6040516001600160a01b03909116815260200161022b565b61027261026d3660046135a2565b6106e2565b60405161022b91905f60a082019050825182526020830151602083015260408301516040830152606083015160608301526080830151608083015292915050565b600354610247906001600160a01b031681565b6102d96102d43660046136ab565b61075d565b60405190815260200161022b565b6102fa6102f536600461371c565b610819565b005b6102d961030a3660046135a2565b5f9081526020819052604090206001015490565b6102d960085481565b6102fa61033536600461377c565b6108ae565b6102fa61034836600461377c565b6108d2565b61036061035b3660046137bd565b61090a565b60405161022b9190815163ffffffff16815260208083015190820152604080830151908201526060918201519181019190915260800190565b6102d96103a73660046135a2565b61099c565b6102fa6103ba3660046137d6565b610a9d565b6103d26103cd3660046137f1565b610b47565b60405161022b91905f60c08201905065ffffffffffff835116825263ffffffff602084015116602083015260408301516040830152606083015160608301526080830151608083015260a083015160a083015292915050565b61043e6104393660046135a2565b610c1a565b60405163ffffffff909116815260200161022b565b6102d97fd9d917c4034cff8a8c5fa1e40f9fbaf906b827c33ae3ab1fcabbb616cb8ef24d81565b610482610d00565b60405161022b91905f60a08201905061ffff808451168352806020850151166020840152806040850151166040840152806060850151166060840152506080830151608083015292915050565b6102d961271081565b61021f6104e636600461377c565b610d17565b6102fa6104f936600461382c565b610d3f565b6102fa61050c366004613884565b610e23565b600254610247906001600160a01b031681565b6102d95f81565b6102fa6105393660046138c2565b610f24565b61048261054c3660046137bd565b611009565b6102fa61055f36600461391b565b611064565b6102fa6105723660046139d9565b611152565b6102d95f80516020613dea83398151915281565b6102fa61059936600461377c565b6111c8565b6102fa6105ac3660046137d6565b6111ec565b6102d960095481565b6102d96105c83660046135a2565b5f9081526006602052604090205490565b600454610247906001600160a01b031681565b6102fa6105fa366004613a1a565b61129b565b60015461024790600160301b90046001600160a01b031681565b5f6001600160e01b03198216637965db0b60e01b148061064957506301ffc9a760e01b6001600160e01b03198316145b92915050565b5f818152601060205260408120546001600160a01b0316806106db57604051635652386760e11b8152600481018490526001600160a01b0385169063aca470ce906024015f60405180830381865afa1580156106ad573d5f803e3d5ffd5b505050506040513d5f823e601f3d908101601f191682016040526106d49190810190613aef565b6020015190505b9392505050565b61070f6040518060a001604052805f81526020015f81526020015f81526020015f81526020015f81525090565b505f908152600c6020908152604091829020825160a0810184528154815260018201549281019290925260028101549282019290925260038201546060820152600490910154608082015290565b5f80805b84518110156107ce5761078d8686838151811061078057610780613bfe565b602002602001015161142e565b6107b0878784815181106107a3576107a3613bfe565b60200260200101516114be565b6107ba9190613c26565b6107c49083613c26565b9150600101610761565b505f5b8351811015610810576107fc8482815181106107ef576107ef613bfe565b6020026020010151611569565b6108069083613c26565b91506001016107d1565b50949350505050565b335f5b8351811015610872576108488285838151811061083b5761083b613bfe565b60200260200101516115aa565b61086a84828151811061085d5761085d613bfe565b60200260200101516116f7565b60010161081c565b505f5b82518110156108a8576108a083828151811061089357610893613bfe565b602002602001015161184a565b600101610875565b50505050565b5f828152602081905260409020600101546108c881611ac9565b6108a88383611ad6565b6001600160a01b03811633146108fb5760405163334bd91960e11b815260040160405180910390fd5b6109058282611b65565b505050565b61093760405180608001604052805f63ffffffff1681526020015f81526020015f81526020015f81525090565b60058263ffffffff168154811061095057610950613bfe565b5f918252602091829020604080516080810182526004909302909101805463ffffffff168352600181015493830193909352600283015490820152600390910154606082015292915050565b6003546040516349ae8dc360e01b8152600481018390525f91829182916001600160a01b0316906349ae8dc3906024015f60405180830381865afa1580156109e6573d5f803e3d5ffd5b505050506040513d5f823e601f3d908101601f19168201604052610a0d9190810190613c39565b9050610a3c6040518060a001604052805f81526020015f81526020015f81526020015f81526020015f81525090565b5f5b8251811015610a9357610a69838281518110610a5c57610a5c613bfe565b60200260200101516106e2565b915081608001518260400151610a7f9190613cba565b610a899085613c26565b9350600101610a3e565b5091949350505050565b610ab45f80516020613dea83398151915233610d17565b610ad157604051631f43c9cf60e31b815260040160405180910390fd5b5f60085411610b1d5760405162461bcd60e51b81526020600482015260136024820152724e6f2070726f746f636f6c207265776172647360681b60448201526064015b60405180910390fd5b600854600154610b4091600160301b9091046001600160a01b0316908390611bce565b505f600855565b610b886040518060c001604052805f65ffffffffffff1681526020015f63ffffffff1681526020015f81526020015f81526020015f81526020015f81525090565b5f838152600660205260409020805463ffffffff8416908110610bad57610bad613bfe565b5f9182526020918290206040805160c081018252600593909302909101805465ffffffffffff81168452600160301b900463ffffffff1693830193909352600183015490820152600282015460608201526003820154608082015260049091015460a08201529392505050565b5f610c325f80516020613dea83398151915233610d17565b610c4f57604051631f43c9cf60e31b815260040160405180910390fd5b5f8211610c8f5760405162461bcd60e51b815260206004820152600e60248201526d125b9d985b1a5908185b5bdd5b9d60921b6044820152606401610b14565b610cae33600154600160301b90046001600160a01b0316903085611c2d565b5f610cb7610d00565b90505f610cc384611c66565b90505f610cd08286613cba565b9050610cdc8184611cb5565b50600554610cf590610cf090600190613cba565b611fa4565b93505050505b919050565b610d08613510565b610d126007611fd8565b905090565b5f918252602082815260408084206001600160a01b0393909316845291905290205460ff1690565b610d565f80516020613dea83398151915233610d17565b610d7357604051631f43c9cf60e31b815260040160405180910390fd5b610dc7610d7f43611fa4565b6040518060a001604052808861ffff1681526020018761ffff1681526020018661ffff1681526020018561ffff16815260200184815250600761209c9092919063ffffffff16565b6040805161ffff8781168252868116602083015285811682840152841660608201526080810183905290517ff24f4e6211663f2bd5348bf57d8577095eacae708ce9604d177fe3ac6c0ab5a39181900360a00190a15050505050565b610e4d7fd9d917c4034cff8a8c5fa1e40f9fbaf906b827c33ae3ab1fcabbb616cb8ef24d33610d17565b610eae5760405162461bcd60e51b815260206004820152602c60248201527f546f6b656e53617665722e6f6e6c79546f6b656e53617665723a207065726d6960448201526b1cdcda5bdb8819195b9a595960a21b6064820152608401610b14565b610ec26001600160a01b0384168383611bce565b826001600160a01b0316826001600160a01b0316610edd3390565b6001600160a01b03167f30d87cec6b4c56cede1018725d1e6d9304e2f7ee6d25b004b7e2183f793f26bc84604051610f1791815260200190565b60405180910390a4505050565b610f3b5f80516020613dea83398151915233610d17565b610f5857604051631f43c9cf60e31b815260040160405180910390fd5b600180546601000000000000600160d01b031916600160301b6001600160a01b0387811691820292909217909255600280546001600160a01b0319908116878416908117909255600380548216878516908117909155600480549092169386169384179091556040805194855260208501929092529083015260608201527fa76b17940d158ada820561f31a130c86950044ee45c624524fa055bbfd386b379060800160405180910390a150505050565b611011613510565b5f61101b43611fa4565b90508063ffffffff168363ffffffff161061105957604051631f2fd49d60e01b815263ffffffff808516600483015282166024820152604401610b14565b6106db6007846120a7565b61107b5f80516020613dea83398151915233610d17565b61109857604051631f43c9cf60e31b815260040160405180910390fd5b80518251146110d95760405162461bcd60e51b815260206004820152600d60248201526c125b9d985b1a59081a5b9c1d5d609a1b6044820152606401610b14565b5f5b8251811015610905578181815181106110f6576110f6613bfe565b602002602001015160105f85848151811061111357611113613bfe565b60209081029190910181015182528101919091526040015f2080546001600160a01b0319166001600160a01b03929092169190911790556001016110db565b6111695f80516020613dea83398151915233610d17565b61118657604051631f43c9cf60e31b815260040160405180910390fd5b5f61118f610d00565b90505f5b82518110156108a8576111c08382815181106111b1576111b1613bfe565b602002602001015185846121ed565b600101611193565b5f828152602081905260409020600101546111e281611ac9565b6108a88383611b65565b6112035f80516020613dea83398151915233610d17565b61122057604051631f43c9cf60e31b815260040160405180910390fd5b5f600954116112715760405162461bcd60e51b815260206004820152601960248201527f4e6f2076616c696461746f7220706f6f6c2072657761726473000000000000006044820152606401610b14565b60095460015461129491600160301b9091046001600160a01b0316908390611bce565b505f600955565b7ff0c57e16840df040f15088dc2f81fe391c3923bec73e23a9662efc9c229c6a008054600160401b810460ff16159067ffffffffffffffff165f811580156112e05750825b90505f8267ffffffffffffffff1660011480156112fc5750303b155b90508115801561130a575080155b156113285760405163f92ee8a960e01b815260040160405180910390fd5b845467ffffffffffffffff19166001178555831561135257845460ff60401b1916600160401b1785555b600180546601000000000000600160d01b031916600160301b6001600160a01b038d81169190910291909117909155600280546001600160a01b03199081168c8416179091556003805482168b8416179055600480549091169189169190911790556113c060075f8861209c565b6113ca5f33611ad6565b506001805465ffffffffffff191681179055831561142257845460ff60401b19168555604051600181527fc7f505b2f371ae2175ee4913f4499e1f2633a7b5936321eed1cdaeb6115181d29060200160405180910390a15b50505050505050505050565b5f81815260066020526040812054805f0361144c575f915050610649565b6001600160a01b0384165f908152600b6020908152604080832086845282528083208151808301909252805482526001015463ffffffff1691810182905291905b838110156114b4576114a08187896123d5565b6114aa9083613c26565b915060010161148d565b5095945050505050565b5f81815260066020526040812054805f036114dc575f915050610649565b6002545f906114f4906001600160a01b03168561064f565b6001600160a01b0386165f908152600a6020908152604080832088845282528083208151808301909252805482526001015463ffffffff169181018290529293505b8481101561155e5761154a81888a8761246b565b6115549083613c26565b9150600101611536565b509695505050505050565b5f80611574836106e2565b90508060600151816020015161158a9190613cba565b91505f6115968461099c565b90506115a28184613c26565b949350505050565b600f5460ff16156115ee5760405162461bcd60e51b815260206004820152600e60248201526d31b0b73737ba103932b2b73a32b960911b6044820152606401610b14565b600f805460ff191660011790555f61160683836114be565b9050805f0361161557506116e9565b5f828152600660209081526040808320546001600160a01b0387168452600a835281842086855290925290912061164b82611fa4565b60018201805463ffffffff191663ffffffff929092169190911790558054839082905f9061167a908490613c26565b909155505060408051858152602081018590526001600160a01b0387168183015290517f42f11e929ce5ba1683d17c5418a57e4d7895aa71fd11052c1b0f2b9c5229424b9181900360600190a16001546116e590600160301b90046001600160a01b03168685611bce565b5050505b5050600f805460ff19169055565b600f5460ff161561173b5760405162461bcd60e51b815260206004820152600e60248201526d31b0b73737ba103932b2b73a32b960911b6044820152606401610b14565b600f805460ff191660011790555f6117503390565b90505f61175d828461142e565b9050805f0361176d57505061183d565b5f838152600660209081526040808320546001600160a01b0386168452600b83528184208785529092529091206117a382611fa4565b60018201805463ffffffff191663ffffffff929092169190911790558054839082905f906117d2908490613c26565b909155505060408051868152602081018590526001600160a01b0386168183015290517f91f2c2e59ae9c7e1b5cc4bbe3fb77e2835fd3532ebdd0118a337980223a6703a9181900360600190a16001546116e590600160301b90046001600160a01b03168585611bce565b50600f805460ff19169055565b5f336003546040516331a9108f60e11b8152600481018590529192506001600160a01b0380841692911690636352211e90602401602060405180830381865afa158015611899573d5f803e3d5ffd5b505050506040513d601f19601f820116820180604052508101906118bd9190613ccd565b6001600160a01b0316146119035760405162461bcd60e51b815260206004820152600d60248201526c2737ba1027232a1037bbb732b960991b6044820152606401610b14565b5f828152600c60205260408120600381015460018201549192916119279190613cba565b905080826003015f82825461193c9190613c26565b90915550506003546040516349ae8dc360e01b8152600481018690525f916001600160a01b0316906349ae8dc3906024015f60405180830381865afa158015611987573d5f803e3d5ffd5b505050506040513d5f823e601f3d908101601f191682016040526119ae9190810190613c39565b90505f805f5b8351811015611a41575f600c5f8684815181106119d3576119d3613bfe565b602002602001015181526020019081526020015f209050806004015481600201546119fe9190613cba565b92508215611a385782816004015f828254611a199190613c26565b90915550611a2990508387613c26565b9550611a358385613c26565b93505b506001016119b4565b50835f03611a525750505050505050565b600154611a7090600160301b90046001600160a01b03168786611bce565b604080518881526001600160a01b0388166020820152908101859052606081018390527f84509fc9cac2261efb3b24d2a3bf43e427549b5b0729ff9e970fc8a1490581cf9060800160405180910390a150505050505050565b611ad38133612698565b50565b5f611ae18383610d17565b611b5e575f838152602081815260408083206001600160a01b03861684529091529020805460ff19166001179055611b163390565b6001600160a01b0316826001600160a01b0316847f2f8788117e7eff1d82e926ec794901d17c78024a50270940304540a733656f0d60405160405180910390a4506001610649565b505f610649565b5f611b708383610d17565b15611b5e575f838152602081815260408083206001600160a01b0386168085529252808320805460ff1916905551339286917ff6391f5c32d9c69d2a47ea670b442974b53935d1edc7fd64eb21e047a839171b9190a4506001610649565b6040516001600160a01b0383811660248301526044820183905261090591859182169063a9059cbb906064015b604051602081830303815290604052915060e01b6020820180516001600160e01b0383818316178352505050506126d5565b6040516001600160a01b0384811660248301528381166044830152606482018390526108a89186918216906323b872dd90608401611bfb565b5f80611c726007611fd8565b90505f612710825f015161ffff1685611c8b9190613ce8565b611c959190613d13565b90508060085f828254611ca89190613c26565b9091555090949350505050565b600254604080516318160ddd60e01b815290515f926001600160a01b0316918391829184916318160ddd916004808201926020929091908290030181865afa158015611d03573d5f803e3d5ffd5b505050506040513d601f19601f82011682018060405250810190611d279190613d32565b90505f611d38600580549050611fa4565b905060015b828111611ed55760405163020e5c6160e51b8152600481018290525f906001600160a01b038716906341cb8c2090602401602060405180830381865afa158015611d89573d5f803e3d5ffd5b505050506040513d601f19601f82011682018060405250810190611dad9190613d32565b90508760800151811015611dc15750611ec3565b86611dcb81613d49565b9750611dd990508186613c26565b600180549196505f9165ffffffffffff169082611df583613d61565b82546101009290920a65ffffffffffff8181021990931691831602179091555f858152600660209081526040808320815160c081018352958516865263ffffffff8a8116878501908152928701988952606087018581526080880186815260a089018781528454600181810187559589529690972098516005909602909801805494519590971669ffffffffffffffffffff1990941693909317600160301b949091169390930292909217845595519083015593516002820155905160038201559151600490920191909155505b80611ecd81613d49565b915050611d3d565b5060056040518060800160405280611eec43611fa4565b63ffffffff908116825260208083018c905260408084018b905260609384018990528554600180820188555f978852968390208651600490920201805463ffffffff191691851691909117815585830151968101969096558481015160028701559383015160039095019490945582518b8152938401899052918301869052908316917f7b41475975a5b886cf9ebae456c452d6d52cbc40947997c7e4955d1fa0ee17fa910160405180910390a25050505092915050565b5f63ffffffff821115611fd4576040516306dfcc6560e41b81526020600482015260248101839052604401610b14565b5090565b611fe0613510565b8154801561206b5782611ff4600183613cba565b8154811061200457612004613bfe565b5f9182526020918290206040805160a081018252600160039094029092019283015461ffff80821684526201000082048116958401959095526401000000008104851691830191909152600160301b900490921660608301526002015460808201526106db565b6040805160a0810182525f808252602082018190529181018290526060810182905260808101919091529392505050565b610905838383612736565b6120af613510565b82545f81600581111561211f575f6120c684612a2d565b6120d09085613cba565b9050865f0181815481106120e6576120e6613bfe565b5f91825260209091206003909102015463ffffffff908116908716101561210f5780915061211d565b61211a816001613c26565b92505b505b5f61212c87878585612b11565b905080156121b75786612140600183613cba565b8154811061215057612150613bfe565b5f9182526020918290206040805160a081018252600160039094029092019283015461ffff80821684526201000082048116958401959095526401000000008104851691830191909152600160301b900490921660608301526002015460808201526121e2565b6040805160a0810182525f808252602082018190529181018290526060810182905260808101919091525b979650505050505050565b5f83815260066020526040812054900361220657505050565b5f60058363ffffffff168154811061222057612220613bfe565b5f9182526020808320604080516080810182526004909402909101805463ffffffff1684526001808201548585015260028201548584015260039091015460608501528885526006909252832080549294509161227d9190613cba565b8154811061228d5761228d613bfe565b5f9182526020909120600590910201805490915063ffffffff858116600160301b90920416146122be575050505050565b5f816002015411806122d357505f8160030154115b156122df575050505050565b5f8260600151826001015484602001516122f99190613ce8565b6123039190613d13565b9050612710846020015161ffff168261231c9190613ce8565b6123269190613d13565b600383018190556123379082613cba565b600283018190558254600184015461235c9291899165ffffffffffff90911690612b81565b61236b82600301548786612e85565b6002820154600383015460048401546040805163ffffffff8a168152602081018b90528082019490945260608401929092526080830152517f3b82ed67d9fe68169836bacb20a42229591c9b8376eb5a4314f8f2f0439671f49181900360a00190a1505050505050565b5f806123e4846103cd87611fa4565b90505f6123f4826020015161090a565b90505f612403825f0151611009565b6001600160a01b0386165f908152600e60209081526040808320875165ffffffffffff168452909152908190205490820151919250906127109061244b9061ffff1682613cba565b6124559083613ce8565b61245f9190613d13565b98975050505050505050565b5f8061247a856103cd88611fa4565b90505f61248a826020015161090a565b8051604051622f640360e91b81526001600160a01b03888116600483015263ffffffff909216602482015291925085915f91831690635ec8060090604401602060405180830381865afa1580156124e3573d5f803e3d5ffd5b505050506040513d601f19601f820116820180604052508101906125079190613ccd565b90506001600160a01b038116612523575f9450505050506115a2565b5f612530845f0151611009565b6001600160a01b038381165f908152600e602090815260408083208a5165ffffffffffff168452909152808220548851915163d7b7d40560e01b81528d8516600482015263ffffffff9092166024830152939450909186169063d7b7d40590604401602060405180830381865afa1580156125ad573d5f803e3d5ffd5b505050506040513d601f19601f820116820180604052508101906125d19190613d32565b8651604051630748d63560e31b81526001600160a01b03878116600483015263ffffffff90921660248201529192505f91908b1690633a46b1a890604401602060405180830381865afa15801561262a573d5f803e3d5ffd5b505050506040513d601f19601f8201168201806040525081019061264e9190613d32565b9050612710846040015161ffff168284866126699190613ce8565b6126739190613d13565b61267d9190613ce8565b6126879190613d13565b9d9c50505050505050505050505050565b6126a28282610d17565b6126d15760405163e2517d3f60e01b81526001600160a01b038216600482015260248101839052604401610b14565b5050565b5f6126e96001600160a01b03841683613323565b905080515f1415801561270d57508080602001905181019061270b9190613d85565b155b1561090557604051635274afe760e01b81526001600160a01b0384166004820152602401610b14565b82548015612971575f8461274b600184613cba565b8154811061275b5761275b613bfe565b5f9182526020918290206040805180820182526003909302909101805463ffffffff9081168452825160a081018452600183015461ffff80821683526201000082048116838901526401000000008204811695830195909552600160301b900490931660608401526002909101546080830152928201528051909250858216911611156127fb57604051632520601d60e01b815260040160405180910390fd5b805163ffffffff8086169116036128b4578285612819600185613cba565b8154811061282957612829613bfe565b5f9182526020918290208351600160039093029091019182018054938501516040860151606087015161ffff908116600160301b0261ffff60301b19928216640100000000029290921667ffffffff0000000019938216620100000263ffffffff1990981691909516179590951716919091179290921790915560809091015160029091015561296b565b60408051808201825263ffffffff80871682526020808301878152895460018181018c555f8c81528490209551600390920290950180549190941663ffffffff199182161784559051805194840180549382015196820151606083015161ffff908116600160301b0261ffff60301b19928216640100000000029290921667ffffffff0000000019998216620100000296909516971696909617939093179590951617929092179091556080909101516002909101555b506108a8565b60408051808201825263ffffffff80861682526020808301868152885460018181018b555f8b81528490209551600390920290950180549190941663ffffffff199182161784559051805194840180549382015196820151606083015161ffff908116600160301b0261ffff60301b19928216640100000000029290921667ffffffff00000000199982166201000002969095169716969096179390931795909516179290921790915560809091015160029091015550505050565b5f815f03612a3c57505f919050565b5f6001612a4884613330565b901c6001901b90506001818481612a6157612a61613cff565b048201901c90506001818481612a7957612a79613cff565b048201901c90506001818481612a9157612a91613cff565b048201901c90506001818481612aa957612aa9613cff565b048201901c90506001818481612ac157612ac1613cff565b048201901c90506001818481612ad957612ad9613cff565b048201901c90506001818481612af157612af1613cff565b048201901c90506106db81828581612b0b57612b0b613cff565b046133c3565b5f5b81831015612b79575f612b2684846133d8565b90508463ffffffff16868281548110612b4157612b41613bfe565b5f91825260209091206003909102015463ffffffff161115612b6557809250612b73565b612b70816001613c26565b93505b50612b13565b509392505050565b6002546040516306d4d3c160e21b8152600481018590526001600160a01b03909116905f908290631b534f0490602401602060405180830381865afa158015612bcc573d5f803e3d5ffd5b505050506040513d601f19601f82011682018060405250810190612bf09190613d32565b604051631b59192d60e21b8152600481018790529091505f906001600160a01b03841690636d6464b490602401602060405180830381865afa158015612c38573d5f803e3d5ffd5b505050506040513d601f19601f82011682018060405250810190612c5c9190613d32565b90505f5b82811015612e7b5760405163d809a06f60e01b815260048101889052602481018290525f906001600160a01b0386169063d809a06f90604401602060405180830381865afa158015612cb4573d5f803e3d5ffd5b505050506040513d601f19601f82011682018060405250810190612cd89190613ccd565b90505f612ce5868a61064f565b6040516309ab24eb60e41b81526001600160a01b0384811660048301529192505f91831690639ab24eb090602401602060405180830381865afa158015612d2e573d5f803e3d5ffd5b505050506040513d601f19601f82011682018060405250810190612d529190613d32565b90505f88612d60838e613ce8565b612d6a9190613d13565b90505f8615612dfe5760405163c12032d360e01b8152600481018d90526001600160a01b0386811660248301528891908b169063c12032d390604401602060405180830381865afa158015612dc1573d5f803e3d5ffd5b505050506040513d601f19601f82011682018060405250810190612de59190613d32565b612def9084613ce8565b612df99190613d13565b612e00565b5f5b905080600e5f876001600160a01b03166001600160a01b031681526020019081526020015f205f8d65ffffffffffff1665ffffffffffff1681526020019081526020015f20819055508082612e559190613cba565b60095f828254612e659190613c26565b909155505060019095019450612c609350505050565b5050505050505050565b600254604051635652386760e11b8152600481018490526001600160a01b03909116905f90829063aca470ce906024015f60405180830381865afa158015612ecf573d5f803e3d5ffd5b505050506040513d5f823e601f3d908101601f19168201604052612ef69190810190613aef565b608001516004546003545f87815260066020526040812080549495506001600160a01b039384169492909316929091612f3190600190613cba565b81548110612f4157612f41613bfe565b905f5260205f2090600502019050835188612f5c9190613d13565b6004828101919091556040516338ea5da760e21b81529081018890525f906001600160a01b0387169063e3a9769c906024015f60405180830381865afa158015612fa8573d5f803e3d5ffd5b505050506040513d5f823e601f3d908101601f19168201604052612fcf9190810190613c39565b90505f805f5b835181101561313a57838181518110612ff057612ff0613bfe565b60200260200101519250866001600160a01b031663e6aed857846040518263ffffffff1660e01b815260040161302891815260200190565b602060405180830381865afa158015613043573d5f803e3d5ffd5b505050506040513d601f19601f820116820180604052508101906130679190613d32565b91508115613132575f838152600c602052604081208054909103613089578281555b855465ffffffffffff165f908152600d602052604080822090516312903cd960e11b8152600481018790528592906001600160a01b038c169063252079b290602401602060405180830381865afa1580156130e6573d5f803e3d5ffd5b505050506040513d601f19601f8201168201806040525081019061310a9190613da4565b60ff1660ff1681526020019081526020015f205f82825461312b9190613c26565b9091555050505b600101612fd5565b5060608901515f90819061ffff16815b86518110156133125786818151811061316557613165613bfe565b6020908102919091018101515f818152600c909252604082208054919850910361318f575061330a565b885465ffffffffffff165f908152600d602052604080822090516312903cd960e11b8152600481018a90529091906001600160a01b038e169063252079b290602401602060405180830381865afa1580156131ec573d5f803e3d5ffd5b505050506040513d601f19601f820116820180604052508101906132109190613da4565b60ff16815260208101919091526040015f2054815460048b01546132349190613ce8565b61323e9190613d13565b60405163dbdd0aab60e01b8152600481018990529095506001600160a01b038b169063dbdd0aab90602401602060405180830381865afa158015613284573d5f803e3d5ffd5b505050506040513d601f19601f820116820180604052508101906132a89190613d32565b156132c9576127106132ba8487613ce8565b6132c49190613d13565b6132cb565b5f5b93506132d78486613cba565b816001015f8282546132e99190613c26565b9250508190555083816002015f8282546133039190613c26565b9091555050505b60010161314a565b505050505050505050505050505050565b60606106db83835f6133f2565b5f80608083901c1561334457608092831c92015b604083901c1561335657604092831c92015b602083901c1561336857602092831c92015b601083901c1561337a57601092831c92015b600883901c1561338c57600892831c92015b600483901c1561339e57600492831c92015b600283901c156133b057600292831c92015b600183901c156106495760010192915050565b5f8183106133d157816106db565b5090919050565b5f6133e66002848418613d13565b6106db90848416613c26565b6060814710156134175760405163cd78605960e01b8152306004820152602401610b14565b5f80856001600160a01b031684866040516134329190613dbd565b5f6040518083038185875af1925050503d805f811461346c576040519150601f19603f3d011682016040523d82523d5f602084013e613471565b606091505b509150915061348186838361348b565b9695505050505050565b6060826134a05761349b826134e7565b6106db565b81511580156134b757506001600160a01b0384163b155b156134e057604051639996b31560e01b81526001600160a01b0385166004820152602401610b14565b50806106db565b8051156134f75780518082602001fd5b604051630a12f52160e11b815260040160405180910390fd5b6040805160a0810182525f8082526020820181905291810182905260608101829052608081019190915290565b5f6020828403121561354d575f80fd5b81356001600160e01b0319811681146106db575f80fd5b6001600160a01b0381168114611ad3575f80fd5b5f8060408385031215613589575f80fd5b823561359481613564565b946020939093013593505050565b5f602082840312156135b2575f80fd5b5035919050565b634e487b7160e01b5f52604160045260245ffd5b60405160a0810167ffffffffffffffff811182821017156135f0576135f06135b9565b60405290565b604051601f8201601f1916810167ffffffffffffffff8111828210171561361f5761361f6135b9565b604052919050565b5f67ffffffffffffffff821115613640576136406135b9565b5060051b60200190565b5f82601f830112613659575f80fd5b8135602061366e61366983613627565b6135f6565b8083825260208201915060208460051b87010193508684111561368f575f80fd5b602086015b8481101561155e5780358352918301918301613694565b5f805f606084860312156136bd575f80fd5b83356136c881613564565b9250602084013567ffffffffffffffff808211156136e4575f80fd5b6136f08783880161364a565b93506040860135915080821115613705575f80fd5b506137128682870161364a565b9150509250925092565b5f806040838503121561372d575f80fd5b823567ffffffffffffffff80821115613744575f80fd5b6137508683870161364a565b93506020850135915080821115613765575f80fd5b506137728582860161364a565b9150509250929050565b5f806040838503121561378d575f80fd5b82359150602083013561379f81613564565b809150509250929050565b803563ffffffff81168114610cfb575f80fd5b5f602082840312156137cd575f80fd5b6106db826137aa565b5f602082840312156137e6575f80fd5b81356106db81613564565b5f8060408385031215613802575f80fd5b82359150613812602084016137aa565b90509250929050565b803561ffff81168114610cfb575f80fd5b5f805f805f60a08688031215613840575f80fd5b6138498661381b565b94506138576020870161381b565b93506138656040870161381b565b92506138736060870161381b565b949793965091946080013592915050565b5f805f60608486031215613896575f80fd5b83356138a181613564565b925060208401356138b181613564565b929592945050506040919091013590565b5f805f80608085870312156138d5575f80fd5b84356138e081613564565b935060208501356138f081613564565b9250604085013561390081613564565b9150606085013561391081613564565b939692955090935050565b5f806040838503121561392c575f80fd5b823567ffffffffffffffff80821115613943575f80fd5b61394f8683870161364a565b9350602091508185013581811115613965575f80fd5b85019050601f81018613613977575f80fd5b803561398561366982613627565b81815260059190911b820183019083810190888311156139a3575f80fd5b928401925b828410156139ca5783356139bb81613564565b825292840192908401906139a8565b80955050505050509250929050565b5f80604083850312156139ea575f80fd5b6139f3836137aa565b9150602083013567ffffffffffffffff811115613a0e575f80fd5b6137728582860161364a565b5f805f805f858703610120811215613a30575f80fd5b8635613a3b81613564565b95506020870135613a4b81613564565b94506040870135613a5b81613564565b93506060870135613a6b81613564565b925060a0607f1982011215613a7e575f80fd5b50613a876135cd565b613a936080880161381b565b8152613aa160a0880161381b565b6020820152613ab260c0880161381b565b6040820152613ac360e0880161381b565b6060820152610100969096013560808701525092959194509290565b805160ff81168114610cfb575f80fd5b5f6020808385031215613b00575f80fd5b825167ffffffffffffffff80821115613b17575f80fd5b9084019060a08287031215613b2a575f80fd5b613b326135cd565b8251613b3d81613564565b815282840151613b4c81613564565b818501526040830151613b5e81613564565b60408201526060830151613b7181613564565b6060820152608083015182811115613b87575f80fd5b80840193505086601f840112613b9b575f80fd5b82519150613bab61366983613627565b82815260059290921b83018401918481019088841115613bc9575f80fd5b938501935b83851015613bee57613bdf85613adf565b82529385019390850190613bce565b6080830152509695505050505050565b634e487b7160e01b5f52603260045260245ffd5b634e487b7160e01b5f52601160045260245ffd5b8082018082111561064957610649613c12565b5f6020808385031215613c4a575f80fd5b825167ffffffffffffffff811115613c60575f80fd5b8301601f81018513613c70575f80fd5b8051613c7e61366982613627565b81815260059190911b82018301908381019087831115613c9c575f80fd5b928401925b828410156121e257835182529284019290840190613ca1565b8181038181111561064957610649613c12565b5f60208284031215613cdd575f80fd5b81516106db81613564565b808202811582820484141761064957610649613c12565b634e487b7160e01b5f52601260045260245ffd5b5f82613d2d57634e487b7160e01b5f52601260045260245ffd5b500490565b5f60208284031215613d42575f80fd5b5051919050565b5f60018201613d5a57613d5a613c12565b5060010190565b5f65ffffffffffff808316818103613d7b57613d7b613c12565b6001019392505050565b5f60208284031215613d95575f80fd5b815180151581146106db575f80fd5b5f60208284031215613db4575f80fd5b6106db82613adf565b5f82515f5b81811015613ddc5760208186018101518583015201613dc2565b505f92019182525091905056fe0603f2636f0ca34ae3ea5a23bb826e2bd2ffd59fb1c01edc1ba10fba2899d1baa26469706673582212202e9439647d7f54eeb71d87f0ce077b63fc0ee3407da1107a237ecacca83a94c464736f6c63430008160033","linkReferences":{}},"methodIdentifiers":{"DEFAULT_ADMIN_ROLE()":"a217fddf","DENOMINATOR()":"918f8674","GOV_ROLE()":"b536818a","TOKEN_SAVER_ROLE()":"76175b06","agentNft()":"9cbef4a9","claimAllRewards(uint256[],uint256[])":"1f1aea42","contributionNft()":"07c1aa1a","distributeRewards(uint256)":"59974e38","distributeRewardsForAgents(uint32,uint256[])":"b43fb074","getChildrenRewards(uint256)":"48d329ca","getMainReward(uint32)":"3a23ab06","getPastRewardSettings(uint32)":"ae956363","getReward(uint256,uint32)":"57ee9982","getRewardSettings()":"89e53e6b","getRoleAdmin(bytes32)":"248a9ca3","getServiceReward(uint256)":"05690371","getTotalClaimableRewards(address,uint256[],uint256[])":"0e449aeb","getVirtualTokenAddress(address,uint256)":"04b0ed53","grantRole(bytes32,address)":"2f2ff15d","hasRole(bytes32,address)":"91d14854","initialize(address,address,address,address,(uint16,uint16,uint16,uint16,uint256))":"eca1358b","protocolRewards()":"29df6479","renounceRole(bytes32,address)":"36568abe","revokeRole(bytes32,address)":"d547741f","rewardCount(uint256)":"e36f1d04","rewardToken()":"f7c618c1","saveToken(address,address,uint256)":"9afdb2c2","serviceNft()":"e56efef5","setPrevTokens(uint256[],address[])":"ae9c46ae","setRewardSettings(uint16,uint16,uint16,uint16,uint256)":"9282495b","supportsInterface(bytes4)":"01ffc9a7","updateRefContracts(address,address,address,address)":"a834ab71","validatorPoolRewards()":"dc247ba5","withdrawProtocolRewards(address)":"4ba021dc","withdrawValidatorPoolRewards(address)":"db0a6733"},"id":1}