{"abi":[{"type":"constructor","inputs":[],"stateMutability":"nonpayable"},{"type":"function","name":"battleElo","inputs":[{"name":"currentRating","type":"uint256","internalType":"uint256"},{"name":"battles","type":"uint8[]","internalType":"uint8[]"}],"outputs":[{"name":"","type":"uint256","internalType":"uint256"}],"stateMutability":"view"},{"type":"function","name":"initialize","inputs":[{"name":"initialOwner","type":"address","internalType":"address"}],"outputs":[],"stateMutability":"nonpayable"},{"type":"function","name":"k","inputs":[],"outputs":[{"name":"","type":"uint256","internalType":"uint256"}],"stateMutability":"view"},{"type":"function","name":"owner","inputs":[],"outputs":[{"name":"","type":"address","internalType":"address"}],"stateMutability":"view"},{"type":"function","name":"renounceOwnership","inputs":[],"outputs":[],"stateMutability":"nonpayable"},{"type":"function","name":"setK","inputs":[{"name":"k_","type":"uint256","internalType":"uint256"}],"outputs":[],"stateMutability":"nonpayable"},{"type":"function","name":"transferOwnership","inputs":[{"name":"newOwner","type":"address","internalType":"address"}],"outputs":[],"stateMutability":"nonpayable"},{"type":"event","name":"Initialized","inputs":[{"name":"version","type":"uint64","indexed":false,"internalType":"uint64"}],"anonymous":false},{"type":"event","name":"OwnershipTransferred","inputs":[{"name":"previousOwner","type":"address","indexed":true,"internalType":"address"},{"name":"newOwner","type":"address","indexed":true,"internalType":"address"}],"anonymous":false},{"type":"error","name":"InvalidInitialization","inputs":[]},{"type":"error","name":"NotInitializing","inputs":[]},{"type":"error","name":"OwnableInvalidOwner","inputs":[{"name":"owner","type":"address","internalType":"address"}]},{"type":"error","name":"OwnableUnauthorizedAccount","inputs":[{"name":"account","type":"address","internalType":"address"}]}],"bytecode":{"object":"0x608060405234801561000f575f80fd5b5061001861001d565b6100cf565b7ff0c57e16840df040f15088dc2f81fe391c3923bec73e23a9662efc9c229c6a00805468010000000000000000900460ff161561006d5760405163f92ee8a960e01b815260040160405180910390fd5b80546001600160401b03908116146100cc5780546001600160401b0319166001600160401b0390811782556040519081527fc7f505b2f371ae2175ee4913f4499e1f2633a7b5936321eed1cdaeb6115181d29060200160405180910390a15b50565b610988806100dc5f395ff3fe608060405234801561000f575f80fd5b506004361061007a575f3560e01c8063b4f40c6111610058578063b4f40c61146100da578063c4d66de8146100f0578063e6023b8014610103578063f2fde38b14610116575f80fd5b806367de8be91461007e578063715018a6146100935780638da5cb5b1461009b575b5f80fd5b61009161008c36600461079f565b610129565b005b610091610135565b7f9016d09d72d40fdae2fd8ceac6b6234c7706214fd39c1cd1e609a0528c199300546040516001600160a01b0390911681526020015b60405180910390f35b6100e25f5481565b6040519081526020016100d1565b6100916100fe3660046107b6565b610148565b6100e2610111366004610805565b61025a565b6100916101243660046107b6565b610319565b61013161035b565b5f55565b61013d61035b565b6101465f6103b6565b565b7ff0c57e16840df040f15088dc2f81fe391c3923bec73e23a9662efc9c229c6a008054600160401b810460ff16159067ffffffffffffffff165f8115801561018d5750825b90505f8267ffffffffffffffff1660011480156101a95750303b155b9050811580156101b7575080155b156101d55760405163f92ee8a960e01b815260040160405180910390fd5b845467ffffffffffffffff1916600117855583156101ff57845460ff60401b1916600160401b1785555b61020886610426565b601e5f55831561025257845460ff60401b19168555604051600181527fc7f505b2f371ae2175ee4913f4499e1f2633a7b5936321eed1cdaeb6115181d29060200160405180910390a15b505050505050565b5f6103e880825b84518110156102f6575f61028d868381518110610280576102806108d1565b6020026020010151610437565b90505f8061029e8587855f54610478565b915091506102ad8260646105ba565b915080156102d2576102bf82876108f9565b95506102cb828661090c565b94506102eb565b6102dc828761090c565b95506102e882866108f9565b94505b505050600101610261565b506103e8610304838761090c565b61030e91906108f9565b925050505b92915050565b61032161035b565b6001600160a01b03811661034f57604051631e4fbdf760e01b81525f60048201526024015b60405180910390fd5b610358816103b6565b50565b3361038d7f9016d09d72d40fdae2fd8ceac6b6234c7706214fd39c1cd1e609a0528c199300546001600160a01b031690565b6001600160a01b0316146101465760405163118cdaa760e01b8152336004820152602401610346565b7f9016d09d72d40fdae2fd8ceac6b6234c7706214fd39c1cd1e609a0528c19930080546001600160a01b031981166001600160a01b03848116918217845560405192169182907f8be0079c531659141344cd1fd0a4f28419497f9722a3daafe3b4186f6b6457e0905f90a3505050565b61042e6105e3565b6103588161062c565b5f8160ff1660010361044b57506064919050565b8160ff1660020361045e57506032919050565b8160ff1660030361047157506032919050565b505f919050565b5f806127108302868610828161049057888803610494565b8789035b905061046681106104e75760405162461bcd60e51b815260206004820152601b60248201527f526174696e6720646966666572656e636520746f6f206c6172676500000000006044820152606401610346565b811561053e57610320811061053e5760405162461bcd60e51b815260206004820152601b60248201527f526174696e6720646966666572656e636520746f6f206c6172676500000000006044820152606401610346565b5f805f805f86610552578561032001610558565b85610320035b945061056a600a601987046001610634565b9350610575846106ec565b92508260640188816105895761058961091f565b0491508b8b0290508181109850886105a3578181036105a7565b8082035b9950505050505050505094509492505050565b5f8160016105c8828661090c565b6105d291906108f9565b6105dc9190610933565b9392505050565b7ff0c57e16840df040f15088dc2f81fe391c3923bec73e23a9662efc9c229c6a0054600160401b900460ff1661014657604051631afcd79f60e31b815260040160405180910390fd5b6103216105e3565b5f8380156106cf5760018416801561064e57859250610652565b8392505b508260011c8460011c94505b84156106c9578560801c15610671575f80fd5b85860281810181811015610683575f80fd5b85900496505060018516156106be5785830283878204146106a85786156106a8575f80fd5b818101818110156106b7575f80fd5b8590049350505b8460011c945061065e565b506106e4565b8380156106de575f92506106e2565b8392505b505b509392505050565b5f6103136106fb6106fb6106fb855b60b581600160881b81106107145760409190911b9060801c5b690100000000000000000081106107305760209190911b9060401c5b6501000000000081106107485760109190911b9060201c5b6301000000811061075e5760089190911b9060101c5b62010000010260121c80820401600190811c80830401811c80830401811c80830401811c80830401811c80830401811c80830401901c908190048111900390565b5f602082840312156107af575f80fd5b5035919050565b5f602082840312156107c6575f80fd5b81356001600160a01b03811681146105dc575f80fd5b634e487b7160e01b5f52604160045260245ffd5b803560ff81168114610800575f80fd5b919050565b5f8060408385031215610816575f80fd5b8235915060208084013567ffffffffffffffff80821115610835575f80fd5b818601915086601f830112610848575f80fd5b81358181111561085a5761085a6107dc565b8060051b604051601f19603f8301168101818110858211171561087f5761087f6107dc565b60405291825284820192508381018501918983111561089c575f80fd5b938501935b828510156108c1576108b2856107f0565b845293850193928501926108a1565b8096505050505050509250929050565b634e487b7160e01b5f52603260045260245ffd5b634e487b7160e01b5f52601160045260245ffd5b81810381811115610313576103136108e5565b80820180821115610313576103136108e5565b634e487b7160e01b5f52601260045260245ffd5b5f8261094d57634e487b7160e01b5f52601260045260245ffd5b50049056fea26469706673582212202e94fae3a1371c82fab296a0af5e5d12194526a08d512552a56b6085e9142af164736f6c63430008160033","linkReferences":{}},"methodIdentifiers":{"battleElo(uint256,uint8[])":"e6023b80","initialize(address)":"c4d66de8","k()":"b4f40c61","owner()":"8da5cb5b","renounceOwnership()":"715018a6","setK(uint256)":"67de8be9","transferOwnership(address)":"f2fde38b"},"id":60}