{"abi":[{"type":"constructor","inputs":[],"stateMutability":"nonpayable"},{"type":"function","name":"approve","inputs":[{"name":"to","type":"address","internalType":"address"},{"name":"tokenId","type":"uint256","internalType":"uint256"}],"outputs":[],"stateMutability":"nonpayable"},{"type":"function","name":"balanceOf","inputs":[{"name":"owner","type":"address","internalType":"address"}],"outputs":[{"name":"","type":"uint256","internalType":"uint256"}],"stateMutability":"view"},{"type":"function","name":"contributionNft","inputs":[],"outputs":[{"name":"","type":"address","internalType":"address"}],"stateMutability":"view"},{"type":"function","name":"datasetImpactWeight","inputs":[],"outputs":[{"name":"","type":"uint16","internalType":"uint16"}],"stateMutability":"view"},{"type":"function","name":"getApproved","inputs":[{"name":"tokenId","type":"uint256","internalType":"uint256"}],"outputs":[{"name":"","type":"address","internalType":"address"}],"stateMutability":"view"},{"type":"function","name":"getCore","inputs":[{"name":"tokenId","type":"uint256","internalType":"uint256"}],"outputs":[{"name":"","type":"uint8","internalType":"uint8"}],"stateMutability":"view"},{"type":"function","name":"getCoreDatasetAt","inputs":[{"name":"virtualId","type":"uint256","internalType":"uint256"},{"name":"coreType","type":"uint8","internalType":"uint8"},{"name":"index","type":"uint256","internalType":"uint256"}],"outputs":[{"name":"","type":"uint256","internalType":"uint256"}],"stateMutability":"view"},{"type":"function","name":"getCoreDatasets","inputs":[{"name":"virtualId","type":"uint256","internalType":"uint256"},{"name":"coreType","type":"uint8","internalType":"uint8"}],"outputs":[{"name":"","type":"uint256[]","internalType":"uint256[]"}],"stateMutability":"view"},{"type":"function","name":"getCoreService","inputs":[{"name":"virtualId","type":"uint256","internalType":"uint256"},{"name":"coreType","type":"uint8","internalType":"uint8"}],"outputs":[{"name":"","type":"uint256","internalType":"uint256"}],"stateMutability":"view"},{"type":"function","name":"getImpact","inputs":[{"name":"tokenId","type":"uint256","internalType":"uint256"}],"outputs":[{"name":"","type":"uint256","internalType":"uint256"}],"stateMutability":"view"},{"type":"function","name":"getMaturity","inputs":[{"name":"tokenId","type":"uint256","internalType":"uint256"}],"outputs":[{"name":"","type":"uint256","internalType":"uint256"}],"stateMutability":"view"},{"type":"function","name":"initialize","inputs":[{"name":"initialAgentNft","type":"address","internalType":"address"},{"name":"initialContributionNft","type":"address","internalType":"address"},{"name":"initialDatasetImpactWeight","type":"uint16","internalType":"uint16"}],"outputs":[],"stateMutability":"nonpayable"},{"type":"function","name":"isApprovedForAll","inputs":[{"name":"owner","type":"address","internalType":"address"},{"name":"operator","type":"address","internalType":"address"}],"outputs":[{"name":"","type":"bool","internalType":"bool"}],"stateMutability":"view"},{"type":"function","name":"mint","inputs":[{"name":"virtualId","type":"uint256","internalType":"uint256"},{"name":"descHash","type":"bytes32","internalType":"bytes32"}],"outputs":[{"name":"","type":"uint256","internalType":"uint256"}],"stateMutability":"nonpayable"},{"type":"function","name":"name","inputs":[],"outputs":[{"name":"","type":"string","internalType":"string"}],"stateMutability":"view"},{"type":"function","name":"owner","inputs":[],"outputs":[{"name":"","type":"address","internalType":"address"}],"stateMutability":"view"},{"type":"function","name":"ownerOf","inputs":[{"name":"tokenId","type":"uint256","internalType":"uint256"}],"outputs":[{"name":"","type":"address","internalType":"address"}],"stateMutability":"view"},{"type":"function","name":"personaNft","inputs":[],"outputs":[{"name":"","type":"address","internalType":"address"}],"stateMutability":"view"},{"type":"function","name":"renounceOwnership","inputs":[],"outputs":[],"stateMutability":"nonpayable"},{"type":"function","name":"safeTransferFrom","inputs":[{"name":"from","type":"address","internalType":"address"},{"name":"to","type":"address","internalType":"address"},{"name":"tokenId","type":"uint256","internalType":"uint256"}],"outputs":[],"stateMutability":"nonpayable"},{"type":"function","name":"safeTransferFrom","inputs":[{"name":"from","type":"address","internalType":"address"},{"name":"to","type":"address","internalType":"address"},{"name":"tokenId","type":"uint256","internalType":"uint256"},{"name":"data","type":"bytes","internalType":"bytes"}],"outputs":[],"stateMutability":"nonpayable"},{"type":"function","name":"setApprovalForAll","inputs":[{"name":"operator","type":"address","internalType":"address"},{"name":"approved","type":"bool","internalType":"bool"}],"outputs":[],"stateMutability":"nonpayable"},{"type":"function","name":"setDatasetImpactWeight","inputs":[{"name":"weight","type":"uint16","internalType":"uint16"}],"outputs":[],"stateMutability":"nonpayable"},{"type":"function","name":"supportsInterface","inputs":[{"name":"interfaceId","type":"bytes4","internalType":"bytes4"}],"outputs":[{"name":"","type":"bool","internalType":"bool"}],"stateMutability":"view"},{"type":"function","name":"symbol","inputs":[],"outputs":[{"name":"","type":"string","internalType":"string"}],"stateMutability":"view"},{"type":"function","name":"tokenByIndex","inputs":[{"name":"index","type":"uint256","internalType":"uint256"}],"outputs":[{"name":"","type":"uint256","internalType":"uint256"}],"stateMutability":"view"},{"type":"function","name":"tokenOfOwnerByIndex","inputs":[{"name":"owner","type":"address","internalType":"address"},{"name":"index","type":"uint256","internalType":"uint256"}],"outputs":[{"name":"","type":"uint256","internalType":"uint256"}],"stateMutability":"view"},{"type":"function","name":"tokenURI","inputs":[{"name":"tokenId","type":"uint256","internalType":"uint256"}],"outputs":[{"name":"","type":"string","internalType":"string"}],"stateMutability":"view"},{"type":"function","name":"totalCoreDatasets","inputs":[{"name":"virtualId","type":"uint256","internalType":"uint256"},{"name":"coreType","type":"uint8","internalType":"uint8"}],"outputs":[{"name":"","type":"uint256","internalType":"uint256"}],"stateMutability":"view"},{"type":"function","name":"totalSupply","inputs":[],"outputs":[{"name":"","type":"uint256","internalType":"uint256"}],"stateMutability":"view"},{"type":"function","name":"transferFrom","inputs":[{"name":"from","type":"address","internalType":"address"},{"name":"to","type":"address","internalType":"address"},{"name":"tokenId","type":"uint256","internalType":"uint256"}],"outputs":[],"stateMutability":"nonpayable"},{"type":"function","name":"transferOwnership","inputs":[{"name":"newOwner","type":"address","internalType":"address"}],"outputs":[],"stateMutability":"nonpayable"},{"type":"function","name":"updateImpact","inputs":[{"name":"virtualId","type":"uint256","internalType":"uint256"},{"name":"proposalId","type":"uint256","internalType":"uint256"}],"outputs":[],"stateMutability":"nonpayable"},{"type":"event","name":"Approval","inputs":[{"name":"owner","type":"address","indexed":true,"internalType":"address"},{"name":"approved","type":"address","indexed":true,"internalType":"address"},{"name":"tokenId","type":"uint256","indexed":true,"internalType":"uint256"}],"anonymous":false},{"type":"event","name":"ApprovalForAll","inputs":[{"name":"owner","type":"address","indexed":true,"internalType":"address"},{"name":"operator","type":"address","indexed":true,"internalType":"address"},{"name":"approved","type":"bool","indexed":false,"internalType":"bool"}],"anonymous":false},{"type":"event","name":"BatchMetadataUpdate","inputs":[{"name":"_fromTokenId","type":"uint256","indexed":false,"internalType":"uint256"},{"name":"_toTokenId","type":"uint256","indexed":false,"internalType":"uint256"}],"anonymous":false},{"type":"event","name":"CoreServiceUpdated","inputs":[{"name":"virtualId","type":"uint256","indexed":false,"internalType":"uint256"},{"name":"coreType","type":"uint8","indexed":false,"internalType":"uint8"},{"name":"serviceId","type":"uint256","indexed":false,"internalType":"uint256"}],"anonymous":false},{"type":"event","name":"DatasetImpactUpdated","inputs":[{"name":"weight","type":"uint16","indexed":false,"internalType":"uint16"}],"anonymous":false},{"type":"event","name":"Initialized","inputs":[{"name":"version","type":"uint64","indexed":false,"internalType":"uint64"}],"anonymous":false},{"type":"event","name":"MetadataUpdate","inputs":[{"name":"_tokenId","type":"uint256","indexed":false,"internalType":"uint256"}],"anonymous":false},{"type":"event","name":"NewService","inputs":[{"name":"tokenId","type":"uint256","indexed":false,"internalType":"uint256"},{"name":"coreId","type":"uint8","indexed":false,"internalType":"uint8"},{"name":"maturity","type":"uint256","indexed":false,"internalType":"uint256"},{"name":"impact","type":"uint256","indexed":false,"internalType":"uint256"},{"name":"isModel","type":"bool","indexed":false,"internalType":"bool"}],"anonymous":false},{"type":"event","name":"OwnershipTransferred","inputs":[{"name":"previousOwner","type":"address","indexed":true,"internalType":"address"},{"name":"newOwner","type":"address","indexed":true,"internalType":"address"}],"anonymous":false},{"type":"event","name":"SetServiceScore","inputs":[{"name":"serviceId","type":"uint256","indexed":false,"internalType":"uint256"},{"name":"eloRating","type":"uint256","indexed":false,"internalType":"uint256"},{"name":"impact","type":"uint256","indexed":false,"internalType":"uint256"}],"anonymous":false},{"type":"event","name":"Transfer","inputs":[{"name":"from","type":"address","indexed":true,"internalType":"address"},{"name":"to","type":"address","indexed":true,"internalType":"address"},{"name":"tokenId","type":"uint256","indexed":true,"internalType":"uint256"}],"anonymous":false},{"type":"error","name":"ERC721EnumerableForbiddenBatchMint","inputs":[]},{"type":"error","name":"ERC721IncorrectOwner","inputs":[{"name":"sender","type":"address","internalType":"address"},{"name":"tokenId","type":"uint256","internalType":"uint256"},{"name":"owner","type":"address","internalType":"address"}]},{"type":"error","name":"ERC721InsufficientApproval","inputs":[{"name":"operator","type":"address","internalType":"address"},{"name":"tokenId","type":"uint256","internalType":"uint256"}]},{"type":"error","name":"ERC721InvalidApprover","inputs":[{"name":"approver","type":"address","internalType":"address"}]},{"type":"error","name":"ERC721InvalidOperator","inputs":[{"name":"operator","type":"address","internalType":"address"}]},{"type":"error","name":"ERC721InvalidOwner","inputs":[{"name":"owner","type":"address","internalType":"address"}]},{"type":"error","name":"ERC721InvalidReceiver","inputs":[{"name":"receiver","type":"address","internalType":"address"}]},{"type":"error","name":"ERC721InvalidSender","inputs":[{"name":"sender","type":"address","internalType":"address"}]},{"type":"error","name":"ERC721NonexistentToken","inputs":[{"name":"tokenId","type":"uint256","internalType":"uint256"}]},{"type":"error","name":"ERC721OutOfBoundsIndex","inputs":[{"name":"owner","type":"address","internalType":"address"},{"name":"index","type":"uint256","internalType":"uint256"}]},{"type":"error","name":"InvalidInitialization","inputs":[]},{"type":"error","name":"NotInitializing","inputs":[]},{"type":"error","name":"OwnableInvalidOwner","inputs":[{"name":"owner","type":"address","internalType":"address"}]},{"type":"error","name":"OwnableUnauthorizedAccount","inputs":[{"name":"account","type":"address","internalType":"address"}]}],"bytecode":{"object":"0x608060405234801562000010575f80fd5b506200001b62000021565b620000d5565b7ff0c57e16840df040f15088dc2f81fe391c3923bec73e23a9662efc9c229c6a00805468010000000000000000900460ff1615620000725760405163f92ee8a960e01b815260040160405180910390fd5b80546001600160401b0390811614620000d25780546001600160401b0319166001600160401b0390811782556040519081527fc7f505b2f371ae2175ee4913f4499e1f2633a7b5936321eed1cdaeb6115181d29060200160405180910390a15b50565b6127a780620000e35f395ff3fe608060405234801561000f575f80fd5b50600436106101f2575f3560e01c80636352211e11610114578063a22cb465116100a9578063ce6d5e3811610079578063ce6d5e38146104a8578063dcf75bef146104d0578063e6aed857146104e3578063e985e9c5146104f6578063f2fde38b14610509575f80fd5b8063a22cb4651461045c578063b88d4fde1461046f578063c5f69f6814610482578063c87b56dd14610495575f80fd5b80637f1e7d41116100e45780637f1e7d41146103e257806387e2d553146103f55780638da5cb5b1461042457806395d89b4114610454575f80fd5b80636352211e146103a157806370a08231146103b4578063715018a6146103c75780637ebef529146103cf575f80fd5b8063243598691161018a5780633f98641c1161015a5780633f98641c1461035557806342842e0e146103685780634f6ccce71461037b5780635a03ac1e1461038e575f80fd5b806324359869146102ce578063252079b2146102fd57806327f98c11146103225780632f745c5914610342575f80fd5b8063095ea7b3116101c5578063095ea7b3146102715780631801fbe51461028657806318160ddd146102a757806323b872dd146102bb575f80fd5b806301ffc9a7146101f657806306fdde031461021e57806307c1aa1a14610233578063081812fc1461025e575b5f80fd5b610209610204366004611e48565b61051c565b60405190151581526020015b60405180910390f35b61022661052c565b6040516102159190611eb7565b600254610246906001600160a01b031681565b6040516001600160a01b039091168152602001610215565b61024661026c366004611ec9565b6105cd565b61028461027f366004611ef4565b6105e1565b005b610299610294366004611f1e565b6105f0565b604051908152602001610215565b5f8051602061275283398151915254610299565b6102846102c9366004611f3e565b610b26565b6102996102dc366004611f8a565b5f91825260076020908152604080842060ff93909316845291905290205490565b61031061030b366004611ec9565b610baf565b60405160ff9091168152602001610215565b610335610330366004611f8a565b610bcf565b6040516102159190611ff2565b610299610350366004611ef4565b610c3a565b610299610363366004612004565b610cab565b610284610376366004611f3e565b610cea565b610299610389366004611ec9565b610d09565b61028461039c36600461203e565b610d7b565b6102466103af366004611ec9565b610dd9565b6102996103c2366004612057565b610de3565b610284610e3b565b6102846103dd366004612072565b610e4e565b6102996103f0366004611ec9565b610ff6565b610299610403366004611f8a565b5f91825260066020908152604080842060ff93909316845291905290205490565b7f9016d09d72d40fdae2fd8ceac6b6234c7706214fd39c1cd1e609a0528c199300546001600160a01b0316610246565b610226611013565b61028461046a3660046120c3565b611051565b61028461047d366004612184565b61105c565b610284610490366004611f1e565b611073565b6102266104a3366004611ec9565b61127a565b6002546104bd90600160a01b900461ffff1681565b60405161ffff9091168152602001610215565b600154610246906001600160a01b031681565b6102996104f1366004611ec9565b6112e8565b61020961050436600461222c565b611305565b610284610517366004612057565b611351565b5f6105268261138e565b92915050565b5f80516020612732833981519152805460609190819061054b90612258565b80601f016020809104026020016040519081016040528092919081815260200182805461057790612258565b80156105c25780601f10610599576101008083540402835291602001916105c2565b820191905f5260205f20905b8154815290600101906020018083116105a557829003601f168201915b505050505091505090565b5f6105d7826113b2565b50610526826113e9565b6105ec828233611422565b5050565b600154604051635652386760e11b8152600481018490525f9182916001600160a01b039091169063aca470ce906024015f60405180830381865afa15801561063a573d5f803e3d5ffd5b505050506040513d5f823e601f3d908101601f191682016040526106619190810190612290565b80519091506001600160a01b0316336001600160a01b0316146106cb5760405162461bcd60e51b815260206004820152601960248201527f43616c6c6572206973206e6f74205649525455414c2044414f0000000000000060448201526064015b60405180910390fd5b8051604080516024810187905260448082018790528251808303909101815260649091018252602080820180516001600160e01b0316631801fbe560e01b1790528251600180825281850190945291925f9291828101908036833701905050905030815f8151811061073f5761073f6123b4565b6001600160a01b0392909216602092830291909101909101526040805160018082528183019092525f918160200160208202803683370190505090505f815f8151811061078e5761078e6123b4565b60209081029190910101526040805160018082528183019092525f91816020015b60608152602001906001900390816107af57905050905083815f815181106107d9576107d96123b4565b60200260200101819052505f856001600160a01b031663c59057e48585858d6040518563ffffffff1660e01b815260040161081794939291906123c8565b602060405180830381865afa158015610832573d5f803e3d5ffd5b505050506040513d601f19601f820116820180604052508101906108569190612486565b905061086687606001518261142f565b6002546040516312903cd960e11b8152600481018390526001600160a01b039091169063252079b290602401602060405180830381865afa1580156108ad573d5f803e3d5ffd5b505050506040513d601f19601f820116820180604052508101906108d1919061249d565b5f8281526003602052604090819020805460ff191660ff939093169290921790915587519051637f1e7d4160e01b8152600481018390526001600160a01b0390911690637f1e7d4190602401602060405180830381865afa158015610938573d5f803e3d5ffd5b505050506040513d601f19601f8201168201806040525081019061095c9190612486565b5f828152600460208190526040808320939093556002549251638209c69960e01b815290810184905290916001600160a01b031690638209c69990602401602060405180830381865afa1580156109b5573d5f803e3d5ffd5b505050506040513d601f19601f820116820180604052508101906109d991906124b8565b90508015610a6e575f828152600360209081526040918290205482518e815260ff909116918101919091529081018390527f45c6adbf8d3cf8bc3057920eb2f540e959a3ef2be5ed2eed7d2e180c39d5c6df9060600160405180910390a1610a418b83611073565b5f8b8152600660209081526040808320858452600383528184205460ff1684529091529020829055610aa4565b5f8b8152600760209081526040808320858452600383528184205460ff1684528252822080546001810182559083529120018290555b5f828152600360209081526040808320546004835281842054600584529382902054825187815260ff9092169382019390935290810192909252606082015281151560808201527fa9125a360b8b166ef7546b869159e4f0a4309857e23d58bf49d142ff287e22699060a00160405180910390a1509998505050505050505050565b6001600160a01b038216610b4f57604051633250574960e11b81525f60048201526024016106c2565b5f610b5b838333611490565b9050836001600160a01b0316816001600160a01b031614610ba9576040516364283d7b60e01b81526001600160a01b03808616600483015260248201849052821660448201526064016106c2565b50505050565b5f610bb9826113b2565b50505f9081526003602052604090205460ff1690565b5f82815260076020908152604080832060ff85168452825291829020805483518184028101840190945280845260609392830182828015610c2d57602002820191905f5260205f20905b815481526020019060010190808311610c19575b5050505050905092915050565b5f5f80516020612712833981519152610c5284610de3565b8310610c835760405163295f44f760e21b81526001600160a01b0385166004820152602481018490526044016106c2565b6001600160a01b0384165f908152602091825260408082208583529092522054905092915050565b5f83815260076020908152604080832060ff861684529091528120805483908110610cd857610cd86123b4565b905f5260205f20015490509392505050565b610d0483838360405180602001604052805f81525061105c565b505050565b5f5f80516020612712833981519152610d2d5f805160206127528339815191525490565b8310610d555760405163295f44f760e21b81525f6004820152602481018490526044016106c2565b806002018381548110610d6a57610d6a6123b4565b905f5260205f200154915050919050565b610d836114a4565b6002805461ffff60a01b1916600160a01b61ffff8416908102919091179091556040519081527f96bb86fe6b0f03915e6cdc0b513be478aa7b91d0330a1030518bd0c4dd0d116a9060200160405180910390a150565b5f610526826113b2565b5f5f805160206127328339815191526001600160a01b038316610e1b576040516322718ad960e21b81525f60048201526024016106c2565b6001600160a01b039092165f908152600390920160205250604090205490565b610e436114a4565b610e4c5f6114ff565b565b7ff0c57e16840df040f15088dc2f81fe391c3923bec73e23a9662efc9c229c6a008054600160401b810460ff16159067ffffffffffffffff165f81158015610e935750825b90505f8267ffffffffffffffff166001148015610eaf5750303b155b905081158015610ebd575080155b15610edb5760405163f92ee8a960e01b815260040160405180910390fd5b845467ffffffffffffffff191660011785558315610f0557845460ff60401b1916600160401b1785555b610f48604051806040016040528060078152602001665365727669636560c81b81525060405180604001604052806002815260200161565360f01b81525061156f565b610f50611581565b610f58611581565b610f6133611589565b600180546001600160a01b0319166001600160a01b038a811691909117909155600280549189166001600160b01b031990921691909117600160a01b61ffff8916021790558315610fec57845460ff60401b19168555604051600181527fc7f505b2f371ae2175ee4913f4499e1f2633a7b5936321eed1cdaeb6115181d29060200160405180910390a15b5050505050505050565b5f611000826113b2565b50505f9081526004602052604090205490565b7f80bb2b638cc20bc4d0a60d66940f3ab4a00c1d7b313497ca82fb0b4ab007930180546060915f805160206127328339815191529161054b90612258565b6105ec33838361159a565b611067848484610b26565b610ba984848484611649565b5f828152600660209081526040808320848452600383528184205460ff16845282528083205480845260049092528083205484845290832054919291116110ba575f6110d9565b5f82815260046020526040808220548583529120546110d991906124e7565b6002546040516360a58cbd60e11b8152600481018690529192505f916001600160a01b039091169063c14b197a90602401602060405180830381865afa158015611125573d5f803e3d5ffd5b505050506040513d601f19601f820116820180604052508101906111499190612486565b5f8581526005602052604090208390559050801561121a576002546127109061117d90600160a01b900461ffff16846124fa565b6111879190612511565b5f8281526005602052604090208190556111a190836124e7565b5f85815260056020818152604080842094909455600481528383205485845291815291839020548351858152928301919091528183015290517fd4dd630f340a33010ac6e15bb9540a676dbeaf5ad85e43fa2f3f856ac40a19399181900360600190a15f84815260046020526040808220548383529120555b5f848152600460209081526040808320546005835292819020548151888152928301939093528101919091527fd4dd630f340a33010ac6e15bb9540a676dbeaf5ad85e43fa2f3f856ac40a19399060600160405180910390a15050505050565b60025460405163c87b56dd60e01b8152600481018390526060916001600160a01b03169063c87b56dd906024015f60405180830381865afa1580156112c1573d5f803e3d5ffd5b505050506040513d5f823e601f3d908101601f191682016040526105269190810190612530565b5f6112f2826113b2565b50505f9081526005602052604090205490565b6001600160a01b039182165f9081527f80bb2b638cc20bc4d0a60d66940f3ab4a00c1d7b313497ca82fb0b4ab00793056020908152604080832093909416825291909152205460ff1690565b6113596114a4565b6001600160a01b03811661138257604051631e4fbdf760e01b81525f60048201526024016106c2565b61138b816114ff565b50565b5f6001600160e01b03198216632483248360e11b148061052657506105268261176f565b5f806113bd83611793565b90506001600160a01b03811661052657604051637e27328960e01b8152600481018490526024016106c2565b5f9081527f80bb2b638cc20bc4d0a60d66940f3ab4a00c1d7b313497ca82fb0b4ab007930460205260409020546001600160a01b031690565b610d0483838360016117cc565b6001600160a01b03821661145857604051633250574960e11b81525f60048201526024016106c2565b5f61146483835f611490565b90506001600160a01b03811615610d04576040516339e3563760e11b81525f60048201526024016106c2565b5f61149c8484846118df565b949350505050565b336114d67f9016d09d72d40fdae2fd8ceac6b6234c7706214fd39c1cd1e609a0528c199300546001600160a01b031690565b6001600160a01b031614610e4c5760405163118cdaa760e01b81523360048201526024016106c2565b7f9016d09d72d40fdae2fd8ceac6b6234c7706214fd39c1cd1e609a0528c19930080546001600160a01b031981166001600160a01b03848116918217845560405192169182907f8be0079c531659141344cd1fd0a4f28419497f9722a3daafe3b4186f6b6457e0905f90a3505050565b6115776119d5565b6105ec8282611a1e565b610e4c6119d5565b6115916119d5565b61138b81611a4e565b5f805160206127328339815191526001600160a01b0383166115da57604051630b61174360e31b81526001600160a01b03841660048201526024016106c2565b6001600160a01b038481165f818152600584016020908152604080832094881680845294825291829020805460ff191687151590811790915591519182527f17307eab39ab6107e8899845ad3d59bd9653f200f220920489ca2b5937696c31910160405180910390a350505050565b6001600160a01b0383163b15610ba957604051630a85bd0160e11b81526001600160a01b0384169063150b7a029061168b9033908890879087906004016125a2565b6020604051808303815f875af19250505080156116c5575060408051601f3d908101601f191682019092526116c2918101906125de565b60015b61172c573d8080156116f2576040519150601f19603f3d011682016040523d82523d5f602084013e6116f7565b606091505b5080515f0361172457604051633250574960e11b81526001600160a01b03851660048201526024016106c2565b805181602001fd5b6001600160e01b03198116630a85bd0160e11b1461176857604051633250574960e11b81526001600160a01b03851660048201526024016106c2565b5050505050565b5f6001600160e01b0319821663780e9d6360e01b1480610526575061052682611a56565b5f9081527f80bb2b638cc20bc4d0a60d66940f3ab4a00c1d7b313497ca82fb0b4ab007930260205260409020546001600160a01b031690565b5f8051602061273283398151915281806117ee57506001600160a01b03831615155b156118af575f6117fd856113b2565b90506001600160a01b038416158015906118295750836001600160a01b0316816001600160a01b031614155b801561183c575061183a8185611305565b155b156118655760405163a9fbf51f60e01b81526001600160a01b03851660048201526024016106c2565b82156118ad5784866001600160a01b0316826001600160a01b03167f8c5be1e5ebec7d5bd14f71427d1e84f3dd0314c0f7b2291e5b200ac8c7c3b92560405160405180910390a45b505b5f93845260040160205250506040902080546001600160a01b0319166001600160a01b0392909216919091179055565b5f806118ec858585611aa5565b90506001600160a01b0381166119735761196e845f8051602061275283398151915280545f8381527f645e039705490088daad89bae25049a34f4a9072d398537b1ab2425f24cbed0360205260408120829055600182018355919091527fa42f15e5d656f8155fd7419d740a6073999f19cd6e061449ce4a257150545bf20155565b611996565b846001600160a01b0316816001600160a01b031614611996576119968185611ba7565b6001600160a01b0385166119b2576119ad84611c46565b61149c565b846001600160a01b0316816001600160a01b03161461149c5761149c8585611d13565b7ff0c57e16840df040f15088dc2f81fe391c3923bec73e23a9662efc9c229c6a0054600160401b900460ff16610e4c57604051631afcd79f60e31b815260040160405180910390fd5b611a266119d5565b5f8051602061273283398151915280611a3f848261263d565b5060018101610ba9838261263d565b6113596119d5565b5f6001600160e01b031982166380ac58cd60e01b1480611a8657506001600160e01b03198216635b5e139f60e01b145b8061052657506301ffc9a760e01b6001600160e01b0319831614610526565b5f5f8051602061273283398151915281611abe85611793565b90506001600160a01b03841615611ada57611ada818587611d6b565b6001600160a01b03811615611b1657611af55f865f806117cc565b6001600160a01b0381165f908152600383016020526040902080545f190190555b6001600160a01b03861615611b46576001600160a01b0386165f9081526003830160205260409020805460010190555b5f85815260028301602052604080822080546001600160a01b0319166001600160a01b038a811691821790925591518893918516917fddf252ad1be2c89b69c2b068fc378daa952ba7f163c4a11628f55a4df523b3ef91a495945050505050565b5f805160206127128339815191525f611bbf84610de3565b5f848152600184016020526040902054909150808214611c12576001600160a01b0385165f9081526020848152604080832085845282528083205484845281842081905583526001860190915290208190555b505f92835260018201602090815260408085208590556001600160a01b039095168452918252838320908352905290812055565b5f80516020612752833981519152545f80516020612712833981519152905f90611c72906001906124e7565b5f848152600384016020526040812054600285018054939450909284908110611c9d57611c9d6123b4565b905f5260205f200154905080846002018381548110611cbe57611cbe6123b4565b5f91825260208083209091019290925582815260038601909152604080822084905586825281205560028401805480611cf957611cf96126fd565b600190038181905f5260205f20015f905590555050505050565b5f805160206127128339815191525f6001611d2d85610de3565b611d3791906124e7565b6001600160a01b039094165f9081526020838152604080832087845282528083208690559482526001909301909252502055565b611d76838383611dcf565b610d04576001600160a01b038316611da457604051637e27328960e01b8152600481018290526024016106c2565b60405163177e802f60e01b81526001600160a01b0383166004820152602481018290526044016106c2565b5f6001600160a01b0383161580159061149c5750826001600160a01b0316846001600160a01b03161480611e085750611e088484611305565b8061149c5750826001600160a01b0316611e21836113e9565b6001600160a01b031614949350505050565b6001600160e01b03198116811461138b575f80fd5b5f60208284031215611e58575f80fd5b8135611e6381611e33565b9392505050565b5f5b83811015611e84578181015183820152602001611e6c565b50505f910152565b5f8151808452611ea3816020860160208601611e6a565b601f01601f19169290920160200192915050565b602081525f611e636020830184611e8c565b5f60208284031215611ed9575f80fd5b5035919050565b6001600160a01b038116811461138b575f80fd5b5f8060408385031215611f05575f80fd5b8235611f1081611ee0565b946020939093013593505050565b5f8060408385031215611f2f575f80fd5b50508035926020909101359150565b5f805f60608486031215611f50575f80fd5b8335611f5b81611ee0565b92506020840135611f6b81611ee0565b929592945050506040919091013590565b60ff8116811461138b575f80fd5b5f8060408385031215611f9b575f80fd5b823591506020830135611fad81611f7c565b809150509250929050565b5f815180845260208085019450602084015f5b83811015611fe757815187529582019590820190600101611fcb565b509495945050505050565b602081525f611e636020830184611fb8565b5f805f60608486031215612016575f80fd5b833592506020840135611f6b81611f7c565b803561ffff81168114612039575f80fd5b919050565b5f6020828403121561204e575f80fd5b611e6382612028565b5f60208284031215612067575f80fd5b8135611e6381611ee0565b5f805f60608486031215612084575f80fd5b833561208f81611ee0565b9250602084013561209f81611ee0565b91506120ad60408501612028565b90509250925092565b801515811461138b575f80fd5b5f80604083850312156120d4575f80fd5b82356120df81611ee0565b91506020830135611fad816120b6565b634e487b7160e01b5f52604160045260245ffd5b60405160a0810167ffffffffffffffff81118282101715612126576121266120ef565b60405290565b604051601f8201601f1916810167ffffffffffffffff81118282101715612155576121556120ef565b604052919050565b5f67ffffffffffffffff821115612176576121766120ef565b50601f01601f191660200190565b5f805f8060808587031215612197575f80fd5b84356121a281611ee0565b935060208501356121b281611ee0565b925060408501359150606085013567ffffffffffffffff8111156121d4575f80fd5b8501601f810187136121e4575f80fd5b80356121f76121f28261215d565b61212c565b81815288602083850101111561220b575f80fd5b816020840160208301375f6020838301015280935050505092959194509250565b5f806040838503121561223d575f80fd5b823561224881611ee0565b91506020830135611fad81611ee0565b600181811c9082168061226c57607f821691505b60208210810361228a57634e487b7160e01b5f52602260045260245ffd5b50919050565b5f60208083850312156122a1575f80fd5b825167ffffffffffffffff808211156122b8575f80fd5b9084019060a082870312156122cb575f80fd5b6122d3612103565b82516122de81611ee0565b8152828401516122ed81611ee0565b8185015260408301516122ff81611ee0565b6040820152606083015161231281611ee0565b6060820152608083015182811115612328575f80fd5b80840193505086601f84011261233c575f80fd5b82518281111561234e5761234e6120ef565b8060051b925061235f85840161212c565b8181529284018501928581019089851115612378575f80fd5b948601945b848610156123a2578551925061239283611f7c565b828252948601949086019061237d565b60808401525090979650505050505050565b634e487b7160e01b5f52603260045260245ffd5b608080825285519082018190525f9060209060a0840190828901845b828110156124095781516001600160a01b0316845292840192908401906001016123e4565b5050508381038285015261241d8188611fb8565b905083810360408501528086518083528383019150838160051b8401018489015f5b8381101561246d57601f1986840301855261245b838351611e8c565b9487019492509086019060010161243f565b5050809550505050505082606083015295945050505050565b5f60208284031215612496575f80fd5b5051919050565b5f602082840312156124ad575f80fd5b8151611e6381611f7c565b5f602082840312156124c8575f80fd5b8151611e63816120b6565b634e487b7160e01b5f52601160045260245ffd5b81810381811115610526576105266124d3565b8082028115828204841417610526576105266124d3565b5f8261252b57634e487b7160e01b5f52601260045260245ffd5b500490565b5f60208284031215612540575f80fd5b815167ffffffffffffffff811115612556575f80fd5b8201601f81018413612566575f80fd5b80516125746121f28261215d565b818152856020838501011115612588575f80fd5b612599826020830160208601611e6a565b95945050505050565b6001600160a01b03858116825284166020820152604081018390526080606082018190525f906125d490830184611e8c565b9695505050505050565b5f602082840312156125ee575f80fd5b8151611e6381611e33565b601f821115610d0457805f5260205f20601f840160051c8101602085101561261e5750805b601f840160051c820191505b81811015611768575f815560010161262a565b815167ffffffffffffffff811115612657576126576120ef565b61266b816126658454612258565b846125f9565b602080601f83116001811461269e575f84156126875750858301515b5f19600386901b1c1916600185901b1785556126f5565b5f85815260208120601f198616915b828110156126cc578886015182559484019460019091019084016126ad565b50858210156126e957878501515f19600388901b60f8161c191681555b505060018460011b0185555b505050505050565b634e487b7160e01b5f52603160045260245ffdfe645e039705490088daad89bae25049a34f4a9072d398537b1ab2425f24cbed0080bb2b638cc20bc4d0a60d66940f3ab4a00c1d7b313497ca82fb0b4ab0079300645e039705490088daad89bae25049a34f4a9072d398537b1ab2425f24cbed02a264697066735822122018c53c3e35f3e27846f238303fc6db40e48c15999ac00d561e6e57685335fec864736f6c63430008160033","linkReferences":{}},"methodIdentifiers":{"approve(address,uint256)":"095ea7b3","balanceOf(address)":"70a08231","contributionNft()":"07c1aa1a","datasetImpactWeight()":"ce6d5e38","getApproved(uint256)":"081812fc","getCore(uint256)":"252079b2","getCoreDatasetAt(uint256,uint8,uint256)":"3f98641c","getCoreDatasets(uint256,uint8)":"27f98c11","getCoreService(uint256,uint8)":"87e2d553","getImpact(uint256)":"e6aed857","getMaturity(uint256)":"7f1e7d41","initialize(address,address,uint16)":"7ebef529","isApprovedForAll(address,address)":"e985e9c5","mint(uint256,bytes32)":"1801fbe5","name()":"06fdde03","owner()":"8da5cb5b","ownerOf(uint256)":"6352211e","personaNft()":"dcf75bef","renounceOwnership()":"715018a6","safeTransferFrom(address,address,uint256)":"42842e0e","safeTransferFrom(address,address,uint256,bytes)":"b88d4fde","setApprovalForAll(address,bool)":"a22cb465","setDatasetImpactWeight(uint16)":"5a03ac1e","supportsInterface(bytes4)":"01ffc9a7","symbol()":"95d89b41","tokenByIndex(uint256)":"4f6ccce7","tokenOfOwnerByIndex(address,uint256)":"2f745c59","tokenURI(uint256)":"c87b56dd","totalCoreDatasets(uint256,uint8)":"24359869","totalSupply()":"18160ddd","transferFrom(address,address,uint256)":"23b872dd","transferOwnership(address)":"f2fde38b","updateImpact(uint256,uint256)":"c5f69f68"},"id":8}