{"abi":[{"type":"function","name":"deposit","inputs":[{"name":"rootToken","type":"address","internalType":"address"},{"name":"amount","type":"uint256","internalType":"uint256"}],"outputs":[],"stateMutability":"nonpayable"},{"type":"function","name":"syncWithdraw","inputs":[{"name":"rootToken","type":"address","internalType":"address"},{"name":"amount","type":"uint256","internalType":"uint256"}],"outputs":[],"stateMutability":"nonpayable"},{"type":"error","name":"AddressEmptyCode","inputs":[{"name":"target","type":"address","internalType":"address"}]},{"type":"error","name":"AddressInsufficientBalance","inputs":[{"name":"account","type":"address","internalType":"address"}]},{"type":"error","name":"FailedInnerCall","inputs":[]},{"type":"error","name":"SafeERC20FailedOperation","inputs":[{"name":"token","type":"address","internalType":"address"}]}],"bytecode":{"object":"0x608060405234801561000f575f80fd5b5061037e8061001d5f395ff3fe608060405234801561000f575f80fd5b5060043610610034575f3560e01c806347e7ef2414610038578063e90cbc171461004d575b5f80fd5b61004b6100463660046102c8565b610060565b005b61004b61005b3660046102c8565b610079565b6100756001600160a01b03831633308461008d565b5050565b6100756001600160a01b03831633836100fa565b6040516001600160a01b0384811660248301528381166044830152606482018390526100f49186918216906323b872dd906084015b604051602081830303815290604052915060e01b6020820180516001600160e01b038381831617835250505050610130565b50505050565b6040516001600160a01b0383811660248301526044820183905261012b91859182169063a9059cbb906064016100c2565b505050565b5f6101446001600160a01b03841683610196565b905080515f1415801561016857508080602001905181019061016691906102fd565b155b1561012b57604051635274afe760e01b81526001600160a01b03841660048201526024015b60405180910390fd5b60606101a383835f6101aa565b9392505050565b6060814710156101cf5760405163cd78605960e01b815230600482015260240161018d565b5f80856001600160a01b031684866040516101ea919061031c565b5f6040518083038185875af1925050503d805f8114610224576040519150601f19603f3d011682016040523d82523d5f602084013e610229565b606091505b5091509150610239868383610243565b9695505050505050565b606082610258576102538261029f565b6101a3565b815115801561026f57506001600160a01b0384163b155b1561029857604051639996b31560e01b81526001600160a01b038516600482015260240161018d565b50806101a3565b8051156102af5780518082602001fd5b604051630a12f52160e11b815260040160405180910390fd5b5f80604083850312156102d9575f80fd5b82356001600160a01b03811681146102ef575f80fd5b946020939093013593505050565b5f6020828403121561030d575f80fd5b815180151581146101a3575f80fd5b5f82515f5b8181101561033b5760208186018101518583015201610321565b505f92019182525091905056fea2646970667358221220e3128a92c9e795dc0ddb70f3a8cd7f2bc0b20f8d06b2fcb1cc94758ac7e0c0ff64736f6c63430008160033","linkReferences":{}},"methodIdentifiers":{"deposit(address,uint256)":"47e7ef24","syncWithdraw(address,uint256)":"e90cbc17"},"id":14}