{"abi":[{"type":"constructor","inputs":[],"stateMutability":"nonpayable"},{"type":"function","name":"K","inputs":[],"outputs":[{"name":"","type":"uint256","internalType":"uint256"}],"stateMutability":"view"},{"type":"function","name":"agentFactory","inputs":[],"outputs":[{"name":"","type":"address","internalType":"address"}],"stateMutability":"view"},{"type":"function","name":"assetRate","inputs":[],"outputs":[{"name":"","type":"uint256","internalType":"uint256"}],"stateMutability":"view"},{"type":"function","name":"buy","inputs":[{"name":"amountIn","type":"uint256","internalType":"uint256"},{"name":"tokenAddress","type":"address","internalType":"address"}],"outputs":[{"name":"","type":"bool","internalType":"bool"}],"stateMutability":"payable"},{"type":"function","name":"factory","inputs":[],"outputs":[{"name":"","type":"address","internalType":"contract FFactory"}],"stateMutability":"view"},{"type":"function","name":"fee","inputs":[],"outputs":[{"name":"","type":"uint256","internalType":"uint256"}],"stateMutability":"view"},{"type":"function","name":"getUserTokens","inputs":[{"name":"account","type":"address","internalType":"address"}],"outputs":[{"name":"","type":"address[]","internalType":"address[]"}],"stateMutability":"view"},{"type":"function","name":"gradThreshold","inputs":[],"outputs":[{"name":"","type":"uint256","internalType":"uint256"}],"stateMutability":"view"},{"type":"function","name":"initialSupply","inputs":[],"outputs":[{"name":"","type":"uint256","internalType":"uint256"}],"stateMutability":"view"},{"type":"function","name":"initialize","inputs":[{"name":"factory_","type":"address","internalType":"address"},{"name":"router_","type":"address","internalType":"address"},{"name":"feeTo_","type":"address","internalType":"address"},{"name":"fee_","type":"uint256","internalType":"uint256"},{"name":"initialSupply_","type":"uint256","internalType":"uint256"},{"name":"assetRate_","type":"uint256","internalType":"uint256"},{"name":"maxTx_","type":"uint256","internalType":"uint256"},{"name":"agentFactory_","type":"address","internalType":"address"},{"name":"gradThreshold_","type":"uint256","internalType":"uint256"}],"outputs":[],"stateMutability":"nonpayable"},{"type":"function","name":"launch","inputs":[{"name":"_name","type":"string","internalType":"string"},{"name":"_ticker","type":"string","internalType":"string"},{"name":"cores","type":"uint8[]","internalType":"uint8[]"},{"name":"desc","type":"string","internalType":"string"},{"name":"img","type":"string","internalType":"string"},{"name":"urls","type":"string[4]","internalType":"string[4]"},{"name":"purchaseAmount","type":"uint256","internalType":"uint256"}],"outputs":[{"name":"","type":"address","internalType":"address"},{"name":"","type":"address","internalType":"address"},{"name":"","type":"uint256","internalType":"uint256"}],"stateMutability":"nonpayable"},{"type":"function","name":"launchFor","inputs":[{"name":"_name","type":"string","internalType":"string"},{"name":"_ticker","type":"string","internalType":"string"},{"name":"cores","type":"uint8[]","internalType":"uint8[]"},{"name":"desc","type":"string","internalType":"string"},{"name":"img","type":"string","internalType":"string"},{"name":"urls","type":"string[4]","internalType":"string[4]"},{"name":"purchaseAmount","type":"uint256","internalType":"uint256"},{"name":"creator","type":"address","internalType":"address"}],"outputs":[{"name":"","type":"address","internalType":"address"},{"name":"","type":"address","internalType":"address"},{"name":"","type":"uint256","internalType":"uint256"}],"stateMutability":"nonpayable"},{"type":"function","name":"maxTx","inputs":[],"outputs":[{"name":"","type":"uint256","internalType":"uint256"}],"stateMutability":"view"},{"type":"function","name":"owner","inputs":[],"outputs":[{"name":"","type":"address","internalType":"address"}],"stateMutability":"view"},{"type":"function","name":"profile","inputs":[{"name":"","type":"address","internalType":"address"}],"outputs":[{"name":"user","type":"address","internalType":"address"}],"stateMutability":"view"},{"type":"function","name":"profiles","inputs":[{"name":"","type":"uint256","internalType":"uint256"}],"outputs":[{"name":"","type":"address","internalType":"address"}],"stateMutability":"view"},{"type":"function","name":"renounceOwnership","inputs":[],"outputs":[],"stateMutability":"nonpayable"},{"type":"function","name":"router","inputs":[],"outputs":[{"name":"","type":"address","internalType":"contract FRouter"}],"stateMutability":"view"},{"type":"function","name":"sell","inputs":[{"name":"amountIn","type":"uint256","internalType":"uint256"},{"name":"tokenAddress","type":"address","internalType":"address"}],"outputs":[{"name":"","type":"bool","internalType":"bool"}],"stateMutability":"nonpayable"},{"type":"function","name":"setAssetRate","inputs":[{"name":"newRate","type":"uint256","internalType":"uint256"}],"outputs":[],"stateMutability":"nonpayable"},{"type":"function","name":"setDeployParams","inputs":[{"name":"params","type":"tuple","internalType":"struct Bonding.DeployParams","components":[{"name":"tbaSalt","type":"bytes32","internalType":"bytes32"},{"name":"tbaImplementation","type":"address","internalType":"address"},{"name":"daoVotingPeriod","type":"uint32","internalType":"uint32"},{"name":"daoThreshold","type":"uint256","internalType":"uint256"}]}],"outputs":[],"stateMutability":"nonpayable"},{"type":"function","name":"setFee","inputs":[{"name":"newFee","type":"uint256","internalType":"uint256"},{"name":"newFeeTo","type":"address","internalType":"address"}],"outputs":[],"stateMutability":"nonpayable"},{"type":"function","name":"setGradThreshold","inputs":[{"name":"newThreshold","type":"uint256","internalType":"uint256"}],"outputs":[],"stateMutability":"nonpayable"},{"type":"function","name":"setInitialSupply","inputs":[{"name":"newSupply","type":"uint256","internalType":"uint256"}],"outputs":[],"stateMutability":"nonpayable"},{"type":"function","name":"setMaxTx","inputs":[{"name":"maxTx_","type":"uint256","internalType":"uint256"}],"outputs":[],"stateMutability":"nonpayable"},{"type":"function","name":"tokenInfo","inputs":[{"name":"","type":"address","internalType":"address"}],"outputs":[{"name":"creator","type":"address","internalType":"address"},{"name":"token","type":"address","internalType":"address"},{"name":"pair","type":"address","internalType":"address"},{"name":"agentToken","type":"address","internalType":"address"},{"name":"data","type":"tuple","internalType":"struct Bonding.Data","components":[{"name":"token","type":"address","internalType":"address"},{"name":"name","type":"string","internalType":"string"},{"name":"_name","type":"string","internalType":"string"},{"name":"ticker","type":"string","internalType":"string"},{"name":"supply","type":"uint256","internalType":"uint256"},{"name":"price","type":"uint256","internalType":"uint256"},{"name":"marketCap","type":"uint256","internalType":"uint256"},{"name":"liquidity","type":"uint256","internalType":"uint256"},{"name":"volume","type":"uint256","internalType":"uint256"},{"name":"volume24H","type":"uint256","internalType":"uint256"},{"name":"prevPrice","type":"uint256","internalType":"uint256"},{"name":"lastUpdated","type":"uint256","internalType":"uint256"}]},{"name":"description","type":"string","internalType":"string"},{"name":"image","type":"string","internalType":"string"},{"name":"twitter","type":"string","internalType":"string"},{"name":"telegram","type":"string","internalType":"string"},{"name":"youtube","type":"string","internalType":"string"},{"name":"website","type":"string","internalType":"string"},{"name":"trading","type":"bool","internalType":"bool"},{"name":"tradingOnUniswap","type":"bool","internalType":"bool"}],"stateMutability":"view"},{"type":"function","name":"tokenInfos","inputs":[{"name":"","type":"uint256","internalType":"uint256"}],"outputs":[{"name":"","type":"address","internalType":"address"}],"stateMutability":"view"},{"type":"function","name":"transferOwnership","inputs":[{"name":"newOwner","type":"address","internalType":"address"}],"outputs":[],"stateMutability":"nonpayable"},{"type":"function","name":"unwrapToken","inputs":[{"name":"srcTokenAddress","type":"address","internalType":"address"},{"name":"accounts","type":"address[]","internalType":"address[]"}],"outputs":[],"stateMutability":"nonpayable"},{"type":"event","name":"Deployed","inputs":[{"name":"token","type":"address","indexed":true,"internalType":"address"},{"name":"amount0","type":"uint256","indexed":false,"internalType":"uint256"},{"name":"amount1","type":"uint256","indexed":false,"internalType":"uint256"}],"anonymous":false},{"type":"event","name":"Graduated","inputs":[{"name":"token","type":"address","indexed":true,"internalType":"address"},{"name":"agentToken","type":"address","indexed":false,"internalType":"address"}],"anonymous":false},{"type":"event","name":"Initialized","inputs":[{"name":"version","type":"uint64","indexed":false,"internalType":"uint64"}],"anonymous":false},{"type":"event","name":"Launched","inputs":[{"name":"token","type":"address","indexed":true,"internalType":"address"},{"name":"pair","type":"address","indexed":true,"internalType":"address"},{"name":"","type":"uint256","indexed":false,"internalType":"uint256"}],"anonymous":false},{"type":"event","name":"OwnershipTransferred","inputs":[{"name":"previousOwner","type":"address","indexed":true,"internalType":"address"},{"name":"newOwner","type":"address","indexed":true,"internalType":"address"}],"anonymous":false},{"type":"error","name":"AddressEmptyCode","inputs":[{"name":"target","type":"address","internalType":"address"}]},{"type":"error","name":"AddressInsufficientBalance","inputs":[{"name":"account","type":"address","internalType":"address"}]},{"type":"error","name":"FailedInnerCall","inputs":[]},{"type":"error","name":"InvalidInitialization","inputs":[]},{"type":"error","name":"NotInitializing","inputs":[]},{"type":"error","name":"OwnableInvalidOwner","inputs":[{"name":"owner","type":"address","internalType":"address"}]},{"type":"error","name":"OwnableUnauthorizedAccount","inputs":[{"name":"account","type":"address","internalType":"address"}]},{"type":"error","name":"ReentrancyGuardReentrantCall","inputs":[]},{"type":"error","name":"SafeERC20FailedOperation","inputs":[{"name":"token","type":"address","internalType":"address"}]}],"bytecode":{"object":"0x60808060405234620000bd577ff0c57e16840df040f15088dc2f81fe391c3923bec73e23a9662efc9c229c6a009081549060ff8260401c16620000ae57506001600160401b036002600160401b03198282160162000068575b6040516173119081620000c28239f35b6001600160401b031990911681179091556040519081527fc7f505b2f371ae2175ee4913f4499e1f2633a7b5936321eed1cdaeb6115181d290602090a15f808062000058565b63f92ee8a960e01b8152600490fd5b5f80fdfe60e0604052600436101562000012575f80fd5b5f60c0525f3560e01c806309c8962c146200582e578063378dc3dc146200580f5780633c0b93aa14620042a85780634189a68e1462003f8e57806343fb4d241462003ef0578063519dc8d21462003db2578063614025961462003d8d5780636edd12e01462003d6e578063715018a61462003d025780637437681e1462003ce35780637c13774b1462003c865780637deb60251462002b1b5780637df107ea1462002aef5780637f13a90b14620020875780638da5cb5b146200204e5780639dd9d0fd146200200d578063a932492f1462001fe9578063b4f2e8b81462001f98578063bc3371821462001f6f578063bd01cb921462000801578063c36fe3d614620007a4578063c45a01551462000778578063cc4896881462000718578063ddca3f4314620006f7578063e8e6ed6914620006d6578063ea6eef4914620004a0578063f2fde38b1462000469578063f5dab71114620001ac5763f887ea40146200017a575f80fd5b34620001a65760c051366003190112620001a6576002546040516001600160a01b039091168152602090f35b60c05180fd5b34620001a6576020366003190112620001a6576001600160a01b03620001d162005a71565b60c08051919092169052600e602052516040902080546001820154600283015460038401546001600160a01b03918216949282169382169116620002186004840162005b73565b92836040519384806010850190620002309162005ada565b036200023d9086620058d9565b6040518062000250816012870162005ada565b036200025d9082620058d9565b604051958662000271816013880162005ada565b036200027e9088620058d9565b604051908162000292816014890162005ada565b036200029f9083620058d9565b6040519384620002b38160158a0162005ada565b03620002c09086620058d9565b6040519687620002d4816016840162005ada565b03620002e19089620058d9565b60170154976040519c8d9c8d6101a09481526020015260408d015260608c01528060808c0152600160a01b60019003865116908b015260208501519761018098896101c08d01526103208c01620003389162005c5c565b604087015161019f198d830381016101e08f015291620003589162005c5c565b8c60608901519281830301906102000152620003749162005c5c565b9360808701516102208d015260a08701516102408d015260c08701516102608d015260e08701516102808d0152610100928c84890151906102a00152610120958d878a0151906102c001528d610140809a0151906102e001528d610160809e01519061030001528d8082039060a00152620003ef9162005c5c565b8c810360c08e0152620004029162005c5c565b8b810360e08d0152620004159162005c5c565b908a8203908b0152620004289162005c5c565b90888203908901526200043b9162005c5c565b90868203908701526200044e9162005c5c565b9260ff821615159085015260081c60ff161515908301520390f35b34620001a6576020366003190112620001a6576200049a6200048a62005a71565b6200049462005f64565b62005ef1565b60c05180f35b34620001a657610120366003190112620001a657620004be62005a71565b620004c862005a5a565b906001600160a01b03906044358281169190829003620006d25760643592620004f062005a88565b7ff0c57e16840df040f15088dc2f81fe391c3923bec73e23a9662efc9c229c6a009485549460ff8660401c1615956001600160401b03811698891580620006ca575b6001809b149081620006bf575b159081620006b5575b50620006a35767ffffffffffffffff1982168a17895585918862000683575b5062000572620061f7565b6200057c620061f7565b620005873362005ef1565b62000591620061f7565b6200059b620061f7565b895f80516020620072bc83398151915255816001600160601b0360a01b9716878b5416178a55168560025416176002558460c05154161760c05155670de0b6b3a7640000908181029181830414901517156200066b576103e8900460045560843560035560a43560055560c4356007551690600854161760085561010435600655620006275760c05180f35b805468ff0000000000000000191690556040519081527fc7f505b2f371ae2175ee4913f4499e1f2633a7b5936321eed1cdaeb6115181d290602090a180806200049a565b634e487b7160e01b60c051526011600452602460c051fd5b68ffffffffffffffffff1916680100000000000000011789558a62000567565b60405163f92ee8a960e01b8152600490fd5b9050158b62000548565b303b1591506200053f565b508762000532565b5f80fd5b34620001a65760c051366003190112620001a6576020600554604051908152f35b34620001a65760c051366003190112620001a6576020600454604051908152f35b34620001a6576020366003190112620001a6576004356200073862005f64565b8015620007485760055560c05180f35b60405162461bcd60e51b81526020600482015260086024820152672930ba329032b93960c11b6044820152606490fd5b34620001a65760c051366003190112620001a6576001546040516001600160a01b039091168152602090f35b34620001a6576020366003190112620001a657600435600d54811015620001a657600d5f527fd7b6990105719101dabeb77144f2a3385c8033acd3af97e9423a695e81ad1eb501546040516001600160a01b039091168152602090f35b34620001a657610100366003190112620001a6576004356001600160401b038111620001a6576200083790369060040162005917565b6024356001600160401b038111620001a6576200085990369060040162005917565b6044356001600160401b038111620001a6576200087b9036906004016200597b565b6064356001600160401b038111620001a6576200089d90369060040162005917565b916084356001600160401b038111620001a657620008c090369060040162005917565b9260a4356001600160401b038111620001a657620008e3903690600401620059ee565b620008ed62005a88565b93620008f862005f9e565b600454958660c435111562001f1957600254604051631083f76160e01b815298906020908a9060049082906001600160a01b03165afa9889156200145d5760c0519962001ef3575b506040516370a0823160e01b81523360048201526020816024816001600160a01b038e165afa9081156200145d5760c0519162001ebb575b5060c4351162001e8057620009b1620009948960c43562005d0a565b60c051549099906001600160a01b039081169033908d1662005ffc565b620009c88830336001600160a01b038d1662005ffc565b620009d38162005d78565b60035490600754916040519283610ffa8101106001600160401b03610ffa86011117620016065762000a3662000a1f8594610ffa620062a287396080610ffa8701818152019062005c5c565b610ffa850181036020610ffa870101528b62005c5c565b916040610ffa850101526060610ffa84010152039060c051f0608052608051156200145d57604051906318160ddd60e01b825260208260048160018060a01b03608051165afa9182156200145d5760c0519262001e46575b506001546040516364e329cb60e11b81526080516001600160a01b0390811660048301528c8116602483015260c05191926020928492604492849291165af180156200145d5760c05160a05262001e0e575b5060025460805162000b019184916001600160a01b03918216911662006049565b62000b0e60055462005d2c565b69021e19e0c9bab2400000908181029181830414901517156200066b578262000b379162005d53565b670de0b6b3a76400009080828102048214811517156200066b5760025460408051631746ffa760e31b81526080516001600160a01b0390811660048301526024820188905261271085870204604483015260c051919384926064928492165af180156200145d5762001deb575b5062000bb08362005d78565b9362000bc3612710848402048262005d53565b9061271084840204600181901b819004600214901517156200066b5760209a6127109562000bf687878702048462005d53565b976040519d8e62000c078162005853565b60018060a01b03608051168152015260408d015260608c015260808b015260a08a0152828282020460c08a0152020460011b60e087015260c05161010087015260c0516101208701526101408601524261016086015282519060208401519260606040860151950151956040519762000c808962005870565b60018060a01b038a16895260018060a01b036080511660208a015260018060a01b0360a0511660408a015260c05160608a0152608089015260a088015260c087015260e0860152610100850152610120840152610140830152610160820152600161018082015260c0516101a082015260018060a01b036080511660c05152600e602052604060c0512060018060a01b038251166001600160601b0360a01b8254161781556001810160018060a01b036020840151166001600160601b0360a01b8254161790556002810160018060a01b036040840151166001600160601b0360a01b8254161790556003810160018060a01b036060840151166001600160601b0360a01b8254161790556004810160808301519060018060a01b038251166001600160601b0360a01b82541617905560208101518051906001600160401b0382116200160657819062000dd8600586015462005a9f565b601f811162001db0575b506020906001601f84111462001d375760c0519262001d2b575b50508160011b915f199060031b1c19161760058301555b60408101518051906001600160401b0382116200160657819062000e3b600686015462005a9f565b601f811162001cf0575b506020906001601f84111462001c775760c0519262001c6b575b50508160011b915f199060031b1c19161760068301555b60608101518051906001600160401b038211620016065762000e9c600785015462005a9f565b601f811162001c30575b506020906001601f84111462001bb557918091610160949360c0519262001ba9575b50508160011b915f199060031b1c19161760078401555b6080810151600884015560a0810151600984015560c0810151600a84015560e0810151600b840155610100810151600c840155610120810151600d840155610140810151600e8401550151600f82015560a08201518051906001600160401b0382116200160657819062000f57601085015462005a9f565b601f811162001b6e575b506020906001601f84111462001af55760c0519262001ae9575b50508160011b915f199060031b1c19161760108201555b60c08201518051906001600160401b0382116200160657600160401b82116200160657602090601184015483601186015580841062001a8c575b5001906011830160c05152602060c051209060c0515b8160051c811062001a485750601f198116808203620019f3575b5050505060e08201518051906001600160401b0382116200160657819062001028601285015462005a9f565b601f8111620019b8575b506020906001601f8411146200193f5760c0519262001933575b50508160011b915f199060031b1c19161760128201555b6101008201518051906001600160401b038211620016065781906200108c601385015462005a9f565b601f8111620018f8575b506020906001601f8411146200187f5760c0519262001873575b50508160011b915f199060031b1c19161760138201555b6101208201518051906001600160401b03821162001606578190620010f0601485015462005a9f565b601f811162001838575b506020906001601f841114620017bf5760c05192620017b3575b50508160011b915f199060031b1c19161760148201555b6101408201518051906001600160401b0382116200160657819062001154601585015462005a9f565b601f811162001778575b506020906001601f841114620016ff5760c05192620016f3575b50508160011b915f199060031b1c19161760158201555b6101608201518051906001600160401b0382116200160657620011b6601684015462005a9f565b601f8111620016ac575b506020906001601f8411146200162a5792826101a09360179362001238979660c051926200161e575b50508160011b915f199060031b1c19161760168201555b0191620012206101808201511515849060ff801983541691151516179055565b0151815461ff00191690151560081b61ff0016179055565b6080516200124f906001600160a01b031662005dd1565b6001600160a01b038082165f818152600c602052604090205490911603620014da57620013499160409160018060a01b031660c05152600c602052620012a760018060a01b036080511660018460c051200162005eaf565b6200130781600f5495845187815260018060a01b0360a05116907f714aa39317ad9a7a7a99db52b44490da5d068a0b2710fffb1a1282ad3cadae1f602060018060a01b036080511692a36002546001600160a01b03908116911662006049565b60025482516373a9c2c560e11b815260805160048201939093526001600160a01b03928316602482015230604482015293849290911690829081906064820190565b039160c051905af180156200145d57620014a5575b50604051906370a0823160e01b825230600483015260208260248160018060a01b03608051165afa9182156200145d5760c051926200146a575b5060405163a9059cbb60e01b8152336004820152602481019290925260c051608051602091849160449183916001600160a01b03165af19182156200145d57620014239262001427575b5060015f80516020620072bc833981519152556040805160a0516080516001600160a01b039081168352166020820152908101919091529081906060820190565b0390f35b6200144d9060203d60201162001455575b620014448183620058d9565b81019062005d5e565b5082620013e2565b503d62001438565b6040513d60c051823e3d90fd5b91506020823d6020116200149c575b816200148860209383620058d9565b81010312620006d257905190602062001398565b3d915062001479565b620014cb9060403d604011620014d2575b620014c28183620058d9565b81019062005ce5565b506200135e565b503d620014b6565b604051620014e8816200588d565b6001600160a01b038281168083526060602080850191825260c0805193909352600c9052905160409020925183546001600160a01b031916921691909117825551805191906001600160401b0383116200160657600160401b831162001606576020600191828401548584860155808610620015e2575b5001910160c05152602060c0512060c0515b838110620015c457505050506200134991816200159060409362005e4a565b60018060a01b031660c05152600c602052620015be60018060a01b036080511660018460c051200162005eaf565b620012a7565b82516001600160a01b03168183015560209092019160010162001571565b620015ff9084860160c05152868460c05120918201910162005db9565b886200155f565b634e487b7160e01b60c051526041600452602460c051fd5b015190508a80620011e9565b906016840160c05152602060c051209160c0515b601f198516811062001693575083601793620012389796936001936101a097601f198116106200167a575b505050811b01601682015562001200565b01515f1960f88460031b161c191690558a808062001669565b919260206001819286850151815501940192016200163e565b620016e1906016850160c05152602060c05120601f850160051c81019160208610620016e8575b601f0160051c019062005db9565b87620011c0565b9091508190620016d3565b01519050878062001178565b92506015840160c05152602060c051209060c051935b601f19841685106200175c576001945083601f1981161062001743575b505050811b0160158201556200118f565b01515f1960f88460031b161c1916905587808062001732565b8181015183556020948501946001909301929091019062001715565b620017ac906015860160c05152602060c05120601f850160051c81019160208610620016e857601f0160051c019062005db9565b886200115e565b01519050878062001114565b92506014840160c05152602060c051209060c051935b601f19841685106200181c576001945083601f1981161062001803575b505050811b0160148201556200112b565b01515f1960f88460031b161c19169055878080620017f2565b81810151835560209485019460019093019290910190620017d5565b6200186c906014860160c05152602060c05120601f850160051c81019160208610620016e857601f0160051c019062005db9565b88620010fa565b015190508780620010b0565b92506013840160c05152602060c051209060c051935b601f1984168510620018dc576001945083601f19811610620018c3575b505050811b016013820155620010c7565b01515f1960f88460031b161c19169055878080620018b2565b8181015183556020948501946001909301929091019062001895565b6200192c906013860160c05152602060c05120601f850160051c81019160208610620016e857601f0160051c019062005db9565b8862001096565b0151905087806200104c565b92506012840160c05152602060c051209060c051935b601f19841685106200199c576001945083601f1981161062001983575b505050811b01601282015562001063565b01515f1960f88460031b161c1916905587808062001972565b8181015183556020948501946001909301929091019062001955565b620019ec906012860160c05152602060c05120601f850160051c81019160208610620016e857601f0160051c019062005db9565b8862001032565b60c0519390845b818403811062001a165750505060051c01558580808062000ffc565b909194602062001a3d6001928460ff8a5116919060ff809160031b9316831b921b19161790565b9601929101620019fa565b60c051805b6020811062001a6457508382015560010162000fe2565b855190959160019160209160ff60038a901b81811b199092169216901b179201950162001a4d565b62001ac1906011860160c05152601f8460c05120918187168062001ac8575b500160051c810190601f860160051c0162005db9565b8862000fcc565b5f199081848a0160051c86010191825491890360031b1c1690558c62001aab565b01519050878062000f7b565b92506010840160c05152602060c051209060c051935b601f198416851062001b52576001945083601f1981161062001b39575b505050811b01601082015562000f92565b01515f1960f88460031b161c1916905587808062001b28565b8181015183556020948501946001909301929091019062001b0b565b62001ba2906010860160c05152602060c05120601f850160051c81019160208610620016e857601f0160051c019062005db9565b8862000f61565b01519050898062000ec8565b906007850160c05152602060c051209160c0515b601f198516811062001c1757509183916001936101609695601f1981161062001bfe575b505050811b01600784015562000edf565b01515f1960f88460031b161c1916905589808062001bed565b9192602060018192868501518155019401920162001bc9565b62001c64906007860160c05152602060c05120601f850160051c81019160208610620016e857601f0160051c019062005db9565b8862000ea6565b01519050888062000e5f565b92506006850160c05152602060c051209060c051935b601f198416851062001cd4576001945083601f1981161062001cbb575b505050811b01600683015562000e76565b01515f1960f88460031b161c1916905588808062001caa565b8181015183556020948501946001909301929091019062001c8d565b62001d24906006870160c05152602060c05120601f850160051c81019160208610620016e857601f0160051c019062005db9565b8962000e45565b01519050888062000dfc565b92506005850160c05152602060c051209060c051935b601f198416851062001d94576001945083601f1981161062001d7b575b505050811b01600583015562000e13565b01515f1960f88460031b161c1916905588808062001d6a565b8181015183556020948501946001909301929091019062001d4d565b62001de4906005870160c05152602060c05120601f850160051c81019160208610620016e857601f0160051c019062005db9565b8962000de2565b62001e079060403d604011620014d257620014c28183620058d9565b5062000ba4565b62001e349060203d60201162001e3e575b62001e2b8183620058d9565b81019062005cc4565b60a0528a62000ae0565b503d62001e1f565b9091506020813d60201162001e77575b8162001e6560209383620058d9565b81010312620006d25751908a62000a8e565b3d915062001e56565b60405162461bcd60e51b8152602060048201526013602482015272125b9cdd59999a58da595b9d08185b5bdd5b9d606a1b6044820152606490fd5b90506020813d60201162001eea575b8162001ed960209383620058d9565b81010312620006d257518a62000978565b3d915062001eca565b62001f1191995060203d60201162001e3e5762001e2b8183620058d9565b978962000940565b60405162461bcd60e51b815260206004820152602860248201527f507572636861736520616d6f756e74206d7573742062652067726561746572206044820152677468616e2066656560c01b6064820152608490fd5b34620001a6576020366003190112620001a65762001f8c62005f64565b60043560075560c05180f35b34620001a6576040366003190112620001a65762001fb562005a5a565b62001fbf62005f64565b60048035905560c05180546001600160a01b0319166001600160a01b039290921691909117815580f35b34620001a65760c051366003190112620001a65760206040516502ba7def30008152f35b34620001a6576020366003190112620001a65760206001600160a01b03806200203562005a71565b1660c05152600c8252604060c051205416604051908152f35b34620001a65760c051366003190112620001a6575f805160206200729c833981519152546040516001600160a01b039091168152602090f35b34620001a6576040366003190112620001a657620020a462005a71565b6024356001600160401b038111620001a65736602382011215620001a6578060040135620020d28162005963565b91620020e26040519384620058d9565b8183526024602084019260051b82010190368211620001a657602401915b81831062002acd5750505060018060a01b03821660c05152600e602052604060c0512060405190620021328262005870565b80546001600160a01b0390811683526001820154811660208401526002820154811660408401526003820154166060830152620021726004820162005b73565b608083015260405162002196816200218e816010860162005ada565b0382620058d9565b60a08301526011810160405190816020825491828152019160c05152602060c051209060c051915b81601f8401106200293d579360ff959381936200230193601797549181811062002929575b81811062002912575b818110620028fb575b818110620028e4575b818110620028ce575b818110620028b7575b818110620028a0575b81811062002889575b81811062002872575b8181106200285b575b81811062002844575b8181106200282d575b81811062002816575b818110620027ff575b818110620027e8575b818110620027d1575b818110620027ba575b818110620027a3575b8181106200278c575b81811062002775575b8181106200275e575b81811062002747575b81811062002730575b81811062002719575b81811062002702575b818110620026eb575b818110620026d4575b818110620026bd575b818110620026a6575b8181106200268f575b81811062002678575b1062002669575b500382620058d9565b60c08501526040516200231d816200218e816012860162005ada565b60e085015260405162002339816200218e816013860162005ada565b61010085015260405162002356816200218e816014860162005ada565b61012085015260405162002373816200218e816015860162005ada565b61014085015260405162002390816200218e816016860162005ada565b6101608501520154818116151561018084015260081c161580156101a0830152620026245760600151600154600254604051631083f76160e01b81526001600160a01b039283169593831692909160209183916004918391165afa80156200145d576200243a9560209260c0519262002600575b5060405163e6a4390560e01b81526001600160a01b03808716600483015290921660248301529095869190829081906044820190565b03915afa9384156200145d5760c05194620025da575b5060c0515b83518110156200049a5760018060a01b0360208260051b860101511690604051916370a0823160e01b835280600484015260208360248160018060a01b0389165afa9283156200145d5760c05193620025a0575b5082620024bd575b50600191500162002455565b6001600160a01b0385163b15620001a65760405163079cc67960e41b815260c080516001600160a01b038481166004850152602484018790529151909183916044918391908b165af180156200145d5762002586575b506040516323b872dd60e01b81526001600160a01b038089166004830152909116602482015260448101929092526020828060648101038160c051875af19182156200145d5760019215620024b1576200257e9060203d6020116200145557620014448183620058d9565b5086620024b1565b6200259190620058c5565b60c051620001a6578762002513565b9092506020813d602011620025d1575b81620025bf60209383620058d9565b81010312620006d257519187620024a9565b3d9150620025b0565b620025f891945060203d60201162001e3e5762001e2b8183620058d9565b928462002450565b6200261c919250833d851162001e3e5762001e2b8183620058d9565b908762002404565b60405162461bcd60e51b815260206004820152601a60248201527f546f6b656e206973206e6f7420677261647561746564207965740000000000006044820152606490fd5b60f81c81526020018a620022f8565b9260206001918b8560f01c168152019301620022f1565b9260206001918b8560e81c168152019301620022e8565b9260206001918b8560e01c168152019301620022df565b9260206001918b8560d81c168152019301620022d6565b9260206001918b8560d01c168152019301620022cd565b9260206001918b8560c81c168152019301620022c4565b9260206001918b8560c01c168152019301620022bb565b9260206001918b8560b81c168152019301620022b2565b9260206001918b8560b01c168152019301620022a9565b9260206001918b8560a81c168152019301620022a0565b9260206001918b8560a01c16815201930162002297565b9260206001918b8560981c1681520193016200228e565b9260206001918b8560901c16815201930162002285565b9260206001918b8560881c1681520193016200227c565b9260206001918b8560801c16815201930162002273565b9260206001918b8560781c1681520193016200226a565b9260206001918b8560701c16815201930162002261565b9260206001918b8560681c16815201930162002258565b9260206001918b8560601c1681520193016200224f565b9260206001918b8560581c16815201930162002246565b9260206001918b8560501c1681520193016200223d565b9260206001918b8560481c16815201930162002234565b9260206001918b8560401c1681520193016200222b565b9260206001918b8560381c16815201930162002222565b9260206001918b8560301c16815201930162002219565b9260206001918b8560281c16815201930162002210565b9260206001918b85831c16815201930162002207565b9260206001918b8560181c168152019301620021fe565b9260206001918b8560101c168152019301620021f5565b9260206001918b8560081c168152019301620021ec565b9260206001918b85168152019301620021e3565b926001610400602092865460ff8116825260ff8160081c168583015260ff8160101c16604083015260ff8160181c16606083015260ff81861c16608083015260ff8160281c1660a083015260ff8160c0828260301c1681860152828260381c1660e0860152828260401c16610100860152828260481c16610120860152828260501c16610140860152828260581c16610160860152828260601c16610180860152828260681c166101a0860152828260701c166101c0860152828260781c166101e0860152828260801c16610200860152828260881c16610220860152828260901c16610240860152828260981c16610260860152828260a01c16610280860152828260a81c166102a0860152828260b01c166102c0860152828260b81c166102e08601521c1661030083015260ff8160c81c1661032083015260ff8160d01c1661034083015260ff8160d81c1661036083015260ff8160e01c1661038083015260ff8160e81c166103a083015260ff8160f01c166103c083015260f81c6103e0820152019401920191620021be565b82356001600160a01b0381168103620006d25781526020928301920162002100565b34620001a65760c051366003190112620001a6576008546040516001600160a01b039091168152602090f35b6040366003190112620006d25762002b3262005a5a565b6001600160a01b0381165f908152600e602052604090206017015462002b5b9060ff1662005c83565b600154600254604051631083f76160e01b81526001600160a01b03918216939290911690602081600481875afa801562003a4f5762002bd5926020925f9262003c62575b5060405163e6a4390560e01b81526001600160a01b03808716600483015290921660248301529092839190829081906044820190565b03915afa90811562003a4f576004916040915f9162003c3e575b508151630240bc6b60e21b815292839182906001600160a01b03165afa90811562003a4f575f905f9262003c17575b50604080516373a9c2c560e11b815260048035908201526001600160a01b038516602482015233604482015294859060649082905f905af190811562003a4f575f945f9262003be2575b5062002c7a62002c8192869262005d0a565b9262005cfc565b9260018060a01b0383165f52600e60205262002ca5600f60405f2001544262005d0a565b848060011b046002148515171562003bce57620151809160018060a01b0385165f52600e60205262002d5e62002cee8562002ce889600860405f20015462005d18565b62005d53565b91600c62002cfd898862005d53565b8686111562003ba45782995b8787111562003b85576001600160a01b038a165f908152600e6020526040902060090154955b60018060a01b038b165f52600e60205260405f20926009840155600a83015560011b600b820155015462005cfc565b9560018060a01b0386165f52600e60205260405f2096600c880155600d870155600e8601551162003b79575b60065410158062003b6a575b62002da7575b602060405160018152f35b60178201805460ff81168062003b5b575b1562003b165761ffff1916610100179055600154600254604051631083f76160e01b81526001600160a01b039182169290911690602081600481865afa801562003a4f5762002e42926020925f9262003af2575b5060405163e6a4390560e01b81526001600160a01b03808816600483015290921660248301529092839190829081906044820190565b03915afa90811562003a4f575f9162003ace575b5060405163c66f245560e01b8152936020856004816001600160a01b0386165afa94851562003a4f575f9562003a94575b506040516316d3df1560e31b8152926020846004816001600160a01b0387165afa93841562003a4f575f9462003a5a575b50803b15620006d2576040516001629272fb60e01b031981526001600160a01b0386166004820152905f908290602490829084905af1801562003a4f5762003a39575b50600254604051631083f76160e01b815290602090829060049082906001600160a01b03165afa9081156200145d5762002f5291879160c0519162003a15575b506008546001600160a01b03908116911662006049565b60018060a01b03600854166040519560c051600684015462002f748162005a9f565b9060018116908115620039ef5750600114620039a9575b509062002fbc600c89846b206279205669727475616c7360a01b62002ffa9c965203601319810185520183620058d9565b60095490600a5490600b5460018060a01b0387541692620030106040519c8d97631fd16d3f60e11b895261012060048a015261012489019062005c5c565b87810360031901602489015260078a0162005ada565b94600319878703016044880152602060118a015496878152019560118a0160c05152602060c051209060c051915b81601f840110620037f6579260209a9895928a9895928998955491818110620037e3575b818110620037cc575b818110620037b5575b8181106200379e575b81811062003789575b81811062003772575b8181106200375b575b81811062003744575b8181106200372d575b81811062003716575b818110620036ff575b818110620036e8575b818110620036d1575b818110620036ba575b818110620036a3575b8181106200368c575b81811062003675575b8181106200365e575b81811062003647575b81811062003630575b81811062003619575b81811062003602575b818110620035eb575b818110620035d4575b818110620035bd575b818110620035a6575b8181106200358f575b81811062003578575b81811062003561575b8181106200354a575b81811062003533575b106200351f575b5060648701526001600160a01b038116608487015260a01c63ffffffff1660a486015260c485015260e484015261010483015260c051919003925af19485156200145d5760c05195620034e5575b50600880549082015460405163313ce56760e01b8082526001600160a01b039384169893909290602090839060049082908c165afa9182156200145d5762003224926200321d9160c05191620034c1575b5062005fea565b9062005d53565b604051918252906020816004816001600160a01b038b165afa9283156200145d576200326a6200326360209560849460c051916200348d575062005fea565b8862005d53565b98604051998a9485936311e18acb60e11b855260048501526024840152604483015260018060a01b038716606483015260c051905af19485156200145d5760c0519562003464575b5060030180546001600160a01b0319166001600160a01b039586169081179091556002546040516370a0823160e01b81528387166004820152919516602082602481895afa9182156200145d5760c051926200342a575b50803b15620001a65760405163559e23ad60e11b81526001600160a01b038416600482015260248101879052306044820152606481019290925260c051908290608490829084905af180156200145d5762003410575b506001600160a01b0383163b15620001a65760405163079cc67960e41b815260c080516001600160a01b039384166004840152602483019490945251909291839160449183919087165af180156200145d57620033f6575b506040519182526001600160a01b0316907f381d54fa425631e6266af114239150fae1d5db67bb65b4fa9ecc65013107e07e90602090a2808062002d9c565b6200340190620058c5565b60c051620001a65782620033b7565b6200341b90620058c5565b60c051620001a657846200335f565b9091506020813d6020116200345b575b816200344960209383620058d9565b81010312620006d25751908662003309565b3d91506200343a565b6003919550620034859060203d60201162001e3e5762001e2b8183620058d9565b9490620032b2565b620034b29150873d8911620034b9575b620034a98183620058d9565b81019062005fcf565b8c62003216565b503d6200349d565b620034de915060203d602011620034b957620034a98183620058d9565b8b62003216565b9094506020813d60201162003516575b816200350460209383620058d9565b81010312620006d257519385620031c5565b3d9150620034f5565b60f81c8652948a019463ffffffff62003177565b978d60019160ff8560f01c16815201980162003170565b978d60019160ff8560e81c16815201980162003167565b978d60019160ff8560e01c1681520198016200315e565b978d60019160ff8560d81c16815201980162003155565b978d60019160ff8560d01c1681520198016200314c565b978d60019160ff8560c81c16815201980162003143565b978d60019160ff8560c01c1681520198016200313a565b978d60019160ff8560b81c16815201980162003131565b978d60019160ff8560b01c16815201980162003128565b978d60019160ff8560a81c1681520198016200311f565b978d60019160ff8560a01c16815201980162003116565b978d60019160ff8560981c1681520198016200310d565b978d60019160ff8560901c16815201980162003104565b978d60019160ff8560881c168152019801620030fb565b978d60019160ff8560801c168152019801620030f2565b978d60019160ff8560781c168152019801620030e9565b978d60019160ff8560701c168152019801620030e0565b978d60019160ff8560681c168152019801620030d7565b978d60019160ff8560601c168152019801620030ce565b978d60019160ff8560581c168152019801620030c5565b978d60019160ff8560501c168152019801620030bc565b978d60019160ff8560481c168152019801620030b3565b978d60019160ff8560401c168152019801620030aa565b978d60019160ff8560381c168152019801620030a1565b978d60019160ff8560301c16815201980162003098565b978d60019160ff8560281c1681520198016200308f565b828e1c60ff168952978d019760010162003086565b978d60019160ff8560181c1681520198016200307d565b978d60019160ff8560101c16815201980162003074565b978d60019160ff8560081c1681520198016200306b565b60ff83168952978d019760010162003062565b98509091929394959660016104006020928b5460ff8116825260ff8160081c168583015260ff8160101c16604083015260ff8160181c16606083015260ff81861c16608083015260ff8160281c1660a083015260ff8160301c1660c083015260ff8160381c1660e083015260ff8160401c1661010083015260ff8160481c1661012083015260ff8160501c1661014083015260ff8160581c1661016083015260ff8160601c1661018083015260ff8160681c166101a083015260ff8160701c166101c083015260ff8160781c166101e083015260ff8160801c1661020083015260ff8160881c1661022083015260ff8160901c1661024083015260ff8160981c1661026083015260ff8160a01c1661028083015260ff8160a81c166102a083015260ff8160b01c166102c083015260ff8160b81c166102e083015260ff8160c01c1661030083015260ff8160c81c1661032083015260ff8160d01c1661034083015260ff8160d81c1661036083015260ff8160e01c1661038083015260ff8160e81c166103a083015260ff8160f01c166103c083015260f81c6103e08201520199019201908e989796959493926200303e565b90506006840160c05152602060c0512060c051905b828210620039d7575050870160200162002fbc62002f8b565b6001818b6020858195549201015201910190620039be565b60ff19166020808c01919091528215159092028a01909101915062002fbc905062002f8b565b62003a32915060203d60201162001e3e5762001e2b8183620058d9565b8862002f3b565b62003a4490620058c5565b5f60c0528562002efb565b6040513d5f823e3d90fd5b9093506020813d60201162003a8b575b8162003a7960209383620058d9565b81010312620006d25751928662002eb8565b3d915062003a6a565b9094506020813d60201162003ac5575b8162003ab360209383620058d9565b81010312620006d25751938562002e87565b3d915062003aa4565b62003aeb915060203d60201162001e3e5762001e2b8183620058d9565b8462002e56565b62003b0e919250833d851162001e3e5762001e2b8183620058d9565b908762002e0c565b60405162461bcd60e51b815260206004820152601760248201527f74726164696e6720697320616c7265616479206f70656e0000000000000000006044820152606490fd5b5060ff8160081c161562002db8565b5060ff60178301541662002d96565b42600f84015562002d8a565b60018060a01b038a165f52600e602052600e60405f2001549562002d2f565b60018060a01b0389165f52600e60205262003bc783600d60405f20015462005cfc565b9962002d09565b634e487b7160e01b5f52601160045260245ffd5b62002c7a91955062002c81925062003c0b9060403d604011620014d257620014c28183620058d9565b90959092509062002c68565b905062003c36915060403d604011620014d257620014c28183620058d9565b908462002c1e565b62003c5b915060203d60201162001e3e5762001e2b8183620058d9565b8562002bef565b62003c7e919250833d851162001e3e5762001e2b8183620058d9565b908662002b9f565b34620006d2576020366003190112620006d257600435600f54811015620006d257600f5f527f8d1108e10bcb7c27dddfc02ed9d693a074039d026cf4ea4240b40f7d581ac80201546040516001600160a01b039091168152602090f35b34620006d2575f366003190112620006d2576020600754604051908152f35b34620006d2575f366003190112620006d25762003d1e62005f64565b5f805160206200729c83398151915280546001600160a01b031981169091555f906001600160a01b03167f8be0079c531659141344cd1fd0a4f28419497f9722a3daafe3b4186f6b6457e08280a3005b34620006d2575f366003190112620006d2576020600654604051908152f35b34620006d2576020366003190112620006d25762003daa62005f64565b600435600355005b34620006d257602080600319360112620006d25762003dd062005a71565b6001600160a01b038082165f818152600c60205260409020549091160362003eab579060018060a01b038092165f52600c815260405f206040519262003e16846200588d565b815481168452604051600192830180548083525f91825285822086840197928892905b81811062003e9557505050829162003e558388930384620058d9565b01526040519380850191818652518092526040850195925f905b83821062003e7d5786880387f35b84518116885296820196938201939085019062003e6f565b8254871684529288019291870191870162003e39565b60405162461bcd60e51b815260048101839052601c60248201527f557365722050726f66696c6520646f7365206e6f742065786973742e000000006044820152606490fd5b34620006d2576080366003190112620006d25760405162003f1181620058a9565b600435815262003f2062005a5a565b602082019081526044359063ffffffff82168203620006d257604083019182526060830192606435845262003f5462005f64565b5160095560018060a01b03905116600a549163ffffffff60a01b905160a01b16916001600160401b0360c01b161717600a5551600b555f80f35b34620006d2576040366003190112620006d25762003fab62005a5a565b60018060a01b0380821690815f52600e9260209380855262003fd760ff601760405f2001541662005c83565b8260015416836002541690604051631083f76160e01b81528781600481865afa801562003a4f57620040439289925f9262004284575b5060405163e6a4390560e01b81526001600160a01b03808916600483015290921660248301529092839190829081906044820190565b03915afa801562003a4f576040915f9162004262575b506004825180978193630240bc6b60e21b8352165afa92831562003a4f575f945f946200422d575b5060408051636f08e17760e01b815260048035908201526001600160a01b03909216602483015233604483015290918290815f81606481015b03925af193841562003a4f575f915f95620041fb575b50620040e2620040e992869262005cfc565b9362005d0a565b92845f5281865262004103600f60405f2001544262005d0a565b938060011b918183046002148215171562003bce57600c620151806200414c62004192948a5f52878c52620041458962002ce883600860405f20015462005d18565b9862005d53565b9711968715620041db5782945b8815620041c757895f52868b52600960405f200154975b8a5f52878c5260405f20926009840155600a830155600b820155015462005cfc565b945f5281865260405f2094600c860155600d850155830155620041ba575b5060405160018152f35b600f4291015581620041b0565b895f52868b528660405f2001549762004170565b885f52858a52620041f483600d60405f20015462005cfc565b9462004159565b620040e29550620040e99250620042239060403d604011620014d257620014c28183620058d9565b95909250620040d0565b5f929550604091945062004254620040ba91833d8511620014d257620014c28183620058d9565b969096959250925062004081565b6200427d9150883d8a1162001e3e5762001e2b8183620058d9565b8862004059565b620042a0919250833d851162001e3e5762001e2b8183620058d9565b908a6200400d565b34620006d25760e0366003190112620006d2576004356001600160401b038111620006d257620042dd90369060040162005917565b6024356001600160401b038111620006d257620042ff90369060040162005917565b6044356001600160401b038111620006d257620043219036906004016200597b565b6064356001600160401b038111620006d2576200434390369060040162005917565b6084356001600160401b038111620006d2576200436590369060040162005917565b9260a4356001600160401b038111620006d25762004388903690600401620059ee565b916200439362005f9e565b6200439d62005f9e565b600454928360c435111562001f1957600254604051631083f76160e01b81529590602090879060049082906001600160a01b03165afa95861562003a4f575f96620057e9575b506040516370a0823160e01b81523360048201526020816024816001600160a01b038b165afa90811562003a4f575f91620057b1575b5060c4351162001e805762004450620044358660c43562005d0a565b5f549096906001600160a01b039081169033908a1662005ffc565b620044678530336001600160a01b038a1662005ffc565b620044728862005d78565b60035490600754916040519283610ffa8101106001600160401b03610ffa8601111762004fbf57620044d5620044be8594610ffa620062a287396080610ffa8701818152019062005c5c565b610ffa850181036020610ffa870101528962005c5c565b916040610ffa850101526060610ffa8401015203905ff096871562003a4f576040516318160ddd60e01b81526020816004816001600160a01b038d165afa90811562003a4f575f9162005779575b506001546040516364e329cb60e11b81526001600160a01b038b811660048301528a81166024830152909b91168b6044815a6020945f91f19a8b1562003a4f575f9b62005753575b506002546200458a9083906001600160a01b03908116908d1662006049565b6200459760055462005d2c565b69021e19e0c9bab24000009081810291818304149015171562003bce5782620045c09162005d53565b670de0b6b3a764000090808281020482148115171562003bce575f60408d606460018060a01b03600254169183519485938492631746ffa760e31b845260018060a01b031660048401528a60248401526127108989020460448401525af1801562003a4f5762005730575b50620046378362005d78565b936200464a612710848402048262005d53565b9061271084840204600181901b8190046002149015171562003bce578d9a612710956200467c87878702048462005d53565b9760206040519e8f90620046908262005853565b60018060a01b03168152015260408d015260608c015260808b015260a08a0152828282020460c08a0152020460011b60e08701525f6101008701525f61012087015261014086015242610160860152825190602084015192606060408601519501519560405197620047028962005870565b33895260018060a01b038c1660208a015260018060a01b038d1660408a01525f60608a0152608089015260a088015260c087015260e086015261010085015261012084015261014083015261016082015260016101808201525f6101a082015260018060a01b0384165f52600e60205260405f2060018060a01b038251166001600160601b0360a01b8254161781556001810160018060a01b036020840151166001600160601b0360a01b8254161790556002810160018060a01b036040840151166001600160601b0360a01b8254161790556003810160018060a01b036060840151166001600160601b0360a01b8254161790556004810160808301519060018060a01b038251166001600160601b0360a01b82541617905560208101518051906001600160401b03821162004fbf57819062004844600586015462005a9f565b601f8111620056f9575b50602090601f831160011462005686575f926200567a575b50508160011b915f199060031b1c19161760058301555b60408101518051906001600160401b03821162004fbf578190620048a5600686015462005a9f565b601f811162005643575b50602090601f8311600114620055d0575f92620055c4575b50508160011b915f199060031b1c19161760068301555b60608101518051906001600160401b03821162004fbf5762004904600785015462005a9f565b601f81116200558d575b50602090601f831160011462005518576101609392915f91836200550c575b50508160011b915f199060031b1c19161760078401555b6080810151600884015560a0810151600984015560c0810151600a84015560e0810151600b840155610100810151600c840155610120810151600d840155610140810151600e8401550151600f82015560a08201518051906001600160401b03821162004fbf578190620049bc601085015462005a9f565b601f8111620054d5575b50602090601f831160011462005462575f9262005456575b50508160011b915f199060031b1c19161760108201555b60c08201518051906001600160401b03821162004fbf57600160401b821162004fbf576020906011840154836011860155808410620053fe575b500190601183015f5260205f20905f5b8160051c8110620053bc5750601f19811680820362005369575b5050505060e08201518051906001600160401b03821162004fbf57819062004a85601285015462005a9f565b601f811162005332575b50602090601f8311600114620052bf575f92620052b3575b50508160011b915f199060031b1c19161760128201555b6101008201518051906001600160401b03821162004fbf57819062004ae7601385015462005a9f565b601f81116200527c575b50602090601f831160011462005209575f92620051fd575b50508160011b915f199060031b1c19161760138201555b6101208201518051906001600160401b03821162004fbf57819062004b49601485015462005a9f565b601f8111620051c6575b50602090601f831160011462005153575f9262005147575b50508160011b915f199060031b1c19161760148201555b6101408201518051906001600160401b03821162004fbf57819062004bab601585015462005a9f565b601f811162005110575b50602090601f83116001146200509d575f9262005091575b50508160011b915f199060031b1c19161760158201555b6101608201518051906001600160401b03821162004fbf5762004c0b601684015462005a9f565b601f81116200505a575b50602090601f831160011462004fdf5792826101a09360179362004c7197965f9262004fd35750508160011b915f199060031b1c19161760168201550191620012206101808201511515849060ff801983541691151516179055565b62004c856001600160a01b03841662005dd1565b335f818152600c60205260409020546001600160a01b03160362004eb457604062004d6b5f92338452600c60205262004ccc60018060a01b03871660018587200162005eaf565b600f548351818152909562004d2a918391906001600160a01b038b811691908b16907f714aa39317ad9a7a7a99db52b44490da5d068a0b2710fffb1a1282ad3cadae1f90602090a36002546001600160a01b03908116911662006049565b60025483516373a9c2c560e11b815260048101929092526001600160a01b038781166024840152306044840152919485939190921691839182906064820190565b03925af1801562003a4f5762004e91575b506040516370a0823160e01b8152306004820152906020826024816001600160a01b0387165afa91821562003a4f575f9262004e56575b5060405163a9059cbb60e01b815233600482015260248101929092526020826044815f6001600160a01b0388165af191821562003a4f57620014239262004e32575b5060015f80516020620072bc83398151915255604080516001600160a01b0394851681529490931660208501529183019190915281906060820190565b62004e4e9060203d6020116200145557620014448183620058d9565b508462004df5565b91506020823d60201162004e88575b8162004e7460209383620058d9565b81010312620006d257905190602062004db3565b3d915062004e65565b62004ead9060403d604011620014d257620014c28183620058d9565b5062004d7c565b60405162004ec2816200588d565b3381526020810160608152335f52600c60205260405f209160018060a01b039051166001600160601b0360a01b83541617825551908151916001600160401b03831162004fbf57600160401b831162004fbf57602060019182840154858486015580861062004f9f575b500191015f5260205f205f5b83811062004f815750505050604062004d6b5f9262004f573362005e4a565b338452600c60205282842062004f7b906001600160a01b0388169060010162005eaf565b62004ccc565b82516001600160a01b03168183015560209092019160010162004f38565b62004fb8908486015f5286845f20918201910162005db9565b8962004f2c565b634e487b7160e01b5f52604160045260245ffd5b015190508b80620011e9565b90601684015f5260205f20915f5b601f19851681106200504157508360179362004c719796936001936101a097601f198116106200502857505050811b01601682015562001200565b01515f1960f88460031b161c191690558b808062001669565b9192602060018192868501518155019401920162004fed565b6200508a90601685015f5260205f20601f850160051c81019160208610620016e857601f0160051c019062005db9565b8862004c15565b01519050888062004bcd565b9250601584015f5260205f20905f935b601f1984168510620050f4576001945083601f19811610620050db575b505050811b01601582015562004be4565b01515f1960f88460031b161c19169055888080620050ca565b81810151835560209485019460019093019290910190620050ad565b6200514090601586015f5260205f20601f850160051c81019160208610620016e857601f0160051c019062005db9565b8962004bb5565b01519050888062004b6b565b9250601484015f5260205f20905f935b601f1984168510620051aa576001945083601f1981161062005191575b505050811b01601482015562004b82565b01515f1960f88460031b161c1916905588808062005180565b8181015183556020948501946001909301929091019062005163565b620051f690601486015f5260205f20601f850160051c81019160208610620016e857601f0160051c019062005db9565b8962004b53565b01519050888062004b09565b9250601384015f5260205f20905f935b601f198416851062005260576001945083601f1981161062005247575b505050811b01601382015562004b20565b01515f1960f88460031b161c1916905588808062005236565b8181015183556020948501946001909301929091019062005219565b620052ac90601386015f5260205f20601f850160051c81019160208610620016e857601f0160051c019062005db9565b8962004af1565b01519050888062004aa7565b9250601284015f5260205f20905f935b601f198416851062005316576001945083601f19811610620052fd575b505050811b01601282015562004abe565b01515f1960f88460031b161c19169055888080620052ec565b81810151835560209485019460019093019290910190620052cf565b6200536290601286015f5260205f20601f850160051c81019160208610620016e857601f0160051c019062005db9565b8962004a8f565b925f935f5b81840381106200538a5750505060051c01558680808062004a59565b9091946020620053b16001928460ff8a5116919060ff809160031b9316831b921b19161790565b96019291016200536e565b5f805b60208110620053d657508382015560010162004a3f565b855190959160019160209160ff60038a901b81811b199092169216901b1792019501620053bf565b6200542e90601186015f52601f845f2091818716806200543557500160051c810190601f860160051c0162005db9565b8962004a2f565b5f199081848a0160051c86010191825491890360031b1c1690558d62001aab565b015190508880620049de565b9250601084015f5260205f20905f935b601f1984168510620054b9576001945083601f19811610620054a0575b505050811b016010820155620049f5565b01515f1960f88460031b161c191690558880806200548f565b8181015183556020948501946001909301929091019062005472565b6200550590601086015f5260205f20601f850160051c81019160208610620016e857601f0160051c019062005db9565b89620049c6565b015190508a806200492d565b90600785015f5260205f20915f5b601f19851681106200557457509183916001936101609695601f198116106200555b575b505050811b01600784015562004944565b01515f1960f88460031b161c191690558a80806200554a565b9192602060018192868501518155019401920162005526565b620055bd90600786015f5260205f20601f850160051c81019160208610620016e857601f0160051c019062005db9565b896200490e565b015190508980620048c7565b9250600685015f5260205f20905f935b601f198416851062005627576001945083601f198116106200560e575b505050811b016006830155620048de565b01515f1960f88460031b161c19169055898080620055fd565b81810151835560209485019460019093019290910190620055e0565b6200567390600687015f5260205f20601f850160051c81019160208610620016e857601f0160051c019062005db9565b8a620048af565b01519050898062004866565b9250600585015f5260205f20905f935b601f1984168510620056dd576001945083601f19811610620056c4575b505050811b0160058301556200487d565b01515f1960f88460031b161c19169055898080620056b3565b8181015183556020948501946001909301929091019062005696565b6200572990600587015f5260205f20601f850160051c81019160208610620016e857601f0160051c019062005db9565b8a6200484e565b6200574c9060403d604011620014d257620014c28183620058d9565b506200462b565b62005771919b5060203d60201162001e3e5762001e2b8183620058d9565b998b6200456b565b90506020813d602011620057a8575b816200579760209383620058d9565b81010312620006d257518a62004523565b3d915062005788565b90506020813d602011620057e0575b81620057cf60209383620058d9565b81010312620006d257518962004419565b3d9150620057c0565b6200580791965060203d60201162001e3e5762001e2b8183620058d9565b9488620043e3565b34620006d2575f366003190112620006d2576020600354604051908152f35b34620006d2576020366003190112620006d2576200584b62005f64565b600435600655005b61018081019081106001600160401b0382111762004fbf57604052565b6101c081019081106001600160401b0382111762004fbf57604052565b604081019081106001600160401b0382111762004fbf57604052565b608081019081106001600160401b0382111762004fbf57604052565b6001600160401b03811162004fbf57604052565b90601f801991011681019081106001600160401b0382111762004fbf57604052565b6001600160401b03811162004fbf57601f01601f191660200190565b81601f82011215620006d2578035906200593182620058fb565b92620059416040519485620058d9565b82845260208383010111620006d257815f926020809301838601378301015290565b6001600160401b03811162004fbf5760051b60200190565b9080601f83011215620006d2576020908235620059988162005963565b93620059a86040519586620058d9565b81855260208086019260051b820101928311620006d257602001905b828210620059d3575050505090565b813560ff81168103620006d2578152908301908301620059c4565b9080601f83011215620006d2576040519162005a0a83620058a9565b608081019083838311620006d25781905b83821062005a2b57505050505090565b81356001600160401b038111620006d25760209162005a4e878493870162005917565b81520191019062005a1b565b602435906001600160a01b0382168203620006d257565b600435906001600160a01b0382168203620006d257565b60e435906001600160a01b0382168203620006d257565b90600182811c9216801562005acf575b602083101462005abb57565b634e487b7160e01b5f52602260045260245ffd5b91607f169162005aaf565b80545f939262005aea8262005a9f565b918282526020936001916001811690815f1462005b53575060011462005b12575b5050505050565b90939495505f92919252835f2092845f945b83861062005b3e57505050500101905f8080808062005b0b565b80548587018301529401938590820162005b24565b60ff19168685015250505090151560051b010191505f8080808062005b0b565b9060405162005b828162005853565b610160600b829460018060a01b03815416845260405162005bac816200218e816001860162005ada565b602085015260405162005bc8816200218e816002860162005ada565b604085015260405162005be4816200218e816003860162005ada565b606085015260048101546080850152600581015460a0850152600681015460c0850152600781015460e085015260088101546101008501526009810154610120850152600a8101546101408501520154910152565b5f5b83811062005c4b5750505f910152565b818101518382015260200162005c3b565b9060209162005c778151809281855285808601910162005c39565b601f01601f1916010190565b1562005c8b57565b60405162461bcd60e51b8152602060048201526011602482015270546f6b656e206e6f742074726164696e6760781b6044820152606490fd5b90816020910312620006d257516001600160a01b0381168103620006d25790565b9190826040910312620006d2576020825192015190565b9190820180921162003bce57565b9190820391821162003bce57565b8181029291811591840414171562003bce57565b801562005d3f57666a94d74f4300000490565b634e487b7160e01b5f52601260045260245ffd5b811562005d3f570490565b90816020910312620006d257518015158103620006d25790565b9062005db760246040518094630333ab7160e51b602083015262005da6815180926020868601910162005c39565b8101036004810185520183620058d9565b565b81811062005dc5575050565b5f815560010162005db9565b600f54600160401b81101562004fbf576001810180600f5581101562005e3657600f5f527f8d1108e10bcb7c27dddfc02ed9d693a074039d026cf4ea4240b40f7d581ac8020180546001600160a01b0319166001600160a01b03909216919091179055565b634e487b7160e01b5f52603260045260245ffd5b600d54600160401b81101562004fbf576001810180600d5581101562005e3657600d5f527fd7b6990105719101dabeb77144f2a3385c8033acd3af97e9423a695e81ad1eb50180546001600160a01b0319166001600160a01b03909216919091179055565b805490600160401b82101562004fbf576001820180825582101562005e36575f5260205f20019060018060a01b03166001600160601b0360a01b825416179055565b6001600160a01b0390811690811562005f4c575f805160206200729c83398151915280546001600160a01b031981168417909155167f8be0079c531659141344cd1fd0a4f28419497f9722a3daafe3b4186f6b6457e05f80a3565b604051631e4fbdf760e01b81525f6004820152602490fd5b5f805160206200729c833981519152546001600160a01b0316330362005f8657565b60405163118cdaa760e01b8152336004820152602490fd5b5f80516020620072bc833981519152600281541462005fbd5760029055565b604051633ee5aeb560e01b8152600490fd5b90816020910312620006d2575160ff81168103620006d25790565b60ff16604d811162003bce57600a0a90565b6040516323b872dd60e01b60208201526001600160a01b03928316602482015292909116604483015260648083019390935291815262005db79162006043608483620058d9565b62006149565b60405163095ea7b360e01b602082018181526001600160a01b038516602484015260448084019690965294825290929062006086606485620058d9565b83516001600160a01b0395848716915f9182919082855af190620060a9620061c3565b8262006112575b508162006106575b5015620060c6575050505050565b620060fb9462006043926040519260208401521660248201525f604482015260448152620060f481620058a9565b8262006149565b5f8080808062005b0b565b90503b15155f620060b8565b805191925081159182156200612c575b5050905f620060b0565b62006141925060208091830101910162005d5e565b5f8062006122565b5f80620061759260018060a01b03169360208151910182865af16200616d620061c3565b908362006239565b8051908115159182620061a5575b50506200618d5750565b60249060405190635274afe760e01b82526004820152fd5b620061ba925060208091830101910162005d5e565b155f8062006183565b3d15620061f2573d90620061d782620058fb565b91620061e76040519384620058d9565b82523d5f602084013e565b606090565b60ff7ff0c57e16840df040f15088dc2f81fe391c3923bec73e23a9662efc9c229c6a005460401c16156200622757565b604051631afcd79f60e31b8152600490fd5b906200626257508051156200625057805190602001fd5b604051630a12f52160e11b8152600490fd5b8151158062006297575b62006275575090565b604051639996b31560e01b81526001600160a01b039091166004820152602490fd5b50803b156200626c56fe604060808152346200043a5762000ffa803803806200001e816200043e565b9283398101906080818303126200043a5780516001600160401b0391908281116200043a57836200005191830162000464565b9060209384820151908482116200043a576200006f91830162000464565b60608683015192015193331562000423575f8054336001600160a01b0319821681178355916001600160a01b03909116907f8be0079c531659141344cd1fd0a4f28419497f9722a3daafe3b4186f6b6457e09080a38351918183116200033e57600254926001958685811c9516801562000418575b898610146200031f578190601f95868111620003c4575b5089908683116001146200035e575f9262000352575b50505f19600383901b1c191690861b176002555b80519182116200033e576003928354918683811c9316801562000333575b898410146200031f578282859411620002ca575b508891831160011462000267575f926200025b575b50505f1982841b1c191690841b1790555b670de0b6b3a7640000908181029181830414901517156200024757808255335f5260068452845f205560088352835f2060ff19908282825416179055305f5281855f20918254161790558160045554918282029082820484148315171562000247577fff3dd5e80294197918c284bbfc3dadd97d0b40ce92106110946329088f80068a815f9460647fddf252ad1be2c89b69c2b068fc378daa952ba7f163c4a11628f55a4df523b3ef95046005558751908152a184519384523393a351610b259081620004d58239f35b634e487b7160e01b5f52601160045260245ffd5b015190505f806200016c565b90869350601f19831691855f52895f20925f5b8b828210620002b357505084116200029b575b505050811b0190556200017d565b01515f1983861b60f8161c191690555f80806200028d565b8385015186558a979095019493840193016200027a565b90919250845f52885f208380860160051c8201928b871062000315575b9186958a929594930160051c01915b8281106200030657505062000157565b5f8155869550899101620002f6565b92508192620002e7565b634e487b7160e01b5f52602260045260245ffd5b92607f169262000143565b634e487b7160e01b5f52604160045260245ffd5b015190505f8062000111565b90889350601f1983169160025f528b5f20925f5b8d828210620003ad575050841162000394575b505050811b0160025562000125565b01515f1960f88460031b161c191690555f808062000385565b8385015186558c9790950194938401930162000372565b90915060025f52895f208680850160051c8201928c86106200040e575b918a91869594930160051c01915b828110620003ff575050620000fb565b5f81558594508a9101620003ef565b92508192620003e1565b94607f1694620000e4565b8651631e4fbdf760e01b81525f6004820152602490fd5b5f80fd5b6040519190601f01601f191682016001600160401b038111838210176200033e57604052565b919080601f840112156200043a5782516001600160401b0381116200033e576020906200049a601f8201601f191683016200043e565b928184528282870101116200043a575f5b818110620004c05750825f9394955001015290565b8581018301518482018401528201620004ab56fe608060409080825260049081361015610016575f80fd5b5f3560e01c90816306fdde031461066657508063095ea7b31461063d57806318160ddd1461061f57806323b872dd146105bb578063313ce567146105a057806370a0823114610569578063715018a6146105125780637437681e146104f557806379cc67901461043e5780638da5cb5b1461041757806395d89b41146102f4578063a9059cbb146102c4578063c2d0ffca14610249578063db4cf1e0146101a8578063dd62ed3e1461015f5763f2fde38b146100d0575f80fd5b3461015b57602036600319011261015b576100e96107a3565b906100f2610ac4565b6001600160a01b039182169283156101455750505f54826bffffffffffffffffffffffff60a01b8216175f55167f8be0079c531659141344cd1fd0a4f28419497f9722a3daafe3b4186f6b6457e05f80a3005b905f6024925191631e4fbdf760e01b8352820152fd5b5f80fd5b823461015b578060031936011261015b5760209061017b6107a3565b6101836107b9565b9060018060a01b038091165f5260078452825f2091165f528252805f20549051908152f35b503461015b57602036600319011261015b576101c26107a3565b6101ca610ac4565b6001600160a01b03169081156101f257505f908152600860205220805460ff19166001179055005b608490602084519162461bcd60e51b8352820152602b60248201527f45524332303a204578636c756465204d61782054782066726f6d20746865207a60448201526a65726f206164647265737360a81b6064820152fd5b50903461015b57602036600319011261015b57813591610267610ac4565b828155600154908184029184830414841517156102b1577fff3dd5e80294197918c284bbfc3dadd97d0b40ce92106110946329088f80068a602085856064860460055551908152a1005b601190634e487b7160e01b5f525260245ffd5b823461015b578060031936011261015b576020906102ed6102e36107a3565b60243590336108ee565b5160018152f35b50903461015b575f36600319011261015b578051905f60035460018160011c906001831692831561040d575b60209384841081146103fa578388529081156103de5750600114610388575b505050829003601f01601f191682019267ffffffffffffffff841183851017610375575082918261037192528261075c565b0390f35b604190634e487b7160e01b5f525260245ffd5b60035f908152929350837fc2575a0e9e593c00f959f8c92f12db2869c3395a3b0502d05e2516446f71f85b5b8385106103ca57505050508301015f808061033f565b8054888601830152930192849082016103b4565b60ff1916878501525050151560051b84010190505f808061033f565b602289634e487b7160e01b5f525260245ffd5b91607f1691610320565b823461015b575f36600319011261015b575f5490516001600160a01b039091168152602090f35b503461015b578160031936011261015b576104576107a3565b60243590610463610ac4565b6001600160a01b03169182156104c0575060207fddf252ad1be2c89b69c2b068fc378daa952ba7f163c4a11628f55a4df523b3ef915f94848652600683526104ae82828820546107cf565b858752600684528187205551908152a3005b606490602085519162461bcd60e51b8352820152600f60248201526e496e76616c6964206164647265737360881b6044820152fd5b50903461015b575f36600319011261015b57602091549051908152f35b3461015b575f36600319011261015b5761052a610ac4565b5f80546001600160a01b0319811682556001600160a01b03167f8be0079c531659141344cd1fd0a4f28419497f9722a3daafe3b4186f6b6457e08280a3005b823461015b57602036600319011261015b576020906001600160a01b0361058e6107a3565b165f5260068252805f20549051908152f35b823461015b575f36600319011261015b576020905160128152f35b823461015b57606036600319011261015b576020906102ed6105db6107a3565b6106176105e66107b9565b6105f46044358092856108ee565b6001600160a01b0383165f908152600787528581203382528752859020546107cf565b9033906107f0565b823461015b575f36600319011261015b576020906001549051908152f35b823461015b578060031936011261015b576020906102ed61065c6107a3565b60243590336107f0565b9050823461015b575f36600319011261015b575f60025460018160011c9060018316928315610752575b60209384841081146103fa5783885290811561073657506001146106e057505050829003601f01601f191682019267ffffffffffffffff841183851017610375575082918261037192528261075c565b60025f908152929350837f405787fa12a823e0f2b7631cc41b3ba8828b3321ca811111fa75cd3aa3bb5ace5b838510610722575050505083010184808061033f565b80548886018301529301928490820161070c565b60ff1916878501525050151560051b840101905084808061033f565b91607f1691610690565b602080825282518183018190529093925f5b82811061078f57505060409293505f838284010152601f8019910116010190565b81810186015184820160400152850161076e565b600435906001600160a01b038216820361015b57565b602435906001600160a01b038216820361015b57565b919082039182116107dc57565b634e487b7160e01b5f52601160045260245ffd5b6001600160a01b0390811691821561089d571691821561084d5760207f8c5be1e5ebec7d5bd14f71427d1e84f3dd0314c0f7b2291e5b200ac8c7c3b92591835f526007825260405f20855f5282528060405f2055604051908152a3565b60405162461bcd60e51b815260206004820152602260248201527f45524332303a20617070726f766520746f20746865207a65726f206164647265604482015261737360f01b6064820152608490fd5b60405162461bcd60e51b8152602060048201526024808201527f45524332303a20617070726f76652066726f6d20746865207a65726f206164646044820152637265737360e01b6064820152608490fd5b6001600160a01b03908116918215610a715716918215610a205780156109c957815f5260206008815260409160ff835f2054161561098c575b835f526006825261093b81845f20546107cf565b845f5260068352835f2055845f52825f2054928184018094116107dc577fddf252ad1be2c89b69c2b068fc378daa952ba7f163c4a11628f55a4df523b3ef93865f5260068452815f205551908152a3565b6005548111156109275750606491519062461bcd60e51b82526004820152600d60248201526c08af0c6cacac8e6409ac2f0a8f609b1b6044820152fd5b60405162461bcd60e51b815260206004820152602960248201527f5472616e7366657220616d6f756e74206d7573742062652067726561746572206044820152687468616e207a65726f60b81b6064820152608490fd5b60405162461bcd60e51b815260206004820152602360248201527f45524332303a207472616e7366657220746f20746865207a65726f206164647260448201526265737360e81b6064820152608490fd5b60405162461bcd60e51b815260206004820152602560248201527f45524332303a207472616e736665722066726f6d20746865207a65726f206164604482015264647265737360d81b6064820152608490fd5b5f546001600160a01b03163303610ad757565b60405163118cdaa760e01b8152336004820152602490fdfea2646970667358221220c9bf215d897f3ac38e7d7b4c93fdee0c3e2d57d7ad6ffb9be98e5ef76a55462564736f6c634300081600339016d09d72d40fdae2fd8ceac6b6234c7706214fd39c1cd1e609a0528c1993009b779b17422d0df92223018b32b4d1fa46e071723d6817e2486d003becc55f00a264697066735822122025d57ea8e2776173b2ed285d9fdd8ac1b409db15efecb4cd14290fcf0e83c8cf64736f6c63430008160033","linkReferences":{}},"methodIdentifiers":{"K()":"a932492f","agentFactory()":"7df107ea","assetRate()":"e8e6ed69","buy(uint256,address)":"7deb6025","factory()":"c45a0155","fee()":"ddca3f43","getUserTokens(address)":"519dc8d2","gradThreshold()":"6edd12e0","initialSupply()":"378dc3dc","initialize(address,address,address,uint256,uint256,uint256,uint256,address,uint256)":"ea6eef49","launch(string,string,uint8[],string,string,string[4],uint256)":"3c0b93aa","launchFor(string,string,uint8[],string,string,string[4],uint256,address)":"bd01cb92","maxTx()":"7437681e","owner()":"8da5cb5b","profile(address)":"9dd9d0fd","profiles(uint256)":"c36fe3d6","renounceOwnership()":"715018a6","router()":"f887ea40","sell(uint256,address)":"4189a68e","setAssetRate(uint256)":"cc489688","setDeployParams((bytes32,address,uint32,uint256))":"43fb4d24","setFee(uint256,address)":"b4f2e8b8","setGradThreshold(uint256)":"09c8962c","setInitialSupply(uint256)":"61402596","setMaxTx(uint256)":"bc337182","tokenInfo(address)":"f5dab711","tokenInfos(uint256)":"7c13774b","transferOwnership(address)":"f2fde38b","unwrapToken(address,address[])":"7f13a90b"},"id":0}