{"abi":[{"type":"constructor","inputs":[],"stateMutability":"nonpayable"},{"type":"function","name":"BONDING_ROLE","inputs":[],"outputs":[{"name":"","type":"bytes32","internalType":"bytes32"}],"stateMutability":"view"},{"type":"function","name":"DEFAULT_ADMIN_ROLE","inputs":[],"outputs":[{"name":"","type":"bytes32","internalType":"bytes32"}],"stateMutability":"view"},{"type":"function","name":"executeBondingCurveApplication","inputs":[{"name":"","type":"uint256","internalType":"uint256"},{"name":"","type":"uint256","internalType":"uint256"},{"name":"","type":"uint256","internalType":"uint256"},{"name":"","type":"address","internalType":"address"}],"outputs":[{"name":"","type":"address","internalType":"address"}],"stateMutability":"view"},{"type":"function","name":"getRoleAdmin","inputs":[{"name":"role","type":"bytes32","internalType":"bytes32"}],"outputs":[{"name":"","type":"bytes32","internalType":"bytes32"}],"stateMutability":"view"},{"type":"function","name":"grantRole","inputs":[{"name":"role","type":"bytes32","internalType":"bytes32"},{"name":"account","type":"address","internalType":"address"}],"outputs":[],"stateMutability":"nonpayable"},{"type":"function","name":"hasRole","inputs":[{"name":"role","type":"bytes32","internalType":"bytes32"},{"name":"account","type":"address","internalType":"address"}],"outputs":[{"name":"","type":"bool","internalType":"bool"}],"stateMutability":"view"},{"type":"function","name":"initFromBondingCurve","inputs":[{"name":"","type":"string","internalType":"string"},{"name":"","type":"string","internalType":"string"},{"name":"","type":"uint8[]","internalType":"uint8[]"},{"name":"","type":"bytes32","internalType":"bytes32"},{"name":"","type":"address","internalType":"address"},{"name":"","type":"uint32","internalType":"uint32"},{"name":"","type":"uint256","internalType":"uint256"},{"name":"","type":"uint256","internalType":"uint256"},{"name":"","type":"address","internalType":"address"}],"outputs":[{"name":"","type":"uint256","internalType":"uint256"}],"stateMutability":"view"},{"type":"function","name":"initialize","inputs":[{"name":"","type":"address","internalType":"address"},{"name":"","type":"address","internalType":"address"},{"name":"","type":"address","internalType":"address"},{"name":"","type":"address","internalType":"address"},{"name":"","type":"address","internalType":"address"},{"name":"","type":"address","internalType":"address"},{"name":"","type":"uint256","internalType":"uint256"},{"name":"","type":"address","internalType":"address"},{"name":"","type":"uint256","internalType":"uint256"}],"outputs":[],"stateMutability":"nonpayable"},{"type":"function","name":"mockAgentToken","inputs":[],"outputs":[{"name":"","type":"address","internalType":"address"}],"stateMutability":"view"},{"type":"function","name":"mockId","inputs":[],"outputs":[{"name":"","type":"uint256","internalType":"uint256"}],"stateMutability":"view"},{"type":"function","name":"paused","inputs":[],"outputs":[{"name":"","type":"bool","internalType":"bool"}],"stateMutability":"view"},{"type":"function","name":"proposeAgent","inputs":[{"name":"","type":"string","internalType":"string"},{"name":"","type":"string","internalType":"string"},{"name":"","type":"string","internalType":"string"},{"name":"","type":"uint8[]","internalType":"uint8[]"},{"name":"","type":"bytes32","internalType":"bytes32"},{"name":"","type":"address","internalType":"address"},{"name":"","type":"uint32","internalType":"uint32"},{"name":"","type":"uint256","internalType":"uint256"}],"outputs":[{"name":"","type":"uint256","internalType":"uint256"}],"stateMutability":"view"},{"type":"function","name":"renounceRole","inputs":[{"name":"role","type":"bytes32","internalType":"bytes32"},{"name":"callerConfirmation","type":"address","internalType":"address"}],"outputs":[],"stateMutability":"nonpayable"},{"type":"function","name":"revokeRole","inputs":[{"name":"role","type":"bytes32","internalType":"bytes32"},{"name":"account","type":"address","internalType":"address"}],"outputs":[],"stateMutability":"nonpayable"},{"type":"function","name":"setMockAgentToken","inputs":[{"name":"token","type":"address","internalType":"address"}],"outputs":[],"stateMutability":"nonpayable"},{"type":"function","name":"setMockId","inputs":[{"name":"id","type":"uint256","internalType":"uint256"}],"outputs":[],"stateMutability":"nonpayable"},{"type":"function","name":"supportsInterface","inputs":[{"name":"interfaceId","type":"bytes4","internalType":"bytes4"}],"outputs":[{"name":"","type":"bool","internalType":"bool"}],"stateMutability":"view"},{"type":"function","name":"totalAgents","inputs":[],"outputs":[{"name":"","type":"uint256","internalType":"uint256"}],"stateMutability":"pure"},{"type":"function","name":"withdraw","inputs":[{"name":"","type":"uint256","internalType":"uint256"}],"outputs":[],"stateMutability":"pure"},{"type":"event","name":"Initialized","inputs":[{"name":"version","type":"uint64","indexed":false,"internalType":"uint64"}],"anonymous":false},{"type":"event","name":"Paused","inputs":[{"name":"account","type":"address","indexed":false,"internalType":"address"}],"anonymous":false},{"type":"event","name":"RoleAdminChanged","inputs":[{"name":"role","type":"bytes32","indexed":true,"internalType":"bytes32"},{"name":"previousAdminRole","type":"bytes32","indexed":true,"internalType":"bytes32"},{"name":"newAdminRole","type":"bytes32","indexed":true,"internalType":"bytes32"}],"anonymous":false},{"type":"event","name":"RoleGranted","inputs":[{"name":"role","type":"bytes32","indexed":true,"internalType":"bytes32"},{"name":"account","type":"address","indexed":true,"internalType":"address"},{"name":"sender","type":"address","indexed":true,"internalType":"address"}],"anonymous":false},{"type":"event","name":"RoleRevoked","inputs":[{"name":"role","type":"bytes32","indexed":true,"internalType":"bytes32"},{"name":"account","type":"address","indexed":true,"internalType":"address"},{"name":"sender","type":"address","indexed":true,"internalType":"address"}],"anonymous":false},{"type":"event","name":"Unpaused","inputs":[{"name":"account","type":"address","indexed":false,"internalType":"address"}],"anonymous":false},{"type":"error","name":"AccessControlBadConfirmation","inputs":[]},{"type":"error","name":"AccessControlUnauthorizedAccount","inputs":[{"name":"account","type":"address","internalType":"address"},{"name":"neededRole","type":"bytes32","internalType":"bytes32"}]},{"type":"error","name":"EnforcedPause","inputs":[]},{"type":"error","name":"ExpectedPause","inputs":[]},{"type":"error","name":"InvalidInitialization","inputs":[]},{"type":"error","name":"NotInitializing","inputs":[]}],"bytecode":{"object":"0x608060405234801561000f575f80fd5b5061001861001d565b6100cf565b7ff0c57e16840df040f15088dc2f81fe391c3923bec73e23a9662efc9c229c6a00805468010000000000000000900460ff161561006d5760405163f92ee8a960e01b815260040160405180910390fd5b80546001600160401b03908116146100cc5780546001600160401b0319166001600160401b0390811782556040519081527fc7f505b2f371ae2175ee4913f4499e1f2633a7b5936321eed1cdaeb6115181d29060200160405180910390a15b50565b610c9e806100dc5f395ff3fe608060405234801561000f575f80fd5b506004361061011c575f3560e01c80635c975abb116100a9578063a12e9b881161006e578063a12e9b881461027c578063a217fddf1461028f578063c505371214610296578063d547741f1461029d578063e8730541146102b0575f80fd5b80635c975abb146102075780636dee767c14610231578063774519c61461024357806391d148541461024c5780639e4ec30a1461025f575f80fd5b80632e1a7d4d116100ef5780632e1a7d4d146101a95780632f2ff15d146101ba5780633094afb3146101cd57806336568abe146101e15780633fa2da7e146101f4575f80fd5b806301ffc9a7146101205780630f07646a1461014857806323c315961461015d578063248a9ca314610188575b5f80fd5b61013361012e3660046107be565b6102df565b60405190151581526020015b60405180910390f35b61015b610156366004610807565b610315565b005b61017061016b36600461089b565b610455565b6040516001600160a01b03909116815260200161013f565b61019b6101963660046108d7565b610482565b60405190815260200161013f565b61015b6101b73660046108d7565b50565b61015b6101c83660046108ee565b6104a2565b61019b5f80516020610c2983398151915281565b61015b6101ef3660046108ee565b6104c4565b61019b610202366004610a67565b6104fc565b7fcd5ed15c6e187e77e9aee88184c21f4f2182ab5827cb3b7e07fbedcd63f033005460ff16610133565b5f54610170906001600160a01b031681565b61019b60015481565b61013361025a3660046108ee565b61052e565b61019b61026d366004610b36565b60015498975050505050505050565b61015b61028a3660046108d7565b600155565b61019b5f81565b600161019b565b61015b6102ab3660046108ee565b610564565b61015b6102be366004610c0f565b5f80546001600160a01b0319166001600160a01b0392909216919091179055565b5f6001600160e01b03198216637965db0b60e01b148061030f57506301ffc9a760e01b6001600160e01b03198316145b92915050565b7ff0c57e16840df040f15088dc2f81fe391c3923bec73e23a9662efc9c229c6a008054600160401b810460ff16159067ffffffffffffffff165f8115801561035a5750825b90505f8267ffffffffffffffff1660011480156103765750303b155b905081158015610384575080155b156103a25760405163f92ee8a960e01b815260040160405180910390fd5b845467ffffffffffffffff1916600117855583156103cc57845460ff60401b1916600160401b1785555b6103d4610580565b6103dc61058a565b6103e65f3361059a565b506103fe5f80516020610c298339815191523361059a565b50831561044557845460ff60401b19168555604051600181527fc7f505b2f371ae2175ee4913f4499e1f2633a7b5936321eed1cdaeb6115181d29060200160405180910390a15b5050505050505050505050505050565b5f5f80516020610c2983398151915261046d8161063b565b50505f546001600160a01b0316949350505050565b5f9081525f80516020610c49833981519152602052604090206001015490565b6104ab82610482565b6104b48161063b565b6104be838361059a565b50505050565b6001600160a01b03811633146104ed5760405163334bd91960e11b815260040160405180910390fd5b6104f78282610645565b505050565b5f6105056106be565b5f80516020610c2983398151915261051c8161063b565b50506001549998505050505050505050565b5f9182525f80516020610c49833981519152602090815260408084206001600160a01b0393909316845291905290205460ff1690565b61056d82610482565b6105768161063b565b6104be8383610645565b610588610701565b565b610592610701565b61058861074a565b5f5f80516020610c498339815191526105b3848461052e565b610632575f848152602082815260408083206001600160a01b03871684529091529020805460ff191660011790556105e83390565b6001600160a01b0316836001600160a01b0316857f2f8788117e7eff1d82e926ec794901d17c78024a50270940304540a733656f0d60405160405180910390a4600191505061030f565b5f91505061030f565b6101b7813361077d565b5f5f80516020610c4983398151915261065e848461052e565b15610632575f848152602082815260408083206001600160a01b0387168085529252808320805460ff1916905551339287917ff6391f5c32d9c69d2a47ea670b442974b53935d1edc7fd64eb21e047a839171b9190a4600191505061030f565b7fcd5ed15c6e187e77e9aee88184c21f4f2182ab5827cb3b7e07fbedcd63f033005460ff16156105885760405163d93c066560e01b815260040160405180910390fd5b7ff0c57e16840df040f15088dc2f81fe391c3923bec73e23a9662efc9c229c6a0054600160401b900460ff1661058857604051631afcd79f60e31b815260040160405180910390fd5b610752610701565b7fcd5ed15c6e187e77e9aee88184c21f4f2182ab5827cb3b7e07fbedcd63f03300805460ff19169055565b610787828261052e565b6107ba5760405163e2517d3f60e01b81526001600160a01b03821660048201526024810183905260440160405180910390fd5b5050565b5f602082840312156107ce575f80fd5b81356001600160e01b0319811681146107e5575f80fd5b9392505050565b80356001600160a01b0381168114610802575f80fd5b919050565b5f805f805f805f805f6101208a8c031215610820575f80fd5b6108298a6107ec565b985061083760208b016107ec565b975061084560408b016107ec565b965061085360608b016107ec565b955061086160808b016107ec565b945061086f60a08b016107ec565b935060c08a0135925061088460e08b016107ec565b91506101008a013590509295985092959850929598565b5f805f80608085870312156108ae575f80fd5b8435935060208501359250604085013591506108cc606086016107ec565b905092959194509250565b5f602082840312156108e7575f80fd5b5035919050565b5f80604083850312156108ff575f80fd5b8235915061090f602084016107ec565b90509250929050565b634e487b7160e01b5f52604160045260245ffd5b604051601f8201601f1916810167ffffffffffffffff8111828210171561095557610955610918565b604052919050565b5f82601f83011261096c575f80fd5b813567ffffffffffffffff81111561098657610986610918565b610999601f8201601f191660200161092c565b8181528460208386010111156109ad575f80fd5b816020850160208301375f918101602001919091529392505050565b5f82601f8301126109d8575f80fd5b8135602067ffffffffffffffff8211156109f4576109f4610918565b8160051b610a0382820161092c565b9283528481018201928281019087851115610a1c575f80fd5b83870192505b84831015610a4957823560ff81168114610a3a575f80fd5b82529183019190830190610a22565b979650505050505050565b803563ffffffff81168114610802575f80fd5b5f805f805f805f805f6101208a8c031215610a80575f80fd5b893567ffffffffffffffff80821115610a97575f80fd5b610aa38d838e0161095d565b9a5060208c0135915080821115610ab8575f80fd5b610ac48d838e0161095d565b995060408c0135915080821115610ad9575f80fd5b50610ae68c828d016109c9565b97505060608a01359550610afc60808b016107ec565b9450610b0a60a08b01610a54565b935060c08a0135925060e08a01359150610b276101008b016107ec565b90509295985092959850929598565b5f805f805f805f80610100898b031215610b4e575f80fd5b883567ffffffffffffffff80821115610b65575f80fd5b610b718c838d0161095d565b995060208b0135915080821115610b86575f80fd5b610b928c838d0161095d565b985060408b0135915080821115610ba7575f80fd5b610bb38c838d0161095d565b975060608b0135915080821115610bc8575f80fd5b50610bd58b828c016109c9565b95505060808901359350610beb60a08a016107ec565b9250610bf960c08a01610a54565b915060e089013590509295985092959890939650565b5f60208284031215610c1f575f80fd5b6107e5826107ec56fe360f1ba4dc07a42c6671063d838f69946ccc4187f391399e06fd8ed4605900f302dd7bc7dec4dceedda775e58dd541e08a116c6c53815c0bd028192f7b626800a26469706673582212209557ab311f74275af9fd15e6431a48f3c23111c953ed436a39366697e2a2555364736f6c63430008160033","linkReferences":{}},"methodIdentifiers":{"BONDING_ROLE()":"3094afb3","DEFAULT_ADMIN_ROLE()":"a217fddf","executeBondingCurveApplication(uint256,uint256,uint256,address)":"23c31596","getRoleAdmin(bytes32)":"248a9ca3","grantRole(bytes32,address)":"2f2ff15d","hasRole(bytes32,address)":"91d14854","initFromBondingCurve(string,string,uint8[],bytes32,address,uint32,uint256,uint256,address)":"3fa2da7e","initialize(address,address,address,address,address,address,uint256,address,uint256)":"0f07646a","mockAgentToken()":"6dee767c","mockId()":"774519c6","paused()":"5c975abb","proposeAgent(string,string,string,uint8[],bytes32,address,uint32,uint256)":"9e4ec30a","renounceRole(bytes32,address)":"36568abe","revokeRole(bytes32,address)":"d547741f","setMockAgentToken(address)":"e8730541","setMockId(uint256)":"a12e9b88","supportsInterface(bytes4)":"01ffc9a7","totalAgents()":"c5053712","withdraw(uint256)":"2e1a7d4d"},"id":24}