{"abi":[{"type":"constructor","inputs":[],"stateMutability":"nonpayable"},{"type":"function","name":"DEFAULT_ADMIN_ROLE","inputs":[],"outputs":[{"name":"","type":"bytes32","internalType":"bytes32"}],"stateMutability":"view"},{"type":"function","name":"WITHDRAW_ROLE","inputs":[],"outputs":[{"name":"","type":"bytes32","internalType":"bytes32"}],"stateMutability":"view"},{"type":"function","name":"allDAOs","inputs":[{"name":"","type":"uint256","internalType":"uint256"}],"outputs":[{"name":"","type":"address","internalType":"address"}],"stateMutability":"view"},{"type":"function","name":"allTokens","inputs":[{"name":"","type":"uint256","internalType":"uint256"}],"outputs":[{"name":"","type":"address","internalType":"address"}],"stateMutability":"view"},{"type":"function","name":"allTradingTokens","inputs":[{"name":"","type":"uint256","internalType":"uint256"}],"outputs":[{"name":"","type":"address","internalType":"address"}],"stateMutability":"view"},{"type":"function","name":"applicationThreshold","inputs":[],"outputs":[{"name":"","type":"uint256","internalType":"uint256"}],"stateMutability":"view"},{"type":"function","name":"assetToken","inputs":[],"outputs":[{"name":"","type":"address","internalType":"address"}],"stateMutability":"view"},{"type":"function","name":"daoImplementation","inputs":[],"outputs":[{"name":"","type":"address","internalType":"address"}],"stateMutability":"view"},{"type":"function","name":"defaultDelegatee","inputs":[],"outputs":[{"name":"","type":"address","internalType":"address"}],"stateMutability":"view"},{"type":"function","name":"executeApplication","inputs":[{"name":"id","type":"uint256","internalType":"uint256"},{"name":"canStake","type":"bool","internalType":"bool"}],"outputs":[],"stateMutability":"nonpayable"},{"type":"function","name":"executeTokenApplication","inputs":[{"name":"id","type":"uint256","internalType":"uint256"},{"name":"canStake","type":"bool","internalType":"bool"}],"outputs":[],"stateMutability":"nonpayable"},{"type":"function","name":"getApplication","inputs":[{"name":"proposalId","type":"uint256","internalType":"uint256"}],"outputs":[{"name":"","type":"tuple","internalType":"struct AgentFactoryV4.Application","components":[{"name":"name","type":"string","internalType":"string"},{"name":"symbol","type":"string","internalType":"string"},{"name":"tokenURI","type":"string","internalType":"string"},{"name":"status","type":"uint8","internalType":"enum AgentFactoryV4.ApplicationStatus"},{"name":"withdrawableAmount","type":"uint256","internalType":"uint256"},{"name":"proposer","type":"address","internalType":"address"},{"name":"cores","type":"uint8[]","internalType":"uint8[]"},{"name":"proposalEndBlock","type":"uint256","internalType":"uint256"},{"name":"virtualId","type":"uint256","internalType":"uint256"},{"name":"tbaSalt","type":"bytes32","internalType":"bytes32"},{"name":"tbaImplementation","type":"address","internalType":"address"},{"name":"daoVotingPeriod","type":"uint32","internalType":"uint32"},{"name":"daoThreshold","type":"uint256","internalType":"uint256"}]}],"stateMutability":"view"},{"type":"function","name":"getRoleAdmin","inputs":[{"name":"role","type":"bytes32","internalType":"bytes32"}],"outputs":[{"name":"","type":"bytes32","internalType":"bytes32"}],"stateMutability":"view"},{"type":"function","name":"getTokenApplication","inputs":[{"name":"tokenAddr","type":"address","internalType":"address"}],"outputs":[{"name":"","type":"uint256","internalType":"uint256"}],"stateMutability":"view"},{"type":"function","name":"grantRole","inputs":[{"name":"role","type":"bytes32","internalType":"bytes32"},{"name":"account","type":"address","internalType":"address"}],"outputs":[],"stateMutability":"nonpayable"},{"type":"function","name":"hasRole","inputs":[{"name":"role","type":"bytes32","internalType":"bytes32"},{"name":"account","type":"address","internalType":"address"}],"outputs":[{"name":"","type":"bool","internalType":"bool"}],"stateMutability":"view"},{"type":"function","name":"initFromToken","inputs":[{"name":"tokenAddr","type":"address","internalType":"address"},{"name":"cores","type":"uint8[]","internalType":"uint8[]"},{"name":"tbaSalt","type":"bytes32","internalType":"bytes32"},{"name":"tbaImplementation","type":"address","internalType":"address"},{"name":"daoVotingPeriod","type":"uint32","internalType":"uint32"},{"name":"daoThreshold","type":"uint256","internalType":"uint256"},{"name":"initialLP","type":"uint256","internalType":"uint256"}],"outputs":[{"name":"","type":"uint256","internalType":"uint256"}],"stateMutability":"nonpayable"},{"type":"function","name":"initialize","inputs":[{"name":"tokenImplementation_","type":"address","internalType":"address"},{"name":"veTokenImplementation_","type":"address","internalType":"address"},{"name":"daoImplementation_","type":"address","internalType":"address"},{"name":"tbaRegistry_","type":"address","internalType":"address"},{"name":"assetToken_","type":"address","internalType":"address"},{"name":"nft_","type":"address","internalType":"address"},{"name":"applicationThreshold_","type":"uint256","internalType":"uint256"},{"name":"vault_","type":"address","internalType":"address"},{"name":"nextId_","type":"uint256","internalType":"uint256"}],"outputs":[],"stateMutability":"nonpayable"},{"type":"function","name":"isCompatibleToken","inputs":[{"name":"tokenAddr","type":"address","internalType":"address"}],"outputs":[{"name":"","type":"bool","internalType":"bool"}],"stateMutability":"view"},{"type":"function","name":"maturityDuration","inputs":[],"outputs":[{"name":"","type":"uint256","internalType":"uint256"}],"stateMutability":"view"},{"type":"function","name":"nft","inputs":[],"outputs":[{"name":"","type":"address","internalType":"address"}],"stateMutability":"view"},{"type":"function","name":"pause","inputs":[],"outputs":[],"stateMutability":"nonpayable"},{"type":"function","name":"paused","inputs":[],"outputs":[{"name":"","type":"bool","internalType":"bool"}],"stateMutability":"view"},{"type":"function","name":"proposeAgent","inputs":[{"name":"name","type":"string","internalType":"string"},{"name":"symbol","type":"string","internalType":"string"},{"name":"tokenURI","type":"string","internalType":"string"},{"name":"cores","type":"uint8[]","internalType":"uint8[]"},{"name":"tbaSalt","type":"bytes32","internalType":"bytes32"},{"name":"tbaImplementation","type":"address","internalType":"address"},{"name":"daoVotingPeriod","type":"uint32","internalType":"uint32"},{"name":"daoThreshold","type":"uint256","internalType":"uint256"}],"outputs":[{"name":"","type":"uint256","internalType":"uint256"}],"stateMutability":"nonpayable"},{"type":"function","name":"renounceRole","inputs":[{"name":"role","type":"bytes32","internalType":"bytes32"},{"name":"callerConfirmation","type":"address","internalType":"address"}],"outputs":[],"stateMutability":"nonpayable"},{"type":"function","name":"revokeRole","inputs":[{"name":"role","type":"bytes32","internalType":"bytes32"},{"name":"account","type":"address","internalType":"address"}],"outputs":[],"stateMutability":"nonpayable"},{"type":"function","name":"setApplicationThreshold","inputs":[{"name":"newThreshold","type":"uint256","internalType":"uint256"}],"outputs":[],"stateMutability":"nonpayable"},{"type":"function","name":"setAssetToken","inputs":[{"name":"newToken","type":"address","internalType":"address"}],"outputs":[],"stateMutability":"nonpayable"},{"type":"function","name":"setDefaultDelegatee","inputs":[{"name":"newDelegatee","type":"address","internalType":"address"}],"outputs":[],"stateMutability":"nonpayable"},{"type":"function","name":"setImplementations","inputs":[{"name":"token","type":"address","internalType":"address"},{"name":"veToken","type":"address","internalType":"address"},{"name":"dao","type":"address","internalType":"address"}],"outputs":[],"stateMutability":"nonpayable"},{"type":"function","name":"setMaturityDuration","inputs":[{"name":"newDuration","type":"uint256","internalType":"uint256"}],"outputs":[],"stateMutability":"nonpayable"},{"type":"function","name":"setTokenAdmin","inputs":[{"name":"newTokenAdmin","type":"address","internalType":"address"}],"outputs":[],"stateMutability":"nonpayable"},{"type":"function","name":"setTokenSupplyParams","inputs":[{"name":"maxSupply","type":"uint256","internalType":"uint256"},{"name":"lpSupply","type":"uint256","internalType":"uint256"},{"name":"vaultSupply","type":"uint256","internalType":"uint256"},{"name":"maxTokensPerWallet","type":"uint256","internalType":"uint256"},{"name":"maxTokensPerTxn","type":"uint256","internalType":"uint256"},{"name":"botProtectionDurationInSeconds","type":"uint256","internalType":"uint256"},{"name":"vault","type":"address","internalType":"address"}],"outputs":[],"stateMutability":"nonpayable"},{"type":"function","name":"setTokenTaxParams","inputs":[{"name":"projectBuyTaxBasisPoints","type":"uint256","internalType":"uint256"},{"name":"projectSellTaxBasisPoints","type":"uint256","internalType":"uint256"},{"name":"taxSwapThresholdBasisPoints","type":"uint256","internalType":"uint256"},{"name":"projectTaxRecipient","type":"address","internalType":"address"}],"outputs":[],"stateMutability":"nonpayable"},{"type":"function","name":"setUniswapRouter","inputs":[{"name":"router","type":"address","internalType":"address"}],"outputs":[],"stateMutability":"nonpayable"},{"type":"function","name":"setVault","inputs":[{"name":"newVault","type":"address","internalType":"address"}],"outputs":[],"stateMutability":"nonpayable"},{"type":"function","name":"supportsInterface","inputs":[{"name":"interfaceId","type":"bytes4","internalType":"bytes4"}],"outputs":[{"name":"","type":"bool","internalType":"bool"}],"stateMutability":"view"},{"type":"function","name":"tbaRegistry","inputs":[],"outputs":[{"name":"","type":"address","internalType":"address"}],"stateMutability":"view"},{"type":"function","name":"tokenImplementation","inputs":[],"outputs":[{"name":"","type":"address","internalType":"address"}],"stateMutability":"view"},{"type":"function","name":"totalAgents","inputs":[],"outputs":[{"name":"","type":"uint256","internalType":"uint256"}],"stateMutability":"view"},{"type":"function","name":"unpause","inputs":[],"outputs":[],"stateMutability":"nonpayable"},{"type":"function","name":"veTokenImplementation","inputs":[],"outputs":[{"name":"","type":"address","internalType":"address"}],"stateMutability":"view"},{"type":"function","name":"withdraw","inputs":[{"name":"id","type":"uint256","internalType":"uint256"}],"outputs":[],"stateMutability":"nonpayable"},{"type":"event","name":"ApplicationThresholdUpdated","inputs":[{"name":"newThreshold","type":"uint256","indexed":false,"internalType":"uint256"}],"anonymous":false},{"type":"event","name":"GovUpdated","inputs":[{"name":"newGov","type":"address","indexed":false,"internalType":"address"}],"anonymous":false},{"type":"event","name":"ImplContractsUpdated","inputs":[{"name":"token","type":"address","indexed":false,"internalType":"address"},{"name":"dao","type":"address","indexed":false,"internalType":"address"}],"anonymous":false},{"type":"event","name":"Initialized","inputs":[{"name":"version","type":"uint64","indexed":false,"internalType":"uint64"}],"anonymous":false},{"type":"event","name":"NewApplication","inputs":[{"name":"id","type":"uint256","indexed":false,"internalType":"uint256"}],"anonymous":false},{"type":"event","name":"NewPersona","inputs":[{"name":"virtualId","type":"uint256","indexed":false,"internalType":"uint256"},{"name":"token","type":"address","indexed":false,"internalType":"address"},{"name":"dao","type":"address","indexed":false,"internalType":"address"},{"name":"tba","type":"address","indexed":false,"internalType":"address"},{"name":"veToken","type":"address","indexed":false,"internalType":"address"},{"name":"lp","type":"address","indexed":false,"internalType":"address"}],"anonymous":false},{"type":"event","name":"Paused","inputs":[{"name":"account","type":"address","indexed":false,"internalType":"address"}],"anonymous":false},{"type":"event","name":"RoleAdminChanged","inputs":[{"name":"role","type":"bytes32","indexed":true,"internalType":"bytes32"},{"name":"previousAdminRole","type":"bytes32","indexed":true,"internalType":"bytes32"},{"name":"newAdminRole","type":"bytes32","indexed":true,"internalType":"bytes32"}],"anonymous":false},{"type":"event","name":"RoleGranted","inputs":[{"name":"role","type":"bytes32","indexed":true,"internalType":"bytes32"},{"name":"account","type":"address","indexed":true,"internalType":"address"},{"name":"sender","type":"address","indexed":true,"internalType":"address"}],"anonymous":false},{"type":"event","name":"RoleRevoked","inputs":[{"name":"role","type":"bytes32","indexed":true,"internalType":"bytes32"},{"name":"account","type":"address","indexed":true,"internalType":"address"},{"name":"sender","type":"address","indexed":true,"internalType":"address"}],"anonymous":false},{"type":"event","name":"Unpaused","inputs":[{"name":"account","type":"address","indexed":false,"internalType":"address"}],"anonymous":false},{"type":"error","name":"AccessControlBadConfirmation","inputs":[]},{"type":"error","name":"AccessControlUnauthorizedAccount","inputs":[{"name":"account","type":"address","internalType":"address"},{"name":"neededRole","type":"bytes32","internalType":"bytes32"}]},{"type":"error","name":"AddressEmptyCode","inputs":[{"name":"target","type":"address","internalType":"address"}]},{"type":"error","name":"AddressInsufficientBalance","inputs":[{"name":"account","type":"address","internalType":"address"}]},{"type":"error","name":"ERC1167FailedCreateClone","inputs":[]},{"type":"error","name":"EnforcedPause","inputs":[]},{"type":"error","name":"ExpectedPause","inputs":[]},{"type":"error","name":"FailedInnerCall","inputs":[]},{"type":"error","name":"InvalidInitialization","inputs":[]},{"type":"error","name":"NotInitializing","inputs":[]},{"type":"error","name":"SafeERC20FailedOperation","inputs":[{"name":"token","type":"address","internalType":"address"}]}],"bytecode":{"object":"0x60808060405234620000bd577ff0c57e16840df040f15088dc2f81fe391c3923bec73e23a9662efc9c229c6a009081549060ff8260401c16620000ae57506001600160401b036002600160401b03198282160162000068575b604051614cc39081620000c28239f35b6001600160401b031990911681179091556040519081527fc7f505b2f371ae2175ee4913f4499e1f2633a7b5936321eed1cdaeb6115181d290602090a15f808062000058565b63f92ee8a960e01b8152600490fd5b5f80fdfe6080806040526004361015610012575f80fd5b5f3560e01c90816301ffc9a7146129e457508063063513b7146129c75780630c4cb55c1461299f5780630f07646a146127a85780631083f761146127805780631bbb8689146127485780631f2f4bfd14611f23578063248a9ca314611ef757806326bde5aa14611eb45780632a7d4a1f14611d0b5780632e1a7d4d14611b195780632f2ff15d14611add5780632f3a3d5d14611ab557806336568abe14611a6e5780633f4ba83a146119f9578063449664c0146119cc578063468d198d146119a457806347ccca021461197c5780634c88672a146118765780635c975abb146118485780635ca3cedf146116b2578063634282af146116585780636817031b146116155780638456cb59146115b057806391d14854146115685780639300d238146114fe5780639cbe0bac146114d65780639d699326146114ae5780639d7b68421461146b5780639e4ec30a14610dbe578063a217fddf14610da4578063aa3d000a14610ce0578063b4136bd814610c86578063bd1cf25814610c3a578063bea9849e14610bf7578063c505371214610bda578063d547741f14610b9c578063d739ac2914610b7b578063ddf4427514610b5e578063e02023a114610b24578063e887b1cc14610aca578063f745759414610a875763fc98f079146101f5575f80fd5b346109d45760e03660031901126109d45761020e612a37565b6024356001600160401b0381116109d45761022d903690600401612c08565b610235612a79565b60843563ffffffff811681036109d45760c435610250614a57565b6001600160a01b0385165f81815260146020526040902054909590610a4b5761027890612f79565b15610a12576009546040516370a0823160e01b81523360048201526001600160a01b0390911690602081602481855afa908115610938575f916109e0575b506102c6600654809210156130b7565b604051636eb1769f60e11b815233600482015230602482015291602090839060449082905afa8015610938575f906109a8575b61030592501015613103565b6103118451151561315a565b80156109645761032390303387614a81565b60095460065461033f91309033906001600160a01b0316614a81565b6001549161034c8361319f565b600155845f5260146020528260405f2055825f52601560205260405f20856001600160601b0360a01b825416179055604051936306fdde0360e01b85525f85600481895afa948515610938575f95610943575b505f6004949596604051958680926395d89b4160e01b82525afa938415610938575f94610914575b5060065493604051966103d988612b0a565b87526020870152604051938460208101106001600160401b036020870111176107a65784602063ffffffff96016040525f815260408801525f606088015260808701523360a087015260c08601524360e08601525f61010086015260443561012086015260018060a01b03166101408501521661016083015260a435610180830152805f52600b60205260405f2082519283516001600160401b0381116107a65761048e816104888554612c72565b85612e02565b6020601f82116001146108af5781906104bf939495965f926107ce575b50508160011b915f199060031b1c19161790565b82555b60208101519283516001600160401b0381116107a6576104f2816104e96001870154612c72565b60018701612e02565b6020601f8211600114610844578190610522939495965f926107ce5750508160011b915f199060031b1c19161790565b60018401555b60408201519283516001600160401b0381116107a6576105588161054f6002850154612c72565b60028501612e02565b6020601f82116001146107d9578190610588939495965f926107ce5750508160011b915f199060031b1c19161790565b60028201555b606083015160038110156107ba576105a99060038301612f00565b608083015160048201556005810160018060a01b0360a0850151166001600160601b0360a01b825416179055600681019260c08101518051906001600160401b0382116107a657600160401b82116107a657602090865483885580841061075d575b5001945f5260205f20905f5b8160051c811061071e5750601f1981168082036106c7575b60208686600b6101808860e0810151600785015561010081015160088501556101208101516009850155600a840160018060a01b036101408301511681549063ffffffff60a01b61016085015160a01b16916001600160401b0360c01b161717905501519101557f0ff47c4a3dc48719ecfd1876116e80d7d76ec7cb67248ae49449f9104747af2982604051838152a1604051908152f35b955f965f5b81840381106106ee5750505060051c0193909355602092610180600b5f61062f565b90919760206107146001928460ff8d5116919060ff809160031b9316831b921b19161790565b99019291016106cc565b5f805b60208110610736575083820155600101610617565b885190989160019160209160ff60038d901b81811b199092169216901b1792019801610721565b61078790885f52835f20601f80870160051c8201928188168061078d575b500160051c0190612dec565b5f61060b565b5f1990818601918254918a0360031b1c1690555f61077b565b634e487b7160e01b5f52604160045260245ffd5b634e487b7160e01b5f52602160045260245ffd5b015190505f806104ab565b600283015f5260205f20905f5b601f198416811061082c575060019394959683601f19811610610814575b505050811b01600282015561058e565b01515f1960f88460031b161c191690555f8080610804565b9091602060018192858b0151815501930191016107e6565b600185015f5260205f20905f5b601f1984168110610897575060019394959683601f1981161061087f575b505050811b016001840155610528565b01515f1960f88460031b161c191690555f808061086f565b9091602060018192858b015181550193019101610851565b835f5260205f20905f5b601f19841681106108fc575060019394959683601f198116106108e4575b505050811b0182556104c2565b01515f1960f88460031b161c191690555f80806108d7565b9091602060018192858b0151815501930191016108b9565b6109319194503d805f833e6109298183612b6f565b810190612f18565b925f6103c7565b6040513d5f823e3d90fd5b600494955061095c5f913d8084833e6109298183612b6f565b95945061039f565b606460405162461bcd60e51b815260206004820152602060248201527f496e697469616c4c50206d7573742062652067726561746572207468616e20306044820152fd5b506020823d6020116109d8575b816109c260209383612b6f565b810103126109d45761030591516102f9565b5f80fd5b3d91506109b5565b90506020813d602011610a0a575b816109fb60209383612b6f565b810103126109d457515f6102b6565b3d91506109ee565b60405162461bcd60e51b81526020600482015260116024820152702ab739bab83837b93a32b2103a37b5b2b760791b6044820152606490fd5b60405162461bcd60e51b8152602060048201526014602482015273546f6b656e20616c72656164792065786973747360601b6044820152606490fd5b346109d45760203660031901126109d457610aa0612a37565b610aa86132e2565b601080546001600160a01b0319166001600160a01b0392909216919091179055005b346109d45760203660031901126109d457600435600d548110156109d457600d5f527fd7b6990105719101dabeb77144f2a3385c8033acd3af97e9423a695e81ad1eb501546040516001600160a01b039091168152602090f35b346109d4575f3660031901126109d45760206040517f5d8e12c39142ff96d79d04d15d1ba1269e4fe57bb9d26f43523628b34ba108ec8152f35b346109d4575f3660031901126109d4576020600654604051908152f35b346109d45760203660031901126109d457610b946132e2565b600435600a55005b346109d45760403660031901126109d457610bd8600435610bbb612a4d565b90805f525f602052610bd3600160405f200154613338565b6133b8565b005b346109d4575f3660031901126109d4576020600754604051908152f35b346109d45760203660031901126109d457610c10612a37565b610c186132e2565b600e80546001600160a01b0319166001600160a01b0392909216919091179055005b346109d45760203660031901126109d4577fcfa33021ab0175831433b2f3bd8eeb24a22f5ae53ca0e660a246811754f9e34a6020600435610c796132e2565b80600655604051908152a1005b346109d45760203660031901126109d4576004356008548110156109d45760085f527ff3f7a9fe364faab93b216da50a3214154f22a0a2b415b23a84c8169e8b636ee301546040516001600160a01b039091168152602090f35b346109d457610d62610cf136612aeb565b9190600c5492610d0760ff8560a01c1615612e3c565b600160a01b60ff60a01b1994851617600c555f828152600b60205260409020600501546001600160a01b031633148015610d6d575b610d4590612e79565b60405191610d5d83610d5681612caa565b0384612b6f565b6134d5565b600c5416600c555f80f35b50335f9081527f20be27040b8e00df40bca0df34743417f3574a156386188f7d7f14369e5ee82b602052604090205460ff16610d3c565b346109d4575f3660031901126109d45760206040515f8152f35b346109d4576101003660031901126109d4576004356001600160401b0381116109d457610def903690600401612bab565b6024356001600160401b0381116109d457610e0e903690600401612bab565b6044356001600160401b0381116109d457610e2d903690600401612bab565b906064356001600160401b0381116109d457610e4d903690600401612c08565b610e55612a8f565b60c4359163ffffffff831683036109d457610e6e614a57565b6009546040516370a0823160e01b81523360048201526001600160a01b039091169490602081602481895afa908115610938575f91611439575b50610eb8600654809210156130b7565b604051636eb1769f60e11b81523360048201523060248201526020816044818a5afa908115610938575f91611401575b509063ffffffff96610eff82610f14941015613103565b610f0b8551151561315a565b30903390614a81565b60015495610f218761319f565b6001556006549160405198610f358a612b0a565b8952602089015260408801525f606088015260808701523360a087015260c08601524360e08601525f61010086015260843561012086015260018060a01b03166101408501521661016083015260e435610180830152805f52600b60205260405f2082519283516001600160401b0381116107a657610fb8816104888554612c72565b6020601f821160011461139c578190610fe8939495965f926112bb5750508160011b915f199060031b1c19161790565b82555b60208101519283516001600160401b0381116107a657611012816104e96001870154612c72565b6020601f8211600114611331578190611042939495965f926112bb5750508160011b915f199060031b1c19161790565b60018401555b60408201519283516001600160401b0381116107a65761106f8161054f6002850154612c72565b6020601f82116001146112c657819061109f939495965f926112bb5750508160011b915f199060031b1c19161790565b60028201555b606083015160038110156107ba576110c09060038301612f00565b608083015160048201556005810160018060a01b0360a0850151166001600160601b0360a01b825416179055600681019260c08101518051906001600160401b0382116107a657600160401b82116107a6576020908654838855808410611273575b5001945f5260205f20905f5b8160051c81106112345750601f1981168082036111dd5760208686600b6101808860e0810151600785015561010081015160088501556101208101516009850155600a840160018060a01b036101408301511681549063ffffffff60a01b61016085015160a01b16916001600160401b0360c01b161717905501519101557f0ff47c4a3dc48719ecfd1876116e80d7d76ec7cb67248ae49449f9104747af2982604051838152a1604051908152f35b955f965f5b81840381106112045750505060051c0193909355602092610180600b8661062f565b909197602061122a6001928460ff8d5116919060ff809160031b9316831b921b19161790565b99019291016111e2565b5f805b6020811061124c57508382015560010161112e565b885190989160019160209160ff60038d901b81811b199092169216901b1792019801611237565b61129c90885f52835f20601f80870160051c820192818816806112a257500160051c0190612dec565b87611122565b5f1990818601918254918a0360031b1c1690558c61077b565b0151905086806104ab565b600283015f5260205f20905f5b601f1984168110611319575060019394959683601f19811610611301575b505050811b0160028201556110a5565b01515f1960f88460031b161c191690558580806112f1565b9091602060018192858b0151815501930191016112d3565b600185015f5260205f20905f5b601f1984168110611384575060019394959683601f1981161061136c575b505050811b016001840155611048565b01515f1960f88460031b161c1916905585808061135c565b9091602060018192858b01518155019301910161133e565b835f5260205f20905f5b601f19841681106113e9575060019394959683601f198116106113d1575b505050811b018255610feb565b01515f1960f88460031b161c191690558580806113c4565b9091602060018192858b0151815501930191016113a6565b9190506020823d602011611431575b8161141d60209383612b6f565b810103126109d457905163ffffffff610ee8565b3d9150611410565b90506020813d602011611463575b8161145460209383612b6f565b810103126109d4575188610ea8565b3d9150611447565b346109d45760203660031901126109d457611484612a37565b61148c6132e2565b601180546001600160a01b0319166001600160a01b0392909216919091179055005b346109d4575f3660031901126109d4576003546040516001600160a01b039091168152602090f35b346109d4575f3660031901126109d457600f546040516001600160a01b039091168152602090f35b346109d45760603660031901126109d457611517612a37565b61151f612a4d565b611527612a63565b906115306132e2565b60018060a01b038092816001600160601b0360a01b9516856002541617600255168360035416176003551690600f541617600f555f80f35b346109d45760403660031901126109d457611581612a4d565b6004355f525f60205260405f209060018060a01b03165f52602052602060ff60405f2054166040519015158152f35b346109d4575f3660031901126109d4576115c86132e2565b6115d0614a57565b5f80516020614c6e833981519152600160ff198254161790557f62e78cea01bee320cd4e420270b5ea74000d11b0c9f74754ebdbfc544b05a2586020604051338152a1005b346109d45760203660031901126109d45761162e612a37565b6116366132e2565b600c80546001600160a01b0319166001600160a01b0392909216919091179055005b346109d45760203660031901126109d4576004356007548110156109d45760075f527fa66cc928b5edb82af9bd49922954155ab7b0942694bea4ce44661d9a8736c68801546040516001600160a01b039091168152602090f35b346109d45760803660031901126109d4576116cb612a79565b6116d36132e2565b6040519060209060043560208401526024356040840152604435606084015260018060a01b031660808301526080825261170c82612b39565b8151906001600160401b0382116107a657611728601354612c72565b601f81116117ef575b50602090601f831160011461177157508190611761935f926117665750508160011b915f199060031b1c19161790565b601355005b0151905083806104ab565b90601f1983169360135f527f66de8ffda797e3de9c05e8fc57b3bf0ec28a930d40b0d285d93c06501cf6a090925f905b8682106117d757505083600195106117bf575b505050811b01601355005b01515f1960f88460031b161c191690558280806117b4565b806001859682949686015181550195019301906117a1565b6118389060135f527f66de8ffda797e3de9c05e8fc57b3bf0ec28a930d40b0d285d93c06501cf6a090601f850160051c8101916020861061183e575b601f0160051c0190612dec565b83611731565b909150819061182b565b346109d4575f3660031901126109d457602060ff5f80516020614c6e83398151915254166040519015158152f35b346109d45761188436612aeb565b600c549161189860ff8460a01c1615612e3c565b600160a01b60ff60a01b1993841617600c555f818152600b60205260409020600501546001600160a01b0390811633148015611945575b6118d890612e79565b815f52601560205260405f2054161561190057610d629160405191610d5d83610d5681612caa565b60405162461bcd60e51b815260206004820152601c60248201527f4e6f7420637573746f6d20746f6b656e206170706c69636174696f6e000000006044820152606490fd5b50335f9081527f20be27040b8e00df40bca0df34743417f3574a156386188f7d7f14369e5ee82b602052604090205460ff166118cf565b346109d4575f3660031901126109d4576004546040516001600160a01b039091168152602090f35b346109d4575f3660031901126109d4576005546040516001600160a01b039091168152602090f35b346109d45760203660031901126109d45760206119ef6119ea612a37565b612f79565b6040519015158152f35b346109d4575f3660031901126109d457611a116132e2565b5f80516020614c6e833981519152805460ff811615611a5c5760ff191690557f5db9ee0a495bf2e6ff9c91a7834c1ba4fdd244a5e8aa4e537bd38aeae4b073aa6020604051338152a1005b604051638dfc202b60e01b8152600490fd5b346109d45760403660031901126109d457611a87612a4d565b336001600160a01b03821603611aa357610bd8906004356133b8565b60405163334bd91960e11b8152600490fd5b346109d4575f3660031901126109d4576002546040516001600160a01b039091168152602090f35b346109d45760403660031901126109d457610bd8600435611afc612a4d565b90805f525f602052611b14600160405f200154613338565b613266565b346109d4576020806003193601126109d457600435600c5491611b4260ff8460a01c1615612e3c565b60ff60a01b19928316600160a01b17600c555f828152600b8252604090206005810180549093916001600160a01b039182163381148015611ccd575b611b8790612e79565b6003820180549260ff841660038110156107ba57611ba59015612eb4565b6007810154431115611c88579060026004611bd495949301935f8554955560ff19161790558360095416613377565b815f52601583528060405f2054169384611bf3575b600c805487169055005b5416926040516370a0823160e01b81523060048201528381602481855afa908115610938575f91611c5a575b50611c2d9060159583613377565b5f52601482525f60408120555f525260405f206001600160601b0360a01b81541690558180808080611be9565b90508381813d8311611c81575b611c718183612b6f565b810103126109d457516015611c1f565b503d611c67565b60405162461bcd60e51b815260048101889052601e60248201527f4170706c69636174696f6e206973206e6f74206d6174757265642079657400006044820152606490fd5b507f5d8e12c39142ff96d79d04d15d1ba1269e4fe57bb9d26f43523628b34ba108ec5f9081528086526040808220338352875290205460ff16611b7e565b346109d45760e03660031901126109d45760c4356001600160a01b038116908190036109d457611d396132e2565b60405190602090600435602084015260243560408401526044356060840152606435608084015260843560a084015260a43560c084015260e083015260e082526101008201906001600160401b0391838110838211176107a65760405282519182116107a657611daa601254612c72565b601f8111611e66575b50602090601f8311600114611de857508190611de3935f926117665750508160011b915f199060031b1c19161790565b601255005b90601f1983169360125f527fbb8a6a4669ba250d26cd7a459eca9d215f8307e33aebe50379bc5a3617ec3444925f905b868210611e4e5750508360019510611e36575b505050811b01601255005b01515f1960f88460031b161c19169055828080611e2b565b80600185968294968601518155019501930190611e18565b611eae9060125f527fbb8a6a4669ba250d26cd7a459eca9d215f8307e33aebe50379bc5a3617ec3444601f850160051c8101916020861061183e57601f0160051c0190612dec565b83611db3565b346109d45760203660031901126109d457611ecd612a37565b611ed56132e2565b600980546001600160a01b0319166001600160a01b0392909216919091179055005b346109d45760203660031901126109d4576004355f525f6020526020600160405f200154604051908152f35b346109d45760203660031901126109d4575f610180604051611f4481612b0a565b6060815260606020820152606060408201528260608201528260808201528260a0820152606060c08201528260e08201528261010082015282610120820152826101408201528261016082015201526004355f52600b60205260405f20604051611fad81612b0a565b604051611fc581611fbe8186612d5b565b0382612b6f565b8152604051611fdb81611fbe8160018701612d5b565b6020820152604051611ff481611fbe8160028701612d5b565b604082015260ff60038301541660038110156107ba5760608201526004820154608082015260058201546001600160a01b031660a08201526040516006830180548083525f918252602080832090840195939291905b81601f8401106125a65795612167928492600b97985491818110612592575b81811061257b575b818110612564575b81811061254d575b818110612537575b818110612520575b818110612509575b8181106124f2575b8181106124db575b8181106124c4575b8181106124ad575b818110612496575b81811061247f575b818110612468575b818110612451575b81811061243a575b818110612423575b81811061240c575b8181106123f5575b8181106123de575b8181106123c7575b8181106123b0575b818110612399575b818110612382575b81811061236b575b818110612354575b81811061233d575b818110612326575b81811061230f575b8181106122f8575b8181106122e1575b106122d3575b500382612b6f565b60c0840152600781015460e08401526008810154610100840152600981015461012084015263ffffffff600a82015460018060a01b03811661014086015260a01c166101608401520154610180820152604051602081526122086121f26121dc84516101a060208601526101c0850190612ac6565b6020850151848203601f19016040860152612ac6565b6040840151838203601f19016060850152612ac6565b606083015160038110156107ba576080830152608083015160a083015260018060a01b0360a08401511660c083015260c083015190601f198382030160e0840152602080835192838152019201905f5b8181106122ba575050506101808360e08495015161010085015261010081015161012085015261012081015161014085015260018060a01b036101408201511661016085015263ffffffff610160820151168285015201516101a08301520390f35b825160ff16845260209384019390920191600101612258565b60f81c81526020018761215f565b92602060019160ff8560f01c168152019301612159565b92602060019160ff8560e81c168152019301612151565b92602060019160ff8560e01c168152019301612149565b92602060019160ff8560d81c168152019301612141565b92602060019160ff8560d01c168152019301612139565b92602060019160ff8560c81c168152019301612131565b92602060019160ff8560c01c168152019301612129565b92602060019160ff8560b81c168152019301612121565b92602060019160ff8560b01c168152019301612119565b92602060019160ff8560a81c168152019301612111565b92602060019160ff8560a01c168152019301612109565b92602060019160ff8560981c168152019301612101565b92602060019160ff8560901c1681520193016120f9565b92602060019160ff8560881c1681520193016120f1565b92602060019160ff8560801c1681520193016120e9565b92602060019160ff8560781c1681520193016120e1565b92602060019160ff8560701c1681520193016120d9565b92602060019160ff8560681c1681520193016120d1565b92602060019160ff8560601c1681520193016120c9565b92602060019160ff8560581c1681520193016120c1565b92602060019160ff8560501c1681520193016120b9565b92602060019160ff8560481c1681520193016120b1565b92602060019160ff8560401c1681520193016120a9565b92602060019160ff8560381c1681520193016120a1565b92602060019160ff8560301c168152019301612099565b92602060019160ff8560281c168152019301612091565b92602060019160ff85831c168152019301612089565b92602060019160ff8560181c168152019301612081565b92602060019160ff8560101c168152019301612079565b92602060019160ff8560081c168152019301612071565b92602060019160ff85168152019301612069565b956001610400602092895460ff8116825260ff8160081c168583015260ff8160101c16604083015260ff8160181c16606083015260ff81861c16608083015260ff8160281c1660a083015260ff8160301c1660c083015260ff8160381c1660e083015260ff8160401c1661010083015260ff8160481c1661012083015260ff8160501c1661014083015260ff8160581c1661016083015260ff8160601c1661018083015260ff8160681c166101a083015260ff8160701c166101c083015260ff8160781c166101e083015260ff8160801c1661020083015260ff8160881c1661022083015260ff8160901c1661024083015260ff8160981c1661026083015260ff8160a01c1661028083015260ff8160a81c166102a083015260ff8160b01c166102c083015260ff8160b81c166102e083015260ff8160c01c1661030083015260ff8160c81c1661032083015260ff8160d01c1661034083015260ff8160d81c1661036083015260ff8160e01c1661038083015260ff8160e81c166103a083015260ff8160f01c166103c083015260f81c6103e082015201970192019161204a565b346109d45760203660031901126109d4576001600160a01b03612769612a37565b165f526014602052602060405f2054604051908152f35b346109d4575f3660031901126109d4576009546040516001600160a01b039091168152602090f35b346109d4576101203660031901126109d4576127c2612a37565b6127ca612a4d565b906127d3612a63565b906127dc612a79565b6001600160a01b0360843581811695929392908690036109d4576127fe612a8f565b9060e435948386168096036109d4577ff0c57e16840df040f15088dc2f81fe391c3923bec73e23a9662efc9c229c6a009788549260ff8460401c1615986001600160401b03851680159081612997575b600114908161298d575b159081612984575b506129725767ffffffffffffffff1985166001178b558694859283918c612953575b5061288b614ac3565b612893614ac3565b5f80516020614c6e83398151915260ff198154169055816001600160601b0360a01b9a168a60025416176002551688600f541617600f5516866003541617600355856009541617600955168360055416176005551681600454161760045560c43560065561010435600155612907336131c1565b50600c541617600c5561291657005b68ff00000000000000001981541690557fc7f505b2f371ae2175ee4913f4499e1f2633a7b5936321eed1cdaeb6115181d2602060405160018152a1005b68ffffffffffffffffff191668010000000000000001178d558d612882565b60405163f92ee8a960e01b8152600490fd5b9050158c612860565b303b159150612858565b8b915061284e565b346109d4575f3660031901126109d4576011546040516001600160a01b039091168152602090f35b346109d4575f3660031901126109d4576020600a54604051908152f35b346109d45760203660031901126109d4576004359063ffffffff60e01b82168092036109d457602091637965db0b60e01b8114908115612a26575b5015158152f35b6301ffc9a760e01b14905083612a1f565b600435906001600160a01b03821682036109d457565b602435906001600160a01b03821682036109d457565b604435906001600160a01b03821682036109d457565b606435906001600160a01b03821682036109d457565b60a435906001600160a01b03821682036109d457565b5f5b838110612ab65750505f910152565b8181015183820152602001612aa7565b90602091612adf81518092818552858086019101612aa5565b601f01601f1916010190565b60409060031901126109d4576004359060243580151581036109d45790565b6101a081019081106001600160401b038211176107a657604052565b6001600160401b0381116107a657604052565b60a081019081106001600160401b038211176107a657604052565b608081019081106001600160401b038211176107a657604052565b90601f801991011681019081106001600160401b038211176107a657604052565b6001600160401b0381116107a657601f01601f191660200190565b81601f820112156109d457803590612bc282612b90565b92612bd06040519485612b6f565b828452602083830101116109d457815f926020809301838601378301015290565b6001600160401b0381116107a65760051b60200190565b9080601f830112156109d4576020908235612c2281612bf1565b93612c306040519586612b6f565b81855260208086019260051b8201019283116109d457602001905b828210612c59575050505090565b813560ff811681036109d4578152908301908301612c4b565b90600182811c92168015612ca0575b6020831014612c8c57565b634e487b7160e01b5f52602260045260245ffd5b91607f1691612c81565b6012545f9291612cb982612c72565b80825291602090600190818116908115612d365750600114612cdc575b50505050565b9293945060125f527fbb8a6a4669ba250d26cd7a459eca9d215f8307e33aebe50379bc5a3617ec3444925f935b858510612d2357505050602092500101905f808080612cd6565b8054858501840152938201938101612d09565b92505050602093945060ff929192191683830152151560051b0101905f808080612cd6565b80545f9392612d6982612c72565b918282526020936001916001811690815f14612dcd5750600114612d8f575b5050505050565b90939495505f92919252835f2092845f945b838610612db957505050500101905f80808080612d88565b805485870183015294019385908201612da1565b60ff19168685015250505090151560051b010191505f80808080612d88565b818110612df7575050565b5f8155600101612dec565b9190601f8111612e1157505050565b612e3a925f5260205f20906020601f840160051c8301931061183e57601f0160051c0190612dec565b565b15612e4357565b60405162461bcd60e51b815260206004820152600e60248201526d31b0b73737ba103932b2b73a32b960911b6044820152606490fd5b15612e8057565b60405162461bcd60e51b815260206004820152600c60248201526b2737ba10383937b837b9b2b960a11b6044820152606490fd5b15612ebb57565b60405162461bcd60e51b815260206004820152601960248201527f4170706c69636174696f6e206973206e6f7420616374697665000000000000006044820152606490fd5b9060038110156107ba5760ff80198354169116179055565b6020818303126109d4578051906001600160401b0382116109d4570181601f820112156109d4578051612f4a81612b90565b92612f586040519485612b6f565b818452602082840101116109d457612f769160208085019101612aa5565b90565b6040516306fdde0360e01b81526001600160a01b0391909116905f81600481855afa908161309d575b50612fac57505f90565b6040516395d89b4160e01b81525f81600481855afa9081613083575b50612fd257505f90565b6040516318160ddd60e01b8152602090818082600481875afa918261305a575b5050612ffe5750505f90565b80602492604051938480926370a0823160e01b82523060048301525afa9182613031575b505061302c575f90565b600190565b813d8311613053575b6130448183612b6f565b810103126109d4575f80613022565b503d61303a565b813d831161307c575b61306d8183612b6f565b810103126109d457815f612ff2565b503d613063565b613096903d805f833e6109298183612b6f565b505f612fc8565b6130b0903d805f833e6109298183612b6f565b505f612fa2565b156130be57565b60405162461bcd60e51b815260206004820152601860248201527f496e73756666696369656e7420617373657420746f6b656e00000000000000006044820152606490fd5b1561310a57565b60405162461bcd60e51b815260206004820152602260248201527f496e73756666696369656e7420617373657420746f6b656e20616c6c6f77616e604482015261636560f01b6064820152608490fd5b1561316157565b60405162461bcd60e51b815260206004820152601660248201527510dbdc995cc81b5d5cdd081899481c1c9bdd9a59195960521b6044820152606490fd5b5f1981146131ad5760010190565b634e487b7160e01b5f52601160045260245ffd5b6001600160a01b03165f8181527fad3228b676f7d3cd4284a5443f17f1962b36e491b30a40b2405849e597ba5fb5602052604090205460ff16613261575f8181527fad3228b676f7d3cd4284a5443f17f1962b36e491b30a40b2405849e597ba5fb560205260408120805460ff191660011790553391907f2f8788117e7eff1d82e926ec794901d17c78024a50270940304540a733656f0d8180a4600190565b505f90565b90815f525f60205260405f209060018060a01b031690815f5260205260ff60405f205416155f146132dc57815f525f60205260405f20815f5260205260405f20600160ff1982541617905533917f2f8788117e7eff1d82e926ec794901d17c78024a50270940304540a733656f0d5f80a4600190565b50505f90565b335f9081527fad3228b676f7d3cd4284a5443f17f1962b36e491b30a40b2405849e597ba5fb5602052604090205460ff161561331a57565b60405163e2517d3f60e01b81523360048201525f6024820152604490fd5b805f525f60205260405f20335f5260205260ff60405f205416156133595750565b6044906040519063e2517d3f60e01b82523360048301526024820152fd5b60405163a9059cbb60e01b60208201526001600160a01b03929092166024830152604480830193909352918152612e3a916133b3606483612b6f565b614b04565b90815f525f60205260405f209060018060a01b031690815f5260205260ff60405f2054165f146132dc57815f525f60205260405f20815f5260205260405f2060ff19815416905533917ff6391f5c32d9c69d2a47ea670b442974b53935d1edc7fd64eb21e047a839171b5f80a4600190565b51906001600160a01b03821682036109d457565b5f9291815461344c81612c72565b926001918083169081156134a257506001146134685750505050565b9091929394505f5260209060205f20905f915b858310613491575050505001905f808080612cd6565b80548584015291830191810161347b565b60ff191684525050508115159091020191505f808080612cd6565b908160209103126109d4575180151581036109d45790565b91905f92805f52600b60205260ff600360405f2001541660038110156107ba576134ff9015612eb4565b6010546001600160a01b031615614a1c575f52600b60205260405f2060048101925f8454945560038201600160ff19825416179055601560205260018060a01b0360405f20541680155f146145ae575060405161356081611fbe8186612d5b565b6040519161357583610d568160018801612d5b565b60025461358a906001600160a01b0316614ba4565b92604051928360608101106001600160401b036060860111176107a6576135fd9161361c916060860160405260018060a01b0360105416865260018060a01b03600e5416602087015260018060a01b03600954166040870152613610604051948592604060208501526060840190612ac6565b601f199384848303016040850152612ac6565b03908101835282612b6f565b6001600160a01b0384163b156109d457604051634258efa960e11b8152925f600485015b6003821061458e575050506136636136769160c0606486015260c4850190612ac6565b6003199283858303016084860152612ac6565b908282030160a4830152815f916013549061369082612c72565b808252916001811690811561456e575060011461450e575b505f92829003905081836001600160a01b0387165af18015610938576144fb575b50600d54600160401b8110156107a6576001810180600d558110156143bd57600d5f527fd7b6990105719101dabeb77144f2a3385c8033acd3af97e9423a695e81ad1eb50180546001600160a01b0319166001600160a01b03831690811790915560405163d6efd7c360e01b815282918790829060049082905afa9081156143e957879161445b575b5080511561444757602001516009546001600160a01b039182169661377b929091849116613377565b6001600160a01b0381163b156143e557604051631672aef960e21b81523060048201529086908290602490829084906001600160a01b03165af1801561441057908691614433575b50505b60405166029ba30b5b2b2160cd1b6020820152806137e7602782018561343e565b03906137fb601f1992838101835282612b6f565b61382960405192607360f81b60208501528361381d602182016001890161343e565b03908101845283612b6f565b6005840154600f546001600160a01b039182169190613849908216614ba4565b1695600a54420180421161441f576004546001600160a01b031690883b1561441b579161389a93918b95936138ac604051988997889763b2193b4d60e01b895260e060048a015260e4890190612ac6565b87810360031901602489015290612ac6565b60448601949094526001600160a01b038c166064860152608485015260a4840152151560c4830152038183885af18015614410579086916143f8575b5050600754600160401b8110156107a65760018101806007558110156143bd5760075f527fa66cc928b5edb82af9bd49922954155ab7b0942694bea4ce44661d9a8736c6880180546001600160a01b031916841790556040519061396e600483613955602082018761343e565b632044414f60e01b815203601b19810185520183612b6f565b600a830154600b840154600354919390916001600160a01b0390613993908216614ba4565b169360018060a01b036004541690853b156143f457916139d79163ffffffff8b946040519687958695631c63df3560e21b875260a0600488015260a4870190612ac6565b938c60248701526044860152606485015260a01c166084830152038183875af180156143e9579087916143d1575b5050600854600160401b8110156107a65760018101806008558110156143bd5760085f527ff3f7a9fe364faab93b216da50a3214154f22a0a2b415b23a84c8169e8b636ee30180546001600160a01b0319168317905560048054604051632fd77c0d60e11b815297916001600160a01b0390911690602090899081845afa978815613e43578298614389575b50600c546005860154604051631f889aa560e11b8152600481018b90526001600160a01b0392831660248201526101006044820152929116908290613add610104830160028a01612d5b565b9287606484015260848301526003198284030160a483015284602060068a015494858152019360068a018252602082209082915b81601f8401106141f45795859392849260209854918181106141e2575b8181106141cc575b8181106141b6575b8181106141a0575b81811061418c575b818110614176575b818110614160575b81811061414a575b818110614134575b81811061411e575b818110614108575b8181106140f2575b8181106140dc575b8181106140c6575b8181106140b0575b81811061409a575b818110614084575b81811061406e575b818110614058575b818110614042575b81811061402c575b818110614016575b818110614000575b818110613fea575b818110613fd4575b818110613fbe575b818110613fa8575b818110613f92575b818110613f7c575b818110613f66575b818110613f50575b10613f43575b506001600160a01b03808f1660c48401528a1660e483015203925af18015613e4357613f18575b5060088401879055600554600a850154600986015460048054604051638a54c52f60e01b81526001600160a01b039485169281019290925260248201929092524660448201529082166064820152608481018a90529591602091879160a49183918791165af1948515613e43578295613edc575b506004546001600160a01b0316803b15613ed85760405163190b373360e31b8152600481018a90526001600160a01b03871660248201529083908290604490829084905af18015613e8657908391613ec0575b505060405163095ea7b360e01b8152600481018790525f196024820152602081604481866001600160a01b038d165af18015613e8657613e91575b506040516370a0823160e01b8152306004820152906020826024816001600160a01b038c165afa918215613e86578392613e52575b50600501546011546001600160a01b039081169116873b15613e4e576040519263a7d545db60e01b84526004840152602483015260448201528181606481838a5af18015613e4357613e2c575b5050604080519687526001600160a01b039182166020880152860191909152908116606085015260808401919091521660a08201527ff9d151d23a5253296eb20ab40959cf48828ea2732d337416716e302ed83ca6589060c090a1565b613e368291612b26565b613e405780613dcf565b80fd5b6040513d84823e3d90fd5b8380fd5b9091506020813d602011613e7e575b81613e6e60209383612b6f565b810103126109d45751905f613d82565b3d9150613e61565b6040513d85823e3d90fd5b613eb29060203d602011613eb9575b613eaa8183612b6f565b8101906134bd565b505f613d4d565b503d613ea0565b613ec990612b26565b613ed457815f613d12565b5080fd5b8280fd5b9094506020813d602011613f10575b81613ef860209383612b6f565b81010312613ed457613f099061342a565b935f613cbf565b3d9150613eeb565b602090813d8311613f3c575b613f2e8183612b6f565b810103126109d4575f613c4b565b503d613f24565b60f81c815286015f613c24565b928960019160ff8560f01c168152019301613c1e565b928960019160ff8560e81c168152019301613c16565b928960019160ff8560e01c168152019301613c0e565b928960019160ff8560d81c168152019301613c06565b928960019160ff8560d01c168152019301613bfe565b928960019160ff8560c81c168152019301613bf6565b928960019160ff8560c01c168152019301613bee565b928960019160ff8560b81c168152019301613be6565b928960019160ff8560b01c168152019301613bde565b928960019160ff8560a81c168152019301613bd6565b928960019160ff8560a01c168152019301613bce565b928960019160ff8560981c168152019301613bc6565b928960019160ff8560901c168152019301613bbe565b928960019160ff8560881c168152019301613bb6565b928960019160ff8560801c168152019301613bae565b928960019160ff8560781c168152019301613ba6565b928960019160ff8560701c168152019301613b9e565b928960019160ff8560681c168152019301613b96565b928960019160ff8560601c168152019301613b8e565b928960019160ff8560581c168152019301613b86565b928960019160ff8560501c168152019301613b7e565b928960019160ff8560481c168152019301613b76565b928960019160ff8560401c168152019301613b6e565b928960019160ff8560381c168152019301613b66565b928960019160ff8560301c168152019301613b5e565b928960019160ff8560281c168152019301613b56565b828a1c60ff16845292890192600101613b4e565b928960019160ff8560181c168152019301613b46565b928960019160ff8560101c168152019301613b3e565b928960019160ff8560081c168152019301613b36565b60ff8316845292890192600101613b2e565b9450915091936001610400602092865460ff8116825260ff8160081c168583015260ff8160101c16604083015260ff816060828260181c16818601528282608082828c1c1681890152828260281c1660a0890152828260c095828260301c16878c0152828260381c1660e08c0152828260401c166101008c0152828260481c166101208c0152828260501c166101408c0152828260581c166101608c01521c16610180890152828260681c166101a0890152828260701c166101c0890152828260781c166101e08901521c16610200860152828260881c16610220860152828260901c16610240860152828260981c16610260860152828260a01c16610280860152828260a81c166102a0860152828260b01c166102c0860152828260b81c166102e08601521c1661030083015260ff8160c81c1661032083015260ff8160d01c1661034083015260ff8160d81c1661036083015260ff8160e01c1661038083015260ff8160e81c166103a083015260ff8160f01c166103c083015260f81c6103e08201520194019201869186949593613b11565b9097506020813d6020116143b5575b816143a560209383612b6f565b810103126109d45751965f613a91565b3d9150614398565b634e487b7160e01b5f52603260045260245ffd5b6143da90612b26565b6143e557855f613a05565b8580fd5b6040513d89823e3d90fd5b8980fd5b61440190612b26565b61440c57845f6138e8565b8480fd5b6040513d88823e3d90fd5b8a80fd5b634e487b7160e01b8a52601160045260248afd5b61443c90612b26565b61440c57845f6137c3565b634e487b7160e01b87526032600452602487fd5b90503d8088833e61446c8183612b6f565b8101906020818303126144f3578051906001600160401b0382116144f757019080601f830112156144f35781516144a281612bf1565b926144b06040519485612b6f565b81845260208085019260051b8201019283116143f457602001905b8282106144db575050505f613752565b602080916144e88461342a565b8152019101906144cb565b8780fd5b8880fd5b614506919550612b26565b5f935f6136c9565b925060135f527f66de8ffda797e3de9c05e8fc57b3bf0ec28a930d40b0d285d93c06501cf6a090905f915b818310614550575050602082915f940101926136a8565b60209194935080600191548385870101520191019092849293614539565b5f9550602092915092849360ff191683830152151560051b0101926136a8565b82516001600160a01b031681526020928301926001929092019101613640565b600e5460405163c45a015560e01b8152919250602090829060049082906001600160a01b03165afa908115610938575f916149e2575b5060095460405163e6a4390560e01b81526001600160a01b038481166004830152918216602482018190529290911690602081604481855afa908115610938575f916149a8575b506001600160a01b031661496d576040516364e329cb60e11b81526001600160a01b038481166004830152929092166024830152602090829060449082905f905af1908115610938575f91614933575b509360018060a01b03600e54166040515f806020830163095ea7b360e01b815284602485015281196044850152604484526146b584612b54565b83519082885af16146c4614b75565b81614904575b50806148fa575b156148b7575b5050600954600e5460405163095ea7b360e01b602082019081526001600160a01b039283166024830181905260448084018790528352939192909116905f908190614723606486612b6f565b84519082855af1614732614b75565b81614888575b508061487e575b15614840575b5050600e546009546040516370a0823160e01b81523060048201526001600160a01b0391821693509116602082602481885afa918215610938575f9261480b575b506060925f61010492604051968795869462e8e33760e81b86528a60048701526024860152604485015260648401528160848401528160a48401523060c48401524260e48401525af18015610938576147e0575b506137c6565b606090813d8311614804575b6147f68183612b6f565b810103126109d4575f6147da565b503d6147ec565b9091506020813d602011614838575b8161482760209383612b6f565b810103126109d45751906060614786565b3d915061481a565b6133b3614876936040519063095ea7b360e01b602083015260248201525f60448201526044815261487081612b54565b82614b04565b5f8080614745565b50803b151561473f565b805180159250821561489d575b50505f614738565b6148b092506020809183010191016134bd565b5f80614895565b6148ed6148f3926040519063095ea7b360e01b602083015260248201525f6044820152604481526148e781612b54565b85614b04565b83614b04565b5f806146d7565b50833b15156146d1565b8051801592508215614919575b50505f6146ca565b61492c92506020809183010191016134bd565b5f80614911565b90506020813d602011614965575b8161494e60209383612b6f565b810103126109d45761495f9061342a565b5f61467b565b3d9150614941565b60405162461bcd60e51b8152602060048201526013602482015272706f6f6c20616c72656164792065786973747360681b6044820152606490fd5b90506020813d6020116149da575b816149c360209383612b6f565b810103126109d4576149d49061342a565b5f61462b565b3d91506149b6565b90506020813d602011614a14575b816149fd60209383612b6f565b810103126109d457614a0e9061342a565b5f6145e4565b3d91506149f0565b60405162461bcd60e51b8152602060048201526013602482015272151bdad95b8818591b5a5b881b9bdd081cd95d606a1b6044820152606490fd5b60ff5f80516020614c6e8339815191525416614a6f57565b60405163d93c066560e01b8152600490fd5b6040516323b872dd60e01b60208201526001600160a01b039283166024820152929091166044830152606480830193909352918152612e3a916133b382612b39565b60ff7ff0c57e16840df040f15088dc2f81fe391c3923bec73e23a9662efc9c229c6a005460401c1615614af257565b604051631afcd79f60e31b8152600490fd5b5f80614b2c9260018060a01b03169360208151910182865af1614b25614b75565b9083614c0a565b8051908115159182614b5a575b5050614b425750565b60249060405190635274afe760e01b82526004820152fd5b614b6d92506020809183010191016134bd565b155f80614b39565b3d15614b9f573d90614b8682612b90565b91614b946040519384612b6f565b82523d5f602084013e565b606090565b6e5af43d82803e903d91602b57fd5bf390763d602d80600a3d3981f3363d3d373d3d3d363d7300000062ffffff8260881c16175f5260781b17602052603760095ff0906001600160a01b03821615614bf857565b6040516330be1a3d60e21b8152600490fd5b90614c315750805115614c1f57805190602001fd5b604051630a12f52160e11b8152600490fd5b81511580614c64575b614c42575090565b604051639996b31560e01b81526001600160a01b039091166004820152602490fd5b50803b15614c3a56fecd5ed15c6e187e77e9aee88184c21f4f2182ab5827cb3b7e07fbedcd63f03300a264697066735822122049e29b14f2ce973dbf43496ac4f76d7aa78305ce73641cbf4293f2462f2c812764736f6c63430008160033","linkReferences":{}},"methodIdentifiers":{"DEFAULT_ADMIN_ROLE()":"a217fddf","WITHDRAW_ROLE()":"e02023a1","allDAOs(uint256)":"b4136bd8","allTokens(uint256)":"634282af","allTradingTokens(uint256)":"e887b1cc","applicationThreshold()":"ddf44275","assetToken()":"1083f761","daoImplementation()":"9d699326","defaultDelegatee()":"0c4cb55c","executeApplication(uint256,bool)":"aa3d000a","executeTokenApplication(uint256,bool)":"4c88672a","getApplication(uint256)":"1f2f4bfd","getRoleAdmin(bytes32)":"248a9ca3","getTokenApplication(address)":"1bbb8689","grantRole(bytes32,address)":"2f2ff15d","hasRole(bytes32,address)":"91d14854","initFromToken(address,uint8[],bytes32,address,uint32,uint256,uint256)":"fc98f079","initialize(address,address,address,address,address,address,uint256,address,uint256)":"0f07646a","isCompatibleToken(address)":"449664c0","maturityDuration()":"063513b7","nft()":"47ccca02","pause()":"8456cb59","paused()":"5c975abb","proposeAgent(string,string,string,uint8[],bytes32,address,uint32,uint256)":"9e4ec30a","renounceRole(bytes32,address)":"36568abe","revokeRole(bytes32,address)":"d547741f","setApplicationThreshold(uint256)":"bd1cf258","setAssetToken(address)":"26bde5aa","setDefaultDelegatee(address)":"9d7b6842","setImplementations(address,address,address)":"9300d238","setMaturityDuration(uint256)":"d739ac29","setTokenAdmin(address)":"f7457594","setTokenSupplyParams(uint256,uint256,uint256,uint256,uint256,uint256,address)":"2a7d4a1f","setTokenTaxParams(uint256,uint256,uint256,address)":"5ca3cedf","setUniswapRouter(address)":"bea9849e","setVault(address)":"6817031b","supportsInterface(bytes4)":"01ffc9a7","tbaRegistry()":"468d198d","tokenImplementation()":"2f3a3d5d","totalAgents()":"c5053712","unpause()":"3f4ba83a","veTokenImplementation()":"9cbe0bac","withdraw(uint256)":"2e1a7d4d"},"id":53}