{"abi":[{"type":"constructor","inputs":[],"stateMutability":"nonpayable"},{"type":"function","name":"DEFAULT_ADMIN_ROLE","inputs":[],"outputs":[{"name":"","type":"bytes32","internalType":"bytes32"}],"stateMutability":"view"},{"type":"function","name":"WITHDRAW_ROLE","inputs":[],"outputs":[{"name":"","type":"bytes32","internalType":"bytes32"}],"stateMutability":"view"},{"type":"function","name":"allDAOs","inputs":[{"name":"","type":"uint256","internalType":"uint256"}],"outputs":[{"name":"","type":"address","internalType":"address"}],"stateMutability":"view"},{"type":"function","name":"allTokens","inputs":[{"name":"","type":"uint256","internalType":"uint256"}],"outputs":[{"name":"","type":"address","internalType":"address"}],"stateMutability":"view"},{"type":"function","name":"allTradingTokens","inputs":[{"name":"","type":"uint256","internalType":"uint256"}],"outputs":[{"name":"","type":"address","internalType":"address"}],"stateMutability":"view"},{"type":"function","name":"applicationThreshold","inputs":[],"outputs":[{"name":"","type":"uint256","internalType":"uint256"}],"stateMutability":"view"},{"type":"function","name":"assetToken","inputs":[],"outputs":[{"name":"","type":"address","internalType":"address"}],"stateMutability":"view"},{"type":"function","name":"daoImplementation","inputs":[],"outputs":[{"name":"","type":"address","internalType":"address"}],"stateMutability":"view"},{"type":"function","name":"defaultDelegatee","inputs":[],"outputs":[{"name":"","type":"address","internalType":"address"}],"stateMutability":"view"},{"type":"function","name":"executeApplication","inputs":[{"name":"id","type":"uint256","internalType":"uint256"},{"name":"canStake","type":"bool","internalType":"bool"}],"outputs":[],"stateMutability":"nonpayable"},{"type":"function","name":"executeTokenApplication","inputs":[{"name":"id","type":"uint256","internalType":"uint256"},{"name":"canStake","type":"bool","internalType":"bool"}],"outputs":[],"stateMutability":"nonpayable"},{"type":"function","name":"getApplication","inputs":[{"name":"proposalId","type":"uint256","internalType":"uint256"}],"outputs":[{"name":"","type":"tuple","internalType":"struct AgentFactoryV4.Application","components":[{"name":"name","type":"string","internalType":"string"},{"name":"symbol","type":"string","internalType":"string"},{"name":"tokenURI","type":"string","internalType":"string"},{"name":"status","type":"uint8","internalType":"enum AgentFactoryV4.ApplicationStatus"},{"name":"withdrawableAmount","type":"uint256","internalType":"uint256"},{"name":"proposer","type":"address","internalType":"address"},{"name":"cores","type":"uint8[]","internalType":"uint8[]"},{"name":"proposalEndBlock","type":"uint256","internalType":"uint256"},{"name":"virtualId","type":"uint256","internalType":"uint256"},{"name":"tbaSalt","type":"bytes32","internalType":"bytes32"},{"name":"tbaImplementation","type":"address","internalType":"address"},{"name":"daoVotingPeriod","type":"uint32","internalType":"uint32"},{"name":"daoThreshold","type":"uint256","internalType":"uint256"}]}],"stateMutability":"view"},{"type":"function","name":"getRoleAdmin","inputs":[{"name":"role","type":"bytes32","internalType":"bytes32"}],"outputs":[{"name":"","type":"bytes32","internalType":"bytes32"}],"stateMutability":"view"},{"type":"function","name":"getTokenApplication","inputs":[{"name":"tokenAddr","type":"address","internalType":"address"}],"outputs":[{"name":"","type":"uint256","internalType":"uint256"}],"stateMutability":"view"},{"type":"function","name":"grantRole","inputs":[{"name":"role","type":"bytes32","internalType":"bytes32"},{"name":"account","type":"address","internalType":"address"}],"outputs":[],"stateMutability":"nonpayable"},{"type":"function","name":"hasRole","inputs":[{"name":"role","type":"bytes32","internalType":"bytes32"},{"name":"account","type":"address","internalType":"address"}],"outputs":[{"name":"","type":"bool","internalType":"bool"}],"stateMutability":"view"},{"type":"function","name":"initFromToken","inputs":[{"name":"tokenAddr","type":"address","internalType":"address"},{"name":"cores","type":"uint8[]","internalType":"uint8[]"},{"name":"tbaSalt","type":"bytes32","internalType":"bytes32"},{"name":"tbaImplementation","type":"address","internalType":"address"},{"name":"daoVotingPeriod","type":"uint32","internalType":"uint32"},{"name":"daoThreshold","type":"uint256","internalType":"uint256"},{"name":"initialLP","type":"uint256","internalType":"uint256"}],"outputs":[{"name":"","type":"uint256","internalType":"uint256"}],"stateMutability":"nonpayable"},{"type":"function","name":"initialize","inputs":[{"name":"tokenImplementation_","type":"address","internalType":"address"},{"name":"veTokenImplementation_","type":"address","internalType":"address"},{"name":"daoImplementation_","type":"address","internalType":"address"},{"name":"tbaRegistry_","type":"address","internalType":"address"},{"name":"assetToken_","type":"address","internalType":"address"},{"name":"nft_","type":"address","internalType":"address"},{"name":"applicationThreshold_","type":"uint256","internalType":"uint256"},{"name":"vault_","type":"address","internalType":"address"},{"name":"nextId_","type":"uint256","internalType":"uint256"}],"outputs":[],"stateMutability":"nonpayable"},{"type":"function","name":"isCompatibleToken","inputs":[{"name":"tokenAddr","type":"address","internalType":"address"}],"outputs":[{"name":"","type":"bool","internalType":"bool"}],"stateMutability":"view"},{"type":"function","name":"maturityDuration","inputs":[],"outputs":[{"name":"","type":"uint256","internalType":"uint256"}],"stateMutability":"view"},{"type":"function","name":"nft","inputs":[],"outputs":[{"name":"","type":"address","internalType":"address"}],"stateMutability":"view"},{"type":"function","name":"pause","inputs":[],"outputs":[],"stateMutability":"nonpayable"},{"type":"function","name":"paused","inputs":[],"outputs":[{"name":"","type":"bool","internalType":"bool"}],"stateMutability":"view"},{"type":"function","name":"proposeAgent","inputs":[{"name":"name","type":"string","internalType":"string"},{"name":"symbol","type":"string","internalType":"string"},{"name":"tokenURI","type":"string","internalType":"string"},{"name":"cores","type":"uint8[]","internalType":"uint8[]"},{"name":"tbaSalt","type":"bytes32","internalType":"bytes32"},{"name":"tbaImplementation","type":"address","internalType":"address"},{"name":"daoVotingPeriod","type":"uint32","internalType":"uint32"},{"name":"daoThreshold","type":"uint256","internalType":"uint256"}],"outputs":[{"name":"","type":"uint256","internalType":"uint256"}],"stateMutability":"nonpayable"},{"type":"function","name":"renounceRole","inputs":[{"name":"role","type":"bytes32","internalType":"bytes32"},{"name":"callerConfirmation","type":"address","internalType":"address"}],"outputs":[],"stateMutability":"nonpayable"},{"type":"function","name":"revokeRole","inputs":[{"name":"role","type":"bytes32","internalType":"bytes32"},{"name":"account","type":"address","internalType":"address"}],"outputs":[],"stateMutability":"nonpayable"},{"type":"function","name":"setApplicationThreshold","inputs":[{"name":"newThreshold","type":"uint256","internalType":"uint256"}],"outputs":[],"stateMutability":"nonpayable"},{"type":"function","name":"setAssetToken","inputs":[{"name":"newToken","type":"address","internalType":"address"}],"outputs":[],"stateMutability":"nonpayable"},{"type":"function","name":"setDefaultDelegatee","inputs":[{"name":"newDelegatee","type":"address","internalType":"address"}],"outputs":[],"stateMutability":"nonpayable"},{"type":"function","name":"setImplementations","inputs":[{"name":"token","type":"address","internalType":"address"},{"name":"veToken","type":"address","internalType":"address"},{"name":"dao","type":"address","internalType":"address"}],"outputs":[],"stateMutability":"nonpayable"},{"type":"function","name":"setMaturityDuration","inputs":[{"name":"newDuration","type":"uint256","internalType":"uint256"}],"outputs":[],"stateMutability":"nonpayable"},{"type":"function","name":"setTokenAdmin","inputs":[{"name":"newTokenAdmin","type":"address","internalType":"address"}],"outputs":[],"stateMutability":"nonpayable"},{"type":"function","name":"setTokenSupplyParams","inputs":[{"name":"maxSupply","type":"uint256","internalType":"uint256"},{"name":"lpSupply","type":"uint256","internalType":"uint256"},{"name":"vaultSupply","type":"uint256","internalType":"uint256"},{"name":"maxTokensPerWallet","type":"uint256","internalType":"uint256"},{"name":"maxTokensPerTxn","type":"uint256","internalType":"uint256"},{"name":"botProtectionDurationInSeconds","type":"uint256","internalType":"uint256"},{"name":"vault","type":"address","internalType":"address"}],"outputs":[],"stateMutability":"nonpayable"},{"type":"function","name":"setTokenTaxParams","inputs":[{"name":"projectBuyTaxBasisPoints","type":"uint256","internalType":"uint256"},{"name":"projectSellTaxBasisPoints","type":"uint256","internalType":"uint256"},{"name":"taxSwapThresholdBasisPoints","type":"uint256","internalType":"uint256"},{"name":"projectTaxRecipient","type":"address","internalType":"address"}],"outputs":[],"stateMutability":"nonpayable"},{"type":"function","name":"setUniswapRouter","inputs":[{"name":"router","type":"address","internalType":"address"}],"outputs":[],"stateMutability":"nonpayable"},{"type":"function","name":"setVault","inputs":[{"name":"newVault","type":"address","internalType":"address"}],"outputs":[],"stateMutability":"nonpayable"},{"type":"function","name":"supportsInterface","inputs":[{"name":"interfaceId","type":"bytes4","internalType":"bytes4"}],"outputs":[{"name":"","type":"bool","internalType":"bool"}],"stateMutability":"view"},{"type":"function","name":"tbaRegistry","inputs":[],"outputs":[{"name":"","type":"address","internalType":"address"}],"stateMutability":"view"},{"type":"function","name":"tokenImplementation","inputs":[],"outputs":[{"name":"","type":"address","internalType":"address"}],"stateMutability":"view"},{"type":"function","name":"totalAgents","inputs":[],"outputs":[{"name":"","type":"uint256","internalType":"uint256"}],"stateMutability":"view"},{"type":"function","name":"unpause","inputs":[],"outputs":[],"stateMutability":"nonpayable"},{"type":"function","name":"veTokenImplementation","inputs":[],"outputs":[{"name":"","type":"address","internalType":"address"}],"stateMutability":"view"},{"type":"function","name":"withdraw","inputs":[{"name":"id","type":"uint256","internalType":"uint256"}],"outputs":[],"stateMutability":"nonpayable"},{"type":"event","name":"ApplicationThresholdUpdated","inputs":[{"name":"newThreshold","type":"uint256","indexed":false,"internalType":"uint256"}],"anonymous":false},{"type":"event","name":"GovUpdated","inputs":[{"name":"newGov","type":"address","indexed":false,"internalType":"address"}],"anonymous":false},{"type":"event","name":"ImplContractsUpdated","inputs":[{"name":"token","type":"address","indexed":false,"internalType":"address"},{"name":"dao","type":"address","indexed":false,"internalType":"address"}],"anonymous":false},{"type":"event","name":"Initialized","inputs":[{"name":"version","type":"uint64","indexed":false,"internalType":"uint64"}],"anonymous":false},{"type":"event","name":"NewApplication","inputs":[{"name":"id","type":"uint256","indexed":false,"internalType":"uint256"}],"anonymous":false},{"type":"event","name":"NewPersona","inputs":[{"name":"virtualId","type":"uint256","indexed":false,"internalType":"uint256"},{"name":"token","type":"address","indexed":false,"internalType":"address"},{"name":"dao","type":"address","indexed":false,"internalType":"address"},{"name":"tba","type":"address","indexed":false,"internalType":"address"},{"name":"veToken","type":"address","indexed":false,"internalType":"address"},{"name":"lp","type":"address","indexed":false,"internalType":"address"}],"anonymous":false},{"type":"event","name":"Paused","inputs":[{"name":"account","type":"address","indexed":false,"internalType":"address"}],"anonymous":false},{"type":"event","name":"RoleAdminChanged","inputs":[{"name":"role","type":"bytes32","indexed":true,"internalType":"bytes32"},{"name":"previousAdminRole","type":"bytes32","indexed":true,"internalType":"bytes32"},{"name":"newAdminRole","type":"bytes32","indexed":true,"internalType":"bytes32"}],"anonymous":false},{"type":"event","name":"RoleGranted","inputs":[{"name":"role","type":"bytes32","indexed":true,"internalType":"bytes32"},{"name":"account","type":"address","indexed":true,"internalType":"address"},{"name":"sender","type":"address","indexed":true,"internalType":"address"}],"anonymous":false},{"type":"event","name":"RoleRevoked","inputs":[{"name":"role","type":"bytes32","indexed":true,"internalType":"bytes32"},{"name":"account","type":"address","indexed":true,"internalType":"address"},{"name":"sender","type":"address","indexed":true,"internalType":"address"}],"anonymous":false},{"type":"event","name":"Unpaused","inputs":[{"name":"account","type":"address","indexed":false,"internalType":"address"}],"anonymous":false},{"type":"error","name":"AccessControlBadConfirmation","inputs":[]},{"type":"error","name":"AccessControlUnauthorizedAccount","inputs":[{"name":"account","type":"address","internalType":"address"},{"name":"neededRole","type":"bytes32","internalType":"bytes32"}]},{"type":"error","name":"AddressEmptyCode","inputs":[{"name":"target","type":"address","internalType":"address"}]},{"type":"error","name":"AddressInsufficientBalance","inputs":[{"name":"account","type":"address","internalType":"address"}]},{"type":"error","name":"ERC1167FailedCreateClone","inputs":[]},{"type":"error","name":"EnforcedPause","inputs":[]},{"type":"error","name":"ExpectedPause","inputs":[]},{"type":"error","name":"FailedInnerCall","inputs":[]},{"type":"error","name":"InvalidInitialization","inputs":[]},{"type":"error","name":"NotInitializing","inputs":[]},{"type":"error","name":"SafeERC20FailedOperation","inputs":[{"name":"token","type":"address","internalType":"address"}]}],"bytecode":{"object":"0x608060405234801562000010575f80fd5b506200001b62000021565b620000d5565b7ff0c57e16840df040f15088dc2f81fe391c3923bec73e23a9662efc9c229c6a00805468010000000000000000900460ff1615620000725760405163f92ee8a960e01b815260040160405180910390fd5b80546001600160401b0390811614620000d25780546001600160401b0319166001600160401b0390811782556040519081527fc7f505b2f371ae2175ee4913f4499e1f2633a7b5936321eed1cdaeb6115181d29060200160405180910390a15b50565b6146fd80620000e35f395ff3fe608060405234801561000f575f80fd5b5060043610610260575f3560e01c8063634282af1161014b578063b4136bd8116100bf578063d739ac2911610084578063d739ac291461055e578063ddf4427514610571578063e02023a11461057a578063e887b1cc1461058e578063f7457594146105a1578063fc98f079146105b4575f80fd5b8063b4136bd81461050a578063bd1cf2581461051d578063bea9849e14610530578063c505371214610543578063d547741f1461054b575f80fd5b80639cbe0bac116101105780639cbe0bac146104a45780639d699326146104b75780639d7b6842146104ca5780639e4ec30a146104dd578063a217fddf146104f0578063aa3d000a146104f7575f80fd5b8063634282af146104505780636817031b146104635780638456cb591461047657806391d148541461047e5780639300d23814610491575f80fd5b80632e1a7d4d116101e2578063449664c0116101a7578063449664c0146103da578063468d198d146103ed57806347ccca02146104005780634c88672a146104135780635c975abb146104265780635ca3cedf1461043d575f80fd5b80632e1a7d4d146103865780632f2ff15d146103995780632f3a3d5d146103ac57806336568abe146103bf5780633f4ba83a146103d2575f80fd5b80631bbb8689116102285780631bbb8689146102f65780631f2f4bfd1461031e578063248a9ca31461033e57806326bde5aa146103605780632a7d4a1f14610373575f80fd5b806301ffc9a714610264578063063513b71461028c5780630c4cb55c146102a35780630f07646a146102ce5780631083f761146102e3575b5f80fd5b610277610272366004613340565b6105c7565b60405190151581526020015b60405180910390f35b610295600a5481565b604051908152602001610283565b6011546102b6906001600160a01b031681565b6040516001600160a01b039091168152602001610283565b6102e16102dc366004613386565b6105fd565b005b6009546102b6906001600160a01b031681565b61029561030436600461342a565b6001600160a01b03165f9081526014602052604090205490565b61033161032c366004613445565b61077b565b604051610283919061351a565b61029561034c366004613445565b5f9081526020819052604090206001015490565b6102e161036e36600461342a565b610a7e565b6102e161038136600461363d565b610aab565b6102e1610394366004613445565b610b1d565b6102e16103a7366004613698565b610d94565b6002546102b6906001600160a01b031681565b6102e16103cd366004613698565b610dbe565b6102e1610df6565b6102776103e836600461342a565b610e0b565b6005546102b6906001600160a01b031681565b6004546102b6906001600160a01b031681565b6102e16104213660046136d3565b610fc5565b5f805160206146a88339815191525460ff16610277565b6102e161044b3660046136f6565b611162565b6102b661045e366004613445565b6111bb565b6102e161047136600461342a565b6111e3565b6102e1611210565b61027761048c366004613698565b611222565b6102e161049f366004613734565b61124a565b600f546102b6906001600160a01b031681565b6003546102b6906001600160a01b031681565b6102e16104d836600461342a565b611294565b6102956104eb3660046138e5565b6112c1565b6102955f81565b6102e16105053660046136d3565b611688565b6102b6610518366004613445565b61171d565b6102e161052b366004613445565b61172c565b6102e161053e36600461342a565b611772565b600754610295565b6102e1610559366004613698565b61179f565b6102e161056c366004613445565b6117c3565b61029560065481565b6102955f8051602061468883398151915281565b6102b661059c366004613445565b6117d3565b6102e16105af36600461342a565b6117e2565b6102956105c23660046139be565b61180f565b5f6001600160e01b03198216637965db0b60e01b14806105f757506301ffc9a760e01b6001600160e01b03198316145b92915050565b7ff0c57e16840df040f15088dc2f81fe391c3923bec73e23a9662efc9c229c6a00805460029190600160401b900460ff16806106475750805467ffffffffffffffff808416911610155b156106655760405163f92ee8a960e01b815260040160405180910390fd5b805468ffffffffffffffffff191667ffffffffffffffff831617600160401b17815561068f611ded565b600280546001600160a01b03199081166001600160a01b038e811691909117909255600f805482168d84161790556003805482168c84161790556009805482168a84161790556005805482168b841617905560048054909116918816919091179055600685905560018390556107055f33611dff565b50600c80546001600160a01b0319166001600160a01b038616179055805468ff00000000000000001916815560405167ffffffffffffffff831681527fc7f505b2f371ae2175ee4913f4499e1f2633a7b5936321eed1cdaeb6115181d29060200160405180910390a15050505050505050505050565b610783613213565b5f828152600b60205260409081902081516101a081019092528054829082906107ab90613a48565b80601f01602080910402602001604051908101604052809291908181526020018280546107d790613a48565b80156108225780601f106107f957610100808354040283529160200191610822565b820191905f5260205f20905b81548152906001019060200180831161080557829003601f168201915b5050505050815260200160018201805461083b90613a48565b80601f016020809104026020016040519081016040528092919081815260200182805461086790613a48565b80156108b25780601f10610889576101008083540402835291602001916108b2565b820191905f5260205f20905b81548152906001019060200180831161089557829003601f168201915b505050505081526020016002820180546108cb90613a48565b80601f01602080910402602001604051908101604052809291908181526020018280546108f790613a48565b80156109425780601f1061091957610100808354040283529160200191610942565b820191905f5260205f20905b81548152906001019060200180831161092557829003601f168201915b5050509183525050600382015460209091019060ff166002811115610969576109696134a9565b600281111561097a5761097a6134a9565b815260200160048201548152602001600582015f9054906101000a90046001600160a01b03166001600160a01b03166001600160a01b0316815260200160068201805480602002602001604051908101604052809291908181526020018280548015610a2057602002820191905f5260205f20905f905b825461010083900a900460ff168152602060019283018181049485019490930390920291018084116109f15790505b5050509183525050600782015460208201526008820154604082015260098201546060820152600a8201546001600160a01b0381166080830152600160a01b900463ffffffff1660a0820152600b9091015460c09091015292915050565b5f610a8881611e8e565b50600980546001600160a01b0319166001600160a01b0392909216919091179055565b5f610ab581611e8e565b60408051602081018a9052908101889052606081018790526080810186905260a0810185905260c081018490526001600160a01b03831660e08201526101000160405160208183030381529060405260129081610b129190613ac5565b505050505050505050565b600c54600160a01b900460ff1615610b505760405162461bcd60e51b8152600401610b4790613b81565b60405180910390fd5b600c805460ff60a01b1916600160a01b1790555f818152600b602052604090206005810154336001600160a01b039091161480610b9f5750610b9f5f8051602061468883398151915233611222565b610bbb5760405162461bcd60e51b8152600401610b4790613ba9565b5f600382015460ff166002811115610bd557610bd56134a9565b14610c1e5760405162461bcd60e51b81526020600482015260196024820152784170706c69636174696f6e206973206e6f742061637469766560381b6044820152606401610b47565b80600701544311610c715760405162461bcd60e51b815260206004820152601e60248201527f4170706c69636174696f6e206973206e6f74206d6174757265642079657400006044820152606401610b47565b6004810180545f90915560038201805460ff191660021790556005820154600954610ca9916001600160a01b03918216911683611e98565b5f838152601560205260409020546001600160a01b03168015610d815760058301546040516370a0823160e01b8152306004820152610d4b916001600160a01b0390811691908416906370a0823190602401602060405180830381865afa158015610d16573d5f803e3d5ffd5b505050506040513d601f19601f82011682018060405250810190610d3a9190613bcf565b6001600160a01b0384169190611e98565b6001600160a01b0381165f9081526014602090815260408083208390558683526015909152902080546001600160a01b03191690555b5050600c805460ff60a01b191690555050565b5f82815260208190526040902060010154610dae81611e8e565b610db88383611dff565b50505050565b6001600160a01b0381163314610de75760405163334bd91960e11b815260040160405180910390fd5b610df18282611ef7565b505050565b5f610e0081611e8e565b610e08611f60565b50565b5f816001600160a01b03166306fdde036040518163ffffffff1660e01b81526004015f60405180830381865afa925050508015610e6957506040513d5f823e601f3d908101601f19168201604052610e669190810190613be6565b60015b610e7457505f919050565b826001600160a01b03166395d89b416040518163ffffffff1660e01b81526004015f60405180830381865afa925050508015610ed157506040513d5f823e601f3d908101601f19168201604052610ece9190810190613be6565b60015b610edd57505f92915050565b836001600160a01b03166318160ddd6040518163ffffffff1660e01b8152600401602060405180830381865afa925050508015610f37575060408051601f3d908101601f19168201909252610f3491810190613bcf565b60015b610f4457505f9392505050565b6040516370a0823160e01b81523060048201526001600160a01b038616906370a0823190602401602060405180830381865afa925050508015610fa4575060408051601f3d908101601f19168201909252610fa191810190613bcf565b60015b610fb257505f949350505050565b50600195945050505050565b505b919050565b600c54600160a01b900460ff1615610fef5760405162461bcd60e51b8152600401610b4790613b81565b600c805460ff60a01b1916600160a01b1790555f828152600b602052604090206005810154336001600160a01b03909116148061103e575061103e5f8051602061468883398151915233611222565b61105a5760405162461bcd60e51b8152600401610b4790613ba9565b5f838152601560205260409020546001600160a01b03166110bd5760405162461bcd60e51b815260206004820152601c60248201527f4e6f7420637573746f6d20746f6b656e206170706c69636174696f6e000000006044820152606401610b47565b6111508383601280546110cf90613a48565b80601f01602080910402602001604051908101604052809291908181526020018280546110fb90613a48565b80156111465780601f1061111d57610100808354040283529160200191611146565b820191905f5260205f20905b81548152906001019060200180831161112957829003601f168201915b5050505050611fbf565b5050600c805460ff60a01b1916905550565b5f61116c81611e8e565b6040805160208101879052908101859052606081018490526001600160a01b038316608082015260a001604051602081830303815290604052601390816111b39190613ac5565b505050505050565b600781815481106111ca575f80fd5b5f918252602090912001546001600160a01b0316905081565b5f6111ed81611e8e565b50600c80546001600160a01b0319166001600160a01b0392909216919091179055565b5f61121a81611e8e565b610e086128e1565b5f918252602082815260408084206001600160a01b0393909316845291905290205460ff1690565b5f61125481611e8e565b50600280546001600160a01b039485166001600160a01b0319918216179091556003805492851692821692909217909155600f8054929093169116179055565b5f61129e81611e8e565b50601180546001600160a01b0319166001600160a01b0392909216919091179055565b5f6112ca612929565b5f336006546009546040516370a0823160e01b81526001600160a01b038085166004830152939450919216906370a0823190602401602060405180830381865afa15801561131a573d5f803e3d5ffd5b505050506040513d601f19601f8201168201806040525081019061133e9190613bcf565b10156113875760405162461bcd60e51b815260206004820152601860248201527724b739bab33334b1b4b2b73a1030b9b9b2ba103a37b5b2b760411b6044820152606401610b47565b600654600954604051636eb1769f60e11b81526001600160a01b0384811660048301523060248301529091169063dd62ed3e90604401602060405180830381865afa1580156113d8573d5f803e3d5ffd5b505050506040513d601f19601f820116820180604052508101906113fc9190613bcf565b101561141a5760405162461bcd60e51b8152600401610b4790613c4f565b5f8751116114635760405162461bcd60e51b815260206004820152601660248201527510dbdc995cc81b5d5cdd081899481c1c9bdd9a59195960521b6044820152606401610b47565b600654600954611482916001600160a01b039091169083903090612959565b600180545f918261149283613ca5565b90915550604080516101a0810182528d815260208082018e90528183018d90525f6060830181905260065460808401526001600160a01b0380881660a085015260c084018e90524360e08501819052610100850183905261012085018e9052908c1661014085015263ffffffff8b1661016085015261018084018a9052858252600b90925292909220815193945091929091829181906115329082613ac5565b50602082015160018201906115479082613ac5565b506040820151600282019061155c9082613ac5565b50606082015160038201805460ff19166001836002811115611580576115806134a9565b02179055506080820151600482015560a08201516005820180546001600160a01b0319166001600160a01b0390921691909117905560c082015180516115d091600684019160209091019061328b565b5060e0820151600782015561010082015160088201556101208201516009820155610140820151600a8201805461016085015163ffffffff16600160a01b026001600160c01b03199091166001600160a01b039093169290921791909117905561018090910151600b909101556040517f0ff47c4a3dc48719ecfd1876116e80d7d76ec7cb67248ae49449f9104747af299061166f9085815260200190565b60405180910390a150909b9a5050505050505050505050565b600c54600160a01b900460ff16156116b25760405162461bcd60e51b8152600401610b4790613b81565b600c805460ff60a01b1916600160a01b1790555f828152600b602052604090206005810154336001600160a01b03909116148061170157506117015f8051602061468883398151915233611222565b6110bd5760405162461bcd60e51b8152600401610b4790613ba9565b600881815481106111ca575f80fd5b5f61173681611e8e565b60068290556040518281527fcfa33021ab0175831433b2f3bd8eeb24a22f5ae53ca0e660a246811754f9e34a9060200160405180910390a15050565b5f61177c81611e8e565b50600e80546001600160a01b0319166001600160a01b0392909216919091179055565b5f828152602081905260409020600101546117b981611e8e565b610db88383611ef7565b5f6117cd81611e8e565b50600a55565b600d81815481106111ca575f80fd5b5f6117ec81611e8e565b50601080546001600160a01b0319166001600160a01b0392909216919091179055565b5f611818612929565b6001600160a01b0388165f908152601460205260409020543390156118765760405162461bcd60e51b8152602060048201526014602482015273546f6b656e20616c72656164792065786973747360601b6044820152606401610b47565b61187f89610e0b565b6118bf5760405162461bcd60e51b81526020600482015260116024820152702ab739bab83837b93a32b2103a37b5b2b760791b6044820152606401610b47565b6006546009546040516370a0823160e01b81526001600160a01b038481166004830152909116906370a0823190602401602060405180830381865afa15801561190a573d5f803e3d5ffd5b505050506040513d601f19601f8201168201806040525081019061192e9190613bcf565b10156119775760405162461bcd60e51b815260206004820152601860248201527724b739bab33334b1b4b2b73a1030b9b9b2ba103a37b5b2b760411b6044820152606401610b47565b600654600954604051636eb1769f60e11b81526001600160a01b0384811660048301523060248301529091169063dd62ed3e90604401602060405180830381865afa1580156119c8573d5f803e3d5ffd5b505050506040513d601f19601f820116820180604052508101906119ec9190613bcf565b1015611a0a5760405162461bcd60e51b8152600401610b4790613c4f565b5f885111611a535760405162461bcd60e51b815260206004820152601660248201527510dbdc995cc81b5d5cdd081899481c1c9bdd9a59195960521b6044820152606401610b47565b5f8311611aa25760405162461bcd60e51b815260206004820181905260248201527f496e697469616c4c50206d7573742062652067726561746572207468616e20306044820152606401610b47565b611ab76001600160a01b038a16823086612959565b600654600954611ad6916001600160a01b039091169083903090612959565b600180545f9182611ae683613ca5565b909155506001600160a01b038b165f818152601460209081526040808320859055848352601590915280822080546001600160a01b0319168417905580516101a081018083526306fdde0360e01b905290519394509092909182916306fdde03906101a48085019187918187030181865afa158015611b67573d5f803e3d5ffd5b505050506040513d5f823e601f3d908101601f19168201604052611b8e9190810190613be6565b81526020018c6001600160a01b03166395d89b416040518163ffffffff1660e01b81526004015f60405180830381865afa158015611bce573d5f803e3d5ffd5b505050506040513d5f823e601f3d908101601f19168201604052611bf59190810190613be6565b815260200160405180602001604052805f81525081526020015f6002811115611c2057611c206134a9565b81526020016006548152602001846001600160a01b031681526020018b81526020014381526020015f81526020018a8152602001896001600160a01b031681526020018863ffffffff16815260200187815250905080600b5f8481526020019081526020015f205f820151815f019081611c9a9190613ac5565b5060208201516001820190611caf9082613ac5565b5060408201516002820190611cc49082613ac5565b50606082015160038201805460ff19166001836002811115611ce857611ce86134a9565b02179055506080820151600482015560a08201516005820180546001600160a01b0319166001600160a01b0390921691909117905560c08201518051611d3891600684019160209091019061328b565b5060e0820151600782015561010082015160088201556101208201516009820155610140820151600a8201805461016085015163ffffffff16600160a01b026001600160c01b03199091166001600160a01b039093169290921791909117905561018090910151600b909101556040517f0ff47c4a3dc48719ecfd1876116e80d7d76ec7cb67248ae49449f9104747af2990611dd79084815260200190565b60405180910390a1509998505050505050505050565b611df5612992565b611dfd6129db565b565b5f611e0a8383611222565b611e87575f838152602081815260408083206001600160a01b03861684529091529020805460ff19166001179055611e3f3390565b6001600160a01b0316826001600160a01b0316847f2f8788117e7eff1d82e926ec794901d17c78024a50270940304540a733656f0d60405160405180910390a45060016105f7565b505f6105f7565b610e0881336129fb565b6040516001600160a01b03838116602483015260448201839052610df191859182169063a9059cbb906064015b604051602081830303815290604052915060e01b6020820180516001600160e01b038381831617835250505050612a38565b5f611f028383611222565b15611e87575f838152602081815260408083206001600160a01b0386168085529252808320805460ff1916905551339286917ff6391f5c32d9c69d2a47ea670b442974b53935d1edc7fd64eb21e047a839171b9190a45060016105f7565b611f68612a99565b5f805160206146a8833981519152805460ff191681557f5db9ee0a495bf2e6ff9c91a7834c1ba4fdd244a5e8aa4e537bd38aeae4b073aa335b6040516001600160a01b03909116815260200160405180910390a150565b5f838152600b602052604081206003015460ff166002811115611fe457611fe46134a9565b1461202d5760405162461bcd60e51b81526020600482015260196024820152784170706c69636174696f6e206973206e6f742061637469766560381b6044820152606401610b47565b6010546001600160a01b031661207b5760405162461bcd60e51b8152602060048201526013602482015272151bdad95b8818591b5a5b881b9bdd081cd95d606a1b6044820152606401610b47565b5f838152600b602090815260408083206004810180549085905560038201805460ff1916600117905560159093529083205490926001600160a01b0390911690816122d1576121de845f0180546120d190613a48565b80601f01602080910402602001604051908101604052809291908181526020018280546120fd90613a48565b80156121485780601f1061211f57610100808354040283529160200191612148565b820191905f5260205f20905b81548152906001019060200180831161212b57829003601f168201915b505050505085600101805461215c90613a48565b80601f016020809104026020016040519081016040528092919081815260200182805461218890613a48565b80156121d35780601f106121aa576101008083540402835291602001916121d3565b820191905f5260205f20905b8154815290600101906020018083116121b657829003601f168201915b505050505087612ac8565b9150816001600160a01b031663d6efd7c36040518163ffffffff1660e01b81526004015f60405180830381865afa15801561221b573d5f803e3d5ffd5b505050506040513d5f823e601f3d908101601f191682016040526122429190810190613cbd565b5f8151811061225357612253613d52565b6020908102919091010151600954909150612278906001600160a01b03168385611e98565b604051631672aef960e21b81523060048201526001600160a01b038316906359cabbe4906024015f604051808303815f87803b1580156122b6575f80fd5b505af11580156122c8573d5f803e3d5ffd5b5050505061242b565b6122da82612bdc565b600e549091506122f8906001600160a01b0384811691165f19612d8c565b600e54600954612315916001600160a01b03918216911685612d8c565b600e546009546040516370a0823160e01b81523060048201526001600160a01b039283169263e8e33700928692908216918316906370a0823190602401602060405180830381865afa15801561236d573d5f803e3d5ffd5b505050506040513d601f19601f820116820180604052508101906123919190613bcf565b6040516001600160e01b031960e086901b1681526001600160a01b0393841660048201529290911660248301526044820152606481018690525f6084820181905260a48201523060c48201524260e4820152610104016060604051808303815f875af1158015612403573d5f803e3d5ffd5b505050506040513d601f19601f820116820180604052508101906124279190613d66565b5050505b5f61248b855f016040516020016124429190613e00565b604051602081830303815290604052866001016040516020016124659190613e1b565b60408051601f19818403018152919052600588015485906001600160a01b03168b612e1b565b90505f855f016040516020016124a19190613e30565b60405160208183030381529060405290505f6124d7828489600a0160149054906101000a900463ffffffff168a600b0154612f0b565b90505f60045f9054906101000a90046001600160a01b03166001600160a01b0316635faef81a6040518163ffffffff1660e01b8152600401602060405180830381865afa15801561252a573d5f803e3d5ffd5b505050506040513d601f19601f8201168201806040525081019061254e9190613bcf565b905060045f9054906101000a90046001600160a01b03166001600160a01b0316633f11354a82600c5f9054906101000a90046001600160a01b03168b600201868d6005015f9054906101000a90046001600160a01b03168e6006018c8e6040518963ffffffff1660e01b81526004016125ce989796959493929190613ec8565b6020604051808303815f875af11580156125ea573d5f803e3d5ffd5b505050506040513d601f19601f8201168201806040525081019061260e9190613bcf565b5060088801819055600554600a89015460098a015460048054604051638a54c52f60e01b81526001600160a01b03948516928101929092526024820192909252466044820181905291831660648201526084810185905290925f921690638a54c52f9060a4016020604051808303815f875af1158015612690573d5f803e3d5ffd5b505050506040513d601f19601f820116820180604052508101906126b491906144f1565b6004805460405163190b373360e31b81529293506001600160a01b03169163c859b998916126f89187918691019182526001600160a01b0316602082015260400190565b5f604051808303815f87803b15801561270f575f80fd5b505af1158015612721573d5f803e3d5ffd5b505060405163095ea7b360e01b81526001600160a01b0389811660048301525f1960248301528a16925063095ea7b391506044016020604051808303815f875af1158015612771573d5f803e3d5ffd5b505050506040513d601f19601f82011682018060405250810190612795919061450c565b506040516370a0823160e01b81523060048201526001600160a01b038088169163a7d545db918a16906370a0823190602401602060405180830381865afa1580156127e2573d5f803e3d5ffd5b505050506040513d601f19601f820116820180604052508101906128069190613bcf565b60058d015460115460405160e085901b6001600160e01b031916815260048101939093526001600160a01b0391821660248401521660448201526064015f604051808303815f87803b15801561285a575f80fd5b505af115801561286c573d5f803e3d5ffd5b5050604080518681526001600160a01b038c811660208301528881168284015285811660608301528a811660808301528b1660a082015290517ff9d151d23a5253296eb20ab40959cf48828ea2732d337416716e302ed83ca65893509081900360c0019150a150505050505050505050505050565b6128e9612929565b5f805160206146a8833981519152805460ff191660011781557f62e78cea01bee320cd4e420270b5ea74000d11b0c9f74754ebdbfc544b05a25833611fa1565b5f805160206146a88339815191525460ff1615611dfd5760405163d93c066560e01b815260040160405180910390fd5b6040516001600160a01b038481166024830152838116604483015260648201839052610db89186918216906323b872dd90608401611ec5565b7ff0c57e16840df040f15088dc2f81fe391c3923bec73e23a9662efc9c229c6a0054600160401b900460ff16611dfd57604051631afcd79f60e31b815260040160405180910390fd5b6129e3612992565b5f805160206146a8833981519152805460ff19169055565b612a058282611222565b612a345760405163e2517d3f60e01b81526001600160a01b038216600482015260248101839052604401610b47565b5050565b5f612a4c6001600160a01b03841683612fdd565b905080515f14158015612a70575080806020019051810190612a6e919061450c565b155b15610df157604051635274afe760e01b81526001600160a01b0384166004820152602401610b47565b5f805160206146a88339815191525460ff16611dfd57604051638dfc202b60e01b815260040160405180910390fd5b6002545f90612adf906001600160a01b0316612fea565b604080516060810182526010546001600160a01b039081168252600e54811660208084019190915260095482168385015292519394508416926384b1df5292612b2c918991899101614527565b6040516020818303038152906040528560136040518563ffffffff1660e01b8152600401612b5d949392919061454b565b5f604051808303815f87803b158015612b74575f80fd5b505af1158015612b86573d5f803e3d5ffd5b5050600d80546001810182555f919091527fd7b6990105719101dabeb77144f2a3385c8033acd3af97e9423a695e81ad1eb50180546001600160a01b0319166001600160a01b03851617905550505b9392505050565b5f80600e5f9054906101000a90046001600160a01b03166001600160a01b031663c45a01556040518163ffffffff1660e01b8152600401602060405180830381865afa158015612c2e573d5f803e3d5ffd5b505050506040513d601f19601f82011682018060405250810190612c5291906144f1565b60095460405163e6a4390560e01b81526001600160a01b03868116600483015291821660248201529192505f919083169063e6a4390590604401602060405180830381865afa158015612ca7573d5f803e3d5ffd5b505050506040513d601f19601f82011682018060405250810190612ccb91906144f1565b6001600160a01b031614612d175760405162461bcd60e51b8152602060048201526013602482015272706f6f6c20616c72656164792065786973747360681b6044820152606401610b47565b6009546040516364e329cb60e11b81526001600160a01b03858116600483015291821660248201529082169063c9c65396906044016020604051808303815f875af1158015612d68573d5f803e3d5ffd5b505050506040513d601f19601f82011682018060405250810190612bd591906144f1565b604080516001600160a01b038416602482015260448082018490528251808303909101815260649091019091526020810180516001600160e01b031663095ea7b360e01b179052612ddd8482613054565b610db8576040516001600160a01b0384811660248301525f6044830152612e1191869182169063095ea7b390606401611ec5565b610db88482612a38565b600f545f90612e32906001600160a01b0316612fea565b9050806001600160a01b031663b2193b4d87878688600a5442612e5591906145b5565b600480546040516001600160e01b031960e08a901b168152612e8a9796959493926001600160a01b03909216918c91016145c8565b5f604051808303815f87803b158015612ea1575f80fd5b505af1158015612eb3573d5f803e3d5ffd5b5050600780546001810182555f919091527fa66cc928b5edb82af9bd49922954155ab7b0942694bea4ce44661d9a8736c6880180546001600160a01b0319166001600160a01b03851617905550909695505050505050565b6003545f90612f22906001600160a01b0316612fea565b60048054604051631c63df3560e21b81529293506001600160a01b038085169363718f7cd493612f5d938b938b9391169189918b9101614627565b5f604051808303815f87803b158015612f74575f80fd5b505af1158015612f86573d5f803e3d5ffd5b5050600880546001810182555f919091527ff3f7a9fe364faab93b216da50a3214154f22a0a2b415b23a84c8169e8b636ee30180546001600160a01b0319166001600160a01b038516179055509095945050505050565b6060612bd583835f6130f5565b5f763d602d80600a3d3981f3363d3d373d3d3d363d730000008260601b60e81c175f526e5af43d82803e903d91602b57fd5bf38260781b17602052603760095ff090506001600160a01b038116610fc0576040516330be1a3d60e21b815260040160405180910390fd5b5f805f846001600160a01b03168460405161306f919061466c565b5f604051808303815f865af19150503d805f81146130a8576040519150601f19603f3d011682016040523d82523d5f602084013e6130ad565b606091505b50915091508180156130d75750805115806130d75750808060200190518101906130d7919061450c565b80156130ec57505f856001600160a01b03163b115b95945050505050565b60608147101561311a5760405163cd78605960e01b8152306004820152602401610b47565b5f80856001600160a01b03168486604051613135919061466c565b5f6040518083038185875af1925050503d805f811461316f576040519150601f19603f3d011682016040523d82523d5f602084013e613174565b606091505b509150915061318486838361318e565b9695505050505050565b6060826131a35761319e826131ea565b612bd5565b81511580156131ba57506001600160a01b0384163b155b156131e357604051639996b31560e01b81526001600160a01b0385166004820152602401610b47565b5080612bd5565b8051156131fa5780518082602001fd5b604051630a12f52160e11b815260040160405180910390fd5b604051806101a001604052806060815260200160608152602001606081526020015f6002811115613246576132466134a9565b81525f60208201819052604082018190526060808301526080820181905260a0820181905260c0820181905260e0820181905261010082018190526101209091015290565b828054828255905f5260205f2090601f0160209004810192821561331c579160200282015f5b838211156132ee57835183826101000a81548160ff021916908360ff16021790555092602001926001016020815f010492830192600103026132b1565b801561331a5782816101000a81549060ff02191690556001016020815f010492830192600103026132ee565b505b5061332892915061332c565b5090565b5b80821115613328575f815560010161332d565b5f60208284031215613350575f80fd5b81356001600160e01b031981168114612bd5575f80fd5b6001600160a01b0381168114610e08575f80fd5b8035610fc081613367565b5f805f805f805f805f6101208a8c03121561339f575f80fd5b89356133aa81613367565b985060208a01356133ba81613367565b975060408a01356133ca81613367565b965060608a01356133da81613367565b955060808a01356133ea81613367565b945060a08a01356133fa81613367565b935060c08a0135925060e08a013561341181613367565b809250506101008a013590509295985092959850929598565b5f6020828403121561343a575f80fd5b8135612bd581613367565b5f60208284031215613455575f80fd5b5035919050565b5f5b8381101561347657818101518382015260200161345e565b50505f910152565b5f815180845261349581602086016020860161345c565b601f01601f19169290920160200192915050565b634e487b7160e01b5f52602160045260245ffd5b600381106134d957634e487b7160e01b5f52602160045260245ffd5b9052565b5f815180845260208085019450602084015f5b8381101561350f57815160ff16875295820195908201906001016134f0565b509495945050505050565b602081525f82516101a08060208501526135386101c085018361347e565b91506020850151601f1980868503016040870152613556848361347e565b93506040870151915080868503016060870152613573848361347e565b93506060870151915061358960808701836134bd565b608087015160a087015260a087015191506135af60c08701836001600160a01b03169052565b60c08701519150808685030160e0870152506135cb83826134dd565b60e08701516101008781019190915287015161012080880191909152870151610140808801919091528701519093509050610160613613818701836001600160a01b03169052565b860151905061018061362c8682018363ffffffff169052565b959095015193019290925250919050565b5f805f805f805f60e0888a031215613653575f80fd5b873596506020880135955060408801359450606088013593506080880135925060a0880135915060c088013561368881613367565b8091505092959891949750929550565b5f80604083850312156136a9575f80fd5b8235915060208301356136bb81613367565b809150509250929050565b8015158114610e08575f80fd5b5f80604083850312156136e4575f80fd5b8235915060208301356136bb816136c6565b5f805f8060808587031215613709575f80fd5b843593506020850135925060408501359150606085013561372981613367565b939692955090935050565b5f805f60608486031215613746575f80fd5b833561375181613367565b9250602084013561376181613367565b9150604084013561377181613367565b809150509250925092565b634e487b7160e01b5f52604160045260245ffd5b604051601f8201601f1916810167ffffffffffffffff811182821017156137b9576137b961377c565b604052919050565b5f67ffffffffffffffff8211156137da576137da61377c565b50601f01601f191660200190565b5f82601f8301126137f7575f80fd5b813561380a613805826137c1565b613790565b81815284602083860101111561381e575f80fd5b816020850160208301375f918101602001919091529392505050565b5f67ffffffffffffffff8211156138535761385361377c565b5060051b60200190565b5f82601f83011261386c575f80fd5b8135602061387c6138058361383a565b8083825260208201915060208460051b87010193508684111561389d575f80fd5b602086015b848110156138c757803560ff811681146138ba575f80fd5b83529183019183016138a2565b509695505050505050565b803563ffffffff81168114610fc0575f80fd5b5f805f805f805f80610100898b0312156138fd575f80fd5b883567ffffffffffffffff80821115613914575f80fd5b6139208c838d016137e8565b995060208b0135915080821115613935575f80fd5b6139418c838d016137e8565b985060408b0135915080821115613956575f80fd5b6139628c838d016137e8565b975060608b0135915080821115613977575f80fd5b506139848b828c0161385d565b9550506080890135935061399a60a08a0161337b565b92506139a860c08a016138d2565b915060e089013590509295985092959890939650565b5f805f805f805f60e0888a0312156139d4575f80fd5b87356139df81613367565b9650602088013567ffffffffffffffff8111156139fa575f80fd5b613a068a828b0161385d565b965050604088013594506060880135613a1e81613367565b9350613a2c608089016138d2565b925060a0880135915060c0880135905092959891949750929550565b600181811c90821680613a5c57607f821691505b602082108103610fbe57634e487b7160e01b5f52602260045260245ffd5b601f821115610df157805f5260205f20601f840160051c81016020851015613a9f5750805b601f840160051c820191505b81811015613abe575f8155600101613aab565b5050505050565b815167ffffffffffffffff811115613adf57613adf61377c565b613af381613aed8454613a48565b84613a7a565b602080601f831160018114613b26575f8415613b0f5750858301515b5f19600386901b1c1916600185901b1785556111b3565b5f85815260208120601f198616915b82811015613b5457888601518255948401946001909101908401613b35565b5085821015613b7157878501515f19600388901b60f8161c191681555b5050505050600190811b01905550565b6020808252600e908201526d31b0b73737ba103932b2b73a32b960911b604082015260600190565b6020808252600c908201526b2737ba10383937b837b9b2b960a11b604082015260600190565b5f60208284031215613bdf575f80fd5b5051919050565b5f60208284031215613bf6575f80fd5b815167ffffffffffffffff811115613c0c575f80fd5b8201601f81018413613c1c575f80fd5b8051613c2a613805826137c1565b818152856020838501011115613c3e575f80fd5b6130ec82602083016020860161345c565b60208082526022908201527f496e73756666696369656e7420617373657420746f6b656e20616c6c6f77616e604082015261636560f01b606082015260800190565b634e487b7160e01b5f52601160045260245ffd5b5f60018201613cb657613cb6613c91565b5060010190565b5f6020808385031215613cce575f80fd5b825167ffffffffffffffff811115613ce4575f80fd5b8301601f81018513613cf4575f80fd5b8051613d026138058261383a565b81815260059190911b82018301908381019087831115613d20575f80fd5b928401925b82841015613d47578351613d3881613367565b82529284019290840190613d25565b979650505050505050565b634e487b7160e01b5f52603260045260245ffd5b5f805f60608486031215613d78575f80fd5b8351925060208401519150604084015190509250925092565b5f8154613d9d81613a48565b60018281168015613db55760018114613dca57613df6565b60ff1984168752821515830287019450613df6565b855f526020805f205f5b85811015613ded5781548a820152908401908201613dd4565b50505082870194505b5050505092915050565b66029ba30b5b2b2160cd1b81525f612bd56007830184613d91565b607360f81b81525f612bd56001830184613d91565b5f613e3b8284613d91565b632044414f60e01b81526004019392505050565b5f8154613e5b81613a48565b808552602060018381168015613e785760018114613e9257613ebd565b60ff1985168884015283151560051b880183019550613ebd565b865f52825f205f5b85811015613eb55781548a8201860152908301908401613e9a565b890184019650505b505050505092915050565b5f6101008a8352602060018060a01b03808c16828601526040836040870152613ef38487018d613e4f565b6060838d1660608901526080848d1660808a015260a0945088830360a08a0152828c54613f24818690815260200190565b5f8f81526020812096509092505b81601f8201101561417d57855460ff8082168552600882901c81168b860152601082901c811689860152601882901c811687860152818b1c811686860152602882901c81168a86015260c0613f90818701838560301c1660ff169052565b60e0613fa5818801848660381c1660ff169052565b60ff848c1c841616878f0152613fc66101208801848660481c1660ff169052565b613fdb6101408801848660501c1660ff169052565b613ff06101608801848660581c1660ff169052565b60ff848a1c8416166101808801526140136101a08801848660681c1660ff169052565b6140286101c08801848660701c1660ff169052565b61403d6101e08801848660781c1660ff169052565b60ff84891c8416166102008801526140606102208801848660881c1660ff169052565b6140756102408801848660901c1660ff169052565b61408a6102608801848660981c1660ff169052565b60ff848d1c8416166102808801526140ad6102a08801848660a81c1660ff169052565b6140c26102c08801848660b01c1660ff169052565b6140d76102e08801848660b81c1660ff169052565b60ff84831c8416166103008801526140fa6103208801848660c81c1660ff169052565b61410f6103408801848660d01c1660ff169052565b6141246103608801848660d81c1660ff169052565b60ff84821c84161661038088015250506141496103a08601828460e81c1660ff169052565b61415e6103c08601828460f01c1660ff169052565b5060f81c6103e084015260019590950194610400909201918801613f32565b85549950818110156141975760ff8a168352918801916001015b818110156141b15760088a901c60ff168352918801916001015b818110156141cb5760108a901c60ff168352918801916001015b818110156141e55760188a901c60ff168352918801916001015b818110156141fd5789891c60ff168352918801916001015b818110156142175760288a901c60ff168352918801916001015b818110156142315760308a901c60ff168352918801916001015b8181101561424b5760388a901c60ff168352918801916001015b818110156142655760408a901c60ff168352918801916001015b8181101561427f5760488a901c60ff168352918801916001015b818110156142995760508a901c60ff168352918801916001015b818110156142b35760588a901c60ff168352918801916001015b818110156142cd5760608a901c60ff168352918801916001015b818110156142e75760688a901c60ff168352918801916001015b818110156143015760708a901c60ff168352918801916001015b8181101561431b5760788a901c60ff168352918801916001015b818110156143355760808a901c60ff168352918801916001015b8181101561434f5760888a901c60ff168352918801916001015b818110156143695760908a901c60ff168352918801916001015b818110156143835760988a901c60ff168352918801916001015b8181101561439d5760a08a901c60ff168352918801916001015b818110156143b75760a88a901c60ff168352918801916001015b818110156143d15760b08a901c60ff168352918801916001015b818110156143eb5760b88a901c60ff168352918801916001015b818110156144055760c08a901c60ff168352918801916001015b8181101561441f5760c88a901c60ff168352918801916001015b818110156144395760d08a901c60ff168352918801916001015b818110156144535760d88a901c60ff168352918801916001015b8181101561446d5760e08a901c60ff168352918801916001015b818110156144875760e88a901c60ff168352918801916001015b818110156144a15760f08a901c60ff168352918801916001015b818110156144b55760f88a901c8352918801915b50506001600160a01b038c1660c08b015297506144d59650505050505050565b6001600160a01b03831660e08301529998505050505050505050565b5f60208284031215614501575f80fd5b8151612bd581613367565b5f6020828403121561451c575f80fd5b8151612bd5816136c6565b604081525f614539604083018561347e565b82810360208401526130ec818561347e565b5f8186825b60038110156145785781516001600160a01b0316835260209283019290910190600101614550565b50505060c0606083015261458f60c083018661347e565b82810360808401526145a1818661347e565b905082810360a0840152613d478185613e4f565b808201808211156105f7576105f7613c91565b60e081525f6145da60e083018a61347e565b82810360208401526145ec818a61347e565b6001600160a01b039889166040850152968816606084015250506080810193909352931660a082015291151560c09092019190915292915050565b60a081525f61463960a083018861347e565b6001600160a01b039687166020840152949095166040820152606081019290925263ffffffff1660809091015292915050565b5f825161467d81846020870161345c565b919091019291505056fe5d8e12c39142ff96d79d04d15d1ba1269e4fe57bb9d26f43523628b34ba108eccd5ed15c6e187e77e9aee88184c21f4f2182ab5827cb3b7e07fbedcd63f03300a264697066735822122084f6e9cb2744aad00850baf28c37978152a95966ede885e0e5f11215cf6042f864736f6c63430008160033","linkReferences":{}},"methodIdentifiers":{"DEFAULT_ADMIN_ROLE()":"a217fddf","WITHDRAW_ROLE()":"e02023a1","allDAOs(uint256)":"b4136bd8","allTokens(uint256)":"634282af","allTradingTokens(uint256)":"e887b1cc","applicationThreshold()":"ddf44275","assetToken()":"1083f761","daoImplementation()":"9d699326","defaultDelegatee()":"0c4cb55c","executeApplication(uint256,bool)":"aa3d000a","executeTokenApplication(uint256,bool)":"4c88672a","getApplication(uint256)":"1f2f4bfd","getRoleAdmin(bytes32)":"248a9ca3","getTokenApplication(address)":"1bbb8689","grantRole(bytes32,address)":"2f2ff15d","hasRole(bytes32,address)":"91d14854","initFromToken(address,uint8[],bytes32,address,uint32,uint256,uint256)":"fc98f079","initialize(address,address,address,address,address,address,uint256,address,uint256)":"0f07646a","isCompatibleToken(address)":"449664c0","maturityDuration()":"063513b7","nft()":"47ccca02","pause()":"8456cb59","paused()":"5c975abb","proposeAgent(string,string,string,uint8[],bytes32,address,uint32,uint256)":"9e4ec30a","renounceRole(bytes32,address)":"36568abe","revokeRole(bytes32,address)":"d547741f","setApplicationThreshold(uint256)":"bd1cf258","setAssetToken(address)":"26bde5aa","setDefaultDelegatee(address)":"9d7b6842","setImplementations(address,address,address)":"9300d238","setMaturityDuration(uint256)":"d739ac29","setTokenAdmin(address)":"f7457594","setTokenSupplyParams(uint256,uint256,uint256,uint256,uint256,uint256,address)":"2a7d4a1f","setTokenTaxParams(uint256,uint256,uint256,address)":"5ca3cedf","setUniswapRouter(address)":"bea9849e","setVault(address)":"6817031b","supportsInterface(bytes4)":"01ffc9a7","tbaRegistry()":"468d198d","tokenImplementation()":"2f3a3d5d","totalAgents()":"c5053712","unpause()":"3f4ba83a","veTokenImplementation()":"9cbe0bac","withdraw(uint256)":"2e1a7d4d"},"id":9}