{"abi":[{"type":"constructor","inputs":[],"stateMutability":"nonpayable"},{"type":"function","name":"ADMIN_ROLE","inputs":[],"outputs":[{"name":"","type":"bytes32","internalType":"bytes32"}],"stateMutability":"view"},{"type":"function","name":"DEFAULT_ADMIN_ROLE","inputs":[],"outputs":[{"name":"","type":"bytes32","internalType":"bytes32"}],"stateMutability":"view"},{"type":"function","name":"EXECUTOR_ROLE","inputs":[],"outputs":[{"name":"","type":"bytes32","internalType":"bytes32"}],"stateMutability":"view"},{"type":"function","name":"assetToken","inputs":[],"outputs":[{"name":"","type":"address","internalType":"contract IERC20"}],"stateMutability":"view"},{"type":"function","name":"bonusRate","inputs":[],"outputs":[{"name":"","type":"uint16","internalType":"uint16"}],"stateMutability":"view"},{"type":"function","name":"distributeBonus","inputs":[{"name":"agentId","type":"uint256","internalType":"uint256"},{"name":"recipient","type":"address","internalType":"address"},{"name":"amount","type":"uint256","internalType":"uint256"}],"outputs":[],"stateMutability":"nonpayable"},{"type":"function","name":"getRoleAdmin","inputs":[{"name":"role","type":"bytes32","internalType":"bytes32"}],"outputs":[{"name":"","type":"bytes32","internalType":"bytes32"}],"stateMutability":"view"},{"type":"function","name":"grantRole","inputs":[{"name":"role","type":"bytes32","internalType":"bytes32"},{"name":"account","type":"address","internalType":"address"}],"outputs":[],"stateMutability":"nonpayable"},{"type":"function","name":"hasRole","inputs":[{"name":"role","type":"bytes32","internalType":"bytes32"},{"name":"account","type":"address","internalType":"address"}],"outputs":[{"name":"","type":"bool","internalType":"bool"}],"stateMutability":"view"},{"type":"function","name":"initialize","inputs":[{"name":"defaultAdmin_","type":"address","internalType":"address"},{"name":"assetToken_","type":"address","internalType":"address"}],"outputs":[],"stateMutability":"nonpayable"},{"type":"function","name":"renounceRole","inputs":[{"name":"role","type":"bytes32","internalType":"bytes32"},{"name":"callerConfirmation","type":"address","internalType":"address"}],"outputs":[],"stateMutability":"nonpayable"},{"type":"function","name":"revokeRole","inputs":[{"name":"role","type":"bytes32","internalType":"bytes32"},{"name":"account","type":"address","internalType":"address"}],"outputs":[],"stateMutability":"nonpayable"},{"type":"function","name":"setAllowances","inputs":[{"name":"agentIds","type":"uint256[]","internalType":"uint256[]"},{"name":"allowances","type":"uint256[]","internalType":"uint256[]"}],"outputs":[],"stateMutability":"nonpayable"},{"type":"function","name":"supportsInterface","inputs":[{"name":"interfaceId","type":"bytes4","internalType":"bytes4"}],"outputs":[{"name":"","type":"bool","internalType":"bool"}],"stateMutability":"view"},{"type":"function","name":"updateBonusRate","inputs":[{"name":"bonusRate_","type":"uint16","internalType":"uint16"}],"outputs":[],"stateMutability":"nonpayable"},{"type":"event","name":"AllowanceUpdated","inputs":[{"name":"agentId","type":"uint256","indexed":false,"internalType":"uint256"},{"name":"newAllowance","type":"uint256","indexed":false,"internalType":"uint256"}],"anonymous":false},{"type":"event","name":"BonusRateUpdated","inputs":[{"name":"oldBonusRate","type":"uint16","indexed":false,"internalType":"uint16"},{"name":"newBonusRate","type":"uint16","indexed":false,"internalType":"uint16"}],"anonymous":false},{"type":"event","name":"Initialized","inputs":[{"name":"version","type":"uint64","indexed":false,"internalType":"uint64"}],"anonymous":false},{"type":"event","name":"PaidAgent","inputs":[{"name":"agentId","type":"uint256","indexed":false,"internalType":"uint256"},{"name":"amount","type":"uint256","indexed":false,"internalType":"uint256"}],"anonymous":false},{"type":"event","name":"RoleAdminChanged","inputs":[{"name":"role","type":"bytes32","indexed":true,"internalType":"bytes32"},{"name":"previousAdminRole","type":"bytes32","indexed":true,"internalType":"bytes32"},{"name":"newAdminRole","type":"bytes32","indexed":true,"internalType":"bytes32"}],"anonymous":false},{"type":"event","name":"RoleGranted","inputs":[{"name":"role","type":"bytes32","indexed":true,"internalType":"bytes32"},{"name":"account","type":"address","indexed":true,"internalType":"address"},{"name":"sender","type":"address","indexed":true,"internalType":"address"}],"anonymous":false},{"type":"event","name":"RoleRevoked","inputs":[{"name":"role","type":"bytes32","indexed":true,"internalType":"bytes32"},{"name":"account","type":"address","indexed":true,"internalType":"address"},{"name":"sender","type":"address","indexed":true,"internalType":"address"}],"anonymous":false},{"type":"error","name":"AccessControlBadConfirmation","inputs":[]},{"type":"error","name":"AccessControlUnauthorizedAccount","inputs":[{"name":"account","type":"address","internalType":"address"},{"name":"neededRole","type":"bytes32","internalType":"bytes32"}]},{"type":"error","name":"AddressEmptyCode","inputs":[{"name":"target","type":"address","internalType":"address"}]},{"type":"error","name":"AddressInsufficientBalance","inputs":[{"name":"account","type":"address","internalType":"address"}]},{"type":"error","name":"FailedInnerCall","inputs":[]},{"type":"error","name":"InvalidInitialization","inputs":[]},{"type":"error","name":"NotInitializing","inputs":[]},{"type":"error","name":"SafeERC20FailedOperation","inputs":[{"name":"token","type":"address","internalType":"address"}]}],"bytecode":{"object":"0x608060405234801561000f575f80fd5b5061001861001d565b6100cf565b7ff0c57e16840df040f15088dc2f81fe391c3923bec73e23a9662efc9c229c6a00805468010000000000000000900460ff161561006d5760405163f92ee8a960e01b815260040160405180910390fd5b80546001600160401b03908116146100cc5780546001600160401b0319166001600160401b0390811782556040519081527fc7f505b2f371ae2175ee4913f4499e1f2633a7b5936321eed1cdaeb6115181d29060200160405180910390a15b50565b610fbd806100dc5f395ff3fe608060405234801561000f575f80fd5b50600436106100f0575f3560e01c8063485cc95511610093578063a217fddf11610063578063a217fddf14610229578063ccded28614610230578063d269f0b714610243578063d547741f14610256575f80fd5b8063485cc955146101cf5780635af123f4146101e257806375b238fc1461020257806391d1485414610216575f80fd5b8063248a9ca3116100ce578063248a9ca3146101815780632f2ff15d1461019457806336568abe146101a957806339bc9783146101bc575f80fd5b806301ffc9a7146100f457806307bd02651461011c5780631083f76114610151575b5f80fd5b610107610102366004610c54565b610269565b60405190151581526020015b60405180910390f35b6101437fd8aa0f3194971a2a116679f7c2090f6939c8d4e01a2a8d7e41d55e5351469e6381565b604051908152602001610113565b5f54610169906201000090046001600160a01b031681565b6040516001600160a01b039091168152602001610113565b61014361018f366004610c7b565b61029f565b6101a76101a2366004610cad565b6102bf565b005b6101a76101b7366004610cad565b6102e1565b6101a76101ca366004610cd7565b610319565b6101a76101dd366004610d09565b61053b565b5f546101ef9061ffff1681565b60405161ffff9091168152602001610113565b6101435f80516020610f6883398151915281565b610107610224366004610cad565b610696565b6101435f81565b6101a761023e366004610de0565b6106cc565b6101a7610251366004610e40565b610830565b6101a7610264366004610cad565b61089c565b5f6001600160e01b03198216637965db0b60e01b148061029957506301ffc9a760e01b6001600160e01b03198316145b92915050565b5f9081525f80516020610f48833981519152602052604090206001015490565b6102c88261029f565b6102d1816108b8565b6102db83836108c5565b50505050565b6001600160a01b038116331461030a5760405163334bd91960e11b815260040160405180910390fd5b6103148282610966565b505050565b5f83116103605760405162461bcd60e51b815260206004820152601060248201526f125b9d985b1a59081859d95b9d08125160821b60448201526064015b60405180910390fd5b6001600160a01b0382166103aa5760405162461bcd60e51b8152602060048201526011602482015270125b9d985b1a59081c9958da5c1a595b9d607a1b6044820152606401610357565b8015806103de57506103dc7fd8aa0f3194971a2a116679f7c2090f6939c8d4e01a2a8d7e41d55e5351469e6333610696565b155b156103e857505050565b5f83815260026020908152604080832054600190925282205461040b9190610e75565b5f805491925090612710906104249061ffff1685610e88565b61042e9190610e9f565b90508181111561043b5750805b5f811180156104b757505f546040516370a0823160e01b815230600482015282916201000090046001600160a01b0316906370a0823190602401602060405180830381865afa158015610490573d5f803e3d5ffd5b505050506040513d601f19601f820116820180604052508101906104b49190610ebe565b10155b15610534575f85815260026020526040812080548392906104d9908490610ed5565b90915550505f546104fa906201000090046001600160a01b031685836109df565b60408051868152602081018390527f4ada13b2fbbe5cded7980d11456a07d339c09fd8510087f7ba973da4ea1a60d8910160405180910390a15b5050505050565b7ff0c57e16840df040f15088dc2f81fe391c3923bec73e23a9662efc9c229c6a008054600160401b810460ff16159067ffffffffffffffff165f811580156105805750825b90505f8267ffffffffffffffff16600114801561059c5750303b155b9050811580156105aa575080155b156105c85760405163f92ee8a960e01b815260040160405180910390fd5b845467ffffffffffffffff1916600117855583156105f257845460ff60401b1916600160401b1785555b6105fa610a31565b6106115f80516020610f68833981519152886108c5565b5061061c5f886108c5565b505f805461ffff196001600160a01b0389166201000002166001600160b01b031990911617610dac179055831561068d57845460ff60401b19168555604051600181527fc7f505b2f371ae2175ee4913f4499e1f2633a7b5936321eed1cdaeb6115181d29060200160405180910390a15b50505050505050565b5f9182525f80516020610f48833981519152602090815260408084206001600160a01b0393909316845291905290205460ff1690565b5f80516020610f688339815191526106e3816108b8565b81518351146107245760405162461bcd60e51b815260206004820152600d60248201526c125b9d985b1a59081a5b9c1d5d609a1b6044820152606401610357565b5f5b83518110156102db575f84828151811061074257610742610ee8565b602002602001015190505f84838151811061075f5761075f610ee8565b6020026020010151905060025f8381526020019081526020015f20548110156107dc5760405162461bcd60e51b815260206004820152602960248201527f416c6c6f77616e63652063616e6e6f74206265206c657373207468616e2070616044820152681a5908185b5bdd5b9d60ba1b6064820152608401610357565b5f8281526001602090815260409182902083905581518481529081018390527fd272f74aeb55de396ac593d01d2424ca7f9c1f8bfdbc368650c2cc49b0424507910160405180910390a15050600101610726565b5f80516020610f68833981519152610847816108b8565b5f805461ffff84811661ffff198316811790935560408051938452911660208301819052917f17ecb9fa6da5ae667729ab9753915755c1562870b3319551fa655d4f68adb4d8910160405180910390a1505050565b6108a58261029f565b6108ae816108b8565b6102db8383610966565b6108c28133610a3b565b50565b5f5f80516020610f488339815191526108de8484610696565b61095d575f848152602082815260408083206001600160a01b03871684529091529020805460ff191660011790556109133390565b6001600160a01b0316836001600160a01b0316857f2f8788117e7eff1d82e926ec794901d17c78024a50270940304540a733656f0d60405160405180910390a46001915050610299565b5f915050610299565b5f5f80516020610f4883398151915261097f8484610696565b1561095d575f848152602082815260408083206001600160a01b0387168085529252808320805460ff1916905551339287917ff6391f5c32d9c69d2a47ea670b442974b53935d1edc7fd64eb21e047a839171b9190a46001915050610299565b604080516001600160a01b038416602482015260448082018490528251808303909101815260649091019091526020810180516001600160e01b031663a9059cbb60e01b179052610314908490610a78565b610a39610ad9565b565b610a458282610696565b610a745760405163e2517d3f60e01b81526001600160a01b038216600482015260248101839052604401610357565b5050565b5f610a8c6001600160a01b03841683610b22565b905080515f14158015610ab0575080806020019051810190610aae9190610efc565b155b1561031457604051635274afe760e01b81526001600160a01b0384166004820152602401610357565b7ff0c57e16840df040f15088dc2f81fe391c3923bec73e23a9662efc9c229c6a0054600160401b900460ff16610a3957604051631afcd79f60e31b815260040160405180910390fd5b6060610b2f83835f610b36565b9392505050565b606081471015610b5b5760405163cd78605960e01b8152306004820152602401610357565b5f80856001600160a01b03168486604051610b769190610f1b565b5f6040518083038185875af1925050503d805f8114610bb0576040519150601f19603f3d011682016040523d82523d5f602084013e610bb5565b606091505b5091509150610bc5868383610bcf565b9695505050505050565b606082610be457610bdf82610c2b565b610b2f565b8151158015610bfb57506001600160a01b0384163b155b15610c2457604051639996b31560e01b81526001600160a01b0385166004820152602401610357565b5080610b2f565b805115610c3b5780518082602001fd5b604051630a12f52160e11b815260040160405180910390fd5b5f60208284031215610c64575f80fd5b81356001600160e01b031981168114610b2f575f80fd5b5f60208284031215610c8b575f80fd5b5035919050565b80356001600160a01b0381168114610ca8575f80fd5b919050565b5f8060408385031215610cbe575f80fd5b82359150610cce60208401610c92565b90509250929050565b5f805f60608486031215610ce9575f80fd5b83359250610cf960208501610c92565b9150604084013590509250925092565b5f8060408385031215610d1a575f80fd5b610d2383610c92565b9150610cce60208401610c92565b634e487b7160e01b5f52604160045260245ffd5b5f82601f830112610d54575f80fd5b8135602067ffffffffffffffff80831115610d7157610d71610d31565b8260051b604051601f19603f83011681018181108482111715610d9657610d96610d31565b6040529384526020818701810194908101925087851115610db5575f80fd5b6020870191505b84821015610dd557813583529183019190830190610dbc565b979650505050505050565b5f8060408385031215610df1575f80fd5b823567ffffffffffffffff80821115610e08575f80fd5b610e1486838701610d45565b93506020850135915080821115610e29575f80fd5b50610e3685828601610d45565b9150509250929050565b5f60208284031215610e50575f80fd5b813561ffff81168114610b2f575f80fd5b634e487b7160e01b5f52601160045260245ffd5b8181038181111561029957610299610e61565b808202811582820484141761029957610299610e61565b5f82610eb957634e487b7160e01b5f52601260045260245ffd5b500490565b5f60208284031215610ece575f80fd5b5051919050565b8082018082111561029957610299610e61565b634e487b7160e01b5f52603260045260245ffd5b5f60208284031215610f0c575f80fd5b81518015158114610b2f575f80fd5b5f82515f5b81811015610f3a5760208186018101518583015201610f20565b505f92019182525091905056fe02dd7bc7dec4dceedda775e58dd541e08a116c6c53815c0bd028192f7b626800a49807205ce4d355092ef5a8a18f56e8913cf4a201fbe287825b095693c21775a26469706673582212201748785d9127d6e84351ad31722fe2fc77c0ab03431b20ecbd44617c41becf7164736f6c63430008160033","linkReferences":{}},"methodIdentifiers":{"ADMIN_ROLE()":"75b238fc","DEFAULT_ADMIN_ROLE()":"a217fddf","EXECUTOR_ROLE()":"07bd0265","assetToken()":"1083f761","bonusRate()":"5af123f4","distributeBonus(uint256,address,uint256)":"39bc9783","getRoleAdmin(bytes32)":"248a9ca3","grantRole(bytes32,address)":"2f2ff15d","hasRole(bytes32,address)":"91d14854","initialize(address,address)":"485cc955","renounceRole(bytes32,address)":"36568abe","revokeRole(bytes32,address)":"d547741f","setAllowances(uint256[],uint256[])":"ccded286","supportsInterface(bytes4)":"01ffc9a7","updateBonusRate(uint16)":"d269f0b7"},"id":47}