{"abi":[{"type":"constructor","inputs":[{"name":"_initialSupply","type":"uint256","internalType":"uint256"},{"name":"initialOwner","type":"address","internalType":"address"}],"stateMutability":"nonpayable"},{"type":"function","name":"allowance","inputs":[{"name":"owner","type":"address","internalType":"address"},{"name":"spender","type":"address","internalType":"address"}],"outputs":[{"name":"","type":"uint256","internalType":"uint256"}],"stateMutability":"view"},{"type":"function","name":"approve","inputs":[{"name":"spender","type":"address","internalType":"address"},{"name":"value","type":"uint256","internalType":"uint256"}],"outputs":[{"name":"","type":"bool","internalType":"bool"}],"stateMutability":"nonpayable"},{"type":"function","name":"balanceOf","inputs":[{"name":"account","type":"address","internalType":"address"}],"outputs":[{"name":"","type":"uint256","internalType":"uint256"}],"stateMutability":"view"},{"type":"function","name":"cap","inputs":[],"outputs":[{"name":"","type":"uint256","internalType":"uint256"}],"stateMutability":"view"},{"type":"function","name":"decimals","inputs":[],"outputs":[{"name":"","type":"uint8","internalType":"uint8"}],"stateMutability":"view"},{"type":"function","name":"mint","inputs":[{"name":"_to","type":"address","internalType":"address"},{"name":"_amount","type":"uint256","internalType":"uint256"}],"outputs":[],"stateMutability":"nonpayable"},{"type":"function","name":"name","inputs":[],"outputs":[{"name":"","type":"string","internalType":"string"}],"stateMutability":"view"},{"type":"function","name":"owner","inputs":[],"outputs":[{"name":"","type":"address","internalType":"address"}],"stateMutability":"view"},{"type":"function","name":"renounceOwnership","inputs":[],"outputs":[],"stateMutability":"nonpayable"},{"type":"function","name":"symbol","inputs":[],"outputs":[{"name":"","type":"string","internalType":"string"}],"stateMutability":"view"},{"type":"function","name":"totalSupply","inputs":[],"outputs":[{"name":"","type":"uint256","internalType":"uint256"}],"stateMutability":"view"},{"type":"function","name":"transfer","inputs":[{"name":"to","type":"address","internalType":"address"},{"name":"value","type":"uint256","internalType":"uint256"}],"outputs":[{"name":"","type":"bool","internalType":"bool"}],"stateMutability":"nonpayable"},{"type":"function","name":"transferFrom","inputs":[{"name":"from","type":"address","internalType":"address"},{"name":"to","type":"address","internalType":"address"},{"name":"value","type":"uint256","internalType":"uint256"}],"outputs":[{"name":"","type":"bool","internalType":"bool"}],"stateMutability":"nonpayable"},{"type":"function","name":"transferOwnership","inputs":[{"name":"newOwner","type":"address","internalType":"address"}],"outputs":[],"stateMutability":"nonpayable"},{"type":"event","name":"Approval","inputs":[{"name":"owner","type":"address","indexed":true,"internalType":"address"},{"name":"spender","type":"address","indexed":true,"internalType":"address"},{"name":"value","type":"uint256","indexed":false,"internalType":"uint256"}],"anonymous":false},{"type":"event","name":"OwnershipTransferred","inputs":[{"name":"previousOwner","type":"address","indexed":true,"internalType":"address"},{"name":"newOwner","type":"address","indexed":true,"internalType":"address"}],"anonymous":false},{"type":"event","name":"Transfer","inputs":[{"name":"from","type":"address","indexed":true,"internalType":"address"},{"name":"to","type":"address","indexed":true,"internalType":"address"},{"name":"value","type":"uint256","indexed":false,"internalType":"uint256"}],"anonymous":false},{"type":"error","name":"ERC20ExceededCap","inputs":[{"name":"increasedSupply","type":"uint256","internalType":"uint256"},{"name":"cap","type":"uint256","internalType":"uint256"}]},{"type":"error","name":"ERC20InsufficientAllowance","inputs":[{"name":"spender","type":"address","internalType":"address"},{"name":"allowance","type":"uint256","internalType":"uint256"},{"name":"needed","type":"uint256","internalType":"uint256"}]},{"type":"error","name":"ERC20InsufficientBalance","inputs":[{"name":"sender","type":"address","internalType":"address"},{"name":"balance","type":"uint256","internalType":"uint256"},{"name":"needed","type":"uint256","internalType":"uint256"}]},{"type":"error","name":"ERC20InvalidApprover","inputs":[{"name":"approver","type":"address","internalType":"address"}]},{"type":"error","name":"ERC20InvalidCap","inputs":[{"name":"cap","type":"uint256","internalType":"uint256"}]},{"type":"error","name":"ERC20InvalidReceiver","inputs":[{"name":"receiver","type":"address","internalType":"address"}]},{"type":"error","name":"ERC20InvalidSender","inputs":[{"name":"sender","type":"address","internalType":"address"}]},{"type":"error","name":"ERC20InvalidSpender","inputs":[{"name":"spender","type":"address","internalType":"address"}]},{"type":"error","name":"OwnableInvalidOwner","inputs":[{"name":"owner","type":"address","internalType":"address"}]},{"type":"error","name":"OwnableUnauthorizedAccount","inputs":[{"name":"account","type":"address","internalType":"address"}]}],"bytecode":{"object":"0x60a034620004565762000db990601f90601f19906001600160401b03388590038481018416830190828211848310176200036357808491604098899485528339810103126200045657815160209283015190936001600160a01b0392838316928390036200045657620000716200045a565b96601088526f159a5c9d1d585b08141c9bdd1bd8dbdb60821b86890152620000986200045a565b9760078952661592549515505360ca1b878a0152805191838311620003635760039283546001938482811c921680156200044b575b8b83101462000437578184849311620003e4575b508a9084831160011462000383575f9262000377575b50505f1982861b1c191690831b1783555b895193841162000363576004998a548381811c9116801562000358575b8a8210146200034557828111620002fd575b50889185116001146200029857849550908492915f956200028c575b50501b925f19911b1c19161785555b6b033b2e3c9fd0803ce800000060805280156200027657600580546001600160a01b031981168317909155865192167f8be0079c531659141344cd1fd0a4f28419497f9722a3daafe3b4186f6b6457e05f80a333156200026257506002548281018091116200024f575f917fddf252ad1be2c89b69c2b068fc378daa952ba7f163c4a11628f55a4df523b3ef9160025533835282815285832084815401905585519384523393a36080516002548181116200023657835161093e90816200047b823960805181818161041f01526104a30152f35b604493519263279e7e1560e21b84528301526024820152fd5b601184634e487b7160e01b5f525260245ffd5b63ec442f0560e01b81525f84820152602490fd5b8551631e4fbdf760e01b81525f81870152602490fd5b015193505f8062000153565b9291948416928a5f5284895f20945f5b8b89838310620002e55750505010620002cb575b50505050811b01855562000162565b01519060f8845f19921b161c191690555f808080620002bc565b868601518955909701969485019488935001620002a8565b8b5f52895f208380880160051c8201928c89106200033b575b0160051c019084905b8281106200032f57505062000137565b5f81550184906200031f565b9250819262000316565b60228c634e487b7160e01b5f525260245ffd5b90607f169062000125565b634e487b7160e01b5f52604160045260245ffd5b015190505f80620000f7565b908886941691875f528c5f20928d5f905b828210620003cc5750508411620003b4575b505050811b01835562000108565b01515f1983881b60f8161c191690555f8080620003a6565b83850151865589979095019493840193018e62000394565b909150855f528a5f208480850160051c8201928d86106200042d575b918791869594930160051c01915b8281106200041e575050620000e1565b5f81558594508791016200040e565b9250819262000400565b634e487b7160e01b5f52602260045260245ffd5b91607f1691620000cd565b5f80fd5b60408051919082016001600160401b03811183821017620003635760405256fe608060409080825260049081361015610016575f80fd5b5f3560e01c90816306fdde031461069957508063095ea7b3146105f057806318160ddd146105d257806323b872dd146104e1578063313ce567146104c6578063355274ea1461048c57806340c10f191461039d57806370a0823114610367578063715018a61461030c5780638da5cb5b146102e457806395d89b41146101c4578063a9059cbb14610194578063dd62ed3e1461014b5763f2fde38b146100ba575f80fd5b34610147576020366003190112610147576100d36107d6565b906100dc6108dc565b6001600160a01b03918216928315610131575050600554826bffffffffffffffffffffffff60a01b821617600555167f8be0079c531659141344cd1fd0a4f28419497f9722a3daafe3b4186f6b6457e05f80a3005b905f6024925191631e4fbdf760e01b8352820152fd5b5f80fd5b82346101475780600319360112610147576020906101676107d6565b61016f6107ec565b9060018060a01b038091165f5260018452825f2091165f528252805f20549051908152f35b82346101475780600319360112610147576020906101bd6101b36107d6565b6024359033610802565b5160018152f35b509034610147575f366003190112610147578051905f835460018160011c90600183169283156102da575b60209384841081146102c7578388529081156102ab5750600114610257575b505050829003601f01601f191682019267ffffffffffffffff841183851017610244575082918261024092528261078f565b0390f35b604190634e487b7160e01b5f525260245ffd5b5f878152929350837f8a35acfbc15ff81a39ae7d344fd709f28e8600b4aa8c65c6b64bfe7fe36bd19b5b83851061029757505050508301015f808061020e565b805488860183015293019284908201610281565b60ff1916878501525050151560051b84010190505f808061020e565b602289634e487b7160e01b5f525260245ffd5b91607f16916101ef565b8234610147575f3660031901126101475760055490516001600160a01b039091168152602090f35b34610147575f366003190112610147576103246108dc565b600580546001600160a01b031981169091555f906001600160a01b03167f8be0079c531659141344cd1fd0a4f28419497f9722a3daafe3b4186f6b6457e08280a3005b8234610147576020366003190112610147576020906001600160a01b0361038c6107d6565b165f525f8252805f20549051908152f35b50346101475781600319360112610147576103b66107d6565b602435906103c26108dc565b6001600160a01b0316908115610476576002548181018091116104635760205f927fddf252ad1be2c89b69c2b068fc378daa952ba7f163c4a11628f55a4df523b3ef926002558484528382528684208181540190558651908152a37f000000000000000000000000000000000000000000000000000000000000000060025481811161044a57005b604493519263279e7e1560e21b84528301526024820152fd5b601184634e487b7160e01b5f525260245ffd5b835163ec442f0560e01b81525f81850152602490fd5b8234610147575f36600319011261014757602090517f00000000000000000000000000000000000000000000000000000000000000008152f35b8234610147575f366003190112610147576020905160128152f35b5034610147576060366003190112610147576104fb6107d6565b6105036107ec565b906044359260018060a01b038216805f526001602052855f20335f52602052855f2054915f19830361053e575b6020876101bd888888610802565b8583106105a657811561059057331561057a57505f908152600160209081528682203383528152908690209185900390915582906101bd610530565b6024905f885191634a1406b160e11b8352820152fd5b6024905f88519163e602df0560e01b8352820152fd5b8651637dc7a0d960e11b8152339181019182526020820193909352604081018690528291506060010390fd5b8234610147575f366003190112610147576020906002549051908152f35b50903461014757806003193601126101475761060a6107d6565b602435903315610683576001600160a01b031690811561066d5760209350335f5260018452825f20825f52845280835f205582519081527f8c5be1e5ebec7d5bd14f71427d1e84f3dd0314c0f7b2291e5b200ac8c7c3b925843392a35160018152f35b8251634a1406b160e11b81525f81860152602490fd5b825163e602df0560e01b81525f81860152602490fd5b90508234610147575f366003190112610147575f60035460018160011c9060018316928315610785575b60209384841081146102c757838852908115610769575060011461071357505050829003601f01601f191682019267ffffffffffffffff841183851017610244575082918261024092528261078f565b60035f908152929350837fc2575a0e9e593c00f959f8c92f12db2869c3395a3b0502d05e2516446f71f85b5b838510610755575050505083010184808061020e565b80548886018301529301928490820161073f565b60ff1916878501525050151560051b840101905084808061020e565b91607f16916106c3565b602080825282518183018190529093925f5b8281106107c257505060409293505f838284010152601f8019910116010190565b8181018601518482016040015285016107a1565b600435906001600160a01b038216820361014757565b602435906001600160a01b038216820361014757565b916001600160a01b038084169283156108c457169283156108ac57825f525f60205260405f20549082821061087a5750817fddf252ad1be2c89b69c2b068fc378daa952ba7f163c4a11628f55a4df523b3ef92602092855f525f84520360405f2055845f5260405f20818154019055604051908152a3565b60405163391434e360e21b81526001600160a01b03919091166004820152602481019190915260448101829052606490fd5b60405163ec442f0560e01b81525f6004820152602490fd5b604051634b637e8f60e11b81525f6004820152602490fd5b6005546001600160a01b031633036108f057565b60405163118cdaa760e01b8152336004820152602490fdfea26469706673582212209dc3693fbde59f2677e21798346ec94599ebf416affbc162cc67b038d5ffb04c64736f6c63430008160033","linkReferences":{}},"methodIdentifiers":{"allowance(address,address)":"dd62ed3e","approve(address,uint256)":"095ea7b3","balanceOf(address)":"70a08231","cap()":"355274ea","decimals()":"313ce567","mint(address,uint256)":"40c10f19","name()":"06fdde03","owner()":"8da5cb5b","renounceOwnership()":"715018a6","symbol()":"95d89b41","totalSupply()":"18160ddd","transfer(address,uint256)":"a9059cbb","transferFrom(address,address,uint256)":"23b872dd","transferOwnership(address)":"f2fde38b"},"id":7}