{"abi":[{"type":"function","name":"ADMIN_ROLE","inputs":[],"outputs":[{"name":"","type":"bytes32","internalType":"bytes32"}],"stateMutability":"view"},{"type":"function","name":"DEFAULT_ADMIN_ROLE","inputs":[],"outputs":[{"name":"","type":"bytes32","internalType":"bytes32"}],"stateMutability":"view"},{"type":"function","name":"agentNft","inputs":[],"outputs":[{"name":"","type":"address","internalType":"contract IAgentNft"}],"stateMutability":"view"},{"type":"function","name":"getRoleAdmin","inputs":[{"name":"role","type":"bytes32","internalType":"bytes32"}],"outputs":[{"name":"","type":"bytes32","internalType":"bytes32"}],"stateMutability":"view"},{"type":"function","name":"grantRole","inputs":[{"name":"role","type":"bytes32","internalType":"bytes32"},{"name":"account","type":"address","internalType":"address"}],"outputs":[],"stateMutability":"nonpayable"},{"type":"function","name":"hasRole","inputs":[{"name":"role","type":"bytes32","internalType":"bytes32"},{"name":"account","type":"address","internalType":"address"}],"outputs":[{"name":"","type":"bool","internalType":"bool"}],"stateMutability":"view"},{"type":"function","name":"inferenceCount","inputs":[{"name":"agentId","type":"uint256","internalType":"uint256"}],"outputs":[{"name":"","type":"uint256","internalType":"uint256"}],"stateMutability":"view"},{"type":"function","name":"initialize","inputs":[{"name":"defaultAdmin_","type":"address","internalType":"address"},{"name":"token_","type":"address","internalType":"address"},{"name":"agentNft_","type":"address","internalType":"address"}],"outputs":[],"stateMutability":"nonpayable"},{"type":"function","name":"prompt","inputs":[{"name":"promptHash","type":"bytes32","internalType":"bytes32"},{"name":"agentIds","type":"uint256[]","internalType":"uint256[]"},{"name":"amounts","type":"uint256[]","internalType":"uint256[]"},{"name":"coreIds","type":"uint8[][]","internalType":"uint8[][]"}],"outputs":[],"stateMutability":"nonpayable"},{"type":"function","name":"promptMulti","inputs":[{"name":"promptHashes","type":"bytes32[]","internalType":"bytes32[]"},{"name":"agentIds","type":"uint256[]","internalType":"uint256[]"},{"name":"amounts","type":"uint256[]","internalType":"uint256[]"},{"name":"coreIds","type":"uint8[][]","internalType":"uint8[][]"}],"outputs":[],"stateMutability":"nonpayable"},{"type":"function","name":"renounceRole","inputs":[{"name":"role","type":"bytes32","internalType":"bytes32"},{"name":"callerConfirmation","type":"address","internalType":"address"}],"outputs":[],"stateMutability":"nonpayable"},{"type":"function","name":"revokeRole","inputs":[{"name":"role","type":"bytes32","internalType":"bytes32"},{"name":"account","type":"address","internalType":"address"}],"outputs":[],"stateMutability":"nonpayable"},{"type":"function","name":"supportsInterface","inputs":[{"name":"interfaceId","type":"bytes4","internalType":"bytes4"}],"outputs":[{"name":"","type":"bool","internalType":"bool"}],"stateMutability":"view"},{"type":"function","name":"token","inputs":[],"outputs":[{"name":"","type":"address","internalType":"contract IERC20"}],"stateMutability":"view"},{"type":"event","name":"Initialized","inputs":[{"name":"version","type":"uint64","indexed":false,"internalType":"uint64"}],"anonymous":false},{"type":"event","name":"Prompt","inputs":[{"name":"sender","type":"address","indexed":true,"internalType":"address"},{"name":"promptHash","type":"bytes32","indexed":false,"internalType":"bytes32"},{"name":"agentId","type":"uint256","indexed":false,"internalType":"uint256"},{"name":"cost","type":"uint256","indexed":false,"internalType":"uint256"},{"name":"coreIds","type":"uint8[]","indexed":false,"internalType":"uint8[]"}],"anonymous":false},{"type":"event","name":"RoleAdminChanged","inputs":[{"name":"role","type":"bytes32","indexed":true,"internalType":"bytes32"},{"name":"previousAdminRole","type":"bytes32","indexed":true,"internalType":"bytes32"},{"name":"newAdminRole","type":"bytes32","indexed":true,"internalType":"bytes32"}],"anonymous":false},{"type":"event","name":"RoleGranted","inputs":[{"name":"role","type":"bytes32","indexed":true,"internalType":"bytes32"},{"name":"account","type":"address","indexed":true,"internalType":"address"},{"name":"sender","type":"address","indexed":true,"internalType":"address"}],"anonymous":false},{"type":"event","name":"RoleRevoked","inputs":[{"name":"role","type":"bytes32","indexed":true,"internalType":"bytes32"},{"name":"account","type":"address","indexed":true,"internalType":"address"},{"name":"sender","type":"address","indexed":true,"internalType":"address"}],"anonymous":false},{"type":"error","name":"AccessControlBadConfirmation","inputs":[]},{"type":"error","name":"AccessControlUnauthorizedAccount","inputs":[{"name":"account","type":"address","internalType":"address"},{"name":"neededRole","type":"bytes32","internalType":"bytes32"}]},{"type":"error","name":"AddressEmptyCode","inputs":[{"name":"target","type":"address","internalType":"address"}]},{"type":"error","name":"AddressInsufficientBalance","inputs":[{"name":"account","type":"address","internalType":"address"}]},{"type":"error","name":"FailedInnerCall","inputs":[]},{"type":"error","name":"InvalidInitialization","inputs":[]},{"type":"error","name":"NotInitializing","inputs":[]},{"type":"error","name":"ReentrancyGuardReentrantCall","inputs":[]},{"type":"error","name":"SafeERC20FailedOperation","inputs":[{"name":"token","type":"address","internalType":"address"}]}],"bytecode":{"object":"0x608060405234801561000f575f80fd5b506115028061001d5f395ff3fe608060405234801561000f575f80fd5b50600436106100e5575f3560e01c806391d1485411610088578063a217fddf11610063578063a217fddf14610204578063c0c53b8b1461020b578063d547741f1461021e578063fc0c546a14610231575f80fd5b806391d14854146101b35780639cbef4a9146101c6578063a14ea299146101f1575f80fd5b806330b73197116100c357806330b731971461014757806336568abe146101665780636ffa22bf1461017957806375b238fc1461018c575f80fd5b806301ffc9a7146100e9578063248a9ca3146101115780632f2ff15d14610132575b5f80fd5b6100fc6100f7366004610e86565b610244565b60405190151581526020015b60405180910390f35b61012461011f366004610ead565b61027a565b604051908152602001610108565b610145610140366004610ed8565b61029a565b005b610124610155366004610ead565b5f6020819052908152604090205481565b610145610174366004610ed8565b6102bc565b6101456101873660046110f5565b6102f4565b6101247fa49807205ce4d355092ef5a8a18f56e8913cf4a201fbe287825b095693c2177581565b6100fc6101c1366004610ed8565b6105f9565b6002546101d9906001600160a01b031681565b6040516001600160a01b039091168152602001610108565b6101456101ff3660046111ee565b61062f565b6101245f81565b61014561021936600461121f565b6108e7565b61014561022c366004610ed8565b610a64565b6001546101d9906001600160a01b031681565b5f6001600160e01b03198216637965db0b60e01b148061027457506301ffc9a760e01b6001600160e01b03198316145b92915050565b5f9081525f8051602061148d833981519152602052604090206001015490565b6102a38261027a565b6102ac81610a80565b6102b68383610a8d565b50505050565b6001600160a01b03811633146102e55760405163334bd91960e11b815260040160405180910390fd5b6102ef8282610b2e565b505050565b6102fc610ba7565b8251825133915f91811480156103125750835181145b801561031e5750865181145b61035f5760405162461bcd60e51b815260206004820152600d60248201526c125b9d985b1a59081a5b9c1d5d609a1b60448201526064015b60405180910390fd5b5f5b818110156103985785818151811061037b5761037b611267565b60200260200101518361038e919061128f565b9250600101610361565b506001546040516370a0823160e01b81526001600160a01b038581166004830152849216906370a0823190602401602060405180830381865afa1580156103e1573d5f803e3d5ffd5b505050506040513d601f19601f8201168201806040525081019061040591906112a2565b101561044a5760405162461bcd60e51b8152602060048201526014602482015273496e73756666696369656e742062616c616e636560601b6044820152606401610356565b5f805f5b838110156105dd575f89828151811061046957610469611267565b602002602001015190508084146104ee57600254604051635652386760e11b8152600481018390526001600160a01b039091169063aca470ce906024015f60405180830381865afa1580156104c0573d5f803e3d5ffd5b505050506040513d5f823e601f3d908101601f191682016040526104e791908101906112b9565b6060015192505b61052487848b858151811061050557610505611267565b60209081029190910101516001546001600160a01b0316929190610bde565b5f81815260208190526040812080549161053d836113ca565b9190505550866001600160a01b03167f0e03c4b7e9e76107bd2bbd9278ade04842e22e3aaab7bc23306f9c11073f852b8c848151811061057f5761057f611267565b6020026020010151838c868151811061059a5761059a611267565b60200260200101518c87815181106105b4576105b4611267565b60200260200101516040516105cc94939291906113e2565b60405180910390a25060010161044e565b5050505050506102b660015f805160206114ad83398151915255565b5f9182525f8051602061148d833981519152602090815260408084206001600160a01b0393909316845291905290205460ff1690565b610637610ba7565b8151835133915f9114801561064d575082518551145b6106895760405162461bcd60e51b815260206004820152600d60248201526c125b9d985b1a59081a5b9c1d5d609a1b6044820152606401610356565b5f5b84518110156106c3578481815181106106a6576106a6611267565b6020026020010151826106b9919061128f565b915060010161068b565b506001546040516370a0823160e01b81526001600160a01b038481166004830152839216906370a0823190602401602060405180830381865afa15801561070c573d5f803e3d5ffd5b505050506040513d601f19601f8201168201806040525081019061073091906112a2565b10156107755760405162461bcd60e51b8152602060048201526014602482015273496e73756666696369656e742062616c616e636560601b6044820152606401610356565b5f5b85518110156108ce575f86828151811061079357610793611267565b6020908102919091010151600254604051635652386760e11b8152600481018390529192505f916001600160a01b039091169063aca470ce906024015f60405180830381865afa1580156107e9573d5f803e3d5ffd5b505050506040513d5f823e601f3d908101601f1916820160405261081091908101906112b9565b60600151905061082d858289868151811061050557610505611267565b5f828152602081905260408120805491610846836113ca565b9190505550846001600160a01b03167f0e03c4b7e9e76107bd2bbd9278ade04842e22e3aaab7bc23306f9c11073f852b8a848a878151811061088a5761088a611267565b60200260200101518a88815181106108a4576108a4611267565b60200260200101516040516108bc94939291906113e2565b60405180910390a25050600101610777565b5050506102b660015f805160206114ad83398151915255565b7ff0c57e16840df040f15088dc2f81fe391c3923bec73e23a9662efc9c229c6a008054600160401b810460ff16159067ffffffffffffffff165f8115801561092c5750825b90505f8267ffffffffffffffff1660011480156109485750303b155b905081158015610956575080155b156109745760405163f92ee8a960e01b815260040160405180910390fd5b845467ffffffffffffffff19166001178555831561099e57845460ff60401b1916600160401b1785555b6109a6610c4b565b6109ae610c55565b6109d87fa49807205ce4d355092ef5a8a18f56e8913cf4a201fbe287825b095693c2177589610a8d565b506109e35f89610a8d565b50600180546001600160a01b03808a166001600160a01b03199283161790925560028054928916929091169190911790558315610a5a57845460ff60401b19168555604051600181527fc7f505b2f371ae2175ee4913f4499e1f2633a7b5936321eed1cdaeb6115181d29060200160405180910390a15b5050505050505050565b610a6d8261027a565b610a7681610a80565b6102b68383610b2e565b610a8a8133610c65565b50565b5f5f8051602061148d833981519152610aa684846105f9565b610b25575f848152602082815260408083206001600160a01b03871684529091529020805460ff19166001179055610adb3390565b6001600160a01b0316836001600160a01b0316857f2f8788117e7eff1d82e926ec794901d17c78024a50270940304540a733656f0d60405160405180910390a46001915050610274565b5f915050610274565b5f5f8051602061148d833981519152610b4784846105f9565b15610b25575f848152602082815260408083206001600160a01b0387168085529252808320805460ff1916905551339287917ff6391f5c32d9c69d2a47ea670b442974b53935d1edc7fd64eb21e047a839171b9190a46001915050610274565b5f805160206114ad833981519152805460011901610bd857604051633ee5aeb560e01b815260040160405180910390fd5b60029055565b604080516001600160a01b0385811660248301528416604482015260648082018490528251808303909101815260849091019091526020810180516001600160e01b03166323b872dd60e01b1790526102b6908590610ca2565b60015f805160206114ad83398151915255565b610c53610d03565b565b610c5d610d03565b610c53610d4c565b610c6f82826105f9565b610c9e5760405163e2517d3f60e01b81526001600160a01b038216600482015260248101839052604401610356565b5050565b5f610cb66001600160a01b03841683610d54565b905080515f14158015610cda575080806020019051810190610cd89190611441565b155b156102ef57604051635274afe760e01b81526001600160a01b0384166004820152602401610356565b7ff0c57e16840df040f15088dc2f81fe391c3923bec73e23a9662efc9c229c6a0054600160401b900460ff16610c5357604051631afcd79f60e31b815260040160405180910390fd5b610c38610d03565b6060610d6183835f610d68565b9392505050565b606081471015610d8d5760405163cd78605960e01b8152306004820152602401610356565b5f80856001600160a01b03168486604051610da89190611460565b5f6040518083038185875af1925050503d805f8114610de2576040519150601f19603f3d011682016040523d82523d5f602084013e610de7565b606091505b5091509150610df7868383610e01565b9695505050505050565b606082610e1657610e1182610e5d565b610d61565b8151158015610e2d57506001600160a01b0384163b155b15610e5657604051639996b31560e01b81526001600160a01b0385166004820152602401610356565b5080610d61565b805115610e6d5780518082602001fd5b604051630a12f52160e11b815260040160405180910390fd5b5f60208284031215610e96575f80fd5b81356001600160e01b031981168114610d61575f80fd5b5f60208284031215610ebd575f80fd5b5035919050565b6001600160a01b0381168114610a8a575f80fd5b5f8060408385031215610ee9575f80fd5b823591506020830135610efb81610ec4565b809150509250929050565b634e487b7160e01b5f52604160045260245ffd5b60405160a0810167ffffffffffffffff81118282101715610f3d57610f3d610f06565b60405290565b604051601f8201601f1916810167ffffffffffffffff81118282101715610f6c57610f6c610f06565b604052919050565b5f67ffffffffffffffff821115610f8d57610f8d610f06565b5060051b60200190565b5f82601f830112610fa6575f80fd5b81356020610fbb610fb683610f74565b610f43565b8083825260208201915060208460051b870101935086841115610fdc575f80fd5b602086015b84811015610ff85780358352918301918301610fe1565b509695505050505050565b60ff81168114610a8a575f80fd5b5f82601f830112611020575f80fd5b81356020611030610fb683610f74565b828152600592831b850182019282820191908785111561104e575f80fd5b8387015b858110156110e857803567ffffffffffffffff811115611070575f80fd5b8801603f81018a13611080575f80fd5b858101356040611092610fb683610f74565b82815291851b8301810191888101908d8411156110ad575f80fd5b938201935b838510156110d757843592506110c783611003565b82825293890193908901906110b2565b885250505093850193508401611052565b5090979650505050505050565b5f805f8060808587031215611108575f80fd5b843567ffffffffffffffff8082111561111f575f80fd5b818701915087601f830112611132575f80fd5b81356020611142610fb683610f74565b82815260059290921b8401810191818101908b841115611160575f80fd5b948201945b8386101561117e57853582529482019490820190611165565b98505088013592505080821115611193575f80fd5b61119f88838901610f97565b945060408701359150808211156111b4575f80fd5b6111c088838901610f97565b935060608701359150808211156111d5575f80fd5b506111e287828801611011565b91505092959194509250565b5f805f8060808587031215611201575f80fd5b84359350602085013567ffffffffffffffff80821115611193575f80fd5b5f805f60608486031215611231575f80fd5b833561123c81610ec4565b9250602084013561124c81610ec4565b9150604084013561125c81610ec4565b809150509250925092565b634e487b7160e01b5f52603260045260245ffd5b634e487b7160e01b5f52601160045260245ffd5b808201808211156102745761027461127b565b5f602082840312156112b2575f80fd5b5051919050565b5f60208083850312156112ca575f80fd5b825167ffffffffffffffff808211156112e1575f80fd5b9084019060a082870312156112f4575f80fd5b6112fc610f1a565b825161130781610ec4565b81528284015161131681610ec4565b81850152604083015161132881610ec4565b6040820152606083015161133b81610ec4565b6060820152608083015182811115611351575f80fd5b80840193505086601f840112611365575f80fd5b82519150611375610fb683610f74565b82815260059290921b83018401918481019088841115611393575f80fd5b938501935b838510156113ba5784516113ab81611003565b82529385019390850190611398565b6080830152509695505050505050565b5f600182016113db576113db61127b565b5060010190565b5f6080820186835260208660208501528560408501526080606085015281855180845260a0860191506020870193505f5b8181101561143257845160ff1683529383019391830191600101611413565b50909998505050505050505050565b5f60208284031215611451575f80fd5b81518015158114610d61575f80fd5b5f82515f5b8181101561147f5760208186018101518583015201611465565b505f92019182525091905056fe02dd7bc7dec4dceedda775e58dd541e08a116c6c53815c0bd028192f7b6268009b779b17422d0df92223018b32b4d1fa46e071723d6817e2486d003becc55f00a26469706673582212201207393d7af590dc3001f22d5fd58a52780a745b49228a8f3f705d807060007264736f6c63430008160033","linkReferences":{}},"methodIdentifiers":{"ADMIN_ROLE()":"75b238fc","DEFAULT_ADMIN_ROLE()":"a217fddf","agentNft()":"9cbef4a9","getRoleAdmin(bytes32)":"248a9ca3","grantRole(bytes32,address)":"2f2ff15d","hasRole(bytes32,address)":"91d14854","inferenceCount(uint256)":"30b73197","initialize(address,address,address)":"c0c53b8b","prompt(bytes32,uint256[],uint256[],uint8[][])":"a14ea299","promptMulti(bytes32[],uint256[],uint256[],uint8[][])":"6ffa22bf","renounceRole(bytes32,address)":"36568abe","revokeRole(bytes32,address)":"d547741f","supportsInterface(bytes4)":"01ffc9a7","token()":"fc0c546a"},"id":0}