{"abi":[{"type":"constructor","inputs":[],"stateMutability":"nonpayable"},{"type":"function","name":"ADMIN_ROLE","inputs":[],"outputs":[{"name":"","type":"bytes32","internalType":"bytes32"}],"stateMutability":"view"},{"type":"function","name":"DEFAULT_ADMIN_ROLE","inputs":[],"outputs":[{"name":"","type":"bytes32","internalType":"bytes32"}],"stateMutability":"view"},{"type":"function","name":"EXECUTOR_ROLE","inputs":[],"outputs":[{"name":"","type":"bytes32","internalType":"bytes32"}],"stateMutability":"view"},{"type":"function","name":"getRoleAdmin","inputs":[{"name":"role","type":"bytes32","internalType":"bytes32"}],"outputs":[{"name":"","type":"bytes32","internalType":"bytes32"}],"stateMutability":"view"},{"type":"function","name":"grantRole","inputs":[{"name":"role","type":"bytes32","internalType":"bytes32"},{"name":"account","type":"address","internalType":"address"}],"outputs":[],"stateMutability":"nonpayable"},{"type":"function","name":"hasRole","inputs":[{"name":"role","type":"bytes32","internalType":"bytes32"},{"name":"account","type":"address","internalType":"address"}],"outputs":[{"name":"","type":"bool","internalType":"bool"}],"stateMutability":"view"},{"type":"function","name":"initialize","inputs":[{"name":"defaultAdmin_","type":"address","internalType":"address"},{"name":"taxToken_","type":"address","internalType":"address"}],"outputs":[],"stateMutability":"nonpayable"},{"type":"function","name":"manualRefund","inputs":[{"name":"txhash","type":"bytes32","internalType":"bytes32"},{"name":"recipient","type":"address","internalType":"address"},{"name":"amount","type":"uint256","internalType":"uint256"}],"outputs":[],"stateMutability":"nonpayable"},{"type":"function","name":"refund","inputs":[{"name":"recipient","type":"address","internalType":"address"},{"name":"txhashes","type":"bytes32[]","internalType":"bytes32[]"},{"name":"amounts","type":"uint256[]","internalType":"uint256[]"}],"outputs":[],"stateMutability":"nonpayable"},{"type":"function","name":"refunds","inputs":[{"name":"txhash","type":"bytes32","internalType":"bytes32"}],"outputs":[{"name":"amount","type":"uint256","internalType":"uint256"}],"stateMutability":"view"},{"type":"function","name":"renounceRole","inputs":[{"name":"role","type":"bytes32","internalType":"bytes32"},{"name":"callerConfirmation","type":"address","internalType":"address"}],"outputs":[],"stateMutability":"nonpayable"},{"type":"function","name":"revokeRole","inputs":[{"name":"role","type":"bytes32","internalType":"bytes32"},{"name":"account","type":"address","internalType":"address"}],"outputs":[],"stateMutability":"nonpayable"},{"type":"function","name":"supportsInterface","inputs":[{"name":"interfaceId","type":"bytes4","internalType":"bytes4"}],"outputs":[{"name":"","type":"bool","internalType":"bool"}],"stateMutability":"view"},{"type":"function","name":"taxToken","inputs":[],"outputs":[{"name":"","type":"address","internalType":"address"}],"stateMutability":"view"},{"type":"function","name":"withdraw","inputs":[{"name":"token","type":"address","internalType":"address"}],"outputs":[],"stateMutability":"nonpayable"},{"type":"event","name":"Initialized","inputs":[{"name":"version","type":"uint64","indexed":false,"internalType":"uint64"}],"anonymous":false},{"type":"event","name":"RoleAdminChanged","inputs":[{"name":"role","type":"bytes32","indexed":true,"internalType":"bytes32"},{"name":"previousAdminRole","type":"bytes32","indexed":true,"internalType":"bytes32"},{"name":"newAdminRole","type":"bytes32","indexed":true,"internalType":"bytes32"}],"anonymous":false},{"type":"event","name":"RoleGranted","inputs":[{"name":"role","type":"bytes32","indexed":true,"internalType":"bytes32"},{"name":"account","type":"address","indexed":true,"internalType":"address"},{"name":"sender","type":"address","indexed":true,"internalType":"address"}],"anonymous":false},{"type":"event","name":"RoleRevoked","inputs":[{"name":"role","type":"bytes32","indexed":true,"internalType":"bytes32"},{"name":"account","type":"address","indexed":true,"internalType":"address"},{"name":"sender","type":"address","indexed":true,"internalType":"address"}],"anonymous":false},{"type":"event","name":"TaxRefunded","inputs":[{"name":"txhash","type":"bytes32","indexed":true,"internalType":"bytes32"},{"name":"recipient","type":"address","indexed":false,"internalType":"address"},{"name":"amount","type":"uint256","indexed":false,"internalType":"uint256"}],"anonymous":false},{"type":"error","name":"AccessControlBadConfirmation","inputs":[]},{"type":"error","name":"AccessControlUnauthorizedAccount","inputs":[{"name":"account","type":"address","internalType":"address"},{"name":"neededRole","type":"bytes32","internalType":"bytes32"}]},{"type":"error","name":"AddressEmptyCode","inputs":[{"name":"target","type":"address","internalType":"address"}]},{"type":"error","name":"AddressInsufficientBalance","inputs":[{"name":"account","type":"address","internalType":"address"}]},{"type":"error","name":"FailedInnerCall","inputs":[]},{"type":"error","name":"InvalidInitialization","inputs":[]},{"type":"error","name":"NotInitializing","inputs":[]},{"type":"error","name":"SafeERC20FailedOperation","inputs":[{"name":"token","type":"address","internalType":"address"}]},{"type":"error","name":"TxHashExists","inputs":[{"name":"txhash","type":"bytes32","internalType":"bytes32"}]}],"bytecode":{"object":"0x608060405234801561000f575f80fd5b5061001861001d565b6100cf565b7ff0c57e16840df040f15088dc2f81fe391c3923bec73e23a9662efc9c229c6a00805468010000000000000000900460ff161561006d5760405163f92ee8a960e01b815260040160405180910390fd5b80546001600160401b03908116146100cc5780546001600160401b0319166001600160401b0390811782556040519081527fc7f505b2f371ae2175ee4913f4499e1f2633a7b5936321eed1cdaeb6115181d29060200160405180910390a15b50565b610e3c806100dc5f395ff3fe608060405234801561000f575f80fd5b50600436106100f0575f3560e01c8063485cc955116100935780638a172753116100635780638a1727531461021657806391d1485414610235578063a217fddf14610248578063d547741f1461024f575f80fd5b8063485cc955146101c957806351cff8d9146101dc5780635faf133b146101ef57806375b238fc14610202575f80fd5b8063248a9ca3116100ce578063248a9ca31461017b5780632c6434951461018e5780632f2ff15d146101a357806336568abe146101b6575f80fd5b806301ffc9a7146100f457806307bd02651461011c5780631fc928ae14610151575b5f80fd5b610107610102366004610aa3565b610262565b60405190151581526020015b60405180910390f35b6101437fd8aa0f3194971a2a116679f7c2090f6939c8d4e01a2a8d7e41d55e5351469e6381565b604051908152602001610113565b5f54610163906001600160a01b031681565b6040516001600160a01b039091168152602001610113565b610143610189366004610aca565b610298565b6101a161019c366004610afc565b6102b8565b005b6101a16101b1366004610b2e565b61030d565b6101a16101c4366004610b2e565b610329565b6101a16101d7366004610b58565b610361565b6101a16101ea366004610b80565b6104ac565b6101a16101fd366004610c6d565b610542565b6101435f80516020610de783398151915281565b610143610224366004610aca565b60016020525f908152604090205481565b610107610243366004610b2e565b6106b9565b6101435f81565b6101a161025d366004610b2e565b6106ef565b5f6001600160e01b03198216637965db0b60e01b148061029257506301ffc9a760e01b6001600160e01b03198316145b92915050565b5f9081525f80516020610dc7833981519152602052604090206001015490565b5f80516020610de78339815191526102cf8161070b565b5f84815260016020526040812080548492906102ec908490610d31565b90915550505f54610307906001600160a01b03168484610718565b50505050565b61031682610298565b61031f8161070b565b610307838361076a565b6001600160a01b03811633146103525760405163334bd91960e11b815260040160405180910390fd5b61035c828261080b565b505050565b7ff0c57e16840df040f15088dc2f81fe391c3923bec73e23a9662efc9c229c6a008054600160401b810460ff16159067ffffffffffffffff165f811580156103a65750825b90505f8267ffffffffffffffff1660011480156103c25750303b155b9050811580156103d0575080155b156103ee5760405163f92ee8a960e01b815260040160405180910390fd5b845467ffffffffffffffff19166001178555831561041857845460ff60401b1916600160401b1785555b610420610884565b61042a5f8861076a565b506104425f80516020610de78339815191528861076a565b505f80546001600160a01b0319166001600160a01b03881617905583156104a357845460ff60401b19168555604051600181527fc7f505b2f371ae2175ee4913f4499e1f2633a7b5936321eed1cdaeb6115181d29060200160405180910390a15b50505050505050565b5f80516020610de78339815191526104c38161070b565b61053e336040516370a0823160e01b81523060048201526001600160a01b038516906370a0823190602401602060405180830381865afa158015610509573d5f803e3d5ffd5b505050506040513d601f19601f8201168201806040525081019061052d9190610d50565b6001600160a01b0385169190610718565b5050565b7fd8aa0f3194971a2a116679f7c2090f6939c8d4e01a2a8d7e41d55e5351469e6361056c8161070b565b81518351146105b55760405162461bcd60e51b815260206004820152601060248201526f556e6d61746368656420696e7075747360801b60448201526064015b60405180910390fd5b5f805b845181101561069b575f8582815181106105d4576105d4610d67565b602002602001015190505f8583815181106105f1576105f1610d67565b602002602001015190505f60015f8481526020019081526020015f20541115610630576040516374e8729760e11b8152600481018390526024016105ac565b5f82815260016020526040902081905561064a8185610d31565b604080516001600160a01b038b1681526020810184905291955083917f8caa0bc1de0055956cd35e5310bb938c106726d05009de06ce9881975b49e6f9910160405180910390a250506001016105b8565b505f546106b2906001600160a01b03168683610718565b5050505050565b5f9182525f80516020610dc7833981519152602090815260408084206001600160a01b0393909316845291905290205460ff1690565b6106f882610298565b6107018161070b565b610307838361080b565b610715813361088e565b50565b604080516001600160a01b038416602482015260448082018490528251808303909101815260649091019091526020810180516001600160e01b031663a9059cbb60e01b17905261035c9084906108c7565b5f5f80516020610dc783398151915261078384846106b9565b610802575f848152602082815260408083206001600160a01b03871684529091529020805460ff191660011790556107b83390565b6001600160a01b0316836001600160a01b0316857f2f8788117e7eff1d82e926ec794901d17c78024a50270940304540a733656f0d60405160405180910390a46001915050610292565b5f915050610292565b5f5f80516020610dc783398151915261082484846106b9565b15610802575f848152602082815260408083206001600160a01b0387168085529252808320805460ff1916905551339287917ff6391f5c32d9c69d2a47ea670b442974b53935d1edc7fd64eb21e047a839171b9190a46001915050610292565b61088c610928565b565b61089882826106b9565b61053e5760405163e2517d3f60e01b81526001600160a01b0382166004820152602481018390526044016105ac565b5f6108db6001600160a01b03841683610971565b905080515f141580156108ff5750808060200190518101906108fd9190610d7b565b155b1561035c57604051635274afe760e01b81526001600160a01b03841660048201526024016105ac565b7ff0c57e16840df040f15088dc2f81fe391c3923bec73e23a9662efc9c229c6a0054600160401b900460ff1661088c57604051631afcd79f60e31b815260040160405180910390fd5b606061097e83835f610985565b9392505050565b6060814710156109aa5760405163cd78605960e01b81523060048201526024016105ac565b5f80856001600160a01b031684866040516109c59190610d9a565b5f6040518083038185875af1925050503d805f81146109ff576040519150601f19603f3d011682016040523d82523d5f602084013e610a04565b606091505b5091509150610a14868383610a1e565b9695505050505050565b606082610a3357610a2e82610a7a565b61097e565b8151158015610a4a57506001600160a01b0384163b155b15610a7357604051639996b31560e01b81526001600160a01b03851660048201526024016105ac565b508061097e565b805115610a8a5780518082602001fd5b604051630a12f52160e11b815260040160405180910390fd5b5f60208284031215610ab3575f80fd5b81356001600160e01b03198116811461097e575f80fd5b5f60208284031215610ada575f80fd5b5035919050565b80356001600160a01b0381168114610af7575f80fd5b919050565b5f805f60608486031215610b0e575f80fd5b83359250610b1e60208501610ae1565b9150604084013590509250925092565b5f8060408385031215610b3f575f80fd5b82359150610b4f60208401610ae1565b90509250929050565b5f8060408385031215610b69575f80fd5b610b7283610ae1565b9150610b4f60208401610ae1565b5f60208284031215610b90575f80fd5b61097e82610ae1565b634e487b7160e01b5f52604160045260245ffd5b604051601f8201601f1916810167ffffffffffffffff81118282101715610bd657610bd6610b99565b604052919050565b5f67ffffffffffffffff821115610bf757610bf7610b99565b5060051b60200190565b5f82601f830112610c10575f80fd5b81356020610c25610c2083610bde565b610bad565b8083825260208201915060208460051b870101935086841115610c46575f80fd5b602086015b84811015610c625780358352918301918301610c4b565b509695505050505050565b5f805f60608486031215610c7f575f80fd5b610c8884610ae1565b925060208085013567ffffffffffffffff80821115610ca5575f80fd5b818701915087601f830112610cb8575f80fd5b8135610cc6610c2082610bde565b81815260059190911b8301840190848101908a831115610ce4575f80fd5b938501935b82851015610d0257843582529385019390850190610ce9565b965050506040870135925080831115610d19575f80fd5b5050610d2786828701610c01565b9150509250925092565b8082018082111561029257634e487b7160e01b5f52601160045260245ffd5b5f60208284031215610d60575f80fd5b5051919050565b634e487b7160e01b5f52603260045260245ffd5b5f60208284031215610d8b575f80fd5b8151801515811461097e575f80fd5b5f82515f5b81811015610db95760208186018101518583015201610d9f565b505f92019182525091905056fe02dd7bc7dec4dceedda775e58dd541e08a116c6c53815c0bd028192f7b626800a49807205ce4d355092ef5a8a18f56e8913cf4a201fbe287825b095693c21775a264697066735822122045c71ba67480cd3719fef99ef9eafb06bcaf745ed7c4e43793e175fb27d349ae64736f6c63430008160033","linkReferences":{}},"methodIdentifiers":{"ADMIN_ROLE()":"75b238fc","DEFAULT_ADMIN_ROLE()":"a217fddf","EXECUTOR_ROLE()":"07bd0265","getRoleAdmin(bytes32)":"248a9ca3","grantRole(bytes32,address)":"2f2ff15d","hasRole(bytes32,address)":"91d14854","initialize(address,address)":"485cc955","manualRefund(bytes32,address,uint256)":"2c643495","refund(address,bytes32[],uint256[])":"5faf133b","refunds(bytes32)":"8a172753","renounceRole(bytes32,address)":"36568abe","revokeRole(bytes32,address)":"d547741f","supportsInterface(bytes4)":"01ffc9a7","taxToken()":"1fc928ae","withdraw(address)":"51cff8d9"},"id":46}