{"abi":[{"type":"constructor","inputs":[{"name":"initialOwner","type":"address","internalType":"address"}],"stateMutability":"nonpayable"},{"type":"function","name":"CLOCK_MODE","inputs":[],"outputs":[{"name":"","type":"string","internalType":"string"}],"stateMutability":"view"},{"type":"function","name":"DOMAIN_SEPARATOR","inputs":[],"outputs":[{"name":"","type":"bytes32","internalType":"bytes32"}],"stateMutability":"view"},{"type":"function","name":"allowance","inputs":[{"name":"owner","type":"address","internalType":"address"},{"name":"spender","type":"address","internalType":"address"}],"outputs":[{"name":"","type":"uint256","internalType":"uint256"}],"stateMutability":"view"},{"type":"function","name":"approve","inputs":[{"name":"","type":"address","internalType":"address"},{"name":"","type":"uint256","internalType":"uint256"}],"outputs":[{"name":"","type":"bool","internalType":"bool"}],"stateMutability":"nonpayable"},{"type":"function","name":"balanceOf","inputs":[{"name":"account","type":"address","internalType":"address"}],"outputs":[{"name":"","type":"uint256","internalType":"uint256"}],"stateMutability":"view"},{"type":"function","name":"checkpoints","inputs":[{"name":"account","type":"address","internalType":"address"},{"name":"pos","type":"uint32","internalType":"uint32"}],"outputs":[{"name":"","type":"tuple","internalType":"struct Checkpoints.Checkpoint208","components":[{"name":"_key","type":"uint48","internalType":"uint48"},{"name":"_value","type":"uint208","internalType":"uint208"}]}],"stateMutability":"view"},{"type":"function","name":"clock","inputs":[],"outputs":[{"name":"","type":"uint48","internalType":"uint48"}],"stateMutability":"view"},{"type":"function","name":"decimals","inputs":[],"outputs":[{"name":"","type":"uint8","internalType":"uint8"}],"stateMutability":"view"},{"type":"function","name":"delegate","inputs":[{"name":"delegatee","type":"address","internalType":"address"}],"outputs":[],"stateMutability":"nonpayable"},{"type":"function","name":"delegateBySig","inputs":[{"name":"delegatee","type":"address","internalType":"address"},{"name":"nonce","type":"uint256","internalType":"uint256"},{"name":"expiry","type":"uint256","internalType":"uint256"},{"name":"v","type":"uint8","internalType":"uint8"},{"name":"r","type":"bytes32","internalType":"bytes32"},{"name":"s","type":"bytes32","internalType":"bytes32"}],"outputs":[],"stateMutability":"nonpayable"},{"type":"function","name":"delegates","inputs":[{"name":"account","type":"address","internalType":"address"}],"outputs":[{"name":"","type":"address","internalType":"address"}],"stateMutability":"view"},{"type":"function","name":"eip712Domain","inputs":[],"outputs":[{"name":"fields","type":"bytes1","internalType":"bytes1"},{"name":"name","type":"string","internalType":"string"},{"name":"version","type":"string","internalType":"string"},{"name":"chainId","type":"uint256","internalType":"uint256"},{"name":"verifyingContract","type":"address","internalType":"address"},{"name":"salt","type":"bytes32","internalType":"bytes32"},{"name":"extensions","type":"uint256[]","internalType":"uint256[]"}],"stateMutability":"view"},{"type":"function","name":"getPastTotalSupply","inputs":[{"name":"timepoint","type":"uint256","internalType":"uint256"}],"outputs":[{"name":"","type":"uint256","internalType":"uint256"}],"stateMutability":"view"},{"type":"function","name":"getPastVotes","inputs":[{"name":"account","type":"address","internalType":"address"},{"name":"timepoint","type":"uint256","internalType":"uint256"}],"outputs":[{"name":"","type":"uint256","internalType":"uint256"}],"stateMutability":"view"},{"type":"function","name":"getVotes","inputs":[{"name":"account","type":"address","internalType":"address"}],"outputs":[{"name":"","type":"uint256","internalType":"uint256"}],"stateMutability":"view"},{"type":"function","name":"name","inputs":[],"outputs":[{"name":"","type":"string","internalType":"string"}],"stateMutability":"view"},{"type":"function","name":"nonces","inputs":[{"name":"owner","type":"address","internalType":"address"}],"outputs":[{"name":"","type":"uint256","internalType":"uint256"}],"stateMutability":"view"},{"type":"function","name":"numCheckpoints","inputs":[{"name":"account","type":"address","internalType":"address"}],"outputs":[{"name":"","type":"uint32","internalType":"uint32"}],"stateMutability":"view"},{"type":"function","name":"oracleTransfer","inputs":[{"name":"froms","type":"address[]","internalType":"address[]"},{"name":"tos","type":"address[]","internalType":"address[]"},{"name":"values","type":"uint256[]","internalType":"uint256[]"}],"outputs":[{"name":"","type":"bool","internalType":"bool"}],"stateMutability":"nonpayable"},{"type":"function","name":"owner","inputs":[],"outputs":[{"name":"","type":"address","internalType":"address"}],"stateMutability":"view"},{"type":"function","name":"permit","inputs":[{"name":"owner","type":"address","internalType":"address"},{"name":"spender","type":"address","internalType":"address"},{"name":"value","type":"uint256","internalType":"uint256"},{"name":"deadline","type":"uint256","internalType":"uint256"},{"name":"v","type":"uint8","internalType":"uint8"},{"name":"r","type":"bytes32","internalType":"bytes32"},{"name":"s","type":"bytes32","internalType":"bytes32"}],"outputs":[],"stateMutability":"nonpayable"},{"type":"function","name":"renounceOwnership","inputs":[],"outputs":[],"stateMutability":"nonpayable"},{"type":"function","name":"symbol","inputs":[],"outputs":[{"name":"","type":"string","internalType":"string"}],"stateMutability":"view"},{"type":"function","name":"totalSupply","inputs":[],"outputs":[{"name":"","type":"uint256","internalType":"uint256"}],"stateMutability":"view"},{"type":"function","name":"transfer","inputs":[{"name":"","type":"address","internalType":"address"},{"name":"","type":"uint256","internalType":"uint256"}],"outputs":[{"name":"","type":"bool","internalType":"bool"}],"stateMutability":"nonpayable"},{"type":"function","name":"transferFrom","inputs":[{"name":"","type":"address","internalType":"address"},{"name":"","type":"address","internalType":"address"},{"name":"","type":"uint256","internalType":"uint256"}],"outputs":[{"name":"","type":"bool","internalType":"bool"}],"stateMutability":"nonpayable"},{"type":"function","name":"transferOwnership","inputs":[{"name":"newOwner","type":"address","internalType":"address"}],"outputs":[],"stateMutability":"nonpayable"},{"type":"event","name":"Approval","inputs":[{"name":"owner","type":"address","indexed":true,"internalType":"address"},{"name":"spender","type":"address","indexed":true,"internalType":"address"},{"name":"value","type":"uint256","indexed":false,"internalType":"uint256"}],"anonymous":false},{"type":"event","name":"DelegateChanged","inputs":[{"name":"delegator","type":"address","indexed":true,"internalType":"address"},{"name":"fromDelegate","type":"address","indexed":true,"internalType":"address"},{"name":"toDelegate","type":"address","indexed":true,"internalType":"address"}],"anonymous":false},{"type":"event","name":"DelegateVotesChanged","inputs":[{"name":"delegate","type":"address","indexed":true,"internalType":"address"},{"name":"previousVotes","type":"uint256","indexed":false,"internalType":"uint256"},{"name":"newVotes","type":"uint256","indexed":false,"internalType":"uint256"}],"anonymous":false},{"type":"event","name":"EIP712DomainChanged","inputs":[],"anonymous":false},{"type":"event","name":"OwnershipTransferred","inputs":[{"name":"previousOwner","type":"address","indexed":true,"internalType":"address"},{"name":"newOwner","type":"address","indexed":true,"internalType":"address"}],"anonymous":false},{"type":"event","name":"Transfer","inputs":[{"name":"from","type":"address","indexed":true,"internalType":"address"},{"name":"to","type":"address","indexed":true,"internalType":"address"},{"name":"value","type":"uint256","indexed":false,"internalType":"uint256"}],"anonymous":false},{"type":"error","name":"CheckpointUnorderedInsertion","inputs":[]},{"type":"error","name":"ECDSAInvalidSignature","inputs":[]},{"type":"error","name":"ECDSAInvalidSignatureLength","inputs":[{"name":"length","type":"uint256","internalType":"uint256"}]},{"type":"error","name":"ECDSAInvalidSignatureS","inputs":[{"name":"s","type":"bytes32","internalType":"bytes32"}]},{"type":"error","name":"ERC20ExceededSafeSupply","inputs":[{"name":"increasedSupply","type":"uint256","internalType":"uint256"},{"name":"cap","type":"uint256","internalType":"uint256"}]},{"type":"error","name":"ERC20InsufficientAllowance","inputs":[{"name":"spender","type":"address","internalType":"address"},{"name":"allowance","type":"uint256","internalType":"uint256"},{"name":"needed","type":"uint256","internalType":"uint256"}]},{"type":"error","name":"ERC20InsufficientBalance","inputs":[{"name":"sender","type":"address","internalType":"address"},{"name":"balance","type":"uint256","internalType":"uint256"},{"name":"needed","type":"uint256","internalType":"uint256"}]},{"type":"error","name":"ERC20InvalidApprover","inputs":[{"name":"approver","type":"address","internalType":"address"}]},{"type":"error","name":"ERC20InvalidReceiver","inputs":[{"name":"receiver","type":"address","internalType":"address"}]},{"type":"error","name":"ERC20InvalidSender","inputs":[{"name":"sender","type":"address","internalType":"address"}]},{"type":"error","name":"ERC20InvalidSpender","inputs":[{"name":"spender","type":"address","internalType":"address"}]},{"type":"error","name":"ERC2612ExpiredSignature","inputs":[{"name":"deadline","type":"uint256","internalType":"uint256"}]},{"type":"error","name":"ERC2612InvalidSigner","inputs":[{"name":"signer","type":"address","internalType":"address"},{"name":"owner","type":"address","internalType":"address"}]},{"type":"error","name":"ERC5805FutureLookup","inputs":[{"name":"timepoint","type":"uint256","internalType":"uint256"},{"name":"clock","type":"uint48","internalType":"uint48"}]},{"type":"error","name":"ERC6372InconsistentClock","inputs":[]},{"type":"error","name":"InvalidAccountNonce","inputs":[{"name":"account","type":"address","internalType":"address"},{"name":"currentNonce","type":"uint256","internalType":"uint256"}]},{"type":"error","name":"InvalidShortString","inputs":[]},{"type":"error","name":"OwnableInvalidOwner","inputs":[{"name":"owner","type":"address","internalType":"address"}]},{"type":"error","name":"OwnableUnauthorizedAccount","inputs":[{"name":"account","type":"address","internalType":"address"}]},{"type":"error","name":"SafeCastOverflowedUintDowncast","inputs":[{"name":"bits","type":"uint8","internalType":"uint8"},{"name":"value","type":"uint256","internalType":"uint256"}]},{"type":"error","name":"StringTooLong","inputs":[{"name":"str","type":"string","internalType":"string"}]},{"type":"error","name":"VotesExpiredSignature","inputs":[{"name":"expiry","type":"uint256","internalType":"uint256"}]}],"bytecode":{"object":"0x61016060405234801562000011575f80fd5b50604051620025fc380380620025fc8339810160408190526200003491620002c5565b806040518060400160405280601781526020017f5669727475616c2050726f746f636f6c20566f74696e6700000000000000000081525080604051806040016040528060018152602001603160f81b8152506040518060400160405280601781526020017f5669727475616c2050726f746f636f6c20566f74696e67000000000000000000815250604051806040016040528060098152602001681d995592549515505360ba1b8152508160039081620000ef919062000392565b506004620000fe828262000392565b506200011091508390506005620001fa565b6101205262000121816006620001fa565b61014052815160208084019190912060e052815190820120610100524660a052620001ae60e05161010051604080517f8b73c3c69bb8fe3d512ecc4cf759cc79239f7b179b0ffacaa9a75d522b39400f60208201529081019290925260608201524660808201523060a08201525f9060c00160405160208183030381529060405280519060200120905090565b60805250503060c052506001600160a01b038116620001e757604051631e4fbdf760e01b81525f60048201526024015b60405180910390fd5b620001f28162000232565b5050620004d0565b5f6020835110156200021957620002118362000283565b90506200022c565b8162000226848262000392565b5060ff90505b92915050565b600b80546001600160a01b038381166001600160a01b0319831681179093556040519116919082907f8be0079c531659141344cd1fd0a4f28419497f9722a3daafe3b4186f6b6457e0905f90a35050565b5f80829050601f81511115620002b0578260405163305a27a960e01b8152600401620001de91906200045e565b8051620002bd82620004ac565b179392505050565b5f60208284031215620002d6575f80fd5b81516001600160a01b0381168114620002ed575f80fd5b9392505050565b634e487b7160e01b5f52604160045260245ffd5b600181811c908216806200031d57607f821691505b6020821081036200033c57634e487b7160e01b5f52602260045260245ffd5b50919050565b601f8211156200038d57805f5260205f20601f840160051c81016020851015620003695750805b601f840160051c820191505b818110156200038a575f815560010162000375565b50505b505050565b81516001600160401b03811115620003ae57620003ae620002f4565b620003c681620003bf845462000308565b8462000342565b602080601f831160018114620003fc575f8415620003e45750858301515b5f19600386901b1c1916600185901b17855562000456565b5f85815260208120601f198616915b828110156200042c578886015182559484019460019091019084016200040b565b50858210156200044a57878501515f19600388901b60f8161c191681555b505060018460011b0185555b505050505050565b5f602080835283518060208501525f5b818110156200048c578581018301518582016040015282016200046e565b505f604082860101526040601f19601f8301168501019250505092915050565b805160208083015191908110156200033c575f1960209190910360031b1b16919050565b60805160a05160c05160e0516101005161012051610140516120da620005225f395f610e3b01525f610e0e01525f610b8a01525f610b6201525f610abd01525f610ae701525f610b1101526120da5ff3fe608060405234801561000f575f80fd5b50600436106101a1575f3560e01c80637ab7c65d116100f35780639ab24eb011610093578063d505accf1161006e578063d505accf146103ad578063dd62ed3e146103c0578063f1127ed8146103f8578063f2fde38b14610437575f80fd5b80639ab24eb014610379578063a9059cbb1461038c578063c3cda5201461039a575f80fd5b80638da5cb5b116100ce5780638da5cb5b1461032e5780638e539e8c1461033f57806391ddadf41461035257806395d89b4114610371575f80fd5b80637ab7c65d146102ed5780637ecebe001461030057806384b0196e14610313575f80fd5b80633a46b1a81161015e5780635c19a95c116101395780635c19a95c146102805780636fcfff451461029557806370a08231146102bd578063715018a6146102e5575f80fd5b80633a46b1a8146102225780634bf5d7e914610235578063587cde1e1461023d575f80fd5b806306fdde03146101a5578063095ea7b3146101c357806318160ddd146101e657806323b872dd146101f8578063313ce5671461020b5780633644e5151461021a575b5f80fd5b6101ad61044a565b6040516101ba9190611b53565b60405180910390f35b6101d66101d1366004611b80565b6104da565b60405190151581526020016101ba565b6002545b6040519081526020016101ba565b6101d6610206366004611ba8565b610521565b604051601281526020016101ba565b6101ea610564565b6101ea610230366004611b80565b610572565b6101ad6105f3565b61026861024b366004611be1565b6001600160a01b039081165f908152600860205260409020541690565b6040516001600160a01b0390911681526020016101ba565b61029361028e366004611be1565b61066b565b005b6102a86102a3366004611be1565b61067a565b60405163ffffffff90911681526020016101ba565b6101ea6102cb366004611be1565b6001600160a01b03165f9081526020819052604090205490565b610293610684565b6101d66102fb366004611cd5565b610697565b6101ea61030e366004611be1565b610762565b61031b61076c565b6040516101ba9796959493929190611dab565b600b546001600160a01b0316610268565b6101ea61034d366004611e42565b6107ae565b61035a610817565b60405165ffffffffffff90911681526020016101ba565b6101ad610820565b6101ea610387366004611be1565b61082f565b6101d6610206366004611b80565b6102936103a8366004611e69565b61085e565b6102936103bb366004611ebd565b61091a565b6101ea6103ce366004611f22565b6001600160a01b039182165f90815260016020908152604080832093909416825291909152205490565b61040b610406366004611f53565b610a50565b60408051825165ffffffffffff1681526020928301516001600160d01b031692810192909252016101ba565b610293610445366004611be1565b610a74565b60606003805461045990611f90565b80601f016020809104026020016040519081016040528092919081815260200182805461048590611f90565b80156104d05780601f106104a7576101008083540402835291602001916104d0565b820191905f5260205f20905b8154815290600101906020018083116104b357829003601f168201915b5050505050905090565b60405162461bcd60e51b8152602060048201526015602482015274105c1c1c9bdd99481b9bdd081cdd5c1c1bdc9d1959605a1b60448201525f906064015b60405180910390fd5b60405162461bcd60e51b8152602060048201526016602482015275151c985b9cd9995c881b9bdd081cdd5c1c1bdc9d195960521b60448201525f90606401610518565b5f61056d610ab1565b905090565b5f8061057c610817565b90508065ffffffffffff1683106105b757604051637669fc0f60e11b81526004810184905265ffffffffffff82166024820152604401610518565b6105e06105c384610bda565b6001600160a01b0386165f90815260096020526040902090610c10565b6001600160d01b03169150505b92915050565b60606105fd610cc0565b65ffffffffffff1661060d610817565b65ffffffffffff1614610633576040516301bfc1c560e61b815260040160405180910390fd5b5060408051808201909152601d81527f6d6f64653d626c6f636b6e756d6265722666726f6d3d64656661756c74000000602082015290565b336106768183610cca565b5050565b5f6105ed82610d40565b61068c610d61565b6106955f610d8e565b565b5f6106a0610d61565b825184511480156106b2575081518351145b6106ee5760405162461bcd60e51b815260206004820152600d60248201526c125b9d985b1a59081a5b9c1d5d609a1b6044820152606401610518565b5f5b84518110156107575761074f85828151811061070e5761070e611fc8565b602002602001015185838151811061072857610728611fc8565b602002602001015185848151811061074257610742611fc8565b6020026020010151610ddf565b6001016106f0565b506001949350505050565b5f6105ed82610dea565b5f6060805f805f606061077d610e07565b610785610e34565b604080515f80825260208201909252600f60f81b9b939a50919850469750309650945092509050565b5f806107b8610817565b90508065ffffffffffff1683106107f357604051637669fc0f60e11b81526004810184905265ffffffffffff82166024820152604401610518565b6108076107ff84610bda565b600a90610c10565b6001600160d01b03169392505050565b5f61056d610cc0565b60606004805461045990611f90565b6001600160a01b0381165f90815260096020526040812061084f90610e61565b6001600160d01b031692915050565b8342111561088257604051632341d78760e11b815260048101859052602401610518565b604080517fe48329057bfd03d55e49b547132e39cffd9c1820ad7b9d4c5307691425d15adf60208201526001600160a01b0388169181019190915260608101869052608081018590525f906108fb906108f39060a00160405160208183030381529060405280519060200120610e98565b858585610ec4565b90506109078187610ef0565b6109118188610cca565b50505050505050565b8342111561093e5760405163313c898160e11b815260048101859052602401610518565b5f7f6e71edae12b1b97f4d1f60370fef10105fa2faae0126114a169c64845d6126c98888886109898c6001600160a01b03165f90815260076020526040902080546001810190915590565b6040805160208101969096526001600160a01b0394851690860152929091166060840152608083015260a082015260c0810186905260e0016040516020818303038152906040528051906020012090505f6109e382610e98565b90505f6109f282878787610ec4565b9050896001600160a01b0316816001600160a01b031614610a39576040516325c0072360e11b81526001600160a01b0380831660048301528b166024820152604401610518565b610a448a8a8a610f42565b50505050505050505050565b604080518082019091525f8082526020820152610a6d8383610f4f565b9392505050565b610a7c610d61565b6001600160a01b038116610aa557604051631e4fbdf760e01b81525f6004820152602401610518565b610aae81610d8e565b50565b5f306001600160a01b037f000000000000000000000000000000000000000000000000000000000000000016148015610b0957507f000000000000000000000000000000000000000000000000000000000000000046145b15610b3357507f000000000000000000000000000000000000000000000000000000000000000090565b61056d604080517f8b73c3c69bb8fe3d512ecc4cf759cc79239f7b179b0ffacaa9a75d522b39400f60208201527f0000000000000000000000000000000000000000000000000000000000000000918101919091527f000000000000000000000000000000000000000000000000000000000000000060608201524660808201523060a08201525f9060c00160405160208183030381529060405280519060200120905090565b5f65ffffffffffff821115610c0c576040516306dfcc6560e41b81526030600482015260248101839052604401610518565b5090565b81545f9081816005811115610c6c575f610c2984610f83565b610c339085611ff0565b5f8881526020902090915081015465ffffffffffff9081169087161015610c5c57809150610c6a565b610c67816001612003565b92505b505b5f610c7987878585611067565b90508015610cb357610c9d87610c90600184611ff0565b5f91825260209091200190565b54600160301b90046001600160d01b0316610cb5565b5f5b979650505050505050565b5f61056d43610bda565b6001600160a01b038281165f8181526008602052604080822080548686166001600160a01b0319821681179092559151919094169392849290917f3134e8a2e6d97e929a7e54011ea5485d7d196dd5f0ba4d4ef95803e8e3fc257f9190a4610d3b8183610d36866110c6565b6110e3565b505050565b6001600160a01b0381165f908152600960205260408120546105ed9061124c565b600b546001600160a01b031633146106955760405163118cdaa760e01b8152336004820152602401610518565b600b80546001600160a01b038381166001600160a01b0319831681179093556040519116919082907f8be0079c531659141344cd1fd0a4f28419497f9722a3daafe3b4186f6b6457e0905f90a35050565b610d3b83838361127c565b6001600160a01b0381165f908152600760205260408120546105ed565b606061056d7f000000000000000000000000000000000000000000000000000000000000000060056112e2565b606061056d7f000000000000000000000000000000000000000000000000000000000000000060066112e2565b80545f908015610e9057610e7a83610c90600184611ff0565b54600160301b90046001600160d01b0316610a6d565b5f9392505050565b5f6105ed610ea4610ab1565b8360405161190160f01b8152600281019290925260228201526042902090565b5f805f80610ed48888888861138b565b925092509250610ee48282611453565b50909695505050505050565b6001600160a01b0382165f908152600760205260409020805460018101909155818114610d3b576040516301d4b62360e61b81526001600160a01b038416600482015260248101829052604401610518565b610d3b838383600161150b565b604080518082019091525f80825260208201526001600160a01b0383165f908152600960205260409020610a6d90836115de565b5f815f03610f9257505f919050565b5f6001610f9e8461164b565b901c6001901b90506001818481610fb757610fb7612016565b048201901c90506001818481610fcf57610fcf612016565b048201901c90506001818481610fe757610fe7612016565b048201901c90506001818481610fff57610fff612016565b048201901c9050600181848161101757611017612016565b048201901c9050600181848161102f5761102f612016565b048201901c9050600181848161104757611047612016565b048201901c9050610a6d8182858161106157611061612016565b046116de565b5f5b818310156110be575f61107c84846116f3565b5f8781526020902090915065ffffffffffff86169082015465ffffffffffff1611156110aa578092506110b8565b6110b5816001612003565b93505b50611069565b509392505050565b6001600160a01b0381165f908152602081905260408120546105ed565b816001600160a01b0316836001600160a01b03161415801561110457505f81115b15610d3b576001600160a01b038316156111ab576001600160a01b0383165f90815260096020526040812081906111469061170d61114186611718565b61174b565b6001600160d01b031691506001600160d01b03169150846001600160a01b03167fdec2bacdd2f05b59de34da9b523dff8be42e5e38e818c82fdb0bae774387a72483836040516111a0929190918252602082015260400190565b60405180910390a250505b6001600160a01b03821615610d3b576001600160a01b0382165f90815260096020526040812081906111e39061178361114186611718565b6001600160d01b031691506001600160d01b03169150836001600160a01b03167fdec2bacdd2f05b59de34da9b523dff8be42e5e38e818c82fdb0bae774387a724838360405161123d929190918252602082015260400190565b60405180910390a25050505050565b5f63ffffffff821115610c0c576040516306dfcc6560e41b81526020600482015260248101839052604401610518565b61128783838361178e565b6001600160a01b0383166112d7575f61129f60025490565b90506001600160d01b03808211156112d457604051630e58ae9360e11b81526004810183905260248101829052604401610518565b50505b610d3b8383836118b4565b606060ff83146112fc576112f583611929565b90506105ed565b81805461130890611f90565b80601f016020809104026020016040519081016040528092919081815260200182805461133490611f90565b801561137f5780601f106113565761010080835404028352916020019161137f565b820191905f5260205f20905b81548152906001019060200180831161136257829003601f168201915b505050505090506105ed565b5f80807f7fffffffffffffffffffffffffffffff5d576e7357a4501ddfe92f46681b20a08411156113c457505f91506003905082611449565b604080515f808252602082018084528a905260ff891692820192909252606081018790526080810186905260019060a0016020604051602081039080840390855afa158015611415573d5f803e3d5ffd5b5050604051601f1901519150506001600160a01b03811661144057505f925060019150829050611449565b92505f91508190505b9450945094915050565b5f8260038111156114665761146661202a565b0361146f575050565b60018260038111156114835761148361202a565b036114a15760405163f645eedf60e01b815260040160405180910390fd5b60028260038111156114b5576114b561202a565b036114d65760405163fce698f760e01b815260048101829052602401610518565b60038260038111156114ea576114ea61202a565b03610676576040516335e2f38360e21b815260048101829052602401610518565b6001600160a01b0384166115345760405163e602df0560e01b81525f6004820152602401610518565b6001600160a01b03831661155d57604051634a1406b160e11b81525f6004820152602401610518565b6001600160a01b038085165f90815260016020908152604080832093871683529290522082905580156115d857826001600160a01b0316846001600160a01b03167f8c5be1e5ebec7d5bd14f71427d1e84f3dd0314c0f7b2291e5b200ac8c7c3b925846040516115cf91815260200190565b60405180910390a35b50505050565b604080518082019091525f8082526020820152825f018263ffffffff168154811061160b5761160b611fc8565b5f9182526020918290206040805180820190915291015465ffffffffffff81168252600160301b90046001600160d01b0316918101919091529392505050565b5f80608083901c1561165f57608092831c92015b604083901c1561167157604092831c92015b602083901c1561168357602092831c92015b601083901c1561169557601092831c92015b600883901c156116a757600892831c92015b600483901c156116b957600492831c92015b600283901c156116cb57600292831c92015b600183901c156105ed5760010192915050565b5f8183106116ec5781610a6d565b5090919050565b5f611701600284841861203e565b610a6d90848416612003565b5f610a6d828461205d565b5f6001600160d01b03821115610c0c576040516306dfcc6560e41b815260d0600482015260248101839052604401610518565b5f80611776611758610817565b61176e61176488610e61565b868863ffffffff16565b879190611966565b915091505b935093915050565b5f610a6d8284612084565b6001600160a01b0383166117b8578060025f8282546117ad9190612003565b909155506118289050565b6001600160a01b0383165f908152602081905260409020548181101561180a5760405163391434e360e21b81526001600160a01b03851660048201526024810182905260448101839052606401610518565b6001600160a01b0384165f9081526020819052604090209082900390555b6001600160a01b03821661184457600280548290039055611862565b6001600160a01b0382165f9081526020819052604090208054820190555b816001600160a01b0316836001600160a01b03167fddf252ad1be2c89b69c2b068fc378daa952ba7f163c4a11628f55a4df523b3ef836040516118a791815260200190565b60405180910390a3505050565b6001600160a01b0383166118d6576118d3600a61178361114184611718565b50505b6001600160a01b0382166118f8576118f5600a61170d61114184611718565b50505b6001600160a01b038381165f90815260086020526040808220548584168352912054610d3b929182169116836110e3565b60605f61193583611973565b6040805160208082528183019092529192505f91906020820181803683375050509182525060208101929092525090565b5f8061177685858561199a565b5f60ff8216601f8111156105ed57604051632cd44ac360e21b815260040160405180910390fd5b82545f9081908015611ab6575f6119b687610c90600185611ff0565b60408051808201909152905465ffffffffffff808216808452600160301b9092046001600160d01b031660208401529192509087161015611a0a57604051632520601d60e01b815260040160405180910390fd5b805165ffffffffffff808816911603611a565784611a2d88610c90600186611ff0565b80546001600160d01b0392909216600160301b0265ffffffffffff909216919091179055611aa6565b6040805180820190915265ffffffffffff80881682526001600160d01b0380881660208085019182528b54600181018d555f8d81529190912094519151909216600160301b029216919091179101555b60200151925083915061177b9050565b50506040805180820190915265ffffffffffff80851682526001600160d01b0380851660208085019182528854600181018a555f8a815291822095519251909316600160301b02919093161792019190915590508161177b565b5f81518084525f5b81811015611b3457602081850181015186830182015201611b18565b505f602082860101526020601f19601f83011685010191505092915050565b602081525f610a6d6020830184611b10565b80356001600160a01b0381168114611b7b575f80fd5b919050565b5f8060408385031215611b91575f80fd5b611b9a83611b65565b946020939093013593505050565b5f805f60608486031215611bba575f80fd5b611bc384611b65565b9250611bd160208501611b65565b9150604084013590509250925092565b5f60208284031215611bf1575f80fd5b610a6d82611b65565b634e487b7160e01b5f52604160045260245ffd5b604051601f8201601f1916810167ffffffffffffffff81118282101715611c3757611c37611bfa565b604052919050565b5f67ffffffffffffffff821115611c5857611c58611bfa565b5060051b60200190565b5f82601f830112611c71575f80fd5b81356020611c86611c8183611c3f565b611c0e565b8083825260208201915060208460051b870101935086841115611ca7575f80fd5b602086015b84811015611cca57611cbd81611b65565b8352918301918301611cac565b509695505050505050565b5f805f60608486031215611ce7575f80fd5b833567ffffffffffffffff80821115611cfe575f80fd5b611d0a87838801611c62565b9450602091508186013581811115611d20575f80fd5b611d2c88828901611c62565b945050604086013581811115611d40575f80fd5b86019050601f81018713611d52575f80fd5b8035611d60611c8182611c3f565b81815260059190911b82018301908381019089831115611d7e575f80fd5b928401925b82841015611d9c57833582529284019290840190611d83565b80955050505050509250925092565b60ff60f81b881681525f602060e06020840152611dcb60e084018a611b10565b8381036040850152611ddd818a611b10565b606085018990526001600160a01b038816608086015260a0850187905284810360c0860152855180825260208088019350909101905f5b81811015611e3057835183529284019291840191600101611e14565b50909c9b505050505050505050505050565b5f60208284031215611e52575f80fd5b5035919050565b803560ff81168114611b7b575f80fd5b5f805f805f8060c08789031215611e7e575f80fd5b611e8787611b65565b95506020870135945060408701359350611ea360608801611e59565b92506080870135915060a087013590509295509295509295565b5f805f805f805f60e0888a031215611ed3575f80fd5b611edc88611b65565b9650611eea60208901611b65565b95506040880135945060608801359350611f0660808901611e59565b925060a0880135915060c0880135905092959891949750929550565b5f8060408385031215611f33575f80fd5b611f3c83611b65565b9150611f4a60208401611b65565b90509250929050565b5f8060408385031215611f64575f80fd5b611f6d83611b65565b9150602083013563ffffffff81168114611f85575f80fd5b809150509250929050565b600181811c90821680611fa457607f821691505b602082108103611fc257634e487b7160e01b5f52602260045260245ffd5b50919050565b634e487b7160e01b5f52603260045260245ffd5b634e487b7160e01b5f52601160045260245ffd5b818103818111156105ed576105ed611fdc565b808201808211156105ed576105ed611fdc565b634e487b7160e01b5f52601260045260245ffd5b634e487b7160e01b5f52602160045260245ffd5b5f8261205857634e487b7160e01b5f52601260045260245ffd5b500490565b6001600160d01b0382811682821603908082111561207d5761207d611fdc565b5092915050565b6001600160d01b0381811683821601908082111561207d5761207d611fdc56fea2646970667358221220e70a73f9b5260fcda71db8c07ad03c9b5092f5a4ae125eabff0d3ec0f0bd917764736f6c63430008160033","linkReferences":{}},"methodIdentifiers":{"CLOCK_MODE()":"4bf5d7e9","DOMAIN_SEPARATOR()":"3644e515","allowance(address,address)":"dd62ed3e","approve(address,uint256)":"095ea7b3","balanceOf(address)":"70a08231","checkpoints(address,uint32)":"f1127ed8","clock()":"91ddadf4","decimals()":"313ce567","delegate(address)":"5c19a95c","delegateBySig(address,uint256,uint256,uint8,bytes32,bytes32)":"c3cda520","delegates(address)":"587cde1e","eip712Domain()":"84b0196e","getPastTotalSupply(uint256)":"8e539e8c","getPastVotes(address,uint256)":"3a46b1a8","getVotes(address)":"9ab24eb0","name()":"06fdde03","nonces(address)":"7ecebe00","numCheckpoints(address)":"6fcfff45","oracleTransfer(address[],address[],uint256[])":"7ab7c65d","owner()":"8da5cb5b","permit(address,address,uint256,uint256,uint8,bytes32,bytes32)":"d505accf","renounceOwnership()":"715018a6","symbol()":"95d89b41","totalSupply()":"18160ddd","transfer(address,uint256)":"a9059cbb","transferFrom(address,address,uint256)":"23b872dd","transferOwnership(address)":"f2fde38b"},"id":29}