{"abi":[{"type":"constructor","inputs":[{"name":"fxManager","type":"address","internalType":"address"}],"stateMutability":"nonpayable"},{"type":"function","name":"allowance","inputs":[{"name":"owner","type":"address","internalType":"address"},{"name":"spender","type":"address","internalType":"address"}],"outputs":[{"name":"","type":"uint256","internalType":"uint256"}],"stateMutability":"view"},{"type":"function","name":"approve","inputs":[{"name":"spender","type":"address","internalType":"address"},{"name":"value","type":"uint256","internalType":"uint256"}],"outputs":[{"name":"","type":"bool","internalType":"bool"}],"stateMutability":"nonpayable"},{"type":"function","name":"balanceOf","inputs":[{"name":"account","type":"address","internalType":"address"}],"outputs":[{"name":"","type":"uint256","internalType":"uint256"}],"stateMutability":"view"},{"type":"function","name":"burn","inputs":[{"name":"user","type":"address","internalType":"address"},{"name":"amount","type":"uint256","internalType":"uint256"}],"outputs":[],"stateMutability":"nonpayable"},{"type":"function","name":"decimals","inputs":[],"outputs":[{"name":"","type":"uint8","internalType":"uint8"}],"stateMutability":"view"},{"type":"function","name":"mint","inputs":[{"name":"user","type":"address","internalType":"address"},{"name":"amount","type":"uint256","internalType":"uint256"}],"outputs":[],"stateMutability":"nonpayable"},{"type":"function","name":"name","inputs":[],"outputs":[{"name":"","type":"string","internalType":"string"}],"stateMutability":"view"},{"type":"function","name":"setFxManager","inputs":[{"name":"fxManager","type":"address","internalType":"address"}],"outputs":[],"stateMutability":"nonpayable"},{"type":"function","name":"symbol","inputs":[],"outputs":[{"name":"","type":"string","internalType":"string"}],"stateMutability":"view"},{"type":"function","name":"totalSupply","inputs":[],"outputs":[{"name":"","type":"uint256","internalType":"uint256"}],"stateMutability":"view"},{"type":"function","name":"transfer","inputs":[{"name":"to","type":"address","internalType":"address"},{"name":"value","type":"uint256","internalType":"uint256"}],"outputs":[{"name":"","type":"bool","internalType":"bool"}],"stateMutability":"nonpayable"},{"type":"function","name":"transferFrom","inputs":[{"name":"from","type":"address","internalType":"address"},{"name":"to","type":"address","internalType":"address"},{"name":"value","type":"uint256","internalType":"uint256"}],"outputs":[{"name":"","type":"bool","internalType":"bool"}],"stateMutability":"nonpayable"},{"type":"event","name":"Approval","inputs":[{"name":"owner","type":"address","indexed":true,"internalType":"address"},{"name":"spender","type":"address","indexed":true,"internalType":"address"},{"name":"value","type":"uint256","indexed":false,"internalType":"uint256"}],"anonymous":false},{"type":"event","name":"Transfer","inputs":[{"name":"from","type":"address","indexed":true,"internalType":"address"},{"name":"to","type":"address","indexed":true,"internalType":"address"},{"name":"value","type":"uint256","indexed":false,"internalType":"uint256"}],"anonymous":false},{"type":"error","name":"ERC20InsufficientAllowance","inputs":[{"name":"spender","type":"address","internalType":"address"},{"name":"allowance","type":"uint256","internalType":"uint256"},{"name":"needed","type":"uint256","internalType":"uint256"}]},{"type":"error","name":"ERC20InsufficientBalance","inputs":[{"name":"sender","type":"address","internalType":"address"},{"name":"balance","type":"uint256","internalType":"uint256"},{"name":"needed","type":"uint256","internalType":"uint256"}]},{"type":"error","name":"ERC20InvalidApprover","inputs":[{"name":"approver","type":"address","internalType":"address"}]},{"type":"error","name":"ERC20InvalidReceiver","inputs":[{"name":"receiver","type":"address","internalType":"address"}]},{"type":"error","name":"ERC20InvalidSender","inputs":[{"name":"sender","type":"address","internalType":"address"}]},{"type":"error","name":"ERC20InvalidSpender","inputs":[{"name":"spender","type":"address","internalType":"address"}]}],"bytecode":{"object":"0x608060405234801561000f575f80fd5b5060405162000acf38038062000acf833981016040819052610030916100b5565b6040518060400160405280600b81526020016a2132b2b6b2b92a37b5b2b760a91b81525060405180604001604052806003815260200162424d5760e81b815250816003908161007f919061017a565b50600461008c828261017a565b5050600580546001600160a01b0319166001600160a01b03939093169290921790915550610239565b5f602082840312156100c5575f80fd5b81516001600160a01b03811681146100db575f80fd5b9392505050565b634e487b7160e01b5f52604160045260245ffd5b600181811c9082168061010a57607f821691505b60208210810361012857634e487b7160e01b5f52602260045260245ffd5b50919050565b601f82111561017557805f5260205f20601f840160051c810160208510156101535750805b601f840160051c820191505b81811015610172575f815560010161015f565b50505b505050565b81516001600160401b03811115610193576101936100e2565b6101a7816101a184546100f6565b8461012e565b602080601f8311600181146101da575f84156101c35750858301515b5f19600386901b1c1916600185901b178555610231565b5f85815260208120601f198616915b82811015610208578886015182559484019460019091019084016101e9565b508582101561022557878501515f19600388901b60f8161c191681555b505060018460011b0185555b505050505050565b61088880620002475f395ff3fe608060405234801561000f575f80fd5b50600436106100b1575f3560e01c806340c10f191161006e57806340c10f191461015c57806370a082311461016f57806395d89b41146101975780639dc29fac1461019f578063a9059cbb146101b2578063dd62ed3e146101c5575f80fd5b806306fdde03146100b5578063095ea7b3146100d3578063115a4689146100f657806318160ddd1461012857806323b872dd1461013a578063313ce5671461014d575b5f80fd5b6100bd6101fd565b6040516100ca91906106e2565b60405180910390f35b6100e66100e1366004610749565b61028d565b60405190151581526020016100ca565b610126610104366004610771565b600580546001600160a01b0319166001600160a01b0392909216919091179055565b005b6002545b6040519081526020016100ca565b6100e6610148366004610791565b6102a6565b604051601281526020016100ca565b61012661016a366004610749565b6102c9565b61012c61017d366004610771565b6001600160a01b03165f9081526020819052604090205490565b6100bd610327565b6101266101ad366004610749565b610336565b6100e66101c0366004610749565b61038b565b61012c6101d33660046107ca565b6001600160a01b039182165f90815260016020908152604080832093909416825291909152205490565b60606003805461020c906107fb565b80601f0160208091040260200160405190810160405280929190818152602001828054610238906107fb565b80156102835780601f1061025a57610100808354040283529160200191610283565b820191905f5260205f20905b81548152906001019060200180831161026657829003601f168201915b5050505050905090565b5f3361029a818585610398565b60019150505b92915050565b5f336102b38582856103aa565b6102be858585610425565b506001949350505050565b6005546001600160a01b031633146103195760405162461bcd60e51b815260206004820152600e60248201526d24b73b30b634b21039b2b73232b960911b60448201526064015b60405180910390fd5b6103238282610482565b5050565b60606004805461020c906107fb565b6005546001600160a01b031633146103815760405162461bcd60e51b815260206004820152600e60248201526d24b73b30b634b21039b2b73232b960911b6044820152606401610310565b61032382826104b6565b5f3361029a818585610425565b6103a583838360016104ea565b505050565b6001600160a01b038381165f908152600160209081526040808320938616835292905220545f19811461041f578181101561041157604051637dc7a0d960e11b81526001600160a01b03841660048201526024810182905260448101839052606401610310565b61041f84848484035f6104ea565b50505050565b6001600160a01b03831661044e57604051634b637e8f60e11b81525f6004820152602401610310565b6001600160a01b0382166104775760405163ec442f0560e01b81525f6004820152602401610310565b6103a58383836105bc565b6001600160a01b0382166104ab5760405163ec442f0560e01b81525f6004820152602401610310565b6103235f83836105bc565b6001600160a01b0382166104df57604051634b637e8f60e11b81525f6004820152602401610310565b610323825f836105bc565b6001600160a01b0384166105135760405163e602df0560e01b81525f6004820152602401610310565b6001600160a01b03831661053c57604051634a1406b160e11b81525f6004820152602401610310565b6001600160a01b038085165f908152600160209081526040808320938716835292905220829055801561041f57826001600160a01b0316846001600160a01b03167f8c5be1e5ebec7d5bd14f71427d1e84f3dd0314c0f7b2291e5b200ac8c7c3b925846040516105ae91815260200190565b60405180910390a350505050565b6001600160a01b0383166105e6578060025f8282546105db9190610833565b909155506106569050565b6001600160a01b0383165f90815260208190526040902054818110156106385760405163391434e360e21b81526001600160a01b03851660048201526024810182905260448101839052606401610310565b6001600160a01b0384165f9081526020819052604090209082900390555b6001600160a01b03821661067257600280548290039055610690565b6001600160a01b0382165f9081526020819052604090208054820190555b816001600160a01b0316836001600160a01b03167fddf252ad1be2c89b69c2b068fc378daa952ba7f163c4a11628f55a4df523b3ef836040516106d591815260200190565b60405180910390a3505050565b5f602080835283518060208501525f5b8181101561070e578581018301518582016040015282016106f2565b505f604082860101526040601f19601f8301168501019250505092915050565b80356001600160a01b0381168114610744575f80fd5b919050565b5f806040838503121561075a575f80fd5b6107638361072e565b946020939093013593505050565b5f60208284031215610781575f80fd5b61078a8261072e565b9392505050565b5f805f606084860312156107a3575f80fd5b6107ac8461072e565b92506107ba6020850161072e565b9150604084013590509250925092565b5f80604083850312156107db575f80fd5b6107e48361072e565b91506107f26020840161072e565b90509250929050565b600181811c9082168061080f57607f821691505b60208210810361082d57634e487b7160e01b5f52602260045260245ffd5b50919050565b808201808211156102a057634e487b7160e01b5f52601160045260245ffdfea26469706673582212208f4fc73efdb7b03c758cfa9690988b6dfed2105180f212204276a313f9a7c09664736f6c63430008160033","linkReferences":{}},"methodIdentifiers":{"allowance(address,address)":"dd62ed3e","approve(address,uint256)":"095ea7b3","balanceOf(address)":"70a08231","burn(address,uint256)":"9dc29fac","decimals()":"313ce567","mint(address,uint256)":"40c10f19","name()":"06fdde03","setFxManager(address)":"115a4689","symbol()":"95d89b41","totalSupply()":"18160ddd","transfer(address,uint256)":"a9059cbb","transferFrom(address,address,uint256)":"23b872dd"},"id":10}