{"abi":[{"type":"constructor","inputs":[],"stateMutability":"nonpayable"},{"type":"function","name":"ADMIN_ROLE","inputs":[],"outputs":[{"name":"","type":"bytes32","internalType":"bytes32"}],"stateMutability":"view"},{"type":"function","name":"CREATOR_ROLE","inputs":[],"outputs":[{"name":"","type":"bytes32","internalType":"bytes32"}],"stateMutability":"view"},{"type":"function","name":"DEFAULT_ADMIN_ROLE","inputs":[],"outputs":[{"name":"","type":"bytes32","internalType":"bytes32"}],"stateMutability":"view"},{"type":"function","name":"allPairsLength","inputs":[],"outputs":[{"name":"","type":"uint256","internalType":"uint256"}],"stateMutability":"view"},{"type":"function","name":"buyTax","inputs":[],"outputs":[{"name":"","type":"uint256","internalType":"uint256"}],"stateMutability":"view"},{"type":"function","name":"createPair","inputs":[{"name":"tokenA","type":"address","internalType":"address"},{"name":"tokenB","type":"address","internalType":"address"}],"outputs":[{"name":"","type":"address","internalType":"address"}],"stateMutability":"nonpayable"},{"type":"function","name":"getPair","inputs":[{"name":"tokenA","type":"address","internalType":"address"},{"name":"tokenB","type":"address","internalType":"address"}],"outputs":[{"name":"","type":"address","internalType":"address"}],"stateMutability":"view"},{"type":"function","name":"getRoleAdmin","inputs":[{"name":"role","type":"bytes32","internalType":"bytes32"}],"outputs":[{"name":"","type":"bytes32","internalType":"bytes32"}],"stateMutability":"view"},{"type":"function","name":"grantRole","inputs":[{"name":"role","type":"bytes32","internalType":"bytes32"},{"name":"account","type":"address","internalType":"address"}],"outputs":[],"stateMutability":"nonpayable"},{"type":"function","name":"hasRole","inputs":[{"name":"role","type":"bytes32","internalType":"bytes32"},{"name":"account","type":"address","internalType":"address"}],"outputs":[{"name":"","type":"bool","internalType":"bool"}],"stateMutability":"view"},{"type":"function","name":"initialize","inputs":[{"name":"taxVault_","type":"address","internalType":"address"},{"name":"buyTax_","type":"uint256","internalType":"uint256"},{"name":"sellTax_","type":"uint256","internalType":"uint256"}],"outputs":[],"stateMutability":"nonpayable"},{"type":"function","name":"pairs","inputs":[{"name":"","type":"uint256","internalType":"uint256"}],"outputs":[{"name":"","type":"address","internalType":"address"}],"stateMutability":"view"},{"type":"function","name":"renounceRole","inputs":[{"name":"role","type":"bytes32","internalType":"bytes32"},{"name":"callerConfirmation","type":"address","internalType":"address"}],"outputs":[],"stateMutability":"nonpayable"},{"type":"function","name":"revokeRole","inputs":[{"name":"role","type":"bytes32","internalType":"bytes32"},{"name":"account","type":"address","internalType":"address"}],"outputs":[],"stateMutability":"nonpayable"},{"type":"function","name":"router","inputs":[],"outputs":[{"name":"","type":"address","internalType":"address"}],"stateMutability":"view"},{"type":"function","name":"sellTax","inputs":[],"outputs":[{"name":"","type":"uint256","internalType":"uint256"}],"stateMutability":"view"},{"type":"function","name":"setRouter","inputs":[{"name":"router_","type":"address","internalType":"address"}],"outputs":[],"stateMutability":"nonpayable"},{"type":"function","name":"setTaxParams","inputs":[{"name":"newVault_","type":"address","internalType":"address"},{"name":"buyTax_","type":"uint256","internalType":"uint256"},{"name":"sellTax_","type":"uint256","internalType":"uint256"}],"outputs":[],"stateMutability":"nonpayable"},{"type":"function","name":"supportsInterface","inputs":[{"name":"interfaceId","type":"bytes4","internalType":"bytes4"}],"outputs":[{"name":"","type":"bool","internalType":"bool"}],"stateMutability":"view"},{"type":"function","name":"taxVault","inputs":[],"outputs":[{"name":"","type":"address","internalType":"address"}],"stateMutability":"view"},{"type":"event","name":"Initialized","inputs":[{"name":"version","type":"uint64","indexed":false,"internalType":"uint64"}],"anonymous":false},{"type":"event","name":"PairCreated","inputs":[{"name":"tokenA","type":"address","indexed":true,"internalType":"address"},{"name":"tokenB","type":"address","indexed":true,"internalType":"address"},{"name":"pair","type":"address","indexed":false,"internalType":"address"},{"name":"","type":"uint256","indexed":false,"internalType":"uint256"}],"anonymous":false},{"type":"event","name":"RoleAdminChanged","inputs":[{"name":"role","type":"bytes32","indexed":true,"internalType":"bytes32"},{"name":"previousAdminRole","type":"bytes32","indexed":true,"internalType":"bytes32"},{"name":"newAdminRole","type":"bytes32","indexed":true,"internalType":"bytes32"}],"anonymous":false},{"type":"event","name":"RoleGranted","inputs":[{"name":"role","type":"bytes32","indexed":true,"internalType":"bytes32"},{"name":"account","type":"address","indexed":true,"internalType":"address"},{"name":"sender","type":"address","indexed":true,"internalType":"address"}],"anonymous":false},{"type":"event","name":"RoleRevoked","inputs":[{"name":"role","type":"bytes32","indexed":true,"internalType":"bytes32"},{"name":"account","type":"address","indexed":true,"internalType":"address"},{"name":"sender","type":"address","indexed":true,"internalType":"address"}],"anonymous":false},{"type":"error","name":"AccessControlBadConfirmation","inputs":[]},{"type":"error","name":"AccessControlUnauthorizedAccount","inputs":[{"name":"account","type":"address","internalType":"address"},{"name":"neededRole","type":"bytes32","internalType":"bytes32"}]},{"type":"error","name":"InvalidInitialization","inputs":[]},{"type":"error","name":"NotInitializing","inputs":[]},{"type":"error","name":"ReentrancyGuardReentrantCall","inputs":[]}],"bytecode":{"object":"0x608080604052346100b8577ff0c57e16840df040f15088dc2f81fe391c3923bec73e23a9662efc9c229c6a009081549060ff8260401c166100a957506001600160401b036002600160401b031982821601610064575b6040516116cc90816100bd8239f35b6001600160401b031990911681179091556040519081527fc7f505b2f371ae2175ee4913f4499e1f2633a7b5936321eed1cdaeb6115181d290602090a15f8080610055565b63f92ee8a960e01b8152600490fd5b5f80fdfe6080604090808252600480361015610015575f80fd5b5f3560e01c91826301ffc9a71461084657508163248a9ca3146108105781632f2ff15d146107e857816336568abe146107a45781634f7041a514610788578163574f2ba31461076a57816375b238fc146107305781637a1ac61e146105bd5781637acf6337146105755781638aeda25a1461053b57816391d14854146104eb578163a217fddf146104d1578163b91ac78814610491578163c0d786551461044e578163c9c6539614610202578163cc1776d3146101e4578163d547741f1461019c57508063e2ad37b014610174578063e6a43905146101275763f887ea40146100fc575f80fd5b34610123575f3660031901126101235760025490516001600160a01b039091168152602090f35b5f80fd5b50346101235780600319360112610123576020906101436108ae565b61014b610898565b6001600160a01b039182165f908152808552838120918316815290845282902054915191168152f35b5034610123575f3660031901126101235760035490516001600160a01b039091168152602090f35b82346101235780600319360112610123576101e291356101dd60016101bf610898565b93835f525f805160206116778339815191526020525f2001546109fc565b610b51565b005b8234610123575f366003190112610123576020906005549051908152f35b823461012357806003193601126101235761021b6108ae565b610223610898565b917f828634d95e775031b9ff576b159a8509d3053581a8c9c4d7d86899e0afcd882f92835f526020935f805160206116778339815191528552825f20335f52855260ff835f2054161561043057507f9b779b17422d0df92223018b32b4d1fa46e071723d6817e2486d003becc55f0090600282541461042057600282556001600160a01b039384169084906102b9831515610937565b16906102c6821515610937565b846002541680156103f157845190610a65908183019183831067ffffffffffffffff8411176103de57918391606093610c1284398152848a82015285888201520301905ff080156103d457851694815f525f8752845f20835f528752845f206001600160601b0360a01b9087828254161790555f8852855f20835f52885286865f209182541617905560015497680100000000000000008910156103c15750610378886001809798999a0187556108ee565b819291549060031b9189831b921b19161790557f0d3648bd0f6ba80134a33ba9275ac585d9d315f0ad8355cddefde31afa28d0e98585548151908982528a820152a35551908152f35b604190634e487b7160e01b5f525260245ffd5b84513d5f823e3d90fd5b60418b634e487b7160e01b5f525260245ffd5b845162461bcd60e51b815280890188905260096024820152682737903937baba32b960b91b6044820152606490fd5b8251633ee5aeb560e01b81528690fd5b825163e2517d3f60e01b815233818801526024810191909152604490fd5b34610123576020366003190112610123576104676108ae565b61046f610983565b600280546001600160a01b0319166001600160a01b0392909216919091179055005b905034610123576020366003190112610123573590600154821015610123576104bb6020926108ee565b905491519160018060a01b039160031b1c168152f35b8234610123575f36600319011261012357602090515f8152f35b8234610123578060031936011261012357602091610507610898565b90355f525f805160206116778339815191528352815f209060018060a01b03165f52825260ff815f20541690519015158152f35b8234610123575f36600319011261012357602090517f828634d95e775031b9ff576b159a8509d3053581a8c9c4d7d86899e0afcd882f8152f35b3461012357610583366108c4565b92909161058e610983565b6001600160a01b03166105a2811515610937565b6001600160601b0360a01b6003541617600355556005555f80f35b905034610123576105cd366108c4565b907ff0c57e16840df040f15088dc2f81fe391c3923bec73e23a9662efc9c229c6a009384549360ff85881c16159467ffffffffffffffff811680159081610728575b600114908161071e575b159081610715575b506107055767ffffffffffffffff1981166001178755856106e6575b50610646610bd0565b61064e610bd0565b610656610bd0565b60017f9b779b17422d0df92223018b32b4d1fa46e071723d6817e2486d003becc55f005561068333610a2a565b5060018060a01b03166001600160601b0360a01b6003541617600355556005556106a957005b805468ff00000000000000001916905551600181527fc7f505b2f371ae2175ee4913f4499e1f2633a7b5936321eed1cdaeb6115181d290602090a1005b68ffffffffffffffffff1916680100000000000000011786555f61063d565b875163f92ee8a960e01b81528390fd5b9050155f610621565b303b159150610619565b87915061060f565b8234610123575f36600319011261012357602090517fa49807205ce4d355092ef5a8a18f56e8913cf4a201fbe287825b095693c217758152f35b8234610123575f366003190112610123576020906001549051908152f35b8234610123575f36600319011261012357602091549051908152f35b82346101235780600319360112610123576107bd610898565b90336001600160a01b038316036107d957506101e29135610b51565b5163334bd91960e11b81529050fd5b82346101235780600319360112610123576101e2913561080b60016101bf610898565b610ac7565b823461012357602036600319011261012357602091355f525f8051602061167783398151915282526001815f2001549051908152f35b903461012357602036600319011261012357359063ffffffff60e01b821680920361012357602091637965db0b60e01b8114908115610887575b5015158152f35b6301ffc9a760e01b14905083610880565b602435906001600160a01b038216820361012357565b600435906001600160a01b038216820361012357565b6060906003190112610123576004356001600160a01b038116810361012357906024359060443590565b6001548110156109235760015f527fb10e2d527612073b26eecdfd717e6a320cf44b4afac2b0732d9fcbe2b7fa0cf601905f90565b634e487b7160e01b5f52603260045260245ffd5b1561093e57565b60405162461bcd60e51b815260206004820152601f60248201527f5a65726f2061646472657373657320617265206e6f7420616c6c6f7765642e006044820152606490fd5b335f9081527fb16e88c42fd4e48df2dd6a2eabd6bc9aec654ec170056b470819f8892cc6431c60205260409020547fa49807205ce4d355092ef5a8a18f56e8913cf4a201fbe287825b095693c217759060ff16156109de5750565b6044906040519063e2517d3f60e01b82523360048301526024820152fd5b805f525f8051602061167783398151915260205260405f20335f5260205260ff60405f205416156109de5750565b6001600160a01b03165f8181527fb7db2dd08fcb62d0c9e08c51941cae53c267786a0b75803fb7960902fc8ef97d60205260409020545f805160206116778339815191529060ff16610ac1575f805260205260405f20815f5260205260405f20600160ff1982541617905533905f7f2f8788117e7eff1d82e926ec794901d17c78024a50270940304540a733656f0d8180a4600190565b50505f90565b90815f525f805160206116778339815191528060205260405f209160018060a01b031691825f5260205260ff60405f205416155f14610b4a57825f5260205260405f20815f5260205260405f20600160ff1982541617905533917f2f8788117e7eff1d82e926ec794901d17c78024a50270940304540a733656f0d5f80a4600190565b5050505f90565b90815f525f805160206116778339815191528060205260405f209160018060a01b031691825f5260205260ff60405f2054165f14610b4a57825f5260205260405f20815f5260205260405f2060ff19815416905533917ff6391f5c32d9c69d2a47ea670b442974b53935d1edc7fd64eb21e047a839171b5f80a4600190565b60ff7ff0c57e16840df040f15088dc2f81fe391c3923bec73e23a9662efc9c229c6a005460401c1615610bff57565b604051631afcd79f60e31b8152600490fdfe6080346100ca57601f610a6538819003918201601f19168301916001600160401b038311848410176100ce578084926060946040528339810103126100ca57610047816100e2565b906100606040610059602084016100e2565b92016100e2565b60015f55916001600160a01b0390811691819061007e8415156100f6565b169261008b8415156100f6565b16916100988315156100f6565b60018060a01b031991826001541617600155816002541617600255600354161760035560405161092290816101438239f35b5f80fd5b634e487b7160e01b5f52604160045260245ffd5b51906001600160a01b03821682036100ca57565b156100fd57565b60405162461bcd60e51b815260206004820152601f60248201527f5a65726f2061646472657373657320617265206e6f7420616c6c6f7765642e006044820152606490fdfe6080604090808252600480361015610015575f80fd5b5f3560e01c9182630902f1ac1461060c575081630e06dfc9146105eb5781630fc63d10146105c35781631b2ef1ca146104d65781632ccb1b30146104875781635673b02d146103c45781635c52a5f21461028c5781635c921eb91461023b5781635c9d6938146102125781635f64b55b146101ea5781637464fc3d146101cc578163b69ef8a814610178578163c66f2455146100e5575063f887ea40146100ba575f80fd5b346100e1575f3660031901126100e15760015490516001600160a01b039091168152602090f35b5f80fd5b82346100e1575f3660031901126100e15760035481516370a0823160e01b81523093810193909352602090839060249082906001600160a01b03165afa90811561016f575f9161013a575b6020925051908152f35b90506020823d602011610167575b81610155602093836106e7565b810103126100e1576020915190610130565b3d9150610148565b513d5f823e3d90fd5b82346100e1575f3660031901126100e15760025481516370a0823160e01b81523093810193909352602090839060249082906001600160a01b03165afa90811561016f575f9161013a576020925051908152f35b82346100e1575f3660031901126100e1576020906006549051908152f35b82346100e1575f3660031901126100e15760035490516001600160a01b039091168152602090f35b82346100e1575f3660031901126100e157610234602092600554905490610642565b9051908152f35b82346100e1573660031901126100e15761028a61025661062c565b6001546001600160a01b0391906102709083163314610660565b61027d8282161515610709565b6024359160035416610783565b005b82346100e15760603660031901126100e1576102a661062c565b6001600160a01b039190602435838116908190036100e157836102d0602095600154163314610660565b8216906102de821515610709565b6102e9811515610709565b835163095ea7b360e01b8682018181526001600160a01b0395909516602483015260448035818401528252939092905f9081906103276064876106e7565b85519082865af161033661084a565b81610397575b508061038d575b15610352575b85855160018152f35b6103849361037f918651918883015260248201525f604482015260448152610379816106b7565b826107d9565b6107d9565b82808080610349565b50813b1515610343565b80518015925082156103ac575b50508761033c565b6103bd9250810188019088016107c1565b87806103a4565b82346100e15760803660031901126100e1577f298c349c742327269dc8de6ad66687767310c948ea309df826f5bd103e19d2076080836020943590602435604435906064359261041f60018060a01b03600154163314610660565b6104338261042e878454610755565b610776565b6104438561042e86600554610755565b916006548a5190610453826106b7565b838252848d8301528b8201526060429101525560055542600755865193845287840152858301526060820152a15160018152f35b82346100e1573660031901126100e15761028a6104a261062c565b6001546001600160a01b0391906104bc9083163314610660565b6104c98282161515610709565b6024359160025416610783565b82346100e157806003193601126100e157813560243561050160018060a01b03600154163314610660565b60075461058f5780820282810482148315171561057c579183917fcc9c58b575eabd3f6a1ee653e91fcea3ff546867ffc3782a3bbca1f9b6dbb8df9382602097855161054c816106b7565b828152848a8201528387820152606042910152558160055560065542600755825191825285820152a15160018152f35b601185634e487b7160e01b5f525260245ffd5b825162461bcd60e51b8152602081860152600e60248201526d105b1c9958591e481b5a5b9d195960921b6044820152606490fd5b82346100e1575f3660031901126100e15760025490516001600160a01b039091168152602090f35b82346100e1575f3660031901126100e1576102346020925460055490610642565b9150346100e1575f3660031901126100e157546005549082526020820152f35b600435906001600160a01b03821682036100e157565b811561064c570490565b634e487b7160e01b5f52601260045260245ffd5b1561066757565b60405162461bcd60e51b815260206004820152602260248201527f4f6e6c7920726f757465722063616e2063616c6c20746869732066756e63746960448201526137b760f11b6064820152608490fd5b6080810190811067ffffffffffffffff8211176106d357604052565b634e487b7160e01b5f52604160045260245ffd5b90601f8019910116810190811067ffffffffffffffff8211176106d357604052565b1561071057565b60405162461bcd60e51b815260206004820152601f60248201527f5a65726f2061646472657373657320617265206e6f7420616c6c6f7765642e006044820152606490fd5b9190820180921161076257565b634e487b7160e01b5f52601160045260245ffd5b9190820391821161076257565b60405163a9059cbb60e01b60208201526001600160a01b039290921660248301526044808301939093529181526107bf9161037f6064836106e7565b565b908160209103126100e1575180151581036100e15790565b5f806108019260018060a01b03169360208151910182865af16107fa61084a565b9083610889565b805190811515918261082f575b50506108175750565b60249060405190635274afe760e01b82526004820152fd5b61084292506020809183010191016107c1565b155f8061080e565b3d15610884573d9067ffffffffffffffff82116106d35760405191610879601f8201601f1916602001846106e7565b82523d5f602084013e565b606090565b906108b0575080511561089e57805190602001fd5b604051630a12f52160e11b8152600490fd5b815115806108e3575b6108c1575090565b604051639996b31560e01b81526001600160a01b039091166004820152602490fd5b50803b156108b956fea264697066735822122092440abf02e7ff803c3b7ab98cc214a21c92d393dd9b7b9dca715c2032d8f04164736f6c6343000816003302dd7bc7dec4dceedda775e58dd541e08a116c6c53815c0bd028192f7b626800a26469706673582212203e265d7189a605391647c09767fdc7377afd418226ebe67c72317ca7ec5a7b4464736f6c63430008160033","linkReferences":{}},"methodIdentifiers":{"ADMIN_ROLE()":"75b238fc","CREATOR_ROLE()":"8aeda25a","DEFAULT_ADMIN_ROLE()":"a217fddf","allPairsLength()":"574f2ba3","buyTax()":"4f7041a5","createPair(address,address)":"c9c65396","getPair(address,address)":"e6a43905","getRoleAdmin(bytes32)":"248a9ca3","grantRole(bytes32,address)":"2f2ff15d","hasRole(bytes32,address)":"91d14854","initialize(address,uint256,uint256)":"7a1ac61e","pairs(uint256)":"b91ac788","renounceRole(bytes32,address)":"36568abe","revokeRole(bytes32,address)":"d547741f","router()":"f887ea40","sellTax()":"cc1776d3","setRouter(address)":"c0d78655","setTaxParams(address,uint256,uint256)":"7acf6337","supportsInterface(bytes4)":"01ffc9a7","taxVault()":"e2ad37b0"},"id":19}