{"abi":[{"type":"constructor","inputs":[],"stateMutability":"nonpayable"},{"type":"function","name":"ADMIN_ROLE","inputs":[],"outputs":[{"name":"","type":"bytes32","internalType":"bytes32"}],"stateMutability":"view"},{"type":"function","name":"CREATOR_ROLE","inputs":[],"outputs":[{"name":"","type":"bytes32","internalType":"bytes32"}],"stateMutability":"view"},{"type":"function","name":"DEFAULT_ADMIN_ROLE","inputs":[],"outputs":[{"name":"","type":"bytes32","internalType":"bytes32"}],"stateMutability":"view"},{"type":"function","name":"allPairsLength","inputs":[],"outputs":[{"name":"","type":"uint256","internalType":"uint256"}],"stateMutability":"view"},{"type":"function","name":"buyTax","inputs":[],"outputs":[{"name":"","type":"uint256","internalType":"uint256"}],"stateMutability":"view"},{"type":"function","name":"createPair","inputs":[{"name":"tokenA","type":"address","internalType":"address"},{"name":"tokenB","type":"address","internalType":"address"}],"outputs":[{"name":"","type":"address","internalType":"address"}],"stateMutability":"nonpayable"},{"type":"function","name":"getPair","inputs":[{"name":"tokenA","type":"address","internalType":"address"},{"name":"tokenB","type":"address","internalType":"address"}],"outputs":[{"name":"","type":"address","internalType":"address"}],"stateMutability":"view"},{"type":"function","name":"getRoleAdmin","inputs":[{"name":"role","type":"bytes32","internalType":"bytes32"}],"outputs":[{"name":"","type":"bytes32","internalType":"bytes32"}],"stateMutability":"view"},{"type":"function","name":"grantRole","inputs":[{"name":"role","type":"bytes32","internalType":"bytes32"},{"name":"account","type":"address","internalType":"address"}],"outputs":[],"stateMutability":"nonpayable"},{"type":"function","name":"hasRole","inputs":[{"name":"role","type":"bytes32","internalType":"bytes32"},{"name":"account","type":"address","internalType":"address"}],"outputs":[{"name":"","type":"bool","internalType":"bool"}],"stateMutability":"view"},{"type":"function","name":"initialize","inputs":[{"name":"taxVault_","type":"address","internalType":"address"},{"name":"buyTax_","type":"uint256","internalType":"uint256"},{"name":"sellTax_","type":"uint256","internalType":"uint256"}],"outputs":[],"stateMutability":"nonpayable"},{"type":"function","name":"pairs","inputs":[{"name":"","type":"uint256","internalType":"uint256"}],"outputs":[{"name":"","type":"address","internalType":"address"}],"stateMutability":"view"},{"type":"function","name":"renounceRole","inputs":[{"name":"role","type":"bytes32","internalType":"bytes32"},{"name":"callerConfirmation","type":"address","internalType":"address"}],"outputs":[],"stateMutability":"nonpayable"},{"type":"function","name":"revokeRole","inputs":[{"name":"role","type":"bytes32","internalType":"bytes32"},{"name":"account","type":"address","internalType":"address"}],"outputs":[],"stateMutability":"nonpayable"},{"type":"function","name":"router","inputs":[],"outputs":[{"name":"","type":"address","internalType":"address"}],"stateMutability":"view"},{"type":"function","name":"sellTax","inputs":[],"outputs":[{"name":"","type":"uint256","internalType":"uint256"}],"stateMutability":"view"},{"type":"function","name":"setRouter","inputs":[{"name":"router_","type":"address","internalType":"address"}],"outputs":[],"stateMutability":"nonpayable"},{"type":"function","name":"setTaxParams","inputs":[{"name":"newVault_","type":"address","internalType":"address"},{"name":"buyTax_","type":"uint256","internalType":"uint256"},{"name":"sellTax_","type":"uint256","internalType":"uint256"}],"outputs":[],"stateMutability":"nonpayable"},{"type":"function","name":"supportsInterface","inputs":[{"name":"interfaceId","type":"bytes4","internalType":"bytes4"}],"outputs":[{"name":"","type":"bool","internalType":"bool"}],"stateMutability":"view"},{"type":"function","name":"taxVault","inputs":[],"outputs":[{"name":"","type":"address","internalType":"address"}],"stateMutability":"view"},{"type":"event","name":"Initialized","inputs":[{"name":"version","type":"uint64","indexed":false,"internalType":"uint64"}],"anonymous":false},{"type":"event","name":"PairCreated","inputs":[{"name":"tokenA","type":"address","indexed":true,"internalType":"address"},{"name":"tokenB","type":"address","indexed":true,"internalType":"address"},{"name":"pair","type":"address","indexed":false,"internalType":"address"},{"name":"","type":"uint256","indexed":false,"internalType":"uint256"}],"anonymous":false},{"type":"event","name":"RoleAdminChanged","inputs":[{"name":"role","type":"bytes32","indexed":true,"internalType":"bytes32"},{"name":"previousAdminRole","type":"bytes32","indexed":true,"internalType":"bytes32"},{"name":"newAdminRole","type":"bytes32","indexed":true,"internalType":"bytes32"}],"anonymous":false},{"type":"event","name":"RoleGranted","inputs":[{"name":"role","type":"bytes32","indexed":true,"internalType":"bytes32"},{"name":"account","type":"address","indexed":true,"internalType":"address"},{"name":"sender","type":"address","indexed":true,"internalType":"address"}],"anonymous":false},{"type":"event","name":"RoleRevoked","inputs":[{"name":"role","type":"bytes32","indexed":true,"internalType":"bytes32"},{"name":"account","type":"address","indexed":true,"internalType":"address"},{"name":"sender","type":"address","indexed":true,"internalType":"address"}],"anonymous":false},{"type":"error","name":"AccessControlBadConfirmation","inputs":[]},{"type":"error","name":"AccessControlUnauthorizedAccount","inputs":[{"name":"account","type":"address","internalType":"address"},{"name":"neededRole","type":"bytes32","internalType":"bytes32"}]},{"type":"error","name":"InvalidInitialization","inputs":[]},{"type":"error","name":"NotInitializing","inputs":[]},{"type":"error","name":"ReentrancyGuardReentrantCall","inputs":[]}],"bytecode":{"object":"0x608060405234801561000f575f80fd5b5061001861001d565b6100cf565b7ff0c57e16840df040f15088dc2f81fe391c3923bec73e23a9662efc9c229c6a00805468010000000000000000900460ff161561006d5760405163f92ee8a960e01b815260040160405180910390fd5b80546001600160401b03908116146100cc5780546001600160401b0319166001600160401b0390811782556040519081527fc7f505b2f371ae2175ee4913f4499e1f2633a7b5936321eed1cdaeb6115181d29060200160405180910390a15b50565b611a2c806100dc5f395ff3fe608060405234801562000010575f80fd5b506004361062000140575f3560e01c806391d1485411620000b7578063cc1776d31162000077578063cc1776d314620002d4578063d547741f14620002de578063e2ad37b014620002f5578063e6a439051462000309578063f887ea401462000341575f80fd5b806391d148541462000257578063a217fddf146200026e578063b91ac7881462000276578063c0d7865514620002a6578063c9c6539614620002bd575f80fd5b8063574f2ba31162000103578063574f2ba314620001d057806375b238fc14620001d95780637a1ac61e14620002015780637acf633714620002185780638aeda25a146200022f575f80fd5b806301ffc9a71462000144578063248a9ca314620001705780632f2ff15d146200019657806336568abe14620001af5780634f7041a514620001c6575b5f80fd5b6200015b6200015536600462000b64565b62000355565b60405190151581526020015b60405180910390f35b620001876200018136600462000b94565b6200038c565b60405190815260200162000167565b620001ad620001a736600462000bc8565b620003ad565b005b620001ad620001c036600462000bc8565b620003d5565b6200018760045481565b60015462000187565b620001877fa49807205ce4d355092ef5a8a18f56e8913cf4a201fbe287825b095693c2177581565b620001ad6200021236600462000bf5565b62000410565b620001ad6200022936600462000bf5565b62000563565b620001877f828634d95e775031b9ff576b159a8509d3053581a8c9c4d7d86899e0afcd882f81565b6200015b6200026836600462000bc8565b620005eb565b620001875f81565b6200028d6200028736600462000b94565b62000622565b6040516001600160a01b03909116815260200162000167565b620001ad620002b736600462000c28565b6200064b565b6200028d620002ce36600462000c44565b6200069a565b6200018760055481565b620001ad620002ef36600462000bc8565b62000712565b6003546200028d906001600160a01b031681565b6200028d6200031a36600462000c44565b6001600160a01b039182165f90815260208181526040808320938516835292905220541690565b6002546200028d906001600160a01b031681565b5f6001600160e01b03198216637965db0b60e01b14806200038657506301ffc9a760e01b6001600160e01b03198316145b92915050565b5f9081525f80516020620019d7833981519152602052604090206001015490565b620003b8826200038c565b620003c38162000734565b620003cf838362000743565b50505050565b6001600160a01b0381163314620003ff5760405163334bd91960e11b815260040160405180910390fd5b6200040b8282620007eb565b505050565b7ff0c57e16840df040f15088dc2f81fe391c3923bec73e23a9662efc9c229c6a008054600160401b810460ff16159067ffffffffffffffff165f81158015620004565750825b90505f8267ffffffffffffffff166001148015620004735750303b155b90508115801562000482575080155b15620004a15760405163f92ee8a960e01b815260040160405180910390fd5b845467ffffffffffffffff191660011785558315620004cc57845460ff60401b1916600160401b1785555b620004d662000869565b620004e062000875565b620004ec5f3362000743565b50600380546001600160a01b0319166001600160a01b038a161790556004879055600586905583156200055957845460ff60401b19168555604051600181527fc7f505b2f371ae2175ee4913f4499e1f2633a7b5936321eed1cdaeb6115181d29060200160405180910390a15b5050505050505050565b7fa49807205ce4d355092ef5a8a18f56e8913cf4a201fbe287825b095693c217756200058f8162000734565b6001600160a01b038416620005c15760405162461bcd60e51b8152600401620005b89062000c71565b60405180910390fd5b50600380546001600160a01b0319166001600160a01b039490941693909317909255600455600555565b5f9182525f80516020620019d7833981519152602090815260408084206001600160a01b0393909316845291905290205460ff1690565b6001818154811062000632575f80fd5b5f918252602090912001546001600160a01b0316905081565b7fa49807205ce4d355092ef5a8a18f56e8913cf4a201fbe287825b095693c21775620006778162000734565b50600280546001600160a01b0319166001600160a01b0392909216919091179055565b5f7f828634d95e775031b9ff576b159a8509d3053581a8c9c4d7d86899e0afcd882f620006c78162000734565b620006d162000889565b5f620006de8585620008d4565b9250506200070b60017f9b779b17422d0df92223018b32b4d1fa46e071723d6817e2486d003becc55f0055565b5092915050565b6200071d826200038c565b620007288162000734565b620003cf8383620007eb565b62000740813362000ac1565b50565b5f5f80516020620019d78339815191526200075f8484620005eb565b620007e1575f848152602082815260408083206001600160a01b03871684529091529020805460ff19166001179055620007963390565b6001600160a01b0316836001600160a01b0316857f2f8788117e7eff1d82e926ec794901d17c78024a50270940304540a733656f0d60405160405180910390a4600191505062000386565b5f91505062000386565b5f5f80516020620019d7833981519152620008078484620005eb565b15620007e1575f848152602082815260408083206001600160a01b0387168085529252808320805460ff1916905551339287917ff6391f5c32d9c69d2a47ea670b442974b53935d1edc7fd64eb21e047a839171b9190a4600191505062000386565b6200087362000b02565b565b6200087f62000b02565b6200087362000b4c565b7f9b779b17422d0df92223018b32b4d1fa46e071723d6817e2486d003becc55f00805460011901620008ce57604051633ee5aeb560e01b815260040160405180910390fd5b60029055565b5f6001600160a01b038316620008fe5760405162461bcd60e51b8152600401620005b89062000c71565b6001600160a01b038216620009275760405162461bcd60e51b8152600401620005b89062000c71565b6002546001600160a01b03166200096d5760405162461bcd60e51b81526020600482015260096024820152682737903937baba32b960b91b6044820152606401620005b8565b6002546040515f916001600160a01b031690859085906200098e9062000b56565b6001600160a01b03938416815291831660208301529091166040820152606001604051809103905ff080158015620009c8573d5f803e3d5ffd5b506001600160a01b038581165f8181526020818152604080832089861680855290835281842080546001600160a01b031990811697891697881790915584845282852086865284528285208054821688179055600180548082018255958190527fb10e2d527612073b26eecdfd717e6a320cf44b4afac2b0732d9fcbe2b7fa0cf6909501805490911687179055925481519586529185018290529495509390927f0d3648bd0f6ba80134a33ba9275ac585d9d315f0ad8355cddefde31afa28d0e9910160405180910390a3509392505050565b60017f9b779b17422d0df92223018b32b4d1fa46e071723d6817e2486d003becc55f0055565b62000acd8282620005eb565b62000afe5760405163e2517d3f60e01b81526001600160a01b038216600482015260248101839052604401620005b8565b5050565b7ff0c57e16840df040f15088dc2f81fe391c3923bec73e23a9662efc9c229c6a0054600160401b900460ff166200087357604051631afcd79f60e31b815260040160405180910390fd5b62000a9b62000b02565b610d2e8062000ca983390190565b5f6020828403121562000b75575f80fd5b81356001600160e01b03198116811462000b8d575f80fd5b9392505050565b5f6020828403121562000ba5575f80fd5b5035919050565b80356001600160a01b038116811462000bc3575f80fd5b919050565b5f806040838503121562000bda575f80fd5b8235915062000bec6020840162000bac565b90509250929050565b5f805f6060848603121562000c08575f80fd5b62000c138462000bac565b95602085013595506040909401359392505050565b5f6020828403121562000c39575f80fd5b62000b8d8262000bac565b5f806040838503121562000c56575f80fd5b62000c618362000bac565b915062000bec6020840162000bac565b6020808252601f908201527f5a65726f2061646472657373657320617265206e6f7420616c6c6f7765642e0060408201526060019056fe608060405234801561000f575f80fd5b50604051610d2e380380610d2e83398101604081905261002e9161015d565b60015f556001600160a01b03831661007a5760405162461bcd60e51b815260206004820152601f60248201525f80516020610d0e83398151915260448201526064015b60405180910390fd5b6001600160a01b0382166100bd5760405162461bcd60e51b815260206004820152601f60248201525f80516020610d0e8339815191526044820152606401610071565b6001600160a01b0381166101005760405162461bcd60e51b815260206004820152601f60248201525f80516020610d0e8339815191526044820152606401610071565b600180546001600160a01b039485166001600160a01b03199182161790915560028054938516938216939093179092556003805491909316911617905561019d565b80516001600160a01b0381168114610158575f80fd5b919050565b5f805f6060848603121561016f575f80fd5b61017884610142565b925061018660208501610142565b915061019460408501610142565b90509250925092565b610b64806101aa5f395ff3fe608060405234801561000f575f80fd5b50600436106100e5575f3560e01c80635c921eb9116100885780637464fc3d116100635780637464fc3d146101d6578063b69ef8a8146101de578063c66f2455146101e6578063f887ea40146101ee575f80fd5b80635c921eb9146101a85780635c9d6938146101bb5780635f64b55b146101c3575f80fd5b80631b2ef1ca116100c35780631b2ef1ca1461014a5780632ccb1b301461016d5780635673b02d146101825780635c52a5f214610195575f80fd5b80630902f1ac146100e95780630e06dfc9146101095780630fc63d101461011f575b5f80fd5b600454600554604080519283526020830191909152015b60405180910390f35b610111610201565b604051908152602001610100565b600254610132906001600160a01b031681565b6040516001600160a01b039091168152602001610100565b61015d610158366004610918565b610217565b6040519015158152602001610100565b61018061017b366004610953565b610317565b005b61015d61019036600461097b565b610382565b61015d6101a33660046109aa565b61046e565b6101806101b6366004610953565b610508565b61011161056f565b600354610132906001600160a01b031681565b600654610111565b610111610580565b6101116105eb565b600154610132906001600160a01b031681565b6005546004545f91610212916109f7565b905090565b6001545f906001600160a01b0316331461024c5760405162461bcd60e51b815260040161024390610a16565b60405180910390fd5b6007541561028d5760405162461bcd60e51b815260206004820152600e60248201526d105b1c9958591e481b5a5b9d195960921b6044820152606401610243565b604051806080016040528084815260200183815260200183856102b09190610a58565b81524260209182015281516004558181015160055560408083015160065560609092015160075581518581529081018490527fcc9c58b575eabd3f6a1ee653e91fcea3ff546867ffc3782a3bbca1f9b6dbb8df910160405180910390a15060015b92915050565b6001546001600160a01b031633146103415760405162461bcd60e51b815260040161024390610a16565b6001600160a01b0382166103675760405162461bcd60e51b815260040161024390610a6f565b60025461037e906001600160a01b0316838361061b565b5050565b6001545f906001600160a01b031633146103ae5760405162461bcd60e51b815260040161024390610a16565b5f848660045f01546103c09190610aa6565b6103ca9190610ab9565b90505f83856004600101546103df9190610aa6565b6103e99190610ab9565b60408051608080820183528582526020808301859052600654838501524260609384018190526004889055600586905560075583518c81529081018b90529283018990529082018790529192507f298c349c742327269dc8de6ad66687767310c948ea309df826f5bd103e19d207910160405180910390a15060019695505050505050565b6001545f906001600160a01b0316331461049a5760405162461bcd60e51b815260040161024390610a16565b6001600160a01b0384166104c05760405162461bcd60e51b815260040161024390610a6f565b6001600160a01b0383166104e65760405162461bcd60e51b815260040161024390610a6f565b826104fb6001600160a01b038216868561067f565b60019150505b9392505050565b6001546001600160a01b031633146105325760405162461bcd60e51b815260040161024390610a16565b6001600160a01b0382166105585760405162461bcd60e51b815260040161024390610a6f565b60035461037e906001600160a01b0316838361061b565b6004546005545f91610212916109f7565b6002546040516370a0823160e01b81523060048201525f916001600160a01b0316906370a08231906024015b602060405180830381865afa1580156105c7573d5f803e3d5ffd5b505050506040513d601f19601f820116820180604052508101906102129190610acc565b6003546040516370a0823160e01b81523060048201525f916001600160a01b0316906370a08231906024016105ac565b6040516001600160a01b0383811660248301526044820183905261067a91859182169063a9059cbb906064015b604051602081830303815290604052915060e01b6020820180516001600160e01b038381831617835250505050610714565b505050565b604080516001600160a01b038416602482015260448082018490528251808303909101815260649091019091526020810180516001600160e01b031663095ea7b360e01b1790526106d08482610775565b61070e576040516001600160a01b0384811660248301525f604483015261070491869182169063095ea7b390606401610648565b61070e8482610714565b50505050565b5f6107286001600160a01b03841683610816565b905080515f1415801561074c57508080602001905181019061074a9190610ae3565b155b1561067a57604051635274afe760e01b81526001600160a01b0384166004820152602401610243565b5f805f846001600160a01b0316846040516107909190610b02565b5f604051808303815f865af19150503d805f81146107c9576040519150601f19603f3d011682016040523d82523d5f602084013e6107ce565b606091505b50915091508180156107f85750805115806107f85750808060200190518101906107f89190610ae3565b801561080d57505f856001600160a01b03163b115b95945050505050565b606061050183835f845f80856001600160a01b0316848660405161083a9190610b02565b5f6040518083038185875af1925050503d805f8114610874576040519150601f19603f3d011682016040523d82523d5f602084013e610879565b606091505b5091509150610889868383610893565b9695505050505050565b6060826108a8576108a3826108ef565b610501565b81511580156108bf57506001600160a01b0384163b155b156108e857604051639996b31560e01b81526001600160a01b0385166004820152602401610243565b5080610501565b8051156108ff5780518082602001fd5b604051630a12f52160e11b815260040160405180910390fd5b5f8060408385031215610929575f80fd5b50508035926020909101359150565b80356001600160a01b038116811461094e575f80fd5b919050565b5f8060408385031215610964575f80fd5b61096d83610938565b946020939093013593505050565b5f805f806080858703121561098e575f80fd5b5050823594602084013594506040840135936060013592509050565b5f805f606084860312156109bc575f80fd5b6109c584610938565b92506109d360208501610938565b9150604084013590509250925092565b634e487b7160e01b5f52601160045260245ffd5b5f82610a1157634e487b7160e01b5f52601260045260245ffd5b500490565b60208082526022908201527f4f6e6c7920726f757465722063616e2063616c6c20746869732066756e63746960408201526137b760f11b606082015260800190565b8082028115828204841417610311576103116109e3565b6020808252601f908201527f5a65726f2061646472657373657320617265206e6f7420616c6c6f7765642e00604082015260600190565b80820180821115610311576103116109e3565b81810381811115610311576103116109e3565b5f60208284031215610adc575f80fd5b5051919050565b5f60208284031215610af3575f80fd5b81518015158114610501575f80fd5b5f82515f5b81811015610b215760208186018101518583015201610b07565b505f92019182525091905056fea26469706673582212208d649561ce8f451e0f3a203fb4b65ddff61e65c103159c7f080e535850ad62c364736f6c634300081600335a65726f2061646472657373657320617265206e6f7420616c6c6f7765642e0002dd7bc7dec4dceedda775e58dd541e08a116c6c53815c0bd028192f7b626800a264697066735822122095d432f971bf8e332d0dd1c6f9ab6c15c36f2a5eea851cd21f804958ffb7927064736f6c63430008160033","linkReferences":{}},"methodIdentifiers":{"ADMIN_ROLE()":"75b238fc","CREATOR_ROLE()":"8aeda25a","DEFAULT_ADMIN_ROLE()":"a217fddf","allPairsLength()":"574f2ba3","buyTax()":"4f7041a5","createPair(address,address)":"c9c65396","getPair(address,address)":"e6a43905","getRoleAdmin(bytes32)":"248a9ca3","grantRole(bytes32,address)":"2f2ff15d","hasRole(bytes32,address)":"91d14854","initialize(address,uint256,uint256)":"7a1ac61e","pairs(uint256)":"b91ac788","renounceRole(bytes32,address)":"36568abe","revokeRole(bytes32,address)":"d547741f","router()":"f887ea40","sellTax()":"cc1776d3","setRouter(address)":"c0d78655","setTaxParams(address,uint256,uint256)":"7acf6337","supportsInterface(bytes4)":"01ffc9a7","taxVault()":"e2ad37b0"},"id":19}