{"abi":[{"type":"constructor","inputs":[{"name":"token","type":"address","internalType":"contract IVotes"},{"name":"initialVotingDelay","type":"uint48","internalType":"uint48"},{"name":"initialVotingPeriod","type":"uint32","internalType":"uint32"},{"name":"initialProposalThreshold","type":"uint256","internalType":"uint256"}],"stateMutability":"nonpayable"},{"type":"receive","stateMutability":"payable"},{"type":"function","name":"BALLOT_TYPEHASH","inputs":[],"outputs":[{"name":"","type":"bytes32","internalType":"bytes32"}],"stateMutability":"view"},{"type":"function","name":"CLOCK_MODE","inputs":[],"outputs":[{"name":"","type":"string","internalType":"string"}],"stateMutability":"view"},{"type":"function","name":"COUNTING_MODE","inputs":[],"outputs":[{"name":"","type":"string","internalType":"string"}],"stateMutability":"pure"},{"type":"function","name":"DEFAULT_ADMIN_ROLE","inputs":[],"outputs":[{"name":"","type":"bytes32","internalType":"bytes32"}],"stateMutability":"view"},{"type":"function","name":"EXECUTOR_ROLE","inputs":[],"outputs":[{"name":"","type":"bytes32","internalType":"bytes32"}],"stateMutability":"view"},{"type":"function","name":"EXTENDED_BALLOT_TYPEHASH","inputs":[],"outputs":[{"name":"","type":"bytes32","internalType":"bytes32"}],"stateMutability":"view"},{"type":"function","name":"cancel","inputs":[{"name":"proposalId","type":"uint256","internalType":"uint256"}],"outputs":[],"stateMutability":"nonpayable"},{"type":"function","name":"cancel","inputs":[{"name":"targets","type":"address[]","internalType":"address[]"},{"name":"values","type":"uint256[]","internalType":"uint256[]"},{"name":"calldatas","type":"bytes[]","internalType":"bytes[]"},{"name":"descriptionHash","type":"bytes32","internalType":"bytes32"}],"outputs":[{"name":"","type":"uint256","internalType":"uint256"}],"stateMutability":"nonpayable"},{"type":"function","name":"castVote","inputs":[{"name":"proposalId","type":"uint256","internalType":"uint256"},{"name":"support","type":"uint8","internalType":"uint8"}],"outputs":[{"name":"","type":"uint256","internalType":"uint256"}],"stateMutability":"nonpayable"},{"type":"function","name":"castVoteBySig","inputs":[{"name":"proposalId","type":"uint256","internalType":"uint256"},{"name":"support","type":"uint8","internalType":"uint8"},{"name":"voter","type":"address","internalType":"address"},{"name":"signature","type":"bytes","internalType":"bytes"}],"outputs":[{"name":"","type":"uint256","internalType":"uint256"}],"stateMutability":"nonpayable"},{"type":"function","name":"castVoteWithReason","inputs":[{"name":"proposalId","type":"uint256","internalType":"uint256"},{"name":"support","type":"uint8","internalType":"uint8"},{"name":"reason","type":"string","internalType":"string"}],"outputs":[{"name":"","type":"uint256","internalType":"uint256"}],"stateMutability":"nonpayable"},{"type":"function","name":"castVoteWithReasonAndParams","inputs":[{"name":"proposalId","type":"uint256","internalType":"uint256"},{"name":"support","type":"uint8","internalType":"uint8"},{"name":"reason","type":"string","internalType":"string"},{"name":"params","type":"bytes","internalType":"bytes"}],"outputs":[{"name":"","type":"uint256","internalType":"uint256"}],"stateMutability":"nonpayable"},{"type":"function","name":"castVoteWithReasonAndParamsBySig","inputs":[{"name":"proposalId","type":"uint256","internalType":"uint256"},{"name":"support","type":"uint8","internalType":"uint8"},{"name":"voter","type":"address","internalType":"address"},{"name":"reason","type":"string","internalType":"string"},{"name":"params","type":"bytes","internalType":"bytes"},{"name":"signature","type":"bytes","internalType":"bytes"}],"outputs":[{"name":"","type":"uint256","internalType":"uint256"}],"stateMutability":"nonpayable"},{"type":"function","name":"clock","inputs":[],"outputs":[{"name":"","type":"uint48","internalType":"uint48"}],"stateMutability":"view"},{"type":"function","name":"earlyExecute","inputs":[{"name":"proposalId","type":"uint256","internalType":"uint256"}],"outputs":[{"name":"","type":"uint256","internalType":"uint256"}],"stateMutability":"payable"},{"type":"function","name":"eip712Domain","inputs":[],"outputs":[{"name":"fields","type":"bytes1","internalType":"bytes1"},{"name":"name","type":"string","internalType":"string"},{"name":"version","type":"string","internalType":"string"},{"name":"chainId","type":"uint256","internalType":"uint256"},{"name":"verifyingContract","type":"address","internalType":"address"},{"name":"salt","type":"bytes32","internalType":"bytes32"},{"name":"extensions","type":"uint256[]","internalType":"uint256[]"}],"stateMutability":"view"},{"type":"function","name":"execute","inputs":[{"name":"targets","type":"address[]","internalType":"address[]"},{"name":"values","type":"uint256[]","internalType":"uint256[]"},{"name":"calldatas","type":"bytes[]","internalType":"bytes[]"},{"name":"descriptionHash","type":"bytes32","internalType":"bytes32"}],"outputs":[{"name":"","type":"uint256","internalType":"uint256"}],"stateMutability":"payable"},{"type":"function","name":"execute","inputs":[{"name":"proposalId","type":"uint256","internalType":"uint256"}],"outputs":[],"stateMutability":"payable"},{"type":"function","name":"getRoleAdmin","inputs":[{"name":"role","type":"bytes32","internalType":"bytes32"}],"outputs":[{"name":"","type":"bytes32","internalType":"bytes32"}],"stateMutability":"view"},{"type":"function","name":"getVotes","inputs":[{"name":"account","type":"address","internalType":"address"},{"name":"timepoint","type":"uint256","internalType":"uint256"}],"outputs":[{"name":"","type":"uint256","internalType":"uint256"}],"stateMutability":"view"},{"type":"function","name":"getVotesWithParams","inputs":[{"name":"account","type":"address","internalType":"address"},{"name":"timepoint","type":"uint256","internalType":"uint256"},{"name":"params","type":"bytes","internalType":"bytes"}],"outputs":[{"name":"","type":"uint256","internalType":"uint256"}],"stateMutability":"view"},{"type":"function","name":"grantRole","inputs":[{"name":"role","type":"bytes32","internalType":"bytes32"},{"name":"account","type":"address","internalType":"address"}],"outputs":[],"stateMutability":"nonpayable"},{"type":"function","name":"hasRole","inputs":[{"name":"role","type":"bytes32","internalType":"bytes32"},{"name":"account","type":"address","internalType":"address"}],"outputs":[{"name":"","type":"bool","internalType":"bool"}],"stateMutability":"view"},{"type":"function","name":"hasVoted","inputs":[{"name":"proposalId","type":"uint256","internalType":"uint256"},{"name":"account","type":"address","internalType":"address"}],"outputs":[{"name":"","type":"bool","internalType":"bool"}],"stateMutability":"view"},{"type":"function","name":"hashProposal","inputs":[{"name":"targets","type":"address[]","internalType":"address[]"},{"name":"values","type":"uint256[]","internalType":"uint256[]"},{"name":"calldatas","type":"bytes[]","internalType":"bytes[]"},{"name":"descriptionHash","type":"bytes32","internalType":"bytes32"}],"outputs":[{"name":"","type":"uint256","internalType":"uint256"}],"stateMutability":"pure"},{"type":"function","name":"name","inputs":[],"outputs":[{"name":"","type":"string","internalType":"string"}],"stateMutability":"view"},{"type":"function","name":"nonces","inputs":[{"name":"owner","type":"address","internalType":"address"}],"outputs":[{"name":"","type":"uint256","internalType":"uint256"}],"stateMutability":"view"},{"type":"function","name":"onERC1155BatchReceived","inputs":[{"name":"","type":"address","internalType":"address"},{"name":"","type":"address","internalType":"address"},{"name":"","type":"uint256[]","internalType":"uint256[]"},{"name":"","type":"uint256[]","internalType":"uint256[]"},{"name":"","type":"bytes","internalType":"bytes"}],"outputs":[{"name":"","type":"bytes4","internalType":"bytes4"}],"stateMutability":"nonpayable"},{"type":"function","name":"onERC1155Received","inputs":[{"name":"","type":"address","internalType":"address"},{"name":"","type":"address","internalType":"address"},{"name":"","type":"uint256","internalType":"uint256"},{"name":"","type":"uint256","internalType":"uint256"},{"name":"","type":"bytes","internalType":"bytes"}],"outputs":[{"name":"","type":"bytes4","internalType":"bytes4"}],"stateMutability":"nonpayable"},{"type":"function","name":"onERC721Received","inputs":[{"name":"","type":"address","internalType":"address"},{"name":"","type":"address","internalType":"address"},{"name":"","type":"uint256","internalType":"uint256"},{"name":"","type":"bytes","internalType":"bytes"}],"outputs":[{"name":"","type":"bytes4","internalType":"bytes4"}],"stateMutability":"nonpayable"},{"type":"function","name":"proposalCount","inputs":[],"outputs":[{"name":"","type":"uint256","internalType":"uint256"}],"stateMutability":"view"},{"type":"function","name":"proposalDeadline","inputs":[{"name":"proposalId","type":"uint256","internalType":"uint256"}],"outputs":[{"name":"","type":"uint256","internalType":"uint256"}],"stateMutability":"view"},{"type":"function","name":"proposalDetails","inputs":[{"name":"proposalId","type":"uint256","internalType":"uint256"}],"outputs":[{"name":"","type":"address[]","internalType":"address[]"},{"name":"","type":"uint256[]","internalType":"uint256[]"},{"name":"","type":"bytes[]","internalType":"bytes[]"},{"name":"","type":"bytes32","internalType":"bytes32"}],"stateMutability":"view"},{"type":"function","name":"proposalDetailsAt","inputs":[{"name":"index","type":"uint256","internalType":"uint256"}],"outputs":[{"name":"","type":"uint256","internalType":"uint256"},{"name":"","type":"address[]","internalType":"address[]"},{"name":"","type":"uint256[]","internalType":"uint256[]"},{"name":"","type":"bytes[]","internalType":"bytes[]"},{"name":"","type":"bytes32","internalType":"bytes32"}],"stateMutability":"view"},{"type":"function","name":"proposalEta","inputs":[{"name":"proposalId","type":"uint256","internalType":"uint256"}],"outputs":[{"name":"","type":"uint256","internalType":"uint256"}],"stateMutability":"view"},{"type":"function","name":"proposalNeedsQueuing","inputs":[{"name":"","type":"uint256","internalType":"uint256"}],"outputs":[{"name":"","type":"bool","internalType":"bool"}],"stateMutability":"view"},{"type":"function","name":"proposalProposer","inputs":[{"name":"proposalId","type":"uint256","internalType":"uint256"}],"outputs":[{"name":"","type":"address","internalType":"address"}],"stateMutability":"view"},{"type":"function","name":"proposalSnapshot","inputs":[{"name":"proposalId","type":"uint256","internalType":"uint256"}],"outputs":[{"name":"","type":"uint256","internalType":"uint256"}],"stateMutability":"view"},{"type":"function","name":"proposalThreshold","inputs":[],"outputs":[{"name":"","type":"uint256","internalType":"uint256"}],"stateMutability":"view"},{"type":"function","name":"proposalVotes","inputs":[{"name":"proposalId","type":"uint256","internalType":"uint256"}],"outputs":[{"name":"againstVotes","type":"uint256","internalType":"uint256"},{"name":"forVotes","type":"uint256","internalType":"uint256"},{"name":"abstainVotes","type":"uint256","internalType":"uint256"}],"stateMutability":"view"},{"type":"function","name":"propose","inputs":[{"name":"targets","type":"address[]","internalType":"address[]"},{"name":"values","type":"uint256[]","internalType":"uint256[]"},{"name":"calldatas","type":"bytes[]","internalType":"bytes[]"},{"name":"description","type":"string","internalType":"string"}],"outputs":[{"name":"","type":"uint256","internalType":"uint256"}],"stateMutability":"nonpayable"},{"type":"function","name":"queue","inputs":[{"name":"targets","type":"address[]","internalType":"address[]"},{"name":"values","type":"uint256[]","internalType":"uint256[]"},{"name":"calldatas","type":"bytes[]","internalType":"bytes[]"},{"name":"descriptionHash","type":"bytes32","internalType":"bytes32"}],"outputs":[{"name":"","type":"uint256","internalType":"uint256"}],"stateMutability":"nonpayable"},{"type":"function","name":"queue","inputs":[{"name":"proposalId","type":"uint256","internalType":"uint256"}],"outputs":[],"stateMutability":"nonpayable"},{"type":"function","name":"quorum","inputs":[{"name":"blockNumber","type":"uint256","internalType":"uint256"}],"outputs":[{"name":"","type":"uint256","internalType":"uint256"}],"stateMutability":"view"},{"type":"function","name":"relay","inputs":[{"name":"target","type":"address","internalType":"address"},{"name":"value","type":"uint256","internalType":"uint256"},{"name":"data","type":"bytes","internalType":"bytes"}],"outputs":[],"stateMutability":"payable"},{"type":"function","name":"renounceRole","inputs":[{"name":"role","type":"bytes32","internalType":"bytes32"},{"name":"callerConfirmation","type":"address","internalType":"address"}],"outputs":[],"stateMutability":"nonpayable"},{"type":"function","name":"revokeRole","inputs":[{"name":"role","type":"bytes32","internalType":"bytes32"},{"name":"account","type":"address","internalType":"address"}],"outputs":[],"stateMutability":"nonpayable"},{"type":"function","name":"setProposalThreshold","inputs":[{"name":"newProposalThreshold","type":"uint256","internalType":"uint256"}],"outputs":[],"stateMutability":"nonpayable"},{"type":"function","name":"setVotingDelay","inputs":[{"name":"newVotingDelay","type":"uint48","internalType":"uint48"}],"outputs":[],"stateMutability":"nonpayable"},{"type":"function","name":"setVotingPeriod","inputs":[{"name":"newVotingPeriod","type":"uint32","internalType":"uint32"}],"outputs":[],"stateMutability":"nonpayable"},{"type":"function","name":"state","inputs":[{"name":"proposalId","type":"uint256","internalType":"uint256"}],"outputs":[{"name":"","type":"uint8","internalType":"enum IGovernor.ProposalState"}],"stateMutability":"view"},{"type":"function","name":"supportsInterface","inputs":[{"name":"interfaceId","type":"bytes4","internalType":"bytes4"}],"outputs":[{"name":"","type":"bool","internalType":"bool"}],"stateMutability":"view"},{"type":"function","name":"token","inputs":[],"outputs":[{"name":"","type":"address","internalType":"contract IERC5805"}],"stateMutability":"view"},{"type":"function","name":"updateQuorum","inputs":[{"name":"newQuorum","type":"uint224","internalType":"uint224"}],"outputs":[],"stateMutability":"nonpayable"},{"type":"function","name":"version","inputs":[],"outputs":[{"name":"","type":"string","internalType":"string"}],"stateMutability":"view"},{"type":"function","name":"votingDelay","inputs":[],"outputs":[{"name":"","type":"uint256","internalType":"uint256"}],"stateMutability":"view"},{"type":"function","name":"votingPeriod","inputs":[],"outputs":[{"name":"","type":"uint256","internalType":"uint256"}],"stateMutability":"view"},{"type":"event","name":"EIP712DomainChanged","inputs":[],"anonymous":false},{"type":"event","name":"ProposalCanceled","inputs":[{"name":"proposalId","type":"uint256","indexed":false,"internalType":"uint256"}],"anonymous":false},{"type":"event","name":"ProposalCreated","inputs":[{"name":"proposalId","type":"uint256","indexed":false,"internalType":"uint256"},{"name":"proposer","type":"address","indexed":false,"internalType":"address"},{"name":"targets","type":"address[]","indexed":false,"internalType":"address[]"},{"name":"values","type":"uint256[]","indexed":false,"internalType":"uint256[]"},{"name":"signatures","type":"string[]","indexed":false,"internalType":"string[]"},{"name":"calldatas","type":"bytes[]","indexed":false,"internalType":"bytes[]"},{"name":"voteStart","type":"uint256","indexed":false,"internalType":"uint256"},{"name":"voteEnd","type":"uint256","indexed":false,"internalType":"uint256"},{"name":"description","type":"string","indexed":false,"internalType":"string"}],"anonymous":false},{"type":"event","name":"ProposalExecuted","inputs":[{"name":"proposalId","type":"uint256","indexed":false,"internalType":"uint256"}],"anonymous":false},{"type":"event","name":"ProposalQueued","inputs":[{"name":"proposalId","type":"uint256","indexed":false,"internalType":"uint256"},{"name":"etaSeconds","type":"uint256","indexed":false,"internalType":"uint256"}],"anonymous":false},{"type":"event","name":"ProposalThresholdSet","inputs":[{"name":"oldProposalThreshold","type":"uint256","indexed":false,"internalType":"uint256"},{"name":"newProposalThreshold","type":"uint256","indexed":false,"internalType":"uint256"}],"anonymous":false},{"type":"event","name":"QuorumUpdated","inputs":[{"name":"oldQuorum","type":"uint224","indexed":false,"internalType":"uint224"},{"name":"newQuorum","type":"uint224","indexed":false,"internalType":"uint224"}],"anonymous":false},{"type":"event","name":"RoleAdminChanged","inputs":[{"name":"role","type":"bytes32","indexed":true,"internalType":"bytes32"},{"name":"previousAdminRole","type":"bytes32","indexed":true,"internalType":"bytes32"},{"name":"newAdminRole","type":"bytes32","indexed":true,"internalType":"bytes32"}],"anonymous":false},{"type":"event","name":"RoleGranted","inputs":[{"name":"role","type":"bytes32","indexed":true,"internalType":"bytes32"},{"name":"account","type":"address","indexed":true,"internalType":"address"},{"name":"sender","type":"address","indexed":true,"internalType":"address"}],"anonymous":false},{"type":"event","name":"RoleRevoked","inputs":[{"name":"role","type":"bytes32","indexed":true,"internalType":"bytes32"},{"name":"account","type":"address","indexed":true,"internalType":"address"},{"name":"sender","type":"address","indexed":true,"internalType":"address"}],"anonymous":false},{"type":"event","name":"VoteCast","inputs":[{"name":"voter","type":"address","indexed":true,"internalType":"address"},{"name":"proposalId","type":"uint256","indexed":false,"internalType":"uint256"},{"name":"support","type":"uint8","indexed":false,"internalType":"uint8"},{"name":"weight","type":"uint256","indexed":false,"internalType":"uint256"},{"name":"reason","type":"string","indexed":false,"internalType":"string"}],"anonymous":false},{"type":"event","name":"VoteCastWithParams","inputs":[{"name":"voter","type":"address","indexed":true,"internalType":"address"},{"name":"proposalId","type":"uint256","indexed":false,"internalType":"uint256"},{"name":"support","type":"uint8","indexed":false,"internalType":"uint8"},{"name":"weight","type":"uint256","indexed":false,"internalType":"uint256"},{"name":"reason","type":"string","indexed":false,"internalType":"string"},{"name":"params","type":"bytes","indexed":false,"internalType":"bytes"}],"anonymous":false},{"type":"event","name":"VotingDelaySet","inputs":[{"name":"oldVotingDelay","type":"uint256","indexed":false,"internalType":"uint256"},{"name":"newVotingDelay","type":"uint256","indexed":false,"internalType":"uint256"}],"anonymous":false},{"type":"event","name":"VotingPeriodSet","inputs":[{"name":"oldVotingPeriod","type":"uint256","indexed":false,"internalType":"uint256"},{"name":"newVotingPeriod","type":"uint256","indexed":false,"internalType":"uint256"}],"anonymous":false},{"type":"error","name":"AccessControlBadConfirmation","inputs":[]},{"type":"error","name":"AccessControlUnauthorizedAccount","inputs":[{"name":"account","type":"address","internalType":"address"},{"name":"neededRole","type":"bytes32","internalType":"bytes32"}]},{"type":"error","name":"CheckpointUnorderedInsertion","inputs":[]},{"type":"error","name":"FailedInnerCall","inputs":[]},{"type":"error","name":"GovernorAlreadyCastVote","inputs":[{"name":"voter","type":"address","internalType":"address"}]},{"type":"error","name":"GovernorAlreadyQueuedProposal","inputs":[{"name":"proposalId","type":"uint256","internalType":"uint256"}]},{"type":"error","name":"GovernorDisabledDeposit","inputs":[]},{"type":"error","name":"GovernorInsufficientProposerVotes","inputs":[{"name":"proposer","type":"address","internalType":"address"},{"name":"votes","type":"uint256","internalType":"uint256"},{"name":"threshold","type":"uint256","internalType":"uint256"}]},{"type":"error","name":"GovernorInvalidProposalLength","inputs":[{"name":"targets","type":"uint256","internalType":"uint256"},{"name":"calldatas","type":"uint256","internalType":"uint256"},{"name":"values","type":"uint256","internalType":"uint256"}]},{"type":"error","name":"GovernorInvalidSignature","inputs":[{"name":"voter","type":"address","internalType":"address"}]},{"type":"error","name":"GovernorInvalidVoteType","inputs":[]},{"type":"error","name":"GovernorInvalidVotingPeriod","inputs":[{"name":"votingPeriod","type":"uint256","internalType":"uint256"}]},{"type":"error","name":"GovernorNonexistentProposal","inputs":[{"name":"proposalId","type":"uint256","internalType":"uint256"}]},{"type":"error","name":"GovernorNotQueuedProposal","inputs":[{"name":"proposalId","type":"uint256","internalType":"uint256"}]},{"type":"error","name":"GovernorOnlyExecutor","inputs":[{"name":"account","type":"address","internalType":"address"}]},{"type":"error","name":"GovernorOnlyProposer","inputs":[{"name":"account","type":"address","internalType":"address"}]},{"type":"error","name":"GovernorQueueNotImplemented","inputs":[]},{"type":"error","name":"GovernorRestrictedProposer","inputs":[{"name":"proposer","type":"address","internalType":"address"}]},{"type":"error","name":"GovernorUnexpectedProposalState","inputs":[{"name":"proposalId","type":"uint256","internalType":"uint256"},{"name":"current","type":"uint8","internalType":"enum IGovernor.ProposalState"},{"name":"expectedStates","type":"bytes32","internalType":"bytes32"}]},{"type":"error","name":"InvalidAccountNonce","inputs":[{"name":"account","type":"address","internalType":"address"},{"name":"currentNonce","type":"uint256","internalType":"uint256"}]},{"type":"error","name":"InvalidShortString","inputs":[]},{"type":"error","name":"QueueEmpty","inputs":[]},{"type":"error","name":"QueueFull","inputs":[]},{"type":"error","name":"SafeCastOverflowedUintDowncast","inputs":[{"name":"bits","type":"uint8","internalType":"uint8"},{"name":"value","type":"uint256","internalType":"uint256"}]},{"type":"error","name":"StringTooLong","inputs":[{"name":"str","type":"string","internalType":"string"}]}],"bytecode":{"object":"0x61018060405234801562000011575f80fd5b5060405162005335380380620053358339810160408190526200003491620005cc565b838383836040518060400160405280600e81526020016d5669727475616c47656e6573697360901b81525080620000706200019760201b60201c565b6200007c825f620001b2565b610120526200008d816001620001b2565b61014052815160208084019190912060e052815190820120610100524660a0526200011a60e05161010051604080517f8b73c3c69bb8fe3d512ecc4cf759cc79239f7b179b0ffacaa9a75d522b39400f60208201529081019290925260608201524660808201523060a08201525f9060c00160405160208183030381529060405280519060200120905090565b60805250503060c0526003620001318282620006db565b506200013f905083620001ea565b6200014a8262000250565b6200015581620002f5565b5050506001600160a01b0316610160526200017d600e5f69021e19e0c9bab240000062000336565b506200018c90505f3362000352565b505050505062000839565b6040805180820190915260018152603160f81b602082015290565b5f602083511015620001d157620001c98362000401565b9050620001e4565b81620001de8482620006db565b5060ff90505b92915050565b6008546040805165ffffffffffff928316815291831660208301527fc565b045403dc03c2eea82b81a0465edad9e2e7fc4d97e11421c209da93d7a93910160405180910390a16008805465ffffffffffff191665ffffffffffff92909216919091179055565b8063ffffffff165f036200027e5760405163f1cfbf0560e01b81525f60048201526024015b60405180910390fd5b6008546040805163ffffffff66010000000000009093048316815291831660208301527f7e3f7f0708a84de9203036abaa450dccc85ad5ff52f78c170f3edb55cf5e8828910160405180910390a16008805463ffffffff90921666010000000000000263ffffffff60301b19909216919091179055565b60075460408051918252602082018390527fccb45da8d5717e6c4544694297c4ba5cf151d455c9bb0ed4fc7a38411bc05461910160405180910390a1600755565b5f806200034585858562000443565b915091505b935093915050565b5f828152600c602090815260408083206001600160a01b038516845290915281205460ff16620003f9575f838152600c602090815260408083206001600160a01b03861684529091529020805460ff19166001179055620003b03390565b6001600160a01b0316826001600160a01b0316847f2f8788117e7eff1d82e926ec794901d17c78024a50270940304540a733656f0d60405160405180910390a4506001620001e4565b505f620001e4565b5f80829050601f815111156200042e578260405163305a27a960e01b8152600401620002759190620007a7565b80516200043b82620007f5565b179392505050565b82545f908190801562000572575f62000470876200046360018562000819565b5f91825260209091200190565b60408051808201909152905463ffffffff8082168084526401000000009092046001600160e01b031660208401529192509087161015620004c457604051632520601d60e01b815260040160405180910390fd5b805163ffffffff808816911603620005125784620004e9886200046360018662000819565b80546001600160e01b03929092166401000000000263ffffffff90921691909117905562000561565b6040805180820190915263ffffffff80881682526001600160e01b0380881660208085019182528b54600181018d555f8d81529190912094519151909216640100000000029216919091179101555b6020015192508391506200034a9050565b50506040805180820190915263ffffffff80851682526001600160e01b0380851660208085019182528854600181018a555f8a8152918220955192519093166401000000000291909316179201919091559050816200034a565b5f805f8060808587031215620005e0575f80fd5b84516001600160a01b0381168114620005f7575f80fd5b602086015190945065ffffffffffff8116811462000613575f80fd5b604086015190935063ffffffff811681146200062d575f80fd5b6060959095015193969295505050565b634e487b7160e01b5f52604160045260245ffd5b600181811c908216806200066657607f821691505b6020821081036200068557634e487b7160e01b5f52602260045260245ffd5b50919050565b601f821115620006d657805f5260205f20601f840160051c81016020851015620006b25750805b601f840160051c820191505b81811015620006d3575f8155600101620006be565b50505b505050565b81516001600160401b03811115620006f757620006f76200063d565b6200070f8162000708845462000651565b846200068b565b602080601f83116001811462000745575f84156200072d5750858301515b5f19600386901b1c1916600185901b1785556200079f565b5f85815260208120601f198616915b82811015620007755788860151825594840194600190910190840162000754565b50858210156200079357878501515f19600388901b60f8161c191681555b505060018460011b0185555b505050505050565b5f602080835283518060208501525f5b81811015620007d557858101830151858201604001528201620007b7565b505f604082860101526040601f19601f8301168501019250505092915050565b8051602080830151919081101562000685575f1960209190910360031b1b16919050565b81810381811115620001e457634e487b7160e01b5f52601160045260245ffd5b60805160a05160c05160e05161010051610120516101405161016051614a8b620008aa5f395f8181610ba3015281816112e701528181611727015261277601525f61267e01525f61265201525f612ba501525f612b7d01525f612ad801525f612b0201525f612b2c0152614a8b5ff3fe608060405260043610610369575f3560e01c80637d5e81e2116101c8578063c28bc2fa116100fd578063e540d01d1161009d578063f5379ea91161006d578063f5379ea914610b63578063f8ce560a14610b76578063fc0c546a14610b95578063fe0d94c114610bc7575f80fd5b8063e540d01d14610adb578063eb9019d414610afa578063ece40cc114610b19578063f23a6e6114610b38575f80fd5b8063da35c664116100d8578063da35c66414610a30578063dd4e2ba514610a44578063ddf0b00914610a89578063deaaa7cc14610aa8575f80fd5b8063c28bc2fa146109df578063c59057e4146109f2578063d547741f14610a11575f80fd5b80639a802a6d11610168578063ab58fb8e11610143578063ab58fb8e1461094b578063b58131b014610981578063bc197c8114610995578063c01f9e37146109c0575f80fd5b80639a802a6d146108fa578063a217fddf14610919578063a9a952941461092c575f80fd5b80638ff262e3116101a35780638ff262e31461087257806391d148541461089157806391ddadf4146108b057806397ad3b6f146108db575f80fd5b80637d5e81e2146107f85780637ecebe001461081757806384b0196e1461084b575f80fd5b806336568abe1161029e578063544ffc9c1161023e5780635b8d0e0d116102195780635b8d0e0d1461077c5780635f398a141461079b57806379051887146107ba5780637b3c71d3146107d9575f80fd5b8063544ffc9c146106e157806354fd4d5014610734578063567813881461075d575f80fd5b806340e58ee51161027957806340e58ee5146106475780634385963214610666578063452115d6146106ae5780634bf5d7e9146106cd575f80fd5b806336568abe146105e85780633932abb1146106075780633e4f49e61461061b575f80fd5b806316e9eaec116103095780632d63f693116102e45780632d63f693146105475780632e82db94146105665780632f2ff15d146105965780632fe3e261146105b5575f80fd5b806316e9eaec146104d7578063248a9ca3146105065780632656227d14610534575f80fd5b806307bd02651161034457806307bd0265146103f6578063143489d014610429578063150b7a0214610475578063160cbed7146104b8575f80fd5b806301ffc9a71461037657806302a251a3146103aa57806306fdde03146103d5575f80fd5b3661037257005b005b5f80fd5b348015610381575f80fd5b50610395610390366004613a00565b610bda565b60405190151581526020015b60405180910390f35b3480156103b5575f80fd5b50600854600160301b900463ffffffff165b6040519081526020016103a1565b3480156103e0575f80fd5b506103e9610bef565b6040516103a19190613a74565b348015610401575f80fd5b506103c77fd8aa0f3194971a2a116679f7c2090f6939c8d4e01a2a8d7e41d55e5351469e6381565b348015610434575f80fd5b5061045d610443366004613a86565b5f908152600460205260409020546001600160a01b031690565b6040516001600160a01b0390911681526020016103a1565b348015610480575f80fd5b5061049f61048f366004613b76565b630a85bd0160e11b949350505050565b6040516001600160e01b031990911681526020016103a1565b3480156104c3575f80fd5b506103c76104d2366004613d3f565b610c7f565b3480156104e2575f80fd5b506104f66104f1366004613a86565b610cbd565b6040516103a19493929190613e92565b348015610511575f80fd5b506103c7610520366004613a86565b5f908152600c602052604090206001015490565b6103c7610542366004613d3f565b610ebc565b348015610552575f80fd5b506103c7610561366004613a86565b610fe4565b348015610571575f80fd5b50610585610580366004613a86565b611004565b6040516103a1959493929190613edc565b3480156105a1575f80fd5b506103706105b0366004613f2d565b61104e565b3480156105c0575f80fd5b506103c77f3e83946653575f9a39005e1545185629e92736b7528ab20ca3816f315424a81181565b3480156105f3575f80fd5b50610370610602366004613f2d565b611078565b348015610612575f80fd5b506103c76110b0565b348015610626575f80fd5b5061063a610635366004613a86565b6110c2565b6040516103a19190613f8b565b348015610652575f80fd5b50610370610661366004613a86565b6110e9565b348015610671575f80fd5b50610395610680366004613f2d565b5f828152600b602090815260408083206001600160a01b038516845260030190915290205460ff1692915050565b3480156106b9575f80fd5b506103c76106c8366004613d3f565b611277565b3480156106d8575f80fd5b506103e96112e3565b3480156106ec575f80fd5b506107196106fb366004613a86565b5f908152600b60205260409020805460018201546002909201549092565b604080519384526020840192909252908201526060016103a1565b34801561073f575f80fd5b506040805180820190915260018152603160f81b60208201526103e9565b348015610768575f80fd5b506103c7610777366004613fa9565b6113a3565b348015610787575f80fd5b506103c761079636600461400e565b6113ca565b3480156107a6575f80fd5b506103c76107b53660046140be565b611526565b3480156107c5575f80fd5b506103706107d436600461414e565b611579565b3480156107e4575f80fd5b506103c76107f3366004614169565b61158d565b348015610803575f80fd5b506103c76108123660046141be565b6115d3565b348015610822575f80fd5b506103c761083136600461426a565b6001600160a01b03165f9081526002602052604090205490565b348015610856575f80fd5b5061085f6115e9565b6040516103a19796959493929190614283565b34801561087d575f80fd5b506103c761088c3660046142f2565b61162b565b34801561089c575f80fd5b506103956108ab366004613f2d565b6116fa565b3480156108bb575f80fd5b506108c4611724565b60405165ffffffffffff90911681526020016103a1565b3480156108e6575f80fd5b506103706108f536600461433d565b6117ab565b348015610905575f80fd5b506103c7610914366004614363565b611848565b348015610924575f80fd5b506103c75f81565b348015610937575f80fd5b50610395610946366004613a86565b505f90565b348015610956575f80fd5b506103c7610965366004613a86565b5f9081526004602052604090206001015465ffffffffffff1690565b34801561098c575f80fd5b506103c7611854565b3480156109a0575f80fd5b5061049f6109af3660046143b5565b63bc197c8160e01b95945050505050565b3480156109cb575f80fd5b506103c76109da366004613a86565b61185e565b6103706109ed36600461443d565b6118a0565b3480156109fd575f80fd5b506103c7610a0c366004613d3f565b61191c565b348015610a1c575f80fd5b50610370610a2b366004613f2d565b611955565b348015610a3b575f80fd5b506009546103c7565b348015610a4f575f80fd5b506040805180820190915260208082527f737570706f72743d627261766f2671756f72756d3d666f722c6162737461696e908201526103e9565b348015610a94575f80fd5b50610370610aa3366004613a86565b611979565b348015610ab3575f80fd5b506103c77ff2aad550cf55f045cb27e9c559f9889fdfb6e6cdaa032301d6ea397784ae51d781565b348015610ae6575f80fd5b50610370610af536600461447a565b611b0b565b348015610b05575f80fd5b506103c7610b1436600461449d565b611b1c565b348015610b24575f80fd5b50610370610b33366004613a86565b611b42565b348015610b43575f80fd5b5061049f610b523660046144c5565b63f23a6e6160e01b95945050505050565b6103c7610b71366004613a86565b611b53565b348015610b81575f80fd5b506103c7610b90366004613a86565b611cbb565b348015610ba0575f80fd5b507f000000000000000000000000000000000000000000000000000000000000000061045d565b610370610bd5366004613a86565b611d38565b5f610be482611eca565b92915050565b905090565b606060038054610bfe90614524565b80601f0160208091040260200160405190810160405280929190818152602001828054610c2a90614524565b8015610c755780601f10610c4c57610100808354040283529160200191610c75565b820191905f5260205f20905b815481529060010190602001808311610c5857829003601f168201915b5050505050905090565b5f80610c8d8686868661191c565b9050610ca281610c9d6004611eee565b611f10565b505f604051634844252360e11b815260040160405180910390fd5b5f818152600a602090815260408083208151815460a0948102820185019093526080810183815260609586958695919485949390928492849190840182828015610d2e57602002820191905f5260205f20905b81546001600160a01b03168152600190910190602001808311610d10575b5050505050815260200160018201805480602002602001604051908101604052809291908181526020018280548015610d8457602002820191905f5260205f20905b815481526020019060010190808311610d70575b5050505050815260200160028201805480602002602001604051908101604052809291908181526020015f905b82821015610e59578382905f5260205f20018054610dce90614524565b80601f0160208091040260200160405190810160405280929190818152602001828054610dfa90614524565b8015610e455780601f10610e1c57610100808354040283529160200191610e45565b820191905f5260205f20905b815481529060010190602001808311610e2857829003601f168201915b505050505081526020019060010190610db1565b505050508152602001600382015481525050905080606001515f801b03610e9b57604051636ad0607560e01b8152600481018790526024015b60405180910390fd5b80516020820151604083015160609093015191989097509195509350915050565b5f80610eca8686868661191c565b9050610eea81610eda6005611eee565b610ee46004611eee565b17611f10565b505f818152600460205260409020805460ff60f01b1916600160f01b17905530610f113090565b6001600160a01b031614610f9a575f5b8651811015610f9857306001600160a01b0316878281518110610f4657610f46614556565b60200260200101516001600160a01b031603610f9057610f90858281518110610f7157610f71614556565b6020026020010151805190602001206005611f4d90919063ffffffff16565b600101610f21565b505b610fa78187878787611fbd565b6040518181527f712ae1383f79ac853f8d882153778e0260ef8f03b504e2866e0593e04d2b291f906020015b60405180910390a195945050505050565b5f90815260046020526040902054600160a01b900465ffffffffffff1690565b5f60608060605f806009878154811061101f5761101f614556565b905f5260205f20015490505f805f8061103785610cbd565b979e929d50909b5099509497509395505050505050565b5f828152600c602052604090206001015461106881612092565b611072838361209c565b50505050565b6001600160a01b03811633146110a15760405163334bd91960e11b815260040160405180910390fd5b6110ab828261212d565b505050565b5f610bea60085465ffffffffffff1690565b5f818152600d602052604081205460ff16156110e057506007919050565b610be482612198565b5f818152600a6020908152604091829020805483518184028101840190945280845290926110ab929091849183018282801561114c57602002820191905f5260205f20905b81546001600160a01b0316815260019091019060200180831161112e575b50505050508260010180548060200260200160405190810160405280929190818152602001828054801561119d57602002820191905f5260205f20905b815481526020019060010190808311611189575b505050505083600201805480602002602001604051908101604052809291908181526020015f905b8282101561126d578382905f5260205f200180546111e290614524565b80601f016020809104026020016040519081016040528092919081815260200182805461120e90614524565b80156112595780601f1061123057610100808354040283529160200191611259565b820191905f5260205f20905b81548152906001019060200180831161123c57829003601f168201915b5050505050815260200190600101906111c5565b5050505084600301545b5f806112858686868661191c565b905061129481610c9d5f611eee565b505f818152600460205260409020546001600160a01b031633146112cd5760405163233d98e360e01b8152336004820152602401610e92565b6112d9868686866122c9565b9695505050505050565b60607f00000000000000000000000000000000000000000000000000000000000000006001600160a01b0316634bf5d7e96040518163ffffffff1660e01b81526004015f60405180830381865afa92505050801561136257506040513d5f823e601f3d908101601f1916820160405261135f919081019061456a565b60015b61139e575060408051808201909152601d81527f6d6f64653d626c6f636b6e756d6265722666726f6d3d64656661756c74000000602082015290565b919050565b5f803390506113c284828560405180602001604052805f815250612378565b949350505050565b5f806114ab876114a57f3e83946653575f9a39005e1545185629e92736b7528ab20ca3816f315424a8118c8c8c61141d8e6001600160a01b03165f90815260026020526040902080546001810190915590565b8d8d60405161142d9291906145d2565b60405180910390208c8051906020012060405160200161148a9796959493929190968752602087019590955260ff9390931660408601526001600160a01b03919091166060850152608084015260a083015260c082015260e00190565b60405160208183030381529060405280519060200120612399565b856123c5565b9050806114d6576040516394ab6c0760e01b81526001600160a01b0388166004820152602401610e92565b61151989888a89898080601f0160208091040260200160405190810160405280939291908181526020018383808284375f920191909152508b925061241a915050565b9998505050505050505050565b5f8033905061156e87828888888080601f0160208091040260200160405190810160405280939291908181526020018383808284375f920191909152508a925061241a915050565b979650505050505050565b6115816124f4565b61158a8161252b565b50565b5f803390506112d986828787878080601f0160208091040260200160405190810160405280939291908181526020018383808284375f9201919091525061237892505050565b5f6115e085858585612591565b95945050505050565b5f6060805f805f60606115fa61264b565b611602612677565b604080515f80825260208201909252600f60f81b9b939a50919850469750309650945092509050565b5f806116b5846114a57ff2aad550cf55f045cb27e9c559f9889fdfb6e6cdaa032301d6ea397784ae51d789898961167e8b6001600160a01b03165f90815260026020526040902080546001810190915590565b60408051602081019690965285019390935260ff90911660608401526001600160a01b0316608083015260a082015260c00161148a565b9050806116e0576040516394ab6c0760e01b81526001600160a01b0385166004820152602401610e92565b6112d986858760405180602001604052805f815250612378565b5f918252600c602090815260408084206001600160a01b0393909316845291905290205460ff1690565b5f7f00000000000000000000000000000000000000000000000000000000000000006001600160a01b03166391ddadf46040518163ffffffff1660e01b8152600401602060405180830381865afa92505050801561179f575060408051601f3d908101601f1916820190925261179c918101906145e1565b60015b61139e57610bea6126a4565b6117b36124f4565b5f6117be600e6126ae565b90506117ff6117db6117ce611724565b65ffffffffffff166126f2565b6117ed846001600160e01b0316612726565b600e91906001600160d01b0316612759565b5050604080516001600160e01b038084168252841660208201527fcd95ef72661846d9156e45d16b0aba02495d0bdff56c28057171e9464f3fc270910160405180910390a15050565b5f6113c2848484612773565b5f610bea60075490565b5f8181526004602052604081205461189290600160d01b810463ffffffff1690600160a01b900465ffffffffffff16614610565b65ffffffffffff1692915050565b6118a86124f4565b5f80856001600160a01b03168585856040516118c59291906145d2565b5f6040518083038185875af1925050503d805f81146118ff576040519150601f19603f3d011682016040523d82523d5f602084013e611904565b606091505b50915091506119138282612806565b50505050505050565b5f848484846040516020016119349493929190613e92565b60408051601f19818403018152919052805160209091012095945050505050565b5f828152600c602052604090206001015461196f81612092565b611072838361212d565b5f818152600a6020908152604091829020805483518184028101840190945280845290926110ab92909184918301828280156119dc57602002820191905f5260205f20905b81546001600160a01b031681526001909101906020018083116119be575b505050505082600101805480602002602001604051908101604052809291908181526020018280548015611a2d57602002820191905f5260205f20905b815481526020019060010190808311611a19575b505050505083600201805480602002602001604051908101604052809291908181526020015f905b82821015611afd578382905f5260205f20018054611a7290614524565b80601f0160208091040260200160405190810160405280929190818152602001828054611a9e90614524565b8015611ae95780601f10611ac057610100808354040283529160200191611ae9565b820191905f5260205f20905b815481529060010190602001808311611acc57829003601f168201915b505050505081526020019060010190611a55565b505050508460030154610c7f565b611b136124f4565b61158a81612822565b5f611b3b8383611b3660408051602081019091525f815290565b612773565b9392505050565b611b4a6124f4565b61158a816128be565b5f7fd8aa0f3194971a2a116679f7c2090f6939c8d4e01a2a8d7e41d55e5351469e63611b7e81612092565b5f805f80611b8b87610cbd565b929650909450925090506001611ba0886110c2565b6007811115611bb157611bb1613f57565b148015611bd057505f878152600b602052604090208054600190910154115b8015611be05750611be0876128ff565b8015611bfa57505f878152600d602052604090205460ff16155b611c555760405162461bcd60e51b815260206004820152602660248201527f50726f706f73616c206e6f7420726561647920666f72206561726c792065786560448201526531baba34b7b760d11b6064820152608401610e92565b5f878152600d60205260409020805460ff19166001179055611c7a8785858585611fbd565b6040518781527f712ae1383f79ac853f8d882153778e0260ef8f03b504e2866e0593e04d2b291f9060200160405180910390a1869550505050505b50919050565b5f80611cc6600e5490565b90505f611ce7611cdf611cda600185614636565b6126f2565b600e90612935565b8051602082015191925063ffffffff1690858211611d11576001600160e01b031695945050505050565b611d25611d1d876126f2565b600e906129a0565b6001600160e01b03169695505050505050565b5f818152600a6020908152604091829020805483518184028101840190945280845290926110ab9290918491830182828015611d9b57602002820191905f5260205f20905b81546001600160a01b03168152600190910190602001808311611d7d575b505050505082600101805480602002602001604051908101604052809291908181526020018280548015611dec57602002820191905f5260205f20905b815481526020019060010190808311611dd8575b505050505083600201805480602002602001604051908101604052809291908181526020015f905b82821015611ebc578382905f5260205f20018054611e3190614524565b80601f0160208091040260200160405190810160405280929190818152602001828054611e5d90614524565b8015611ea85780601f10611e7f57610100808354040283529160200191611ea8565b820191905f5260205f20905b815481529060010190602001808311611e8b57829003601f168201915b505050505081526020019060010190611e14565b505050508460030154610ebc565b5f6001600160e01b03198216637965db0b60e01b1480610be45750610be482612a40565b5f816007811115611f0157611f01613f57565b600160ff919091161b92915050565b5f80611f1b846110c2565b90505f83611f2883611eee565b1603611b3b578381846040516331b75e4d60e01b8152600401610e9293929190614649565b81546001600160801b03600160801b820481169181166001830190911603611f8857604051638acb5f2760e01b815260040160405180910390fd5b6001600160801b038082165f90815260018086016020526040909120939093558354919092018216600160801b029116179055565b5f5b845181101561208a575f80868381518110611fdc57611fdc614556565b60200260200101516001600160a01b0316868481518110611fff57611fff614556565b602002602001015186858151811061201957612019614556565b602002602001015160405161202e919061466b565b5f6040518083038185875af1925050503d805f8114612068576040519150601f19603f3d011682016040523d82523d5f602084013e61206d565b606091505b509150915061207c8282612806565b505050806001019050611fbf565b505050505050565b61158a8133612a8f565b5f6120a783836116fa565b612126575f838152600c602090815260408083206001600160a01b03861684529091529020805460ff191660011790556120de3390565b6001600160a01b0316826001600160a01b0316847f2f8788117e7eff1d82e926ec794901d17c78024a50270940304540a733656f0d60405160405180910390a4506001610be4565b505f610be4565b5f61213883836116fa565b15612126575f838152600c602090815260408083206001600160a01b0386168085529252808320805460ff1916905551339286917ff6391f5c32d9c69d2a47ea670b442974b53935d1edc7fd64eb21e047a839171b9190a4506001610be4565b5f818152600460205260408120805460ff600160f01b8204811691600160f81b90041681156121cc57506007949350505050565b80156121dd57506002949350505050565b5f6121e786610fe4565b9050805f0361220c57604051636ad0607560e01b815260048101879052602401610e92565b5f612215611724565b65ffffffffffff16905080821061223257505f9695505050505050565b5f61223c8861185e565b905081811061225357506001979650505050505050565b61225c886128ff565b158061227b57505f888152600b60205260409020805460019091015411155b1561228e57506003979650505050505050565b5f8881526004602052604090206001015465ffffffffffff165f036122bb57506004979650505050505050565b506005979650505050505050565b5f806122d78686868661191c565b9050612325816122e76007611eee565b6122f16006611eee565b6122fb6002611eee565b6001612308600782614686565b61231390600261477f565b61231d9190614636565b181818611f10565b505f818152600460205260409081902080546001600160f81b0316600160f81b179055517f789cf55be980739dad1d0699b93b58e806b51c9d96619bfa8fe0a28abaa7b30c90610fd39083815260200190565b5f6115e08585858561239460408051602081019091525f815290565b61241a565b5f610be46123a5612acc565b8360405161190160f01b8152600281019290925260228201526042902090565b5f805f6123d28585612bf5565b5090925090505f8160038111156123eb576123eb613f57565b1480156124095750856001600160a01b0316826001600160a01b0316145b806112d957506112d9868686612c3e565b5f61242986610c9d6001611eee565b505f61243e8661243889610fe4565b85612773565b905061244d8787878487612d14565b82515f036124a157856001600160a01b03167fb8e138887d0aa13bab447e82de9d5c1777041ecd21ca36ba824ff1e6c07ddda488878488604051612494949392919061478d565b60405180910390a26112d9565b856001600160a01b03167fe2babfbac5889a709b63bb7f598b324e08bc5a4fb9ec647fb3cbc9ec07eb871288878488886040516124e29594939291906147b4565b60405180910390a29695505050505050565b303314612516576040516347096e4760e01b8152336004820152602401610e92565b565b806125236005612e1f565b036125185750565b6008546040805165ffffffffffff928316815291831660208301527fc565b045403dc03c2eea82b81a0465edad9e2e7fc4d97e11421c209da93d7a93910160405180910390a16008805465ffffffffffff191665ffffffffffff92909216919091179055565b5f3361259d8184612e9b565b6125c55760405163d9b3955760e01b81526001600160a01b0382166004820152602401610e92565b5f6125eb8260016125d4611724565b6125de91906147ed565b65ffffffffffff16611b1c565b90505f6125f6611854565b90508082101561263257604051636121770b60e11b81526001600160a01b03841660048201526024810183905260448101829052606401610e92565b61263f8888888887612f83565b98975050505050505050565b6060610bea7f00000000000000000000000000000000000000000000000000000000000000005f612f91565b6060610bea7f00000000000000000000000000000000000000000000000000000000000000006001612f91565b5f610bea4361303a565b80545f9080156126ea576126d4836126c7600184614636565b5f91825260209091200190565b54600160201b90046001600160e01b0316611b3b565b5f9392505050565b5f63ffffffff821115612722576040516306dfcc6560e41b81526020600482015260248101839052604401610e92565b5090565b5f6001600160d01b03821115612722576040516306dfcc6560e41b815260d0600482015260248101839052604401610e92565b5f8061276685858561306c565b915091505b935093915050565b5f7f0000000000000000000000000000000000000000000000000000000000000000604051630748d63560e31b81526001600160a01b038681166004830152602482018690529190911690633a46b1a890604401602060405180830381865afa1580156127e2573d5f803e3d5ffd5b505050506040513d601f19601f820116820180604052508101906113c2919061480c565b60608261281b57612816826131d8565b610be4565b5080610be4565b8063ffffffff165f0361284a5760405163f1cfbf0560e01b81525f6004820152602401610e92565b6008546040805163ffffffff600160301b9093048316815291831660208301527f7e3f7f0708a84de9203036abaa450dccc85ad5ff52f78c170f3edb55cf5e8828910160405180910390a16008805463ffffffff909216600160301b0269ffffffff00000000000019909216919091179055565b60075460408051918252602082018390527fccb45da8d5717e6c4544694297c4ba5cf151d455c9bb0ed4fc7a38411bc05461910160405180910390a1600755565b5f818152600b60205260408120600281015460018201546129209190614823565b61292c610b9085610fe4565b11159392505050565b604080518082019091525f8082526020820152825f018263ffffffff168154811061296257612962614556565b5f9182526020918290206040805180820190915291015463ffffffff81168252600160201b90046001600160e01b0316918101919091529392505050565b81545f90818160058111156129fa575f6129b984613201565b6129c39085614636565b5f8881526020902090915081015463ffffffff90811690871610156129ea578091506129f8565b6129f5816001614823565b92505b505b5f612a07878785856132e5565b90508015612a3457612a1e876126c7600184614636565b54600160201b90046001600160e01b031661156e565b5f979650505050505050565b5f6001600160e01b031982166332a2ad4360e11b1480612a7057506001600160e01b03198216630271189760e51b145b80610be457506301ffc9a760e01b6001600160e01b0319831614610be4565b612a9982826116fa565b612ac85760405163e2517d3f60e01b81526001600160a01b038216600482015260248101839052604401610e92565b5050565b5f306001600160a01b037f000000000000000000000000000000000000000000000000000000000000000016148015612b2457507f000000000000000000000000000000000000000000000000000000000000000046145b15612b4e57507f000000000000000000000000000000000000000000000000000000000000000090565b610bea604080517f8b73c3c69bb8fe3d512ecc4cf759cc79239f7b179b0ffacaa9a75d522b39400f60208201527f0000000000000000000000000000000000000000000000000000000000000000918101919091527f000000000000000000000000000000000000000000000000000000000000000060608201524660808201523060a08201525f9060c00160405160208183030381529060405280519060200120905090565b5f805f8351604103612c2c576020840151604085015160608601515f1a612c1e88828585613340565b955095509550505050612c37565b505081515f91506002905b9250925092565b5f805f856001600160a01b03168585604051602401612c5e929190614836565b60408051601f198184030181529181526020820180516001600160e01b0316630b135d3f60e11b17905251612c93919061466b565b5f60405180830381855afa9150503d805f8114612ccb576040519150601f19603f3d011682016040523d82523d5f602084013e612cd0565b606091505b5091509150818015612ce457506020815110155b80156112d957508051630b135d3f60e11b90612d09908301602090810190840161480c565b149695505050505050565b5f858152600b6020526040902060021960ff851601612d335750612e18565b6001600160a01b0385165f90815260038201602052604090205460ff1615612d79576040516371c6af4960e01b81526001600160a01b0386166004820152602401610e92565b6001600160a01b0385165f9081526003820160205260409020805460ff1916600117905560ff8416612dc25782815f015f828254612db79190614823565b9091555061208a9050565b5f1960ff851601612de05782816001015f828254612db79190614823565b60011960ff851601612dff5782816002015f828254612db79190614823565b6040516303599be160e11b815260040160405180910390fd5b5050505050565b80545f906001600160801b0380821691600160801b9004168103612e56576040516375e52f4f60e01b815260040160405180910390fd5b6001600160801b038181165f908152600185810160205260408220805492905585546fffffffffffffffffffffffffffffffff19169301909116919091179092555090565b80515f906034811015612eb2576001915050610be4565b82810160131901516001600160a01b031981166b046e0e4dee0dee6cae47a60f60a31b14612ee557600192505050610be4565b5f80612ef2602885614636565b90505b83811015612f62575f80612f28888481518110612f1457612f14614556565b01602001516001600160f81b031916613408565b9150915081612f405760019650505050505050610be4565b8060ff166004856001600160a01b0316901b1793505050806001019050612ef5565b50856001600160a01b0316816001600160a01b031614935050505092915050565b5f6112d98686868686613498565b606060ff8314612fab57612fa483613571565b9050610be4565b818054612fb790614524565b80601f0160208091040260200160405190810160405280929190818152602001828054612fe390614524565b801561302e5780601f106130055761010080835404028352916020019161302e565b820191905f5260205f20905b81548152906001019060200180831161301157829003601f168201915b50505050509050610be4565b5f65ffffffffffff821115612722576040516306dfcc6560e41b81526030600482015260248101839052604401610e92565b82545f9081908015613180575f613088876126c7600185614636565b60408051808201909152905463ffffffff808216808452600160201b9092046001600160e01b0316602084015291925090871610156130da57604051632520601d60e01b815260040160405180910390fd5b805163ffffffff80881691160361312257846130fb886126c7600186614636565b80546001600160e01b0392909216600160201b0263ffffffff909216919091179055613170565b6040805180820190915263ffffffff80881682526001600160e01b0380881660208085019182528b54600181018d555f8d81529190912094519151909216600160201b029216919091179101555b60200151925083915061276b9050565b50506040805180820190915263ffffffff80851682526001600160e01b0380851660208085019182528854600181018a555f8a815291822095519251909316600160201b02919093161792019190915590508161276b565b8051156131e85780518082602001fd5b604051630a12f52160e11b815260040160405180910390fd5b5f815f0361321057505f919050565b5f600161321c846135ae565b901c6001901b905060018184816132355761323561484e565b048201901c9050600181848161324d5761324d61484e565b048201901c905060018184816132655761326561484e565b048201901c9050600181848161327d5761327d61484e565b048201901c905060018184816132955761329561484e565b048201901c905060018184816132ad576132ad61484e565b048201901c905060018184816132c5576132c561484e565b048201901c9050611b3b818285816132df576132df61484e565b04613641565b5f5b81831015613338575f6132fa8484613656565b5f8781526020902090915063ffffffff86169082015463ffffffff16111561332457809250613332565b61332f816001614823565b93505b506132e7565b509392505050565b5f80807f7fffffffffffffffffffffffffffffff5d576e7357a4501ddfe92f46681b20a084111561337957505f915060039050826133fe565b604080515f808252602082018084528a905260ff891692820192909252606081018790526080810186905260019060a0016020604051602081039080840390855afa1580156133ca573d5f803e3d5ffd5b5050604051601f1901519150506001600160a01b0381166133f557505f9250600191508290506133fe565b92505f91508190505b9450945094915050565b5f8060f883901c602f811180156134225750603a8160ff16105b1561343757600194602f199091019350915050565b8060ff16604010801561344d575060478160ff16105b15613462576001946036199091019350915050565b8060ff166060108015613478575060678160ff16105b1561348d576001946056199091019350915050565b505f93849350915050565b5f806134a78787878787613670565b600980546001810182555f9182527f6e1540171b6c0c960b71a7020d9f60077f6af931a8bbf590da0223dacf75c7af01829055604080516080810182528a815260208181018b90528183018a90528851898201206060830152848452600a81529190922082518051949550929390926135249284929101906138b1565b50602082810151805161353d9260018501920190613910565b5060408201518051613559916002840191602090910190613949565b50606091909101516003909101559695505050505050565b60605f61357d8361388a565b6040805160208082528183019092529192505f91906020820181803683375050509182525060208101929092525090565b5f80608083901c156135c257608092831c92015b604083901c156135d457604092831c92015b602083901c156135e657602092831c92015b601083901c156135f857601092831c92015b600883901c1561360a57600892831c92015b600483901c1561361c57600492831c92015b600283901c1561362e57600292831c92015b600183901c15610be45760010192915050565b5f81831061364f5781611b3b565b5090919050565b5f6136646002848418614862565b611b3b90848416614823565b5f613684868686868051906020012061191c565b90508451865114158061369957508351865114155b806136a357508551155b156136d857855184518651604051630447b05d60e41b8152600481019390935260248301919091526044820152606401610e92565b5f81815260046020526040902054600160a01b900465ffffffffffff16156137215780613704826110c2565b6040516331b75e4d60e01b8152610e929291905f90600401614649565b5f61372a6110b0565b613732611724565b65ffffffffffff166137449190614823565b90505f61375e60085463ffffffff600160301b9091041690565b5f84815260046020526040902080546001600160a01b0319166001600160a01b0387161781559091506137908361303a565b815465ffffffffffff91909116600160a01b0265ffffffffffff60a01b199091161781556137bd826126f2565b815463ffffffff91909116600160d01b0263ffffffff60d01b1990911617815588517f7d84a6263ae0d98d3329bd7b46bb4e8d6f98cd35a7adb45c274c8b7fd5ebd5e090859087908c908c906001600160401b0381111561382057613820613ab3565b60405190808252806020026020018201604052801561385357816020015b606081526020019060019003908161383e5790505b508c896138608a82614823565b8e60405161387699989796959493929190614881565b60405180910390a150505095945050505050565b5f60ff8216601f811115610be457604051632cd44ac360e21b815260040160405180910390fd5b828054828255905f5260205f20908101928215613904579160200282015b8281111561390457825182546001600160a01b0319166001600160a01b039091161782556020909201916001909101906138cf565b50612722929150613999565b828054828255905f5260205f20908101928215613904579160200282015b8281111561390457825182559160200191906001019061392e565b828054828255905f5260205f2090810192821561398d579160200282015b8281111561398d578251829061397d908261499a565b5091602001919060010190613967565b506127229291506139ad565b5b80821115612722575f815560010161399a565b80821115612722575f6139c082826139c9565b506001016139ad565b5080546139d590614524565b5f825580601f106139e4575050565b601f0160209004905f5260205f209081019061158a9190613999565b5f60208284031215613a10575f80fd5b81356001600160e01b031981168114611b3b575f80fd5b5f5b83811015613a41578181015183820152602001613a29565b50505f910152565b5f8151808452613a60816020860160208601613a27565b601f01601f19169290920160200192915050565b602081525f611b3b6020830184613a49565b5f60208284031215613a96575f80fd5b5035919050565b80356001600160a01b038116811461139e575f80fd5b634e487b7160e01b5f52604160045260245ffd5b604051601f8201601f191681016001600160401b0381118282101715613aef57613aef613ab3565b604052919050565b5f6001600160401b03821115613b0f57613b0f613ab3565b50601f01601f191660200190565b5f613b2f613b2a84613af7565b613ac7565b9050828152838383011115613b42575f80fd5b828260208301375f602084830101529392505050565b5f82601f830112613b67575f80fd5b611b3b83833560208501613b1d565b5f805f8060808587031215613b89575f80fd5b613b9285613a9d565b9350613ba060208601613a9d565b92506040850135915060608501356001600160401b03811115613bc1575f80fd5b613bcd87828801613b58565b91505092959194509250565b5f6001600160401b03821115613bf157613bf1613ab3565b5060051b60200190565b5f82601f830112613c0a575f80fd5b81356020613c1a613b2a83613bd9565b8083825260208201915060208460051b870101935086841115613c3b575f80fd5b602086015b84811015613c5e57613c5181613a9d565b8352918301918301613c40565b509695505050505050565b5f82601f830112613c78575f80fd5b81356020613c88613b2a83613bd9565b8083825260208201915060208460051b870101935086841115613ca9575f80fd5b602086015b84811015613c5e5780358352918301918301613cae565b5f82601f830112613cd4575f80fd5b81356020613ce4613b2a83613bd9565b82815260059290921b84018101918181019086841115613d02575f80fd5b8286015b84811015613c5e5780356001600160401b03811115613d23575f80fd5b613d318986838b0101613b58565b845250918301918301613d06565b5f805f8060808587031215613d52575f80fd5b84356001600160401b0380821115613d68575f80fd5b613d7488838901613bfb565b95506020870135915080821115613d89575f80fd5b613d9588838901613c69565b94506040870135915080821115613daa575f80fd5b50613db787828801613cc5565b949793965093946060013593505050565b5f815180845260208085019450602084015f5b83811015613e005781516001600160a01b031687529582019590820190600101613ddb565b509495945050505050565b5f815180845260208085019450602084015f5b83811015613e0057815187529582019590820190600101613e1e565b5f8282518085526020808601955060208260051b840101602086015f5b84811015613e8557601f19868403018952613e73838351613a49565b98840198925090830190600101613e57565b5090979650505050505050565b608081525f613ea46080830187613dc8565b8281036020840152613eb68187613e0b565b90508281036040840152613eca8186613e3a565b91505082606083015295945050505050565b85815260a060208201525f613ef460a0830187613dc8565b8281036040840152613f068187613e0b565b90508281036060840152613f1a8186613e3a565b9150508260808301529695505050505050565b5f8060408385031215613f3e575f80fd5b82359150613f4e60208401613a9d565b90509250929050565b634e487b7160e01b5f52602160045260245ffd5b60088110613f8757634e487b7160e01b5f52602160045260245ffd5b9052565b60208101610be48284613f6b565b803560ff8116811461139e575f80fd5b5f8060408385031215613fba575f80fd5b82359150613f4e60208401613f99565b5f8083601f840112613fda575f80fd5b5081356001600160401b03811115613ff0575f80fd5b602083019150836020828501011115614007575f80fd5b9250929050565b5f805f805f805f60c0888a031215614024575f80fd5b8735965061403460208901613f99565b955061404260408901613a9d565b945060608801356001600160401b038082111561405d575f80fd5b6140698b838c01613fca565b909650945060808a0135915080821115614081575f80fd5b61408d8b838c01613b58565b935060a08a01359150808211156140a2575f80fd5b506140af8a828b01613b58565b91505092959891949750929550565b5f805f805f608086880312156140d2575f80fd5b853594506140e260208701613f99565b935060408601356001600160401b03808211156140fd575f80fd5b61410989838a01613fca565b90955093506060880135915080821115614121575f80fd5b5061412e88828901613b58565b9150509295509295909350565b65ffffffffffff8116811461158a575f80fd5b5f6020828403121561415e575f80fd5b8135611b3b8161413b565b5f805f806060858703121561417c575f80fd5b8435935061418c60208601613f99565b925060408501356001600160401b038111156141a6575f80fd5b6141b287828801613fca565b95989497509550505050565b5f805f80608085870312156141d1575f80fd5b84356001600160401b03808211156141e7575f80fd5b6141f388838901613bfb565b95506020870135915080821115614208575f80fd5b61421488838901613c69565b94506040870135915080821115614229575f80fd5b61423588838901613cc5565b9350606087013591508082111561424a575f80fd5b508501601f8101871361425b575f80fd5b613bcd87823560208401613b1d565b5f6020828403121561427a575f80fd5b611b3b82613a9d565b60ff60f81b8816815260e060208201525f6142a160e0830189613a49565b82810360408401526142b38189613a49565b606084018890526001600160a01b038716608085015260a0840186905283810360c085015290506142e48185613e0b565b9a9950505050505050505050565b5f805f8060808587031215614305575f80fd5b8435935061431560208601613f99565b925061432360408601613a9d565b915060608501356001600160401b03811115613bc1575f80fd5b5f6020828403121561434d575f80fd5b81356001600160e01b0381168114611b3b575f80fd5b5f805f60608486031215614375575f80fd5b61437e84613a9d565b92506020840135915060408401356001600160401b0381111561439f575f80fd5b6143ab86828701613b58565b9150509250925092565b5f805f805f60a086880312156143c9575f80fd5b6143d286613a9d565b94506143e060208701613a9d565b935060408601356001600160401b03808211156143fb575f80fd5b61440789838a01613c69565b9450606088013591508082111561441c575f80fd5b61442889838a01613c69565b93506080880135915080821115614121575f80fd5b5f805f8060608587031215614450575f80fd5b61445985613a9d565b93506020850135925060408501356001600160401b038111156141a6575f80fd5b5f6020828403121561448a575f80fd5b813563ffffffff81168114611b3b575f80fd5b5f80604083850312156144ae575f80fd5b6144b783613a9d565b946020939093013593505050565b5f805f805f60a086880312156144d9575f80fd5b6144e286613a9d565b94506144f060208701613a9d565b9350604086013592506060860135915060808601356001600160401b03811115614518575f80fd5b61412e88828901613b58565b600181811c9082168061453857607f821691505b602082108103611cb557634e487b7160e01b5f52602260045260245ffd5b634e487b7160e01b5f52603260045260245ffd5b5f6020828403121561457a575f80fd5b81516001600160401b0381111561458f575f80fd5b8201601f8101841361459f575f80fd5b80516145ad613b2a82613af7565b8181528560208385010111156145c1575f80fd5b6115e0826020830160208601613a27565b818382375f9101908152919050565b5f602082840312156145f1575f80fd5b8151611b3b8161413b565b634e487b7160e01b5f52601160045260245ffd5b65ffffffffffff81811683821601908082111561462f5761462f6145fc565b5092915050565b81810381811115610be457610be46145fc565b8381526060810161465d6020830185613f6b565b826040830152949350505050565b5f825161467c818460208701613a27565b9190910192915050565b60ff8181168382160190811115610be457610be46145fc565b600181815b808511156146d957815f19048211156146bf576146bf6145fc565b808516156146cc57918102915b93841c93908002906146a4565b509250929050565b5f826146ef57506001610be4565b816146fb57505f610be4565b8160018114614711576002811461471b57614737565b6001915050610be4565b60ff84111561472c5761472c6145fc565b50506001821b610be4565b5060208310610133831016604e8410600b841016171561475a575081810a610be4565b614764838361469f565b805f1904821115614777576147776145fc565b029392505050565b5f611b3b60ff8416836146e1565b84815260ff84166020820152826040820152608060608201525f6112d96080830184613a49565b85815260ff8516602082015283604082015260a060608201525f6147db60a0830185613a49565b828103608084015261263f8185613a49565b65ffffffffffff82811682821603908082111561462f5761462f6145fc565b5f6020828403121561481c575f80fd5b5051919050565b80820180821115610be457610be46145fc565b828152604060208201525f6113c26040830184613a49565b634e487b7160e01b5f52601260045260245ffd5b5f8261487c57634e487b7160e01b5f52601260045260245ffd5b500490565b5f6101208b8352602060018060a01b038c16818501528160408501526148a98285018c613dc8565b915083820360608501526148bd828b613e0b565b915083820360808501528189518084528284019150828160051b850101838c015f5b8381101561490d57601f198784030185526148fb838351613a49565b948601949250908501906001016148df565b505086810360a0880152614921818c613e3a565b9450505050508560c08401528460e08401528281036101008401526149468185613a49565b9c9b505050505050505050505050565b601f8211156110ab57805f5260205f20601f840160051c8101602085101561497b5750805b601f840160051c820191505b81811015612e18575f8155600101614987565b81516001600160401b038111156149b3576149b3613ab3565b6149c7816149c18454614524565b84614956565b602080601f8311600181146149fa575f84156149e35750858301515b5f19600386901b1c1916600185901b17855561208a565b5f85815260208120601f198616915b82811015614a2857888601518255948401946001909101908401614a09565b5085821015614a4557878501515f19600388901b60f8161c191681555b5050505050600190811b0190555056fea2646970667358221220216ecaca2f8e37fe255ea774c91f8a17c3851c97465e34e2709910bfb44e3ecc64736f6c63430008160033","linkReferences":{}},"methodIdentifiers":{"BALLOT_TYPEHASH()":"deaaa7cc","CLOCK_MODE()":"4bf5d7e9","COUNTING_MODE()":"dd4e2ba5","DEFAULT_ADMIN_ROLE()":"a217fddf","EXECUTOR_ROLE()":"07bd0265","EXTENDED_BALLOT_TYPEHASH()":"2fe3e261","cancel(address[],uint256[],bytes[],bytes32)":"452115d6","cancel(uint256)":"40e58ee5","castVote(uint256,uint8)":"56781388","castVoteBySig(uint256,uint8,address,bytes)":"8ff262e3","castVoteWithReason(uint256,uint8,string)":"7b3c71d3","castVoteWithReasonAndParams(uint256,uint8,string,bytes)":"5f398a14","castVoteWithReasonAndParamsBySig(uint256,uint8,address,string,bytes,bytes)":"5b8d0e0d","clock()":"91ddadf4","earlyExecute(uint256)":"f5379ea9","eip712Domain()":"84b0196e","execute(address[],uint256[],bytes[],bytes32)":"2656227d","execute(uint256)":"fe0d94c1","getRoleAdmin(bytes32)":"248a9ca3","getVotes(address,uint256)":"eb9019d4","getVotesWithParams(address,uint256,bytes)":"9a802a6d","grantRole(bytes32,address)":"2f2ff15d","hasRole(bytes32,address)":"91d14854","hasVoted(uint256,address)":"43859632","hashProposal(address[],uint256[],bytes[],bytes32)":"c59057e4","name()":"06fdde03","nonces(address)":"7ecebe00","onERC1155BatchReceived(address,address,uint256[],uint256[],bytes)":"bc197c81","onERC1155Received(address,address,uint256,uint256,bytes)":"f23a6e61","onERC721Received(address,address,uint256,bytes)":"150b7a02","proposalCount()":"da35c664","proposalDeadline(uint256)":"c01f9e37","proposalDetails(uint256)":"16e9eaec","proposalDetailsAt(uint256)":"2e82db94","proposalEta(uint256)":"ab58fb8e","proposalNeedsQueuing(uint256)":"a9a95294","proposalProposer(uint256)":"143489d0","proposalSnapshot(uint256)":"2d63f693","proposalThreshold()":"b58131b0","proposalVotes(uint256)":"544ffc9c","propose(address[],uint256[],bytes[],string)":"7d5e81e2","queue(address[],uint256[],bytes[],bytes32)":"160cbed7","queue(uint256)":"ddf0b009","quorum(uint256)":"f8ce560a","relay(address,uint256,bytes)":"c28bc2fa","renounceRole(bytes32,address)":"36568abe","revokeRole(bytes32,address)":"d547741f","setProposalThreshold(uint256)":"ece40cc1","setVotingDelay(uint48)":"79051887","setVotingPeriod(uint32)":"e540d01d","state(uint256)":"3e4f49e6","supportsInterface(bytes4)":"01ffc9a7","token()":"fc0c546a","updateQuorum(uint224)":"97ad3b6f","version()":"54fd4d50","votingDelay()":"3932abb1","votingPeriod()":"02a251a3"},"id":27}