{"abi":[{"type":"constructor","inputs":[],"stateMutability":"nonpayable"},{"type":"function","name":"approve","inputs":[{"name":"to","type":"address","internalType":"address"},{"name":"tokenId","type":"uint256","internalType":"uint256"}],"outputs":[],"stateMutability":"nonpayable"},{"type":"function","name":"balanceOf","inputs":[{"name":"owner","type":"address","internalType":"address"}],"outputs":[{"name":"","type":"uint256","internalType":"uint256"}],"stateMutability":"view"},{"type":"function","name":"getAdmin","inputs":[],"outputs":[{"name":"","type":"address","internalType":"address"}],"stateMutability":"view"},{"type":"function","name":"getAgentDAO","inputs":[{"name":"virtualId","type":"uint256","internalType":"uint256"}],"outputs":[{"name":"","type":"address","internalType":"contract IGovernor"}],"stateMutability":"view"},{"type":"function","name":"getApproved","inputs":[{"name":"tokenId","type":"uint256","internalType":"uint256"}],"outputs":[{"name":"","type":"address","internalType":"address"}],"stateMutability":"view"},{"type":"function","name":"getChildren","inputs":[{"name":"tokenId","type":"uint256","internalType":"uint256"}],"outputs":[{"name":"","type":"uint256[]","internalType":"uint256[]"}],"stateMutability":"view"},{"type":"function","name":"getCore","inputs":[{"name":"tokenId","type":"uint256","internalType":"uint256"}],"outputs":[{"name":"","type":"uint8","internalType":"uint8"}],"stateMutability":"view"},{"type":"function","name":"getDatasetId","inputs":[{"name":"tokenId","type":"uint256","internalType":"uint256"}],"outputs":[{"name":"","type":"uint256","internalType":"uint256"}],"stateMutability":"view"},{"type":"function","name":"getEloCalculator","inputs":[],"outputs":[{"name":"","type":"address","internalType":"address"}],"stateMutability":"view"},{"type":"function","name":"getParentId","inputs":[{"name":"tokenId","type":"uint256","internalType":"uint256"}],"outputs":[{"name":"","type":"uint256","internalType":"uint256"}],"stateMutability":"view"},{"type":"function","name":"initialize","inputs":[{"name":"thePersonaAddress","type":"address","internalType":"address"}],"outputs":[],"stateMutability":"nonpayable"},{"type":"function","name":"isAccepted","inputs":[{"name":"tokenId","type":"uint256","internalType":"uint256"}],"outputs":[{"name":"","type":"bool","internalType":"bool"}],"stateMutability":"view"},{"type":"function","name":"isApprovedForAll","inputs":[{"name":"owner","type":"address","internalType":"address"},{"name":"operator","type":"address","internalType":"address"}],"outputs":[{"name":"","type":"bool","internalType":"bool"}],"stateMutability":"view"},{"type":"function","name":"isModel","inputs":[{"name":"tokenId","type":"uint256","internalType":"uint256"}],"outputs":[{"name":"","type":"bool","internalType":"bool"}],"stateMutability":"view"},{"type":"function","name":"mint","inputs":[{"name":"to","type":"address","internalType":"address"},{"name":"virtualId","type":"uint256","internalType":"uint256"},{"name":"coreId","type":"uint8","internalType":"uint8"},{"name":"newTokenURI","type":"string","internalType":"string"},{"name":"proposalId","type":"uint256","internalType":"uint256"},{"name":"parentId","type":"uint256","internalType":"uint256"},{"name":"isModel_","type":"bool","internalType":"bool"},{"name":"datasetId","type":"uint256","internalType":"uint256"}],"outputs":[{"name":"","type":"uint256","internalType":"uint256"}],"stateMutability":"nonpayable"},{"type":"function","name":"modelContributions","inputs":[{"name":"","type":"uint256","internalType":"uint256"}],"outputs":[{"name":"","type":"bool","internalType":"bool"}],"stateMutability":"view"},{"type":"function","name":"modelDatasets","inputs":[{"name":"","type":"uint256","internalType":"uint256"}],"outputs":[{"name":"","type":"uint256","internalType":"uint256"}],"stateMutability":"view"},{"type":"function","name":"name","inputs":[],"outputs":[{"name":"","type":"string","internalType":"string"}],"stateMutability":"view"},{"type":"function","name":"ownerOf","inputs":[{"name":"tokenId","type":"uint256","internalType":"uint256"}],"outputs":[{"name":"","type":"address","internalType":"address"}],"stateMutability":"view"},{"type":"function","name":"personaNft","inputs":[],"outputs":[{"name":"","type":"address","internalType":"address"}],"stateMutability":"view"},{"type":"function","name":"safeTransferFrom","inputs":[{"name":"from","type":"address","internalType":"address"},{"name":"to","type":"address","internalType":"address"},{"name":"tokenId","type":"uint256","internalType":"uint256"}],"outputs":[],"stateMutability":"nonpayable"},{"type":"function","name":"safeTransferFrom","inputs":[{"name":"from","type":"address","internalType":"address"},{"name":"to","type":"address","internalType":"address"},{"name":"tokenId","type":"uint256","internalType":"uint256"},{"name":"data","type":"bytes","internalType":"bytes"}],"outputs":[],"stateMutability":"nonpayable"},{"type":"function","name":"setAdmin","inputs":[{"name":"newAdmin","type":"address","internalType":"address"}],"outputs":[],"stateMutability":"nonpayable"},{"type":"function","name":"setApprovalForAll","inputs":[{"name":"operator","type":"address","internalType":"address"},{"name":"approved","type":"bool","internalType":"bool"}],"outputs":[],"stateMutability":"nonpayable"},{"type":"function","name":"setEloCalculator","inputs":[{"name":"eloCalculator_","type":"address","internalType":"address"}],"outputs":[],"stateMutability":"nonpayable"},{"type":"function","name":"supportsInterface","inputs":[{"name":"interfaceId","type":"bytes4","internalType":"bytes4"}],"outputs":[{"name":"","type":"bool","internalType":"bool"}],"stateMutability":"view"},{"type":"function","name":"symbol","inputs":[],"outputs":[{"name":"","type":"string","internalType":"string"}],"stateMutability":"view"},{"type":"function","name":"tokenByIndex","inputs":[{"name":"index","type":"uint256","internalType":"uint256"}],"outputs":[{"name":"","type":"uint256","internalType":"uint256"}],"stateMutability":"view"},{"type":"function","name":"tokenOfOwnerByIndex","inputs":[{"name":"owner","type":"address","internalType":"address"},{"name":"index","type":"uint256","internalType":"uint256"}],"outputs":[{"name":"","type":"uint256","internalType":"uint256"}],"stateMutability":"view"},{"type":"function","name":"tokenURI","inputs":[{"name":"tokenId","type":"uint256","internalType":"uint256"}],"outputs":[{"name":"","type":"string","internalType":"string"}],"stateMutability":"view"},{"type":"function","name":"tokenVirtualId","inputs":[{"name":"tokenId","type":"uint256","internalType":"uint256"}],"outputs":[{"name":"","type":"uint256","internalType":"uint256"}],"stateMutability":"view"},{"type":"function","name":"totalSupply","inputs":[],"outputs":[{"name":"","type":"uint256","internalType":"uint256"}],"stateMutability":"view"},{"type":"function","name":"transferFrom","inputs":[{"name":"from","type":"address","internalType":"address"},{"name":"to","type":"address","internalType":"address"},{"name":"tokenId","type":"uint256","internalType":"uint256"}],"outputs":[],"stateMutability":"nonpayable"},{"type":"event","name":"Approval","inputs":[{"name":"owner","type":"address","indexed":true,"internalType":"address"},{"name":"approved","type":"address","indexed":true,"internalType":"address"},{"name":"tokenId","type":"uint256","indexed":true,"internalType":"uint256"}],"anonymous":false},{"type":"event","name":"ApprovalForAll","inputs":[{"name":"owner","type":"address","indexed":true,"internalType":"address"},{"name":"operator","type":"address","indexed":true,"internalType":"address"},{"name":"approved","type":"bool","indexed":false,"internalType":"bool"}],"anonymous":false},{"type":"event","name":"BatchMetadataUpdate","inputs":[{"name":"_fromTokenId","type":"uint256","indexed":false,"internalType":"uint256"},{"name":"_toTokenId","type":"uint256","indexed":false,"internalType":"uint256"}],"anonymous":false},{"type":"event","name":"Initialized","inputs":[{"name":"version","type":"uint64","indexed":false,"internalType":"uint64"}],"anonymous":false},{"type":"event","name":"MetadataUpdate","inputs":[{"name":"_tokenId","type":"uint256","indexed":false,"internalType":"uint256"}],"anonymous":false},{"type":"event","name":"NewContribution","inputs":[{"name":"tokenId","type":"uint256","indexed":false,"internalType":"uint256"},{"name":"virtualId","type":"uint256","indexed":false,"internalType":"uint256"},{"name":"parentId","type":"uint256","indexed":false,"internalType":"uint256"},{"name":"datasetId","type":"uint256","indexed":false,"internalType":"uint256"}],"anonymous":false},{"type":"event","name":"Transfer","inputs":[{"name":"from","type":"address","indexed":true,"internalType":"address"},{"name":"to","type":"address","indexed":true,"internalType":"address"},{"name":"tokenId","type":"uint256","indexed":true,"internalType":"uint256"}],"anonymous":false},{"type":"error","name":"ERC721EnumerableForbiddenBatchMint","inputs":[]},{"type":"error","name":"ERC721IncorrectOwner","inputs":[{"name":"sender","type":"address","internalType":"address"},{"name":"tokenId","type":"uint256","internalType":"uint256"},{"name":"owner","type":"address","internalType":"address"}]},{"type":"error","name":"ERC721InsufficientApproval","inputs":[{"name":"operator","type":"address","internalType":"address"},{"name":"tokenId","type":"uint256","internalType":"uint256"}]},{"type":"error","name":"ERC721InvalidApprover","inputs":[{"name":"approver","type":"address","internalType":"address"}]},{"type":"error","name":"ERC721InvalidOperator","inputs":[{"name":"operator","type":"address","internalType":"address"}]},{"type":"error","name":"ERC721InvalidOwner","inputs":[{"name":"owner","type":"address","internalType":"address"}]},{"type":"error","name":"ERC721InvalidReceiver","inputs":[{"name":"receiver","type":"address","internalType":"address"}]},{"type":"error","name":"ERC721InvalidSender","inputs":[{"name":"sender","type":"address","internalType":"address"}]},{"type":"error","name":"ERC721NonexistentToken","inputs":[{"name":"tokenId","type":"uint256","internalType":"uint256"}]},{"type":"error","name":"ERC721OutOfBoundsIndex","inputs":[{"name":"owner","type":"address","internalType":"address"},{"name":"index","type":"uint256","internalType":"uint256"}]},{"type":"error","name":"InvalidInitialization","inputs":[]},{"type":"error","name":"NotInitializing","inputs":[]}],"bytecode":{"object":"0x608060405234801561000f575f80fd5b5061001861001d565b6100cf565b7ff0c57e16840df040f15088dc2f81fe391c3923bec73e23a9662efc9c229c6a00805468010000000000000000900460ff161561006d5760405163f92ee8a960e01b815260040160405180910390fd5b80546001600160401b03908116146100cc5780546001600160401b0319166001600160401b0390811782556040519081527fc7f505b2f371ae2175ee4913f4499e1f2633a7b5936321eed1cdaeb6115181d29060200160405180910390a15b50565b6123f480620000dd5f395ff3fe608060405234801561000f575f80fd5b50600436106101f2575f3560e01c806370a0823111610114578063c14b197a116100a9578063dbdd0aab11610079578063dbdd0aab1461049b578063dcf75bef146104ba578063e985e9c5146104cc578063ed1aa24c146104df578063f031f730146104fe575f80fd5b8063c14b197a14610437578063c4d66de814610456578063c87b56dd14610469578063ccc16f691461047c575f80fd5b8063a7612997116100e4578063a7612997146103de578063aadc35e214610400578063b88d4fde14610413578063c052bfb614610426575f80fd5b806370a082311461038e5780638209c699146103a157806395d89b41146103c3578063a22cb465146103cb575f80fd5b806329bc3b851161018a5780634f6ccce71161015a5780634f6ccce7146103445780636352211e146103575780636e9960c31461036a578063704b6c021461037b575f80fd5b806329bc3b85146102eb5780632f745c59146102fe57806342842e0e1461031157806349ae8dc314610324575f80fd5b806318160ddd116101c557806318160ddd146102735780631ca95e131461029157806323b872dd146102a4578063252079b2146102b7575f80fd5b806301ffc9a7146101f657806306fdde031461021e578063081812fc14610233578063095ea7b31461025e575b5f80fd5b610209610204366004611c0d565b610511565b60405190151581526020015b60405180910390f35b610226610521565b6040516102159190611c75565b610246610241366004611c87565b6105c2565b6040516001600160a01b039091168152602001610215565b61027161026c366004611cb2565b6105d6565b005b5f8051602061239f833981519152545b604051908152602001610215565b61027161029f366004611cdc565b6105e5565b6102716102b2366004611cf7565b610679565b6102d96102c5366004611c87565b5f9081526004602052604090205460ff1690565b60405160ff9091168152602001610215565b6102096102f9366004611c87565b610702565b61028361030c366004611cb2565b61079f565b61027161031f366004611cf7565b610810565b610337610332366004611c87565b61082f565b6040516102159190611d35565b610283610352366004611c87565b61088e565b610246610365366004611c87565b610900565b6007546001600160a01b0316610246565b610271610389366004611cdc565b61090a565b61028361039c366004611cdc565b61098f565b6102096103af366004611c87565b5f9081526005602052604090205460ff1690565b6102266109e7565b6102716103d9366004611d8c565b610a25565b6102096103ec366004611c87565b60056020525f908152604090205460ff1681565b61024661040e366004611c87565b610a30565b610271610421366004611e82565b610aa4565b6008546001600160a01b0316610246565b610283610445366004611c87565b5f9081526006602052604090205490565b610271610464366004611cdc565b610abb565b610226610477366004611c87565b610c40565b61028361048a366004611c87565b5f9081526001602052604090205490565b6102836104a9366004611c87565b5f9081526002602052604090205490565b5f54610246906001600160a01b031681565b6102096104da366004611efd565b610c4b565b6102836104ed366004611c87565b60066020525f908152604090205481565b61028361050c366004611f42565b610c97565b5f61051b82610eb9565b92915050565b5f8051602061237f833981519152805460609190819061054090611fe9565b80601f016020809104026020016040519081016040528092919081815260200182805461056c90611fe9565b80156105b75780601f1061058e576101008083540402835291602001916105b7565b820191905f5260205f20905b81548152906001019060200180831161059a57829003601f168201915b505050505091505090565b5f6105cc82610edd565b5061051b82610f14565b6105e1828233610f4d565b5050565b6007546001600160a01b0316336001600160a01b0316146106575760405162461bcd60e51b815260206004820152602160248201527f4f6e6c792061646d696e2063616e2073657420656c6f2063616c63756c61746f6044820152603960f91b60648201526084015b60405180910390fd5b600880546001600160a01b0319166001600160a01b0392909216919091179055565b6001600160a01b0382166106a257604051633250574960e11b81525f600482015260240161064e565b5f6106ae838333610f5a565b9050836001600160a01b0316816001600160a01b0316146106fc576040516364283d7b60e01b81526001600160a01b038086166004830152602482018490528216604482015260640161064e565b50505050565b5f818152600160205260408120548161071a82610a30565b90506004604051631f27a4f360e11b8152600481018690526001600160a01b03831690633e4f49e690602401602060405180830381865afa158015610761573d5f803e3d5ffd5b505050506040513d601f19601f820116820180604052508101906107859190612035565b600781111561079657610796612021565b14949350505050565b5f5f8051602061235f8339815191526107b78461098f565b83106107e85760405163295f44f760e21b81526001600160a01b03851660048201526024810184905260440161064e565b6001600160a01b0384165f908152602091825260408082208583529092522054905092915050565b61082a83838360405180602001604052805f815250610aa4565b505050565b5f8181526003602090815260409182902080548351818402810184019094528084526060939283018282801561088257602002820191905f5260205f20905b81548152602001906001019080831161086e575b50505050509050919050565b5f5f8051602061235f8339815191526108b25f8051602061239f8339815191525490565b83106108da5760405163295f44f760e21b81525f60048201526024810184905260440161064e565b8060020183815481106108ef576108ef612053565b905f5260205f200154915050919050565b5f61051b82610f6e565b6007546001600160a01b0316336001600160a01b03161461096d5760405162461bcd60e51b815260206004820152601860248201527f4f6e6c792061646d696e2063616e207365742061646d696e0000000000000000604482015260640161064e565b600780546001600160a01b0319166001600160a01b0392909216919091179055565b5f5f8051602061237f8339815191526001600160a01b0383166109c7576040516322718ad960e21b81525f600482015260240161064e565b6001600160a01b039092165f908152600390920160205250604090205490565b7f80bb2b638cc20bc4d0a60d66940f3ab4a00c1d7b313497ca82fb0b4ab007930180546060915f8051602061237f8339815191529161054090611fe9565b6105e1338383610fa7565b5f8054604051635652386760e11b8152600481018490526001600160a01b039091169063aca470ce906024015f60405180830381865afa158015610a76573d5f803e3d5ffd5b505050506040513d5f823e601f3d908101601f19168201604052610a9d9190810190612067565b5192915050565b610aaf848484610679565b6106fc84848484611056565b7ff0c57e16840df040f15088dc2f81fe391c3923bec73e23a9662efc9c229c6a008054600160401b810460ff16159067ffffffffffffffff165f81158015610b005750825b90505f8267ffffffffffffffff166001148015610b1c5750303b155b905081158015610b2a575080155b15610b485760405163f92ee8a960e01b815260040160405180910390fd5b845467ffffffffffffffff191660011785558315610b7257845460ff60401b1916600160401b1785555b610bba6040518060400160405280600c81526020016b21b7b73a3934b13aba34b7b760a11b81525060405180604001604052806002815260200161564360f01b81525061117c565b610bc261118e565b610bca61118e565b5f80546001600160a01b0388166001600160a01b03199182161790915560078054909116331790558315610c3857845460ff60401b19168555604051600181527fc7f505b2f371ae2175ee4913f4499e1f2633a7b5936321eed1cdaeb6115181d29060200160405180910390a15b505050505050565b606061051b82611198565b6001600160a01b039182165f9081527f80bb2b638cc20bc4d0a60d66940f3ab4a00c1d7b313497ca82fb0b4ab00793056020908152604080832093909416825291909152205460ff1690565b5f80610ca289610a30565b604051630143489d60e41b8152600481018890529091506001600160a01b0382169063143489d090602401602060405180830381865afa158015610ce8573d5f803e3d5ffd5b505050506040513d601f19601f82011682018060405250810190610d0c919061218b565b6001600160a01b0316336001600160a01b031614610d855760405162461bcd60e51b815260206004820152603060248201527f4f6e6c792070726f706f73616c2070726f706f7365722063616e206d696e742060448201526f10dbdb9d1c9a589d5d1a5bdb8813919560821b606482015260840161064e565b858503610dd45760405162461bcd60e51b815260206004820152601a60248201527f43616e6e6f7420626520706172656e74206f6620697473656c66000000000000604482015260640161064e565b610dde8a876112c7565b610de88688611328565b5f8681526001602081815260408084208d90556002825280842089905588845260038252808420805493840181558452818420909201899055888352600490529020805460ff191660ff8a161790558315610e63575f868152600560209081526040808320805460ff19166001179055600690915290208390555b60408051878152602081018b9052908101869052606081018490527fb0c63b0a40c3e23bce51bffd048743be952d168e928fb6f768c58cb8ceec5f809060800160405180910390a1509398975050505050505050565b5f6001600160e01b03198216632483248360e11b148061051b575061051b8261139a565b5f80610ee883610f6e565b90506001600160a01b03811661051b57604051637e27328960e01b81526004810184905260240161064e565b5f9081527f80bb2b638cc20bc4d0a60d66940f3ab4a00c1d7b313497ca82fb0b4ab007930460205260409020546001600160a01b031690565b61082a83838360016113be565b5f610f668484846114d1565b949350505050565b5f9081527f80bb2b638cc20bc4d0a60d66940f3ab4a00c1d7b313497ca82fb0b4ab007930260205260409020546001600160a01b031690565b5f8051602061237f8339815191526001600160a01b038316610fe757604051630b61174360e31b81526001600160a01b038416600482015260240161064e565b6001600160a01b038481165f818152600584016020908152604080832094881680845294825291829020805460ff191687151590811790915591519182527f17307eab39ab6107e8899845ad3d59bd9653f200f220920489ca2b5937696c31910160405180910390a350505050565b6001600160a01b0383163b156106fc57604051630a85bd0160e11b81526001600160a01b0384169063150b7a02906110989033908890879087906004016121a6565b6020604051808303815f875af19250505080156110d2575060408051601f3d908101601f191682019092526110cf918101906121e2565b60015b611139573d8080156110ff576040519150601f19603f3d011682016040523d82523d5f602084013e611104565b606091505b5080515f0361113157604051633250574960e11b81526001600160a01b038516600482015260240161064e565b805181602001fd5b6001600160e01b03198116630a85bd0160e11b1461117557604051633250574960e11b81526001600160a01b038516600482015260240161064e565b5050505050565b6111846115c7565b6105e18282611610565b6111966115c7565b565b60607f0542a41881ee128a365a727b282c86fa859579490b9bb45aab8503648c8e79006111c483610edd565b505f83815260208290526040812080546111dd90611fe9565b80601f016020809104026020016040519081016040528092919081815260200182805461120990611fe9565b80156112545780601f1061122b57610100808354040283529160200191611254565b820191905f5260205f20905b81548152906001019060200180831161123757829003601f168201915b505050505090505f61127060408051602081019091525f815290565b905080515f0361128257509392505050565b8151156112b557808260405160200161129c9291906121fd565b6040516020818303038152906040529350505050919050565b6112be85611640565b95945050505050565b6001600160a01b0382166112f057604051633250574960e11b81525f600482015260240161064e565b5f6112fc83835f610f5a565b90506001600160a01b0381161561082a576040516339e3563760e11b81525f600482015260240161064e565b5f8281527f0542a41881ee128a365a727b282c86fa859579490b9bb45aab8503648c8e790060208190526040909120611361838261226f565b506040518381527ff8e1a15aba9398e019f0b49df1a4fde98ee17ae345cb5f6b5e2c27f5033e8ce79060200160405180910390a1505050565b5f6001600160e01b0319821663780e9d6360e01b148061051b575061051b826116b1565b5f8051602061237f83398151915281806113e057506001600160a01b03831615155b156114a1575f6113ef85610edd565b90506001600160a01b0384161580159061141b5750836001600160a01b0316816001600160a01b031614155b801561142e575061142c8185610c4b565b155b156114575760405163a9fbf51f60e01b81526001600160a01b038516600482015260240161064e565b821561149f5784866001600160a01b0316826001600160a01b03167f8c5be1e5ebec7d5bd14f71427d1e84f3dd0314c0f7b2291e5b200ac8c7c3b92560405160405180910390a45b505b5f93845260040160205250506040902080546001600160a01b0319166001600160a01b0392909216919091179055565b5f806114de858585611700565b90506001600160a01b03811661156557611560845f8051602061239f83398151915280545f8381527f645e039705490088daad89bae25049a34f4a9072d398537b1ab2425f24cbed0360205260408120829055600182018355919091527fa42f15e5d656f8155fd7419d740a6073999f19cd6e061449ce4a257150545bf20155565b611588565b846001600160a01b0316816001600160a01b031614611588576115888185611802565b6001600160a01b0385166115a45761159f846118a1565b610f66565b846001600160a01b0316816001600160a01b031614610f6657610f66858561196e565b7ff0c57e16840df040f15088dc2f81fe391c3923bec73e23a9662efc9c229c6a0054600160401b900460ff1661119657604051631afcd79f60e31b815260040160405180910390fd5b6116186115c7565b5f8051602061237f83398151915280611631848261226f565b50600181016106fc838261226f565b606061164b82610edd565b505f61166160408051602081019091525f815290565b90505f81511161167f5760405180602001604052805f8152506116aa565b80611689846119c6565b60405160200161169a9291906121fd565b6040516020818303038152906040525b9392505050565b5f6001600160e01b031982166380ac58cd60e01b14806116e157506001600160e01b03198216635b5e139f60e01b145b8061051b57506301ffc9a760e01b6001600160e01b031983161461051b565b5f5f8051602061237f8339815191528161171985610f6e565b90506001600160a01b0384161561173557611735818587611a56565b6001600160a01b03811615611771576117505f865f806113be565b6001600160a01b0381165f908152600383016020526040902080545f190190555b6001600160a01b038616156117a1576001600160a01b0386165f9081526003830160205260409020805460010190555b5f85815260028301602052604080822080546001600160a01b0319166001600160a01b038a811691821790925591518893918516917fddf252ad1be2c89b69c2b068fc378daa952ba7f163c4a11628f55a4df523b3ef91a495945050505050565b5f8051602061235f8339815191525f61181a8461098f565b5f84815260018401602052604090205490915080821461186d576001600160a01b0385165f9081526020848152604080832085845282528083205484845281842081905583526001860190915290208190555b505f92835260018201602090815260408085208590556001600160a01b039095168452918252838320908352905290812055565b5f8051602061239f833981519152545f8051602061235f833981519152905f906118cd9060019061232b565b5f8481526003840160205260408120546002850180549394509092849081106118f8576118f8612053565b905f5260205f20015490508084600201838154811061191957611919612053565b5f918252602080832090910192909255828152600386019091526040808220849055868252812055600284018054806119545761195461234a565b600190038181905f5260205f20015f905590555050505050565b5f8051602061235f8339815191525f60016119888561098f565b611992919061232b565b6001600160a01b039094165f9081526020838152604080832087845282528083208690559482526001909301909252502055565b60605f6119d283611aba565b60010190505f8167ffffffffffffffff8111156119f1576119f1611dbf565b6040519080825280601f01601f191660200182016040528015611a1b576020820181803683370190505b5090508181016020015b5f19016f181899199a1a9b1b9c1cb0b131b232b360811b600a86061a8153600a8504945084611a2557509392505050565b611a61838383611b91565b61082a576001600160a01b038316611a8f57604051637e27328960e01b81526004810182905260240161064e565b60405163177e802f60e01b81526001600160a01b03831660048201526024810182905260440161064e565b5f8072184f03e93ff9f4daa797ed6e38ed64bf6a1f0160401b8310611af85772184f03e93ff9f4daa797ed6e38ed64bf6a1f0160401b830492506040015b6d04ee2d6d415b85acef81000000008310611b24576d04ee2d6d415b85acef8100000000830492506020015b662386f26fc100008310611b4257662386f26fc10000830492506010015b6305f5e1008310611b5a576305f5e100830492506008015b6127108310611b6e57612710830492506004015b60648310611b80576064830492506002015b600a831061051b5760010192915050565b5f6001600160a01b03831615801590610f665750826001600160a01b0316846001600160a01b03161480611bca5750611bca8484610c4b565b80610f665750826001600160a01b0316611be383610f14565b6001600160a01b031614949350505050565b6001600160e01b031981168114611c0a575f80fd5b50565b5f60208284031215611c1d575f80fd5b81356116aa81611bf5565b5f5b83811015611c42578181015183820152602001611c2a565b50505f910152565b5f8151808452611c61816020860160208601611c28565b601f01601f19169290920160200192915050565b602081525f6116aa6020830184611c4a565b5f60208284031215611c97575f80fd5b5035919050565b6001600160a01b0381168114611c0a575f80fd5b5f8060408385031215611cc3575f80fd5b8235611cce81611c9e565b946020939093013593505050565b5f60208284031215611cec575f80fd5b81356116aa81611c9e565b5f805f60608486031215611d09575f80fd5b8335611d1481611c9e565b92506020840135611d2481611c9e565b929592945050506040919091013590565b602080825282518282018190525f9190848201906040850190845b81811015611d6c57835183529284019291840191600101611d50565b50909695505050505050565b80358015158114611d87575f80fd5b919050565b5f8060408385031215611d9d575f80fd5b8235611da881611c9e565b9150611db660208401611d78565b90509250929050565b634e487b7160e01b5f52604160045260245ffd5b60405160a0810167ffffffffffffffff81118282101715611df657611df6611dbf565b60405290565b604051601f8201601f1916810167ffffffffffffffff81118282101715611e2557611e25611dbf565b604052919050565b5f67ffffffffffffffff831115611e4657611e46611dbf565b611e59601f8401601f1916602001611dfc565b9050828152838383011115611e6c575f80fd5b828260208301375f602084830101529392505050565b5f805f8060808587031215611e95575f80fd5b8435611ea081611c9e565b93506020850135611eb081611c9e565b925060408501359150606085013567ffffffffffffffff811115611ed2575f80fd5b8501601f81018713611ee2575f80fd5b611ef187823560208401611e2d565b91505092959194509250565b5f8060408385031215611f0e575f80fd5b8235611f1981611c9e565b91506020830135611f2981611c9e565b809150509250929050565b60ff81168114611c0a575f80fd5b5f805f805f805f80610100898b031215611f5a575f80fd5b8835611f6581611c9e565b9750602089013596506040890135611f7c81611f34565b9550606089013567ffffffffffffffff811115611f97575f80fd5b8901601f81018b13611fa7575f80fd5b611fb68b823560208401611e2d565b9550506080890135935060a08901359250611fd360c08a01611d78565b915060e089013590509295985092959890939650565b600181811c90821680611ffd57607f821691505b60208210810361201b57634e487b7160e01b5f52602260045260245ffd5b50919050565b634e487b7160e01b5f52602160045260245ffd5b5f60208284031215612045575f80fd5b8151600881106116aa575f80fd5b634e487b7160e01b5f52603260045260245ffd5b5f6020808385031215612078575f80fd5b825167ffffffffffffffff8082111561208f575f80fd5b9084019060a082870312156120a2575f80fd5b6120aa611dd3565b82516120b581611c9e565b8152828401516120c481611c9e565b8185015260408301516120d681611c9e565b604082015260608301516120e981611c9e565b60608201526080830151828111156120ff575f80fd5b80840193505086601f840112612113575f80fd5b82518281111561212557612125611dbf565b8060051b9250612136858401611dfc565b818152928401850192858101908985111561214f575f80fd5b948601945b84861015612179578551925061216983611f34565b8282529486019490860190612154565b60808401525090979650505050505050565b5f6020828403121561219b575f80fd5b81516116aa81611c9e565b6001600160a01b03858116825284166020820152604081018390526080606082018190525f906121d890830184611c4a565b9695505050505050565b5f602082840312156121f2575f80fd5b81516116aa81611bf5565b5f835161220e818460208801611c28565b835190830190612222818360208801611c28565b01949350505050565b601f82111561082a57805f5260205f20601f840160051c810160208510156122505750805b601f840160051c820191505b81811015611175575f815560010161225c565b815167ffffffffffffffff81111561228957612289611dbf565b61229d816122978454611fe9565b8461222b565b602080601f8311600181146122d0575f84156122b95750858301515b5f19600386901b1c1916600185901b178555610c38565b5f85815260208120601f198616915b828110156122fe578886015182559484019460019091019084016122df565b508582101561231b57878501515f19600388901b60f8161c191681555b5050505050600190811b01905550565b8181038181111561051b57634e487b7160e01b5f52601160045260245ffd5b634e487b7160e01b5f52603160045260245ffdfe645e039705490088daad89bae25049a34f4a9072d398537b1ab2425f24cbed0080bb2b638cc20bc4d0a60d66940f3ab4a00c1d7b313497ca82fb0b4ab0079300645e039705490088daad89bae25049a34f4a9072d398537b1ab2425f24cbed02a2646970667358221220d86df4ac769563a158befdd4f2a704b2bebcab7f0ddb1e6b4fd3ca804f4cf96e64736f6c63430008160033","linkReferences":{}},"methodIdentifiers":{"approve(address,uint256)":"095ea7b3","balanceOf(address)":"70a08231","getAdmin()":"6e9960c3","getAgentDAO(uint256)":"aadc35e2","getApproved(uint256)":"081812fc","getChildren(uint256)":"49ae8dc3","getCore(uint256)":"252079b2","getDatasetId(uint256)":"c14b197a","getEloCalculator()":"c052bfb6","getParentId(uint256)":"dbdd0aab","initialize(address)":"c4d66de8","isAccepted(uint256)":"29bc3b85","isApprovedForAll(address,address)":"e985e9c5","isModel(uint256)":"8209c699","mint(address,uint256,uint8,string,uint256,uint256,bool,uint256)":"f031f730","modelContributions(uint256)":"a7612997","modelDatasets(uint256)":"ed1aa24c","name()":"06fdde03","ownerOf(uint256)":"6352211e","personaNft()":"dcf75bef","safeTransferFrom(address,address,uint256)":"42842e0e","safeTransferFrom(address,address,uint256,bytes)":"b88d4fde","setAdmin(address)":"704b6c02","setApprovalForAll(address,bool)":"a22cb465","setEloCalculator(address)":"1ca95e13","supportsInterface(bytes4)":"01ffc9a7","symbol()":"95d89b41","tokenByIndex(uint256)":"4f6ccce7","tokenOfOwnerByIndex(address,uint256)":"2f745c59","tokenURI(uint256)":"c87b56dd","tokenVirtualId(uint256)":"ccc16f69","totalSupply()":"18160ddd","transferFrom(address,address,uint256)":"23b872dd"},"id":5}