{"abi":[{"type":"constructor","inputs":[{"name":"router_","type":"address","internalType":"address"},{"name":"token0","type":"address","internalType":"address"},{"name":"token1","type":"address","internalType":"address"}],"stateMutability":"nonpayable"},{"type":"function","name":"approval","inputs":[{"name":"_user","type":"address","internalType":"address"},{"name":"_token","type":"address","internalType":"address"},{"name":"amount","type":"uint256","internalType":"uint256"}],"outputs":[{"name":"","type":"bool","internalType":"bool"}],"stateMutability":"nonpayable"},{"type":"function","name":"assetBalance","inputs":[],"outputs":[{"name":"","type":"uint256","internalType":"uint256"}],"stateMutability":"view"},{"type":"function","name":"balance","inputs":[],"outputs":[{"name":"","type":"uint256","internalType":"uint256"}],"stateMutability":"view"},{"type":"function","name":"getReserves","inputs":[],"outputs":[{"name":"","type":"uint256","internalType":"uint256"},{"name":"","type":"uint256","internalType":"uint256"}],"stateMutability":"view"},{"type":"function","name":"kLast","inputs":[],"outputs":[{"name":"","type":"uint256","internalType":"uint256"}],"stateMutability":"view"},{"type":"function","name":"mint","inputs":[{"name":"reserve0","type":"uint256","internalType":"uint256"},{"name":"reserve1","type":"uint256","internalType":"uint256"}],"outputs":[{"name":"","type":"bool","internalType":"bool"}],"stateMutability":"nonpayable"},{"type":"function","name":"priceALast","inputs":[],"outputs":[{"name":"","type":"uint256","internalType":"uint256"}],"stateMutability":"view"},{"type":"function","name":"priceBLast","inputs":[],"outputs":[{"name":"","type":"uint256","internalType":"uint256"}],"stateMutability":"view"},{"type":"function","name":"router","inputs":[],"outputs":[{"name":"","type":"address","internalType":"address"}],"stateMutability":"view"},{"type":"function","name":"swap","inputs":[{"name":"amount0In","type":"uint256","internalType":"uint256"},{"name":"amount0Out","type":"uint256","internalType":"uint256"},{"name":"amount1In","type":"uint256","internalType":"uint256"},{"name":"amount1Out","type":"uint256","internalType":"uint256"}],"outputs":[{"name":"","type":"bool","internalType":"bool"}],"stateMutability":"nonpayable"},{"type":"function","name":"tokenA","inputs":[],"outputs":[{"name":"","type":"address","internalType":"address"}],"stateMutability":"view"},{"type":"function","name":"tokenB","inputs":[],"outputs":[{"name":"","type":"address","internalType":"address"}],"stateMutability":"view"},{"type":"function","name":"transferAsset","inputs":[{"name":"recipient","type":"address","internalType":"address"},{"name":"amount","type":"uint256","internalType":"uint256"}],"outputs":[],"stateMutability":"nonpayable"},{"type":"function","name":"transferTo","inputs":[{"name":"recipient","type":"address","internalType":"address"},{"name":"amount","type":"uint256","internalType":"uint256"}],"outputs":[],"stateMutability":"nonpayable"},{"type":"event","name":"Mint","inputs":[{"name":"reserve0","type":"uint256","indexed":false,"internalType":"uint256"},{"name":"reserve1","type":"uint256","indexed":false,"internalType":"uint256"}],"anonymous":false},{"type":"event","name":"Swap","inputs":[{"name":"amount0In","type":"uint256","indexed":false,"internalType":"uint256"},{"name":"amount0Out","type":"uint256","indexed":false,"internalType":"uint256"},{"name":"amount1In","type":"uint256","indexed":false,"internalType":"uint256"},{"name":"amount1Out","type":"uint256","indexed":false,"internalType":"uint256"}],"anonymous":false},{"type":"error","name":"AddressEmptyCode","inputs":[{"name":"target","type":"address","internalType":"address"}]},{"type":"error","name":"AddressInsufficientBalance","inputs":[{"name":"account","type":"address","internalType":"address"}]},{"type":"error","name":"FailedInnerCall","inputs":[]},{"type":"error","name":"ReentrancyGuardReentrantCall","inputs":[]},{"type":"error","name":"SafeERC20FailedOperation","inputs":[{"name":"token","type":"address","internalType":"address"}]}],"bytecode":{"object":"0x6080346100ca57601f610a6538819003918201601f19168301916001600160401b038311848410176100ce578084926060946040528339810103126100ca57610047816100e2565b906100606040610059602084016100e2565b92016100e2565b60015f55916001600160a01b0390811691819061007e8415156100f6565b169261008b8415156100f6565b16916100988315156100f6565b60018060a01b031991826001541617600155816002541617600255600354161760035560405161092290816101438239f35b5f80fd5b634e487b7160e01b5f52604160045260245ffd5b51906001600160a01b03821682036100ca57565b156100fd57565b60405162461bcd60e51b815260206004820152601f60248201527f5a65726f2061646472657373657320617265206e6f7420616c6c6f7765642e006044820152606490fdfe6080604090808252600480361015610015575f80fd5b5f3560e01c9182630902f1ac1461060c575081630e06dfc9146105eb5781630fc63d10146105c35781631b2ef1ca146104d65781632ccb1b30146104875781635673b02d146103c45781635c52a5f21461028c5781635c921eb91461023b5781635c9d6938146102125781635f64b55b146101ea5781637464fc3d146101cc578163b69ef8a814610178578163c66f2455146100e5575063f887ea40146100ba575f80fd5b346100e1575f3660031901126100e15760015490516001600160a01b039091168152602090f35b5f80fd5b82346100e1575f3660031901126100e15760035481516370a0823160e01b81523093810193909352602090839060249082906001600160a01b03165afa90811561016f575f9161013a575b6020925051908152f35b90506020823d602011610167575b81610155602093836106e7565b810103126100e1576020915190610130565b3d9150610148565b513d5f823e3d90fd5b82346100e1575f3660031901126100e15760025481516370a0823160e01b81523093810193909352602090839060249082906001600160a01b03165afa90811561016f575f9161013a576020925051908152f35b82346100e1575f3660031901126100e1576020906006549051908152f35b82346100e1575f3660031901126100e15760035490516001600160a01b039091168152602090f35b82346100e1575f3660031901126100e157610234602092600554905490610642565b9051908152f35b82346100e1573660031901126100e15761028a61025661062c565b6001546001600160a01b0391906102709083163314610660565b61027d8282161515610709565b6024359160035416610783565b005b82346100e15760603660031901126100e1576102a661062c565b6001600160a01b039190602435838116908190036100e157836102d0602095600154163314610660565b8216906102de821515610709565b6102e9811515610709565b835163095ea7b360e01b8682018181526001600160a01b0395909516602483015260448035818401528252939092905f9081906103276064876106e7565b85519082865af161033661084a565b81610397575b508061038d575b15610352575b85855160018152f35b6103849361037f918651918883015260248201525f604482015260448152610379816106b7565b826107d9565b6107d9565b82808080610349565b50813b1515610343565b80518015925082156103ac575b50508761033c565b6103bd9250810188019088016107c1565b87806103a4565b82346100e15760803660031901126100e1577f298c349c742327269dc8de6ad66687767310c948ea309df826f5bd103e19d2076080836020943590602435604435906064359261041f60018060a01b03600154163314610660565b6104338261042e878454610755565b610776565b6104438561042e86600554610755565b916006548a5190610453826106b7565b838252848d8301528b8201526060429101525560055542600755865193845287840152858301526060820152a15160018152f35b82346100e1573660031901126100e15761028a6104a261062c565b6001546001600160a01b0391906104bc9083163314610660565b6104c98282161515610709565b6024359160025416610783565b82346100e157806003193601126100e157813560243561050160018060a01b03600154163314610660565b60075461058f5780820282810482148315171561057c579183917fcc9c58b575eabd3f6a1ee653e91fcea3ff546867ffc3782a3bbca1f9b6dbb8df9382602097855161054c816106b7565b828152848a8201528387820152606042910152558160055560065542600755825191825285820152a15160018152f35b601185634e487b7160e01b5f525260245ffd5b825162461bcd60e51b8152602081860152600e60248201526d105b1c9958591e481b5a5b9d195960921b6044820152606490fd5b82346100e1575f3660031901126100e15760025490516001600160a01b039091168152602090f35b82346100e1575f3660031901126100e1576102346020925460055490610642565b9150346100e1575f3660031901126100e157546005549082526020820152f35b600435906001600160a01b03821682036100e157565b811561064c570490565b634e487b7160e01b5f52601260045260245ffd5b1561066757565b60405162461bcd60e51b815260206004820152602260248201527f4f6e6c7920726f757465722063616e2063616c6c20746869732066756e63746960448201526137b760f11b6064820152608490fd5b6080810190811067ffffffffffffffff8211176106d357604052565b634e487b7160e01b5f52604160045260245ffd5b90601f8019910116810190811067ffffffffffffffff8211176106d357604052565b1561071057565b60405162461bcd60e51b815260206004820152601f60248201527f5a65726f2061646472657373657320617265206e6f7420616c6c6f7765642e006044820152606490fd5b9190820180921161076257565b634e487b7160e01b5f52601160045260245ffd5b9190820391821161076257565b60405163a9059cbb60e01b60208201526001600160a01b039290921660248301526044808301939093529181526107bf9161037f6064836106e7565b565b908160209103126100e1575180151581036100e15790565b5f806108019260018060a01b03169360208151910182865af16107fa61084a565b9083610889565b805190811515918261082f575b50506108175750565b60249060405190635274afe760e01b82526004820152fd5b61084292506020809183010191016107c1565b155f8061080e565b3d15610884573d9067ffffffffffffffff82116106d35760405191610879601f8201601f1916602001846106e7565b82523d5f602084013e565b606090565b906108b0575080511561089e57805190602001fd5b604051630a12f52160e11b8152600490fd5b815115806108e3575b6108c1575090565b604051639996b31560e01b81526001600160a01b039091166004820152602490fd5b50803b156108b956fea264697066735822122092440abf02e7ff803c3b7ab98cc214a21c92d393dd9b7b9dca715c2032d8f04164736f6c63430008160033","linkReferences":{}},"methodIdentifiers":{"approval(address,address,uint256)":"5c52a5f2","assetBalance()":"c66f2455","balance()":"b69ef8a8","getReserves()":"0902f1ac","kLast()":"7464fc3d","mint(uint256,uint256)":"1b2ef1ca","priceALast()":"5c9d6938","priceBLast()":"0e06dfc9","router()":"f887ea40","swap(uint256,uint256,uint256,uint256)":"5673b02d","tokenA()":"0fc63d10","tokenB()":"5f64b55b","transferAsset(address,uint256)":"5c921eb9","transferTo(address,uint256)":"2ccb1b30"},"id":20}