{"abi":[{"type":"constructor","inputs":[{"name":"router_","type":"address","internalType":"address"},{"name":"token0","type":"address","internalType":"address"},{"name":"token1","type":"address","internalType":"address"}],"stateMutability":"nonpayable"},{"type":"function","name":"approval","inputs":[{"name":"_user","type":"address","internalType":"address"},{"name":"_token","type":"address","internalType":"address"},{"name":"amount","type":"uint256","internalType":"uint256"}],"outputs":[{"name":"","type":"bool","internalType":"bool"}],"stateMutability":"nonpayable"},{"type":"function","name":"assetBalance","inputs":[],"outputs":[{"name":"","type":"uint256","internalType":"uint256"}],"stateMutability":"view"},{"type":"function","name":"balance","inputs":[],"outputs":[{"name":"","type":"uint256","internalType":"uint256"}],"stateMutability":"view"},{"type":"function","name":"getReserves","inputs":[],"outputs":[{"name":"","type":"uint256","internalType":"uint256"},{"name":"","type":"uint256","internalType":"uint256"}],"stateMutability":"view"},{"type":"function","name":"kLast","inputs":[],"outputs":[{"name":"","type":"uint256","internalType":"uint256"}],"stateMutability":"view"},{"type":"function","name":"mint","inputs":[{"name":"reserve0","type":"uint256","internalType":"uint256"},{"name":"reserve1","type":"uint256","internalType":"uint256"}],"outputs":[{"name":"","type":"bool","internalType":"bool"}],"stateMutability":"nonpayable"},{"type":"function","name":"priceALast","inputs":[],"outputs":[{"name":"","type":"uint256","internalType":"uint256"}],"stateMutability":"view"},{"type":"function","name":"priceBLast","inputs":[],"outputs":[{"name":"","type":"uint256","internalType":"uint256"}],"stateMutability":"view"},{"type":"function","name":"router","inputs":[],"outputs":[{"name":"","type":"address","internalType":"address"}],"stateMutability":"view"},{"type":"function","name":"swap","inputs":[{"name":"amount0In","type":"uint256","internalType":"uint256"},{"name":"amount0Out","type":"uint256","internalType":"uint256"},{"name":"amount1In","type":"uint256","internalType":"uint256"},{"name":"amount1Out","type":"uint256","internalType":"uint256"}],"outputs":[{"name":"","type":"bool","internalType":"bool"}],"stateMutability":"nonpayable"},{"type":"function","name":"tokenA","inputs":[],"outputs":[{"name":"","type":"address","internalType":"address"}],"stateMutability":"view"},{"type":"function","name":"tokenB","inputs":[],"outputs":[{"name":"","type":"address","internalType":"address"}],"stateMutability":"view"},{"type":"function","name":"transferAsset","inputs":[{"name":"recipient","type":"address","internalType":"address"},{"name":"amount","type":"uint256","internalType":"uint256"}],"outputs":[],"stateMutability":"nonpayable"},{"type":"function","name":"transferTo","inputs":[{"name":"recipient","type":"address","internalType":"address"},{"name":"amount","type":"uint256","internalType":"uint256"}],"outputs":[],"stateMutability":"nonpayable"},{"type":"event","name":"Mint","inputs":[{"name":"reserve0","type":"uint256","indexed":false,"internalType":"uint256"},{"name":"reserve1","type":"uint256","indexed":false,"internalType":"uint256"}],"anonymous":false},{"type":"event","name":"Swap","inputs":[{"name":"amount0In","type":"uint256","indexed":false,"internalType":"uint256"},{"name":"amount0Out","type":"uint256","indexed":false,"internalType":"uint256"},{"name":"amount1In","type":"uint256","indexed":false,"internalType":"uint256"},{"name":"amount1Out","type":"uint256","indexed":false,"internalType":"uint256"}],"anonymous":false},{"type":"error","name":"AddressEmptyCode","inputs":[{"name":"target","type":"address","internalType":"address"}]},{"type":"error","name":"AddressInsufficientBalance","inputs":[{"name":"account","type":"address","internalType":"address"}]},{"type":"error","name":"FailedInnerCall","inputs":[]},{"type":"error","name":"ReentrancyGuardReentrantCall","inputs":[]},{"type":"error","name":"SafeERC20FailedOperation","inputs":[{"name":"token","type":"address","internalType":"address"}]}],"bytecode":{"object":"0x608060405234801561000f575f80fd5b50604051610d2e380380610d2e83398101604081905261002e9161015d565b60015f556001600160a01b03831661007a5760405162461bcd60e51b815260206004820152601f60248201525f80516020610d0e83398151915260448201526064015b60405180910390fd5b6001600160a01b0382166100bd5760405162461bcd60e51b815260206004820152601f60248201525f80516020610d0e8339815191526044820152606401610071565b6001600160a01b0381166101005760405162461bcd60e51b815260206004820152601f60248201525f80516020610d0e8339815191526044820152606401610071565b600180546001600160a01b039485166001600160a01b03199182161790915560028054938516938216939093179092556003805491909316911617905561019d565b80516001600160a01b0381168114610158575f80fd5b919050565b5f805f6060848603121561016f575f80fd5b61017884610142565b925061018660208501610142565b915061019460408501610142565b90509250925092565b610b64806101aa5f395ff3fe608060405234801561000f575f80fd5b50600436106100e5575f3560e01c80635c921eb9116100885780637464fc3d116100635780637464fc3d146101d6578063b69ef8a8146101de578063c66f2455146101e6578063f887ea40146101ee575f80fd5b80635c921eb9146101a85780635c9d6938146101bb5780635f64b55b146101c3575f80fd5b80631b2ef1ca116100c35780631b2ef1ca1461014a5780632ccb1b301461016d5780635673b02d146101825780635c52a5f214610195575f80fd5b80630902f1ac146100e95780630e06dfc9146101095780630fc63d101461011f575b5f80fd5b600454600554604080519283526020830191909152015b60405180910390f35b610111610201565b604051908152602001610100565b600254610132906001600160a01b031681565b6040516001600160a01b039091168152602001610100565b61015d610158366004610918565b610217565b6040519015158152602001610100565b61018061017b366004610953565b610317565b005b61015d61019036600461097b565b610382565b61015d6101a33660046109aa565b61046e565b6101806101b6366004610953565b610508565b61011161056f565b600354610132906001600160a01b031681565b600654610111565b610111610580565b6101116105eb565b600154610132906001600160a01b031681565b6005546004545f91610212916109f7565b905090565b6001545f906001600160a01b0316331461024c5760405162461bcd60e51b815260040161024390610a16565b60405180910390fd5b6007541561028d5760405162461bcd60e51b815260206004820152600e60248201526d105b1c9958591e481b5a5b9d195960921b6044820152606401610243565b604051806080016040528084815260200183815260200183856102b09190610a58565b81524260209182015281516004558181015160055560408083015160065560609092015160075581518581529081018490527fcc9c58b575eabd3f6a1ee653e91fcea3ff546867ffc3782a3bbca1f9b6dbb8df910160405180910390a15060015b92915050565b6001546001600160a01b031633146103415760405162461bcd60e51b815260040161024390610a16565b6001600160a01b0382166103675760405162461bcd60e51b815260040161024390610a6f565b60025461037e906001600160a01b0316838361061b565b5050565b6001545f906001600160a01b031633146103ae5760405162461bcd60e51b815260040161024390610a16565b5f848660045f01546103c09190610aa6565b6103ca9190610ab9565b90505f83856004600101546103df9190610aa6565b6103e99190610ab9565b60408051608080820183528582526020808301859052600654838501524260609384018190526004889055600586905560075583518c81529081018b90529283018990529082018790529192507f298c349c742327269dc8de6ad66687767310c948ea309df826f5bd103e19d207910160405180910390a15060019695505050505050565b6001545f906001600160a01b0316331461049a5760405162461bcd60e51b815260040161024390610a16565b6001600160a01b0384166104c05760405162461bcd60e51b815260040161024390610a6f565b6001600160a01b0383166104e65760405162461bcd60e51b815260040161024390610a6f565b826104fb6001600160a01b038216868561067f565b60019150505b9392505050565b6001546001600160a01b031633146105325760405162461bcd60e51b815260040161024390610a16565b6001600160a01b0382166105585760405162461bcd60e51b815260040161024390610a6f565b60035461037e906001600160a01b0316838361061b565b6004546005545f91610212916109f7565b6002546040516370a0823160e01b81523060048201525f916001600160a01b0316906370a08231906024015b602060405180830381865afa1580156105c7573d5f803e3d5ffd5b505050506040513d601f19601f820116820180604052508101906102129190610acc565b6003546040516370a0823160e01b81523060048201525f916001600160a01b0316906370a08231906024016105ac565b6040516001600160a01b0383811660248301526044820183905261067a91859182169063a9059cbb906064015b604051602081830303815290604052915060e01b6020820180516001600160e01b038381831617835250505050610714565b505050565b604080516001600160a01b038416602482015260448082018490528251808303909101815260649091019091526020810180516001600160e01b031663095ea7b360e01b1790526106d08482610775565b61070e576040516001600160a01b0384811660248301525f604483015261070491869182169063095ea7b390606401610648565b61070e8482610714565b50505050565b5f6107286001600160a01b03841683610816565b905080515f1415801561074c57508080602001905181019061074a9190610ae3565b155b1561067a57604051635274afe760e01b81526001600160a01b0384166004820152602401610243565b5f805f846001600160a01b0316846040516107909190610b02565b5f604051808303815f865af19150503d805f81146107c9576040519150601f19603f3d011682016040523d82523d5f602084013e6107ce565b606091505b50915091508180156107f85750805115806107f85750808060200190518101906107f89190610ae3565b801561080d57505f856001600160a01b03163b115b95945050505050565b606061050183835f845f80856001600160a01b0316848660405161083a9190610b02565b5f6040518083038185875af1925050503d805f8114610874576040519150601f19603f3d011682016040523d82523d5f602084013e610879565b606091505b5091509150610889868383610893565b9695505050505050565b6060826108a8576108a3826108ef565b610501565b81511580156108bf57506001600160a01b0384163b155b156108e857604051639996b31560e01b81526001600160a01b0385166004820152602401610243565b5080610501565b8051156108ff5780518082602001fd5b604051630a12f52160e11b815260040160405180910390fd5b5f8060408385031215610929575f80fd5b50508035926020909101359150565b80356001600160a01b038116811461094e575f80fd5b919050565b5f8060408385031215610964575f80fd5b61096d83610938565b946020939093013593505050565b5f805f806080858703121561098e575f80fd5b5050823594602084013594506040840135936060013592509050565b5f805f606084860312156109bc575f80fd5b6109c584610938565b92506109d360208501610938565b9150604084013590509250925092565b634e487b7160e01b5f52601160045260245ffd5b5f82610a1157634e487b7160e01b5f52601260045260245ffd5b500490565b60208082526022908201527f4f6e6c7920726f757465722063616e2063616c6c20746869732066756e63746960408201526137b760f11b606082015260800190565b8082028115828204841417610311576103116109e3565b6020808252601f908201527f5a65726f2061646472657373657320617265206e6f7420616c6c6f7765642e00604082015260600190565b80820180821115610311576103116109e3565b81810381811115610311576103116109e3565b5f60208284031215610adc575f80fd5b5051919050565b5f60208284031215610af3575f80fd5b81518015158114610501575f80fd5b5f82515f5b81811015610b215760208186018101518583015201610b07565b505f92019182525091905056fea26469706673582212208d649561ce8f451e0f3a203fb4b65ddff61e65c103159c7f080e535850ad62c364736f6c634300081600335a65726f2061646472657373657320617265206e6f7420616c6c6f7765642e00","linkReferences":{}},"methodIdentifiers":{"approval(address,address,uint256)":"5c52a5f2","assetBalance()":"c66f2455","balance()":"b69ef8a8","getReserves()":"0902f1ac","kLast()":"7464fc3d","mint(uint256,uint256)":"1b2ef1ca","priceALast()":"5c9d6938","priceBLast()":"0e06dfc9","router()":"f887ea40","swap(uint256,uint256,uint256,uint256)":"5673b02d","tokenA()":"0fc63d10","tokenB()":"5f64b55b","transferAsset(address,uint256)":"5c921eb9","transferTo(address,uint256)":"2ccb1b30"},"id":20}