{"abi":[{"type":"function","name":"DEFAULT_ADMIN_ROLE","inputs":[],"outputs":[{"name":"","type":"bytes32","internalType":"bytes32"}],"stateMutability":"view"},{"type":"function","name":"TOKEN_SAVER_ROLE","inputs":[],"outputs":[{"name":"","type":"bytes32","internalType":"bytes32"}],"stateMutability":"view"},{"type":"function","name":"getRoleAdmin","inputs":[{"name":"role","type":"bytes32","internalType":"bytes32"}],"outputs":[{"name":"","type":"bytes32","internalType":"bytes32"}],"stateMutability":"view"},{"type":"function","name":"grantRole","inputs":[{"name":"role","type":"bytes32","internalType":"bytes32"},{"name":"account","type":"address","internalType":"address"}],"outputs":[],"stateMutability":"nonpayable"},{"type":"function","name":"hasRole","inputs":[{"name":"role","type":"bytes32","internalType":"bytes32"},{"name":"account","type":"address","internalType":"address"}],"outputs":[{"name":"","type":"bool","internalType":"bool"}],"stateMutability":"view"},{"type":"function","name":"renounceRole","inputs":[{"name":"role","type":"bytes32","internalType":"bytes32"},{"name":"callerConfirmation","type":"address","internalType":"address"}],"outputs":[],"stateMutability":"nonpayable"},{"type":"function","name":"revokeRole","inputs":[{"name":"role","type":"bytes32","internalType":"bytes32"},{"name":"account","type":"address","internalType":"address"}],"outputs":[],"stateMutability":"nonpayable"},{"type":"function","name":"saveToken","inputs":[{"name":"_token","type":"address","internalType":"address"},{"name":"_receiver","type":"address","internalType":"address"},{"name":"_amount","type":"uint256","internalType":"uint256"}],"outputs":[],"stateMutability":"nonpayable"},{"type":"function","name":"supportsInterface","inputs":[{"name":"interfaceId","type":"bytes4","internalType":"bytes4"}],"outputs":[{"name":"","type":"bool","internalType":"bool"}],"stateMutability":"view"},{"type":"event","name":"RoleAdminChanged","inputs":[{"name":"role","type":"bytes32","indexed":true,"internalType":"bytes32"},{"name":"previousAdminRole","type":"bytes32","indexed":true,"internalType":"bytes32"},{"name":"newAdminRole","type":"bytes32","indexed":true,"internalType":"bytes32"}],"anonymous":false},{"type":"event","name":"RoleGranted","inputs":[{"name":"role","type":"bytes32","indexed":true,"internalType":"bytes32"},{"name":"account","type":"address","indexed":true,"internalType":"address"},{"name":"sender","type":"address","indexed":true,"internalType":"address"}],"anonymous":false},{"type":"event","name":"RoleRevoked","inputs":[{"name":"role","type":"bytes32","indexed":true,"internalType":"bytes32"},{"name":"account","type":"address","indexed":true,"internalType":"address"},{"name":"sender","type":"address","indexed":true,"internalType":"address"}],"anonymous":false},{"type":"event","name":"TokenSaved","inputs":[{"name":"by","type":"address","indexed":true,"internalType":"address"},{"name":"receiver","type":"address","indexed":true,"internalType":"address"},{"name":"token","type":"address","indexed":true,"internalType":"address"},{"name":"amount","type":"uint256","indexed":false,"internalType":"uint256"}],"anonymous":false},{"type":"error","name":"AccessControlBadConfirmation","inputs":[]},{"type":"error","name":"AccessControlUnauthorizedAccount","inputs":[{"name":"account","type":"address","internalType":"address"},{"name":"neededRole","type":"bytes32","internalType":"bytes32"}]},{"type":"error","name":"AddressEmptyCode","inputs":[{"name":"target","type":"address","internalType":"address"}]},{"type":"error","name":"AddressInsufficientBalance","inputs":[{"name":"account","type":"address","internalType":"address"}]},{"type":"error","name":"FailedInnerCall","inputs":[]},{"type":"error","name":"SafeERC20FailedOperation","inputs":[{"name":"token","type":"address","internalType":"address"}]}],"bytecode":{"object":"0x608060405234801561000f575f80fd5b506107c98061001d5f395ff3fe608060405234801561000f575f80fd5b5060043610610090575f3560e01c806376175b061161006357806376175b061461011457806391d148541461013b5780639afdb2c21461014e578063a217fddf14610161578063d547741f14610168575f80fd5b806301ffc9a714610094578063248a9ca3146100bc5780632f2ff15d146100ec57806336568abe14610101575b5f80fd5b6100a76100a236600461068c565b61017b565b60405190151581526020015b60405180910390f35b6100de6100ca3660046106b3565b5f9081526020819052604090206001015490565b6040519081526020016100b3565b6100ff6100fa3660046106e5565b6101b1565b005b6100ff61010f3660046106e5565b6101db565b6100de7fd9d917c4034cff8a8c5fa1e40f9fbaf906b827c33ae3ab1fcabbb616cb8ef24d81565b6100a76101493660046106e5565b610213565b6100ff61015c36600461070f565b61023b565b6100de5f81565b6100ff6101763660046106e5565b610341565b5f6001600160e01b03198216637965db0b60e01b14806101ab57506301ffc9a760e01b6001600160e01b03198316145b92915050565b5f828152602081905260409020600101546101cb81610365565b6101d58383610372565b50505050565b6001600160a01b03811633146102045760405163334bd91960e11b815260040160405180910390fd5b61020e8282610401565b505050565b5f918252602082815260408084206001600160a01b0393909316845291905290205460ff1690565b6102657fd9d917c4034cff8a8c5fa1e40f9fbaf906b827c33ae3ab1fcabbb616cb8ef24d33610213565b6102cb5760405162461bcd60e51b815260206004820152602c60248201527f546f6b656e53617665722e6f6e6c79546f6b656e53617665723a207065726d6960448201526b1cdcda5bdb8819195b9a595960a21b60648201526084015b60405180910390fd5b6102df6001600160a01b038416838361046a565b826001600160a01b0316826001600160a01b03166102fa3390565b6001600160a01b03167f30d87cec6b4c56cede1018725d1e6d9304e2f7ee6d25b004b7e2183f793f26bc8460405161033491815260200190565b60405180910390a4505050565b5f8281526020819052604090206001015461035b81610365565b6101d58383610401565b61036f81336104bc565b50565b5f61037d8383610213565b6103fa575f838152602081815260408083206001600160a01b03861684529091529020805460ff191660011790556103b23390565b6001600160a01b0316826001600160a01b0316847f2f8788117e7eff1d82e926ec794901d17c78024a50270940304540a733656f0d60405160405180910390a45060016101ab565b505f6101ab565b5f61040c8383610213565b156103fa575f838152602081815260408083206001600160a01b0386168085529252808320805460ff1916905551339286917ff6391f5c32d9c69d2a47ea670b442974b53935d1edc7fd64eb21e047a839171b9190a45060016101ab565b604080516001600160a01b038416602482015260448082018490528251808303909101815260649091019091526020810180516001600160e01b031663a9059cbb60e01b17905261020e9084906104f9565b6104c68282610213565b6104f55760405163e2517d3f60e01b81526001600160a01b0382166004820152602481018390526044016102c2565b5050565b5f61050d6001600160a01b0384168361055a565b905080515f1415801561053157508080602001905181019061052f9190610748565b155b1561020e57604051635274afe760e01b81526001600160a01b03841660048201526024016102c2565b606061056783835f61056e565b9392505050565b6060814710156105935760405163cd78605960e01b81523060048201526024016102c2565b5f80856001600160a01b031684866040516105ae9190610767565b5f6040518083038185875af1925050503d805f81146105e8576040519150601f19603f3d011682016040523d82523d5f602084013e6105ed565b606091505b50915091506105fd868383610607565b9695505050505050565b60608261061c5761061782610663565b610567565b815115801561063357506001600160a01b0384163b155b1561065c57604051639996b31560e01b81526001600160a01b03851660048201526024016102c2565b5080610567565b8051156106735780518082602001fd5b604051630a12f52160e11b815260040160405180910390fd5b5f6020828403121561069c575f80fd5b81356001600160e01b031981168114610567575f80fd5b5f602082840312156106c3575f80fd5b5035919050565b80356001600160a01b03811681146106e0575f80fd5b919050565b5f80604083850312156106f6575f80fd5b82359150610706602084016106ca565b90509250929050565b5f805f60608486031215610721575f80fd5b61072a846106ca565b9250610738602085016106ca565b9150604084013590509250925092565b5f60208284031215610758575f80fd5b81518015158114610567575f80fd5b5f82515f5b81811015610786576020818601810151858301520161076c565b505f92019182525091905056fea2646970667358221220b676578ca8a2037bf2cd6fd8e86025af5d905e0faca2ce009b4240ec8db48a1664736f6c63430008160033","linkReferences":{}},"methodIdentifiers":{"DEFAULT_ADMIN_ROLE()":"a217fddf","TOKEN_SAVER_ROLE()":"76175b06","getRoleAdmin(bytes32)":"248a9ca3","grantRole(bytes32,address)":"2f2ff15d","hasRole(bytes32,address)":"91d14854","renounceRole(bytes32,address)":"36568abe","revokeRole(bytes32,address)":"d547741f","saveToken(address,address,uint256)":"9afdb2c2","supportsInterface(bytes4)":"01ffc9a7"},"id":36}