{"abi":[{"type":"constructor","inputs":[],"stateMutability":"nonpayable"},{"type":"function","name":"BONDING_ROLE","inputs":[],"outputs":[{"name":"","type":"bytes32","internalType":"bytes32"}],"stateMutability":"view"},{"type":"function","name":"DEFAULT_ADMIN_ROLE","inputs":[],"outputs":[{"name":"","type":"bytes32","internalType":"bytes32"}],"stateMutability":"view"},{"type":"function","name":"WITHDRAW_ROLE","inputs":[],"outputs":[{"name":"","type":"bytes32","internalType":"bytes32"}],"stateMutability":"view"},{"type":"function","name":"allDAOs","inputs":[{"name":"","type":"uint256","internalType":"uint256"}],"outputs":[{"name":"","type":"address","internalType":"address"}],"stateMutability":"view"},{"type":"function","name":"allTokens","inputs":[{"name":"","type":"uint256","internalType":"uint256"}],"outputs":[{"name":"","type":"address","internalType":"address"}],"stateMutability":"view"},{"type":"function","name":"allTradingTokens","inputs":[{"name":"","type":"uint256","internalType":"uint256"}],"outputs":[{"name":"","type":"address","internalType":"address"}],"stateMutability":"view"},{"type":"function","name":"applicationThreshold","inputs":[],"outputs":[{"name":"","type":"uint256","internalType":"uint256"}],"stateMutability":"view"},{"type":"function","name":"assetToken","inputs":[],"outputs":[{"name":"","type":"address","internalType":"address"}],"stateMutability":"view"},{"type":"function","name":"daoImplementation","inputs":[],"outputs":[{"name":"","type":"address","internalType":"address"}],"stateMutability":"view"},{"type":"function","name":"defaultDelegatee","inputs":[],"outputs":[{"name":"","type":"address","internalType":"address"}],"stateMutability":"view"},{"type":"function","name":"executeApplication","inputs":[{"name":"id","type":"uint256","internalType":"uint256"},{"name":"canStake","type":"bool","internalType":"bool"}],"outputs":[],"stateMutability":"nonpayable"},{"type":"function","name":"executeBondingCurveApplication","inputs":[{"name":"id","type":"uint256","internalType":"uint256"},{"name":"totalSupply","type":"uint256","internalType":"uint256"},{"name":"lpSupply","type":"uint256","internalType":"uint256"},{"name":"vault","type":"address","internalType":"address"}],"outputs":[{"name":"","type":"address","internalType":"address"}],"stateMutability":"nonpayable"},{"type":"function","name":"getApplication","inputs":[{"name":"proposalId","type":"uint256","internalType":"uint256"}],"outputs":[{"name":"","type":"tuple","internalType":"struct AgentFactoryV3.Application","components":[{"name":"name","type":"string","internalType":"string"},{"name":"symbol","type":"string","internalType":"string"},{"name":"tokenURI","type":"string","internalType":"string"},{"name":"status","type":"uint8","internalType":"enum AgentFactoryV3.ApplicationStatus"},{"name":"withdrawableAmount","type":"uint256","internalType":"uint256"},{"name":"proposer","type":"address","internalType":"address"},{"name":"cores","type":"uint8[]","internalType":"uint8[]"},{"name":"proposalEndBlock","type":"uint256","internalType":"uint256"},{"name":"virtualId","type":"uint256","internalType":"uint256"},{"name":"tbaSalt","type":"bytes32","internalType":"bytes32"},{"name":"tbaImplementation","type":"address","internalType":"address"},{"name":"daoVotingPeriod","type":"uint32","internalType":"uint32"},{"name":"daoThreshold","type":"uint256","internalType":"uint256"}]}],"stateMutability":"view"},{"type":"function","name":"getRoleAdmin","inputs":[{"name":"role","type":"bytes32","internalType":"bytes32"}],"outputs":[{"name":"","type":"bytes32","internalType":"bytes32"}],"stateMutability":"view"},{"type":"function","name":"gov","inputs":[],"outputs":[{"name":"","type":"address","internalType":"address"}],"stateMutability":"view"},{"type":"function","name":"grantRole","inputs":[{"name":"role","type":"bytes32","internalType":"bytes32"},{"name":"account","type":"address","internalType":"address"}],"outputs":[],"stateMutability":"nonpayable"},{"type":"function","name":"hasRole","inputs":[{"name":"role","type":"bytes32","internalType":"bytes32"},{"name":"account","type":"address","internalType":"address"}],"outputs":[{"name":"","type":"bool","internalType":"bool"}],"stateMutability":"view"},{"type":"function","name":"initFromBondingCurve","inputs":[{"name":"name","type":"string","internalType":"string"},{"name":"symbol","type":"string","internalType":"string"},{"name":"cores","type":"uint8[]","internalType":"uint8[]"},{"name":"tbaSalt","type":"bytes32","internalType":"bytes32"},{"name":"tbaImplementation","type":"address","internalType":"address"},{"name":"daoVotingPeriod","type":"uint32","internalType":"uint32"},{"name":"daoThreshold","type":"uint256","internalType":"uint256"},{"name":"applicationThreshold_","type":"uint256","internalType":"uint256"},{"name":"creator","type":"address","internalType":"address"}],"outputs":[{"name":"","type":"uint256","internalType":"uint256"}],"stateMutability":"nonpayable"},{"type":"function","name":"initialize","inputs":[{"name":"tokenImplementation_","type":"address","internalType":"address"},{"name":"veTokenImplementation_","type":"address","internalType":"address"},{"name":"daoImplementation_","type":"address","internalType":"address"},{"name":"tbaRegistry_","type":"address","internalType":"address"},{"name":"assetToken_","type":"address","internalType":"address"},{"name":"nft_","type":"address","internalType":"address"},{"name":"applicationThreshold_","type":"uint256","internalType":"uint256"},{"name":"vault_","type":"address","internalType":"address"},{"name":"nextId_","type":"uint256","internalType":"uint256"}],"outputs":[],"stateMutability":"nonpayable"},{"type":"function","name":"maturityDuration","inputs":[],"outputs":[{"name":"","type":"uint256","internalType":"uint256"}],"stateMutability":"view"},{"type":"function","name":"nft","inputs":[],"outputs":[{"name":"","type":"address","internalType":"address"}],"stateMutability":"view"},{"type":"function","name":"pause","inputs":[],"outputs":[],"stateMutability":"nonpayable"},{"type":"function","name":"paused","inputs":[],"outputs":[{"name":"","type":"bool","internalType":"bool"}],"stateMutability":"view"},{"type":"function","name":"proposeAgent","inputs":[{"name":"name","type":"string","internalType":"string"},{"name":"symbol","type":"string","internalType":"string"},{"name":"tokenURI","type":"string","internalType":"string"},{"name":"cores","type":"uint8[]","internalType":"uint8[]"},{"name":"tbaSalt","type":"bytes32","internalType":"bytes32"},{"name":"tbaImplementation","type":"address","internalType":"address"},{"name":"daoVotingPeriod","type":"uint32","internalType":"uint32"},{"name":"daoThreshold","type":"uint256","internalType":"uint256"}],"outputs":[{"name":"","type":"uint256","internalType":"uint256"}],"stateMutability":"nonpayable"},{"type":"function","name":"renounceRole","inputs":[{"name":"role","type":"bytes32","internalType":"bytes32"},{"name":"callerConfirmation","type":"address","internalType":"address"}],"outputs":[],"stateMutability":"nonpayable"},{"type":"function","name":"revokeRole","inputs":[{"name":"role","type":"bytes32","internalType":"bytes32"},{"name":"account","type":"address","internalType":"address"}],"outputs":[],"stateMutability":"nonpayable"},{"type":"function","name":"setApplicationThreshold","inputs":[{"name":"newThreshold","type":"uint256","internalType":"uint256"}],"outputs":[],"stateMutability":"nonpayable"},{"type":"function","name":"setAssetToken","inputs":[{"name":"newToken","type":"address","internalType":"address"}],"outputs":[],"stateMutability":"nonpayable"},{"type":"function","name":"setDefaultDelegatee","inputs":[{"name":"newDelegatee","type":"address","internalType":"address"}],"outputs":[],"stateMutability":"nonpayable"},{"type":"function","name":"setImplementations","inputs":[{"name":"token","type":"address","internalType":"address"},{"name":"veToken","type":"address","internalType":"address"},{"name":"dao","type":"address","internalType":"address"}],"outputs":[],"stateMutability":"nonpayable"},{"type":"function","name":"setMaturityDuration","inputs":[{"name":"newDuration","type":"uint256","internalType":"uint256"}],"outputs":[],"stateMutability":"nonpayable"},{"type":"function","name":"setTokenAdmin","inputs":[{"name":"newTokenAdmin","type":"address","internalType":"address"}],"outputs":[],"stateMutability":"nonpayable"},{"type":"function","name":"setTokenSupplyParams","inputs":[{"name":"maxSupply","type":"uint256","internalType":"uint256"},{"name":"lpSupply","type":"uint256","internalType":"uint256"},{"name":"vaultSupply","type":"uint256","internalType":"uint256"},{"name":"maxTokensPerWallet","type":"uint256","internalType":"uint256"},{"name":"maxTokensPerTxn","type":"uint256","internalType":"uint256"},{"name":"botProtectionDurationInSeconds","type":"uint256","internalType":"uint256"},{"name":"vault","type":"address","internalType":"address"}],"outputs":[],"stateMutability":"nonpayable"},{"type":"function","name":"setTokenTaxParams","inputs":[{"name":"projectBuyTaxBasisPoints","type":"uint256","internalType":"uint256"},{"name":"projectSellTaxBasisPoints","type":"uint256","internalType":"uint256"},{"name":"taxSwapThresholdBasisPoints","type":"uint256","internalType":"uint256"},{"name":"projectTaxRecipient","type":"address","internalType":"address"}],"outputs":[],"stateMutability":"nonpayable"},{"type":"function","name":"setUniswapRouter","inputs":[{"name":"router","type":"address","internalType":"address"}],"outputs":[],"stateMutability":"nonpayable"},{"type":"function","name":"setVault","inputs":[{"name":"newVault","type":"address","internalType":"address"}],"outputs":[],"stateMutability":"nonpayable"},{"type":"function","name":"supportsInterface","inputs":[{"name":"interfaceId","type":"bytes4","internalType":"bytes4"}],"outputs":[{"name":"","type":"bool","internalType":"bool"}],"stateMutability":"view"},{"type":"function","name":"tbaRegistry","inputs":[],"outputs":[{"name":"","type":"address","internalType":"address"}],"stateMutability":"view"},{"type":"function","name":"tokenImplementation","inputs":[],"outputs":[{"name":"","type":"address","internalType":"address"}],"stateMutability":"view"},{"type":"function","name":"totalAgents","inputs":[],"outputs":[{"name":"","type":"uint256","internalType":"uint256"}],"stateMutability":"view"},{"type":"function","name":"unpause","inputs":[],"outputs":[],"stateMutability":"nonpayable"},{"type":"function","name":"veTokenImplementation","inputs":[],"outputs":[{"name":"","type":"address","internalType":"address"}],"stateMutability":"view"},{"type":"function","name":"withdraw","inputs":[{"name":"id","type":"uint256","internalType":"uint256"}],"outputs":[],"stateMutability":"nonpayable"},{"type":"event","name":"ApplicationThresholdUpdated","inputs":[{"name":"newThreshold","type":"uint256","indexed":false,"internalType":"uint256"}],"anonymous":false},{"type":"event","name":"GovUpdated","inputs":[{"name":"newGov","type":"address","indexed":false,"internalType":"address"}],"anonymous":false},{"type":"event","name":"ImplContractsUpdated","inputs":[{"name":"token","type":"address","indexed":false,"internalType":"address"},{"name":"dao","type":"address","indexed":false,"internalType":"address"}],"anonymous":false},{"type":"event","name":"Initialized","inputs":[{"name":"version","type":"uint64","indexed":false,"internalType":"uint64"}],"anonymous":false},{"type":"event","name":"NewApplication","inputs":[{"name":"id","type":"uint256","indexed":false,"internalType":"uint256"}],"anonymous":false},{"type":"event","name":"NewPersona","inputs":[{"name":"virtualId","type":"uint256","indexed":false,"internalType":"uint256"},{"name":"token","type":"address","indexed":false,"internalType":"address"},{"name":"dao","type":"address","indexed":false,"internalType":"address"},{"name":"tba","type":"address","indexed":false,"internalType":"address"},{"name":"veToken","type":"address","indexed":false,"internalType":"address"},{"name":"lp","type":"address","indexed":false,"internalType":"address"}],"anonymous":false},{"type":"event","name":"Paused","inputs":[{"name":"account","type":"address","indexed":false,"internalType":"address"}],"anonymous":false},{"type":"event","name":"RoleAdminChanged","inputs":[{"name":"role","type":"bytes32","indexed":true,"internalType":"bytes32"},{"name":"previousAdminRole","type":"bytes32","indexed":true,"internalType":"bytes32"},{"name":"newAdminRole","type":"bytes32","indexed":true,"internalType":"bytes32"}],"anonymous":false},{"type":"event","name":"RoleGranted","inputs":[{"name":"role","type":"bytes32","indexed":true,"internalType":"bytes32"},{"name":"account","type":"address","indexed":true,"internalType":"address"},{"name":"sender","type":"address","indexed":true,"internalType":"address"}],"anonymous":false},{"type":"event","name":"RoleRevoked","inputs":[{"name":"role","type":"bytes32","indexed":true,"internalType":"bytes32"},{"name":"account","type":"address","indexed":true,"internalType":"address"},{"name":"sender","type":"address","indexed":true,"internalType":"address"}],"anonymous":false},{"type":"event","name":"Unpaused","inputs":[{"name":"account","type":"address","indexed":false,"internalType":"address"}],"anonymous":false},{"type":"error","name":"AccessControlBadConfirmation","inputs":[]},{"type":"error","name":"AccessControlUnauthorizedAccount","inputs":[{"name":"account","type":"address","internalType":"address"},{"name":"neededRole","type":"bytes32","internalType":"bytes32"}]},{"type":"error","name":"AddressEmptyCode","inputs":[{"name":"target","type":"address","internalType":"address"}]},{"type":"error","name":"AddressInsufficientBalance","inputs":[{"name":"account","type":"address","internalType":"address"}]},{"type":"error","name":"ERC1167FailedCreateClone","inputs":[]},{"type":"error","name":"EnforcedPause","inputs":[]},{"type":"error","name":"ExpectedPause","inputs":[]},{"type":"error","name":"FailedInnerCall","inputs":[]},{"type":"error","name":"InvalidInitialization","inputs":[]},{"type":"error","name":"NotInitializing","inputs":[]},{"type":"error","name":"SafeERC20FailedOperation","inputs":[{"name":"token","type":"address","internalType":"address"}]}],"bytecode":{"object":"0x60808060405234620000bd577ff0c57e16840df040f15088dc2f81fe391c3923bec73e23a9662efc9c229c6a009081549060ff8260401c16620000ae57506001600160401b036002600160401b03198282160162000068575b604051615aef9081620000c28239f35b6001600160401b031990911681179091556040519081527fc7f505b2f371ae2175ee4913f4499e1f2633a7b5936321eed1cdaeb6115181d290602090a15f808062000058565b63f92ee8a960e01b8152600490fd5b5f80fdfe6080806040526004361015610012575f80fd5b5f3560e01c90816301ffc9a714614d7257508063063513b714614d555780630c4cb55c14614d2d5780630f07646a14614b3b5780631083f76114614b1357806312d43a5114614aeb5780631f2f4bfd146142d057806323c3159614612be6578063248a9ca314612bba57806326bde5aa14612b775780632a7d4a1f146129da5780632e1a7d4d146128a05780632f2ff15d146128645780632f3a3d5d1461283c5780633094afb31461280257806336568abe146127bb5780633f4ba83a146127465780633fa2da7e14612091578063468d198d1461206957806347ccca02146120415780635c975abb146120135780635ca3cedf14611e8d578063634282af14611e335780636817031b14611df05780638456cb5914611d8b57806391d1485414611d435780639300d23814611cd95780639cbe0bac14611cb15780639d69932614611c895780639d7b684214611c465780639e4ec30a1461156a578063a217fddf14611550578063aa3d000a14610452578063b4136bd8146103f8578063bd1cf258146103ac578063bea9849e14610369578063c50537121461034c578063d547741f1461030e578063d739ac29146102ed578063ddf44275146102d0578063e02023a114610296578063e887b1cc1461023c5763f7457594146101f5575f80fd5b346102385760203660031901126102385761020e614dc5565b610216615579565b601280546001600160a01b0319166001600160a01b0392909216919091179055005b5f80fd5b3461023857602036600319011261023857600435600e5481101561023857600e5f527fbb7b4a454dc3493923482f07822329ed19e8244eff582cc204f8554c3620c3fd01546040516001600160a01b039091168152602090f35b34610238575f3660031901126102385760206040517f5d8e12c39142ff96d79d04d15d1ba1269e4fe57bb9d26f43523628b34ba108ec8152f35b34610238575f366003190112610238576020600654604051908152f35b3461023857602036600319011261023857610306615579565b600435600a55005b346102385760403660031901126102385761034a60043561032d614ddb565b90805f525f602052610345600160405f2001546155cf565b6156d6565b005b34610238575f366003190112610238576020600754604051908152f35b3461023857602036600319011261023857610382614dc5565b61038a615579565b600f80546001600160a01b0319166001600160a01b0392909216919091179055005b34610238576020366003190112610238577fcfa33021ab0175831433b2f3bd8eeb24a22f5ae53ca0e660a246811754f9e34a60206004356103eb615579565b80600655604051908152a1005b34610238576020366003190112610238576004356008548110156102385760085f527ff3f7a9fe364faab93b216da50a3214154f22a0a2b415b23a84c8169e8b636ee301546040516001600160a01b039091168152602090f35b3461023857604036600319011261023857602435600435811515820361023857600d549161048660ff8460a01c16156151a9565b600160a01b60ff60a01b1993841617600d555f828152600b60205260409020600501546001600160a01b031633148015611519575b6104c49061524a565b604051905f82601454916104d783615023565b80835292600181169081156114fa575060011461149b575b6104fb92500383614f20565b5f92805f52600b60205260ff600360405f200154166003811015611487576105239015615285565b6012546001600160a01b03161561144c575f52600b60205260405f2060048101925f8454945560038201600160ff19825416179055604051906105718261056a818661510c565b0383614f20565b604051906105868261056a816001880161510c565b6002546105f490610614906105a3906001600160a01b03166159d0565b94610606604051956105b487614ebb565b6012546001600160a01b039081168852600f5481166020808a01919091526009549091166040808a01919091528051918201529485936060850190614e33565b838103601f1901604085015290614e33565b03601f198101835282614f20565b6001600160a01b0384163b1561023857604051634258efa960e11b8152928391905f600484015b60038210611429575050506106876106765f94610664859460c0606487015260c4860190614e33565b84810360031901608486015290614e33565b8281036003190160a484015261505b565b0381836001600160a01b0387165af1801561141e5761140b575b506106ab816157fa565b60405163d6efd7c360e01b815285816004816001600160a01b0386165afa90811561130457869161134f575b5080511561133b57602001516009546001600160a01b0391821695610700929091849116615687565b6001600160a01b0381163b1561130057604051631672aef960e21b81523060048201528581602481836001600160a01b0387165af1801561130457908691611327575b505060405166029ba30b5b2b2160cd1b60208201526107698161060660278201866155f0565b60405190607360f81b60208301526107998261078b60218201600188016155f0565b03601f198101845283614f20565b60058401546010546001600160a01b03918216916107b791166159d0565b95600a544201804211611313576004546001600160a01b03908116919089163b1561130f579161080b93918b959361081d604051988997889763b2193b4d60e01b895260e060048a015260e4890190614e33565b87810360031901602489015290614e33565b6044860194909452606485018c9052608485015260a4840152151560c48301520381836001600160a01b0389165af18015611304579086916112ec575b505061086583615871565b6040519061089560048361087c60208201876155f0565b632044414f60e01b815203601b19810185520183614f20565b63ffffffff600a84015460a01c1691600b840154906108bd60018060a01b03600354166159d0565b60045490946001600160a01b039182169186163b156112e85791610900918a936040519586948594631c63df3560e21b865260a0600487015260a4860190614e33565b9260018060a01b038c16602486015260448501526064840152608483015203818360018060a01b0388165af180156112dd579087916112c5575b5050610945826158d4565b60018060a01b03600454169560405196632fd77c0d60e11b8852602088600481845afa978815610d41578298611291575b50600d546005860154604051631f889aa560e11b8152600481018b90526001600160a01b03928316602482015261010060448201529291169082906109c2610104830160028a0161510c565b6001600160a01b038816606484015260848301939093528183036003190160a48301526006880180548085529086526020808720940193869182915b81601f8401106110f25795859392849260209854918181106110e0575b8181106110ca575b8181106110b4575b81811061109e575b81811061108a575b818110611074575b81811061105e575b818110611048575b818110611032575b81811061101c575b818110611006575b818110610ff0575b818110610fda575b818110610fc4575b818110610fae575b818110610f98575b818110610f82575b818110610f6c575b818110610f56575b818110610f40575b818110610f2a575b818110610f14575b818110610efe575b818110610ee8575b818110610ed2575b818110610ebc575b818110610ea6575b818110610e90575b818110610e7a575b818110610e64575b818110610e4e575b10610e41575b5060c482018e90526001600160a01b038a1660e483015203925af18015610d4157610e16575b5060088401879055600554600a850154600986015460048054604051638a54c52f60e01b81526001600160a01b039485169281019290925260248201929092524660448201529082166064820152608481018a90529591602091879160a49183918791165af1948515610d41578295610dda575b506004546001600160a01b0316803b15610dd65760405163190b373360e31b8152600481018a90526001600160a01b03871660248201529083908290604490829084905af18015610d8457908391610dbe575b505060405163095ea7b360e01b81526001600160a01b03871660048201525f196024820152602081604481868c5af18015610d8457610d8f575b506040516370a0823160e01b8152306004820152906020826024818b5afa918215610d84578392610d50575b50600501546013546001600160a01b039081169181169088163b15610d4c5760405163a7d545db60e01b81526004810193909352602483015260448201528181606481836001600160a01b038b165af18015610d4157610d2a575b604080518981526001600160a01b038086166020830152808716928201929092528187166060820152908716608082015260a0810188905289907ff9d151d23a5253296eb20ab40959cf48828ea2732d337416716e302ed83ca6589060c090a1600d5416600d555f80f35b610d348291614ed6565b610d3e5780610cbf565b80fd5b6040513d84823e3d90fd5b8380fd5b9091506020813d602011610d7c575b81610d6c60209383614f20565b810103126102385751908a610c64565b3d9150610d5f565b6040513d85823e3d90fd5b610db09060203d602011610db7575b610da88183614f20565b81019061566f565b5089610c38565b503d610d9e565b610dc790614ed6565b610dd257818a610bfe565b5080fd5b8280fd5b9094506020813d602011610e0e575b81610df660209383614f20565b81010312610dd257610e07906151e6565b9389610bab565b3d9150610de9565b602090813d8311610e3a575b610e2c8183614f20565b810103126102385788610b37565b503d610e22565b60f81c815286015f610b11565b928960019160ff8560f01c168152019301610b0b565b928960019160ff8560e81c168152019301610b03565b928960019160ff8560e01c168152019301610afb565b928960019160ff8560d81c168152019301610af3565b928960019160ff8560d01c168152019301610aeb565b928960019160ff8560c81c168152019301610ae3565b928960019160ff8560c01c168152019301610adb565b928960019160ff8560b81c168152019301610ad3565b928960019160ff8560b01c168152019301610acb565b928960019160ff8560a81c168152019301610ac3565b928960019160ff8560a01c168152019301610abb565b928960019160ff8560981c168152019301610ab3565b928960019160ff8560901c168152019301610aab565b928960019160ff8560881c168152019301610aa3565b928960019160ff8560801c168152019301610a9b565b928960019160ff8560781c168152019301610a93565b928960019160ff8560701c168152019301610a8b565b928960019160ff8560681c168152019301610a83565b928960019160ff8560601c168152019301610a7b565b928960019160ff8560581c168152019301610a73565b928960019160ff8560501c168152019301610a6b565b928960019160ff8560481c168152019301610a63565b928960019160ff8560401c168152019301610a5b565b928960019160ff8560381c168152019301610a53565b928960019160ff8560301c168152019301610a4b565b928960019160ff8560281c168152019301610a43565b828a1c60ff16845292890192600101610a3b565b928960019160ff8560181c168152019301610a33565b928960019160ff8560101c168152019301610a2b565b928960019160ff8560081c168152019301610a23565b60ff8316845292890192600101610a1b565b9450915091936001610400602092865460ff8116825260ff8160081c168583015260ff8160101c16604083015260ff8160181c16606083015260ff8160808282891c1681860152828260281c1660a0860152828260301c1660c0860152828260381c1660e0860152828260401c16610100860152828260481c16610120860152828260501c16610140860152828260581c16610160860152828260601c16610180860152828260681c166101a0860152828260701c166101c0860152828260781c166101e08601521c1661020083015260ff8160881c1661022083015260ff8160901c1661024083015260ff8160981c1661026083015260ff8160a01c1661028083015260ff8160a81c166102a083015260ff8160b01c166102c083015260ff8160b81c166102e083015260ff8160c01c1661030083015260ff8160c81c1661032083015260ff8160d01c1661034083015260ff8160d81c1661036083015260ff8160e01c1661038083015260ff8160e81c166103a083015260ff8160f01c166103c083015260f81c6103e082015201940192018691869495936109fe565b9097506020813d6020116112bd575b816112ad60209383614f20565b8101031261023857519689610976565b3d91506112a0565b6112ce90614ed6565b6112d957858861093a565b8580fd5b6040513d89823e3d90fd5b8980fd5b6112f590614ed6565b61130057848761085a565b8480fd5b6040513d88823e3d90fd5b8a80fd5b634e487b7160e01b8a52601160045260248afd5b61133090614ed6565b611300578487610743565b634e487b7160e01b86526032600452602486fd5b3d91508187823e6113608282614f20565b6020818381010312611407578051916001600160401b03831161140357808201601f84840101121561140357828201519161139a83614fa2565b936113a86040519586614f20565b8385526020850192820160208560051b8385010101116112e8579190602083820101925b60208560051b828401010184106113e8575050505050876106d7565b60208080946113f6876151e6565b81520194019392506113cc565b8780fd5b8680fd5b611416919550614ed6565b5f93866106a1565b6040513d5f823e3d90fd5b82516001600160a01b03168152869450602092830192600192909201910161063b565b60405162461bcd60e51b8152602060048201526013602482015272151bdad95b8818591b5a5b881b9bdd081cd95d606a1b6044820152606490fd5b634e487b7160e01b5f52602160045260245ffd5b509060145f527fce6d7b5282bd9a3661ae061feed1dbda4e52ab073b1f9285be6e155d9c38d4ec905f915b8183106114de5750509060206104fb928201016104ef565b60209193508060019154838589010152019101909184926114c6565b602092506104fb94915060ff191682840152151560051b8201016104ef565b50335f9081527f20be27040b8e00df40bca0df34743417f3574a156386188f7d7f14369e5ee82b602052604090205460ff166104bb565b34610238575f3660031901126102385760206040515f8152f35b3461023857610100366003190112610238576004356001600160401b0381116102385761159b903690600401614f5c565b6024356001600160401b038111610238576115ba903690600401614f5c565b6044356001600160401b038111610238576115d9903690600401614f5c565b906064356001600160401b038111610238576115f9903690600401614fb9565b611601614e1d565b60c4359163ffffffff831683036102385761161a615748565b6009546040516370a0823160e01b81523360048201526001600160a01b039091169490602081602481895afa90811561141e575f91611c14575b50611664600654809210156152e9565b604051636eb1769f60e11b81523360048201523060248201526020816044818a5afa90811561141e575f91611bdc575b509063ffffffff966116ab826116c0941015615335565b6116b78551151561538c565b30903390615772565b600154956116cd876153d1565b60015560065491604051986116e18a614e9f565b8952602089015260408801525f606088015260808701523360a087015260c08601524360e08601525f61010086015260843561012086015260018060a01b03166101408501521661016083015260e435610180830152805f52600b60205260405f2082519283516001600160401b038111611a825761176a816117648554615023565b85615210565b6020601f8211600114611b7757819061179b939495965f92611a96575b50508160011b915f199060031b1c19161790565b82555b60208101519283516001600160401b038111611a82576117ce816117c56001870154615023565b60018701615210565b6020601f8211600114611b0c5781906117fe939495965f92611a965750508160011b915f199060031b1c19161790565b60018401555b60408201519283516001600160401b038111611a82576118348161182b6002850154615023565b60028501615210565b6020601f8211600114611aa1578190611864939495965f92611a965750508160011b915f199060031b1c19161790565b60028201555b606083015160038110156114875761188590600383016152d1565b608083015160048201556005810160018060a01b0360a0850151166001600160601b0360a01b825416179055600681019260c08101518051906001600160401b038211611a8257600160401b8211611a82576020908654838855808410611a39575b5001945f5260205f20905f5b8160051c81106119fa5750601f1981168082036119a3575b60208686600b6101808860e0810151600785015561010081015160088501556101208101516009850155600a840160018060a01b036101408301511681549063ffffffff60a01b61016085015160a01b16916001600160401b0360c01b161717905501519101557f0ff47c4a3dc48719ecfd1876116e80d7d76ec7cb67248ae49449f9104747af2982604051838152a1604051908152f35b955f965f5b81840381106119ca5750505060051c0193909355602092610180600b8661190b565b90919760206119f06001928460ff8d5116919060ff809160031b9316831b921b19161790565b99019291016119a8565b5f805b60208110611a125750838201556001016118f3565b885190989160019160209160ff60038d901b81811b199092169216901b17920198016119fd565b611a6390885f52835f20601f80870160051c82019281881680611a69575b500160051c01906151fa565b876118e7565b5f1990818601918254918a0360031b1c1690558c611a57565b634e487b7160e01b5f52604160045260245ffd5b015190508680611787565b600283015f5260205f20905f5b601f1984168110611af4575060019394959683601f19811610611adc575b505050811b01600282015561186a565b01515f1960f88460031b161c19169055858080611acc565b9091602060018192858b015181550193019101611aae565b600185015f5260205f20905f5b601f1984168110611b5f575060019394959683601f19811610611b47575b505050811b016001840155611804565b01515f1960f88460031b161c19169055858080611b37565b9091602060018192858b015181550193019101611b19565b835f5260205f20905f5b601f1984168110611bc4575060019394959683601f19811610611bac575b505050811b01825561179e565b01515f1960f88460031b161c19169055858080611b9f565b9091602060018192858b015181550193019101611b81565b9190506020823d602011611c0c575b81611bf860209383614f20565b8101031261023857905163ffffffff611694565b3d9150611beb565b90506020813d602011611c3e575b81611c2f60209383614f20565b81010312610238575188611654565b3d9150611c22565b3461023857602036600319011261023857611c5f614dc5565b611c67615579565b601380546001600160a01b0319166001600160a01b0392909216919091179055005b34610238575f366003190112610238576003546040516001600160a01b039091168152602090f35b34610238575f366003190112610238576010546040516001600160a01b039091168152602090f35b3461023857606036600319011261023857611cf2614dc5565b611cfa614ddb565b611d02614df1565b90611d0b615579565b60018060a01b038092816001600160601b0360a01b951685600254161760025516836003541617600355169060105416176010555f80f35b3461023857604036600319011261023857611d5c614ddb565b6004355f525f60205260405f209060018060a01b03165f52602052602060ff60405f2054166040519015158152f35b34610238575f36600319011261023857611da3615579565b611dab615748565b5f80516020615a9a833981519152600160ff198254161790557f62e78cea01bee320cd4e420270b5ea74000d11b0c9f74754ebdbfc544b05a2586020604051338152a1005b3461023857602036600319011261023857611e09614dc5565b611e11615579565b600d80546001600160a01b0319166001600160a01b0392909216919091179055005b34610238576020366003190112610238576004356007548110156102385760075f527fa66cc928b5edb82af9bd49922954155ab7b0942694bea4ce44661d9a8736c68801546040516001600160a01b039091168152602090f35b3461023857611e9b36614e71565b90611ea7939293615579565b6040519360209360208601526040850152606084015260018060a01b0316608083015260808252611ed782614f05565b8151906001600160401b038211611a8257611ef3601554615023565b601f8111611fba575b50602090601f8311600114611f3c57508190611f2c935f92611f315750508160011b915f199060031b1c19161790565b601555005b015190508380611787565b90601f1983169360155f527f55f448fdea98c4d29eb340757ef0a66cd03dbb9538908a6a81d96026b71ec475925f905b868210611fa25750508360019510611f8a575b505050811b01601555005b01515f1960f88460031b161c19169055828080611f7f565b80600185968294968601518155019501930190611f6c565b6120039060155f527f55f448fdea98c4d29eb340757ef0a66cd03dbb9538908a6a81d96026b71ec475601f850160051c81019160208610612009575b601f0160051c01906151fa565b83611efc565b9091508190611ff6565b34610238575f36600319011261023857602060ff5f80516020615a9a83398151915254166040519015158152f35b34610238575f366003190112610238576004546040516001600160a01b039091168152602090f35b34610238575f366003190112610238576005546040516001600160a01b039091168152602090f35b3461023857610120366003190112610238576004356001600160401b038111610238576120c2903690600401614f5c565b6024356001600160401b038111610238576120e1903690600401614f5c565b6044356001600160401b03811161023857612100903690600401614fb9565b612108614e07565b60a4359063ffffffff821682036102385761010435926001600160a01b038416840361023857612136615748565b61213e615500565b6009546040516370a0823160e01b81523360048201526001600160a01b0390911690602081602481855afa801561141e575f90612712575b612185915060e43511156152e9565b604051636eb1769f60e11b815233600482015230602482015290602082604481845afa91821561141e575f926126dc575b506121c86121e19260e4351115615335565b6121d48351151561538c565b60e4359030903390615772565b600154946121ee866153d1565b600155604051966121fe88614e9f565b87526020870152604051938460208101106001600160401b03602087011117611a825784602063ffffffff96016040525f815260408801525f606088015260e435608088015260018060a01b031660a087015260c08601524360e08601525f61010086015260643561012086015260018060a01b03166101408501521661016083015260c435610180830152805f52600b60205260405f2082519283516001600160401b038111611a82576122b7816117648554615023565b6020601f82116001146126775781906122e7939495965f92611a965750508160011b915f199060031b1c19161790565b82555b60208101519283516001600160401b038111611a8257612311816117c56001870154615023565b6020601f821160011461260c578190612341939495965f92611a965750508160011b915f199060031b1c19161790565b60018401555b60408201519283516001600160401b038111611a825761236e8161182b6002850154615023565b6020601f82116001146125a157819061239e939495965f92611a965750508160011b915f199060031b1c19161790565b60028201555b60608301516003811015611487576123bf90600383016152d1565b608083015160048201556005810160018060a01b0360a0850151166001600160601b0360a01b825416179055600681019260c08101518051906001600160401b038211611a8257600160401b8211611a82576020908654838855808410612572575b5001945f5260205f20905f5b8160051c81106125335750601f1981168082036124dc5760208686600b6101808860e0810151600785015561010081015160088501556101208101516009850155600a840160018060a01b036101408301511681549063ffffffff60a01b61016085015160a01b16916001600160401b0360c01b161717905501519101557f0ff47c4a3dc48719ecfd1876116e80d7d76ec7cb67248ae49449f9104747af2982604051838152a1604051908152f35b955f965f5b81840381106125035750505060051c0193909355602092610180600b8661190b565b90919760206125296001928460ff8d5116919060ff809160031b9316831b921b19161790565b99019291016124e1565b5f805b6020811061254b57508382015560010161242d565b885190989160019160209160ff60038d901b81811b199092169216901b1792019801612536565b61259b90885f52835f20601f80870160051c82019281881680611a6957500160051c01906151fa565b87612421565b600283015f5260205f20905f5b601f19841681106125f4575060019394959683601f198116106125dc575b505050811b0160028201556123a4565b01515f1960f88460031b161c191690558580806125cc565b9091602060018192858b0151815501930191016125ae565b600185015f5260205f20905f5b601f198416811061265f575060019394959683601f19811610612647575b505050811b016001840155612347565b01515f1960f88460031b161c19169055858080612637565b9091602060018192858b015181550193019101612619565b835f5260205f20905f5b601f19841681106126c4575060019394959683601f198116106126ac575b505050811b0182556122ea565b01515f1960f88460031b161c1916905585808061269f565b9091602060018192858b015181550193019101612681565b91506020823d60201161270a575b816126f760209383614f20565b81010312610238579051906121c86121b6565b3d91506126ea565b506020813d60201161273e575b8161272c60209383614f20565b81010312610238576121859051612176565b3d915061271f565b34610238575f3660031901126102385761275e615579565b5f80516020615a9a833981519152805460ff8116156127a95760ff191690557f5db9ee0a495bf2e6ff9c91a7834c1ba4fdd244a5e8aa4e537bd38aeae4b073aa6020604051338152a1005b604051638dfc202b60e01b8152600490fd5b34610238576040366003190112610238576127d4614ddb565b336001600160a01b038216036127f05761034a906004356156d6565b60405163334bd91960e11b8152600490fd5b34610238575f3660031901126102385760206040517f360f1ba4dc07a42c6671063d838f69946ccc4187f391399e06fd8ed4605900f38152f35b34610238575f366003190112610238576002546040516001600160a01b039091168152602090f35b346102385760403660031901126102385761034a600435612883614ddb565b90805f525f60205261289b600160405f2001546155cf565b615484565b3461023857602036600319011261023857600d546128c460ff8260a01c16156151a9565b60ff60a01b19908116600160a01b17600d556004355f908152600b6020526040902060058101546001600160a01b0390811633811480156129a3575b6129099061524a565b600383019182549260ff84166003811015611487576129289015615285565b600785015443111561295e57600260046129539601945f8654965560ff191617905560095416615687565b600d5416600d555f80f35b60405162461bcd60e51b815260206004820152601e60248201527f4170706c69636174696f6e206973206e6f74206d6174757265642079657400006044820152606490fd5b50335f9081527f20be27040b8e00df40bca0df34743417f3574a156386188f7d7f14369e5ee82b602052604090205460ff16612900565b346102385760e03660031901126102385760c4356001600160a01b0381169081900361023857612a08615579565b60405190602090600435602084015260243560408401526044356060840152606435608084015260843560a084015260a43560c084015260e083015260e08252612a5182614ee9565b8151906001600160401b038211611a8257612a6d601454615023565b601f8111612b29575b50602090601f8311600114612aab57508190612aa6935f92611f315750508160011b915f199060031b1c19161790565b601455005b90601f1983169360145f527fce6d7b5282bd9a3661ae061feed1dbda4e52ab073b1f9285be6e155d9c38d4ec925f905b868210612b115750508360019510612af9575b505050811b01601455005b01515f1960f88460031b161c19169055828080612aee565b80600185968294968601518155019501930190612adb565b612b719060145f527fce6d7b5282bd9a3661ae061feed1dbda4e52ab073b1f9285be6e155d9c38d4ec601f850160051c8101916020861061200957601f0160051c01906151fa565b83612a76565b3461023857602036600319011261023857612b90614dc5565b612b98615579565b600980546001600160a01b0319166001600160a01b0392909216919091179055005b34610238576020366003190112610238576004355f525f6020526020600160405f200154604051908152f35b3461023857612bf436614e71565b9091612bfe615500565b600d54612c1160ff8260a01c16156151a9565b60ff60a01b1916600160a01b17600d558281038181116142bc57604051938260208601526040850152606084015280608084015260a08301525f60c083015260018060a01b031660e082015260e08152612c6a81614ee9565b5f90825f52600b60205260ff600360405f20015416600381101561148757612c929015615285565b6012546001600160a01b03161561144c57825f52600b60205260405f209060048201915f8354935560038101600160ff1982541617905560405191612ce283612cdb818561510c565b0384614f20565b60405190612cf78261056a816001870161510c565b6002546105f490612d2590612d14906001600160a01b03166159d0565b95610606604051956105b487614ebb565b6001600160a01b0385163b1561023857604051634258efa960e11b8152928391905f600484015b6003821061429957505050612d756106765f94610664859460c0606487015260c4860190614e33565b0381836001600160a01b0388165af1801561141e57614286575b50612d99826157fa565b60405163d6efd7c360e01b815284816004816001600160a01b0387165afa9081156141af5785916141ce575b508051156141ba57602001516009546001600160a01b0391821694612dee929091859116615687565b6001600160a01b0382163b15610d4c57604051631672aef960e21b81523060048201528481602481836001600160a01b0388165af180156141af5790859161419b575b50506040519166029ba30b5b2b2160cd1b6020840152612e6683612e5860278201856155f0565b03601f198101855284614f20565b604051607360f81b6020820152612e878161060660218201600187016155f0565b60058301546010546001600160a01b039182169591612ea691166159d0565b94600a544201804211614187576004546001600160a01b03908116919088163b156112e85791899391612ef993612f0b604051978896879663b2193b4d60e01b885260e0600489015260e4880190614e33565b86810360031901602488015290614e33565b6044850193909352606484018b9052608484015260a4830152600160c48301520381836001600160a01b0389165af1801561130457908691614173575b5050612f5383615871565b60405190612f6a60048361087c60208201876155f0565b63ffffffff600a84015460a01c1691600b84015490612f9260018060a01b03600354166159d0565b60045490946001600160a01b039182169186163b156112e85791612fd5918a936040519586948594631c63df3560e21b865260a0600487015260a4860190614e33565b9260018060a01b038c16602486015260448501526064840152608483015203818360018060a01b0388165af180156112dd5790879161415f575b505061301a826158d4565b60018060a01b03600454169560405196632fd77c0d60e11b8852602088600481845afa978815610d4157829861412b575b50600d546005860154604051631f889aa560e11b8152600481018b90526001600160a01b0392831660248201526101006044820152929116908290613097610104830160028a0161510c565b6001600160a01b038816606484015260848301939093528183036003190160a48301526006880180548085529086526020808720940193869182915b81601f840110613f7f579585939284926020985491818110613f6d575b818110613f57575b818110613f41575b818110613f2b575b818110613f17575b818110613f01575b818110613eeb575b818110613ed5575b818110613ebf575b818110613ea9575b818110613e93575b818110613e7d575b818110613e67575b818110613e51575b818110613e3b575b818110613e25575b818110613e0f575b818110613df9575b818110613de3575b818110613dcd575b818110613db7575b818110613da1575b818110613d8b575b818110613d75575b818110613d5f575b818110613d49575b818110613d33575b818110613d1d575b818110613d07575b818110613cf1575b818110613cdb575b10613cce575b5060c482018e90526001600160a01b038a1660e483015203925af18015610d4157613ca3575b5060088401879055600554600a850154600986015460048054604051638a54c52f60e01b81526001600160a01b039485169281019290925260248201929092524660448201529082166064820152608481018a90529591602091879160a49183918791165af1948515610d41578295613c67575b506004546001600160a01b0316803b15610dd65760405163190b373360e31b8152600481018a90526001600160a01b03871660248201529083908290604490829084905af18015610d8457908391613c53575b505060405163095ea7b360e01b81526001600160a01b03871660048201525f196024820152602081604481868c5af18015610d8457613c34575b506040516370a0823160e01b8152306004820152906020826024818b5afa918215610d84578392613c00575b50600501546013546001600160a01b039081169181169088163b15610d4c5760405163a7d545db60e01b81526004810193909352602483015260448201528181606481836001600160a01b038b165af18015610d4157613bec575b5050604080519687526001600160a01b03918216602088015291811691860191909152908116606085015216608083015260a08201527ff9d151d23a5253296eb20ab40959cf48828ea2732d337416716e302ed83ca6589060c090a15f52600b60205260405f2060405161340781614e9f565b60405161341f81613418818661510c565b0382614f20565b815260405161343581613418816001870161510c565b602082015260405161344e81613418816002870161510c565b604082015261346760ff6003840154166060830161519d565b6004820154608082015260058201546001600160a01b031660a08201526040516006830180548083525f9182526020808320928492918301915b80601f830110613a44576135b7945491818110613a30575b818110613a19575b818110613a02575b8181106139eb575b8181106139d5575b8181106139be575b8181106139a7575b818110613990575b818110613979575b818110613962575b81811061394b575b818110613934575b81811061391d575b818110613906575b8181106138ef575b8181106138d8575b8181106138c1575b8181106138aa575b818110613893575b81811061387c575b818110613865575b81811061384e575b818110613837575b818110613820575b818110613809575b8181106137f2575b8181106137db575b8181106137c4575b8181106137ad575b818110613796575b81811061377f575b10613771575b500382614f20565b60c0820152600782015460e0820152610180600b60088401549384610100850152600981015461012085015263ffffffff600a82015460018060a01b03811661014087015260a01c1661016085015201549101525f60018060a01b036004541691602460405180948193635652386760e11b835260048301525afa801561141e575f90613664575b602090810151600d805460ff60a01b191690556040516001600160a01b039091168152f35b503d805f833e6136748183614f20565b8101906020818303126102385780516001600160401b039182821161023857019060a082840312610238576040519160a0830183811083821117611a82576040526136be816151e6565b83526136cc602082016151e6565b60208401526136dd604082016151e6565b60408401526136ee606082016151e6565b60608401526080810151918211610238570182601f820112156102385780519261371784614fa2565b916137256040519384614f20565b84835260208084019560051b82010191821161023857602001935b81851061375757505060209250608082015261363f565b845160ff8116810361023857815260209485019401613740565b60f81c8152602001866135af565b92602060019160ff8560f01c1681520193016135a9565b92602060019160ff8560e81c1681520193016135a1565b92602060019160ff8560e01c168152019301613599565b92602060019160ff8560d81c168152019301613591565b92602060019160ff8560d01c168152019301613589565b92602060019160ff8560c81c168152019301613581565b92602060019160ff8560c01c168152019301613579565b92602060019160ff8560b81c168152019301613571565b92602060019160ff8560b01c168152019301613569565b92602060019160ff8560a81c168152019301613561565b92602060019160ff8560a01c168152019301613559565b92602060019160ff8560981c168152019301613551565b92602060019160ff8560901c168152019301613549565b92602060019160ff8560881c168152019301613541565b92602060019160ff8560801c168152019301613539565b92602060019160ff8560781c168152019301613531565b92602060019160ff8560701c168152019301613529565b92602060019160ff8560681c168152019301613521565b92602060019160ff8560601c168152019301613519565b92602060019160ff8560581c168152019301613511565b92602060019160ff8560501c168152019301613509565b92602060019160ff8560481c168152019301613501565b92602060019160ff8560401c1681520193016134f9565b92602060019160ff8560381c1681520193016134f1565b92602060019160ff8560301c1681520193016134e9565b92602060019160ff8560281c1681520193016134e1565b92602060019160ff85831c1681520193016134d9565b92602060019160ff8560181c1681520193016134d1565b92602060019160ff8560101c1681520193016134c9565b92602060019160ff8560081c1681520193016134c1565b92602060019160ff851681520193016134b9565b916020919350610400600191865460ff8116825260ff8160081c168583015260ff8160101c16604083015260ff8160181c16606083015260ff81861c16608083015260ff8160281c1660a083015260ff8160301c1660c083015260ff8160381c1660e083015260ff8160401c1661010083015260ff8160481c1661012083015260ff8160501c1661014083015260ff8160581c1661016083015260ff8160601c1661018083015260ff8160681c166101a083015260ff8160701c166101c083015260ff8160781c166101e083015260ff8160801c1661020083015260ff8160881c1661022083015260ff8160901c1661024083015260ff8160981c1661026083015260ff8160a01c1661028083015260ff8160a81c166102a083015260ff8160b01c166102c083015260ff8160b81c166102e083015260ff8160c01c1661030083015260ff8160c81c1661032083015260ff8160d01c1661034083015260ff8160d81c1661036083015260ff8160e01c1661038083015260ff8160e81c166103a083015260ff8160f01c166103c083015260f81c6103e08201520194019201849293916134a1565b613bf68291614ed6565b610d3e5780613394565b9091506020813d602011613c2c575b81613c1c60209383614f20565b810103126102385751908a613339565b3d9150613c0f565b613c4c9060203d602011610db757610da88183614f20565b508961330d565b613c5c90614ed6565b610dd257818a6132d3565b9094506020813d602011613c9b575b81613c8360209383614f20565b81010312610dd257613c94906151e6565b9389613280565b3d9150613c76565b602090813d8311613cc7575b613cb98183614f20565b81010312610238578861320c565b503d613caf565b60f81c815286015f6131e6565b928960019160ff8560f01c1681520193016131e0565b928960019160ff8560e81c1681520193016131d8565b928960019160ff8560e01c1681520193016131d0565b928960019160ff8560d81c1681520193016131c8565b928960019160ff8560d01c1681520193016131c0565b928960019160ff8560c81c1681520193016131b8565b928960019160ff8560c01c1681520193016131b0565b928960019160ff8560b81c1681520193016131a8565b928960019160ff8560b01c1681520193016131a0565b928960019160ff8560a81c168152019301613198565b928960019160ff8560a01c168152019301613190565b928960019160ff8560981c168152019301613188565b928960019160ff8560901c168152019301613180565b928960019160ff8560881c168152019301613178565b928960019160ff8560801c168152019301613170565b928960019160ff8560781c168152019301613168565b928960019160ff8560701c168152019301613160565b928960019160ff8560681c168152019301613158565b928960019160ff8560601c168152019301613150565b928960019160ff8560581c168152019301613148565b928960019160ff8560501c168152019301613140565b928960019160ff8560481c168152019301613138565b928960019160ff8560401c168152019301613130565b928960019160ff8560381c168152019301613128565b928960019160ff8560301c168152019301613120565b928960019160ff8560281c168152019301613118565b828a1c60ff16845292890192600101613110565b928960019160ff8560181c168152019301613108565b928960019160ff8560101c168152019301613100565b928960019160ff8560081c1681520193016130f8565b60ff83168452928901926001016130f0565b9450915091936001610400602092865460ff8116825260ff8160081c168583015260ff8160101c16604083015260ff8160181c16606083015260ff81861c16608083015260ff8160281c1660a083015260ff8160301c1660c083015260ff8160381c1660e083015260ff8160401c1661010083015260ff8160481c1661012083015260ff8160501c1661014083015260ff8160581c1661016083015260ff8160601c1661018083015260ff8160681c166101a083015260ff8160701c166101c083015260ff8160781c166101e083015260ff8160801c1661020083015260ff8160881c1661022083015260ff8160901c1661024083015260ff8160981c1661026083015260ff8160a01c1661028083015260ff8160a81c166102a083015260ff8160b01c166102c083015260ff8160b81c166102e083015260ff8160c01c1661030083015260ff8160c81c1661032083015260ff8160d01c1661034083015260ff8160d81c1661036083015260ff8160e01c1661038083015260ff8160e81c166103a083015260ff8160f01c166103c083015260f81c6103e082015201940192018691869495936130d3565b9097506020813d602011614157575b8161414760209383614f20565b810103126102385751968961304b565b3d915061413a565b61416890614ed6565b6112d957858861300f565b61417c90614ed6565b611300578487612f48565b634e487b7160e01b89526011600452602489fd5b6141a490614ed6565b610d4c578386612e31565b6040513d87823e3d90fd5b634e487b7160e01b85526032600452602485fd5b3d91508186823e6141df8282614f20565b60208183810103126112d9578051916001600160401b03831161140757808201601f84840101121561140757828201519161421983614fa2565b936142276040519586614f20565b8385526020850192820160208560051b838501010111614282579190602083820101925b60208560051b8284010101841061426757505050505086612dc5565b6020808094614275876151e6565b815201940193925061424b565b8880fd5b614291919450614ed6565b5f9285612d8f565b82516001600160a01b031681528694506020928301926001929092019101612d4c565b634e487b7160e01b5f52601160045260245ffd5b34610238576020366003190112610238575f6101806040516142f181614e9f565b6060815260606020820152606060408201528260608201528260808201528260a0820152606060c08201528260e08201528261010082015282610120820152826101408201528261016082015201526004355f52600b60205260405f2060405161435a81614e9f565b60405161436b81613418818661510c565b815260405161438181613418816001870161510c565b602082015260405161439a81613418816002870161510c565b60408201526143b360ff6003840154166060830161519d565b6004820154608082015260058201546001600160a01b031660a08201526040516006830180548083525f918252602080832090840195939291905b81601f840110614949579561450a928492600b97985491818110614935575b81811061491e575b818110614907575b8181106148f0575b8181106148da575b8181106148c3575b8181106148ac575b818110614895575b81811061487e575b818110614867575b818110614850575b818110614839575b818110614822575b81811061480b575b8181106147f4575b8181106147dd575b8181106147c6575b8181106147af575b818110614798575b818110614781575b81811061476a575b818110614753575b81811061473c575b818110614725575b81811061470e575b8181106146f7575b8181106146e0575b8181106146c9575b8181106146b2575b81811061469b575b818110614684575b1061467657500382614f20565b60c0840152600781015460e08401526008810154610100840152600981015461012084015263ffffffff600a82015460018060a01b03811661014086015260a01c166101608401520154610180820152604051602081526145ab61459561457f84516101a060208601526101c0850190614e33565b6020850151848203601f19016040860152614e33565b6040840151838203601f19016060850152614e33565b60608301516003811015611487576080830152608083015160a083015260018060a01b0360a08401511660c083015260c083015190601f198382030160e0840152602080835192838152019201905f5b81811061465d575050506101808360e08495015161010085015261010081015161012085015261012081015161014085015260018060a01b036101408201511661016085015263ffffffff610160820151168285015201516101a08301520390f35b825160ff168452602093840193909201916001016145fb565b60f81c8152602001876135af565b92602060019160ff8560f01c1681520193016144fd565b92602060019160ff8560e81c1681520193016144f5565b92602060019160ff8560e01c1681520193016144ed565b92602060019160ff8560d81c1681520193016144e5565b92602060019160ff8560d01c1681520193016144dd565b92602060019160ff8560c81c1681520193016144d5565b92602060019160ff8560c01c1681520193016144cd565b92602060019160ff8560b81c1681520193016144c5565b92602060019160ff8560b01c1681520193016144bd565b92602060019160ff8560a81c1681520193016144b5565b92602060019160ff8560a01c1681520193016144ad565b92602060019160ff8560981c1681520193016144a5565b92602060019160ff8560901c16815201930161449d565b92602060019160ff8560881c168152019301614495565b92602060019160ff8560801c16815201930161448d565b92602060019160ff8560781c168152019301614485565b92602060019160ff8560701c16815201930161447d565b92602060019160ff8560681c168152019301614475565b92602060019160ff8560601c16815201930161446d565b92602060019160ff8560581c168152019301614465565b92602060019160ff8560501c16815201930161445d565b92602060019160ff8560481c168152019301614455565b92602060019160ff8560401c16815201930161444d565b92602060019160ff8560381c168152019301614445565b92602060019160ff8560301c16815201930161443d565b92602060019160ff8560281c168152019301614435565b92602060019160ff85831c16815201930161442d565b92602060019160ff8560181c168152019301614425565b92602060019160ff8560101c16815201930161441d565b92602060019160ff8560081c168152019301614415565b92602060019160ff8516815201930161440d565b956001610400602092895460ff8116825260ff8160081c168583015260ff8160101c16604083015260ff8160181c16606083015260ff81861c16608083015260ff8160281c1660a083015260ff8160301c1660c083015260ff8160381c1660e083015260ff8160401c1661010083015260ff8160481c1661012083015260ff8160501c1661014083015260ff8160581c1661016083015260ff8160601c1661018083015260ff8160681c166101a083015260ff8160701c166101c083015260ff8160781c166101e083015260ff8160801c1661020083015260ff8160881c1661022083015260ff8160901c1661024083015260ff8160981c1661026083015260ff8160a01c1661028083015260ff8160a81c166102a083015260ff8160b01c166102c083015260ff8160b81c166102e083015260ff8160c01c1661030083015260ff8160c81c1661032083015260ff8160d01c1661034083015260ff8160d81c1661036083015260ff8160e01c1661038083015260ff8160e81c166103a083015260ff8160f01c166103c083015260f81c6103e08201520197019201916143ee565b34610238575f36600319011261023857600c546040516001600160a01b039091168152602090f35b34610238575f366003190112610238576009546040516001600160a01b039091168152602090f35b346102385761012036600319011261023857614b55614dc5565b614b5d614ddb565b614b65614df1565b906064359260018060a01b0380851680950361023857614b83614e07565b94614b8c614e1d565b9060e43594838616809603610238577ff0c57e16840df040f15088dc2f81fe391c3923bec73e23a9662efc9c229c6a009788549160ff8360401c1615986001600160401b03841680159081614d25575b6001149081614d1b575b159081614d12575b50614d005767ffffffffffffffff1984166001178b558693849283918c614ce1575b50614c196157b9565b614c216157b9565b5f80516020615a9a83398151915260ff198154169055816001600160601b0360a01b9a168a60025416176002551688601054161760105516866003541617600355168460095416176009558360055416176005551681600454161760045560c43560065561010435600155614c95336153df565b50600d541617600d55614ca457005b68ff00000000000000001981541690557fc7f505b2f371ae2175ee4913f4499e1f2633a7b5936321eed1cdaeb6115181d2602060405160018152a1005b68ffffffffffffffffff191668010000000000000001178d558d614c10565b60405163f92ee8a960e01b8152600490fd5b9050158c614bee565b303b159150614be6565b8b9150614bdc565b34610238575f366003190112610238576013546040516001600160a01b039091168152602090f35b34610238575f366003190112610238576020600a54604051908152f35b34610238576020366003190112610238576004359063ffffffff60e01b821680920361023857602091637965db0b60e01b8114908115614db4575b5015158152f35b6301ffc9a760e01b14905083614dad565b600435906001600160a01b038216820361023857565b602435906001600160a01b038216820361023857565b604435906001600160a01b038216820361023857565b608435906001600160a01b038216820361023857565b60a435906001600160a01b038216820361023857565b91908251928382525f5b848110614e5d575050825f602080949584010152601f8019910116010190565b602081830181015184830182015201614e3d565b6080906003190112610238576004359060243590604435906064356001600160a01b03811681036102385790565b6101a081019081106001600160401b03821117611a8257604052565b606081019081106001600160401b03821117611a8257604052565b6001600160401b038111611a8257604052565b61010081019081106001600160401b03821117611a8257604052565b60a081019081106001600160401b03821117611a8257604052565b90601f801991011681019081106001600160401b03821117611a8257604052565b6001600160401b038111611a8257601f01601f191660200190565b81601f8201121561023857803590614f7382614f41565b92614f816040519485614f20565b8284526020838301011161023857815f926020809301838601378301015290565b6001600160401b038111611a825760051b60200190565b9080601f83011215610238576020908235614fd381614fa2565b93614fe16040519586614f20565b81855260208086019260051b82010192831161023857602001905b82821061500a575050505090565b813560ff81168103610238578152908301908301614ffc565b90600182811c92168015615051575b602083101461503d57565b634e487b7160e01b5f52602260045260245ffd5b91607f1691615032565b6015545f929161506a82615023565b808252916020906001908181169081156150e7575060011461508d575b50505050565b9293945060155f527f55f448fdea98c4d29eb340757ef0a66cd03dbb9538908a6a81d96026b71ec475925f935b8585106150d457505050602092500101905f808080615087565b80548585018401529382019381016150ba565b92505050602093945060ff929192191683830152151560051b0101905f808080615087565b80545f939261511a82615023565b918282526020936001916001811690815f1461517e5750600114615140575b5050505050565b90939495505f92919252835f2092845f945b83861061516a57505050500101905f80808080615139565b805485870183015294019385908201615152565b60ff19168685015250505090151560051b010191505f80808080615139565b60038210156114875752565b156151b057565b60405162461bcd60e51b815260206004820152600e60248201526d31b0b73737ba103932b2b73a32b960911b6044820152606490fd5b51906001600160a01b038216820361023857565b818110615205575050565b5f81556001016151fa565b9190601f811161521f57505050565b615248925f5260205f20906020601f840160051c8301931061200957601f0160051c01906151fa565b565b1561525157565b60405162461bcd60e51b815260206004820152600c60248201526b2737ba10383937b837b9b2b960a11b6044820152606490fd5b1561528c57565b60405162461bcd60e51b815260206004820152601960248201527f4170706c69636174696f6e206973206e6f7420616374697665000000000000006044820152606490fd5b9060038110156114875760ff80198354169116179055565b156152f057565b60405162461bcd60e51b815260206004820152601860248201527f496e73756666696369656e7420617373657420746f6b656e00000000000000006044820152606490fd5b1561533c57565b60405162461bcd60e51b815260206004820152602260248201527f496e73756666696369656e7420617373657420746f6b656e20616c6c6f77616e604482015261636560f01b6064820152608490fd5b1561539357565b60405162461bcd60e51b815260206004820152601660248201527510dbdc995cc81b5d5cdd081899481c1c9bdd9a59195960521b6044820152606490fd5b5f1981146142bc5760010190565b6001600160a01b03165f8181527fad3228b676f7d3cd4284a5443f17f1962b36e491b30a40b2405849e597ba5fb5602052604090205460ff1661547f575f8181527fad3228b676f7d3cd4284a5443f17f1962b36e491b30a40b2405849e597ba5fb560205260408120805460ff191660011790553391907f2f8788117e7eff1d82e926ec794901d17c78024a50270940304540a733656f0d8180a4600190565b505f90565b90815f525f60205260405f209060018060a01b031690815f5260205260ff60405f205416155f146154fa57815f525f60205260405f20815f5260205260405f20600160ff1982541617905533917f2f8788117e7eff1d82e926ec794901d17c78024a50270940304540a733656f0d5f80a4600190565b50505f90565b335f9081527f47fa3846800aa0e8a0094e76ddd8b6215145788c21499f1987cd67ad6fc4181060205260409020547f360f1ba4dc07a42c6671063d838f69946ccc4187f391399e06fd8ed4605900f39060ff161561555b5750565b6044906040519063e2517d3f60e01b82523360048301526024820152fd5b335f9081527fad3228b676f7d3cd4284a5443f17f1962b36e491b30a40b2405849e597ba5fb5602052604090205460ff16156155b157565b60405163e2517d3f60e01b81523360048201525f6024820152604490fd5b805f525f60205260405f20335f5260205260ff60405f2054161561555b5750565b5f929181546155fe81615023565b92600191808316908115615654575060011461561a5750505050565b9091929394505f5260209060205f20905f915b858310615643575050505001905f808080615087565b80548584015291830191810161562d565b60ff191684525050508115159091020191505f808080615087565b90816020910312610238575180151581036102385790565b60405163a9059cbb60e01b60208201526001600160a01b03909216602483015260448083019390935291815260808101916001600160401b03831182841017611a825761524892604052615937565b90815f525f60205260405f209060018060a01b031690815f5260205260ff60405f2054165f146154fa57815f525f60205260405f20815f5260205260405f2060ff19815416905533917ff6391f5c32d9c69d2a47ea670b442974b53935d1edc7fd64eb21e047a839171b5f80a4600190565b60ff5f80516020615a9a833981519152541661576057565b60405163d93c066560e01b8152600490fd5b6040516323b872dd60e01b60208201526001600160a01b039283166024820152929091166044830152606480830193909352918152615248916157b482614f05565b615937565b60ff7ff0c57e16840df040f15088dc2f81fe391c3923bec73e23a9662efc9c229c6a005460401c16156157e857565b604051631afcd79f60e31b8152600490fd5b600e54600160401b811015611a82576001810180600e5581101561585d57600e5f527fbb7b4a454dc3493923482f07822329ed19e8244eff582cc204f8554c3620c3fd0180546001600160a01b0319166001600160a01b03909216919091179055565b634e487b7160e01b5f52603260045260245ffd5b600754600160401b811015611a8257600181018060075581101561585d5760075f527fa66cc928b5edb82af9bd49922954155ab7b0942694bea4ce44661d9a8736c6880180546001600160a01b0319166001600160a01b03909216919091179055565b600854600160401b811015611a8257600181018060085581101561585d5760085f527ff3f7a9fe364faab93b216da50a3214154f22a0a2b415b23a84c8169e8b636ee30180546001600160a01b0319166001600160a01b03909216919091179055565b5f8061597f9260018060a01b03169360208151910182865af13d156159c8573d9061596182614f41565b9161596f6040519384614f20565b82523d5f602084013e5b83615a36565b80519081151591826159ad575b50506159955750565b60249060405190635274afe760e01b82526004820152fd5b6159c0925060208091830101910161566f565b155f8061598c565b606090615979565b6e5af43d82803e903d91602b57fd5bf390763d602d80600a3d3981f3363d3d373d3d3d363d7300000062ffffff8260881c16175f5260781b17602052603760095ff0906001600160a01b03821615615a2457565b6040516330be1a3d60e21b8152600490fd5b90615a5d5750805115615a4b57805190602001fd5b604051630a12f52160e11b8152600490fd5b81511580615a90575b615a6e575090565b604051639996b31560e01b81526001600160a01b039091166004820152602490fd5b50803b15615a6656fecd5ed15c6e187e77e9aee88184c21f4f2182ab5827cb3b7e07fbedcd63f03300a264697066735822122050c27af9f05403172d86c61f5836786174a79d765f5e03946a003fe215de4d0064736f6c63430008160033","linkReferences":{}},"methodIdentifiers":{"BONDING_ROLE()":"3094afb3","DEFAULT_ADMIN_ROLE()":"a217fddf","WITHDRAW_ROLE()":"e02023a1","allDAOs(uint256)":"b4136bd8","allTokens(uint256)":"634282af","allTradingTokens(uint256)":"e887b1cc","applicationThreshold()":"ddf44275","assetToken()":"1083f761","daoImplementation()":"9d699326","defaultDelegatee()":"0c4cb55c","executeApplication(uint256,bool)":"aa3d000a","executeBondingCurveApplication(uint256,uint256,uint256,address)":"23c31596","getApplication(uint256)":"1f2f4bfd","getRoleAdmin(bytes32)":"248a9ca3","gov()":"12d43a51","grantRole(bytes32,address)":"2f2ff15d","hasRole(bytes32,address)":"91d14854","initFromBondingCurve(string,string,uint8[],bytes32,address,uint32,uint256,uint256,address)":"3fa2da7e","initialize(address,address,address,address,address,address,uint256,address,uint256)":"0f07646a","maturityDuration()":"063513b7","nft()":"47ccca02","pause()":"8456cb59","paused()":"5c975abb","proposeAgent(string,string,string,uint8[],bytes32,address,uint32,uint256)":"9e4ec30a","renounceRole(bytes32,address)":"36568abe","revokeRole(bytes32,address)":"d547741f","setApplicationThreshold(uint256)":"bd1cf258","setAssetToken(address)":"26bde5aa","setDefaultDelegatee(address)":"9d7b6842","setImplementations(address,address,address)":"9300d238","setMaturityDuration(uint256)":"d739ac29","setTokenAdmin(address)":"f7457594","setTokenSupplyParams(uint256,uint256,uint256,uint256,uint256,uint256,address)":"2a7d4a1f","setTokenTaxParams(uint256,uint256,uint256,address)":"5ca3cedf","setUniswapRouter(address)":"bea9849e","setVault(address)":"6817031b","supportsInterface(bytes4)":"01ffc9a7","tbaRegistry()":"468d198d","tokenImplementation()":"2f3a3d5d","totalAgents()":"c5053712","unpause()":"3f4ba83a","veTokenImplementation()":"9cbe0bac","withdraw(uint256)":"2e1a7d4d"},"id":19}