{"abi":[{"type":"function","name":"airdrop","inputs":[{"name":"_token","type":"address","internalType":"contract IERC20"},{"name":"_recipients","type":"address[]","internalType":"address[]"},{"name":"_amounts","type":"uint256[]","internalType":"uint256[]"},{"name":"_total","type":"uint256","internalType":"uint256"}],"outputs":[],"stateMutability":"nonpayable"}],"bytecode":{"object":"0x608060405234801561000f575f80fd5b506101f58061001d5f395ff3fe608060405234801561000f575f80fd5b5060043610610029575f3560e01c8063ac3e20891461002d575b5f80fd5b61004061003b36600461012f565b610042565b005b6040516323b872dd60e01b60208083018281523360248501523060448501526064938401859052919263a9059cbb60e01b9291905f9083828d5af13d1560015f5114171661008e575f80fd5b50604051602001818152845f5b818110156100da5760208181028b810135600486015289013560248501525f604485828f5af13d1560015f511417166100d2575f80fd5b60010161009b565b5050505050505050505050565b5f8083601f8401126100f7575f80fd5b50813567ffffffffffffffff81111561010e575f80fd5b6020830191508360208260051b8501011115610128575f80fd5b9250929050565b5f805f805f8060808789031215610144575f80fd5b86356001600160a01b038116811461015a575f80fd5b9550602087013567ffffffffffffffff80821115610176575f80fd5b6101828a838b016100e7565b9097509550604089013591508082111561019a575f80fd5b506101a789828a016100e7565b979a969950949794969560609095013594935050505056fea2646970667358221220af2f144e4cdb8a1ac0a412e8e5b9e8597563c70c4b7f032509f2390ae39150b664736f6c63430008160033","linkReferences":{}},"methodIdentifiers":{"airdrop(address,address[],uint256[],uint256)":"ac3e2089"},"id":48}