{"abi":[{"type":"constructor","inputs":[{"name":"token","type":"address","internalType":"contract IVotes"},{"name":"initialVotingDelay","type":"uint48","internalType":"uint48"},{"name":"initialVotingPeriod","type":"uint32","internalType":"uint32"},{"name":"initialProposalThreshold","type":"uint256","internalType":"uint256"},{"name":"initialQuorumNumerator","type":"uint256","internalType":"uint256"}],"stateMutability":"nonpayable"},{"type":"receive","stateMutability":"payable"},{"type":"function","name":"BALLOT_TYPEHASH","inputs":[],"outputs":[{"name":"","type":"bytes32","internalType":"bytes32"}],"stateMutability":"view"},{"type":"function","name":"CLOCK_MODE","inputs":[],"outputs":[{"name":"","type":"string","internalType":"string"}],"stateMutability":"view"},{"type":"function","name":"COUNTING_MODE","inputs":[],"outputs":[{"name":"","type":"string","internalType":"string"}],"stateMutability":"pure"},{"type":"function","name":"EXTENDED_BALLOT_TYPEHASH","inputs":[],"outputs":[{"name":"","type":"bytes32","internalType":"bytes32"}],"stateMutability":"view"},{"type":"function","name":"cancel","inputs":[{"name":"proposalId","type":"uint256","internalType":"uint256"}],"outputs":[],"stateMutability":"nonpayable"},{"type":"function","name":"cancel","inputs":[{"name":"targets","type":"address[]","internalType":"address[]"},{"name":"values","type":"uint256[]","internalType":"uint256[]"},{"name":"calldatas","type":"bytes[]","internalType":"bytes[]"},{"name":"descriptionHash","type":"bytes32","internalType":"bytes32"}],"outputs":[{"name":"","type":"uint256","internalType":"uint256"}],"stateMutability":"nonpayable"},{"type":"function","name":"castVote","inputs":[{"name":"proposalId","type":"uint256","internalType":"uint256"},{"name":"support","type":"uint8","internalType":"uint8"}],"outputs":[{"name":"","type":"uint256","internalType":"uint256"}],"stateMutability":"nonpayable"},{"type":"function","name":"castVoteBySig","inputs":[{"name":"proposalId","type":"uint256","internalType":"uint256"},{"name":"support","type":"uint8","internalType":"uint8"},{"name":"voter","type":"address","internalType":"address"},{"name":"signature","type":"bytes","internalType":"bytes"}],"outputs":[{"name":"","type":"uint256","internalType":"uint256"}],"stateMutability":"nonpayable"},{"type":"function","name":"castVoteWithReason","inputs":[{"name":"proposalId","type":"uint256","internalType":"uint256"},{"name":"support","type":"uint8","internalType":"uint8"},{"name":"reason","type":"string","internalType":"string"}],"outputs":[{"name":"","type":"uint256","internalType":"uint256"}],"stateMutability":"nonpayable"},{"type":"function","name":"castVoteWithReasonAndParams","inputs":[{"name":"proposalId","type":"uint256","internalType":"uint256"},{"name":"support","type":"uint8","internalType":"uint8"},{"name":"reason","type":"string","internalType":"string"},{"name":"params","type":"bytes","internalType":"bytes"}],"outputs":[{"name":"","type":"uint256","internalType":"uint256"}],"stateMutability":"nonpayable"},{"type":"function","name":"castVoteWithReasonAndParamsBySig","inputs":[{"name":"proposalId","type":"uint256","internalType":"uint256"},{"name":"support","type":"uint8","internalType":"uint8"},{"name":"voter","type":"address","internalType":"address"},{"name":"reason","type":"string","internalType":"string"},{"name":"params","type":"bytes","internalType":"bytes"},{"name":"signature","type":"bytes","internalType":"bytes"}],"outputs":[{"name":"","type":"uint256","internalType":"uint256"}],"stateMutability":"nonpayable"},{"type":"function","name":"clock","inputs":[],"outputs":[{"name":"","type":"uint48","internalType":"uint48"}],"stateMutability":"view"},{"type":"function","name":"eip712Domain","inputs":[],"outputs":[{"name":"fields","type":"bytes1","internalType":"bytes1"},{"name":"name","type":"string","internalType":"string"},{"name":"version","type":"string","internalType":"string"},{"name":"chainId","type":"uint256","internalType":"uint256"},{"name":"verifyingContract","type":"address","internalType":"address"},{"name":"salt","type":"bytes32","internalType":"bytes32"},{"name":"extensions","type":"uint256[]","internalType":"uint256[]"}],"stateMutability":"view"},{"type":"function","name":"execute","inputs":[{"name":"targets","type":"address[]","internalType":"address[]"},{"name":"values","type":"uint256[]","internalType":"uint256[]"},{"name":"calldatas","type":"bytes[]","internalType":"bytes[]"},{"name":"descriptionHash","type":"bytes32","internalType":"bytes32"}],"outputs":[{"name":"","type":"uint256","internalType":"uint256"}],"stateMutability":"payable"},{"type":"function","name":"execute","inputs":[{"name":"proposalId","type":"uint256","internalType":"uint256"}],"outputs":[],"stateMutability":"payable"},{"type":"function","name":"getVotes","inputs":[{"name":"account","type":"address","internalType":"address"},{"name":"timepoint","type":"uint256","internalType":"uint256"}],"outputs":[{"name":"","type":"uint256","internalType":"uint256"}],"stateMutability":"view"},{"type":"function","name":"getVotesWithParams","inputs":[{"name":"account","type":"address","internalType":"address"},{"name":"timepoint","type":"uint256","internalType":"uint256"},{"name":"params","type":"bytes","internalType":"bytes"}],"outputs":[{"name":"","type":"uint256","internalType":"uint256"}],"stateMutability":"view"},{"type":"function","name":"hasVoted","inputs":[{"name":"proposalId","type":"uint256","internalType":"uint256"},{"name":"account","type":"address","internalType":"address"}],"outputs":[{"name":"","type":"bool","internalType":"bool"}],"stateMutability":"view"},{"type":"function","name":"hashProposal","inputs":[{"name":"targets","type":"address[]","internalType":"address[]"},{"name":"values","type":"uint256[]","internalType":"uint256[]"},{"name":"calldatas","type":"bytes[]","internalType":"bytes[]"},{"name":"descriptionHash","type":"bytes32","internalType":"bytes32"}],"outputs":[{"name":"","type":"uint256","internalType":"uint256"}],"stateMutability":"pure"},{"type":"function","name":"name","inputs":[],"outputs":[{"name":"","type":"string","internalType":"string"}],"stateMutability":"view"},{"type":"function","name":"nonces","inputs":[{"name":"owner","type":"address","internalType":"address"}],"outputs":[{"name":"","type":"uint256","internalType":"uint256"}],"stateMutability":"view"},{"type":"function","name":"onERC1155BatchReceived","inputs":[{"name":"","type":"address","internalType":"address"},{"name":"","type":"address","internalType":"address"},{"name":"","type":"uint256[]","internalType":"uint256[]"},{"name":"","type":"uint256[]","internalType":"uint256[]"},{"name":"","type":"bytes","internalType":"bytes"}],"outputs":[{"name":"","type":"bytes4","internalType":"bytes4"}],"stateMutability":"nonpayable"},{"type":"function","name":"onERC1155Received","inputs":[{"name":"","type":"address","internalType":"address"},{"name":"","type":"address","internalType":"address"},{"name":"","type":"uint256","internalType":"uint256"},{"name":"","type":"uint256","internalType":"uint256"},{"name":"","type":"bytes","internalType":"bytes"}],"outputs":[{"name":"","type":"bytes4","internalType":"bytes4"}],"stateMutability":"nonpayable"},{"type":"function","name":"onERC721Received","inputs":[{"name":"","type":"address","internalType":"address"},{"name":"","type":"address","internalType":"address"},{"name":"","type":"uint256","internalType":"uint256"},{"name":"","type":"bytes","internalType":"bytes"}],"outputs":[{"name":"","type":"bytes4","internalType":"bytes4"}],"stateMutability":"nonpayable"},{"type":"function","name":"proposalCount","inputs":[],"outputs":[{"name":"","type":"uint256","internalType":"uint256"}],"stateMutability":"view"},{"type":"function","name":"proposalDeadline","inputs":[{"name":"proposalId","type":"uint256","internalType":"uint256"}],"outputs":[{"name":"","type":"uint256","internalType":"uint256"}],"stateMutability":"view"},{"type":"function","name":"proposalDetails","inputs":[{"name":"proposalId","type":"uint256","internalType":"uint256"}],"outputs":[{"name":"","type":"address[]","internalType":"address[]"},{"name":"","type":"uint256[]","internalType":"uint256[]"},{"name":"","type":"bytes[]","internalType":"bytes[]"},{"name":"","type":"bytes32","internalType":"bytes32"}],"stateMutability":"view"},{"type":"function","name":"proposalDetailsAt","inputs":[{"name":"index","type":"uint256","internalType":"uint256"}],"outputs":[{"name":"","type":"uint256","internalType":"uint256"},{"name":"","type":"address[]","internalType":"address[]"},{"name":"","type":"uint256[]","internalType":"uint256[]"},{"name":"","type":"bytes[]","internalType":"bytes[]"},{"name":"","type":"bytes32","internalType":"bytes32"}],"stateMutability":"view"},{"type":"function","name":"proposalEta","inputs":[{"name":"proposalId","type":"uint256","internalType":"uint256"}],"outputs":[{"name":"","type":"uint256","internalType":"uint256"}],"stateMutability":"view"},{"type":"function","name":"proposalNeedsQueuing","inputs":[{"name":"","type":"uint256","internalType":"uint256"}],"outputs":[{"name":"","type":"bool","internalType":"bool"}],"stateMutability":"view"},{"type":"function","name":"proposalProposer","inputs":[{"name":"proposalId","type":"uint256","internalType":"uint256"}],"outputs":[{"name":"","type":"address","internalType":"address"}],"stateMutability":"view"},{"type":"function","name":"proposalSnapshot","inputs":[{"name":"proposalId","type":"uint256","internalType":"uint256"}],"outputs":[{"name":"","type":"uint256","internalType":"uint256"}],"stateMutability":"view"},{"type":"function","name":"proposalThreshold","inputs":[],"outputs":[{"name":"","type":"uint256","internalType":"uint256"}],"stateMutability":"view"},{"type":"function","name":"proposalVotes","inputs":[{"name":"proposalId","type":"uint256","internalType":"uint256"}],"outputs":[{"name":"againstVotes","type":"uint256","internalType":"uint256"},{"name":"forVotes","type":"uint256","internalType":"uint256"},{"name":"abstainVotes","type":"uint256","internalType":"uint256"}],"stateMutability":"view"},{"type":"function","name":"propose","inputs":[{"name":"targets","type":"address[]","internalType":"address[]"},{"name":"values","type":"uint256[]","internalType":"uint256[]"},{"name":"calldatas","type":"bytes[]","internalType":"bytes[]"},{"name":"description","type":"string","internalType":"string"}],"outputs":[{"name":"","type":"uint256","internalType":"uint256"}],"stateMutability":"nonpayable"},{"type":"function","name":"queue","inputs":[{"name":"targets","type":"address[]","internalType":"address[]"},{"name":"values","type":"uint256[]","internalType":"uint256[]"},{"name":"calldatas","type":"bytes[]","internalType":"bytes[]"},{"name":"descriptionHash","type":"bytes32","internalType":"bytes32"}],"outputs":[{"name":"","type":"uint256","internalType":"uint256"}],"stateMutability":"nonpayable"},{"type":"function","name":"queue","inputs":[{"name":"proposalId","type":"uint256","internalType":"uint256"}],"outputs":[],"stateMutability":"nonpayable"},{"type":"function","name":"quorum","inputs":[{"name":"blockNumber","type":"uint256","internalType":"uint256"}],"outputs":[{"name":"","type":"uint256","internalType":"uint256"}],"stateMutability":"view"},{"type":"function","name":"quorumDenominator","inputs":[],"outputs":[{"name":"","type":"uint256","internalType":"uint256"}],"stateMutability":"pure"},{"type":"function","name":"quorumNumerator","inputs":[{"name":"timepoint","type":"uint256","internalType":"uint256"}],"outputs":[{"name":"","type":"uint256","internalType":"uint256"}],"stateMutability":"view"},{"type":"function","name":"quorumNumerator","inputs":[],"outputs":[{"name":"","type":"uint256","internalType":"uint256"}],"stateMutability":"view"},{"type":"function","name":"relay","inputs":[{"name":"target","type":"address","internalType":"address"},{"name":"value","type":"uint256","internalType":"uint256"},{"name":"data","type":"bytes","internalType":"bytes"}],"outputs":[],"stateMutability":"payable"},{"type":"function","name":"setProposalThreshold","inputs":[{"name":"newProposalThreshold","type":"uint256","internalType":"uint256"}],"outputs":[],"stateMutability":"nonpayable"},{"type":"function","name":"setVotingDelay","inputs":[{"name":"newVotingDelay","type":"uint48","internalType":"uint48"}],"outputs":[],"stateMutability":"nonpayable"},{"type":"function","name":"setVotingPeriod","inputs":[{"name":"newVotingPeriod","type":"uint32","internalType":"uint32"}],"outputs":[],"stateMutability":"nonpayable"},{"type":"function","name":"state","inputs":[{"name":"proposalId","type":"uint256","internalType":"uint256"}],"outputs":[{"name":"","type":"uint8","internalType":"enum IGovernor.ProposalState"}],"stateMutability":"view"},{"type":"function","name":"supportsInterface","inputs":[{"name":"interfaceId","type":"bytes4","internalType":"bytes4"}],"outputs":[{"name":"","type":"bool","internalType":"bool"}],"stateMutability":"view"},{"type":"function","name":"token","inputs":[],"outputs":[{"name":"","type":"address","internalType":"contract IERC5805"}],"stateMutability":"view"},{"type":"function","name":"updateQuorumNumerator","inputs":[{"name":"newQuorumNumerator","type":"uint256","internalType":"uint256"}],"outputs":[],"stateMutability":"nonpayable"},{"type":"function","name":"version","inputs":[],"outputs":[{"name":"","type":"string","internalType":"string"}],"stateMutability":"view"},{"type":"function","name":"votingDelay","inputs":[],"outputs":[{"name":"","type":"uint256","internalType":"uint256"}],"stateMutability":"view"},{"type":"function","name":"votingPeriod","inputs":[],"outputs":[{"name":"","type":"uint256","internalType":"uint256"}],"stateMutability":"view"},{"type":"event","name":"EIP712DomainChanged","inputs":[],"anonymous":false},{"type":"event","name":"ProposalCanceled","inputs":[{"name":"proposalId","type":"uint256","indexed":false,"internalType":"uint256"}],"anonymous":false},{"type":"event","name":"ProposalCreated","inputs":[{"name":"proposalId","type":"uint256","indexed":false,"internalType":"uint256"},{"name":"proposer","type":"address","indexed":false,"internalType":"address"},{"name":"targets","type":"address[]","indexed":false,"internalType":"address[]"},{"name":"values","type":"uint256[]","indexed":false,"internalType":"uint256[]"},{"name":"signatures","type":"string[]","indexed":false,"internalType":"string[]"},{"name":"calldatas","type":"bytes[]","indexed":false,"internalType":"bytes[]"},{"name":"voteStart","type":"uint256","indexed":false,"internalType":"uint256"},{"name":"voteEnd","type":"uint256","indexed":false,"internalType":"uint256"},{"name":"description","type":"string","indexed":false,"internalType":"string"}],"anonymous":false},{"type":"event","name":"ProposalExecuted","inputs":[{"name":"proposalId","type":"uint256","indexed":false,"internalType":"uint256"}],"anonymous":false},{"type":"event","name":"ProposalQueued","inputs":[{"name":"proposalId","type":"uint256","indexed":false,"internalType":"uint256"},{"name":"etaSeconds","type":"uint256","indexed":false,"internalType":"uint256"}],"anonymous":false},{"type":"event","name":"ProposalThresholdSet","inputs":[{"name":"oldProposalThreshold","type":"uint256","indexed":false,"internalType":"uint256"},{"name":"newProposalThreshold","type":"uint256","indexed":false,"internalType":"uint256"}],"anonymous":false},{"type":"event","name":"QuorumNumeratorUpdated","inputs":[{"name":"oldQuorumNumerator","type":"uint256","indexed":false,"internalType":"uint256"},{"name":"newQuorumNumerator","type":"uint256","indexed":false,"internalType":"uint256"}],"anonymous":false},{"type":"event","name":"VoteCast","inputs":[{"name":"voter","type":"address","indexed":true,"internalType":"address"},{"name":"proposalId","type":"uint256","indexed":false,"internalType":"uint256"},{"name":"support","type":"uint8","indexed":false,"internalType":"uint8"},{"name":"weight","type":"uint256","indexed":false,"internalType":"uint256"},{"name":"reason","type":"string","indexed":false,"internalType":"string"}],"anonymous":false},{"type":"event","name":"VoteCastWithParams","inputs":[{"name":"voter","type":"address","indexed":true,"internalType":"address"},{"name":"proposalId","type":"uint256","indexed":false,"internalType":"uint256"},{"name":"support","type":"uint8","indexed":false,"internalType":"uint8"},{"name":"weight","type":"uint256","indexed":false,"internalType":"uint256"},{"name":"reason","type":"string","indexed":false,"internalType":"string"},{"name":"params","type":"bytes","indexed":false,"internalType":"bytes"}],"anonymous":false},{"type":"event","name":"VotingDelaySet","inputs":[{"name":"oldVotingDelay","type":"uint256","indexed":false,"internalType":"uint256"},{"name":"newVotingDelay","type":"uint256","indexed":false,"internalType":"uint256"}],"anonymous":false},{"type":"event","name":"VotingPeriodSet","inputs":[{"name":"oldVotingPeriod","type":"uint256","indexed":false,"internalType":"uint256"},{"name":"newVotingPeriod","type":"uint256","indexed":false,"internalType":"uint256"}],"anonymous":false},{"type":"error","name":"CheckpointUnorderedInsertion","inputs":[]},{"type":"error","name":"FailedInnerCall","inputs":[]},{"type":"error","name":"GovernorAlreadyCastVote","inputs":[{"name":"voter","type":"address","internalType":"address"}]},{"type":"error","name":"GovernorAlreadyQueuedProposal","inputs":[{"name":"proposalId","type":"uint256","internalType":"uint256"}]},{"type":"error","name":"GovernorDisabledDeposit","inputs":[]},{"type":"error","name":"GovernorInsufficientProposerVotes","inputs":[{"name":"proposer","type":"address","internalType":"address"},{"name":"votes","type":"uint256","internalType":"uint256"},{"name":"threshold","type":"uint256","internalType":"uint256"}]},{"type":"error","name":"GovernorInvalidProposalLength","inputs":[{"name":"targets","type":"uint256","internalType":"uint256"},{"name":"calldatas","type":"uint256","internalType":"uint256"},{"name":"values","type":"uint256","internalType":"uint256"}]},{"type":"error","name":"GovernorInvalidQuorumFraction","inputs":[{"name":"quorumNumerator","type":"uint256","internalType":"uint256"},{"name":"quorumDenominator","type":"uint256","internalType":"uint256"}]},{"type":"error","name":"GovernorInvalidSignature","inputs":[{"name":"voter","type":"address","internalType":"address"}]},{"type":"error","name":"GovernorInvalidVoteType","inputs":[]},{"type":"error","name":"GovernorInvalidVotingPeriod","inputs":[{"name":"votingPeriod","type":"uint256","internalType":"uint256"}]},{"type":"error","name":"GovernorNonexistentProposal","inputs":[{"name":"proposalId","type":"uint256","internalType":"uint256"}]},{"type":"error","name":"GovernorNotQueuedProposal","inputs":[{"name":"proposalId","type":"uint256","internalType":"uint256"}]},{"type":"error","name":"GovernorOnlyExecutor","inputs":[{"name":"account","type":"address","internalType":"address"}]},{"type":"error","name":"GovernorOnlyProposer","inputs":[{"name":"account","type":"address","internalType":"address"}]},{"type":"error","name":"GovernorQueueNotImplemented","inputs":[]},{"type":"error","name":"GovernorRestrictedProposer","inputs":[{"name":"proposer","type":"address","internalType":"address"}]},{"type":"error","name":"GovernorUnexpectedProposalState","inputs":[{"name":"proposalId","type":"uint256","internalType":"uint256"},{"name":"current","type":"uint8","internalType":"enum IGovernor.ProposalState"},{"name":"expectedStates","type":"bytes32","internalType":"bytes32"}]},{"type":"error","name":"InvalidAccountNonce","inputs":[{"name":"account","type":"address","internalType":"address"},{"name":"currentNonce","type":"uint256","internalType":"uint256"}]},{"type":"error","name":"InvalidShortString","inputs":[]},{"type":"error","name":"QueueEmpty","inputs":[]},{"type":"error","name":"QueueFull","inputs":[]},{"type":"error","name":"SafeCastOverflowedUintDowncast","inputs":[{"name":"bits","type":"uint8","internalType":"uint8"},{"name":"value","type":"uint256","internalType":"uint256"}]},{"type":"error","name":"StringTooLong","inputs":[{"name":"str","type":"string","internalType":"string"}]}],"bytecode":{"object":"0x61018060405234801562000011575f80fd5b506040516200505038038062005050833981016040819052620000349162000721565b80858585856040518060400160405280600f81526020016e159a5c9d1d585b141c9bdd1bd8dbdb608a1b81525080620000726200017e60201b60201c565b6200007e825f62000199565b610120526200008f81600162000199565b61014052815160208084019190912060e052815190820120610100524660a0526200011c60e05161010051604080517f8b73c3c69bb8fe3d512ecc4cf759cc79239f7b179b0ffacaa9a75d522b39400f60208201529081019290925260608201524660808201523060a08201525f9060c00160405160208183030381529060405280519060200120905090565b60805250503060c05260036200013382826200082d565b5062000141905083620001d1565b6200014c8262000237565b6200015781620002dc565b5050506001600160a01b03166101605262000172816200031d565b505050505050620009a7565b6040805180820190915260018152603160f81b602082015290565b5f602083511015620001b857620001b083620003bd565b9050620001cb565b81620001c584826200082d565b5060ff90505b92915050565b6008546040805165ffffffffffff928316815291831660208301527fc565b045403dc03c2eea82b81a0465edad9e2e7fc4d97e11421c209da93d7a93910160405180910390a16008805465ffffffffffff191665ffffffffffff92909216919091179055565b8063ffffffff165f03620002655760405163f1cfbf0560e01b81525f60048201526024015b60405180910390fd5b6008546040805163ffffffff66010000000000009093048316815291831660208301527f7e3f7f0708a84de9203036abaa450dccc85ad5ff52f78c170f3edb55cf5e8828910160405180910390a16008805463ffffffff90921666010000000000000263ffffffff60301b19909216919091179055565b60075460408051918252602082018390527fccb45da8d5717e6c4544694297c4ba5cf151d455c9bb0ed4fc7a38411bc05461910160405180910390a1600755565b612710808211156200034d5760405163243e544560e01b815260048101839052602481018290526044016200025c565b5f62000358620003ff565b90506200037d620003686200041a565b62000373856200049b565b600c9190620004d4565b505060408051828152602081018590527f0553476bf02ef2726e8ce5ced78d63e26e602e4a2257b1f559418e24b4633997910160405180910390a1505050565b5f80829050601f81511115620003ea578260405163305a27a960e01b81526004016200025c9190620008f9565b8051620003f78262000947565b179392505050565b5f6200040c600c620004f0565b6001600160d01b0316905090565b5f620004266101605190565b6001600160a01b03166391ddadf46040518163ffffffff1660e01b8152600401602060405180830381865afa92505050801562000482575060408051601f3d908101601f191682019092526200047f918101906200096b565b60015b6200049657620004916200053d565b905090565b919050565b5f6001600160d01b03821115620004d0576040516306dfcc6560e41b815260d06004820152602481018390526044016200025c565b5090565b5f80620004e385858562000549565b915091505b935093915050565b80545f90801562000534576200051a836200050d60018462000987565b5f91825260209091200190565b54660100000000000090046001600160d01b031662000536565b5f5b9392505050565b5f6200049143620006d7565b82545f908190801562000679575f62000569876200050d60018562000987565b60408051808201909152905465ffffffffffff80821680845266010000000000009092046001600160d01b031660208401529192509087161015620005c157604051632520601d60e01b815260040160405180910390fd5b805165ffffffffffff808816911603620006155784620005e8886200050d60018662000987565b80546001600160d01b039290921666010000000000000265ffffffffffff90921691909117905562000668565b6040805180820190915265ffffffffffff80881682526001600160d01b0380881660208085019182528b54600181018d555f8d815291909120945191519092166601000000000000029216919091179101555b602001519250839150620004e89050565b50506040805180820190915265ffffffffffff80851682526001600160d01b0380851660208085019182528854600181018a555f8a8152918220955192519093166601000000000000029190931617920191909155905081620004e8565b5f65ffffffffffff821115620004d0576040516306dfcc6560e41b815260306004820152602481018390526044016200025c565b805165ffffffffffff8116811462000496575f80fd5b5f805f805f60a0868803121562000736575f80fd5b85516001600160a01b03811681146200074d575f80fd5b94506200075d602087016200070b565b9350604086015163ffffffff8116811462000776575f80fd5b6060870151608090970151959894975095949392505050565b634e487b7160e01b5f52604160045260245ffd5b600181811c90821680620007b857607f821691505b602082108103620007d757634e487b7160e01b5f52602260045260245ffd5b50919050565b601f8211156200082857805f5260205f20601f840160051c81016020851015620008045750805b601f840160051c820191505b8181101562000825575f815560010162000810565b50505b505050565b81516001600160401b038111156200084957620008496200078f565b62000861816200085a8454620007a3565b84620007dd565b602080601f83116001811462000897575f84156200087f5750858301515b5f19600386901b1c1916600185901b178555620008f1565b5f85815260208120601f198616915b82811015620008c757888601518255948401946001909101908401620008a6565b5085821015620008e557878501515f19600388901b60f8161c191681555b505060018460011b0185555b505050505050565b5f602080835283518060208501525f5b81811015620009275785810183015185820160400152820162000909565b505f604082860101526040601f19601f8301168501019250505092915050565b80516020808301519190811015620007d7575f1960209190910360031b1b16919050565b5f602082840312156200097c575f80fd5b62000536826200070b565b81810381811115620001cb57634e487b7160e01b5f52601160045260245ffd5b60805160a05160c05160e0516101005161012051610140516101605161463162000a1f5f395f8181610a74015281816112be0152818161175d015281816123ba01526125a501525f61238701525f61235b01525f6127c401525f61279c01525f6126f701525f61272101525f61274b01526146315ff3fe6080604052600436106102f6575f3560e01c80637d5e81e211610189578063c28bc2fa116100d8578063e540d01d11610092578063f23a6e611161006d578063f23a6e6114610a1c578063f8ce560a14610a47578063fc0c546a14610a66578063fe0d94c114610a98575f80fd5b8063e540d01d146109bf578063eb9019d4146109de578063ece40cc1146109fd575f80fd5b8063c28bc2fa146108e2578063c59057e4146108f5578063da35c66414610914578063dd4e2ba514610928578063ddf0b0091461096d578063deaaa7cc1461098c575f80fd5b80639a802a6d11610143578063ab58fb8e1161011e578063ab58fb8e1461084e578063b58131b014610884578063bc197c8114610898578063c01f9e37146108c3575f80fd5b80639a802a6d146107fc578063a7713a701461081b578063a9a952941461082f575f80fd5b80637d5e81e2146107245780637ecebe001461074357806384b0196e146107775780638ff262e31461079e57806391ddadf4146107bd57806397c3d334146107e8575f80fd5b80633e4f49e61161024557806354fd4d50116101ff5780635f398a14116101da5780635f398a14146106a857806360c4247f146106c757806379051887146106e65780637b3c71d314610705575f80fd5b806354fd4d5014610641578063567813881461066a5780635b8d0e0d14610689575f80fd5b80633e4f49e61461052857806340e58ee5146105545780634385963214610573578063452115d6146105bb5780634bf5d7e9146105da578063544ffc9c146105ee575f80fd5b8063160cbed7116102b05780632d63f6931161028b5780632d63f693146104925780632e82db94146104b15780632fe3e261146104e15780633932abb114610514575f80fd5b8063160cbed71461043157806316e9eaec146104505780632656227d1461047f575f80fd5b806301ffc9a71461030357806302a251a31461033757806306f3f9e61461036257806306fdde0314610381578063143489d0146103a2578063150b7a02146103ee575f80fd5b366102ff57005b005b5f80fd5b34801561030e575f80fd5b5061032261031d3660046135af565b610aab565b60405190151581526020015b60405180910390f35b348015610342575f80fd5b50600854600160301b900463ffffffff165b60405190815260200161032e565b34801561036d575f80fd5b506102fd61037c3660046135d6565b610b01565b34801561038c575f80fd5b50610395610b15565b60405161032e919061363a565b3480156103ad575f80fd5b506103d66103bc3660046135d6565b5f908152600460205260409020546001600160a01b031690565b6040516001600160a01b03909116815260200161032e565b3480156103f9575f80fd5b50610418610408366004613725565b630a85bd0160e11b949350505050565b6040516001600160e01b0319909116815260200161032e565b34801561043c575f80fd5b5061035461044b3660046138ee565b610ba5565b34801561045b575f80fd5b5061046f61046a3660046135d6565b610be3565b60405161032e9493929190613a41565b61035461048d3660046138ee565b610de2565b34801561049d575f80fd5b506103546104ac3660046135d6565b610f0a565b3480156104bc575f80fd5b506104d06104cb3660046135d6565b610f2a565b60405161032e959493929190613a8b565b3480156104ec575f80fd5b506103547f3e83946653575f9a39005e1545185629e92736b7528ab20ca3816f315424a81181565b34801561051f575f80fd5b50610354610f74565b348015610533575f80fd5b506105476105423660046135d6565b610f86565b60405161032e9190613b10565b34801561055f575f80fd5b506102fd61056e3660046135d6565b6110b7565b34801561057e575f80fd5b5061032261058d366004613b1e565b5f828152600b602090815260408083206001600160a01b038516845260030190915290205460ff1692915050565b3480156105c6575f80fd5b506103546105d53660046138ee565b61124e565b3480156105e5575f80fd5b506103956112ba565b3480156105f9575f80fd5b506106266106083660046135d6565b5f908152600b60205260409020805460018201546002909201549092565b6040805193845260208401929092529082015260600161032e565b34801561064c575f80fd5b506040805180820190915260018152603160f81b6020820152610395565b348015610675575f80fd5b50610354610684366004613b58565b61137a565b348015610694575f80fd5b506103546106a3366004613bbd565b6113a1565b3480156106b3575f80fd5b506103546106c2366004613c6d565b6114fd565b3480156106d2575f80fd5b506103546106e13660046135d6565b611550565b3480156106f1575f80fd5b506102fd610700366004613cfd565b6115dc565b348015610710575f80fd5b5061035461071f366004613d18565b6115ed565b34801561072f575f80fd5b5061035461073e366004613d6d565b611633565b34801561074e575f80fd5b5061035461075d366004613e19565b6001600160a01b03165f9081526002602052604090205490565b348015610782575f80fd5b5061078b611649565b60405161032e9796959493929190613e32565b3480156107a9575f80fd5b506103546107b8366004613ea1565b61168b565b3480156107c8575f80fd5b506107d161175a565b60405165ffffffffffff909116815260200161032e565b3480156107f3575f80fd5b50612710610354565b348015610807575f80fd5b50610354610816366004613eec565b6117e1565b348015610826575f80fd5b506103546117ed565b34801561083a575f80fd5b506103226108493660046135d6565b505f90565b348015610859575f80fd5b506103546108683660046135d6565b5f9081526004602052604090206001015465ffffffffffff1690565b34801561088f575f80fd5b50610354611806565b3480156108a3575f80fd5b506104186108b2366004613f3e565b63bc197c8160e01b95945050505050565b3480156108ce575f80fd5b506103546108dd3660046135d6565b611810565b6102fd6108f0366004613fc6565b611852565b348015610900575f80fd5b5061035461090f3660046138ee565b6118ce565b34801561091f575f80fd5b50600954610354565b348015610933575f80fd5b506040805180820190915260208082527f737570706f72743d627261766f2671756f72756d3d666f722c6162737461696e90820152610395565b348015610978575f80fd5b506102fd6109873660046135d6565b611907565b348015610997575f80fd5b506103547ff2aad550cf55f045cb27e9c559f9889fdfb6e6cdaa032301d6ea397784ae51d781565b3480156109ca575f80fd5b506102fd6109d9366004614003565b611a99565b3480156109e9575f80fd5b506103546109f8366004614026565b611aaa565b348015610a08575f80fd5b506102fd610a173660046135d6565b611ad0565b348015610a27575f80fd5b50610418610a3636600461404e565b63f23a6e6160e01b95945050505050565b348015610a52575f80fd5b50610354610a613660046135d6565b611ae1565b348015610a71575f80fd5b507f00000000000000000000000000000000000000000000000000000000000000006103d6565b6102fd610aa63660046135d6565b611aeb565b5f6001600160e01b031982166332a2ad4360e11b1480610adb57506001600160e01b03198216630271189760e51b145b80610af657506301ffc9a760e01b6001600160e01b03198316145b92915050565b905090565b610b09611c7d565b610b1281611cb4565b50565b606060038054610b24906140ad565b80601f0160208091040260200160405190810160405280929190818152602001828054610b50906140ad565b8015610b9b5780601f10610b7257610100808354040283529160200191610b9b565b820191905f5260205f20905b815481529060010190602001808311610b7e57829003601f168201915b5050505050905090565b5f80610bb3868686866118ce565b9050610bc881610bc36004611d4a565b611d6c565b505f604051634844252360e11b815260040160405180910390fd5b5f818152600a602090815260408083208151815460a0948102820185019093526080810183815260609586958695919485949390928492849190840182828015610c5457602002820191905f5260205f20905b81546001600160a01b03168152600190910190602001808311610c36575b5050505050815260200160018201805480602002602001604051908101604052809291908181526020018280548015610caa57602002820191905f5260205f20905b815481526020019060010190808311610c96575b5050505050815260200160028201805480602002602001604051908101604052809291908181526020015f905b82821015610d7f578382905f5260205f20018054610cf4906140ad565b80601f0160208091040260200160405190810160405280929190818152602001828054610d20906140ad565b8015610d6b5780601f10610d4257610100808354040283529160200191610d6b565b820191905f5260205f20905b815481529060010190602001808311610d4e57829003601f168201915b505050505081526020019060010190610cd7565b505050508152602001600382015481525050905080606001515f801b03610dc157604051636ad0607560e01b8152600481018790526024015b60405180910390fd5b80516020820151604083015160609093015191989097509195509350915050565b5f80610df0868686866118ce565b9050610e1081610e006005611d4a565b610e0a6004611d4a565b17611d6c565b505f818152600460205260409020805460ff60f01b1916600160f01b17905530610e373090565b6001600160a01b031614610ec0575f5b8651811015610ebe57306001600160a01b0316878281518110610e6c57610e6c6140e5565b60200260200101516001600160a01b031603610eb657610eb6858281518110610e9757610e976140e5565b6020026020010151805190602001206005611da990919063ffffffff16565b600101610e47565b505b610ecd8187878787611e19565b6040518181527f712ae1383f79ac853f8d882153778e0260ef8f03b504e2866e0593e04d2b291f906020015b60405180910390a195945050505050565b5f90815260046020526040902054600160a01b900465ffffffffffff1690565b5f60608060605f8060098781548110610f4557610f456140e5565b905f5260205f20015490505f805f80610f5d85610be3565b979e929d50909b5099509497509395505050505050565b5f610afc60085465ffffffffffff1690565b5f818152600460205260408120805460ff600160f01b8204811691600160f81b9004168115610fba57506007949350505050565b8015610fcb57506002949350505050565b5f610fd586610f0a565b9050805f03610ffa57604051636ad0607560e01b815260048101879052602401610db8565b5f61100361175a565b65ffffffffffff16905080821061102057505f9695505050505050565b5f61102a88611810565b905081811061104157506001979650505050505050565b61104a88611eee565b158061106957505f888152600b60205260409020805460019091015411155b1561107c57506003979650505050505050565b5f8881526004602052604090206001015465ffffffffffff165f036110a957506004979650505050505050565b506005979650505050505050565b5f818152600a602090815260409182902080548351818402810184019094528084529092611249929091849183018282801561111a57602002820191905f5260205f20905b81546001600160a01b031681526001909101906020018083116110fc575b50505050508260010180548060200260200160405190810160405280929190818152602001828054801561116b57602002820191905f5260205f20905b815481526020019060010190808311611157575b505050505083600201805480602002602001604051908101604052809291908181526020015f905b8282101561123b578382905f5260205f200180546111b0906140ad565b80601f01602080910402602001604051908101604052809291908181526020018280546111dc906140ad565b80156112275780601f106111fe57610100808354040283529160200191611227565b820191905f5260205f20905b81548152906001019060200180831161120a57829003601f168201915b505050505081526020019060010190611193565b50505050846003015461124e565b505050565b5f8061125c868686866118ce565b905061126b81610bc35f611d4a565b505f818152600460205260409020546001600160a01b031633146112a45760405163233d98e360e01b8152336004820152602401610db8565b6112b086868686611f24565b9695505050505050565b60607f00000000000000000000000000000000000000000000000000000000000000006001600160a01b0316634bf5d7e96040518163ffffffff1660e01b81526004015f60405180830381865afa92505050801561133957506040513d5f823e601f3d908101601f1916820160405261133691908101906140f9565b60015b611375575060408051808201909152601d81527f6d6f64653d626c6f636b6e756d6265722666726f6d3d64656661756c74000000602082015290565b919050565b5f8033905061139984828560405180602001604052805f815250611fd3565b949350505050565b5f806114828761147c7f3e83946653575f9a39005e1545185629e92736b7528ab20ca3816f315424a8118c8c8c6113f48e6001600160a01b03165f90815260026020526040902080546001810190915590565b8d8d604051611404929190614161565b60405180910390208c805190602001206040516020016114619796959493929190968752602087019590955260ff9390931660408601526001600160a01b03919091166060850152608084015260a083015260c082015260e00190565b60405160208183030381529060405280519060200120611ff4565b85612020565b9050806114ad576040516394ab6c0760e01b81526001600160a01b0388166004820152602401610db8565b6114f089888a89898080601f0160208091040260200160405190810160405280939291908181526020018383808284375f920191909152508b9250612075915050565b9998505050505050505050565b5f8033905061154587828888888080601f0160208091040260200160405190810160405280939291908181526020018383808284375f920191909152508a9250612075915050565b979650505050505050565b600c80545f918290611563600184614184565b81548110611573576115736140e5565b5f918252602090912001805490915065ffffffffffff811690600160301b90046001600160d01b03168582116115b5576001600160d01b031695945050505050565b6115c96115c18761214f565b600c90612185565b6001600160d01b03169695505050505050565b6115e4611c7d565b610b1281612234565b5f803390506112b086828787878080601f0160208091040260200160405190810160405280939291908181526020018383808284375f92019190915250611fd392505050565b5f6116408585858561229a565b95945050505050565b5f6060805f805f606061165a612354565b611662612380565b604080515f80825260208201909252600f60f81b9b939a50919850469750309650945092509050565b5f806117158461147c7ff2aad550cf55f045cb27e9c559f9889fdfb6e6cdaa032301d6ea397784ae51d78989896116de8b6001600160a01b03165f90815260026020526040902080546001810190915590565b60408051602081019690965285019390935260ff90911660608401526001600160a01b0316608083015260a082015260c001611461565b905080611740576040516394ab6c0760e01b81526001600160a01b0385166004820152602401610db8565b6112b086858760405180602001604052805f815250611fd3565b5f7f00000000000000000000000000000000000000000000000000000000000000006001600160a01b03166391ddadf46040518163ffffffff1660e01b8152600401602060405180830381865afa9250505080156117d5575060408051601f3d908101601f191682019092526117d291810190614197565b60015b61137557610afc6123ad565b5f6113998484846123b7565b5f6117f8600c61244a565b6001600160d01b0316905090565b5f610afc60075490565b5f8181526004602052604081205461184490600160d01b810463ffffffff1690600160a01b900465ffffffffffff166141b2565b65ffffffffffff1692915050565b61185a611c7d565b5f80856001600160a01b0316858585604051611877929190614161565b5f6040518083038185875af1925050503d805f81146118b1576040519150601f19603f3d011682016040523d82523d5f602084013e6118b6565b606091505b50915091506118c58282612481565b50505050505050565b5f848484846040516020016118e69493929190613a41565b60408051601f19818403018152919052805160209091012095945050505050565b5f818152600a602090815260409182902080548351818402810184019094528084529092611249929091849183018282801561196a57602002820191905f5260205f20905b81546001600160a01b0316815260019091019060200180831161194c575b5050505050826001018054806020026020016040519081016040528092919081815260200182805480156119bb57602002820191905f5260205f20905b8154815260200190600101908083116119a7575b505050505083600201805480602002602001604051908101604052809291908181526020015f905b82821015611a8b578382905f5260205f20018054611a00906140ad565b80601f0160208091040260200160405190810160405280929190818152602001828054611a2c906140ad565b8015611a775780601f10611a4e57610100808354040283529160200191611a77565b820191905f5260205f20905b815481529060010190602001808311611a5a57829003601f168201915b5050505050815260200190600101906119e3565b505050508460030154610ba5565b611aa1611c7d565b610b128161249d565b5f611ac98383611ac460408051602081019091525f815290565b6123b7565b9392505050565b611ad8611c7d565b610b1281612539565b5f610af68261257a565b5f818152600a6020908152604091829020805483518184028101840190945280845290926112499290918491830182828015611b4e57602002820191905f5260205f20905b81546001600160a01b03168152600190910190602001808311611b30575b505050505082600101805480602002602001604051908101604052809291908181526020018280548015611b9f57602002820191905f5260205f20905b815481526020019060010190808311611b8b575b505050505083600201805480602002602001604051908101604052809291908181526020015f905b82821015611c6f578382905f5260205f20018054611be4906140ad565b80601f0160208091040260200160405190810160405280929190818152602001828054611c10906140ad565b8015611c5b5780601f10611c3257610100808354040283529160200191611c5b565b820191905f5260205f20905b815481529060010190602001808311611c3e57829003601f168201915b505050505081526020019060010190611bc7565b505050508460030154610de2565b303314611c9f576040516347096e4760e01b8152336004820152602401610db8565b565b80611cac6005612622565b03611ca15750565b61271080821115611ce25760405163243e544560e01b81526004810183905260248101829052604401610db8565b5f611ceb6117ed565b9050611d0a611cf861175a565b611d018561269e565b600c91906126d1565b505060408051828152602081018590527f0553476bf02ef2726e8ce5ced78d63e26e602e4a2257b1f559418e24b4633997910160405180910390a1505050565b5f816007811115611d5d57611d5d613adc565b600160ff919091161b92915050565b5f80611d7784610f86565b90505f83611d8483611d4a565b1603611ac9578381846040516331b75e4d60e01b8152600401610db8939291906141d8565b81546001600160801b03600160801b820481169181166001830190911603611de457604051638acb5f2760e01b815260040160405180910390fd5b6001600160801b038082165f90815260018086016020526040909120939093558354919092018216600160801b029116179055565b5f5b8451811015611ee6575f80868381518110611e3857611e386140e5565b60200260200101516001600160a01b0316868481518110611e5b57611e5b6140e5565b6020026020010151868581518110611e7557611e756140e5565b6020026020010151604051611e8a91906141fa565b5f6040518083038185875af1925050503d805f8114611ec4576040519150601f19603f3d011682016040523d82523d5f602084013e611ec9565b606091505b5091509150611ed88282612481565b505050806001019050611e1b565b505050505050565b5f818152600b6020526040812060028101546001820154611f0f9190614215565b611f1b610a6185610f0a565b11159392505050565b5f80611f32868686866118ce565b9050611f8081611f426007611d4a565b611f4c6006611d4a565b611f566002611d4a565b6001611f63600782614228565b611f6e906002614321565b611f789190614184565b181818611d6c565b505f818152600460205260409081902080546001600160f81b0316600160f81b179055517f789cf55be980739dad1d0699b93b58e806b51c9d96619bfa8fe0a28abaa7b30c90610ef99083815260200190565b5f61164085858585611fef60408051602081019091525f815290565b612075565b5f610af66120006126eb565b8360405161190160f01b8152600281019290925260228201526042902090565b5f805f61202d8585612814565b5090925090505f81600381111561204657612046613adc565b1480156120645750856001600160a01b0316826001600160a01b0316145b806112b057506112b086868661285d565b5f61208486610bc36001611d4a565b505f6120998661209389610f0a565b856123b7565b90506120a88787878487612933565b82515f036120fc57856001600160a01b03167fb8e138887d0aa13bab447e82de9d5c1777041ecd21ca36ba824ff1e6c07ddda4888784886040516120ef949392919061432f565b60405180910390a26112b0565b856001600160a01b03167fe2babfbac5889a709b63bb7f598b324e08bc5a4fb9ec647fb3cbc9ec07eb8712888784888860405161213d959493929190614356565b60405180910390a29695505050505050565b5f65ffffffffffff821115612181576040516306dfcc6560e41b81526030600482015260248101839052604401610db8565b5090565b81545f90818160058111156121e1575f61219e84612a3e565b6121a89085614184565b5f8881526020902090915081015465ffffffffffff90811690871610156121d1578091506121df565b6121dc816001614215565b92505b505b5f6121ee87878585612b22565b905080156122285761221287612205600184614184565b5f91825260209091200190565b54600160301b90046001600160d01b0316611545565b5f979650505050505050565b6008546040805165ffffffffffff928316815291831660208301527fc565b045403dc03c2eea82b81a0465edad9e2e7fc4d97e11421c209da93d7a93910160405180910390a16008805465ffffffffffff191665ffffffffffff92909216919091179055565b5f336122a68184612b81565b6122ce5760405163d9b3955760e01b81526001600160a01b0382166004820152602401610db8565b5f6122f48260016122dd61175a565b6122e7919061438f565b65ffffffffffff16611aaa565b90505f6122ff611806565b90508082101561233b57604051636121770b60e11b81526001600160a01b03841660048201526024810183905260448101829052606401610db8565b6123488888888887612c69565b98975050505050505050565b6060610afc7f00000000000000000000000000000000000000000000000000000000000000005f612c77565b6060610afc7f00000000000000000000000000000000000000000000000000000000000000006001612c77565b5f610afc4361214f565b5f7f0000000000000000000000000000000000000000000000000000000000000000604051630748d63560e31b81526001600160a01b038681166004830152602482018690529190911690633a46b1a890604401602060405180830381865afa158015612426573d5f803e3d5ffd5b505050506040513d601f19601f8201168201806040525081019061139991906143ae565b80545f9080156124795761246383612205600184614184565b54600160301b90046001600160d01b0316611ac9565b5f9392505050565b6060826124965761249182612d20565b610af6565b5080610af6565b8063ffffffff165f036124c55760405163f1cfbf0560e01b81525f6004820152602401610db8565b6008546040805163ffffffff600160301b9093048316815291831660208301527f7e3f7f0708a84de9203036abaa450dccc85ad5ff52f78c170f3edb55cf5e8828910160405180910390a16008805463ffffffff909216600160301b0269ffffffff00000000000019909216919091179055565b60075460408051918252602082018390527fccb45da8d5717e6c4544694297c4ba5cf151d455c9bb0ed4fc7a38411bc05461910160405180910390a1600755565b5f61271061258783611550565b604051632394e7a360e21b8152600481018590526001600160a01b037f00000000000000000000000000000000000000000000000000000000000000001690638e539e8c90602401602060405180830381865afa1580156125ea573d5f803e3d5ffd5b505050506040513d601f19601f8201168201806040525081019061260e91906143ae565b61261891906143c5565b610af691906143f0565b80545f906001600160801b0380821691600160801b9004168103612659576040516375e52f4f60e01b815260040160405180910390fd5b6001600160801b038181165f908152600185810160205260408220805492905585546fffffffffffffffffffffffffffffffff19169301909116919091179092555090565b5f6001600160d01b03821115612181576040516306dfcc6560e41b815260d0600482015260248101839052604401610db8565b5f806126de858585612d49565b915091505b935093915050565b5f306001600160a01b037f00000000000000000000000000000000000000000000000000000000000000001614801561274357507f000000000000000000000000000000000000000000000000000000000000000046145b1561276d57507f000000000000000000000000000000000000000000000000000000000000000090565b610afc604080517f8b73c3c69bb8fe3d512ecc4cf759cc79239f7b179b0ffacaa9a75d522b39400f60208201527f0000000000000000000000000000000000000000000000000000000000000000918101919091527f000000000000000000000000000000000000000000000000000000000000000060608201524660808201523060a08201525f9060c00160405160208183030381529060405280519060200120905090565b5f805f835160410361284b576020840151604085015160608601515f1a61283d88828585612ebf565b955095509550505050612856565b505081515f91506002905b9250925092565b5f805f856001600160a01b0316858560405160240161287d92919061440f565b60408051601f198184030181529181526020820180516001600160e01b0316630b135d3f60e11b179052516128b291906141fa565b5f60405180830381855afa9150503d805f81146128ea576040519150601f19603f3d011682016040523d82523d5f602084013e6128ef565b606091505b509150915081801561290357506020815110155b80156112b057508051630b135d3f60e11b9061292890830160209081019084016143ae565b149695505050505050565b5f858152600b6020526040902060021960ff8516016129525750612a37565b6001600160a01b0385165f90815260038201602052604090205460ff1615612998576040516371c6af4960e01b81526001600160a01b0386166004820152602401610db8565b6001600160a01b0385165f9081526003820160205260409020805460ff1916600117905560ff84166129e15782815f015f8282546129d69190614215565b90915550611ee69050565b5f1960ff8516016129ff5782816001015f8282546129d69190614215565b60011960ff851601612a1e5782816002015f8282546129d69190614215565b6040516303599be160e11b815260040160405180910390fd5b5050505050565b5f815f03612a4d57505f919050565b5f6001612a5984612f87565b901c6001901b90506001818481612a7257612a726143dc565b048201901c90506001818481612a8a57612a8a6143dc565b048201901c90506001818481612aa257612aa26143dc565b048201901c90506001818481612aba57612aba6143dc565b048201901c90506001818481612ad257612ad26143dc565b048201901c90506001818481612aea57612aea6143dc565b048201901c90506001818481612b0257612b026143dc565b048201901c9050611ac981828581612b1c57612b1c6143dc565b0461301a565b5f5b81831015612b79575f612b37848461302f565b5f8781526020902090915065ffffffffffff86169082015465ffffffffffff161115612b6557809250612b73565b612b70816001614215565b93505b50612b24565b509392505050565b80515f906034811015612b98576001915050610af6565b82810160131901516001600160a01b031981166b046e0e4dee0dee6cae47a60f60a31b14612bcb57600192505050610af6565b5f80612bd8602885614184565b90505b83811015612c48575f80612c0e888481518110612bfa57612bfa6140e5565b01602001516001600160f81b031916613049565b9150915081612c265760019650505050505050610af6565b8060ff166004856001600160a01b0316901b1793505050806001019050612bdb565b50856001600160a01b0316816001600160a01b031614935050505092915050565b5f6112b086868686866130d9565b606060ff8314612c9157612c8a836131b2565b9050610af6565b818054612c9d906140ad565b80601f0160208091040260200160405190810160405280929190818152602001828054612cc9906140ad565b8015612d145780601f10612ceb57610100808354040283529160200191612d14565b820191905f5260205f20905b815481529060010190602001808311612cf757829003601f168201915b50505050509050610af6565b805115612d305780518082602001fd5b604051630a12f52160e11b815260040160405180910390fd5b82545f9081908015612e65575f612d6587612205600185614184565b60408051808201909152905465ffffffffffff808216808452600160301b9092046001600160d01b031660208401529192509087161015612db957604051632520601d60e01b815260040160405180910390fd5b805165ffffffffffff808816911603612e055784612ddc88612205600186614184565b80546001600160d01b0392909216600160301b0265ffffffffffff909216919091179055612e55565b6040805180820190915265ffffffffffff80881682526001600160d01b0380881660208085019182528b54600181018d555f8d81529190912094519151909216600160301b029216919091179101555b6020015192508391506126e39050565b50506040805180820190915265ffffffffffff80851682526001600160d01b0380851660208085019182528854600181018a555f8a815291822095519251909316600160301b0291909316179201919091559050816126e3565b5f80807f7fffffffffffffffffffffffffffffff5d576e7357a4501ddfe92f46681b20a0841115612ef857505f91506003905082612f7d565b604080515f808252602082018084528a905260ff891692820192909252606081018790526080810186905260019060a0016020604051602081039080840390855afa158015612f49573d5f803e3d5ffd5b5050604051601f1901519150506001600160a01b038116612f7457505f925060019150829050612f7d565b92505f91508190505b9450945094915050565b5f80608083901c15612f9b57608092831c92015b604083901c15612fad57604092831c92015b602083901c15612fbf57602092831c92015b601083901c15612fd157601092831c92015b600883901c15612fe357600892831c92015b600483901c15612ff557600492831c92015b600283901c1561300757600292831c92015b600183901c15610af65760010192915050565b5f8183106130285781611ac9565b5090919050565b5f61303d60028484186143f0565b611ac990848416614215565b5f8060f883901c602f811180156130635750603a8160ff16105b1561307857600194602f199091019350915050565b8060ff16604010801561308e575060478160ff16105b156130a3576001946036199091019350915050565b8060ff1660601080156130b9575060678160ff16105b156130ce576001946056199091019350915050565b505f93849350915050565b5f806130e887878787876131ef565b600980546001810182555f9182527f6e1540171b6c0c960b71a7020d9f60077f6af931a8bbf590da0223dacf75c7af01829055604080516080810182528a815260208181018b90528183018a90528851898201206060830152848452600a8152919092208251805194955092939092613165928492910190613460565b50602082810151805161317e92600185019201906134bf565b506040820151805161319a9160028401916020909101906134f8565b50606091909101516003909101559695505050505050565b60605f6131be83613409565b6040805160208082528183019092529192505f91906020820181803683375050509182525060208101929092525090565b5f61320386868686805190602001206118ce565b90508451865114158061321857508351865114155b8061322257508551155b1561325757855184518651604051630447b05d60e41b8152600481019390935260248301919091526044820152606401610db8565b5f81815260046020526040902054600160a01b900465ffffffffffff16156132a0578061328382610f86565b6040516331b75e4d60e01b8152610db89291905f906004016141d8565b5f6132a9610f74565b6132b161175a565b65ffffffffffff166132c39190614215565b90505f6132dd60085463ffffffff600160301b9091041690565b5f84815260046020526040902080546001600160a01b0319166001600160a01b03871617815590915061330f8361214f565b815465ffffffffffff91909116600160a01b0265ffffffffffff60a01b1990911617815561333c82613430565b815463ffffffff91909116600160d01b0263ffffffff60d01b1990911617815588517f7d84a6263ae0d98d3329bd7b46bb4e8d6f98cd35a7adb45c274c8b7fd5ebd5e090859087908c908c906001600160401b0381111561339f5761339f613662565b6040519080825280602002602001820160405280156133d257816020015b60608152602001906001900390816133bd5790505b508c896133df8a82614215565b8e6040516133f599989796959493929190614427565b60405180910390a150505095945050505050565b5f60ff8216601f811115610af657604051632cd44ac360e21b815260040160405180910390fd5b5f63ffffffff821115612181576040516306dfcc6560e41b81526020600482015260248101839052604401610db8565b828054828255905f5260205f209081019282156134b3579160200282015b828111156134b357825182546001600160a01b0319166001600160a01b0390911617825560209092019160019091019061347e565b50612181929150613548565b828054828255905f5260205f209081019282156134b3579160200282015b828111156134b35782518255916020019190600101906134dd565b828054828255905f5260205f2090810192821561353c579160200282015b8281111561353c578251829061352c9082614540565b5091602001919060010190613516565b5061218192915061355c565b5b80821115612181575f8155600101613549565b80821115612181575f61356f8282613578565b5060010161355c565b508054613584906140ad565b5f825580601f10613593575050565b601f0160209004905f5260205f2090810190610b129190613548565b5f602082840312156135bf575f80fd5b81356001600160e01b031981168114611ac9575f80fd5b5f602082840312156135e6575f80fd5b5035919050565b5f5b838110156136075781810151838201526020016135ef565b50505f910152565b5f81518084526136268160208601602086016135ed565b601f01601f19169290920160200192915050565b602081525f611ac9602083018461360f565b80356001600160a01b0381168114611375575f80fd5b634e487b7160e01b5f52604160045260245ffd5b604051601f8201601f191681016001600160401b038111828210171561369e5761369e613662565b604052919050565b5f6001600160401b038211156136be576136be613662565b50601f01601f191660200190565b5f6136de6136d9846136a6565b613676565b90508281528383830111156136f1575f80fd5b828260208301375f602084830101529392505050565b5f82601f830112613716575f80fd5b611ac9838335602085016136cc565b5f805f8060808587031215613738575f80fd5b6137418561364c565b935061374f6020860161364c565b92506040850135915060608501356001600160401b03811115613770575f80fd5b61377c87828801613707565b91505092959194509250565b5f6001600160401b038211156137a0576137a0613662565b5060051b60200190565b5f82601f8301126137b9575f80fd5b813560206137c96136d983613788565b8083825260208201915060208460051b8701019350868411156137ea575f80fd5b602086015b8481101561380d576138008161364c565b83529183019183016137ef565b509695505050505050565b5f82601f830112613827575f80fd5b813560206138376136d983613788565b8083825260208201915060208460051b870101935086841115613858575f80fd5b602086015b8481101561380d578035835291830191830161385d565b5f82601f830112613883575f80fd5b813560206138936136d983613788565b82815260059290921b840181019181810190868411156138b1575f80fd5b8286015b8481101561380d5780356001600160401b038111156138d2575f80fd5b6138e08986838b0101613707565b8452509183019183016138b5565b5f805f8060808587031215613901575f80fd5b84356001600160401b0380821115613917575f80fd5b613923888389016137aa565b95506020870135915080821115613938575f80fd5b61394488838901613818565b94506040870135915080821115613959575f80fd5b5061396687828801613874565b949793965093946060013593505050565b5f815180845260208085019450602084015f5b838110156139af5781516001600160a01b03168752958201959082019060010161398a565b509495945050505050565b5f815180845260208085019450602084015f5b838110156139af578151875295820195908201906001016139cd565b5f8282518085526020808601955060208260051b840101602086015f5b84811015613a3457601f19868403018952613a2283835161360f565b98840198925090830190600101613a06565b5090979650505050505050565b608081525f613a536080830187613977565b8281036020840152613a6581876139ba565b90508281036040840152613a7981866139e9565b91505082606083015295945050505050565b85815260a060208201525f613aa360a0830187613977565b8281036040840152613ab581876139ba565b90508281036060840152613ac981866139e9565b9150508260808301529695505050505050565b634e487b7160e01b5f52602160045260245ffd5b60088110613b0c57634e487b7160e01b5f52602160045260245ffd5b9052565b60208101610af68284613af0565b5f8060408385031215613b2f575f80fd5b82359150613b3f6020840161364c565b90509250929050565b803560ff81168114611375575f80fd5b5f8060408385031215613b69575f80fd5b82359150613b3f60208401613b48565b5f8083601f840112613b89575f80fd5b5081356001600160401b03811115613b9f575f80fd5b602083019150836020828501011115613bb6575f80fd5b9250929050565b5f805f805f805f60c0888a031215613bd3575f80fd5b87359650613be360208901613b48565b9550613bf16040890161364c565b945060608801356001600160401b0380821115613c0c575f80fd5b613c188b838c01613b79565b909650945060808a0135915080821115613c30575f80fd5b613c3c8b838c01613707565b935060a08a0135915080821115613c51575f80fd5b50613c5e8a828b01613707565b91505092959891949750929550565b5f805f805f60808688031215613c81575f80fd5b85359450613c9160208701613b48565b935060408601356001600160401b0380821115613cac575f80fd5b613cb889838a01613b79565b90955093506060880135915080821115613cd0575f80fd5b50613cdd88828901613707565b9150509295509295909350565b65ffffffffffff81168114610b12575f80fd5b5f60208284031215613d0d575f80fd5b8135611ac981613cea565b5f805f8060608587031215613d2b575f80fd5b84359350613d3b60208601613b48565b925060408501356001600160401b03811115613d55575f80fd5b613d6187828801613b79565b95989497509550505050565b5f805f8060808587031215613d80575f80fd5b84356001600160401b0380821115613d96575f80fd5b613da2888389016137aa565b95506020870135915080821115613db7575f80fd5b613dc388838901613818565b94506040870135915080821115613dd8575f80fd5b613de488838901613874565b93506060870135915080821115613df9575f80fd5b508501601f81018713613e0a575f80fd5b61377c878235602084016136cc565b5f60208284031215613e29575f80fd5b611ac98261364c565b60ff60f81b8816815260e060208201525f613e5060e083018961360f565b8281036040840152613e62818961360f565b606084018890526001600160a01b038716608085015260a0840186905283810360c08501529050613e9381856139ba565b9a9950505050505050505050565b5f805f8060808587031215613eb4575f80fd5b84359350613ec460208601613b48565b9250613ed26040860161364c565b915060608501356001600160401b03811115613770575f80fd5b5f805f60608486031215613efe575f80fd5b613f078461364c565b92506020840135915060408401356001600160401b03811115613f28575f80fd5b613f3486828701613707565b9150509250925092565b5f805f805f60a08688031215613f52575f80fd5b613f5b8661364c565b9450613f696020870161364c565b935060408601356001600160401b0380821115613f84575f80fd5b613f9089838a01613818565b94506060880135915080821115613fa5575f80fd5b613fb189838a01613818565b93506080880135915080821115613cd0575f80fd5b5f805f8060608587031215613fd9575f80fd5b613fe28561364c565b93506020850135925060408501356001600160401b03811115613d55575f80fd5b5f60208284031215614013575f80fd5b813563ffffffff81168114611ac9575f80fd5b5f8060408385031215614037575f80fd5b6140408361364c565b946020939093013593505050565b5f805f805f60a08688031215614062575f80fd5b61406b8661364c565b94506140796020870161364c565b9350604086013592506060860135915060808601356001600160401b038111156140a1575f80fd5b613cdd88828901613707565b600181811c908216806140c157607f821691505b6020821081036140df57634e487b7160e01b5f52602260045260245ffd5b50919050565b634e487b7160e01b5f52603260045260245ffd5b5f60208284031215614109575f80fd5b81516001600160401b0381111561411e575f80fd5b8201601f8101841361412e575f80fd5b805161413c6136d9826136a6565b818152856020838501011115614150575f80fd5b6116408260208301602086016135ed565b818382375f9101908152919050565b634e487b7160e01b5f52601160045260245ffd5b81810381811115610af657610af6614170565b5f602082840312156141a7575f80fd5b8151611ac981613cea565b65ffffffffffff8181168382160190808211156141d1576141d1614170565b5092915050565b838152606081016141ec6020830185613af0565b826040830152949350505050565b5f825161420b8184602087016135ed565b9190910192915050565b80820180821115610af657610af6614170565b60ff8181168382160190811115610af657610af6614170565b600181815b8085111561427b57815f190482111561426157614261614170565b8085161561426e57918102915b93841c9390800290614246565b509250929050565b5f8261429157506001610af6565b8161429d57505f610af6565b81600181146142b357600281146142bd576142d9565b6001915050610af6565b60ff8411156142ce576142ce614170565b50506001821b610af6565b5060208310610133831016604e8410600b84101617156142fc575081810a610af6565b6143068383614241565b805f190482111561431957614319614170565b029392505050565b5f611ac960ff841683614283565b84815260ff84166020820152826040820152608060608201525f6112b0608083018461360f565b85815260ff8516602082015283604082015260a060608201525f61437d60a083018561360f565b8281036080840152612348818561360f565b65ffffffffffff8281168282160390808211156141d1576141d1614170565b5f602082840312156143be575f80fd5b5051919050565b8082028115828204841417610af657610af6614170565b634e487b7160e01b5f52601260045260245ffd5b5f8261440a57634e487b7160e01b5f52601260045260245ffd5b500490565b828152604060208201525f611399604083018461360f565b5f6101208b8352602060018060a01b038c168185015281604085015261444f8285018c613977565b91508382036060850152614463828b6139ba565b915083820360808501528189518084528284019150828160051b850101838c015f5b838110156144b357601f198784030185526144a183835161360f565b94860194925090850190600101614485565b505086810360a08801526144c7818c6139e9565b9450505050508560c08401528460e08401528281036101008401526144ec818561360f565b9c9b505050505050505050505050565b601f82111561124957805f5260205f20601f840160051c810160208510156145215750805b601f840160051c820191505b81811015612a37575f815560010161452d565b81516001600160401b0381111561455957614559613662565b61456d8161456784546140ad565b846144fc565b602080601f8311600181146145a0575f84156145895750858301515b5f19600386901b1c1916600185901b178555611ee6565b5f85815260208120601f198616915b828110156145ce578886015182559484019460019091019084016145af565b50858210156145eb57878501515f19600388901b60f8161c191681555b5050505050600190811b0190555056fea264697066735822122001a95db806e6e0aab04a1cd21d50f77bfd764bd79177921e52d887bfd2c8aeda64736f6c63430008160033","linkReferences":{}},"methodIdentifiers":{"BALLOT_TYPEHASH()":"deaaa7cc","CLOCK_MODE()":"4bf5d7e9","COUNTING_MODE()":"dd4e2ba5","EXTENDED_BALLOT_TYPEHASH()":"2fe3e261","cancel(address[],uint256[],bytes[],bytes32)":"452115d6","cancel(uint256)":"40e58ee5","castVote(uint256,uint8)":"56781388","castVoteBySig(uint256,uint8,address,bytes)":"8ff262e3","castVoteWithReason(uint256,uint8,string)":"7b3c71d3","castVoteWithReasonAndParams(uint256,uint8,string,bytes)":"5f398a14","castVoteWithReasonAndParamsBySig(uint256,uint8,address,string,bytes,bytes)":"5b8d0e0d","clock()":"91ddadf4","eip712Domain()":"84b0196e","execute(address[],uint256[],bytes[],bytes32)":"2656227d","execute(uint256)":"fe0d94c1","getVotes(address,uint256)":"eb9019d4","getVotesWithParams(address,uint256,bytes)":"9a802a6d","hasVoted(uint256,address)":"43859632","hashProposal(address[],uint256[],bytes[],bytes32)":"c59057e4","name()":"06fdde03","nonces(address)":"7ecebe00","onERC1155BatchReceived(address,address,uint256[],uint256[],bytes)":"bc197c81","onERC1155Received(address,address,uint256,uint256,bytes)":"f23a6e61","onERC721Received(address,address,uint256,bytes)":"150b7a02","proposalCount()":"da35c664","proposalDeadline(uint256)":"c01f9e37","proposalDetails(uint256)":"16e9eaec","proposalDetailsAt(uint256)":"2e82db94","proposalEta(uint256)":"ab58fb8e","proposalNeedsQueuing(uint256)":"a9a95294","proposalProposer(uint256)":"143489d0","proposalSnapshot(uint256)":"2d63f693","proposalThreshold()":"b58131b0","proposalVotes(uint256)":"544ffc9c","propose(address[],uint256[],bytes[],string)":"7d5e81e2","queue(address[],uint256[],bytes[],bytes32)":"160cbed7","queue(uint256)":"ddf0b009","quorum(uint256)":"f8ce560a","quorumDenominator()":"97c3d334","quorumNumerator()":"a7713a70","quorumNumerator(uint256)":"60c4247f","relay(address,uint256,bytes)":"c28bc2fa","setProposalThreshold(uint256)":"ece40cc1","setVotingDelay(uint48)":"79051887","setVotingPeriod(uint32)":"e540d01d","state(uint256)":"3e4f49e6","supportsInterface(bytes4)":"01ffc9a7","token()":"fc0c546a","updateQuorumNumerator(uint256)":"06f3f9e6","version()":"54fd4d50","votingDelay()":"3932abb1","votingPeriod()":"02a251a3"},"id":28}