{"abi":[{"type":"constructor","inputs":[{"name":"router_","type":"address","internalType":"address"},{"name":"tokenIn_","type":"address","internalType":"address"},{"name":"tokenOut_","type":"address","internalType":"address"},{"name":"factory_","type":"address","internalType":"address"}],"stateMutability":"nonpayable"},{"type":"function","name":"factory","inputs":[],"outputs":[{"name":"","type":"address","internalType":"address"}],"stateMutability":"view"},{"type":"function","name":"getAmountsOut","inputs":[{"name":"amountIn","type":"uint256","internalType":"uint256"},{"name":"path","type":"address[]","internalType":"address[]"}],"outputs":[{"name":"amounts","type":"uint256[]","internalType":"uint256[]"}],"stateMutability":"view"},{"type":"function","name":"router","inputs":[],"outputs":[{"name":"","type":"address","internalType":"address"}],"stateMutability":"view"},{"type":"function","name":"swapExactTokensForTokens","inputs":[{"name":"amountIn","type":"uint256","internalType":"uint256"},{"name":"amountOutMin","type":"uint256","internalType":"uint256"},{"name":"path","type":"address[]","internalType":"address[]"},{"name":"to","type":"address","internalType":"address"},{"name":"deadline","type":"uint256","internalType":"uint256"}],"outputs":[{"name":"amounts","type":"uint256[]","internalType":"uint256[]"}],"stateMutability":"nonpayable"},{"type":"function","name":"tokenIn","inputs":[],"outputs":[{"name":"","type":"address","internalType":"address"}],"stateMutability":"view"},{"type":"function","name":"tokenOut","inputs":[],"outputs":[{"name":"","type":"address","internalType":"address"}],"stateMutability":"view"},{"type":"error","name":"AddressEmptyCode","inputs":[{"name":"target","type":"address","internalType":"address"}]},{"type":"error","name":"AddressInsufficientBalance","inputs":[{"name":"account","type":"address","internalType":"address"}]},{"type":"error","name":"FailedInnerCall","inputs":[]},{"type":"error","name":"SafeERC20FailedOperation","inputs":[{"name":"token","type":"address","internalType":"address"}]}],"bytecode":{"object":"0x608060405234801562000010575f80fd5b5060405162000d2438038062000d248339810160408190526200003391620003de565b5f80546001600160a01b038087166001600160a01b0319928316179092556001805486841690831681179091556002805486851690841617905560038054938516939092169290921790556200008c90855f1962000096565b5050505062000487565b604080516001600160a01b038416602482015260448082018490528251808303909101815260649091019091526020810180516001600160e01b0390811663095ea7b360e01b17909152620000f090859083906200016116565b6200015b57604080516001600160a01b03851660248201525f6044808301919091528251808303909101815260649091019091526020810180516001600160e01b0390811663095ea7b360e01b179091526200014f9186916200020b16565b6200015b84826200020b565b50505050565b5f805f846001600160a01b0316846040516200017e919062000438565b5f604051808303815f865af19150503d805f8114620001b9576040519150601f19603f3d011682016040523d82523d5f602084013e620001be565b606091505b5091509150818015620001ec575080511580620001ec575080806020019051810190620001ec919062000466565b80156200020257505f856001600160a01b03163b115b95945050505050565b5f620002216001600160a01b038416836200027c565b905080515f141580156200024857508080602001905181019062000246919062000466565b155b156200027757604051635274afe760e01b81526001600160a01b03841660048201526024015b60405180910390fd5b505050565b60606200028b83835f62000292565b9392505050565b606081471015620002b95760405163cd78605960e01b81523060048201526024016200026e565b5f80856001600160a01b03168486604051620002d6919062000438565b5f6040518083038185875af1925050503d805f811462000312576040519150601f19603f3d011682016040523d82523d5f602084013e62000317565b606091505b5090925090506200032a86838362000334565b9695505050505050565b6060826200034d57620003478262000398565b6200028b565b81511580156200036557506001600160a01b0384163b155b156200039057604051639996b31560e01b81526001600160a01b03851660048201526024016200026e565b50806200028b565b805115620003a95780518082602001fd5b604051630a12f52160e11b815260040160405180910390fd5b80516001600160a01b0381168114620003d9575f80fd5b919050565b5f805f8060808587031215620003f2575f80fd5b620003fd85620003c2565b93506200040d60208601620003c2565b92506200041d60408601620003c2565b91506200042d60608601620003c2565b905092959194509250565b5f82515f5b818110156200045957602081860181015185830152016200043d565b505f920191825250919050565b5f6020828403121562000477575f80fd5b815180151581146200028b575f80fd5b61088f80620004955f395ff3fe608060405234801561000f575f80fd5b5060043610610060575f3560e01c806338ed1739146100645780636daf390b1461008d578063c45a0155146100b8578063d0202d3b146100cb578063d06ca61f146100de578063f887ea40146100f1575b5f80fd5b610077610072366004610570565b610103565b60405161008491906105e9565b60405180910390f35b6001546100a0906001600160a01b031681565b6040516001600160a01b039091168152602001610084565b6003546100a0906001600160a01b031681565b6002546100a0906001600160a01b031681565b6100776100ec36600461062c565b61023f565b5f546100a0906001600160a01b031681565b6040805160018082528183019092526060915f9190816020015b604080516080810182525f8082526020808301829052928201819052606082015282525f1990920191018161011d575050604080516080810182526001546001600160a01b039081168252600254811660208301525f92820183905260035416606082015282519293509183919061019757610197610688565b60209081029190910101526001546101ba906001600160a01b031633308b61035b565b5f5460405163cac88ea960e01b81526001600160a01b039091169063cac88ea9906101f1908b908b9086908a908a90600401610706565b5f604051808303815f875af115801561020c573d5f803e3d5ffd5b505050506040513d5f823e601f3d908101601f191682016040526102339190810190610741565b98975050505050505050565b6040805160018082528183019092526060915f9190816020015b604080516080810182525f8082526020808301829052928201819052606082015282525f19909201910181610259575050604080516080810182526001546001600160a01b039081168252600254811660208301525f9282018390526003541660608201528251929350918391906102d3576102d3610688565b60209081029190910101525f54604051631542686b60e21b81526001600160a01b0390911690635509a1ac9061030f90889085906004016107ee565b5f60405180830381865afa158015610329573d5f803e3d5ffd5b505050506040513d5f823e601f3d908101601f191682016040526103509190810190610741565b9150505b9392505050565b604080516001600160a01b0385811660248301528416604482015260648082018490528251808303909101815260849091019091526020810180516001600160e01b03166323b872dd60e01b1790526103b59085906103bb565b50505050565b5f6103cf6001600160a01b03841683610426565b905080515f141580156103f35750808060200190518101906103f1919061080e565b155b1561042157604051635274afe760e01b81526001600160a01b03841660048201526024015b60405180910390fd5b505050565b606061035483835f845f80856001600160a01b0316848660405161044a919061082d565b5f6040518083038185875af1925050503d805f8114610484576040519150601f19603f3d011682016040523d82523d5f602084013e610489565b606091505b50915091506104998683836104a3565b9695505050505050565b6060826104b8576104b3826104ff565b610354565b81511580156104cf57506001600160a01b0384163b155b156104f857604051639996b31560e01b81526001600160a01b0385166004820152602401610418565b5080610354565b80511561050f5780518082602001fd5b604051630a12f52160e11b815260040160405180910390fd5b5f8083601f840112610538575f80fd5b50813567ffffffffffffffff81111561054f575f80fd5b6020830191508360208260051b8501011115610569575f80fd5b9250929050565b5f805f805f8060a08789031215610585575f80fd5b8635955060208701359450604087013567ffffffffffffffff8111156105a9575f80fd5b6105b589828a01610528565b90955093505060608701356001600160a01b03811681146105d4575f80fd5b80925050608087013590509295509295509295565b602080825282518282018190525f9190848201906040850190845b8181101561062057835183529284019291840191600101610604565b50909695505050505050565b5f805f6040848603121561063e575f80fd5b83359250602084013567ffffffffffffffff81111561065b575f80fd5b61066786828701610528565b9497909650939450505050565b634e487b7160e01b5f52604160045260245ffd5b634e487b7160e01b5f52603260045260245ffd5b5f815180845260208085019450602084015f5b838110156106fb57815180516001600160a01b039081168952848201518116858a01526040808301511515908a01526060918201511690880152608090960195908201906001016106af565b509495945050505050565b85815284602082015260a060408201525f61072460a083018661069c565b6001600160a01b0394909416606083015250608001529392505050565b5f6020808385031215610752575f80fd5b825167ffffffffffffffff80821115610769575f80fd5b818501915085601f83011261077c575f80fd5b81518181111561078e5761078e610674565b8060051b604051601f19603f830116810181811085821117156107b3576107b3610674565b6040529182528482019250838101850191888311156107d0575f80fd5b938501935b82851015610233578451845293850193928501926107d5565b828152604060208201525f610806604083018461069c565b949350505050565b5f6020828403121561081e575f80fd5b81518015158114610354575f80fd5b5f82515f5b8181101561084c5760208186018101518583015201610832565b505f92019182525091905056fea26469706673582212208c75063964f265f674660ff2f74664414063e8cde9a7edb46d902b5a6961ed9f64736f6c63430008160033","linkReferences":{}},"methodIdentifiers":{"factory()":"c45a0155","getAmountsOut(uint256,address[])":"d06ca61f","router()":"f887ea40","swapExactTokensForTokens(uint256,uint256,address[],address,uint256)":"38ed1739","tokenIn()":"6daf390b","tokenOut()":"d0202d3b"},"id":37}