{"abi":[{"type":"constructor","inputs":[],"stateMutability":"nonpayable"},{"type":"function","name":"CLOCK_MODE","inputs":[],"outputs":[{"name":"","type":"string","internalType":"string"}],"stateMutability":"view"},{"type":"function","name":"agentNft","inputs":[],"outputs":[{"name":"","type":"address","internalType":"address"}],"stateMutability":"view"},{"type":"function","name":"allowance","inputs":[{"name":"owner","type":"address","internalType":"address"},{"name":"spender","type":"address","internalType":"address"}],"outputs":[{"name":"","type":"uint256","internalType":"uint256"}],"stateMutability":"view"},{"type":"function","name":"approve","inputs":[{"name":"","type":"address","internalType":"address"},{"name":"","type":"uint256","internalType":"uint256"}],"outputs":[{"name":"","type":"bool","internalType":"bool"}],"stateMutability":"nonpayable"},{"type":"function","name":"assetToken","inputs":[],"outputs":[{"name":"","type":"address","internalType":"address"}],"stateMutability":"view"},{"type":"function","name":"balanceOf","inputs":[{"name":"account","type":"address","internalType":"address"}],"outputs":[{"name":"","type":"uint256","internalType":"uint256"}],"stateMutability":"view"},{"type":"function","name":"canStake","inputs":[],"outputs":[{"name":"","type":"bool","internalType":"bool"}],"stateMutability":"view"},{"type":"function","name":"checkpoints","inputs":[{"name":"account","type":"address","internalType":"address"},{"name":"pos","type":"uint32","internalType":"uint32"}],"outputs":[{"name":"","type":"tuple","internalType":"struct Checkpoints.Checkpoint208","components":[{"name":"_key","type":"uint48","internalType":"uint48"},{"name":"_value","type":"uint208","internalType":"uint208"}]}],"stateMutability":"view"},{"type":"function","name":"clock","inputs":[],"outputs":[{"name":"","type":"uint48","internalType":"uint48"}],"stateMutability":"view"},{"type":"function","name":"decimals","inputs":[],"outputs":[{"name":"","type":"uint8","internalType":"uint8"}],"stateMutability":"view"},{"type":"function","name":"delegate","inputs":[{"name":"delegatee","type":"address","internalType":"address"}],"outputs":[],"stateMutability":"nonpayable"},{"type":"function","name":"delegateBySig","inputs":[{"name":"delegatee","type":"address","internalType":"address"},{"name":"nonce","type":"uint256","internalType":"uint256"},{"name":"expiry","type":"uint256","internalType":"uint256"},{"name":"v","type":"uint8","internalType":"uint8"},{"name":"r","type":"bytes32","internalType":"bytes32"},{"name":"s","type":"bytes32","internalType":"bytes32"}],"outputs":[],"stateMutability":"nonpayable"},{"type":"function","name":"delegates","inputs":[{"name":"account","type":"address","internalType":"address"}],"outputs":[{"name":"","type":"address","internalType":"address"}],"stateMutability":"view"},{"type":"function","name":"eip712Domain","inputs":[],"outputs":[{"name":"fields","type":"bytes1","internalType":"bytes1"},{"name":"name","type":"string","internalType":"string"},{"name":"version","type":"string","internalType":"string"},{"name":"chainId","type":"uint256","internalType":"uint256"},{"name":"verifyingContract","type":"address","internalType":"address"},{"name":"salt","type":"bytes32","internalType":"bytes32"},{"name":"extensions","type":"uint256[]","internalType":"uint256[]"}],"stateMutability":"view"},{"type":"function","name":"founder","inputs":[],"outputs":[{"name":"","type":"address","internalType":"address"}],"stateMutability":"view"},{"type":"function","name":"getPastBalanceOf","inputs":[{"name":"account","type":"address","internalType":"address"},{"name":"timepoint","type":"uint256","internalType":"uint256"}],"outputs":[{"name":"","type":"uint256","internalType":"uint256"}],"stateMutability":"view"},{"type":"function","name":"getPastDelegates","inputs":[{"name":"account","type":"address","internalType":"address"},{"name":"timepoint","type":"uint256","internalType":"uint256"}],"outputs":[{"name":"","type":"address","internalType":"address"}],"stateMutability":"view"},{"type":"function","name":"getPastTotalSupply","inputs":[{"name":"timepoint","type":"uint256","internalType":"uint256"}],"outputs":[{"name":"","type":"uint256","internalType":"uint256"}],"stateMutability":"view"},{"type":"function","name":"getPastVotes","inputs":[{"name":"account","type":"address","internalType":"address"},{"name":"timepoint","type":"uint256","internalType":"uint256"}],"outputs":[{"name":"","type":"uint256","internalType":"uint256"}],"stateMutability":"view"},{"type":"function","name":"getVotes","inputs":[{"name":"account","type":"address","internalType":"address"}],"outputs":[{"name":"","type":"uint256","internalType":"uint256"}],"stateMutability":"view"},{"type":"function","name":"initialLock","inputs":[],"outputs":[{"name":"","type":"uint256","internalType":"uint256"}],"stateMutability":"view"},{"type":"function","name":"initialize","inputs":[{"name":"_name","type":"string","internalType":"string"},{"name":"_symbol","type":"string","internalType":"string"},{"name":"_founder","type":"address","internalType":"address"},{"name":"_assetToken","type":"address","internalType":"address"},{"name":"_matureAt","type":"uint256","internalType":"uint256"},{"name":"_agentNft","type":"address","internalType":"address"},{"name":"_canStake","type":"bool","internalType":"bool"}],"outputs":[],"stateMutability":"nonpayable"},{"type":"function","name":"matureAt","inputs":[],"outputs":[{"name":"","type":"uint256","internalType":"uint256"}],"stateMutability":"view"},{"type":"function","name":"name","inputs":[],"outputs":[{"name":"","type":"string","internalType":"string"}],"stateMutability":"view"},{"type":"function","name":"nonces","inputs":[{"name":"owner","type":"address","internalType":"address"}],"outputs":[{"name":"","type":"uint256","internalType":"uint256"}],"stateMutability":"view"},{"type":"function","name":"numCheckpoints","inputs":[{"name":"account","type":"address","internalType":"address"}],"outputs":[{"name":"","type":"uint32","internalType":"uint32"}],"stateMutability":"view"},{"type":"function","name":"setCanStake","inputs":[{"name":"_canStake","type":"bool","internalType":"bool"}],"outputs":[],"stateMutability":"nonpayable"},{"type":"function","name":"setMatureAt","inputs":[{"name":"_matureAt","type":"uint256","internalType":"uint256"}],"outputs":[],"stateMutability":"nonpayable"},{"type":"function","name":"stake","inputs":[{"name":"amount","type":"uint256","internalType":"uint256"},{"name":"receiver","type":"address","internalType":"address"},{"name":"delegatee","type":"address","internalType":"address"}],"outputs":[],"stateMutability":"nonpayable"},{"type":"function","name":"symbol","inputs":[],"outputs":[{"name":"","type":"string","internalType":"string"}],"stateMutability":"view"},{"type":"function","name":"totalSupply","inputs":[],"outputs":[{"name":"","type":"uint256","internalType":"uint256"}],"stateMutability":"view"},{"type":"function","name":"transfer","inputs":[{"name":"","type":"address","internalType":"address"},{"name":"","type":"uint256","internalType":"uint256"}],"outputs":[{"name":"","type":"bool","internalType":"bool"}],"stateMutability":"nonpayable"},{"type":"function","name":"transferFrom","inputs":[{"name":"","type":"address","internalType":"address"},{"name":"","type":"address","internalType":"address"},{"name":"","type":"uint256","internalType":"uint256"}],"outputs":[{"name":"","type":"bool","internalType":"bool"}],"stateMutability":"nonpayable"},{"type":"function","name":"withdraw","inputs":[{"name":"amount","type":"uint256","internalType":"uint256"}],"outputs":[],"stateMutability":"nonpayable"},{"type":"event","name":"Approval","inputs":[{"name":"owner","type":"address","indexed":true,"internalType":"address"},{"name":"spender","type":"address","indexed":true,"internalType":"address"},{"name":"value","type":"uint256","indexed":false,"internalType":"uint256"}],"anonymous":false},{"type":"event","name":"DelegateChanged","inputs":[{"name":"delegator","type":"address","indexed":true,"internalType":"address"},{"name":"fromDelegate","type":"address","indexed":true,"internalType":"address"},{"name":"toDelegate","type":"address","indexed":true,"internalType":"address"}],"anonymous":false},{"type":"event","name":"DelegateVotesChanged","inputs":[{"name":"delegate","type":"address","indexed":true,"internalType":"address"},{"name":"previousVotes","type":"uint256","indexed":false,"internalType":"uint256"},{"name":"newVotes","type":"uint256","indexed":false,"internalType":"uint256"}],"anonymous":false},{"type":"event","name":"EIP712DomainChanged","inputs":[],"anonymous":false},{"type":"event","name":"Initialized","inputs":[{"name":"version","type":"uint64","indexed":false,"internalType":"uint64"}],"anonymous":false},{"type":"event","name":"Transfer","inputs":[{"name":"from","type":"address","indexed":true,"internalType":"address"},{"name":"to","type":"address","indexed":true,"internalType":"address"},{"name":"value","type":"uint256","indexed":false,"internalType":"uint256"}],"anonymous":false},{"type":"error","name":"AddressEmptyCode","inputs":[{"name":"target","type":"address","internalType":"address"}]},{"type":"error","name":"AddressInsufficientBalance","inputs":[{"name":"account","type":"address","internalType":"address"}]},{"type":"error","name":"CheckpointUnorderedInsertion","inputs":[]},{"type":"error","name":"CheckpointUnorderedInsertion","inputs":[]},{"type":"error","name":"ECDSAInvalidSignature","inputs":[]},{"type":"error","name":"ECDSAInvalidSignatureLength","inputs":[{"name":"length","type":"uint256","internalType":"uint256"}]},{"type":"error","name":"ECDSAInvalidSignatureS","inputs":[{"name":"s","type":"bytes32","internalType":"bytes32"}]},{"type":"error","name":"ERC20ExceededSafeSupply","inputs":[{"name":"increasedSupply","type":"uint256","internalType":"uint256"},{"name":"cap","type":"uint256","internalType":"uint256"}]},{"type":"error","name":"ERC20InsufficientAllowance","inputs":[{"name":"spender","type":"address","internalType":"address"},{"name":"allowance","type":"uint256","internalType":"uint256"},{"name":"needed","type":"uint256","internalType":"uint256"}]},{"type":"error","name":"ERC20InsufficientBalance","inputs":[{"name":"sender","type":"address","internalType":"address"},{"name":"balance","type":"uint256","internalType":"uint256"},{"name":"needed","type":"uint256","internalType":"uint256"}]},{"type":"error","name":"ERC20InvalidApprover","inputs":[{"name":"approver","type":"address","internalType":"address"}]},{"type":"error","name":"ERC20InvalidReceiver","inputs":[{"name":"receiver","type":"address","internalType":"address"}]},{"type":"error","name":"ERC20InvalidSender","inputs":[{"name":"sender","type":"address","internalType":"address"}]},{"type":"error","name":"ERC20InvalidSpender","inputs":[{"name":"spender","type":"address","internalType":"address"}]},{"type":"error","name":"ERC5805FutureLookup","inputs":[{"name":"timepoint","type":"uint256","internalType":"uint256"},{"name":"clock","type":"uint48","internalType":"uint48"}]},{"type":"error","name":"ERC6372InconsistentClock","inputs":[]},{"type":"error","name":"FailedInnerCall","inputs":[]},{"type":"error","name":"InvalidAccountNonce","inputs":[{"name":"account","type":"address","internalType":"address"},{"name":"currentNonce","type":"uint256","internalType":"uint256"}]},{"type":"error","name":"InvalidInitialization","inputs":[]},{"type":"error","name":"NotInitializing","inputs":[]},{"type":"error","name":"SafeCastOverflowedUintDowncast","inputs":[{"name":"bits","type":"uint8","internalType":"uint8"},{"name":"value","type":"uint256","internalType":"uint256"}]},{"type":"error","name":"SafeERC20FailedOperation","inputs":[{"name":"token","type":"address","internalType":"address"}]},{"type":"error","name":"VotesExpiredSignature","inputs":[{"name":"expiry","type":"uint256","internalType":"uint256"}]}],"bytecode":{"object":"0x608060405234801562000010575f80fd5b506200001b62000021565b620000d5565b7ff0c57e16840df040f15088dc2f81fe391c3923bec73e23a9662efc9c229c6a00805468010000000000000000900460ff1615620000725760405163f92ee8a960e01b815260040160405180910390fd5b80546001600160401b0390811614620000d25780546001600160401b0319166001600160401b0390811782556040519081527fc7f505b2f371ae2175ee4913f4499e1f2633a7b5936321eed1cdaeb6115181d29060200160405180910390a15b50565b61301f80620000e35f395ff3fe608060405234801561000f575f80fd5b50600436106101fd575f3560e01c8063836f8f2011610114578063a5e881b3116100a9578063c3cda52011610079578063c3cda52014610458578063d7b7d4051461046b578063dd62ed3e1461047e578063e8867180146104d5578063f1127ed8146104e8575f80fd5b8063a5e881b31461041b578063a7d545db14610424578063a9059cbb14610437578063b2193b4d14610445575f80fd5b806395d89b41116100e457806395d89b41146103e05780639ab24eb0146103e85780639cbef4a9146103fb5780639ed278091461040e575f80fd5b8063836f8f201461038a57806384b0196e146103935780638e539e8c146103ae57806391ddadf4146103c1575f80fd5b80634bf5d7e9116101955780635ec80600116101655780635ec80600146103165780636fcfff451461032957806370a08231146103515780637e893f80146103645780637ecebe0014610377575f80fd5b80634bf5d7e9146102d55780634d853ee5146102dd578063587cde1e146102f05780635c19a95c14610303575f80fd5b806323b872dd116101d057806323b872dd1461028b5780632e1a7d4d1461029e578063313ce567146102b35780633a46b1a8146102c2575f80fd5b806306fdde0314610201578063095ea7b31461021f5780631083f7611461024257806318160ddd1461026d575b5f80fd5b610209610527565b6040516102169190612934565b60405180910390f35b61023261022d366004612961565b6105cc565b6040519015158152602001610216565b600254610255906001600160a01b031681565b6040516001600160a01b039091168152602001610216565b5f80516020612faa833981519152545b604051908152602001610216565b610232610299366004612989565b610613565b6102b16102ac3660046129c2565b610656565b005b60405160128152602001610216565b61027d6102d0366004612961565b6107e4565b610209610876565b600154610255906001600160a01b031681565b6102556102fe3660046129d9565b6108ee565b6102b16103113660046129d9565b610917565b610255610324366004612961565b610926565b61033c6103373660046129d9565b610938565b60405163ffffffff9091168152602001610216565b61027d61035f3660046129d9565b610942565b6102b16103723660046129c2565b610972565b61027d6103853660046129d9565b610a51565b61027d60065481565b61039b610a79565b60405161021697969594939291906129f2565b61027d6103bc3660046129c2565b610b22565b6103c9610b9c565b60405165ffffffffffff9091168152602001610216565b610209610baa565b61027d6103f63660046129d9565b610be8565b600354610255906001600160a01b031681565b6005546102329060ff1681565b61027d60045481565b6102b1610432366004612a89565b610c46565b610232610299366004612961565b6102b1610453366004612b6c565b61107e565b6102b1610466366004612c19565b6111ec565b61027d610479366004612961565b6112a8565b61027d61048c366004612c74565b6001600160a01b039182165f9081527f52c63247e1f47db19d5ce0460030c497f067ca4cebf71ba98eeadabe20bace016020908152604080832093909416825291909152205490565b6102b16104e3366004612ca5565b611316565b6104fb6104f6366004612cc0565b61137a565b60408051825165ffffffffffff1681526020928301516001600160d01b03169281019290925201610216565b60605f5f80516020612f8a8339815191525b905080600301805461054a90612cfd565b80601f016020809104026020016040519081016040528092919081815260200182805461057690612cfd565b80156105c15780601f10610598576101008083540402835291602001916105c1565b820191905f5260205f20905b8154815290600101906020018083116105a457829003601f168201915b505050505091505090565b60405162461bcd60e51b8152602060048201526015602482015274105c1c1c9bdd99481b9bdd081cdd5c1c1bdc9d1959605a1b60448201525f906064015b60405180910390fd5b60405162461bcd60e51b8152602060048201526016602482015275151c985b9cd9995c881b9bdd081cdd5c1c1bdc9d195960521b60448201525f9060640161060a565b60085460ff161561069a5760405162461bcd60e51b815260206004820152600e60248201526d31b0b73737ba103932b2b73a32b960911b604482015260640161060a565b6008805460ff191660011790555f6106af3390565b9050816106bb82610942565b10156107005760405162461bcd60e51b8152602060048201526014602482015273496e73756666696369656e742062616c616e636560601b604482015260640161060a565b6001546001600160a01b03828116911614801561073157506006548261072583610942565b61072f9190612d49565b105b15610779576004544210156107795760405162461bcd60e51b815260206004820152600e60248201526d139bdd081b585d1d5c99481e595d60921b604482015260640161060a565b6107838183611397565b6107bd61078e610b9c565b61079f61079a84610942565b6113cb565b6001600160a01b0384165f9081526007602052604090209190611402565b50506002546107d6906001600160a01b0316828461141c565b50506008805460ff19169055565b5f5f80516020612f6a833981519152816107fc610b9c565b90508065ffffffffffff16841061083757604051637669fc0f60e11b81526004810185905265ffffffffffff8216602482015260440161060a565b61086261084385611480565b6001600160a01b0387165f9081526001850160205260409020906114b2565b6001600160d01b0316925050505b92915050565b6060610880611562565b65ffffffffffff16610890610b9c565b65ffffffffffff16146108b6576040516301bfc1c560e61b815260040160405180910390fd5b5060408051808201909152601d81527f6d6f64653d626c6f636b6e756d6265722666726f6d3d64656661756c74000000602082015290565b6001600160a01b039081165f9081525f80516020612f6a83398151915260205260409020541690565b33610922818361156c565b5050565b5f610931838361159f565b9392505050565b5f61087082611615565b5f805f80516020612f8a8339815191525b6001600160a01b039093165f9081526020939093525050604090205490565b6003547fa49807205ce4d355092ef5a8a18f56e8913cf4a201fbe287825b095693c21775906001600160a01b03166391d1485482336040516001600160e01b031960e085901b16815260048101929092526001600160a01b03166024820152604401602060405180830381865afa1580156109ef573d5f803e3d5ffd5b505050506040513d601f19601f82011682018060405250810190610a139190612d5c565b610a4b5760405162461bcd60e51b81526020600482015260096024820152682737ba1030b236b4b760b91b604482015260640161060a565b50600455565b5f807f5ab42ced628888259c08ac98db1eb0cf702fc1501344311d8b100cd1bfe4bb00610953565b5f60608082808083815f80516020612fca8339815191528054909150158015610aa457506001810154155b610ae85760405162461bcd60e51b81526020600482015260156024820152741152540dcc4c8e88155b9a5b9a5d1a585b1a5e9959605a1b604482015260640161060a565b610af0611664565b610af86116a2565b604080515f80825260208201909252600f60f81b9c939b5091995046985030975095509350915050565b5f5f80516020612f6a83398151915281610b3a610b9c565b90508065ffffffffffff168410610b7557604051637669fc0f60e11b81526004810185905265ffffffffffff8216602482015260440161060a565b610b8b610b8185611480565b60028401906114b2565b6001600160d01b0316949350505050565b5f610ba5611562565b905090565b7f52c63247e1f47db19d5ce0460030c497f067ca4cebf71ba98eeadabe20bace0480546060915f80516020612f8a8339815191529161054a90612cfd565b6001600160a01b0381165f9081527fe8b26c30fad74198956032a3533d903385d56dd795af560196f9c78d4af40d01602052604081205f80516020612f6a83398151915290610c36906116b8565b6001600160d01b03169392505050565b60055460ff1680610c6357505f80516020612faa83398151915254155b610cbd5760405162461bcd60e51b815260206004820152602560248201527f5374616b696e672069732064697361626c656420666f722070726976617465206044820152641859d95b9d60da1b606482015260840161060a565b3383610cfc5760405162461bcd60e51b815260206004820152600e60248201526d043616e6e6f74207374616b6520360941b604482015260640161060a565b6002546040516370a0823160e01b81526001600160a01b038381166004830152869216906370a0823190602401602060405180830381865afa158015610d44573d5f803e3d5ffd5b505050506040513d601f19601f82011682018060405250810190610d689190612d77565b1015610db65760405162461bcd60e51b815260206004820181905260248201527f496e73756666696369656e7420617373657420746f6b656e2062616c616e6365604482015260640161060a565b600254604051636eb1769f60e11b81526001600160a01b0383811660048301523060248301528692169063dd62ed3e90604401602060405180830381865afa158015610e04573d5f803e3d5ffd5b505050506040513d601f19601f82011682018060405250810190610e289190612d77565b1015610e815760405162461bcd60e51b815260206004820152602260248201527f496e73756666696369656e7420617373657420746f6b656e20616c6c6f77616e604482015261636560f01b606482015260840161060a565b60035460405163225742f560e11b81523060048201526001600160a01b03909116905f9082906344ae85ea90602401602060405180830381865afa158015610ecb573d5f803e3d5ffd5b505050506040513d601f19601f82011682018060405250810190610eef9190612d77565b604051634752f9ef60e01b8152600481018290529091506001600160a01b03831690634752f9ef90602401602060405180830381865afa158015610f35573d5f803e3d5ffd5b505050506040513d601f19601f82011682018060405250810190610f599190612d5c565b15610f9a5760405162461bcd60e51b81526020600482015260116024820152701059d95b9d08109b1858dadb1a5cdd1959607a1b604482015260640161060a565b5f80516020612faa833981519152545f03610fb55760068690555b604051634b56175360e01b8152600481018290526001600160a01b038581166024830152831690634b561753906044015f604051808303815f87803b158015610ffc575f80fd5b505af115801561100e573d5f803e3d5ffd5b505060025461102b92506001600160a01b031690508430896116ef565b611035858761172e565b61103f858561156c565b61107461104a610b9c565b61105661079a88610942565b6001600160a01b0388165f9081526007602052604090209190611402565b5050505050505050565b7ff0c57e16840df040f15088dc2f81fe391c3923bec73e23a9662efc9c229c6a008054600160401b810460ff16159067ffffffffffffffff165f811580156110c35750825b90505f8267ffffffffffffffff1660011480156110df5750303b155b9050811580156110ed575080155b1561110b5760405163f92ee8a960e01b815260040160405180910390fd5b845467ffffffffffffffff19166001178555831561113557845460ff60401b1916600160401b1785555b61113f8c8c611762565b611147611774565b600180546001600160a01b03199081166001600160a01b038d81169190911790925560048a90556002805482168c8416179055600380549091169189169190911790556005805460ff191687151517905583156111de57845460ff60401b19168555604051600181527fc7f505b2f371ae2175ee4913f4499e1f2633a7b5936321eed1cdaeb6115181d29060200160405180910390a15b505050505050505050505050565b8342111561121057604051632341d78760e11b81526004810185905260240161060a565b604080517fe48329057bfd03d55e49b547132e39cffd9c1820ad7b9d4c5307691425d15adf60208201526001600160a01b0388169181019190915260608101869052608081018590525f90611289906112819060a0016040516020818303038152906040528051906020012061177e565b8585856117aa565b905061129581876117d6565b61129f818861156c565b50505050505050565b5f806112b2610b9c565b90508065ffffffffffff1683106112ed57604051637669fc0f60e11b81526004810184905265ffffffffffff8216602482015260440161060a565b610b8b6112f984611480565b6001600160a01b0386165f908152600760205260409020906114b2565b6001546001600160a01b0316336001600160a01b0316146113675760405162461bcd60e51b815260206004820152600b60248201526a2737ba103337bab73232b960a91b604482015260640161060a565b6005805460ff1916911515919091179055565b604080518082019091525f80825260208201526109318383611847565b6001600160a01b0382166113c057604051634b637e8f60e11b81525f600482015260240161060a565b610922825f836118a8565b5f6001600160d01b038211156113fe576040516306dfcc6560e41b815260d060048201526024810183905260440161060a565b5090565b5f8061140f8585856118b3565b915091505b935093915050565b6040516001600160a01b0383811660248301526044820183905261147b91859182169063a9059cbb906064015b604051602081830303815290604052915060e01b6020820180516001600160e01b038381831617835250505050611a29565b505050565b5f65ffffffffffff8211156113fe576040516306dfcc6560e41b8152603060048201526024810183905260440161060a565b81545f908181600581111561150e575f6114cb84611a8a565b6114d59085612d49565b5f8881526020902090915081015465ffffffffffff90811690871610156114fe5780915061150c565b611509816001612d8e565b92505b505b5f61151b87878585611b6e565b905080156115555761153f87611532600184612d49565b5f91825260209091200190565b54600160301b90046001600160d01b0316611557565b5f5b979650505050505050565b5f610ba543611480565b6115768282611bcd565b610922611581610b9c565b6001600160a01b0384165f9081526020819052604090209083611c54565b5f806115a9610b9c565b90508065ffffffffffff1683106115e457604051637669fc0f60e11b81526004810184905265ffffffffffff8216602482015260440161060a565b61160d6115f084611480565b6001600160a01b0386165f90815260208190526040902090611c5f565b949350505050565b6001600160a01b0381165f9081527fe8b26c30fad74198956032a3533d903385d56dd795af560196f9c78d4af40d0160205260408120545f80516020612f6a8339815191529061093190611d1f565b7fa16a46d94261c7517cc8ff89f61c0ce93598e3c849801011dee649a6a557d10280546060915f80516020612fca8339815191529161054a90612cfd565b60605f5f80516020612fca833981519152610539565b80545f9080156116e7576116d183611532600184612d49565b54600160301b90046001600160d01b0316610931565b5f9392505050565b6040516001600160a01b0384811660248301528381166044830152606482018390526117289186918216906323b872dd90608401611449565b50505050565b6001600160a01b0382166117575760405163ec442f0560e01b81525f600482015260240161060a565b6109225f83836118a8565b61176a611d4f565b6109228282611d98565b61177c611d4f565b565b5f61087061178a611de8565b8360405161190160f01b8152600281019290925260228201526042902090565b5f805f806117ba88888888611df1565b9250925092506117ca8282611eb9565b50909695505050505050565b6001600160a01b0382165f9081527f5ab42ced628888259c08ac98db1eb0cf702fc1501344311d8b100cd1bfe4bb006020526040902080546001810190915581811461147b576040516301d4b62360e61b81526001600160a01b03841660048201526024810182905260440161060a565b6040805180820182525f80825260208083018290526001600160a01b03861682527fe8b26c30fad74198956032a3533d903385d56dd795af560196f9c78d4af40d019052919091205f80516020612f6a8339815191529061160d9084611f71565b61147b838383611fde565b82545f90819080156119cf575f6118cf87611532600185612d49565b60408051808201909152905465ffffffffffff808216808452600160301b9092046001600160d01b03166020840152919250908716101561192357604051632520601d60e01b815260040160405180910390fd5b805165ffffffffffff80881691160361196f578461194688611532600186612d49565b80546001600160d01b0392909216600160301b0265ffffffffffff9092169190911790556119bf565b6040805180820190915265ffffffffffff80881682526001600160d01b0380881660208085019182528b54600181018d555f8d81529190912094519151909216600160301b029216919091179101555b6020015192508391506114149050565b50506040805180820190915265ffffffffffff80851682526001600160d01b0380851660208085019182528854600181018a555f8a815291822095519251909316600160301b029190931617920191909155905081611414565b5f611a3d6001600160a01b03841683612050565b905080515f14158015611a61575080806020019051810190611a5f9190612d5c565b155b1561147b57604051635274afe760e01b81526001600160a01b038416600482015260240161060a565b5f815f03611a9957505f919050565b5f6001611aa58461205d565b901c6001901b90506001818481611abe57611abe612da1565b048201901c90506001818481611ad657611ad6612da1565b048201901c90506001818481611aee57611aee612da1565b048201901c90506001818481611b0657611b06612da1565b048201901c90506001818481611b1e57611b1e612da1565b048201901c90506001818481611b3657611b36612da1565b048201901c90506001818481611b4e57611b4e612da1565b048201901c905061093181828581611b6857611b68612da1565b046120f0565b5f5b81831015611bc5575f611b838484612105565b5f8781526020902090915065ffffffffffff86169082015465ffffffffffff161115611bb157809250611bbf565b611bbc816001612d8e565b93505b50611b70565b509392505050565b5f80516020612f6a8339815191525f611be5846108ee565b6001600160a01b038581165f8181526020869052604080822080546001600160a01b031916898616908117909155905194955093928516927f3134e8a2e6d97e929a7e54011ea5485d7d196dd5f0ba4d4ef95803e8e3fc257f9190a46117288184611c4f8761211f565b612129565b61147b83838361229f565b81545f9081816005811115611cce575f611c7884611a8a565b611c829085612d49565b9050865f018181548110611c9857611c98612db5565b5f9182526020909120015465ffffffffffff9081169087161015611cbe57809150611ccc565b611cc9816001612d8e565b92505b505b5f611cdb87878585612457565b905080156115555786611cef600183612d49565b81548110611cff57611cff612db5565b5f91825260209091200154600160301b90046001600160a01b0316611557565b5f63ffffffff8211156113fe576040516306dfcc6560e41b8152602060048201526024810183905260440161060a565b7ff0c57e16840df040f15088dc2f81fe391c3923bec73e23a9662efc9c229c6a0054600160401b900460ff1661177c57604051631afcd79f60e31b815260040160405180910390fd5b611da0611d4f565b5f80516020612f8a8339815191527f52c63247e1f47db19d5ce0460030c497f067ca4cebf71ba98eeadabe20bace03611dd98482612e14565b50600481016117288382612e14565b5f610ba56124be565b5f80807f7fffffffffffffffffffffffffffffff5d576e7357a4501ddfe92f46681b20a0841115611e2a57505f91506003905082611eaf565b604080515f808252602082018084528a905260ff891692820192909252606081018790526080810186905260019060a0016020604051602081039080840390855afa158015611e7b573d5f803e3d5ffd5b5050604051601f1901519150506001600160a01b038116611ea657505f925060019150829050611eaf565b92505f91508190505b9450945094915050565b5f826003811115611ecc57611ecc612ed4565b03611ed5575050565b6001826003811115611ee957611ee9612ed4565b03611f075760405163f645eedf60e01b815260040160405180910390fd5b6002826003811115611f1b57611f1b612ed4565b03611f3c5760405163fce698f760e01b81526004810182905260240161060a565b6003826003811115611f5057611f50612ed4565b03610922576040516335e2f38360e21b81526004810182905260240161060a565b604080518082019091525f8082526020820152825f018263ffffffff1681548110611f9e57611f9e612db5565b5f9182526020918290206040805180820190915291015465ffffffffffff81168252600160301b90046001600160d01b0316918101919091529392505050565b611fe9838383612531565b6001600160a01b038316612045575f61200d5f80516020612faa8339815191525490565b90506001600160d01b038082111561204257604051630e58ae9360e11b8152600481018390526024810182905260440161060a565b50505b61147b83838361266a565b606061093183835f6126db565b5f80608083901c1561207157608092831c92015b604083901c1561208357604092831c92015b602083901c1561209557602092831c92015b601083901c156120a757601092831c92015b600883901c156120b957600892831c92015b600483901c156120cb57600492831c92015b600283901c156120dd57600292831c92015b600183901c156108705760010192915050565b5f8183106120fe5781610931565b5090919050565b5f6121136002848418612ee8565b61093190848416612d8e565b5f61087082610942565b5f80516020612f6a8339815191526001600160a01b038481169084161480159061215257505f82115b15611728576001600160a01b038416156121fb576001600160a01b0384165f9081526001820160205260408120819061219690612774612191876113cb565b61277f565b6001600160d01b031691506001600160d01b03169150856001600160a01b03167fdec2bacdd2f05b59de34da9b523dff8be42e5e38e818c82fdb0bae774387a72483836040516121f0929190918252602082015260400190565b60405180910390a250505b6001600160a01b03831615611728576001600160a01b0383165f90815260018201602052604081208190612235906127aa612191876113cb565b6001600160d01b031691506001600160d01b03169150846001600160a01b03167fdec2bacdd2f05b59de34da9b523dff8be42e5e38e818c82fdb0bae774387a724838360405161228f929190918252602082015260400190565b60405180910390a2505050505050565b825480156123f0575f846122b4600184612d49565b815481106122c4576122c4612db5565b5f9182526020918290206040805180820190915291015465ffffffffffff808216808452600160301b9092046001600160a01b031693830193909352909250908516101561232557604051632520601d60e01b815260040160405180910390fd5b805165ffffffffffff808616911603612388578285612345600185612d49565b8154811061235557612355612db5565b905f5260205f20015f0160066101000a8154816001600160a01b0302191690836001600160a01b031602179055506123ea565b6040805180820190915265ffffffffffff80861682526001600160a01b0380861660208085019182528954600181018b555f8b8152919091209451940180549151909216600160301b026001600160d01b031990911693909216929092171790555b50611728565b6040805180820190915265ffffffffffff80851682526001600160a01b0380851660208085019182528854600181018a555f8a8152919091209451940180549151909216600160301b026001600160d01b0319909116939092169290921717905550505050565b5f5b81831015611bc5575f61246c8484612105565b90508465ffffffffffff1686828154811061248957612489612db5565b5f9182526020909120015465ffffffffffff1611156124aa578092506124b8565b6124b5816001612d8e565b93505b50612459565b5f7f8b73c3c69bb8fe3d512ecc4cf759cc79239f7b179b0ffacaa9a75d522b39400f6124e86127b5565b6124f061281d565b60408051602081019490945283019190915260608201524660808201523060a082015260c00160405160208183030381529060405280519060200120905090565b5f80516020612f8a8339815191526001600160a01b03841661256b5781816002015f8282546125609190612d8e565b909155506125db9050565b6001600160a01b0384165f90815260208290526040902054828110156125bd5760405163391434e360e21b81526001600160a01b0386166004820152602481018290526044810184905260640161060a565b6001600160a01b0385165f9081526020839052604090209083900390555b6001600160a01b0383166125f9576002810180548390039055612617565b6001600160a01b0383165f9081526020829052604090208054830190555b826001600160a01b0316846001600160a01b03167fddf252ad1be2c89b69c2b068fc378daa952ba7f163c4a11628f55a4df523b3ef8460405161265c91815260200190565b60405180910390a350505050565b5f80516020612f6a8339815191526001600160a01b03841661269c57612699816002016127aa612191856113cb565b50505b6001600160a01b0383166126c0576126bd81600201612774612191856113cb565b50505b6117286126cc856108ee565b6126d5856108ee565b84612129565b6060814710156127005760405163cd78605960e01b815230600482015260240161060a565b5f80856001600160a01b0316848660405161271b9190612f07565b5f6040518083038185875af1925050503d805f8114612755576040519150601f19603f3d011682016040523d82523d5f602084013e61275a565b606091505b509150915061276a86838361285f565b9695505050505050565b5f6109318284612f22565b5f8061140f61278c610b9c565b6127a2612798886116b8565b868863ffffffff16565b879190611402565b5f6109318284612f49565b5f5f80516020612fca833981519152816127cd611664565b8051909150156127e557805160209091012092915050565b815480156127f4579392505050565b7fc5d2460186f7233c927e7db2dcc703c0e500b653ca82273b7bfad8045d85a470935050505090565b5f5f80516020612fca833981519152816128356116a2565b80519091501561284d57805160209091012092915050565b600182015480156127f4579392505050565b6060826128745761286f826128bb565b610931565b815115801561288b57506001600160a01b0384163b155b156128b457604051639996b31560e01b81526001600160a01b038516600482015260240161060a565b5080610931565b8051156128cb5780518082602001fd5b604051630a12f52160e11b815260040160405180910390fd5b50565b5f5b838110156129015781810151838201526020016128e9565b50505f910152565b5f81518084526129208160208601602086016128e7565b601f01601f19169290920160200192915050565b602081525f6109316020830184612909565b80356001600160a01b038116811461295c575f80fd5b919050565b5f8060408385031215612972575f80fd5b61297b83612946565b946020939093013593505050565b5f805f6060848603121561299b575f80fd5b6129a484612946565b92506129b260208501612946565b9150604084013590509250925092565b5f602082840312156129d2575f80fd5b5035919050565b5f602082840312156129e9575f80fd5b61093182612946565b60ff60f81b881681525f602060e06020840152612a1260e084018a612909565b8381036040850152612a24818a612909565b606085018990526001600160a01b038816608086015260a0850187905284810360c0860152855180825260208088019350909101905f5b81811015612a7757835183529284019291840191600101612a5b565b50909c9b505050505050505050505050565b5f805f60608486031215612a9b575f80fd5b83359250612aab60208501612946565b9150612ab960408501612946565b90509250925092565b634e487b7160e01b5f52604160045260245ffd5b5f82601f830112612ae5575f80fd5b813567ffffffffffffffff80821115612b0057612b00612ac2565b604051601f8301601f19908116603f01168101908282118183101715612b2857612b28612ac2565b81604052838152866020858801011115612b40575f80fd5b836020870160208301375f602085830101528094505050505092915050565b80151581146128e4575f80fd5b5f805f805f805f60e0888a031215612b82575f80fd5b873567ffffffffffffffff80821115612b99575f80fd5b612ba58b838c01612ad6565b985060208a0135915080821115612bba575f80fd5b50612bc78a828b01612ad6565b965050612bd660408901612946565b9450612be460608901612946565b935060808801359250612bf960a08901612946565b915060c0880135612c0981612b5f565b8091505092959891949750929550565b5f805f805f8060c08789031215612c2e575f80fd5b612c3787612946565b95506020870135945060408701359350606087013560ff81168114612c5a575f80fd5b9598949750929560808101359460a0909101359350915050565b5f8060408385031215612c85575f80fd5b612c8e83612946565b9150612c9c60208401612946565b90509250929050565b5f60208284031215612cb5575f80fd5b813561093181612b5f565b5f8060408385031215612cd1575f80fd5b612cda83612946565b9150602083013563ffffffff81168114612cf2575f80fd5b809150509250929050565b600181811c90821680612d1157607f821691505b602082108103612d2f57634e487b7160e01b5f52602260045260245ffd5b50919050565b634e487b7160e01b5f52601160045260245ffd5b8181038181111561087057610870612d35565b5f60208284031215612d6c575f80fd5b815161093181612b5f565b5f60208284031215612d87575f80fd5b5051919050565b8082018082111561087057610870612d35565b634e487b7160e01b5f52601260045260245ffd5b634e487b7160e01b5f52603260045260245ffd5b601f82111561147b57805f5260205f20601f840160051c81016020851015612dee5750805b601f840160051c820191505b81811015612e0d575f8155600101612dfa565b5050505050565b815167ffffffffffffffff811115612e2e57612e2e612ac2565b612e4281612e3c8454612cfd565b84612dc9565b602080601f831160018114612e75575f8415612e5e5750858301515b5f19600386901b1c1916600185901b178555612ecc565b5f85815260208120601f198616915b82811015612ea357888601518255948401946001909101908401612e84565b5085821015612ec057878501515f19600388901b60f8161c191681555b505060018460011b0185555b505050505050565b634e487b7160e01b5f52602160045260245ffd5b5f82612f0257634e487b7160e01b5f52601260045260245ffd5b500490565b5f8251612f188184602087016128e7565b9190910192915050565b6001600160d01b03828116828216039080821115612f4257612f42612d35565b5092915050565b6001600160d01b03818116838216019080821115612f4257612f42612d3556fee8b26c30fad74198956032a3533d903385d56dd795af560196f9c78d4af40d0052c63247e1f47db19d5ce0460030c497f067ca4cebf71ba98eeadabe20bace0052c63247e1f47db19d5ce0460030c497f067ca4cebf71ba98eeadabe20bace02a16a46d94261c7517cc8ff89f61c0ce93598e3c849801011dee649a6a557d100a2646970667358221220e611397b8696cb3eb22be98bcb27f7d71dd2bd2dc989d0098c559bb8aa98568164736f6c63430008160033","linkReferences":{}},"methodIdentifiers":{"CLOCK_MODE()":"4bf5d7e9","agentNft()":"9cbef4a9","allowance(address,address)":"dd62ed3e","approve(address,uint256)":"095ea7b3","assetToken()":"1083f761","balanceOf(address)":"70a08231","canStake()":"9ed27809","checkpoints(address,uint32)":"f1127ed8","clock()":"91ddadf4","decimals()":"313ce567","delegate(address)":"5c19a95c","delegateBySig(address,uint256,uint256,uint8,bytes32,bytes32)":"c3cda520","delegates(address)":"587cde1e","eip712Domain()":"84b0196e","founder()":"4d853ee5","getPastBalanceOf(address,uint256)":"d7b7d405","getPastDelegates(address,uint256)":"5ec80600","getPastTotalSupply(uint256)":"8e539e8c","getPastVotes(address,uint256)":"3a46b1a8","getVotes(address)":"9ab24eb0","initialLock()":"836f8f20","initialize(string,string,address,address,uint256,address,bool)":"b2193b4d","matureAt()":"a5e881b3","name()":"06fdde03","nonces(address)":"7ecebe00","numCheckpoints(address)":"6fcfff45","setCanStake(bool)":"e8867180","setMatureAt(uint256)":"7e893f80","stake(uint256,address,address)":"a7d545db","symbol()":"95d89b41","totalSupply()":"18160ddd","transfer(address,uint256)":"a9059cbb","transferFrom(address,address,uint256)":"23b872dd","withdraw(uint256)":"2e1a7d4d"},"id":57}