{"abi":[{"type":"constructor","inputs":[],"stateMutability":"nonpayable"},{"type":"function","name":"DENOM","inputs":[],"outputs":[{"name":"","type":"uint256","internalType":"uint256"}],"stateMutability":"view"},{"type":"function","name":"agentNft","inputs":[],"outputs":[{"name":"","type":"address","internalType":"address"}],"stateMutability":"view"},{"type":"function","name":"contributionNft","inputs":[],"outputs":[{"name":"","type":"address","internalType":"address"}],"stateMutability":"view"},{"type":"function","name":"impactMulOverrides","inputs":[{"name":"","type":"uint256","internalType":"uint256"}],"outputs":[{"name":"","type":"uint256","internalType":"uint256"}],"stateMutability":"view"},{"type":"function","name":"impactMultiplier","inputs":[],"outputs":[{"name":"","type":"uint256","internalType":"uint256"}],"stateMutability":"view"},{"type":"function","name":"initialize","inputs":[{"name":"serviceAddress","type":"address","internalType":"address"},{"name":"contributionAddress","type":"address","internalType":"address"},{"name":"agentAddress","type":"address","internalType":"address"},{"name":"ipShare_","type":"uint256","internalType":"uint256"},{"name":"impactMultiplier_","type":"uint256","internalType":"uint256"},{"name":"ipVault_","type":"address","internalType":"address"},{"name":"agentFactory_","type":"address","internalType":"address"},{"name":"initialOwner","type":"address","internalType":"address"},{"name":"maxImpact_","type":"uint256","internalType":"uint256"}],"outputs":[],"stateMutability":"nonpayable"},{"type":"function","name":"ipShare","inputs":[],"outputs":[{"name":"","type":"uint256","internalType":"uint256"}],"stateMutability":"view"},{"type":"function","name":"ipShareOverrides","inputs":[{"name":"","type":"uint256","internalType":"uint256"}],"outputs":[{"name":"","type":"uint256","internalType":"uint256"}],"stateMutability":"view"},{"type":"function","name":"ipVault","inputs":[],"outputs":[{"name":"","type":"address","internalType":"address"}],"stateMutability":"view"},{"type":"function","name":"maxImpact","inputs":[],"outputs":[{"name":"","type":"uint256","internalType":"uint256"}],"stateMutability":"view"},{"type":"function","name":"mint","inputs":[{"name":"nftId","type":"uint256","internalType":"uint256"}],"outputs":[],"stateMutability":"nonpayable"},{"type":"function","name":"owner","inputs":[],"outputs":[{"name":"","type":"address","internalType":"address"}],"stateMutability":"view"},{"type":"function","name":"renounceOwnership","inputs":[],"outputs":[],"stateMutability":"nonpayable"},{"type":"function","name":"saveToken","inputs":[{"name":"_token","type":"address","internalType":"address"},{"name":"_receiver","type":"address","internalType":"address"},{"name":"_amount","type":"uint256","internalType":"uint256"}],"outputs":[],"stateMutability":"nonpayable"},{"type":"function","name":"serviceNft","inputs":[],"outputs":[{"name":"","type":"address","internalType":"address"}],"stateMutability":"view"},{"type":"function","name":"setAgentFactory","inputs":[{"name":"_factory","type":"address","internalType":"address"}],"outputs":[],"stateMutability":"nonpayable"},{"type":"function","name":"setContributionNft","inputs":[{"name":"contributionAddress","type":"address","internalType":"address"}],"outputs":[],"stateMutability":"nonpayable"},{"type":"function","name":"setIPShare","inputs":[{"name":"_ipShare","type":"uint256","internalType":"uint256"}],"outputs":[],"stateMutability":"nonpayable"},{"type":"function","name":"setIPShareOverride","inputs":[{"name":"virtualId","type":"uint256","internalType":"uint256"},{"name":"_ipShare","type":"uint256","internalType":"uint256"}],"outputs":[],"stateMutability":"nonpayable"},{"type":"function","name":"setIPVault","inputs":[{"name":"_ipVault","type":"address","internalType":"address"}],"outputs":[],"stateMutability":"nonpayable"},{"type":"function","name":"setImpactMulOverride","inputs":[{"name":"virtualId","type":"uint256","internalType":"uint256"},{"name":"mul","type":"uint256","internalType":"uint256"}],"outputs":[],"stateMutability":"nonpayable"},{"type":"function","name":"setImpactMultiplier","inputs":[{"name":"_multiplier","type":"uint256","internalType":"uint256"}],"outputs":[],"stateMutability":"nonpayable"},{"type":"function","name":"setMaxImpact","inputs":[{"name":"maxImpact_","type":"uint256","internalType":"uint256"}],"outputs":[],"stateMutability":"nonpayable"},{"type":"function","name":"setServiceNft","inputs":[{"name":"serviceAddress","type":"address","internalType":"address"}],"outputs":[],"stateMutability":"nonpayable"},{"type":"function","name":"transferOwnership","inputs":[{"name":"newOwner","type":"address","internalType":"address"}],"outputs":[],"stateMutability":"nonpayable"},{"type":"event","name":"AgentIPShareUpdated","inputs":[{"name":"virtualId","type":"uint256","indexed":true,"internalType":"uint256"},{"name":"newMultiplier","type":"uint256","indexed":false,"internalType":"uint256"}],"anonymous":false},{"type":"event","name":"AgentImpactMultiplierUpdated","inputs":[{"name":"virtualId","type":"uint256","indexed":true,"internalType":"uint256"},{"name":"newMultiplier","type":"uint256","indexed":false,"internalType":"uint256"}],"anonymous":false},{"type":"event","name":"IPShareUpdated","inputs":[{"name":"newMultiplier","type":"uint256","indexed":false,"internalType":"uint256"}],"anonymous":false},{"type":"event","name":"ImpactMultiplierUpdated","inputs":[{"name":"newMultiplier","type":"uint256","indexed":false,"internalType":"uint256"}],"anonymous":false},{"type":"event","name":"Initialized","inputs":[{"name":"version","type":"uint64","indexed":false,"internalType":"uint64"}],"anonymous":false},{"type":"event","name":"OwnershipTransferred","inputs":[{"name":"previousOwner","type":"address","indexed":true,"internalType":"address"},{"name":"newOwner","type":"address","indexed":true,"internalType":"address"}],"anonymous":false},{"type":"event","name":"TokenSaved","inputs":[{"name":"by","type":"address","indexed":true,"internalType":"address"},{"name":"receiver","type":"address","indexed":true,"internalType":"address"},{"name":"token","type":"address","indexed":true,"internalType":"address"},{"name":"amount","type":"uint256","indexed":false,"internalType":"uint256"}],"anonymous":false},{"type":"error","name":"AddressEmptyCode","inputs":[{"name":"target","type":"address","internalType":"address"}]},{"type":"error","name":"AddressInsufficientBalance","inputs":[{"name":"account","type":"address","internalType":"address"}]},{"type":"error","name":"FailedInnerCall","inputs":[]},{"type":"error","name":"InvalidInitialization","inputs":[]},{"type":"error","name":"NotInitializing","inputs":[]},{"type":"error","name":"OwnableInvalidOwner","inputs":[{"name":"owner","type":"address","internalType":"address"}]},{"type":"error","name":"OwnableUnauthorizedAccount","inputs":[{"name":"account","type":"address","internalType":"address"}]},{"type":"error","name":"SafeERC20FailedOperation","inputs":[{"name":"token","type":"address","internalType":"address"}]}],"bytecode":{"object":"0x608060405234801561000f575f80fd5b5061001861001d565b6100cf565b7ff0c57e16840df040f15088dc2f81fe391c3923bec73e23a9662efc9c229c6a00805468010000000000000000900460ff161561006d5760405163f92ee8a960e01b815260040160405180910390fd5b80546001600160401b03908116146100cc5780546001600160401b0319166001600160401b0390811782556040519081527fc7f505b2f371ae2175ee4913f4499e1f2633a7b5936321eed1cdaeb6115181d29060200160405180910390a15b50565b6116e9806100dc5f395ff3fe608060405234801561000f575f80fd5b506004361061016d575f3560e01c80637caf9073116100d9578063a0712d6811610093578063e56efef51161006e578063e56efef51461032f578063f2fde38b14610341578063f62d500814610354578063fb720a1614610367575f80fd5b8063a0712d6814610300578063a414a37214610313578063d11a675c14610326575f80fd5b80637caf9073146102655780637cc1ce9e146102785780638da5cb5b1461028b5780639863bbe5146102bb5780639afdb2c2146102da5780639cbef4a9146102ed575f80fd5b80632bfd2dd81161012a5780632bfd2dd8146101fc5780634ad4c19c1461020f578063542377181461022e5780636846545414610237578063715018a61461024a5780637a6649e114610252575f80fd5b806307c1aa1a146101715780630a2f51dc146101a15780630dceec23146101b657806316343da4146101c95780631c56b1df146101e05780632a964f7e146101f3575b5f80fd5b600154610184906001600160a01b031681565b6040516001600160a01b0390911681526020015b60405180910390f35b6101b46101af366004611317565b61037a565b005b6101b46101c4366004611332565b6103a4565b6101d261271081565b604051908152602001610198565b6101b46101ee366004611317565b6103b1565b6101d260045481565b6101b461020a366004611349565b6103db565b6101d261021d366004611332565b60086020525f908152604090205481565b6101d260065481565b6101b4610245366004611332565b6105c4565b6101b4610608565b6101b4610260366004611332565b61061b565b6101b4610273366004611317565b610658565b6101b4610286366004611317565b610688565b7f9016d09d72d40fdae2fd8ceac6b6234c7706214fd39c1cd1e609a0528c199300546001600160a01b0316610184565b6101d26102c9366004611332565b60096020525f908152604090205481565b6101b46102e83660046113e4565b6106b1565b600254610184906001600160a01b031681565b6101b461030e366004611332565b61072f565b600354610184906001600160a01b031681565b6101d260055481565b5f54610184906001600160a01b031681565b6101b461034f366004611317565b610e19565b6101b4610362366004611422565b610e56565b6101b4610375366004611422565b610eae565b610382610fcc565b600380546001600160a01b0319166001600160a01b0392909216919091179055565b6103ac610fcc565b600655565b6103b9610fcc565b600180546001600160a01b0319166001600160a01b0392909216919091179055565b7ff0c57e16840df040f15088dc2f81fe391c3923bec73e23a9662efc9c229c6a008054600160401b810460ff16159067ffffffffffffffff165f811580156104205750825b90505f8267ffffffffffffffff16600114801561043c5750303b155b90508115801561044a575080155b156104685760405163f92ee8a960e01b815260040160405180910390fd5b845467ffffffffffffffff19166001178555831561049257845460ff60401b1916600160401b1785555b61049b87611027565b8d5f806101000a8154816001600160a01b0302191690836001600160a01b031602179055508c60015f6101000a8154816001600160a01b0302191690836001600160a01b031602179055508b60025f6101000a8154816001600160a01b0302191690836001600160a01b031602179055508a600481905550896005819055508860035f6101000a8154816001600160a01b0302191690836001600160a01b0316021790555087600a60016101000a8154816001600160a01b0302191690836001600160a01b031602179055508560068190555083156105b457845460ff60401b19168555604051600181527fc7f505b2f371ae2175ee4913f4499e1f2633a7b5936321eed1cdaeb6115181d29060200160405180910390a15b5050505050505050505050505050565b6105cc610fcc565b60058190556040518181527ffd7acb0863c4ee814c494dda5a7889b7823328b7b3518cfd0d5881c6b7de4694906020015b60405180910390a150565b610610610fcc565b6106195f611038565b565b610623610fcc565b60048190556040518181527f9e4bbaa2f4ca6ad925ae5b0cf0127f1b1c7efb69bdb88fac377ccc1fde7668b6906020016105fd565b610660610fcc565b600a80546001600160a01b0390921661010002610100600160a81b0319909216919091179055565b610690610fcc565b5f80546001600160a01b0319166001600160a01b0392909216919091179055565b6106b9610fcc565b6106cd6001600160a01b03841683836110a8565b826001600160a01b0316826001600160a01b03166106e83390565b6001600160a01b03167f30d87cec6b4c56cede1018725d1e6d9304e2f7ee6d25b004b7e2183f793f26bc8460405161072291815260200190565b60405180910390a4505050565b600a5460ff16156107785760405162461bcd60e51b815260206004820152600e60248201526d31b0b73737ba103932b2b73a32b960911b60448201526064015b60405180910390fd5b600a805460ff191660011790555f8181526007602052604090205460ff16156107d45760405162461bcd60e51b815260206004820152600e60248201526d105b1c9958591e481b5a5b9d195960921b604482015260640161076f565b60015460405163ccc16f6960e01b8152600481018390525f916001600160a01b03169063ccc16f6990602401602060405180830381865afa15801561081b573d5f803e3d5ffd5b505050506040513d601f19601f8201168201806040525081019061083f9190611442565b9050805f036108825760405162461bcd60e51b815260206004820152600f60248201526e1059d95b9d081b9bdd08199bdd5b99608a1b604482015260640161076f565b5f82815260076020526040808220805460ff191660011790556002549051635652386760e11b8152600481018490526001600160a01b039091169063aca470ce906024015f60405180830381865afa1580156108e0573d5f803e3d5ffd5b505050506040513d5f823e601f3d908101601f1916820160405261090791908101906114c7565b60200151600154604051638209c69960e01b8152600481018690529192506001600160a01b0316908190638209c69990602401602060405180830381865afa158015610955573d5f803e3d5ffd5b505050506040513d601f19601f8201168201806040525081019061097991906115f0565b6109c55760405162461bcd60e51b815260206004820152601860248201527f4e6f742061206d6f64656c20636f6e747269627574696f6e0000000000000000604482015260640161076f565b5f6109cf846110ff565b6040516360a58cbd60e11b8152600481018790529091505f906001600160a01b0384169063c14b197a90602401602060405180830381865afa158015610a17573d5f803e3d5ffd5b505050506040513d601f19601f82011682018060405250810190610a3b9190611442565b5f805460405163e6aed85760e01b8152600481018a905292935090916001600160a01b039091169063e6aed85790602401602060405180830381865afa158015610a87573d5f803e3d5ffd5b505050506040513d601f19601f82011682018060405250810190610aab9190611442565b9050600654811115610abc57506006545b5f612710610aca8584611623565b610adc90670de0b6b3a7640000611623565b610ae6919061163a565b90505f808411610af6575f610b8c565b5f5460405163e6aed85760e01b8152600481018690526127109187916001600160a01b039091169063e6aed85790602401602060405180830381865afa158015610b42573d5f803e3d5ffd5b505050506040513d601f19601f82011682018060405250810190610b669190611442565b610b709190611623565b610b8290670de0b6b3a7640000611623565b610b8c919061163a565b90505f6127106004548385610ba19190611659565b610bab9190611623565b610bb5919061163a565b90508215610c9f576001546040516331a9108f60e11b8152600481018c90525f916001600160a01b031690636352211e90602401602060405180830381865afa158015610c04573d5f803e3d5ffd5b505050506040513d601f19601f82011682018060405250810190610c28919061166c565b60405163a9059cbb60e01b81526001600160a01b03808316600483015260248201879052919250908a169063a9059cbb906044016020604051808303815f875af1158015610c78573d5f803e3d5ffd5b505050506040513d601f19601f82011682018060405250810190610c9c91906115f0565b50505b8415610d87576001546040516331a9108f60e11b8152600481018790525f916001600160a01b031690636352211e90602401602060405180830381865afa158015610cec573d5f803e3d5ffd5b505050506040513d601f19601f82011682018060405250810190610d10919061166c565b60405163a9059cbb60e01b81526001600160a01b03808316600483015260248201869052919250908a169063a9059cbb906044016020604051808303815f875af1158015610d60573d5f803e3d5ffd5b505050506040513d601f19601f82011682018060405250810190610d8491906115f0565b50505b8015610e035760035460405163a9059cbb60e01b81526001600160a01b039182166004820152602481018390529089169063a9059cbb906044016020604051808303815f875af1158015610ddd573d5f803e3d5ffd5b505050506040513d601f19601f82011682018060405250810190610e0191906115f0565b505b5050600a805460ff191690555050505050505050565b610e21610fcc565b6001600160a01b038116610e4a57604051631e4fbdf760e01b81525f600482015260240161076f565b610e5381611038565b50565b610e5e610fcc565b5f82815260086020526040908190208290555182907f9aaa975f1dff38a27549d33f7427d17b874eca174092041f2487ce5d8edaed5690610ea29084815260200190565b60405180910390a25050565b600254604051635652386760e11b81526004810184905283915f916001600160a01b039091169063aca470ce906024015f60405180830381865afa158015610ef8573d5f803e3d5ffd5b505050506040513d5f823e601f3d908101601f19168201604052610f1f91908101906114c7565b5190506001600160a01b0381163314610f7a5760405162461bcd60e51b815260206004820152601a60248201527f4f6e6c79204167656e742044414f2063616e206f706572617465000000000000604482015260640161076f565b5f84815260096020526040908190208490555184907f321b7627bf4bead82276d804d9f54a66c3da4fa43a3619ccea184b233a34278590610fbe9086815260200190565b60405180910390a250505050565b33610ffe7f9016d09d72d40fdae2fd8ceac6b6234c7706214fd39c1cd1e609a0528c199300546001600160a01b031690565b6001600160a01b0316146106195760405163118cdaa760e01b815233600482015260240161076f565b61102f61111f565b610e5381611168565b7f9016d09d72d40fdae2fd8ceac6b6234c7706214fd39c1cd1e609a0528c19930080546001600160a01b031981166001600160a01b03848116918217845560405192169182907f8be0079c531659141344cd1fd0a4f28419497f9722a3daafe3b4186f6b6457e0905f90a3505050565b604080516001600160a01b038416602482015260448082018490528251808303909101815260649091019091526020810180516001600160e01b031663a9059cbb60e01b1790526110fa908490611170565b505050565b5f8181526008602052604081205480820361111957506005545b92915050565b7ff0c57e16840df040f15088dc2f81fe391c3923bec73e23a9662efc9c229c6a0054600160401b900460ff1661061957604051631afcd79f60e31b815260040160405180910390fd5b610e2161111f565b5f6111846001600160a01b038416836111d1565b905080515f141580156111a85750808060200190518101906111a691906115f0565b155b156110fa57604051635274afe760e01b81526001600160a01b038416600482015260240161076f565b60606111de83835f6111e5565b9392505050565b60608147101561120a5760405163cd78605960e01b815230600482015260240161076f565b5f80856001600160a01b031684866040516112259190611687565b5f6040518083038185875af1925050503d805f811461125f576040519150601f19603f3d011682016040523d82523d5f602084013e611264565b606091505b509150915061127486838361127e565b9695505050505050565b6060826112935761128e826112da565b6111de565b81511580156112aa57506001600160a01b0384163b155b156112d357604051639996b31560e01b81526001600160a01b038516600482015260240161076f565b50806111de565b8051156112ea5780518082602001fd5b604051630a12f52160e11b815260040160405180910390fd5b6001600160a01b0381168114610e53575f80fd5b5f60208284031215611327575f80fd5b81356111de81611303565b5f60208284031215611342575f80fd5b5035919050565b5f805f805f805f805f6101208a8c031215611362575f80fd5b893561136d81611303565b985060208a013561137d81611303565b975060408a013561138d81611303565b965060608a0135955060808a0135945060a08a01356113ab81611303565b935060c08a01356113bb81611303565b925060e08a01356113cb81611303565b809250506101008a013590509295985092959850929598565b5f805f606084860312156113f6575f80fd5b833561140181611303565b9250602084013561141181611303565b929592945050506040919091013590565b5f8060408385031215611433575f80fd5b50508035926020909101359150565b5f60208284031215611452575f80fd5b5051919050565b634e487b7160e01b5f52604160045260245ffd5b60405160a0810167ffffffffffffffff8111828210171561149057611490611459565b60405290565b604051601f8201601f1916810167ffffffffffffffff811182821017156114bf576114bf611459565b604052919050565b5f60208083850312156114d8575f80fd5b825167ffffffffffffffff808211156114ef575f80fd5b9084019060a08287031215611502575f80fd5b61150a61146d565b825161151581611303565b81528284015161152481611303565b81850152604083015161153681611303565b6040820152606083015161154981611303565b606082015260808301518281111561155f575f80fd5b80840193505086601f840112611573575f80fd5b82518281111561158557611585611459565b8060051b9250611596858401611496565b81815292840185019285810190898511156115af575f80fd5b948601945b848610156115de578551925060ff831683146115ce575f80fd5b82825294860194908601906115b4565b60808401525090979650505050505050565b5f60208284031215611600575f80fd5b815180151581146111de575f80fd5b634e487b7160e01b5f52601160045260245ffd5b80820281158282048414176111195761111961160f565b5f8261165457634e487b7160e01b5f52601260045260245ffd5b500490565b808201808211156111195761111961160f565b5f6020828403121561167c575f80fd5b81516111de81611303565b5f82515f5b818110156116a6576020818601810151858301520161168c565b505f92019182525091905056fea2646970667358221220d679359b7b0072cfa16259e9a56a4bdf87fd3bb85323a060f2334fd27a3e971364736f6c63430008160033","linkReferences":{}},"methodIdentifiers":{"DENOM()":"16343da4","agentNft()":"9cbef4a9","contributionNft()":"07c1aa1a","impactMulOverrides(uint256)":"4ad4c19c","impactMultiplier()":"d11a675c","initialize(address,address,address,uint256,uint256,address,address,address,uint256)":"2bfd2dd8","ipShare()":"2a964f7e","ipShareOverrides(uint256)":"9863bbe5","ipVault()":"a414a372","maxImpact()":"54237718","mint(uint256)":"a0712d68","owner()":"8da5cb5b","renounceOwnership()":"715018a6","saveToken(address,address,uint256)":"9afdb2c2","serviceNft()":"e56efef5","setAgentFactory(address)":"7caf9073","setContributionNft(address)":"1c56b1df","setIPShare(uint256)":"7a6649e1","setIPShareOverride(uint256,uint256)":"fb720a16","setIPVault(address)":"0a2f51dc","setImpactMulOverride(uint256,uint256)":"f62d5008","setImpactMultiplier(uint256)":"68465454","setMaxImpact(uint256)":"0dceec23","setServiceNft(address)":"7cc1ce9e","transferOwnership(address)":"f2fde38b"},"id":50}