{"abi":[{"type":"constructor","inputs":[],"stateMutability":"nonpayable"},{"type":"function","name":"ADMIN_ROLE","inputs":[],"outputs":[{"name":"","type":"bytes32","internalType":"bytes32"}],"stateMutability":"view"},{"type":"function","name":"DEFAULT_ADMIN_ROLE","inputs":[],"outputs":[{"name":"","type":"bytes32","internalType":"bytes32"}],"stateMutability":"view"},{"type":"function","name":"EXECUTOR_ROLE","inputs":[],"outputs":[{"name":"","type":"bytes32","internalType":"bytes32"}],"stateMutability":"view"},{"type":"function","name":"agentNft","inputs":[],"outputs":[{"name":"","type":"address","internalType":"contract IAgentNft"}],"stateMutability":"view"},{"type":"function","name":"agentTaxAmounts","inputs":[{"name":"agentId","type":"uint256","internalType":"uint256"}],"outputs":[{"name":"amountCollected","type":"uint256","internalType":"uint256"},{"name":"amountSwapped","type":"uint256","internalType":"uint256"}],"stateMutability":"view"},{"type":"function","name":"assetToken","inputs":[],"outputs":[{"name":"","type":"address","internalType":"address"}],"stateMutability":"view"},{"type":"function","name":"creatorFeeRate","inputs":[],"outputs":[{"name":"","type":"uint16","internalType":"uint16"}],"stateMutability":"view"},{"type":"function","name":"dcaSell","inputs":[{"name":"agentIds","type":"uint256[]","internalType":"uint256[]"},{"name":"slippage","type":"uint256","internalType":"uint256"},{"name":"maxOverride","type":"uint256","internalType":"uint256"}],"outputs":[],"stateMutability":"nonpayable"},{"type":"function","name":"feeRate","inputs":[],"outputs":[{"name":"","type":"uint16","internalType":"uint16"}],"stateMutability":"view"},{"type":"function","name":"getRoleAdmin","inputs":[{"name":"role","type":"bytes32","internalType":"bytes32"}],"outputs":[{"name":"","type":"bytes32","internalType":"bytes32"}],"stateMutability":"view"},{"type":"function","name":"grantRole","inputs":[{"name":"role","type":"bytes32","internalType":"bytes32"},{"name":"account","type":"address","internalType":"address"}],"outputs":[],"stateMutability":"nonpayable"},{"type":"function","name":"handleAgentTaxes","inputs":[{"name":"agentId","type":"uint256","internalType":"uint256"},{"name":"txhashes","type":"bytes32[]","internalType":"bytes32[]"},{"name":"amounts","type":"uint256[]","internalType":"uint256[]"},{"name":"minOutput","type":"uint256","internalType":"uint256"}],"outputs":[],"stateMutability":"nonpayable"},{"type":"function","name":"hasRole","inputs":[{"name":"role","type":"bytes32","internalType":"bytes32"},{"name":"account","type":"address","internalType":"address"}],"outputs":[{"name":"","type":"bool","internalType":"bool"}],"stateMutability":"view"},{"type":"function","name":"initialize","inputs":[{"name":"defaultAdmin_","type":"address","internalType":"address"},{"name":"assetToken_","type":"address","internalType":"address"},{"name":"taxToken_","type":"address","internalType":"address"},{"name":"router_","type":"address","internalType":"address"},{"name":"treasury_","type":"address","internalType":"address"},{"name":"minSwapThreshold_","type":"uint256","internalType":"uint256"},{"name":"maxSwapThreshold_","type":"uint256","internalType":"uint256"},{"name":"nft_","type":"address","internalType":"address"}],"outputs":[],"stateMutability":"nonpayable"},{"type":"function","name":"maxSwapThreshold","inputs":[],"outputs":[{"name":"","type":"uint256","internalType":"uint256"}],"stateMutability":"view"},{"type":"function","name":"minSwapThreshold","inputs":[],"outputs":[{"name":"","type":"uint256","internalType":"uint256"}],"stateMutability":"view"},{"type":"function","name":"renounceRole","inputs":[{"name":"role","type":"bytes32","internalType":"bytes32"},{"name":"callerConfirmation","type":"address","internalType":"address"}],"outputs":[],"stateMutability":"nonpayable"},{"type":"function","name":"revokeRole","inputs":[{"name":"role","type":"bytes32","internalType":"bytes32"},{"name":"account","type":"address","internalType":"address"}],"outputs":[],"stateMutability":"nonpayable"},{"type":"function","name":"router","inputs":[],"outputs":[{"name":"","type":"address","internalType":"contract IRouter"}],"stateMutability":"view"},{"type":"function","name":"supportsInterface","inputs":[{"name":"interfaceId","type":"bytes4","internalType":"bytes4"}],"outputs":[{"name":"","type":"bool","internalType":"bool"}],"stateMutability":"view"},{"type":"function","name":"taxHistory","inputs":[{"name":"txhash","type":"bytes32","internalType":"bytes32"}],"outputs":[{"name":"agentId","type":"uint256","internalType":"uint256"},{"name":"amount","type":"uint256","internalType":"uint256"}],"stateMutability":"view"},{"type":"function","name":"taxToken","inputs":[],"outputs":[{"name":"","type":"address","internalType":"address"}],"stateMutability":"view"},{"type":"function","name":"tbaBonus","inputs":[],"outputs":[{"name":"","type":"address","internalType":"contract ITBABonus"}],"stateMutability":"view"},{"type":"function","name":"treasury","inputs":[],"outputs":[{"name":"","type":"address","internalType":"address"}],"stateMutability":"view"},{"type":"function","name":"updateCreator","inputs":[{"name":"agentId","type":"uint256","internalType":"uint256"},{"name":"creator","type":"address","internalType":"address"}],"outputs":[],"stateMutability":"nonpayable"},{"type":"function","name":"updateSwapParams","inputs":[{"name":"router_","type":"address","internalType":"address"},{"name":"assetToken_","type":"address","internalType":"address"},{"name":"feeRate_","type":"uint16","internalType":"uint16"},{"name":"creatorFeeRate_","type":"uint16","internalType":"uint16"}],"outputs":[],"stateMutability":"nonpayable"},{"type":"function","name":"updateSwapThresholds","inputs":[{"name":"minSwapThreshold_","type":"uint256","internalType":"uint256"},{"name":"maxSwapThreshold_","type":"uint256","internalType":"uint256"}],"outputs":[],"stateMutability":"nonpayable"},{"type":"function","name":"updateTbaBonus","inputs":[{"name":"tbaBonus_","type":"address","internalType":"address"}],"outputs":[],"stateMutability":"nonpayable"},{"type":"function","name":"updateTreasury","inputs":[{"name":"treasury_","type":"address","internalType":"address"}],"outputs":[],"stateMutability":"nonpayable"},{"type":"function","name":"withdraw","inputs":[{"name":"token","type":"address","internalType":"address"}],"outputs":[],"stateMutability":"nonpayable"},{"type":"event","name":"CreatorUpdated","inputs":[{"name":"agentId","type":"uint256","indexed":false,"internalType":"uint256"},{"name":"oldCreator","type":"address","indexed":false,"internalType":"address"},{"name":"newCreator","type":"address","indexed":false,"internalType":"address"}],"anonymous":false},{"type":"event","name":"Initialized","inputs":[{"name":"version","type":"uint64","indexed":false,"internalType":"uint64"}],"anonymous":false},{"type":"event","name":"RoleAdminChanged","inputs":[{"name":"role","type":"bytes32","indexed":true,"internalType":"bytes32"},{"name":"previousAdminRole","type":"bytes32","indexed":true,"internalType":"bytes32"},{"name":"newAdminRole","type":"bytes32","indexed":true,"internalType":"bytes32"}],"anonymous":false},{"type":"event","name":"RoleGranted","inputs":[{"name":"role","type":"bytes32","indexed":true,"internalType":"bytes32"},{"name":"account","type":"address","indexed":true,"internalType":"address"},{"name":"sender","type":"address","indexed":true,"internalType":"address"}],"anonymous":false},{"type":"event","name":"RoleRevoked","inputs":[{"name":"role","type":"bytes32","indexed":true,"internalType":"bytes32"},{"name":"account","type":"address","indexed":true,"internalType":"address"},{"name":"sender","type":"address","indexed":true,"internalType":"address"}],"anonymous":false},{"type":"event","name":"SwapExecuted","inputs":[{"name":"agentId","type":"uint256","indexed":true,"internalType":"uint256"},{"name":"taxTokenAmount","type":"uint256","indexed":false,"internalType":"uint256"},{"name":"assetTokenAmount","type":"uint256","indexed":false,"internalType":"uint256"}],"anonymous":false},{"type":"event","name":"SwapFailed","inputs":[{"name":"agentId","type":"uint256","indexed":true,"internalType":"uint256"},{"name":"taxTokenAmount","type":"uint256","indexed":false,"internalType":"uint256"}],"anonymous":false},{"type":"event","name":"SwapParamsUpdated2","inputs":[{"name":"oldRouter","type":"address","indexed":false,"internalType":"address"},{"name":"newRouter","type":"address","indexed":false,"internalType":"address"},{"name":"oldAsset","type":"address","indexed":false,"internalType":"address"},{"name":"newAsset","type":"address","indexed":false,"internalType":"address"},{"name":"oldFeeRate","type":"uint16","indexed":false,"internalType":"uint16"},{"name":"newFeeRate","type":"uint16","indexed":false,"internalType":"uint16"},{"name":"oldCreatorFeeRate","type":"uint16","indexed":false,"internalType":"uint16"},{"name":"newCreatorFeeRate","type":"uint16","indexed":false,"internalType":"uint16"}],"anonymous":false},{"type":"event","name":"SwapThresholdUpdated","inputs":[{"name":"oldMinThreshold","type":"uint256","indexed":false,"internalType":"uint256"},{"name":"newMinThreshold","type":"uint256","indexed":false,"internalType":"uint256"},{"name":"oldMaxThreshold","type":"uint256","indexed":false,"internalType":"uint256"},{"name":"newMaxThreshold","type":"uint256","indexed":false,"internalType":"uint256"}],"anonymous":false},{"type":"event","name":"TaxCollected","inputs":[{"name":"txhash","type":"bytes32","indexed":true,"internalType":"bytes32"},{"name":"agentId","type":"uint256","indexed":false,"internalType":"uint256"},{"name":"amount","type":"uint256","indexed":false,"internalType":"uint256"}],"anonymous":false},{"type":"event","name":"TreasuryUpdated","inputs":[{"name":"oldTreasury","type":"address","indexed":false,"internalType":"address"},{"name":"newTreasury","type":"address","indexed":false,"internalType":"address"}],"anonymous":false},{"type":"error","name":"AccessControlBadConfirmation","inputs":[]},{"type":"error","name":"AccessControlUnauthorizedAccount","inputs":[{"name":"account","type":"address","internalType":"address"},{"name":"neededRole","type":"bytes32","internalType":"bytes32"}]},{"type":"error","name":"AddressEmptyCode","inputs":[{"name":"target","type":"address","internalType":"address"}]},{"type":"error","name":"AddressInsufficientBalance","inputs":[{"name":"account","type":"address","internalType":"address"}]},{"type":"error","name":"FailedInnerCall","inputs":[]},{"type":"error","name":"InvalidInitialization","inputs":[]},{"type":"error","name":"NotInitializing","inputs":[]},{"type":"error","name":"SafeERC20FailedOperation","inputs":[{"name":"token","type":"address","internalType":"address"}]},{"type":"error","name":"TxHashExists","inputs":[{"name":"txhash","type":"bytes32","internalType":"bytes32"}]}],"bytecode":{"object":"0x608080604052346100b8577ff0c57e16840df040f15088dc2f81fe391c3923bec73e23a9662efc9c229c6a009081549060ff8260401c166100a957506001600160401b036002600160401b031982821601610064575b60405161202190816100bd8239f35b6001600160401b031990911681179091556040519081527fc7f505b2f371ae2175ee4913f4499e1f2633a7b5936321eed1cdaeb6115181d290602090a15f8080610055565b63f92ee8a960e01b8152600490fd5b5f80fdfe608080604052600480361015610013575f80fd5b5f3560e01c91826301ffc9a7146111305750816305a1189d146110ff57816307bd0265146110c55781631083f7611461109e57816315ca79ac146110355781631fc928ae1461100d578163248a9ca314610fd65781632f2ff15d14610f8e57816336568abe14610f4b57816338c2769814610f1a57816351cff8d914610e7d57816361d027b314610e5557816375b238fc14610e1b5781637f51bb1f14610daa5781638764495314610d8e57816391d1485414610d3a57816395fafd6614610aac578163978bbdb914610a885781639cbef4a914610a60578163a217fddf14610a46578163acef1a4414610a29578163afb360cb14610845578163c16dabaf14610542578163d547741f146104fa578163d628547c146104b0578163d825c3f014610393578163dc0685ac14610367578163df39429314610346578163f8361bab14610194575063f887ea4014610168575f80fd5b34610190575f366003190112610190576002546040516001600160a01b039091168152602090f35b5f80fd5b34610190576040366003190112610190578035906101b0611182565b5f838152600a6020526040902080549192916001600160a01b0391828216156102b9575b600191500190815493818516938433148015610282575b1561023e577f39c3f4941511e634a0c6b084e012b034d79512f771d654ac69a50c86ad1dea7d60608888888888881680936001600160601b0360a01b1617905560405192835260208301526040820152a1005b60649060206040519162461bcd60e51b8352820152601760248201527f4f6e6c792063726561746f722063616e207570646174650000000000000000006044820152fd5b50335f9081527fb16e88c42fd4e48df2dd6a2eabd6bc9aec654ec170056b470819f8892cc6431c602052604090205460ff166101eb565b6024915f846006541660405194858092635652386760e11b82528b8a8301525afa801561033b57604085916001955f91610319575b50826060820151166001600160601b0360a01b809516178555015116838301918254161790556101d4565b61033591503d805f833e61032d81836111fa565b810190611321565b8a6102ee565b6040513d5f823e3d90fd5b34610190575f36600319011261019057602061ffff600b5416604051908152f35b34610190575f36600319011261019057600b5460405160109190911c6001600160a01b03168152602090f35b3461019057606036600319011261019057803567ffffffffffffffff8111610190576103c29036908301611234565b60249160243591604435936103d561148e565b612710918285116104795793820390828211905f5b8651811015610477576103fd81886112b8565b51805f5261042e60206009815260405f2060405161041a816111ae565b6001825492838352015492839101526112ed565b848a821161046f575b61045d5789600193928861044e89610455956112fa565b049061193f565b5050016103ea565b83601189634e487b7160e01b5f52525ffd5b8a9150610437565b005b60405162461bcd60e51b8152602081860152601060248201526f496e76616c696420736c69707061676560801b6044820152606490fd5b34610190576020366003190112610190576104c9611198565b6104d1611415565b600b805462010000600160b01b03191660109290921b62010000600160b01b0316919091179055005b34610190576040366003190112610190576104779035610518611182565b90805f525f80516020611fcc83398151915260205261053d600160405f2001546114e9565b6116f7565b3461019057610100806003193601126101905761055d611198565b610565611182565b6001600160a01b039390926044358581169290839003610190576064359386851691828603610190576084358881168091036101905760a4359660c4359660e435938b8516809503610190577ff0c57e16840df040f15088dc2f81fe391c3923bec73e23a9662efc9c229c6a009b8c549b60ff8d60401c16159c8d67ffffffffffffffff82168015918261083d575b506001149081610833575b15908161082a575b50610819578e60ff918f600167ffffffffffffffff1983161783556107fa575b505460401c16156107e9571695828714610795577f029844987e5c6b8033062ec47457a6f7814112b3bc0a600614c8900bd56ba0c196938b9996937f9a406f83dc9a92c8bd8f5abc852923a196fe3a87dd6d9ebe8272e928bd5d94fd9c60809c9a97946106a08561069a6106dc97611517565b506115d7565b506001600160601b0360a01b9588875f5416175f55838760015416176001558987600254161760025586600354161760035555896005556117b1565b600654161760065561ffff601960a21b8160a01b19600354161780600355610bb892838319600b541617600b55604051945f865260208601525f604086015260608501525f8985015260a01c1660a08301525f60c083015260e0820152a1604051915f835260208301525f60408301526060820152a161075857005b68ff00000000000000001981541690557fc7f505b2f371ae2175ee4913f4499e1f2633a7b5936321eed1cdaeb6115181d2602060405160018152a1005b60405162461bcd60e51b8152602081840152602760248201527f417373657420746f6b656e2063616e6e6f742062652073616d652061732074616044820152663c103a37b5b2b760c91b6064820152608490fd5b604051631afcd79f60e31b81528390fd5b68ffffffffffffffffff1916680100000000000000011781555f610627565b60405163f92ee8a960e01b81528490fd5b9050155f610607565b303b1591506105ff565b91508f6105f4565b3461019057608036600319011261019057803590602467ffffffffffffffff813581811161019057366023820112156101905780840135916108868361121c565b9161089460405193846111fa565b83835260209360248585019160051b83010191368311610190576024869101915b838310610a195750505050604435908111610190576108d79036908601611234565b906108e061148e565b80518251036109e257855f526009835260405f20945f915f5b81518110156109c35761090c81836112b8565b5193845f52600880885260405f20546109ac5782918b600161096c9361093382978c6112b8565b519060405193610942856111ae565b84528c84019182528a5f528c5260405f20925183555191015561096583896112b8565b51906112cc565b947fd49b6c44504dd22ab80e4edc533a6c4bd5463f09b51c0478676f82c588f62e1a60408c61099b858b6112b8565b5182519182528b820152a2016108f9565b6040516374e8729760e11b81528086018790528990fd5b61047789896109d38782546112cc565b9055600554906064359061193f565b60405162461bcd60e51b8152808601849052601060248201526f556e6d61746368656420696e7075747360801b6044820152606490fd5b82358152918101918691016108b5565b34610190575f366003190112610190576020600554604051908152f35b34610190575f3660031901126101905760206040515f8152f35b34610190575f366003190112610190576006546040516001600160a01b039091168152602090f35b34610190575f36600319011261019057602061ffff60035460a01c16604051908152f35b3461019057608036600319011261019057610ac5611198565b610acd611182565b9160443561ffff81168103610190576064359161ffff831680930361019057610af4611415565b8261ffff83160161ffff8111610d275761ffff612710911603610cef577f029844987e5c6b8033062ec47457a6f7814112b3bc0a600614c8900bd56ba0c1610100868661ffff87818881600254965f549060035491600b54966001600160601b0360a01b60018060a01b038416818416175f5560018060a01b038b16908c16176002558460a01b8660a01b168560a01b198516176003558419881617600b5560018060a01b036001541660405163095ea7b360e01b602082015260018060a01b038c1660248201525f604482015260448152610bcf816111de565b5f8082516020840182865af1610be3611f29565b81610cc0575b5080610cb6575b15610c67575b5050600154610c0f908a906001600160a01b03166117b1565b83600b5416986040519a60018060a01b03168b5260018060a01b031660208b015260018060a01b031660408a015260018060a01b0316606089015260a01c1660808701521660a08501521660c083015260e0820152a1005b60405163095ea7b360e01b60208201526001600160a01b038d1660248201525f6044808301919091528152610caf9290610caa90610ca4816111de565b82611eb8565b611eb8565b8c80610bf6565b50813b1515610bf0565b8051801592508215610cd5575b50508f610be9565b610ce89250602080918301019101611ea0565b8f80610ccd565b60649060206040519162461bcd60e51b83528201526011602482015270496e76616c69642066656520726174657360781b6044820152fd5b601182634e487b7160e01b5f525260245ffd5b3461019057604036600319011261019057610d53611182565b90355f525f80516020611fcc83398151915260205260405f209060018060a01b03165f52602052602060ff60405f2054166040519015158152f35b34610190575f3660031901126101905760209054604051908152f35b34610190576020366003190112610190577f4ab5be82436d353e61ca18726e984e561f5c1cc7c6d38b29d2553c790434705a6040610de6611198565b610dee611415565b600380546001600160a01b039283166001600160a01b0319821681179092558351921682526020820152a1005b34610190575f3660031901126101905760206040517fa49807205ce4d355092ef5a8a18f56e8913cf4a201fbe287825b095693c217758152f35b34610190575f366003190112610190576003546040516001600160a01b039091168152602090f35b3461019057602036600319011261019057610e96611198565b610e9e611415565b6003546040516370a0823160e01b815230938101939093526001600160a01b039182169116602083602481855afa91821561033b575f92610ee4575b6104779350611776565b91506020833d602011610f12575b81610eff602093836111fa565b8101031261019057610477925191610eda565b3d9150610ef2565b3461019057602036600319011261019057355f5260096020526040805f206001815491015482519182526020820152f35b3461019057604036600319011261019057610f64611182565b336001600160a01b03821603610f7e5761047791356116f7565b5060405163334bd91960e11b8152fd5b34610190576040366003190112610190576104779035610fac611182565b90805f525f80516020611fcc833981519152602052610fd1600160405f2001546114e9565b611674565b3461019057602036600319011261019057355f525f80516020611fcc8339815191526020526020600160405f200154604051908152f35b34610190575f366003190112610190576001546040516001600160a01b039091168152602090f35b34610190576040366003190112610190576080817f9a406f83dc9a92c8bd8f5abc852923a196fe3a87dd6d9ebe8272e928bd5d94fd92359060243590611079611415565b80549280600554925582600555604051938452602084015260408301526060820152a1005b34610190575f366003190112610190575f546040516001600160a01b039091168152602090f35b34610190575f3660031901126101905760206040517fd8aa0f3194971a2a116679f7c2090f6939c8d4e01a2a8d7e41d55e5351469e638152f35b3461019057602036600319011261019057355f5260086020526040805f206001815491015482519182526020820152f35b903461019057602036600319011261019057359063ffffffff60e01b821680920361019057602091637965db0b60e01b8114908115611171575b5015158152f35b6301ffc9a760e01b1490508361116a565b602435906001600160a01b038216820361019057565b600435906001600160a01b038216820361019057565b6040810190811067ffffffffffffffff8211176111ca57604052565b634e487b7160e01b5f52604160045260245ffd5b6080810190811067ffffffffffffffff8211176111ca57604052565b90601f8019910116810190811067ffffffffffffffff8211176111ca57604052565b67ffffffffffffffff81116111ca5760051b60200190565b9080601f8301121561019057602090823561124e8161121c565b9361125c60405195866111fa565b81855260208086019260051b82010192831161019057602001905b828210611285575050505090565b81358152908301908301611277565b8051600110156112a45760400190565b634e487b7160e01b5f52603260045260245ffd5b80518210156112a45760209160051b010190565b919082018092116112d957565b634e487b7160e01b5f52601160045260245ffd5b919082039182116112d957565b818102929181159184041417156112d957565b51906001600160a01b038216820361019057565b906020808383031261019057825167ffffffffffffffff9384821161019057019260a084840312610190576040519360a08501858110838211176111ca5760405261136b8161130d565b855261137883820161130d565b838601526113886040820161130d565b60408601526113996060820161130d565b6060860152608081015191821161019057019180601f840112156101905782516113c28161121c565b936113d060405195866111fa565b818552838086019260051b820101928311610190578301905b8282106113fc5750505050608082015290565b815160ff811681036101905781529083019083016113e9565b335f9081527fb16e88c42fd4e48df2dd6a2eabd6bc9aec654ec170056b470819f8892cc6431c60205260409020547fa49807205ce4d355092ef5a8a18f56e8913cf4a201fbe287825b095693c217759060ff16156114705750565b6044906040519063e2517d3f60e01b82523360048301526024820152fd5b335f9081527f52fce5e8a5d0d9e8d1ea29f4525e512e9c27bf92cae50374d497f918ab48f38260205260409020547fd8aa0f3194971a2a116679f7c2090f6939c8d4e01a2a8d7e41d55e5351469e639060ff16156114705750565b805f525f80516020611fcc83398151915260205260405f20335f5260205260ff60405f205416156114705750565b6001600160a01b03165f8181527fb16e88c42fd4e48df2dd6a2eabd6bc9aec654ec170056b470819f8892cc6431c60205260409020547fa49807205ce4d355092ef5a8a18f56e8913cf4a201fbe287825b095693c2177591905f80516020611fcc8339815191529060ff166115d057825f5260205260405f20815f5260205260405f20600160ff1982541617905533917f2f8788117e7eff1d82e926ec794901d17c78024a50270940304540a733656f0d5f80a4600190565b5050505f90565b6001600160a01b03165f8181527fb7db2dd08fcb62d0c9e08c51941cae53c267786a0b75803fb7960902fc8ef97d60205260409020545f80516020611fcc8339815191529060ff1661166e575f805260205260405f20815f5260205260405f20600160ff1982541617905533905f7f2f8788117e7eff1d82e926ec794901d17c78024a50270940304540a733656f0d8180a4600190565b50505f90565b90815f525f80516020611fcc8339815191528060205260405f209160018060a01b031691825f5260205260ff60405f205416155f146115d057825f5260205260405f20815f5260205260405f20600160ff1982541617905533917f2f8788117e7eff1d82e926ec794901d17c78024a50270940304540a733656f0d5f80a4600190565b90815f525f80516020611fcc8339815191528060205260405f209160018060a01b031691825f5260205260ff60405f2054165f146115d057825f5260205260405f20815f5260205260405f2060ff19815416905533917ff6391f5c32d9c69d2a47ea670b442974b53935d1edc7fd64eb21e047a839171b5f80a4600190565b60405163a9059cbb60e01b60208201526001600160a01b0390921660248301526044808301939093529181526117af91610caa826111de565b565b60405190602082019263095ea7b360e01b938481525f8060018060a01b038094169384602488015281196044880152604487526117ed876111de565b85169286519082855af190611800611f29565b82611857575b508161184c575b501561181a575b50505050565b61184393610caa9160405191602083015260248201525f604482015260448152610ca4816111de565b5f808080611814565b90503b15155f61180d565b8051919250811591821561186f575b5050905f611806565b6118829250602080918301019101611ea0565b5f80611866565b60209081818403126101905780519067ffffffffffffffff821161019057019180601f840112156101905782516118bf8161121c565b936118cd60405195866111fa565b818552838086019260051b820101928311610190578301905b8282106118f4575050505090565b815181529083019083016118e6565b9081518082526020808093019301915f5b828110611922575050505090565b83516001600160a01b031685529381019392810192600101611914565b909291925f93825f5260209160098352604090815f209081549061196a6001809401928354906112ed565b9460018060a01b0391828554168651916370a0823160e01b8352828a81600494308683015260249687915afa908115611e9657908a915f91611e65575b5010611e2d575f8a89516119ba816111ae565b82815201528a5f52600a8a52875f2093845486811615611dac575b508851946119e2866111ae565b8b878a8184541693848a52015416960195865215611d6a5782548a10611d5657808a11611d4e575b50875167ffffffffffffffff916060820183811183821017611d3c578a52600282528b82018a368237878a541690835115611d2a5752865f5416611a4d83611294565b528660025416908a5163d06ca61f60e01b81528c868201528b878201525f8180611a7a6044820188611903565b0381865afa908115611d2057908b915f91611d06575b50511115611cc35761012c4201804211611cb15791611ae099989796959493915f8e81958f519d8e96879586946338ed173960e01b86528c8601528c85015260a0604485015260a4840190611903565b90306064840152608483015203925af15f9781611c8d575b50611b32575050505050505050907f0995a3a8a2e2612b6b89854de70b658cfa9d5b2239a4723cea9c9588b70f7553929151908152a28190565b9091929499969c9793959a807f4d3257edb95914b701655f9bf4b58e4b422017a7b94dad03a20dae00f4b1cbb7868c8f611b6b90611294565b51809c8351928352820152a2611b98612710611b9061ffff60035460a01c168b6112fa565b0480996112ed565b9586611be7575b505050505050509181611bc293611bc997969593611bcd575b50505082546112cc565b9055611294565b5190565b80611bdf935416906003541690611776565b5f8080611bb8565b611bf987895f54168a84511690611776565b87600b5460101c169081611c0e575b50611b9f565b51881690803b15610190575f928360649289519a8b9586946339bc978360e01b86528a8601528a85015260448401525af18015611c8357611c52575b808080611c08565b909192938095975011611c72575050525f9181611bc2611bc98580611c4a565b604190634e487b7160e01b5f52525ffd5b84513d5f823e3d90fd5b611caa9198503d805f833e611ca281836111fa565b810190611889565b965f611af8565b86601187634e487b7160e01b5f52525ffd5b50895162461bcd60e51b81528085018d9052601b818701527f4661696c656420746f20666574636820746f6b656e20707269636500000000006044820152606490fd5b611d1a91503d805f833e611ca281836111fa565b5f611a90565b8c513d5f823e3d90fd5b86603287634e487b7160e01b5f52525ffd5b85604186634e487b7160e01b5f52525ffd5b98505f611a0a565b50505050505050505050505090505f905f90565b885162461bcd60e51b81528084018c90526017818601527f4167656e7420646f6573206e6f742068617665205442410000000000000000006044820152606490fd5b8c5f886006541691878d5180948193635652386760e11b83528a8301525afa908115611e235788918c915f91611e09575b50826060820151166001600160601b0360a01b809516178955015116898701918254161790555f6119d5565b611e1d91503d805f833e61032d81836111fa565b5f611ddd565b8b513d5f823e3d90fd5b5060146064928a89519362461bcd60e51b855284015282015273496e73756666696369656e742062616c616e636560601b6044820152fd5b8092508c8092503d8311611e8f575b611e7e81836111fa565b81010312610190578990515f6119a7565b503d611e74565b89513d5f823e3d90fd5b90816020910312610190575180151581036101905790565b5f80611ee09260018060a01b03169360208151910182865af1611ed9611f29565b9083611f68565b8051908115159182611f0e575b5050611ef65750565b60249060405190635274afe760e01b82526004820152fd5b611f219250602080918301019101611ea0565b155f80611eed565b3d15611f63573d9067ffffffffffffffff82116111ca5760405191611f58601f8201601f1916602001846111fa565b82523d5f602084013e565b606090565b90611f8f5750805115611f7d57805190602001fd5b604051630a12f52160e11b8152600490fd5b81511580611fc2575b611fa0575090565b604051639996b31560e01b81526001600160a01b039091166004820152602490fd5b50803b15611f9856fe02dd7bc7dec4dceedda775e58dd541e08a116c6c53815c0bd028192f7b626800a26469706673582212202cec191b1296ab589bc7f2449c85a492d19fe8fa684ed21fb386724dd3018f2264736f6c63430008160033","linkReferences":{}},"methodIdentifiers":{"ADMIN_ROLE()":"75b238fc","DEFAULT_ADMIN_ROLE()":"a217fddf","EXECUTOR_ROLE()":"07bd0265","agentNft()":"9cbef4a9","agentTaxAmounts(uint256)":"38c27698","assetToken()":"1083f761","creatorFeeRate()":"df394293","dcaSell(uint256[],uint256,uint256)":"d825c3f0","feeRate()":"978bbdb9","getRoleAdmin(bytes32)":"248a9ca3","grantRole(bytes32,address)":"2f2ff15d","handleAgentTaxes(uint256,bytes32[],uint256[],uint256)":"afb360cb","hasRole(bytes32,address)":"91d14854","initialize(address,address,address,address,address,uint256,uint256,address)":"c16dabaf","maxSwapThreshold()":"acef1a44","minSwapThreshold()":"87644953","renounceRole(bytes32,address)":"36568abe","revokeRole(bytes32,address)":"d547741f","router()":"f887ea40","supportsInterface(bytes4)":"01ffc9a7","taxHistory(bytes32)":"05a1189d","taxToken()":"1fc928ae","tbaBonus()":"dc0685ac","treasury()":"61d027b3","updateCreator(uint256,address)":"f8361bab","updateSwapParams(address,address,uint16,uint16)":"95fafd66","updateSwapThresholds(uint256,uint256)":"15ca79ac","updateTbaBonus(address)":"d628547c","updateTreasury(address)":"7f51bb1f","withdraw(address)":"51cff8d9"},"id":15}