{"abi":[{"type":"function","name":"account","inputs":[{"name":"implementation","type":"address","internalType":"address"},{"name":"chainId","type":"uint256","internalType":"uint256"},{"name":"tokenContract","type":"address","internalType":"address"},{"name":"tokenId","type":"uint256","internalType":"uint256"},{"name":"salt","type":"uint256","internalType":"uint256"}],"outputs":[{"name":"","type":"address","internalType":"address"}],"stateMutability":"view"},{"type":"function","name":"createAccount","inputs":[{"name":"implementation","type":"address","internalType":"address"},{"name":"salt","type":"bytes32","internalType":"bytes32"},{"name":"chainId","type":"uint256","internalType":"uint256"},{"name":"tokenContract","type":"address","internalType":"address"},{"name":"tokenId","type":"uint256","internalType":"uint256"}],"outputs":[{"name":"","type":"address","internalType":"address"}],"stateMutability":"nonpayable"},{"type":"event","name":"AccountCreated","inputs":[{"name":"account","type":"address","indexed":false,"internalType":"address"},{"name":"implementation","type":"address","indexed":true,"internalType":"address"},{"name":"chainId","type":"uint256","indexed":false,"internalType":"uint256"},{"name":"tokenContract","type":"address","indexed":true,"internalType":"address"},{"name":"tokenId","type":"uint256","indexed":true,"internalType":"uint256"},{"name":"salt","type":"uint256","indexed":false,"internalType":"uint256"}],"anonymous":false},{"type":"error","name":"InitializationFailed","inputs":[]}],"bytecode":{"object":"0x608060405234801561000f575f80fd5b506101738061001d5f395ff3fe608060405234801561000f575f80fd5b5060043610610034575f3560e01c80635e9bc536146100385780638a54c52f14610080575b5f80fd5b6100646100463660046100a9565b739965507d1a55bcc2695c58ba16fb37d819b0a4dc95945050505050565b6040516001600160a01b03909116815260200160405180910390f35b6100646100463660046100f3565b80356001600160a01b03811681146100a4575f80fd5b919050565b5f805f805f60a086880312156100bd575f80fd5b6100c68661008e565b9450602086013593506100db6040870161008e565b94979396509394606081013594506080013592915050565b5f805f805f60a08688031215610107575f80fd5b6101108661008e565b9450602086013593506040860135925061012c6060870161008e565b94979396509194608001359291505056fea2646970667358221220060fb1bc9a24b3ba9899ff464d3e90344d1ff7b43ceeff2bad296797fc319a6064736f6c63430008160033","linkReferences":{}},"methodIdentifiers":{"account(address,uint256,address,uint256,uint256)":"5e9bc536","createAccount(address,bytes32,uint256,address,uint256)":"8a54c52f"},"id":12}