{"abi":[{"type":"constructor","inputs":[{"name":"agentNft_","type":"address","internalType":"address"}],"stateMutability":"nonpayable"},{"type":"function","name":"daoImplementation","inputs":[],"outputs":[{"name":"","type":"address","internalType":"address"}],"stateMutability":"view"},{"type":"function","name":"initialAmount","inputs":[],"outputs":[{"name":"","type":"uint256","internalType":"uint256"}],"stateMutability":"view"},{"type":"function","name":"maturityDuration","inputs":[],"outputs":[{"name":"","type":"uint256","internalType":"uint256"}],"stateMutability":"view"},{"type":"function","name":"migrateAgent","inputs":[{"name":"id","type":"uint256","internalType":"uint256"},{"name":"name","type":"string","internalType":"string"},{"name":"symbol","type":"string","internalType":"string"},{"name":"canStake","type":"bool","internalType":"bool"}],"outputs":[],"stateMutability":"nonpayable"},{"type":"function","name":"migratedAgents","inputs":[{"name":"","type":"uint256","internalType":"uint256"}],"outputs":[{"name":"","type":"bool","internalType":"bool"}],"stateMutability":"view"},{"type":"function","name":"owner","inputs":[],"outputs":[{"name":"","type":"address","internalType":"address"}],"stateMutability":"view"},{"type":"function","name":"pause","inputs":[],"outputs":[],"stateMutability":"nonpayable"},{"type":"function","name":"paused","inputs":[],"outputs":[{"name":"","type":"bool","internalType":"bool"}],"stateMutability":"view"},{"type":"function","name":"renounceOwnership","inputs":[],"outputs":[],"stateMutability":"nonpayable"},{"type":"function","name":"reset","inputs":[{"name":"id","type":"uint256","internalType":"uint256"}],"outputs":[],"stateMutability":"nonpayable"},{"type":"function","name":"setImplementations","inputs":[{"name":"token","type":"address","internalType":"address"},{"name":"veToken","type":"address","internalType":"address"},{"name":"dao","type":"address","internalType":"address"}],"outputs":[],"stateMutability":"nonpayable"},{"type":"function","name":"setInitParams","inputs":[{"name":"tokenAdmin_","type":"address","internalType":"address"},{"name":"assetToken_","type":"address","internalType":"address"},{"name":"uniswapRouter_","type":"address","internalType":"address"},{"name":"initialAmount_","type":"uint256","internalType":"uint256"},{"name":"maturityDuration_","type":"uint256","internalType":"uint256"}],"outputs":[],"stateMutability":"nonpayable"},{"type":"function","name":"setTokenSupplyParams","inputs":[{"name":"maxSupply","type":"uint256","internalType":"uint256"},{"name":"lpSupply","type":"uint256","internalType":"uint256"},{"name":"vaultSupply","type":"uint256","internalType":"uint256"},{"name":"maxTokensPerWallet","type":"uint256","internalType":"uint256"},{"name":"maxTokensPerTxn","type":"uint256","internalType":"uint256"},{"name":"botProtectionDurationInSeconds","type":"uint256","internalType":"uint256"},{"name":"vault","type":"address","internalType":"address"}],"outputs":[],"stateMutability":"nonpayable"},{"type":"function","name":"setTokenTaxParams","inputs":[{"name":"projectBuyTaxBasisPoints","type":"uint256","internalType":"uint256"},{"name":"projectSellTaxBasisPoints","type":"uint256","internalType":"uint256"},{"name":"taxSwapThresholdBasisPoints","type":"uint256","internalType":"uint256"},{"name":"projectTaxRecipient","type":"address","internalType":"address"}],"outputs":[],"stateMutability":"nonpayable"},{"type":"function","name":"tokenImplementation","inputs":[],"outputs":[{"name":"","type":"address","internalType":"address"}],"stateMutability":"view"},{"type":"function","name":"transferOwnership","inputs":[{"name":"newOwner","type":"address","internalType":"address"}],"outputs":[],"stateMutability":"nonpayable"},{"type":"function","name":"unpause","inputs":[],"outputs":[],"stateMutability":"nonpayable"},{"type":"function","name":"veTokenImplementation","inputs":[],"outputs":[{"name":"","type":"address","internalType":"address"}],"stateMutability":"view"},{"type":"event","name":"AgentMigrated","inputs":[{"name":"virtualId","type":"uint256","indexed":false,"internalType":"uint256"},{"name":"dao","type":"address","indexed":false,"internalType":"address"},{"name":"token","type":"address","indexed":false,"internalType":"address"},{"name":"lp","type":"address","indexed":false,"internalType":"address"},{"name":"veToken","type":"address","indexed":false,"internalType":"address"}],"anonymous":false},{"type":"event","name":"OwnershipTransferred","inputs":[{"name":"previousOwner","type":"address","indexed":true,"internalType":"address"},{"name":"newOwner","type":"address","indexed":true,"internalType":"address"}],"anonymous":false},{"type":"event","name":"Paused","inputs":[{"name":"account","type":"address","indexed":false,"internalType":"address"}],"anonymous":false},{"type":"event","name":"Unpaused","inputs":[{"name":"account","type":"address","indexed":false,"internalType":"address"}],"anonymous":false},{"type":"error","name":"ERC1167FailedCreateClone","inputs":[]},{"type":"error","name":"EnforcedPause","inputs":[]},{"type":"error","name":"ExpectedPause","inputs":[]},{"type":"error","name":"OwnableInvalidOwner","inputs":[{"name":"owner","type":"address","internalType":"address"}]},{"type":"error","name":"OwnableUnauthorizedAccount","inputs":[{"name":"account","type":"address","internalType":"address"}]}],"bytecode":{"object":"0x608060405234801561000f575f80fd5b506040516200193d3803806200193d833981016040819052610030916100df565b338061005557604051631e4fbdf760e01b81525f600482015260240160405180910390fd5b61005e81610090565b505f805460ff60a01b19169055600180546001600160a01b0319166001600160a01b039290921691909117905561010c565b5f80546001600160a01b038381166001600160a01b0319831681178455604051919092169283917f8be0079c531659141344cd1fd0a4f28419497f9722a3daafe3b4186f6b6457e09190a35050565b5f602082840312156100ef575f80fd5b81516001600160a01b0381168114610105575f80fd5b9392505050565b611823806200011a5f395ff3fe608060405234801561000f575f80fd5b5060043610610111575f3560e01c80638da5cb5b1161009e578063b2c0212d1161006e578063b2c0212d14610215578063bd5f20db14610228578063f2fde38b1461024a578063f984cf121461025d578063fc1ed43714610270575f80fd5b80638da5cb5b146101cc5780639300d238146101dc5780639cbe0bac146101ef5780639d69932614610202575f80fd5b80633f4ba83a116100e45780633f4ba83a146101845780635c975abb1461018c5780635ca3cedf146101a9578063715018a6146101bc5780638456cb59146101c4575f80fd5b8063063513b7146101155780632a7d4a1f146101315780632f3a3d5d14610146578063310bd74b14610171575b5f80fd5b61011e600b5481565b6040519081526020015b60405180910390f35b61014461013f366004610ee4565b610279565b005b600854610159906001600160a01b031681565b6040516001600160a01b039091168152602001610128565b61014461017f366004610f3f565b6102e8565b610144610307565b5f54600160a01b900460ff165b6040519015158152602001610128565b6101446101b7366004610f56565b610319565b61014461036f565b610144610380565b5f546001600160a01b0316610159565b6101446101ea366004610f94565b610390565b600a54610159906001600160a01b031681565b600954610159906001600160a01b031681565b6101446102233660046110d0565b6103d7565b610199610236366004610f3f565b600c6020525f908152604090205460ff1681565b610144610258366004611140565b610a78565b61014461026b366004611162565b610ab5565b61011e60075481565b610281610b06565b6040805160208101899052908101879052606081018690526080810185905260a0810184905260c081018390526001600160a01b03821660e082015261010001604051602081830303815290604052600290816102de919061123a565b5050505050505050565b6102f0610b06565b5f908152600c60205260409020805460ff19169055565b61030f610b06565b610317610b32565b565b610321610b06565b6040805160208101869052908101849052606081018390526001600160a01b038216608082015260a00160405160208183030381529060405260039081610368919061123a565b5050505050565b610377610b06565b6103175f610b86565b610388610b06565b610317610bd5565b610398610b06565b600880546001600160a01b039485166001600160a01b0319918216179091556009805492851692821692909217909155600a8054929093169116179055565b600d5460ff16156104205760405162461bcd60e51b815260206004820152600e60248201526d31b0b73737ba103932b2b73a32b960911b60448201526064015b60405180910390fd5b600d805460ff191660011790555f848152600c602052604090205460ff16156104845760405162461bcd60e51b81526020600482015260166024820152751059d95b9d08185b1c9958591e481b5a59dc985d195960521b6044820152606401610417565b600154604051635652386760e11b8152600481018690525f916001600160a01b03169063aca470ce906024015f60405180830381865afa1580156104ca573d5f803e3d5ffd5b505050506040513d5f823e601f3d908101601f191682016040526104f1919081019061131d565b60408101519091506001600160a01b038116331461053f5760405162461bcd60e51b815260206004820152600b60248201526a2737ba103337bab73232b960a91b6044820152606401610417565b5f61054a8686610c17565b90505f816001600160a01b031663d6efd7c36040518163ffffffff1660e01b81526004015f60405180830381865afa158015610588573d5f803e3d5ffd5b505050506040513d5f823e601f3d908101601f191682016040526105af9190810190611433565b5f815181106105c0576105c06114c8565b60209081029190910101516005546007546040516323b872dd60e01b81526001600160a01b0387811660048301528681166024830152604482019290925292935016906323b872dd906064016020604051808303815f875af1158015610628573d5f803e3d5ffd5b505050506040513d601f19601f8201168201806040525081019061064c91906114dc565b50604051631672aef960e21b81523060048201526001600160a01b038316906359cabbe4906024015f604051808303815f87803b15801561068b575f80fd5b505af115801561069d573d5f803e3d5ffd5b505050505f6106ed886040516020016106b69190611519565b604051602081830303815290604052886040516020016106d69190611547565b60405160208183030381529060405284878a610ce1565b90505f855f015190505f610822826001600160a01b03166306fdde036040518163ffffffff1660e01b81526004015f60405180830381865afa158015610735573d5f803e3d5ffd5b505050506040513d5f823e601f3d908101601f1916820160405261075c919081019061156f565b84846001600160a01b03166302a251a36040518163ffffffff1660e01b8152600401602060405180830381865afa158015610799573d5f803e3d5ffd5b505050506040513d601f19601f820116820180604052508101906107bd91906115e1565b856001600160a01b031663b58131b06040518163ffffffff1660e01b8152600401602060405180830381865afa1580156107f9573d5f803e3d5ffd5b505050506040513d601f19601f8201168201806040525081019061081d91906115e1565b610d85565b6001546040516374aa04c560e01b8152600481018e90526001600160a01b0380841660248301528881166044830152878116606483015286811660848301529293509116906374aa04c59060a4015f604051808303815f87803b158015610887575f80fd5b505af1158015610899573d5f803e3d5ffd5b505060405163095ea7b360e01b81526001600160a01b0386811660048301525f1960248301528716925063095ea7b391506044016020604051808303815f875af11580156108e9573d5f803e3d5ffd5b505050506040513d601f19601f8201168201806040525081019061090d91906114dc565b506040516370a0823160e01b81523060048201526001600160a01b038085169163a7d545db918716906370a0823190602401602060405180830381865afa15801561095a573d5f803e3d5ffd5b505050506040513d601f19601f8201168201806040525081019061097e91906115e1565b6040516001600160e01b031960e084901b16815260048101919091526001600160a01b0389166024820181905260448201526064015f604051808303815f87803b1580156109ca575f80fd5b505af11580156109dc573d5f803e3d5ffd5b5050505f8c8152600c602052604090819020805460ff19166001179055517fe67c497f66d4b22604304fed8e8782e0ebe7e5b42e35e6eff9d8d3a54732afaf9150610a59908d9084908990899089909485526001600160a01b03938416602086015291831660408501528216606084015216608082015260a00190565b60405180910390a15050600d805460ff19169055505050505050505050565b610a80610b06565b6001600160a01b038116610aa957604051631e4fbdf760e01b81525f6004820152602401610417565b610ab281610b86565b50565b610abd610b06565b600480546001600160a01b03199081166001600160a01b039788161790915560058054821695871695909517909455600680549094169290941691909117909155600755600b55565b5f546001600160a01b031633146103175760405163118cdaa760e01b8152336004820152602401610417565b610b3a610e0e565b5f805460ff60a01b191690557f5db9ee0a495bf2e6ff9c91a7834c1ba4fdd244a5e8aa4e537bd38aeae4b073aa335b6040516001600160a01b03909116815260200160405180910390a1565b5f80546001600160a01b038381166001600160a01b0319831681178455604051919092169283917f8be0079c531659141344cd1fd0a4f28419497f9722a3daafe3b4186f6b6457e09190a35050565b610bdd610e37565b5f805460ff60a01b1916600160a01b1790557f62e78cea01bee320cd4e420270b5ea74000d11b0c9f74754ebdbfc544b05a258610b693390565b6008545f90610c2e906001600160a01b0316610e61565b604080516060810182526004546001600160a01b039081168252600654811660208084019190915260055482168385015292519394508416926384b1df5292610c7b918891889101611623565b604051602081830303815290604052600260036040518563ffffffff1660e01b8152600401610cad94939291906116c0565b5f604051808303815f87803b158015610cc4575f80fd5b505af1158015610cd6573d5f803e3d5ffd5b505050505b92915050565b600a545f90610cf8906001600160a01b0316610e61565b9050806001600160a01b031663b2193b4d87878688600b5442610d1b919061172a565b6001546040516001600160e01b031960e089901b168152610d4f9695949392916001600160a01b0316908b90600401611749565b5f604051808303815f87803b158015610d66575f80fd5b505af1158015610d78573d5f803e3d5ffd5b5050505095945050505050565b6009545f90610d9c906001600160a01b0316610e61565b600154604051631c63df3560e21b81529192506001600160a01b038084169263718f7cd492610dd9928a928a929091169088908a906004016117a8565b5f604051808303815f87803b158015610df0575f80fd5b505af1158015610e02573d5f803e3d5ffd5b50505050949350505050565b5f54600160a01b900460ff1661031757604051638dfc202b60e01b815260040160405180910390fd5b5f54600160a01b900460ff16156103175760405163d93c066560e01b815260040160405180910390fd5b5f763d602d80600a3d3981f3363d3d373d3d3d363d730000008260601b60e81c175f526e5af43d82803e903d91602b57fd5bf38260781b17602052603760095ff090506001600160a01b038116610ecb576040516330be1a3d60e21b815260040160405180910390fd5b919050565b6001600160a01b0381168114610ab2575f80fd5b5f805f805f805f60e0888a031215610efa575f80fd5b873596506020880135955060408801359450606088013593506080880135925060a0880135915060c0880135610f2f81610ed0565b8091505092959891949750929550565b5f60208284031215610f4f575f80fd5b5035919050565b5f805f8060808587031215610f69575f80fd5b8435935060208501359250604085013591506060850135610f8981610ed0565b939692955090935050565b5f805f60608486031215610fa6575f80fd5b8335610fb181610ed0565b92506020840135610fc181610ed0565b91506040840135610fd181610ed0565b809150509250925092565b634e487b7160e01b5f52604160045260245ffd5b60405160a0810167ffffffffffffffff8111828210171561101357611013610fdc565b60405290565b604051601f8201601f1916810167ffffffffffffffff8111828210171561104257611042610fdc565b604052919050565b5f67ffffffffffffffff82111561106357611063610fdc565b50601f01601f191660200190565b5f82601f830112611080575f80fd5b813561109361108e8261104a565b611019565b8181528460208386010111156110a7575f80fd5b816020850160208301375f918101602001919091529392505050565b8015158114610ab2575f80fd5b5f805f80608085870312156110e3575f80fd5b84359350602085013567ffffffffffffffff80821115611101575f80fd5b61110d88838901611071565b94506040870135915080821115611122575f80fd5b5061112f87828801611071565b9250506060850135610f89816110c3565b5f60208284031215611150575f80fd5b813561115b81610ed0565b9392505050565b5f805f805f60a08688031215611176575f80fd5b853561118181610ed0565b9450602086013561119181610ed0565b935060408601356111a181610ed0565b94979396509394606081013594506080013592915050565b600181811c908216806111cd57607f821691505b6020821081036111eb57634e487b7160e01b5f52602260045260245ffd5b50919050565b601f82111561123557805f5260205f20601f840160051c810160208510156112165750805b601f840160051c820191505b81811015610368575f8155600101611222565b505050565b815167ffffffffffffffff81111561125457611254610fdc565b6112688161126284546111b9565b846111f1565b602080601f83116001811461129b575f84156112845750858301515b5f19600386901b1c1916600185901b1785556112f2565b5f85815260208120601f198616915b828110156112c9578886015182559484019460019091019084016112aa565b50858210156112e657878501515f19600388901b60f8161c191681555b505060018460011b0185555b505050505050565b5f67ffffffffffffffff82111561131357611313610fdc565b5060051b60200190565b5f602080838503121561132e575f80fd5b825167ffffffffffffffff80821115611345575f80fd5b9084019060a08287031215611358575f80fd5b611360610ff0565b825161136b81610ed0565b81528284015161137a81610ed0565b81850152604083015161138c81610ed0565b6040820152606083015161139f81610ed0565b60608201526080830151828111156113b5575f80fd5b80840193505086601f8401126113c9575f80fd5b825191506113d961108e836112fa565b82815260059290921b830184019184810190888411156113f7575f80fd5b938501935b8385101561142357845160ff81168114611414575f80fd5b825293850193908501906113fc565b6080830152509695505050505050565b5f6020808385031215611444575f80fd5b825167ffffffffffffffff81111561145a575f80fd5b8301601f8101851361146a575f80fd5b805161147861108e826112fa565b81815260059190911b82018301908381019087831115611496575f80fd5b928401925b828410156114bd5783516114ae81610ed0565b8252928401929084019061149b565b979650505050505050565b634e487b7160e01b5f52603260045260245ffd5b5f602082840312156114ec575f80fd5b815161115b816110c3565b5f5b838110156115115781810151838201526020016114f9565b50505f910152565b66029ba30b5b2b2160cd1b81525f825161153a8160078501602087016114f7565b9190910160070192915050565b607360f81b81525f82516115628160018501602087016114f7565b9190910160010192915050565b5f6020828403121561157f575f80fd5b815167ffffffffffffffff811115611595575f80fd5b8201601f810184136115a5575f80fd5b80516115b361108e8261104a565b8181528560208385010111156115c7575f80fd5b6115d88260208301602086016114f7565b95945050505050565b5f602082840312156115f1575f80fd5b5051919050565b5f815180845261160f8160208601602086016114f7565b601f01601f19169290920160200192915050565b604081525f61163560408301856115f8565b82810360208401526115d881856115f8565b5f8154611653816111b9565b808552602060018381168015611670576001811461168a576116b5565b60ff1985168884015283151560051b8801830195506116b5565b865f52825f205f5b858110156116ad5781548a8201860152908301908401611692565b890184019650505b505050505092915050565b5f8186825b60038110156116ed5781516001600160a01b03168352602092830192909101906001016116c5565b50505060c0606083015261170460c08301866115f8565b82810360808401526117168186611647565b905082810360a08401526114bd8185611647565b80820180821115610cdb57634e487b7160e01b5f52601160045260245ffd5b60e081525f61175b60e083018a6115f8565b828103602084015261176d818a6115f8565b6001600160a01b039889166040850152968816606084015250506080810193909352931660a082015291151560c09092019190915292915050565b60a081525f6117ba60a08301886115f8565b6001600160a01b039687166020840152949095166040820152606081019290925263ffffffff166080909101529291505056fea264697066735822122015a5267419c4ea692e78d234e1e38b43004d63654de72e20327a161362d5da9f64736f6c63430008160033","linkReferences":{}},"methodIdentifiers":{"daoImplementation()":"9d699326","initialAmount()":"fc1ed437","maturityDuration()":"063513b7","migrateAgent(uint256,string,string,bool)":"b2c0212d","migratedAgents(uint256)":"bd5f20db","owner()":"8da5cb5b","pause()":"8456cb59","paused()":"5c975abb","renounceOwnership()":"715018a6","reset(uint256)":"310bd74b","setImplementations(address,address,address)":"9300d238","setInitParams(address,address,address,uint256,uint256)":"f984cf12","setTokenSupplyParams(uint256,uint256,uint256,uint256,uint256,uint256,address)":"2a7d4a1f","setTokenTaxParams(uint256,uint256,uint256,address)":"5ca3cedf","tokenImplementation()":"2f3a3d5d","transferOwnership(address)":"f2fde38b","unpause()":"3f4ba83a","veTokenImplementation()":"9cbe0bac"},"id":54}