{"abi":[{"type":"constructor","inputs":[],"stateMutability":"nonpayable"},{"type":"receive","stateMutability":"payable"},{"type":"function","name":"acceptOwnership","inputs":[],"outputs":[],"stateMutability":"nonpayable"},{"type":"function","name":"addInitialLiquidity","inputs":[{"name":"lpOwner","type":"address","internalType":"address"}],"outputs":[],"stateMutability":"nonpayable"},{"type":"function","name":"addLiquidityPool","inputs":[{"name":"newLiquidityPool_","type":"address","internalType":"address"}],"outputs":[],"stateMutability":"nonpayable"},{"type":"function","name":"addValidCaller","inputs":[{"name":"newValidCallerHash_","type":"bytes32","internalType":"bytes32"}],"outputs":[],"stateMutability":"nonpayable"},{"type":"function","name":"allowance","inputs":[{"name":"owner","type":"address","internalType":"address"},{"name":"spender","type":"address","internalType":"address"}],"outputs":[{"name":"","type":"uint256","internalType":"uint256"}],"stateMutability":"view"},{"type":"function","name":"approve","inputs":[{"name":"spender","type":"address","internalType":"address"},{"name":"amount","type":"uint256","internalType":"uint256"}],"outputs":[{"name":"","type":"bool","internalType":"bool"}],"stateMutability":"nonpayable"},{"type":"function","name":"balanceOf","inputs":[{"name":"account","type":"address","internalType":"address"}],"outputs":[{"name":"","type":"uint256","internalType":"uint256"}],"stateMutability":"view"},{"type":"function","name":"botProtectionDurationInSeconds","inputs":[],"outputs":[{"name":"","type":"uint256","internalType":"uint256"}],"stateMutability":"view"},{"type":"function","name":"burn","inputs":[{"name":"value","type":"uint256","internalType":"uint256"}],"outputs":[],"stateMutability":"nonpayable"},{"type":"function","name":"burnFrom","inputs":[{"name":"account","type":"address","internalType":"address"},{"name":"value","type":"uint256","internalType":"uint256"}],"outputs":[],"stateMutability":"nonpayable"},{"type":"function","name":"decimals","inputs":[],"outputs":[{"name":"","type":"uint8","internalType":"uint8"}],"stateMutability":"view"},{"type":"function","name":"decreaseAllowance","inputs":[{"name":"spender","type":"address","internalType":"address"},{"name":"subtractedValue","type":"uint256","internalType":"uint256"}],"outputs":[{"name":"","type":"bool","internalType":"bool"}],"stateMutability":"nonpayable"},{"type":"function","name":"distributeTaxTokens","inputs":[],"outputs":[],"stateMutability":"nonpayable"},{"type":"function","name":"fundedDate","inputs":[],"outputs":[{"name":"","type":"uint32","internalType":"uint32"}],"stateMutability":"view"},{"type":"function","name":"increaseAllowance","inputs":[{"name":"spender","type":"address","internalType":"address"},{"name":"addedValue","type":"uint256","internalType":"uint256"}],"outputs":[{"name":"","type":"bool","internalType":"bool"}],"stateMutability":"nonpayable"},{"type":"function","name":"initialize","inputs":[{"name":"integrationAddresses_","type":"address[3]","internalType":"address[3]"},{"name":"baseParams_","type":"bytes","internalType":"bytes"},{"name":"supplyParams_","type":"bytes","internalType":"bytes"},{"name":"taxParams_","type":"bytes","internalType":"bytes"}],"outputs":[],"stateMutability":"nonpayable"},{"type":"function","name":"isLiquidityPool","inputs":[{"name":"queryAddress_","type":"address","internalType":"address"}],"outputs":[{"name":"","type":"bool","internalType":"bool"}],"stateMutability":"view"},{"type":"function","name":"isValidCaller","inputs":[{"name":"queryHash_","type":"bytes32","internalType":"bytes32"}],"outputs":[{"name":"","type":"bool","internalType":"bool"}],"stateMutability":"view"},{"type":"function","name":"liquidityPools","inputs":[],"outputs":[{"name":"liquidityPools_","type":"address[]","internalType":"address[]"}],"stateMutability":"view"},{"type":"function","name":"name","inputs":[],"outputs":[{"name":"","type":"string","internalType":"string"}],"stateMutability":"view"},{"type":"function","name":"owner","inputs":[],"outputs":[{"name":"","type":"address","internalType":"address"}],"stateMutability":"view"},{"type":"function","name":"pairToken","inputs":[],"outputs":[{"name":"","type":"address","internalType":"address"}],"stateMutability":"view"},{"type":"function","name":"pendingOwner","inputs":[],"outputs":[{"name":"","type":"address","internalType":"address"}],"stateMutability":"view"},{"type":"function","name":"projectBuyTaxBasisPoints","inputs":[],"outputs":[{"name":"","type":"uint16","internalType":"uint16"}],"stateMutability":"view"},{"type":"function","name":"projectSellTaxBasisPoints","inputs":[],"outputs":[{"name":"","type":"uint16","internalType":"uint16"}],"stateMutability":"view"},{"type":"function","name":"projectTaxPendingSwap","inputs":[],"outputs":[{"name":"","type":"uint128","internalType":"uint128"}],"stateMutability":"view"},{"type":"function","name":"projectTaxRecipient","inputs":[],"outputs":[{"name":"","type":"address","internalType":"address"}],"stateMutability":"view"},{"type":"function","name":"removeLiquidityPool","inputs":[{"name":"removedLiquidityPool_","type":"address","internalType":"address"}],"outputs":[],"stateMutability":"nonpayable"},{"type":"function","name":"removeValidCaller","inputs":[{"name":"removedValidCallerHash_","type":"bytes32","internalType":"bytes32"}],"outputs":[],"stateMutability":"nonpayable"},{"type":"function","name":"renounceOwnership","inputs":[],"outputs":[],"stateMutability":"nonpayable"},{"type":"function","name":"setProjectTaxRates","inputs":[{"name":"newProjectBuyTaxBasisPoints_","type":"uint16","internalType":"uint16"},{"name":"newProjectSellTaxBasisPoints_","type":"uint16","internalType":"uint16"}],"outputs":[],"stateMutability":"nonpayable"},{"type":"function","name":"setProjectTaxRecipient","inputs":[{"name":"projectTaxRecipient_","type":"address","internalType":"address"}],"outputs":[],"stateMutability":"nonpayable"},{"type":"function","name":"setSwapThresholdBasisPoints","inputs":[{"name":"swapThresholdBasisPoints_","type":"uint16","internalType":"uint16"}],"outputs":[],"stateMutability":"nonpayable"},{"type":"function","name":"swapThresholdBasisPoints","inputs":[],"outputs":[{"name":"","type":"uint16","internalType":"uint16"}],"stateMutability":"view"},{"type":"function","name":"symbol","inputs":[],"outputs":[{"name":"","type":"string","internalType":"string"}],"stateMutability":"view"},{"type":"function","name":"totalBuyTaxBasisPoints","inputs":[],"outputs":[{"name":"","type":"uint256","internalType":"uint256"}],"stateMutability":"view"},{"type":"function","name":"totalSellTaxBasisPoints","inputs":[],"outputs":[{"name":"","type":"uint256","internalType":"uint256"}],"stateMutability":"view"},{"type":"function","name":"totalSupply","inputs":[],"outputs":[{"name":"","type":"uint256","internalType":"uint256"}],"stateMutability":"view"},{"type":"function","name":"transfer","inputs":[{"name":"to","type":"address","internalType":"address"},{"name":"amount","type":"uint256","internalType":"uint256"}],"outputs":[{"name":"","type":"bool","internalType":"bool"}],"stateMutability":"nonpayable"},{"type":"function","name":"transferFrom","inputs":[{"name":"from","type":"address","internalType":"address"},{"name":"to","type":"address","internalType":"address"},{"name":"amount","type":"uint256","internalType":"uint256"}],"outputs":[{"name":"","type":"bool","internalType":"bool"}],"stateMutability":"nonpayable"},{"type":"function","name":"transferOwnership","inputs":[{"name":"newOwner","type":"address","internalType":"address"}],"outputs":[],"stateMutability":"nonpayable"},{"type":"function","name":"uniswapV2Pair","inputs":[],"outputs":[{"name":"","type":"address","internalType":"address"}],"stateMutability":"view"},{"type":"function","name":"validCallers","inputs":[],"outputs":[{"name":"validCallerHashes_","type":"bytes32[]","internalType":"bytes32[]"}],"stateMutability":"view"},{"type":"function","name":"vault","inputs":[],"outputs":[{"name":"","type":"address","internalType":"address"}],"stateMutability":"view"},{"type":"function","name":"withdrawERC20","inputs":[{"name":"token_","type":"address","internalType":"address"},{"name":"amount_","type":"uint256","internalType":"uint256"}],"outputs":[],"stateMutability":"nonpayable"},{"type":"function","name":"withdrawETH","inputs":[{"name":"amount_","type":"uint256","internalType":"uint256"}],"outputs":[],"stateMutability":"nonpayable"},{"type":"event","name":"Approval","inputs":[{"name":"owner","type":"address","indexed":true,"internalType":"address"},{"name":"spender","type":"address","indexed":true,"internalType":"address"},{"name":"value","type":"uint256","indexed":false,"internalType":"uint256"}],"anonymous":false},{"type":"event","name":"AutoSwapThresholdUpdated","inputs":[{"name":"oldThreshold","type":"uint256","indexed":false,"internalType":"uint256"},{"name":"newThreshold","type":"uint256","indexed":false,"internalType":"uint256"}],"anonymous":false},{"type":"event","name":"ExternalCallError","inputs":[{"name":"identifier","type":"uint256","indexed":false,"internalType":"uint256"}],"anonymous":false},{"type":"event","name":"InitialLiquidityAdded","inputs":[{"name":"tokenA","type":"uint256","indexed":false,"internalType":"uint256"},{"name":"tokenB","type":"uint256","indexed":false,"internalType":"uint256"},{"name":"lpToken","type":"uint256","indexed":false,"internalType":"uint256"}],"anonymous":false},{"type":"event","name":"Initialized","inputs":[{"name":"version","type":"uint64","indexed":false,"internalType":"uint64"}],"anonymous":false},{"type":"event","name":"LimitsUpdated","inputs":[{"name":"oldMaxTokensPerTransaction","type":"uint256","indexed":false,"internalType":"uint256"},{"name":"newMaxTokensPerTransaction","type":"uint256","indexed":false,"internalType":"uint256"},{"name":"oldMaxTokensPerWallet","type":"uint256","indexed":false,"internalType":"uint256"},{"name":"newMaxTokensPerWallet","type":"uint256","indexed":false,"internalType":"uint256"}],"anonymous":false},{"type":"event","name":"LiquidityPoolAdded","inputs":[{"name":"addedPool","type":"address","indexed":false,"internalType":"address"}],"anonymous":false},{"type":"event","name":"LiquidityPoolCreated","inputs":[{"name":"addedPool","type":"address","indexed":false,"internalType":"address"}],"anonymous":false},{"type":"event","name":"LiquidityPoolRemoved","inputs":[{"name":"removedPool","type":"address","indexed":false,"internalType":"address"}],"anonymous":false},{"type":"event","name":"OwnershipTransferStarted","inputs":[{"name":"previousOwner","type":"address","indexed":true,"internalType":"address"},{"name":"newOwner","type":"address","indexed":true,"internalType":"address"}],"anonymous":false},{"type":"event","name":"OwnershipTransferred","inputs":[{"name":"previousOwner","type":"address","indexed":true,"internalType":"address"},{"name":"newOwner","type":"address","indexed":true,"internalType":"address"}],"anonymous":false},{"type":"event","name":"ProjectTaxBasisPointsChanged","inputs":[{"name":"oldBuyBasisPoints","type":"uint256","indexed":false,"internalType":"uint256"},{"name":"newBuyBasisPoints","type":"uint256","indexed":false,"internalType":"uint256"},{"name":"oldSellBasisPoints","type":"uint256","indexed":false,"internalType":"uint256"},{"name":"newSellBasisPoints","type":"uint256","indexed":false,"internalType":"uint256"}],"anonymous":false},{"type":"event","name":"ProjectTaxRecipientUpdated","inputs":[{"name":"treasury","type":"address","indexed":false,"internalType":"address"}],"anonymous":false},{"type":"event","name":"RevenueAutoSwap","inputs":[],"anonymous":false},{"type":"event","name":"Transfer","inputs":[{"name":"from","type":"address","indexed":true,"internalType":"address"},{"name":"to","type":"address","indexed":true,"internalType":"address"},{"name":"value","type":"uint256","indexed":false,"internalType":"uint256"}],"anonymous":false},{"type":"event","name":"ValidCallerAdded","inputs":[{"name":"addedValidCaller","type":"bytes32","indexed":false,"internalType":"bytes32"}],"anonymous":false},{"type":"event","name":"ValidCallerRemoved","inputs":[{"name":"removedValidCaller","type":"bytes32","indexed":false,"internalType":"bytes32"}],"anonymous":false},{"type":"error","name":"AdapterParamsMustBeEmpty","inputs":[]},{"type":"error","name":"AdditionToPoolIsBelowPerTransactionMinimum","inputs":[]},{"type":"error","name":"AdditionToPoolWouldExceedPerAddressCap","inputs":[]},{"type":"error","name":"AdditionToPoolWouldExceedPoolCap","inputs":[]},{"type":"error","name":"AddressAlreadySet","inputs":[]},{"type":"error","name":"AddressEmptyCode","inputs":[{"name":"target","type":"address","internalType":"address"}]},{"type":"error","name":"AddressInsufficientBalance","inputs":[{"name":"account","type":"address","internalType":"address"}]},{"type":"error","name":"AllowanceDecreasedBelowZero","inputs":[]},{"type":"error","name":"AlreadyInitialised","inputs":[]},{"type":"error","name":"ApprovalCallerNotOwnerNorApproved","inputs":[]},{"type":"error","name":"ApprovalQueryForNonexistentToken","inputs":[]},{"type":"error","name":"ApproveFromTheZeroAddress","inputs":[]},{"type":"error","name":"ApproveToTheZeroAddress","inputs":[]},{"type":"error","name":"AuctionStatusIsNotEnded","inputs":[]},{"type":"error","name":"AuctionStatusIsNotOpen","inputs":[]},{"type":"error","name":"AuxCallFailed","inputs":[{"name":"modules","type":"address[]","internalType":"address[]"},{"name":"value","type":"uint256","internalType":"uint256"},{"name":"data","type":"bytes","internalType":"bytes"},{"name":"txGas","type":"uint256","internalType":"uint256"}]},{"type":"error","name":"BalanceMismatch","inputs":[]},{"type":"error","name":"BalanceQueryForZeroAddress","inputs":[]},{"type":"error","name":"BidMustBeBelowTheFloorForRefundDuringAuction","inputs":[]},{"type":"error","name":"BidMustBeBelowTheFloorWhenReducingQuantity","inputs":[]},{"type":"error","name":"BondingCurveError","inputs":[{"name":"error","type":"uint8","internalType":"enum IErrors.BondingCurveErrorType"}]},{"type":"error","name":"BurnExceedsBalance","inputs":[]},{"type":"error","name":"BurnFromTheZeroAddress","inputs":[]},{"type":"error","name":"CallerIsNotAdminNorFactory","inputs":[]},{"type":"error","name":"CallerIsNotDepositBoxOwner","inputs":[]},{"type":"error","name":"CallerIsNotFactory","inputs":[]},{"type":"error","name":"CallerIsNotFactoryOrProjectOwner","inputs":[]},{"type":"error","name":"CallerIsNotFactoryProjectOwnerOrPool","inputs":[]},{"type":"error","name":"CallerIsNotPlatformAdmin","inputs":[{"name":"caller","type":"address","internalType":"address"}]},{"type":"error","name":"CallerIsNotSuperAdmin","inputs":[{"name":"caller","type":"address","internalType":"address"}]},{"type":"error","name":"CallerIsNotTheManager","inputs":[]},{"type":"error","name":"CallerIsNotTheOwner","inputs":[]},{"type":"error","name":"CallerMustBeLzApp","inputs":[]},{"type":"error","name":"CanOnlyReduce","inputs":[]},{"type":"error","name":"CannotAddLiquidityOnCreateAndUseDRIPool","inputs":[]},{"type":"error","name":"CannotSetNewManagerToTheZeroAddress","inputs":[]},{"type":"error","name":"CannotSetNewOwnerToTheZeroAddress","inputs":[]},{"type":"error","name":"CannotSetToZeroAddress","inputs":[]},{"type":"error","name":"CannotWithdrawThisToken","inputs":[]},{"type":"error","name":"CollectionAlreadyRevealed","inputs":[]},{"type":"error","name":"ContractIsDecommissioned","inputs":[]},{"type":"error","name":"ContractIsNotPaused","inputs":[]},{"type":"error","name":"ContractIsPaused","inputs":[]},{"type":"error","name":"DecreasedAllowanceBelowZero","inputs":[]},{"type":"error","name":"DeployerOnly","inputs":[]},{"type":"error","name":"DeploymentError","inputs":[]},{"type":"error","name":"DepositBoxIsNotOpen","inputs":[]},{"type":"error","name":"DestinationIsNotTrustedSource","inputs":[]},{"type":"error","name":"DriPoolAddressCannotBeAddressZero","inputs":[]},{"type":"error","name":"FailedInnerCall","inputs":[]},{"type":"error","name":"GasLimitIsTooLow","inputs":[]},{"type":"error","name":"IncorrectConfirmationValue","inputs":[]},{"type":"error","name":"IncorrectPayment","inputs":[]},{"type":"error","name":"InitialLiquidityAlreadyAdded","inputs":[]},{"type":"error","name":"InitialLiquidityNotYetAdded","inputs":[]},{"type":"error","name":"InsufficientAllowance","inputs":[]},{"type":"error","name":"InvalidAdapterParams","inputs":[]},{"type":"error","name":"InvalidAddress","inputs":[]},{"type":"error","name":"InvalidEndpointCaller","inputs":[]},{"type":"error","name":"InvalidInitialization","inputs":[]},{"type":"error","name":"InvalidMinGas","inputs":[]},{"type":"error","name":"InvalidOracleSignature","inputs":[]},{"type":"error","name":"InvalidPayload","inputs":[]},{"type":"error","name":"InvalidReceiver","inputs":[]},{"type":"error","name":"InvalidSourceSendingContract","inputs":[]},{"type":"error","name":"InvalidTotalShares","inputs":[]},{"type":"error","name":"LPLockUpMustFitUint88","inputs":[]},{"type":"error","name":"LimitsCanOnlyBeRaised","inputs":[]},{"type":"error","name":"LiquidityPoolCannotBeAddressZero","inputs":[]},{"type":"error","name":"LiquidityPoolMustBeAContractAddress","inputs":[]},{"type":"error","name":"ListLengthMismatch","inputs":[]},{"type":"error","name":"MachineAddressCannotBeAddressZero","inputs":[]},{"type":"error","name":"ManagerUnauthorizedAccount","inputs":[]},{"type":"error","name":"MaxBidQuantityIs255","inputs":[]},{"type":"error","name":"MaxPublicMintAllowanceExceeded","inputs":[{"name":"requested","type":"uint256","internalType":"uint256"},{"name":"alreadyMinted","type":"uint256","internalType":"uint256"},{"name":"maxAllowance","type":"uint256","internalType":"uint256"}]},{"type":"error","name":"MaxSupplyTooHigh","inputs":[]},{"type":"error","name":"MaxTokensPerTxnExceeded","inputs":[]},{"type":"error","name":"MaxTokensPerWalletExceeded","inputs":[]},{"type":"error","name":"MetadataIsLocked","inputs":[]},{"type":"error","name":"MinGasLimitNotSet","inputs":[]},{"type":"error","name":"MintERC2309QuantityExceedsLimit","inputs":[]},{"type":"error","name":"MintToZeroAddress","inputs":[]},{"type":"error","name":"MintZeroQuantity","inputs":[]},{"type":"error","name":"MintingIsClosedForever","inputs":[]},{"type":"error","name":"NewBuyTaxBasisPointsExceedsMaximum","inputs":[]},{"type":"error","name":"NewSellTaxBasisPointsExceedsMaximum","inputs":[]},{"type":"error","name":"NoETHForLiquidityPair","inputs":[]},{"type":"error","name":"NoPaymentDue","inputs":[]},{"type":"error","name":"NoRefundForCaller","inputs":[]},{"type":"error","name":"NoStoredMessage","inputs":[]},{"type":"error","name":"NoTokenForLiquidityPair","inputs":[]},{"type":"error","name":"NoTrustedPathRecord","inputs":[]},{"type":"error","name":"NotInitializing","inputs":[]},{"type":"error","name":"NothingToClaim","inputs":[]},{"type":"error","name":"OperationDidNotSucceed","inputs":[]},{"type":"error","name":"OracleSignatureHasExpired","inputs":[]},{"type":"error","name":"OwnableInvalidOwner","inputs":[{"name":"owner","type":"address","internalType":"address"}]},{"type":"error","name":"OwnableUnauthorizedAccount","inputs":[{"name":"account","type":"address","internalType":"address"}]},{"type":"error","name":"OwnerQueryForNonexistentToken","inputs":[]},{"type":"error","name":"OwnershipNotInitializedForExtraData","inputs":[]},{"type":"error","name":"ParamTooLargeEndDate","inputs":[]},{"type":"error","name":"ParamTooLargeMinETH","inputs":[]},{"type":"error","name":"ParamTooLargePerAddressMax","inputs":[]},{"type":"error","name":"ParamTooLargePoolPerTxnMinETH","inputs":[]},{"type":"error","name":"ParamTooLargePoolSupply","inputs":[]},{"type":"error","name":"ParamTooLargeStartDate","inputs":[]},{"type":"error","name":"ParamTooLargeVestingDays","inputs":[]},{"type":"error","name":"ParametersDoNotMatchSignedMessage","inputs":[]},{"type":"error","name":"PassedConfigDoesNotMatchApproved","inputs":[]},{"type":"error","name":"PauseCutOffHasPassed","inputs":[]},{"type":"error","name":"PaymentMustCoverPerMintFee","inputs":[]},{"type":"error","name":"PermitDidNotSucceed","inputs":[]},{"type":"error","name":"PlatformAdminCannotBeAddressZero","inputs":[]},{"type":"error","name":"PlatformTreasuryCannotBeAddressZero","inputs":[]},{"type":"error","name":"PoolIsAboveMinimum","inputs":[]},{"type":"error","name":"PoolIsBelowMinimum","inputs":[]},{"type":"error","name":"PoolPhaseIsClosed","inputs":[]},{"type":"error","name":"PoolPhaseIsNotAfter","inputs":[]},{"type":"error","name":"PoolVestingNotYetComplete","inputs":[]},{"type":"error","name":"ProjectOwnerCannotBeAddressZero","inputs":[]},{"type":"error","name":"ProofInvalid","inputs":[]},{"type":"error","name":"QuantityExceedsMaxPossibleCollectionSupply","inputs":[]},{"type":"error","name":"QuantityExceedsRemainingCollectionSupply","inputs":[]},{"type":"error","name":"QuantityExceedsRemainingPhaseSupply","inputs":[]},{"type":"error","name":"ReferralIdAlreadyUsed","inputs":[]},{"type":"error","name":"RequestingMoreThanAvailableBalance","inputs":[]},{"type":"error","name":"RequestingMoreThanRemainingAllocation","inputs":[{"name":"previouslyMinted","type":"uint256","internalType":"uint256"},{"name":"requested","type":"uint256","internalType":"uint256"},{"name":"remainingAllocation","type":"uint256","internalType":"uint256"}]},{"type":"error","name":"RoyaltyFeeWillExceedSalePrice","inputs":[]},{"type":"error","name":"SafeERC20FailedOperation","inputs":[{"name":"token","type":"address","internalType":"address"}]},{"type":"error","name":"ShareTotalCannotBeZero","inputs":[]},{"type":"error","name":"SliceOutOfBounds","inputs":[]},{"type":"error","name":"SliceOverflow","inputs":[]},{"type":"error","name":"SuperAdminCannotBeAddressZero","inputs":[]},{"type":"error","name":"SupplyTotalMismatch","inputs":[]},{"type":"error","name":"SupportWindowIsNotOpen","inputs":[]},{"type":"error","name":"TaxFreeAddressCannotBeAddressZero","inputs":[]},{"type":"error","name":"TaxPeriodStillInForce","inputs":[]},{"type":"error","name":"TemplateCannotBeAddressZero","inputs":[]},{"type":"error","name":"TemplateNotFound","inputs":[]},{"type":"error","name":"ThisMintIsClosed","inputs":[]},{"type":"error","name":"TotalSharesMustMatchDenominator","inputs":[]},{"type":"error","name":"TransferAmountExceedsBalance","inputs":[]},{"type":"error","name":"TransferCallerNotOwnerNorApproved","inputs":[]},{"type":"error","name":"TransferFailed","inputs":[]},{"type":"error","name":"TransferFromIncorrectOwner","inputs":[]},{"type":"error","name":"TransferFromZeroAddress","inputs":[]},{"type":"error","name":"TransferToNonERC721ReceiverImplementer","inputs":[]},{"type":"error","name":"TransferToZeroAddress","inputs":[]},{"type":"error","name":"URIQueryForNonexistentToken","inputs":[]},{"type":"error","name":"UnrecognisedVRFMode","inputs":[]},{"type":"error","name":"VRFCoordinatorCannotBeAddressZero","inputs":[]},{"type":"error","name":"ValueExceedsMaximum","inputs":[]}],"bytecode":{"object":"0x608060405234801562000010575f80fd5b506200001b62000021565b620000d5565b7ff0c57e16840df040f15088dc2f81fe391c3923bec73e23a9662efc9c229c6a00805468010000000000000000900460ff1615620000725760405163f92ee8a960e01b815260040160405180910390fd5b80546001600160401b0390811614620000d25780546001600160401b0319166001600160401b0390811782556040519081527fc7f505b2f371ae2175ee4913f4499e1f2633a7b5936321eed1cdaeb6115181d29060200160405180910390a15b50565b61317580620000e35f395ff3fe608060405260043610610278575f3560e01c8063936b29341161014a578063bfe3098f116100be578063ea8b242411610078578063ea8b24241461079d578063ee6a934c146107bc578063eeae0f97146107db578063f14210a6146107fa578063f2fde38b14610819578063fbfa77cf14610838575f80fd5b8063bfe3098f146106ec578063d6efd7c31461070b578063dd62ed3e1461072c578063e30c39781461074b578063e37d9e951461075f578063e85455d71461077e575f80fd5b8063a45cae021161010f578063a45cae0214610614578063a9059cbb14610635578063ae22107f14610654578063b0d7509714610673578063b2c5c9eb146106aa578063b498d39f146106cb575f80fd5b8063936b29341461058457806395d89b41146105a35780639808751d146105b7578063a1db9782146105d6578063a457c2d7146105f5575f80fd5b806342966c68116101ec578063715018a6116101a6578063715018a6146104eb57806379ba5097146104ff57806379cc67901461051357806384b1df52146105325780638589287a146105515780638da5cb5b14610570575f80fd5b806342966c681461041257806349bd5a5e146104315780634bed5ad21461044f57806359cabbe41461048357806363a9c1f2146104a257806370a08231146104b7575f80fd5b806323b872dd1161023d57806323b872dd1461034d5780632ead09551461036c578063313ce56714610382578063326b3b8b1461039d57806339509351146103bc5780633de35b79146103db575f80fd5b8063038272b61461028357806306fdde03146102b1578063095ea7b3146102d257806310b828c91461030157806318160ddd14610339575f80fd5b3661027f57005b5f80fd5b34801561028e575f80fd5b50600254600160d81b900461ffff165b6040519081526020015b60405180910390f35b3480156102bc575f80fd5b506102c5610857565b6040516102a89190612816565b3480156102dd575f80fd5b506102f16102ec36600461285c565b6108e7565b60405190151581526020016102a8565b34801561030c575f80fd5b5060025461032490600160a81b900463ffffffff1681565b60405163ffffffff90911681526020016102a8565b348015610344575f80fd5b5060095461029e565b348015610358575f80fd5b506102f1610367366004612886565b610900565b348015610377575f80fd5b5061038061093d565b005b34801561038d575f80fd5b50604051601281526020016102a8565b3480156103a8575f80fd5b506103806103b73660046128d5565b610989565b3480156103c7575f80fd5b506102f16103d636600461285c565b610a42565b3480156103e6575f80fd5b506003546103fa906001600160a01b031681565b6040516001600160a01b0390911681526020016102a8565b34801561041d575f80fd5b5061038061042c3660046128ee565b610a63565b34801561043c575f80fd5b505f546103fa906001600160a01b031681565b34801561045a575f80fd5b5060025461047090600160e81b900461ffff1681565b60405161ffff90911681526020016102a8565b34801561048e575f80fd5b5061038061049d366004612905565b610a6d565b3480156104ad575f80fd5b5061029e60015481565b3480156104c2575f80fd5b5061029e6104d1366004612905565b6001600160a01b03165f908152600a602052604090205490565b3480156104f6575f80fd5b50610380610abf565b34801561050a575f80fd5b50610380610ad0565b34801561051e575f80fd5b5061038061052d36600461285c565b610b1a565b34801561053d575f80fd5b5061038061054c366004612a07565b610b33565b34801561055c575f80fd5b5061038061056b3660046128ee565b610dbc565b34801561057b575f80fd5b506103fa610e48565b34801561058f575f80fd5b5061038061059e366004612adb565b610e7c565b3480156105ae575f80fd5b506102c5610f5b565b3480156105c2575f80fd5b506103806105d1366004612905565b610f6a565b3480156105e1575f80fd5b506103806105f036600461285c565b611001565b348015610600575f80fd5b506102f161060f36600461285c565b611087565b34801561061f575f80fd5b5060025461047090600160c81b900461ffff1681565b348015610640575f80fd5b506102f161064f36600461285c565b6110cf565b34801561065f575f80fd5b5061038061066e366004612905565b6110e0565b34801561067e575f80fd5b50600554610692906001600160801b031681565b6040516001600160801b0390911681526020016102a8565b3480156106b5575f80fd5b5060025461047090600160d81b900461ffff1681565b3480156106d6575f80fd5b506106df61116e565b6040516102a89190612b0c565b3480156106f7575f80fd5b506102f16107063660046128ee565b61117f565b348015610716575f80fd5b5061071f61118b565b6040516102a89190612b92565b348015610737575f80fd5b5061029e610746366004612ba4565b611197565b348015610756575f80fd5b506103fa6111c1565b34801561076a575f80fd5b506103806107793660046128ee565b6111e9565b348015610789575f80fd5b506102f1610798366004612905565b61126e565b3480156107a8575f80fd5b506004546103fa906001600160a01b031681565b3480156107c7575f80fd5b506103806107d6366004612905565b611290565b3480156107e6575f80fd5b50600254600160c81b900461ffff1661029e565b348015610805575f80fd5b506103806108143660046128ee565b61136f565b348015610824575f80fd5b50610380610833366004612905565b61141e565b348015610843575f80fd5b506006546103fa906001600160a01b031681565b60606007805461086690612bdb565b80601f016020809104026020016040519081016040528092919081815260200182805461089290612bdb565b80156108dd5780601f106108b4576101008083540402835291602001916108dd565b820191905f5260205f20905b8154815290600101906020018083116108c057829003601f168201915b5050505050905090565b5f336108f48185856114a3565b60019150505b92915050565b5f3361090d858285611552565b61093085858561091c8961126e565b8061092b575061092b8861126e565b61159b565b60019150505b9392505050565b6005546001600160801b03161561098757600580546001600160801b031981169091556004546001600160801b03909116906109859030906001600160a01b0316835f61159b565b505b565b33610992610e48565b6001600160a01b0316141580156109b457506010546001600160a01b03163314155b156109d25760405163faa39fbf60e01b815260040160405180910390fd5b6002805461ffff838116600160e81b90810261ffff60e81b198416179093556040519290910416907fe4351c45b53ffb7ebad0b66cc0f1a3dfe2963c099421eeaded141104df39206a90610a36908390859091825261ffff16602082015260400190565b60405180910390a15050565b5f336108f4818585610a548383611197565b610a5e9190612c27565b6114a3565b610985338261164b565b33610a76610e48565b6001600160a01b031614158015610a9857506010546001600160a01b03163314155b15610ab65760405163faa39fbf60e01b815260040160405180910390fd5b610985816116fd565b610ac7611a23565b6109875f611a55565b3380610ada6111c1565b6001600160a01b031614610b115760405163118cdaa760e01b81526001600160a01b03821660048201526024015b60405180910390fd5b61098581611a55565b610b25823383611552565b610b2f828261164b565b5050565b7ff0c57e16840df040f15088dc2f81fe391c3923bec73e23a9662efc9c229c6a008054600160401b810460ff16159067ffffffffffffffff165f81158015610b785750825b90505f8267ffffffffffffffff166001148015610b945750303b155b905081158015610ba2575080155b15610bc05760405163f92ee8a960e01b815260040160405180910390fd5b845467ffffffffffffffff191660011785558315610bea57845460ff60401b1916600160401b1785555b8851610bf69089611a8d565b6020808a015160028054610100600160a81b0319166101006001600160a01b039384160217905560408b015160038054919092166001600160a01b031990911617905587515f91610c4d918a018101908a01612c4e565b90505f87806020019051810190610c649190612cd6565b9050610c6f82611ac6565b5f610c7c6012600a612e20565b8360200151610c8b9190612e2e565b90505f610c9a6012600a612e20565b8460400151610ca99190612e2e565b60a08501516001559050610cbc83611b48565b60028054604086015161ffff16600160e81b0261ffff60e81b199315159390931660ff61ffff60e81b0119909116179190911790556060830151600480546001600160a01b039092166001600160a01b0319909216919091179055610d218282611baf565b610d29611bdb565b5f80546001600160a01b03929092166001600160a01b03199283161790556010805490911633179055505060038054600160a01b60ff60a01b1990911617905550508315610db157845460ff60401b19168555604051600181527fc7f505b2f371ae2175ee4913f4499e1f2633a7b5936321eed1cdaeb6115181d29060200160405180910390a15b505050505050505050565b33610dc5610e48565b6001600160a01b031614158015610de757506010546001600160a01b03163314155b15610e055760405163faa39fbf60e01b815260040160405180910390fd5b610e10600c82611e08565b506040518181527fdd5aeaec2032ed464aed048b9014721d48de827cef3d77f78f0a76f1f0136dd4906020015b60405180910390a150565b5f807f9016d09d72d40fdae2fd8ceac6b6234c7706214fd39c1cd1e609a0528c1993005b546001600160a01b031692915050565b33610e85610e48565b6001600160a01b031614158015610ea757506010546001600160a01b03163314155b15610ec55760405163faa39fbf60e01b815260040160405180910390fd5b6002805461ffff838116600160d81b81810261ffff60d81b19888516600160c81b8181029290921663ffffffff60c81b1988161792909217909655604080519686048516808852602088019290925291909404909216918401829052606084015290917f8da1f77a22734510b762a9625e69e737d7c0cc48984e810e5802fb341eb80a3e9060800160405180910390a150505050565b60606008805461086690612bdb565b33610f73610e48565b6001600160a01b031614158015610f9557506010546001600160a01b03163314155b15610fb35760405163faa39fbf60e01b815260040160405180910390fd5b600480546001600160a01b0319166001600160a01b0383169081179091556040519081527fa4eea51cd2f21eac6612ba054a363ae2fd59698fc258ab414313cd73f69f2b8590602001610e3d565b3361100a610e48565b6001600160a01b03161415801561102c57506010546001600160a01b03163314155b1561104a5760405163faa39fbf60e01b815260040160405180910390fd5b306001600160a01b038316036110735760405163992501b360e01b815260040160405180910390fd5b610b2f6001600160a01b0383163383611e13565b5f33816110948286611197565b9050838110156110b757604051637b5591b560e11b815260040160405180910390fd5b6110c482868684036114a3565b506001949350505050565b5f336108f481858561091c8361126e565b336110e9610e48565b6001600160a01b03161415801561110b57506010546001600160a01b03163314155b156111295760405163faa39fbf60e01b815260040160405180910390fd5b611134600e82611e65565b506040516001600160a01b03821681527f59c3fbcae88f30e9b0e35c132a7f68c53231dffa4722f197c7ecb0ee013eee6090602001610e3d565b606061117a600c611e79565b905090565b5f6108fa600c83611e85565b606061117a600e611e79565b6001600160a01b039182165f908152600b6020908152604080832093909416825291909152205490565b5f807f237e158222e3e6968b72b9db0d8043aacf074ad9f650f0d1606b4d82ee432c00610e6c565b336111f2610e48565b6001600160a01b03161415801561121457506010546001600160a01b03163314155b156112325760405163faa39fbf60e01b815260040160405180910390fd5b61123d600c82611e9c565b506040518181527ff7d7abaf8b0e82705f2ef671054dd11a306d870da0bbb8be1ff24bd0096de7ba90602001610e3d565b5f80546001600160a01b03838116911614806108fa57506108fa600e83611ea7565b33611299610e48565b6001600160a01b0316141580156112bb57506010546001600160a01b03163314155b156112d95760405163faa39fbf60e01b815260040160405180910390fd5b6001600160a01b0381166113005760405163b47cdee560e01b815260040160405180910390fd5b806001600160a01b03163b5f0361132a57604051630f9da0c760e41b815260040160405180910390fd5b611335600e82611ec8565b506040516001600160a01b03821681527fb893f883ef734b712208a877459424ee509832c57e0461fb1ac99ed4d42f2d8990602001610e3d565b33611378610e48565b6001600160a01b03161415801561139a57506010546001600160a01b03163314155b156113b85760405163faa39fbf60e01b815260040160405180910390fd5b6040515f90339083908381818185875af1925050503d805f81146113f7576040519150601f19603f3d011682016040523d82523d5f602084013e6113fc565b606091505b5050905080610b2f576040516312171d8360e31b815260040160405180910390fd5b611426611a23565b7f237e158222e3e6968b72b9db0d8043aacf074ad9f650f0d1606b4d82ee432c0080546001600160a01b0319166001600160a01b038316908117825561146a610e48565b6001600160a01b03167f38d16b8cac22d99fc7c124b9cd0de2d3fa1faef420bfe791d8c362d765e2270060405160405180910390a35050565b6001600160a01b0383166114ca576040516356fdae6560e11b815260040160405180910390fd5b6001600160a01b0382166114f15760405163b2fa1ef360e01b815260040160405180910390fd5b6001600160a01b038381165f818152600b602090815260408083209487168084529482529182902085905590518481527f8c5be1e5ebec7d5bd14f71427d1e84f3dd0314c0f7b2291e5b200ac8c7c3b92591015b60405180910390a3505050565b5f61155d8484611197565b90505f1981146115955781811015611588576040516313be252b60e01b815260040160405180910390fd5b61159584848484036114a3565b50505050565b5f6115a7858585611edc565b90506115b38585611fc1565b5f6115c08386888761206f565b90506115cc8483612e45565b6001600160a01b038088165f908152600a60205260408082209390935590871681529081208054839290611601908490612c27565b92505081905550846001600160a01b0316866001600160a01b03165f805160206131208339815191528360405161163a91815260200190565b60405180910390a35b505050505050565b6001600160a01b038216611672576040516304fca6bd60e41b815260040160405180910390fd5b6001600160a01b0382165f908152600a6020526040902054818110156116ab5760405163588569f760e01b815260040160405180910390fd5b6001600160a01b0383165f818152600a602090815260408083208686039055600980546001600160801b03881690039055518581529192915f805160206131208339815191529101611545565b505050565b600254600160a81b900463ffffffff161561172b5760405163b1f3376760e01b815260040160405180910390fd5b6002805463ffffffff60a81b1916600160a81b4263ffffffff1602179055305f908152600a60205260409020545f03611777576040516330d86fb160e11b815260040160405180910390fd5b60025461179590309061010090046001600160a01b03165f196114a3565b60035460025460405163095ea7b360e01b81526001600160a01b03610100909204821660048201525f19602482015291169063095ea7b3906044016020604051808303815f875af11580156117ec573d5f803e3d5ffd5b505050506040513d601f19601f820116820180604052508101906118109190612e58565b506002546003545f91829182916001600160a01b0361010090910481169163e8e3370091309116611855826001600160a01b03165f908152600a602052604090205490565b6003546040516370a0823160e01b81523060048201526001600160a01b03909116906370a0823190602401602060405180830381865afa15801561189b573d5f803e3d5ffd5b505050506040513d601f19601f820116820180604052508101906118bf9190612e77565b6040516001600160e01b031960e087901b1681526001600160a01b039485166004820152939092166024840152604483015260648201525f6084820181905260a48201523060c48201524260e4820152610104016060604051808303815f875af115801561192f573d5f803e3d5ffd5b505050506040513d601f19601f820116820180604052508101906119539190612e8e565b604080518481526020810184905290810182905292955090935091507fbf59dda00152e02f20e18cab7307c8afe0714e7f69cf24a1377cbbddcb40f9bb9060600160405180910390a16003805460ff60a01b191690555f5460405163a9059cbb60e01b81526001600160a01b038681166004830152602482018490529091169063a9059cbb906044016020604051808303815f875af11580156119f8573d5f803e3d5ffd5b505050506040513d601f19601f82011682018060405250810190611a1c9190612e58565b5050505050565b33611a2c610e48565b6001600160a01b0316146109875760405163118cdaa760e01b8152336004820152602401610b08565b7f237e158222e3e6968b72b9db0d8043aacf074ad9f650f0d1606b4d82ee432c0080546001600160a01b0319168155610b2f826121ef565b611a9682611a55565b80806020019051810190611aaa9190612efb565b60075f6008611ab98482612f9f565b50611a1c90508382612f9f565b80602001518160400151611ada9190612c27565b815114611afa576040516361cf53d560e01b815260040160405180910390fd5b80516001600160801b031015611b2357604051637f47720f60e11b815260040160405180910390fd5b60c00151600680546001600160a01b0319166001600160a01b03909216919091179055565b80515f90158015611b5b57506020820151155b15611b6757505f919050565b5080516002805460209093015161ffff908116600160d81b0261ffff60d81b1991909316600160c81b021663ffffffff60c81b1990931692909217179055600190565b919050565b8115611bbf57611bbf308361225f565b8015610b2f57600654610b2f906001600160a01b03168261225f565b5f600260019054906101000a90046001600160a01b03166001600160a01b031663c45a01556040518163ffffffff1660e01b8152600401602060405180830381865afa158015611c2d573d5f803e3d5ffd5b505050506040513d601f19601f82011682018060405250810190611c51919061305b565b60035460405163e6a4390560e01b81523060048201526001600160a01b03918216602482015291169063e6a4390590604401602060405180830381865afa158015611c9e573d5f803e3d5ffd5b505050506040513d601f19601f82011682018060405250810190611cc2919061305b565b90506001600160a01b038116611df957600260019054906101000a90046001600160a01b03166001600160a01b031663c45a01556040518163ffffffff1660e01b8152600401602060405180830381865afa158015611d23573d5f803e3d5ffd5b505050506040513d601f19601f82011682018060405250810190611d47919061305b565b6003546040516364e329cb60e11b81523060048201526001600160a01b03918216602482015291169063c9c65396906044016020604051808303815f875af1158015611d95573d5f803e3d5ffd5b505050506040513d601f19601f82011682018060405250810190611db9919061305b565b6040516001600160a01b03821681529091507f969ffc8569f9af3993220e04ac05164e5db4e3d9f8b1a47f64e7de9a04b8ea2f9060200160405180910390a15b611e04600e82611ec8565b5090565b5f61093683836122e4565b604080516001600160a01b038416602482015260448082018490528251808303909101815260649091019091526020810180516001600160e01b031663a9059cbb60e01b1790526116f89084906123ce565b5f610936836001600160a01b0384166122e4565b60605f6109368361242f565b5f8181526001830160205260408120541515610936565b5f6109368383612488565b6001600160a01b0381165f9081526001830160205260408120541515610936565b5f610936836001600160a01b038416612488565b5f80546001600160a01b038481169116148015611f0257506001600160a01b0384163014155b8015611f1b5750600254600160a81b900463ffffffff16155b15611f3957604051630d970b4560e21b815260040160405180910390fd5b6001600160a01b038416611f6057604051630b07e54560e11b815260040160405180910390fd5b6001600160a01b038316611f8757604051633a954ecd60e21b815260040160405180910390fd5b506001600160a01b0383165f908152600a60205260409020548181101561093657604051635dd58b8b60e01b815260040160405180910390fd5b60025460ff1615610b2f57305f908152600a602052604081205460025460095491925082915f916127109161200191600160e81b900461ffff1690612e2e565b61200b9190613076565b9050612019858584846124d4565b15611a1c576003805460ff60a01b1916600160a01b17905561203c601482612e2e565b8211156120515761204e601482612e2e565b91505b61205b8284612548565b6003805460ff60a01b191690555050505050565b600254819060ff1680156120805750845b80156120965750600354600160a01b900460ff16155b156121e7575f6120a58561126e565b80156120be57506002545f90600160d81b900461ffff16115b1561211a57600254600160d81b900461ffff161561211557600254600580546001600160801b0380821661271061ffff600160d81b90960495909516880294909404938401166001600160801b0319909116179055015b612193565b6121238461126e565b801561213c57506002545f90600160c81b900461ffff16115b1561219357600254600160c81b900461ffff161561219357600254600580546001600160801b0380821661271061ffff600160c81b90960495909516880294909404938401166001600160801b0319909116179055015b80156121e557305f818152600a602052604090819020805484019055516001600160a01b038616905f80516020613120833981519152906121d79085815260200190565b60405180910390a380820391505b505b949350505050565b7f9016d09d72d40fdae2fd8ceac6b6234c7706214fd39c1cd1e609a0528c19930080546001600160a01b031981166001600160a01b03848116918217845560405192169182907f8be0079c531659141344cd1fd0a4f28419497f9722a3daafe3b4186f6b6457e0905f90a3505050565b6001600160a01b03821661228557604051622e076360e81b815260040160405180910390fd5b806001600160801b031660095f82825461229f9190612c27565b90915550506001600160a01b0382165f818152600a60209081526040808320805486019055518481525f80516020613120833981519152910160405180910390a35050565b5f81815260018301602052604081205480156123be575f612306600183612e45565b85549091505f9061231990600190612e45565b9050808214612378575f865f01828154811061233757612337612c3a565b905f5260205f200154905080875f01848154811061235757612357612c3a565b5f918252602080832090910192909255918252600188019052604090208390555b855486908061238957612389613095565b600190038181905f5260205f20015f90559055856001015f8681526020019081526020015f205f9055600193505050506108fa565b5f9150506108fa565b5092915050565b5f6123e26001600160a01b038416836126f2565b905080515f141580156124065750808060200190518101906124049190612e58565b155b156116f857604051635274afe760e01b81526001600160a01b0384166004820152602401610b08565b6060815f0180548060200260200160405190810160405280929190818152602001828054801561247c57602002820191905f5260205f20905b815481526020019060010190808311612468575b50505050509050919050565b5f8181526001830160205260408120546124cd57508154600181810184555f8481526020808220909301849055845484825282860190935260409020919091556108fa565b505f6108fa565b5f8183101580156124ef5750600354600160a01b900460ff16155b801561250157506124ff8561126e565b155b801561252057506002546001600160a01b038681166101009092041614155b801561253f57506002546001600160a01b038581166101009092041614155b95945050505050565b6040805160028082526060820183525f9260208301908036833701905050905030815f8151811061257b5761257b612c3a565b6001600160a01b0392831660209182029290920101526003548251911690829060019081106125ac576125ac612c3a565b6001600160a01b039283166020918202929092010152600254600454610100909104821691635c11d7959186915f918691166125ea42610258612c27565b6040518663ffffffff1660e01b815260040161260a9594939291906130a9565b5f604051808303815f87803b158015612621575f80fd5b505af1925050508015612632575060015b61266f57604051600581527f60dc41faad9fe4f70f304dcef26d96d71e98ec8e21e4a340921d94dfe46307dc9060200160405180910390a1505050565b818310156126dd5760055482906126909085906001600160801b0316612e2e565b61269a9190613076565b600580545f906126b49084906001600160801b03166130e4565b92506101000a8154816001600160801b0302191690836001600160801b03160217905550505050565b600580546001600160801b0319169055505050565b606061093683835f845f80856001600160a01b031684866040516127169190613104565b5f6040518083038185875af1925050503d805f8114612750576040519150601f19603f3d011682016040523d82523d5f602084013e612755565b606091505b509150915061276586838361276f565b9695505050505050565b6060826127845761277f826127cb565b610936565b815115801561279b57506001600160a01b0384163b155b156127c457604051639996b31560e01b81526001600160a01b0385166004820152602401610b08565b5080610936565b8051156127db5780518082602001fd5b604051630a12f52160e11b815260040160405180910390fd5b5f5b8381101561280e5781810151838201526020016127f6565b50505f910152565b602081525f82518060208401526128348160408501602087016127f4565b601f01601f19169190910160400192915050565b6001600160a01b0381168114610985575f80fd5b5f806040838503121561286d575f80fd5b823561287881612848565b946020939093013593505050565b5f805f60608486031215612898575f80fd5b83356128a381612848565b925060208401356128b381612848565b929592945050506040919091013590565b803561ffff81168114611baa575f80fd5b5f602082840312156128e5575f80fd5b610936826128c4565b5f602082840312156128fe575f80fd5b5035919050565b5f60208284031215612915575f80fd5b813561093681612848565b634e487b7160e01b5f52604160045260245ffd5b6040516060810167ffffffffffffffff8111828210171561295757612957612920565b60405290565b604051601f8201601f1916810167ffffffffffffffff8111828210171561298657612986612920565b604052919050565b5f67ffffffffffffffff8211156129a7576129a7612920565b50601f01601f191660200190565b5f82601f8301126129c4575f80fd5b81356129d76129d28261298e565b61295d565b8181528460208386010111156129eb575f80fd5b816020850160208301375f918101602001919091529392505050565b5f805f8060c08587031215612a1a575f80fd5b85601f860112612a28575f80fd5b612a30612934565b806060870188811115612a41575f80fd5b875b81811015612a64578035612a5681612848565b845260209384019301612a43565b5090955035905067ffffffffffffffff80821115612a80575f80fd5b612a8c888389016129b5565b94506080870135915080821115612aa1575f80fd5b612aad888389016129b5565b935060a0870135915080821115612ac2575f80fd5b50612acf878288016129b5565b91505092959194509250565b5f8060408385031215612aec575f80fd5b612af5836128c4565b9150612b03602084016128c4565b90509250929050565b602080825282518282018190525f9190848201906040850190845b81811015612b4357835183529284019291840191600101612b27565b50909695505050505050565b5f815180845260208085019450602084015f5b83811015612b875781516001600160a01b031687529582019590820190600101612b62565b509495945050505050565b602081525f6109366020830184612b4f565b5f8060408385031215612bb5575f80fd5b8235612bc081612848565b91506020830135612bd081612848565b809150509250929050565b600181811c90821680612bef57607f821691505b602082108103612c0d57634e487b7160e01b5f52602260045260245ffd5b50919050565b634e487b7160e01b5f52601160045260245ffd5b808201808211156108fa576108fa612c13565b634e487b7160e01b5f52603260045260245ffd5b5f60e08284031215612c5e575f80fd5b60405160e0810181811067ffffffffffffffff82111715612c8157612c81612920565b8060405250825181526020830151602082015260408301516040820152606083015160608201526080830151608082015260a083015160a082015260c0830151612cca81612848565b60c08201529392505050565b5f60808284031215612ce6575f80fd5b6040516080810181811067ffffffffffffffff82111715612d0957612d09612920565b80604052508251815260208301516020820152604083015160408201526060830151612d3481612848565b60608201529392505050565b600181815b80851115612d7a57815f1904821115612d6057612d60612c13565b80851615612d6d57918102915b93841c9390800290612d45565b509250929050565b5f82612d90575060016108fa565b81612d9c57505f6108fa565b8160018114612db25760028114612dbc57612dd8565b60019150506108fa565b60ff841115612dcd57612dcd612c13565b50506001821b6108fa565b5060208310610133831016604e8410600b8410161715612dfb575081810a6108fa565b612e058383612d40565b805f1904821115612e1857612e18612c13565b029392505050565b5f61093660ff841683612d82565b80820281158282048414176108fa576108fa612c13565b818103818111156108fa576108fa612c13565b5f60208284031215612e68575f80fd5b81518015158114610936575f80fd5b5f60208284031215612e87575f80fd5b5051919050565b5f805f60608486031215612ea0575f80fd5b8351925060208401519150604084015190509250925092565b5f82601f830112612ec8575f80fd5b8151612ed66129d28261298e565b818152846020838601011115612eea575f80fd5b6121e78260208301602087016127f4565b5f8060408385031215612f0c575f80fd5b825167ffffffffffffffff80821115612f23575f80fd5b612f2f86838701612eb9565b93506020850151915080821115612f44575f80fd5b50612f5185828601612eb9565b9150509250929050565b601f8211156116f857805f5260205f20601f840160051c81016020851015612f805750805b601f840160051c820191505b81811015611a1c575f8155600101612f8c565b815167ffffffffffffffff811115612fb957612fb9612920565b612fcd81612fc78454612bdb565b84612f5b565b602080601f831160018114613000575f8415612fe95750858301515b5f19600386901b1c1916600185901b178555611643565b5f85815260208120601f198616915b8281101561302e5788860151825594840194600190910190840161300f565b508582101561304b57878501515f19600388901b60f8161c191681555b5050505050600190811b01905550565b5f6020828403121561306b575f80fd5b815161093681612848565b5f8261309057634e487b7160e01b5f52601260045260245ffd5b500490565b634e487b7160e01b5f52603160045260245ffd5b85815284602082015260a060408201525f6130c760a0830186612b4f565b6001600160a01b0394909416606083015250608001529392505050565b6001600160801b038281168282160390808211156123c7576123c7612c13565b5f82516131158184602087016127f4565b919091019291505056feddf252ad1be2c89b69c2b068fc378daa952ba7f163c4a11628f55a4df523b3efa2646970667358221220b1ca4deb18e8875f1fb203177ff29889570e7fe3b78a5de1b27753f8ddae4fd364736f6c63430008160033","linkReferences":{}},"methodIdentifiers":{"acceptOwnership()":"79ba5097","addInitialLiquidity(address)":"59cabbe4","addLiquidityPool(address)":"ee6a934c","addValidCaller(bytes32)":"e37d9e95","allowance(address,address)":"dd62ed3e","approve(address,uint256)":"095ea7b3","balanceOf(address)":"70a08231","botProtectionDurationInSeconds()":"63a9c1f2","burn(uint256)":"42966c68","burnFrom(address,uint256)":"79cc6790","decimals()":"313ce567","decreaseAllowance(address,uint256)":"a457c2d7","distributeTaxTokens()":"2ead0955","fundedDate()":"10b828c9","increaseAllowance(address,uint256)":"39509351","initialize(address[3],bytes,bytes,bytes)":"84b1df52","isLiquidityPool(address)":"e85455d7","isValidCaller(bytes32)":"bfe3098f","liquidityPools()":"d6efd7c3","name()":"06fdde03","owner()":"8da5cb5b","pairToken()":"3de35b79","pendingOwner()":"e30c3978","projectBuyTaxBasisPoints()":"a45cae02","projectSellTaxBasisPoints()":"b2c5c9eb","projectTaxPendingSwap()":"b0d75097","projectTaxRecipient()":"ea8b2424","removeLiquidityPool(address)":"ae22107f","removeValidCaller(bytes32)":"8589287a","renounceOwnership()":"715018a6","setProjectTaxRates(uint16,uint16)":"936b2934","setProjectTaxRecipient(address)":"9808751d","setSwapThresholdBasisPoints(uint16)":"326b3b8b","swapThresholdBasisPoints()":"4bed5ad2","symbol()":"95d89b41","totalBuyTaxBasisPoints()":"eeae0f97","totalSellTaxBasisPoints()":"038272b6","totalSupply()":"18160ddd","transfer(address,uint256)":"a9059cbb","transferFrom(address,address,uint256)":"23b872dd","transferOwnership(address)":"f2fde38b","uniswapV2Pair()":"49bd5a5e","validCallers()":"b498d39f","vault()":"fbfa77cf","withdrawERC20(address,uint256)":"a1db9782","withdrawETH(uint256)":"f14210a6"},"id":56}