{"abi":[{"type":"constructor","inputs":[],"stateMutability":"nonpayable"},{"type":"function","name":"ADMIN_ROLE","inputs":[],"outputs":[{"name":"","type":"bytes32","internalType":"bytes32"}],"stateMutability":"view"},{"type":"function","name":"DEFAULT_ADMIN_ROLE","inputs":[],"outputs":[{"name":"","type":"bytes32","internalType":"bytes32"}],"stateMutability":"view"},{"type":"function","name":"assetToken","inputs":[],"outputs":[{"name":"","type":"address","internalType":"address"}],"stateMutability":"view"},{"type":"function","name":"bondingRouter","inputs":[],"outputs":[{"name":"","type":"address","internalType":"address"}],"stateMutability":"view"},{"type":"function","name":"getRoleAdmin","inputs":[{"name":"role","type":"bytes32","internalType":"bytes32"}],"outputs":[{"name":"","type":"bytes32","internalType":"bytes32"}],"stateMutability":"view"},{"type":"function","name":"grantRole","inputs":[{"name":"role","type":"bytes32","internalType":"bytes32"},{"name":"account","type":"address","internalType":"address"}],"outputs":[],"stateMutability":"nonpayable"},{"type":"function","name":"hasRole","inputs":[{"name":"role","type":"bytes32","internalType":"bytes32"},{"name":"account","type":"address","internalType":"address"}],"outputs":[{"name":"","type":"bool","internalType":"bool"}],"stateMutability":"view"},{"type":"function","name":"initialize","inputs":[{"name":"defaultAdmin_","type":"address","internalType":"address"},{"name":"assetToken_","type":"address","internalType":"address"},{"name":"taxToken_","type":"address","internalType":"address"},{"name":"router_","type":"address","internalType":"address"},{"name":"bondingRouter_","type":"address","internalType":"address"},{"name":"treasury_","type":"address","internalType":"address"},{"name":"minSwapThreshold_","type":"uint256","internalType":"uint256"},{"name":"maxSwapThreshold_","type":"uint256","internalType":"uint256"}],"outputs":[],"stateMutability":"nonpayable"},{"type":"function","name":"maxSwapThreshold","inputs":[],"outputs":[{"name":"","type":"uint256","internalType":"uint256"}],"stateMutability":"view"},{"type":"function","name":"minSwapThreshold","inputs":[],"outputs":[{"name":"","type":"uint256","internalType":"uint256"}],"stateMutability":"view"},{"type":"function","name":"renounceRole","inputs":[{"name":"role","type":"bytes32","internalType":"bytes32"},{"name":"callerConfirmation","type":"address","internalType":"address"}],"outputs":[],"stateMutability":"nonpayable"},{"type":"function","name":"revokeRole","inputs":[{"name":"role","type":"bytes32","internalType":"bytes32"},{"name":"account","type":"address","internalType":"address"}],"outputs":[],"stateMutability":"nonpayable"},{"type":"function","name":"router","inputs":[],"outputs":[{"name":"","type":"address","internalType":"contract IRouter"}],"stateMutability":"view"},{"type":"function","name":"supportsInterface","inputs":[{"name":"interfaceId","type":"bytes4","internalType":"bytes4"}],"outputs":[{"name":"","type":"bool","internalType":"bool"}],"stateMutability":"view"},{"type":"function","name":"swapForAsset","inputs":[],"outputs":[{"name":"","type":"bool","internalType":"bool"},{"name":"","type":"uint256","internalType":"uint256"}],"stateMutability":"nonpayable"},{"type":"function","name":"taxToken","inputs":[],"outputs":[{"name":"","type":"address","internalType":"address"}],"stateMutability":"view"},{"type":"function","name":"treasury","inputs":[],"outputs":[{"name":"","type":"address","internalType":"address"}],"stateMutability":"view"},{"type":"function","name":"updateSwapParams","inputs":[{"name":"router_","type":"address","internalType":"address"},{"name":"bondingRouter_","type":"address","internalType":"address"},{"name":"assetToken_","type":"address","internalType":"address"},{"name":"slippage_","type":"uint16","internalType":"uint16"}],"outputs":[],"stateMutability":"nonpayable"},{"type":"function","name":"updateSwapThresholds","inputs":[{"name":"minSwapThreshold_","type":"uint256","internalType":"uint256"},{"name":"maxSwapThreshold_","type":"uint256","internalType":"uint256"}],"outputs":[],"stateMutability":"nonpayable"},{"type":"function","name":"updateTreasury","inputs":[{"name":"treasury_","type":"address","internalType":"address"}],"outputs":[],"stateMutability":"nonpayable"},{"type":"function","name":"withdraw","inputs":[{"name":"token","type":"address","internalType":"address"}],"outputs":[],"stateMutability":"nonpayable"},{"type":"event","name":"Initialized","inputs":[{"name":"version","type":"uint64","indexed":false,"internalType":"uint64"}],"anonymous":false},{"type":"event","name":"RoleAdminChanged","inputs":[{"name":"role","type":"bytes32","indexed":true,"internalType":"bytes32"},{"name":"previousAdminRole","type":"bytes32","indexed":true,"internalType":"bytes32"},{"name":"newAdminRole","type":"bytes32","indexed":true,"internalType":"bytes32"}],"anonymous":false},{"type":"event","name":"RoleGranted","inputs":[{"name":"role","type":"bytes32","indexed":true,"internalType":"bytes32"},{"name":"account","type":"address","indexed":true,"internalType":"address"},{"name":"sender","type":"address","indexed":true,"internalType":"address"}],"anonymous":false},{"type":"event","name":"RoleRevoked","inputs":[{"name":"role","type":"bytes32","indexed":true,"internalType":"bytes32"},{"name":"account","type":"address","indexed":true,"internalType":"address"},{"name":"sender","type":"address","indexed":true,"internalType":"address"}],"anonymous":false},{"type":"event","name":"SwapExecuted","inputs":[{"name":"taxTokenAmount","type":"uint256","indexed":false,"internalType":"uint256"},{"name":"assetTokenAmount","type":"uint256","indexed":false,"internalType":"uint256"}],"anonymous":false},{"type":"event","name":"SwapFailed","inputs":[{"name":"taxTokenAmount","type":"uint256","indexed":false,"internalType":"uint256"}],"anonymous":false},{"type":"event","name":"SwapParamsUpdated","inputs":[{"name":"oldRouter","type":"address","indexed":false,"internalType":"address"},{"name":"newRouter","type":"address","indexed":false,"internalType":"address"},{"name":"oldBondingRouter","type":"address","indexed":false,"internalType":"address"},{"name":"newBondingRouter","type":"address","indexed":false,"internalType":"address"},{"name":"oldAsset","type":"address","indexed":false,"internalType":"address"},{"name":"newAsset","type":"address","indexed":false,"internalType":"address"}],"anonymous":false},{"type":"event","name":"SwapThresholdUpdated","inputs":[{"name":"oldMinThreshold","type":"uint256","indexed":false,"internalType":"uint256"},{"name":"newMinThreshold","type":"uint256","indexed":false,"internalType":"uint256"},{"name":"oldMaxThreshold","type":"uint256","indexed":false,"internalType":"uint256"},{"name":"newMaxThreshold","type":"uint256","indexed":false,"internalType":"uint256"}],"anonymous":false},{"type":"event","name":"TreasuryUpdated","inputs":[{"name":"oldTreasury","type":"address","indexed":false,"internalType":"address"},{"name":"newTreasury","type":"address","indexed":false,"internalType":"address"}],"anonymous":false},{"type":"error","name":"AccessControlBadConfirmation","inputs":[]},{"type":"error","name":"AccessControlUnauthorizedAccount","inputs":[{"name":"account","type":"address","internalType":"address"},{"name":"neededRole","type":"bytes32","internalType":"bytes32"}]},{"type":"error","name":"AddressEmptyCode","inputs":[{"name":"target","type":"address","internalType":"address"}]},{"type":"error","name":"AddressInsufficientBalance","inputs":[{"name":"account","type":"address","internalType":"address"}]},{"type":"error","name":"FailedInnerCall","inputs":[]},{"type":"error","name":"InvalidInitialization","inputs":[]},{"type":"error","name":"NotInitializing","inputs":[]},{"type":"error","name":"SafeERC20FailedOperation","inputs":[{"name":"token","type":"address","internalType":"address"}]}],"bytecode":{"object":"0x608060405234801561000f575f80fd5b5061001861001d565b6100cf565b7ff0c57e16840df040f15088dc2f81fe391c3923bec73e23a9662efc9c229c6a00805468010000000000000000900460ff161561006d5760405163f92ee8a960e01b815260040160405180910390fd5b80546001600160401b03908116146100cc5780546001600160401b0319166001600160401b0390811782556040519081527fc7f505b2f371ae2175ee4913f4499e1f2633a7b5936321eed1cdaeb6115181d29060200160405180910390a15b50565b6115a3806100dc5f395ff3fe608060405234801561000f575f80fd5b5060043610610132575f3560e01c80637f51bb1f116100b4578063a217fddf11610079578063a217fddf14610292578063acef1a4414610299578063b0205927146102a2578063c740671f146102b5578063d547741f146102c8578063f887ea40146102db575f80fd5b80637f51bb1f14610231578063876449531461024457806391d148541461024d578063951d833d146102605780639fdfbea91461027f575f80fd5b80632f2ff15d116100fa5780632f2ff15d146101d157806336568abe146101e457806351cff8d9146101f757806361d027b31461020a57806375b238fc1461021d575f80fd5b806301ffc9a7146101365780631083f7611461015e57806315ca79ac146101885780631fc928ae1461019d578063248a9ca3146101b0575b5f80fd5b61014961014436600461113b565b6102ee565b60405190151581526020015b60405180910390f35b5f54610170906001600160a01b031681565b6040516001600160a01b039091168152602001610155565b61019b610196366004611162565b610324565b005b600154610170906001600160a01b031681565b6101c36101be366004611182565b61039c565b604051908152602001610155565b61019b6101df3660046111b4565b6103bc565b61019b6101f23660046111b4565b6103de565b61019b6102053660046111de565b610416565b600454610170906001600160a01b031681565b6101c35f8051602061154e83398151915281565b61019b61023f3660046111de565b6104b6565b6101c360055481565b61014961025b3660046111b4565b61052f565b610268610565565b604080519215158352602083019190915201610155565b61019b61028d3660046111f7565b61098b565b6101c35f81565b6101c360065481565b600354610170906001600160a01b031681565b61019b6102c3366004611250565b610a90565b61019b6102d63660046111b4565b610c43565b600254610170906001600160a01b031681565b5f6001600160e01b03198216637965db0b60e01b148061031e57506301ffc9a760e01b6001600160e01b03198316145b92915050565b5f8051602061154e83398151915261033b81610c5f565b6005805460068054928690558490556040805182815260208101879052908101839052606081018590529091907f9a406f83dc9a92c8bd8f5abc852923a196fe3a87dd6d9ebe8272e928bd5d94fd9060800160405180910390a15050505050565b5f9081525f8051602061152e833981519152602052604090206001015490565b6103c58261039c565b6103ce81610c5f565b6103d88383610c6c565b50505050565b6001600160a01b03811633146104075760405163334bd91960e11b815260040160405180910390fd5b6104118282610d14565b505050565b5f8051602061154e83398151915261042d81610c5f565b600480546040516370a0823160e01b815230928101929092526104b2916001600160a01b03918216918516906370a0823190602401602060405180830381865afa15801561047d573d5f803e3d5ffd5b505050506040513d601f19601f820116820180604052508101906104a191906112d4565b6001600160a01b0385169190610d8d565b5050565b5f8051602061154e8339815191526104cd81610c5f565b600480546001600160a01b038481166001600160a01b031983168117909355604080519190921680825260208201939093527f4ab5be82436d353e61ca18726e984e561f5c1cc7c6d38b29d2553c790434705a910160405180910390a1505050565b5f9182525f8051602061152e833981519152602090815260408084206001600160a01b0393909316845291905290205460ff1690565b6003545f9081906001600160a01b0316336001600160a01b0316146105c75760405162461bcd60e51b815260206004820152601360248201527227b7363c903137b73234b733903937baba32b960691b60448201526064015b60405180910390fd5b6001546040516370a0823160e01b81523060048201525f916001600160a01b0316906370a0823190602401602060405180830381865afa15801561060d573d5f803e3d5ffd5b505050506040513d601f19601f8201168201806040525081019061063191906112d4565b90505f811161067a5760405162461bcd60e51b8152602060048201526015602482015274139bdd1a1a5b99c81d1bc81899481cddd85c1c1959605a1b60448201526064016105be565b60055481101561068e57505f928392509050565b60065481111561069d57506006545b6040805160028082526060820183525f92602083019080368337505060015482519293506001600160a01b0316918391505f906106dc576106dc6112ff565b6001600160a01b0392831660209182029290920101525f5482519116908290600190811061070c5761070c6112ff565b6001600160a01b03928316602091820292909201015260025460405163d06ca61f60e01b81525f92919091169063d06ca61f9061074f9086908690600401611356565b5f60405180830381865afa158015610769573d5f803e3d5ffd5b505050506040513d5f823e601f3d908101601f191682016040526107909190810190611376565b905060018151116107e35760405162461bcd60e51b815260206004820152601b60248201527f4661696c656420746f20666574636820746f6b656e207072696365000000000060448201526064016105be565b5f816001815181106107f7576107f76112ff565b60209081029190910101516007549091505f906127109061081c9061ffff1682611443565b61082a9061ffff168461145e565b6108349190611475565b6002546004549192506001600160a01b03908116916338ed173991889185918991166108624261012c611494565b6040518663ffffffff1660e01b81526004016108829594939291906114a7565b5f604051808303815f875af19250505080156108bf57506040513d5f823e601f3d908101601f191682016040526108bc9190810190611376565b60015b610904576040518581527ff9e10ddceffcb10b96e8833202366240699b814c91f371ddd9befa3aee9bc60f9060200160405180910390a1505f96879650945050505050565b7f4f73e5828387c436ef01a51b03853873e76d7a5551556837d452cbeb6f285cb58682600181518110610939576109396112ff565b6020026020010151604051610958929190918252602082015260400190565b60405180910390a1600181600181518110610975576109756112ff565b6020026020010151975097505050505050509091565b5f8051602061154e8339815191526109a281610c5f565b60028054600380545f80546001600160a01b03198082166001600160a01b038b8116919091179093558086168c841617909655948216898216179092556007805461ffff191661ffff8816179055600154928216939082169290821691610a0c9116895f19610dec565b600154610a23906001600160a01b0316845f610dec565b604080516001600160a01b0385811682528a811660208301528481168284015289811660608301528381166080830152881660a082015290517febffc51a0a7498708af30e8f6cb80c598904ace1680c3d3511fa2215b5808b929181900360c00190a15050505050505050565b7ff0c57e16840df040f15088dc2f81fe391c3923bec73e23a9662efc9c229c6a008054600160401b810460ff16159067ffffffffffffffff165f81158015610ad55750825b90505f8267ffffffffffffffff166001148015610af15750303b155b905081158015610aff575080155b15610b1d5760405163f92ee8a960e01b815260040160405180910390fd5b845467ffffffffffffffff191660011785558315610b4757845460ff60401b1916600160401b1785555b610b4f610e7b565b610b665f8051602061154e8339815191528e610c6c565b50610b715f8e610c6c565b505f80546001600160a01b03808f166001600160a01b031992831617909255600180548e84169083168117909155600280548e8516908416179055600380548d851690841617905560048054938c169390921692909217905560058890556006879055610be0908b5f19610dec565b6007805461ffff191660641790558315610c3457845460ff60401b19168555604051600181527fc7f505b2f371ae2175ee4913f4499e1f2633a7b5936321eed1cdaeb6115181d29060200160405180910390a15b50505050505050505050505050565b610c4c8261039c565b610c5581610c5f565b6103d88383610d14565b610c698133610e85565b50565b5f5f8051602061152e833981519152610c85848461052f565b610d04575f848152602082815260408083206001600160a01b03871684529091529020805460ff19166001179055610cba3390565b6001600160a01b0316836001600160a01b0316857f2f8788117e7eff1d82e926ec794901d17c78024a50270940304540a733656f0d60405160405180910390a4600191505061031e565b5f91505061031e565b5092915050565b5f5f8051602061152e833981519152610d2d848461052f565b15610d04575f848152602082815260408083206001600160a01b0387168085529252808320805460ff1916905551339287917ff6391f5c32d9c69d2a47ea670b442974b53935d1edc7fd64eb21e047a839171b9190a4600191505061031e565b6040516001600160a01b0383811660248301526044820183905261041191859182169063a9059cbb906064015b604051602081830303815290604052915060e01b6020820180516001600160e01b038381831617835250505050610ebe565b604080516001600160a01b038416602482015260448082018490528251808303909101815260649091019091526020810180516001600160e01b031663095ea7b360e01b179052610e3d8482610f1f565b6103d8576040516001600160a01b0384811660248301525f6044830152610e7191869182169063095ea7b390606401610dba565b6103d88482610ebe565b610e83610fc0565b565b610e8f828261052f565b6104b25760405163e2517d3f60e01b81526001600160a01b0382166004820152602481018390526044016105be565b5f610ed26001600160a01b03841683611009565b905080515f14158015610ef6575080806020019051810190610ef491906114e2565b155b1561041157604051635274afe760e01b81526001600160a01b03841660048201526024016105be565b5f805f846001600160a01b031684604051610f3a9190611501565b5f604051808303815f865af19150503d805f8114610f73576040519150601f19603f3d011682016040523d82523d5f602084013e610f78565b606091505b5091509150818015610fa2575080511580610fa2575080806020019051810190610fa291906114e2565b8015610fb757505f856001600160a01b03163b115b95945050505050565b7ff0c57e16840df040f15088dc2f81fe391c3923bec73e23a9662efc9c229c6a0054600160401b900460ff16610e8357604051631afcd79f60e31b815260040160405180910390fd5b606061101683835f61101d565b9392505050565b6060814710156110425760405163cd78605960e01b81523060048201526024016105be565b5f80856001600160a01b0316848660405161105d9190611501565b5f6040518083038185875af1925050503d805f8114611097576040519150601f19603f3d011682016040523d82523d5f602084013e61109c565b606091505b50915091506110ac8683836110b6565b9695505050505050565b6060826110cb576110c682611112565b611016565b81511580156110e257506001600160a01b0384163b155b1561110b57604051639996b31560e01b81526001600160a01b03851660048201526024016105be565b5080611016565b8051156111225780518082602001fd5b604051630a12f52160e11b815260040160405180910390fd5b5f6020828403121561114b575f80fd5b81356001600160e01b031981168114611016575f80fd5b5f8060408385031215611173575f80fd5b50508035926020909101359150565b5f60208284031215611192575f80fd5b5035919050565b80356001600160a01b03811681146111af575f80fd5b919050565b5f80604083850312156111c5575f80fd5b823591506111d560208401611199565b90509250929050565b5f602082840312156111ee575f80fd5b61101682611199565b5f805f806080858703121561120a575f80fd5b61121385611199565b935061122160208601611199565b925061122f60408601611199565b9150606085013561ffff81168114611245575f80fd5b939692955090935050565b5f805f805f805f80610100898b031215611268575f80fd5b61127189611199565b975061127f60208a01611199565b965061128d60408a01611199565b955061129b60608a01611199565b94506112a960808a01611199565b93506112b760a08a01611199565b925060c0890135915060e089013590509295985092959890939650565b5f602082840312156112e4575f80fd5b5051919050565b634e487b7160e01b5f52604160045260245ffd5b634e487b7160e01b5f52603260045260245ffd5b5f815180845260208085019450602084015f5b8381101561134b5781516001600160a01b031687529582019590820190600101611326565b509495945050505050565b828152604060208201525f61136e6040830184611313565b949350505050565b5f6020808385031215611387575f80fd5b825167ffffffffffffffff8082111561139e575f80fd5b818501915085601f8301126113b1575f80fd5b8151818111156113c3576113c36112eb565b8060051b604051601f19603f830116810181811085821117156113e8576113e86112eb565b604052918252848201925083810185019188831115611405575f80fd5b938501935b828510156114235784518452938501939285019261140a565b98975050505050505050565b634e487b7160e01b5f52601160045260245ffd5b61ffff828116828216039080821115610d0d57610d0d61142f565b808202811582820484141761031e5761031e61142f565b5f8261148f57634e487b7160e01b5f52601260045260245ffd5b500490565b8082018082111561031e5761031e61142f565b85815284602082015260a060408201525f6114c560a0830186611313565b6001600160a01b0394909416606083015250608001529392505050565b5f602082840312156114f2575f80fd5b81518015158114611016575f80fd5b5f82515f5b818110156115205760208186018101518583015201611506565b505f92019182525091905056fe02dd7bc7dec4dceedda775e58dd541e08a116c6c53815c0bd028192f7b626800a49807205ce4d355092ef5a8a18f56e8913cf4a201fbe287825b095693c21775a26469706673582212202281894fa9e94d5c60e2bd26aa456e31e2955e72a3c556c8cc268189b6fe1e0564736f6c63430008160033","linkReferences":{}},"methodIdentifiers":{"ADMIN_ROLE()":"75b238fc","DEFAULT_ADMIN_ROLE()":"a217fddf","assetToken()":"1083f761","bondingRouter()":"b0205927","getRoleAdmin(bytes32)":"248a9ca3","grantRole(bytes32,address)":"2f2ff15d","hasRole(bytes32,address)":"91d14854","initialize(address,address,address,address,address,address,uint256,uint256)":"c740671f","maxSwapThreshold()":"acef1a44","minSwapThreshold()":"87644953","renounceRole(bytes32,address)":"36568abe","revokeRole(bytes32,address)":"d547741f","router()":"f887ea40","supportsInterface(bytes4)":"01ffc9a7","swapForAsset()":"951d833d","taxToken()":"1fc928ae","treasury()":"61d027b3","updateSwapParams(address,address,address,uint16)":"9fdfbea9","updateSwapThresholds(uint256,uint256)":"15ca79ac","updateTreasury(address)":"7f51bb1f","withdraw(address)":"51cff8d9"},"id":43}